{
	"contracts/Simplify/productStore.sol": {
		"ProductStore": {
			"abi": [
				{
					"inputs": [
						{
							"internalType": "address",
							"name": "_tokenAddress",
							"type": "address"
						}
					],
					"stateMutability": "nonpayable",
					"type": "constructor"
				},
				{
					"inputs": [
						{
							"internalType": "address",
							"name": "sender",
							"type": "address"
						},
						{
							"internalType": "uint256",
							"name": "tokenId",
							"type": "uint256"
						},
						{
							"internalType": "address",
							"name": "owner",
							"type": "address"
						}
					],
					"name": "ERC721IncorrectOwner",
					"type": "error"
				},
				{
					"inputs": [
						{
							"internalType": "address",
							"name": "operator",
							"type": "address"
						},
						{
							"internalType": "uint256",
							"name": "tokenId",
							"type": "uint256"
						}
					],
					"name": "ERC721InsufficientApproval",
					"type": "error"
				},
				{
					"inputs": [
						{
							"internalType": "address",
							"name": "approver",
							"type": "address"
						}
					],
					"name": "ERC721InvalidApprover",
					"type": "error"
				},
				{
					"inputs": [
						{
							"internalType": "address",
							"name": "operator",
							"type": "address"
						}
					],
					"name": "ERC721InvalidOperator",
					"type": "error"
				},
				{
					"inputs": [
						{
							"internalType": "address",
							"name": "owner",
							"type": "address"
						}
					],
					"name": "ERC721InvalidOwner",
					"type": "error"
				},
				{
					"inputs": [
						{
							"internalType": "address",
							"name": "receiver",
							"type": "address"
						}
					],
					"name": "ERC721InvalidReceiver",
					"type": "error"
				},
				{
					"inputs": [
						{
							"internalType": "address",
							"name": "sender",
							"type": "address"
						}
					],
					"name": "ERC721InvalidSender",
					"type": "error"
				},
				{
					"inputs": [
						{
							"internalType": "uint256",
							"name": "tokenId",
							"type": "uint256"
						}
					],
					"name": "ERC721NonexistentToken",
					"type": "error"
				},
				{
					"anonymous": false,
					"inputs": [
						{
							"indexed": true,
							"internalType": "address",
							"name": "owner",
							"type": "address"
						},
						{
							"indexed": true,
							"internalType": "address",
							"name": "approved",
							"type": "address"
						},
						{
							"indexed": true,
							"internalType": "uint256",
							"name": "tokenId",
							"type": "uint256"
						}
					],
					"name": "Approval",
					"type": "event"
				},
				{
					"anonymous": false,
					"inputs": [
						{
							"indexed": true,
							"internalType": "address",
							"name": "owner",
							"type": "address"
						},
						{
							"indexed": true,
							"internalType": "address",
							"name": "operator",
							"type": "address"
						},
						{
							"indexed": false,
							"internalType": "bool",
							"name": "approved",
							"type": "bool"
						}
					],
					"name": "ApprovalForAll",
					"type": "event"
				},
				{
					"anonymous": false,
					"inputs": [
						{
							"indexed": true,
							"internalType": "address",
							"name": "buyer",
							"type": "address"
						},
						{
							"indexed": false,
							"internalType": "uint256",
							"name": "productId",
							"type": "uint256"
						},
						{
							"indexed": false,
							"internalType": "uint256",
							"name": "amountPaid",
							"type": "uint256"
						}
					],
					"name": "BuyProduct",
					"type": "event"
				},
				{
					"anonymous": false,
					"inputs": [
						{
							"indexed": true,
							"internalType": "address",
							"name": "previousOwner",
							"type": "address"
						},
						{
							"indexed": true,
							"internalType": "address",
							"name": "newOwner",
							"type": "address"
						}
					],
					"name": "OwnershipTransferred",
					"type": "event"
				},
				{
					"anonymous": false,
					"inputs": [
						{
							"indexed": true,
							"internalType": "address",
							"name": "from",
							"type": "address"
						},
						{
							"indexed": true,
							"internalType": "address",
							"name": "to",
							"type": "address"
						},
						{
							"indexed": true,
							"internalType": "uint256",
							"name": "tokenId",
							"type": "uint256"
						}
					],
					"name": "Transfer",
					"type": "event"
				},
				{
					"inputs": [
						{
							"internalType": "string",
							"name": "_name",
							"type": "string"
						},
						{
							"internalType": "uint256",
							"name": "_price",
							"type": "uint256"
						}
					],
					"name": "addProduct",
					"outputs": [],
					"stateMutability": "nonpayable",
					"type": "function"
				},
				{
					"inputs": [
						{
							"internalType": "address",
							"name": "to",
							"type": "address"
						},
						{
							"internalType": "uint256",
							"name": "tokenId",
							"type": "uint256"
						}
					],
					"name": "approve",
					"outputs": [],
					"stateMutability": "nonpayable",
					"type": "function"
				},
				{
					"inputs": [
						{
							"internalType": "address",
							"name": "owner",
							"type": "address"
						}
					],
					"name": "balanceOf",
					"outputs": [
						{
							"internalType": "uint256",
							"name": "",
							"type": "uint256"
						}
					],
					"stateMutability": "view",
					"type": "function"
				},
				{
					"inputs": [
						{
							"internalType": "uint256",
							"name": "_productId",
							"type": "uint256"
						}
					],
					"name": "buyProduct",
					"outputs": [],
					"stateMutability": "nonpayable",
					"type": "function"
				},
				{
					"inputs": [
						{
							"internalType": "uint256",
							"name": "tokenId",
							"type": "uint256"
						}
					],
					"name": "getApproved",
					"outputs": [
						{
							"internalType": "address",
							"name": "",
							"type": "address"
						}
					],
					"stateMutability": "view",
					"type": "function"
				},
				{
					"inputs": [
						{
							"internalType": "address",
							"name": "user",
							"type": "address"
						}
					],
					"name": "getUserProductDetails",
					"outputs": [
						{
							"components": [
								{
									"internalType": "uint256",
									"name": "id",
									"type": "uint256"
								},
								{
									"internalType": "string",
									"name": "name",
									"type": "string"
								},
								{
									"internalType": "uint256",
									"name": "price",
									"type": "uint256"
								}
							],
							"internalType": "struct ProductStore.Product[]",
							"name": "",
							"type": "tuple[]"
						}
					],
					"stateMutability": "view",
					"type": "function"
				},
				{
					"inputs": [
						{
							"internalType": "address",
							"name": "owner",
							"type": "address"
						},
						{
							"internalType": "address",
							"name": "operator",
							"type": "address"
						}
					],
					"name": "isApprovedForAll",
					"outputs": [
						{
							"internalType": "bool",
							"name": "",
							"type": "bool"
						}
					],
					"stateMutability": "view",
					"type": "function"
				},
				{
					"inputs": [],
					"name": "name",
					"outputs": [
						{
							"internalType": "string",
							"name": "",
							"type": "string"
						}
					],
					"stateMutability": "view",
					"type": "function"
				},
				{
					"inputs": [],
					"name": "nextProductId",
					"outputs": [
						{
							"internalType": "uint256",
							"name": "",
							"type": "uint256"
						}
					],
					"stateMutability": "view",
					"type": "function"
				},
				{
					"inputs": [],
					"name": "owner",
					"outputs": [
						{
							"internalType": "address",
							"name": "",
							"type": "address"
						}
					],
					"stateMutability": "view",
					"type": "function"
				},
				{
					"inputs": [
						{
							"internalType": "uint256",
							"name": "tokenId",
							"type": "uint256"
						}
					],
					"name": "ownerOf",
					"outputs": [
						{
							"internalType": "address",
							"name": "",
							"type": "address"
						}
					],
					"stateMutability": "view",
					"type": "function"
				},
				{
					"inputs": [
						{
							"internalType": "uint256",
							"name": "",
							"type": "uint256"
						}
					],
					"name": "products",
					"outputs": [
						{
							"internalType": "uint256",
							"name": "id",
							"type": "uint256"
						},
						{
							"internalType": "string",
							"name": "name",
							"type": "string"
						},
						{
							"internalType": "uint256",
							"name": "price",
							"type": "uint256"
						}
					],
					"stateMutability": "view",
					"type": "function"
				},
				{
					"inputs": [],
					"name": "renounceOwnership",
					"outputs": [],
					"stateMutability": "nonpayable",
					"type": "function"
				},
				{
					"inputs": [
						{
							"internalType": "address",
							"name": "from",
							"type": "address"
						},
						{
							"internalType": "address",
							"name": "to",
							"type": "address"
						},
						{
							"internalType": "uint256",
							"name": "tokenId",
							"type": "uint256"
						}
					],
					"name": "safeTransferFrom",
					"outputs": [],
					"stateMutability": "nonpayable",
					"type": "function"
				},
				{
					"inputs": [
						{
							"internalType": "address",
							"name": "from",
							"type": "address"
						},
						{
							"internalType": "address",
							"name": "to",
							"type": "address"
						},
						{
							"internalType": "uint256",
							"name": "tokenId",
							"type": "uint256"
						},
						{
							"internalType": "bytes",
							"name": "data",
							"type": "bytes"
						}
					],
					"name": "safeTransferFrom",
					"outputs": [],
					"stateMutability": "nonpayable",
					"type": "function"
				},
				{
					"inputs": [
						{
							"internalType": "address",
							"name": "operator",
							"type": "address"
						},
						{
							"internalType": "bool",
							"name": "approved",
							"type": "bool"
						}
					],
					"name": "setApprovalForAll",
					"outputs": [],
					"stateMutability": "nonpayable",
					"type": "function"
				},
				{
					"inputs": [
						{
							"internalType": "bytes4",
							"name": "interfaceId",
							"type": "bytes4"
						}
					],
					"name": "supportsInterface",
					"outputs": [
						{
							"internalType": "bool",
							"name": "",
							"type": "bool"
						}
					],
					"stateMutability": "view",
					"type": "function"
				},
				{
					"inputs": [],
					"name": "symbol",
					"outputs": [
						{
							"internalType": "string",
							"name": "",
							"type": "string"
						}
					],
					"stateMutability": "view",
					"type": "function"
				},
				{
					"inputs": [],
					"name": "token",
					"outputs": [
						{
							"internalType": "contract IERC20",
							"name": "",
							"type": "address"
						}
					],
					"stateMutability": "view",
					"type": "function"
				},
				{
					"inputs": [
						{
							"internalType": "uint256",
							"name": "tokenId",
							"type": "uint256"
						}
					],
					"name": "tokenURI",
					"outputs": [
						{
							"internalType": "string",
							"name": "",
							"type": "string"
						}
					],
					"stateMutability": "view",
					"type": "function"
				},
				{
					"inputs": [
						{
							"internalType": "address",
							"name": "from",
							"type": "address"
						},
						{
							"internalType": "address",
							"name": "to",
							"type": "address"
						},
						{
							"internalType": "uint256",
							"name": "tokenId",
							"type": "uint256"
						}
					],
					"name": "transferFrom",
					"outputs": [],
					"stateMutability": "nonpayable",
					"type": "function"
				},
				{
					"inputs": [
						{
							"internalType": "address",
							"name": "newOwner",
							"type": "address"
						}
					],
					"name": "transferOwnership",
					"outputs": [],
					"stateMutability": "nonpayable",
					"type": "function"
				},
				{
					"inputs": [
						{
							"internalType": "address",
							"name": "",
							"type": "address"
						},
						{
							"internalType": "uint256",
							"name": "",
							"type": "uint256"
						}
					],
					"name": "userPurchases",
					"outputs": [
						{
							"internalType": "uint256",
							"name": "",
							"type": "uint256"
						}
					],
					"stateMutability": "view",
					"type": "function"
				}
			],
			"devdoc": {
				"errors": {
					"ERC721IncorrectOwner(address,uint256,address)": [
						{
							"details": "Indicates an error related to the ownership over a particular token. Used in transfers.",
							"params": {
								"owner": "Address of the current owner of a token.",
								"sender": "Address whose tokens are being transferred.",
								"tokenId": "Identifier number of a token."
							}
						}
					],
					"ERC721InsufficientApproval(address,uint256)": [
						{
							"details": "Indicates a failure with the `operator`’s approval. Used in transfers.",
							"params": {
								"operator": "Address that may be allowed to operate on tokens without being their owner.",
								"tokenId": "Identifier number of a token."
							}
						}
					],
					"ERC721InvalidApprover(address)": [
						{
							"details": "Indicates a failure with the `approver` of a token to be approved. Used in approvals.",
							"params": {
								"approver": "Address initiating an approval operation."
							}
						}
					],
					"ERC721InvalidOperator(address)": [
						{
							"details": "Indicates a failure with the `operator` to be approved. Used in approvals.",
							"params": {
								"operator": "Address that may be allowed to operate on tokens without being their owner."
							}
						}
					],
					"ERC721InvalidOwner(address)": [
						{
							"details": "Indicates that an address can't be an owner. For example, `address(0)` is a forbidden owner in EIP-20. Used in balance queries.",
							"params": {
								"owner": "Address of the current owner of a token."
							}
						}
					],
					"ERC721InvalidReceiver(address)": [
						{
							"details": "Indicates a failure with the token `receiver`. Used in transfers.",
							"params": {
								"receiver": "Address to which tokens are being transferred."
							}
						}
					],
					"ERC721InvalidSender(address)": [
						{
							"details": "Indicates a failure with the token `sender`. Used in transfers.",
							"params": {
								"sender": "Address whose tokens are being transferred."
							}
						}
					],
					"ERC721NonexistentToken(uint256)": [
						{
							"details": "Indicates a `tokenId` whose `owner` is the zero address.",
							"params": {
								"tokenId": "Identifier number of a token."
							}
						}
					]
				},
				"events": {
					"Approval(address,address,uint256)": {
						"details": "Emitted when `owner` enables `approved` to manage the `tokenId` token."
					},
					"ApprovalForAll(address,address,bool)": {
						"details": "Emitted when `owner` enables or disables (`approved`) `operator` to manage all of its assets."
					},
					"Transfer(address,address,uint256)": {
						"details": "Emitted when `tokenId` token is transferred from `from` to `to`."
					}
				},
				"kind": "dev",
				"methods": {
					"approve(address,uint256)": {
						"details": "See {IERC721-approve}."
					},
					"balanceOf(address)": {
						"details": "See {IERC721-balanceOf}."
					},
					"getApproved(uint256)": {
						"details": "See {IERC721-getApproved}."
					},
					"isApprovedForAll(address,address)": {
						"details": "See {IERC721-isApprovedForAll}."
					},
					"name()": {
						"details": "See {IERC721Metadata-name}."
					},
					"owner()": {
						"details": "Returns the address of the current owner."
					},
					"ownerOf(uint256)": {
						"details": "See {IERC721-ownerOf}."
					},
					"renounceOwnership()": {
						"details": "Leaves the contract without owner. It will not be possible to call `onlyOwner` functions. Can only be called by the current owner. NOTE: Renouncing ownership will leave the contract without an owner, thereby disabling any functionality that is only available to the owner."
					},
					"safeTransferFrom(address,address,uint256)": {
						"details": "See {IERC721-safeTransferFrom}."
					},
					"safeTransferFrom(address,address,uint256,bytes)": {
						"details": "See {IERC721-safeTransferFrom}."
					},
					"setApprovalForAll(address,bool)": {
						"details": "See {IERC721-setApprovalForAll}."
					},
					"supportsInterface(bytes4)": {
						"details": "See {IERC165-supportsInterface}."
					},
					"symbol()": {
						"details": "See {IERC721Metadata-symbol}."
					},
					"tokenURI(uint256)": {
						"details": "See {IERC721Metadata-tokenURI}."
					},
					"transferFrom(address,address,uint256)": {
						"details": "See {IERC721-transferFrom}."
					},
					"transferOwnership(address)": {
						"details": "Transfers ownership of the contract to a new account (`newOwner`). Can only be called by the current owner."
					}
				},
				"version": 1
			},
			"evm": {
				"assembly": "    /* \"contracts/Simplify/productStore.sol\":292:2271  contract ProductStore is ERC721, Ownable {... */\n  mstore(0x40, 0x80)\n    /* \"contracts/Simplify/productStore.sol\":807:919  constructor(address _tokenAddress) ERC721(\"ProductBill\", \"PBL\") {... */\n  callvalue\n  dup1\n  iszero\n  tag_1\n  jumpi\n  0x00\n  dup1\n  revert\ntag_1:\n  pop\n  mload(0x40)\n  sub(codesize, bytecodeSize)\n  dup1\n  bytecodeSize\n  dup4\n  codecopy\n  dup2\n  dup2\n  add\n  0x40\n  mstore\n  dup2\n  add\n  swap1\n  tag_2\n  swap2\n  swap1\n  tag_3\n  jump\t// in\ntag_2:\n    /* \"@openzeppelin/contracts/token/ERC721/ERC721.sol\":1381:1494  constructor(string memory name_, string memory symbol_) {... */\n  mload(0x40)\n  dup1\n  0x40\n  add\n  0x40\n  mstore\n  dup1\n  0x0b\n  dup2\n  mstore\n  0x20\n  add\n  0x50726f6475637442696c6c000000000000000000000000000000000000000000\n  dup2\n  mstore\n  pop\n  mload(0x40)\n  dup1\n  0x40\n  add\n  0x40\n  mstore\n  dup1\n  0x03\n  dup2\n  mstore\n  0x20\n  add\n  0x50424c0000000000000000000000000000000000000000000000000000000000\n  dup2\n  mstore\n  pop\n    /* \"@openzeppelin/contracts/token/ERC721/ERC721.sol\":1455:1460  name_ */\n  dup2\n    /* \"@openzeppelin/contracts/token/ERC721/ERC721.sol\":1447:1452  _name */\n  0x00\n    /* \"@openzeppelin/contracts/token/ERC721/ERC721.sol\":1447:1460  _name = name_ */\n  swap1\n  dup2\n  tag_8\n  swap2\n  swap1\n  tag_9\n  jump\t// in\ntag_8:\n  pop\n    /* \"@openzeppelin/contracts/token/ERC721/ERC721.sol\":1480:1487  symbol_ */\n  dup1\n    /* \"@openzeppelin/contracts/token/ERC721/ERC721.sol\":1470:1477  _symbol */\n  0x01\n    /* \"@openzeppelin/contracts/token/ERC721/ERC721.sol\":1470:1487  _symbol = symbol_ */\n  swap1\n  dup2\n  tag_10\n  swap2\n  swap1\n  tag_9\n  jump\t// in\ntag_10:\n  pop\n    /* \"@openzeppelin/contracts/token/ERC721/ERC721.sol\":1381:1494  constructor(string memory name_, string memory symbol_) {... */\n  pop\n  pop\n    /* \"@openzeppelin/contracts/access/Ownable.sol\":936:968  _transferOwnership(_msgSender()) */\n  tag_12\n    /* \"@openzeppelin/contracts/access/Ownable.sol\":955:967  _msgSender() */\n  tag_13\n    /* \"@openzeppelin/contracts/access/Ownable.sol\":955:965  _msgSender */\n  shl(0x20, tag_14)\n    /* \"@openzeppelin/contracts/access/Ownable.sol\":955:967  _msgSender() */\n  0x20\n  shr\n  jump\t// in\ntag_13:\n    /* \"@openzeppelin/contracts/access/Ownable.sol\":936:954  _transferOwnership */\n  shl(0x20, tag_15)\n    /* \"@openzeppelin/contracts/access/Ownable.sol\":936:968  _transferOwnership(_msgSender()) */\n  0x20\n  shr\n  jump\t// in\ntag_12:\n    /* \"contracts/Simplify/productStore.sol\":897:910  _tokenAddress */\n  dup1\n    /* \"contracts/Simplify/productStore.sol\":882:887  token */\n  0x07\n  0x00\n    /* \"contracts/Simplify/productStore.sol\":882:911  token = IERC20(_tokenAddress) */\n  0x0100\n  exp\n  dup2\n  sload\n  dup2\n  0xffffffffffffffffffffffffffffffffffffffff\n  mul\n  not\n  and\n  swap1\n  dup4\n  0xffffffffffffffffffffffffffffffffffffffff\n  and\n  mul\n  or\n  swap1\n  sstore\n  pop\n    /* \"contracts/Simplify/productStore.sol\":807:919  constructor(address _tokenAddress) ERC721(\"ProductBill\", \"PBL\") {... */\n  pop\n    /* \"contracts/Simplify/productStore.sol\":292:2271  contract ProductStore is ERC721, Ownable {... */\n  jump(tag_17)\n    /* \"@openzeppelin/contracts/utils/Context.sol\":640:736  function _msgSender() internal view virtual returns (address) {... */\ntag_14:\n    /* \"@openzeppelin/contracts/utils/Context.sol\":693:700  address */\n  0x00\n    /* \"@openzeppelin/contracts/utils/Context.sol\":719:729  msg.sender */\n  caller\n    /* \"@openzeppelin/contracts/utils/Context.sol\":712:729  return msg.sender */\n  swap1\n  pop\n    /* \"@openzeppelin/contracts/utils/Context.sol\":640:736  function _msgSender() internal view virtual returns (address) {... */\n  swap1\n  jump\t// out\n    /* \"@openzeppelin/contracts/access/Ownable.sol\":2426:2613  function _transferOwnership(address newOwner) internal virtual {... */\ntag_15:\n    /* \"@openzeppelin/contracts/access/Ownable.sol\":2499:2515  address oldOwner */\n  0x00\n    /* \"@openzeppelin/contracts/access/Ownable.sol\":2518:2524  _owner */\n  0x06\n  0x00\n  swap1\n  sload\n  swap1\n  0x0100\n  exp\n  swap1\n  div\n  0xffffffffffffffffffffffffffffffffffffffff\n  and\n    /* \"@openzeppelin/contracts/access/Ownable.sol\":2499:2524  address oldOwner = _owner */\n  swap1\n  pop\n    /* \"@openzeppelin/contracts/access/Ownable.sol\":2543:2551  newOwner */\n  dup2\n    /* \"@openzeppelin/contracts/access/Ownable.sol\":2534:2540  _owner */\n  0x06\n  0x00\n    /* \"@openzeppelin/contracts/access/Ownable.sol\":2534:2551  _owner = newOwner */\n  0x0100\n  exp\n  dup2\n  sload\n  dup2\n  0xffffffffffffffffffffffffffffffffffffffff\n  mul\n  not\n  and\n  swap1\n  dup4\n  0xffffffffffffffffffffffffffffffffffffffff\n  and\n  mul\n  or\n  swap1\n  sstore\n  pop\n    /* \"@openzeppelin/contracts/access/Ownable.sol\":2597:2605  newOwner */\n  dup2\n    /* \"@openzeppelin/contracts/access/Ownable.sol\":2566:2606  OwnershipTransferred(oldOwner, newOwner) */\n  0xffffffffffffffffffffffffffffffffffffffff\n  and\n    /* \"@openzeppelin/contracts/access/Ownable.sol\":2587:2595  oldOwner */\n  dup2\n    /* \"@openzeppelin/contracts/access/Ownable.sol\":2566:2606  OwnershipTransferred(oldOwner, newOwner) */\n  0xffffffffffffffffffffffffffffffffffffffff\n  and\n  0x8be0079c531659141344cd1fd0a4f28419497f9722a3daafe3b4186f6b6457e0\n  mload(0x40)\n  mload(0x40)\n  dup1\n  swap2\n  sub\n  swap1\n  log3\n    /* \"@openzeppelin/contracts/access/Ownable.sol\":2489:2613  {... */\n  pop\n    /* \"@openzeppelin/contracts/access/Ownable.sol\":2426:2613  function _transferOwnership(address newOwner) internal virtual {... */\n  pop\n  jump\t// out\n    /* \"#utility.yul\":88:205   */\ntag_21:\n    /* \"#utility.yul\":197:198   */\n  0x00\n    /* \"#utility.yul\":194:195   */\n  dup1\n    /* \"#utility.yul\":187:199   */\n  revert\n    /* \"#utility.yul\":334:460   */\ntag_23:\n    /* \"#utility.yul\":371:378   */\n  0x00\n    /* \"#utility.yul\":411:453   */\n  0xffffffffffffffffffffffffffffffffffffffff\n    /* \"#utility.yul\":404:409   */\n  dup3\n    /* \"#utility.yul\":400:454   */\n  and\n    /* \"#utility.yul\":389:454   */\n  swap1\n  pop\n    /* \"#utility.yul\":334:460   */\n  swap2\n  swap1\n  pop\n  jump\t// out\n    /* \"#utility.yul\":466:562   */\ntag_24:\n    /* \"#utility.yul\":503:510   */\n  0x00\n    /* \"#utility.yul\":532:556   */\n  tag_53\n    /* \"#utility.yul\":550:555   */\n  dup3\n    /* \"#utility.yul\":532:556   */\n  tag_23\n  jump\t// in\ntag_53:\n    /* \"#utility.yul\":521:556   */\n  swap1\n  pop\n    /* \"#utility.yul\":466:562   */\n  swap2\n  swap1\n  pop\n  jump\t// out\n    /* \"#utility.yul\":568:690   */\ntag_25:\n    /* \"#utility.yul\":641:665   */\n  tag_55\n    /* \"#utility.yul\":659:664   */\n  dup2\n    /* \"#utility.yul\":641:665   */\n  tag_24\n  jump\t// in\ntag_55:\n    /* \"#utility.yul\":634:639   */\n  dup2\n    /* \"#utility.yul\":631:666   */\n  eq\n    /* \"#utility.yul\":621:684   */\n  tag_56\n  jumpi\n    /* \"#utility.yul\":680:681   */\n  0x00\n    /* \"#utility.yul\":677:678   */\n  dup1\n    /* \"#utility.yul\":670:682   */\n  revert\n    /* \"#utility.yul\":621:684   */\ntag_56:\n    /* \"#utility.yul\":568:690   */\n  pop\n  jump\t// out\n    /* \"#utility.yul\":696:839   */\ntag_26:\n    /* \"#utility.yul\":753:758   */\n  0x00\n    /* \"#utility.yul\":784:790   */\n  dup2\n    /* \"#utility.yul\":778:791   */\n  mload\n    /* \"#utility.yul\":769:791   */\n  swap1\n  pop\n    /* \"#utility.yul\":800:833   */\n  tag_58\n    /* \"#utility.yul\":827:832   */\n  dup2\n    /* \"#utility.yul\":800:833   */\n  tag_25\n  jump\t// in\ntag_58:\n    /* \"#utility.yul\":696:839   */\n  swap3\n  swap2\n  pop\n  pop\n  jump\t// out\n    /* \"#utility.yul\":845:1196   */\ntag_3:\n    /* \"#utility.yul\":915:921   */\n  0x00\n    /* \"#utility.yul\":964:966   */\n  0x20\n    /* \"#utility.yul\":952:961   */\n  dup3\n    /* \"#utility.yul\":943:950   */\n  dup5\n    /* \"#utility.yul\":939:962   */\n  sub\n    /* \"#utility.yul\":935:967   */\n  slt\n    /* \"#utility.yul\":932:1051   */\n  iszero\n  tag_60\n  jumpi\n    /* \"#utility.yul\":970:1049   */\n  tag_61\n  tag_21\n  jump\t// in\ntag_61:\n    /* \"#utility.yul\":932:1051   */\ntag_60:\n    /* \"#utility.yul\":1090:1091   */\n  0x00\n    /* \"#utility.yul\":1115:1179   */\n  tag_62\n    /* \"#utility.yul\":1171:1178   */\n  dup5\n    /* \"#utility.yul\":1162:1168   */\n  dup3\n    /* \"#utility.yul\":1151:1160   */\n  dup6\n    /* \"#utility.yul\":1147:1169   */\n  add\n    /* \"#utility.yul\":1115:1179   */\n  tag_26\n  jump\t// in\ntag_62:\n    /* \"#utility.yul\":1105:1179   */\n  swap2\n  pop\n    /* \"#utility.yul\":1061:1189   */\n  pop\n    /* \"#utility.yul\":845:1196   */\n  swap3\n  swap2\n  pop\n  pop\n  jump\t// out\n    /* \"#utility.yul\":1202:1301   */\ntag_27:\n    /* \"#utility.yul\":1254:1260   */\n  0x00\n    /* \"#utility.yul\":1288:1293   */\n  dup2\n    /* \"#utility.yul\":1282:1294   */\n  mload\n    /* \"#utility.yul\":1272:1294   */\n  swap1\n  pop\n    /* \"#utility.yul\":1202:1301   */\n  swap2\n  swap1\n  pop\n  jump\t// out\n    /* \"#utility.yul\":1307:1487   */\ntag_28:\n    /* \"#utility.yul\":1355:1432   */\n  0x4e487b7100000000000000000000000000000000000000000000000000000000\n    /* \"#utility.yul\":1352:1353   */\n  0x00\n    /* \"#utility.yul\":1345:1433   */\n  mstore\n    /* \"#utility.yul\":1452:1456   */\n  0x41\n    /* \"#utility.yul\":1449:1450   */\n  0x04\n    /* \"#utility.yul\":1442:1457   */\n  mstore\n    /* \"#utility.yul\":1476:1480   */\n  0x24\n    /* \"#utility.yul\":1473:1474   */\n  0x00\n    /* \"#utility.yul\":1466:1481   */\n  revert\n    /* \"#utility.yul\":1493:1673   */\ntag_29:\n    /* \"#utility.yul\":1541:1618   */\n  0x4e487b7100000000000000000000000000000000000000000000000000000000\n    /* \"#utility.yul\":1538:1539   */\n  0x00\n    /* \"#utility.yul\":1531:1619   */\n  mstore\n    /* \"#utility.yul\":1638:1642   */\n  0x22\n    /* \"#utility.yul\":1635:1636   */\n  0x04\n    /* \"#utility.yul\":1628:1643   */\n  mstore\n    /* \"#utility.yul\":1662:1666   */\n  0x24\n    /* \"#utility.yul\":1659:1660   */\n  0x00\n    /* \"#utility.yul\":1652:1667   */\n  revert\n    /* \"#utility.yul\":1679:1999   */\ntag_30:\n    /* \"#utility.yul\":1723:1729   */\n  0x00\n    /* \"#utility.yul\":1760:1761   */\n  0x02\n    /* \"#utility.yul\":1754:1758   */\n  dup3\n    /* \"#utility.yul\":1750:1762   */\n  div\n    /* \"#utility.yul\":1740:1762   */\n  swap1\n  pop\n    /* \"#utility.yul\":1807:1808   */\n  0x01\n    /* \"#utility.yul\":1801:1805   */\n  dup3\n    /* \"#utility.yul\":1797:1809   */\n  and\n    /* \"#utility.yul\":1828:1846   */\n  dup1\n    /* \"#utility.yul\":1818:1899   */\n  tag_67\n  jumpi\n    /* \"#utility.yul\":1884:1888   */\n  0x7f\n    /* \"#utility.yul\":1876:1882   */\n  dup3\n    /* \"#utility.yul\":1872:1889   */\n  and\n    /* \"#utility.yul\":1862:1889   */\n  swap2\n  pop\n    /* \"#utility.yul\":1818:1899   */\ntag_67:\n    /* \"#utility.yul\":1946:1948   */\n  0x20\n    /* \"#utility.yul\":1938:1944   */\n  dup3\n    /* \"#utility.yul\":1935:1949   */\n  lt\n    /* \"#utility.yul\":1915:1933   */\n  dup2\n    /* \"#utility.yul\":1912:1950   */\n  sub\n    /* \"#utility.yul\":1909:1993   */\n  tag_68\n  jumpi\n    /* \"#utility.yul\":1965:1983   */\n  tag_69\n  tag_29\n  jump\t// in\ntag_69:\n    /* \"#utility.yul\":1909:1993   */\ntag_68:\n    /* \"#utility.yul\":1730:1999   */\n  pop\n    /* \"#utility.yul\":1679:1999   */\n  swap2\n  swap1\n  pop\n  jump\t// out\n    /* \"#utility.yul\":2005:2146   */\ntag_31:\n    /* \"#utility.yul\":2054:2058   */\n  0x00\n    /* \"#utility.yul\":2077:2080   */\n  dup2\n    /* \"#utility.yul\":2069:2080   */\n  swap1\n  pop\n    /* \"#utility.yul\":2100:2103   */\n  dup2\n    /* \"#utility.yul\":2097:2098   */\n  0x00\n    /* \"#utility.yul\":2090:2104   */\n  mstore\n    /* \"#utility.yul\":2134:2138   */\n  0x20\n    /* \"#utility.yul\":2131:2132   */\n  0x00\n    /* \"#utility.yul\":2121:2139   */\n  keccak256\n    /* \"#utility.yul\":2113:2139   */\n  swap1\n  pop\n    /* \"#utility.yul\":2005:2146   */\n  swap2\n  swap1\n  pop\n  jump\t// out\n    /* \"#utility.yul\":2152:2245   */\ntag_32:\n    /* \"#utility.yul\":2189:2195   */\n  0x00\n    /* \"#utility.yul\":2236:2238   */\n  0x20\n    /* \"#utility.yul\":2231:2233   */\n  0x1f\n    /* \"#utility.yul\":2224:2229   */\n  dup4\n    /* \"#utility.yul\":2220:2234   */\n  add\n    /* \"#utility.yul\":2216:2239   */\n  div\n    /* \"#utility.yul\":2206:2239   */\n  swap1\n  pop\n    /* \"#utility.yul\":2152:2245   */\n  swap2\n  swap1\n  pop\n  jump\t// out\n    /* \"#utility.yul\":2251:2358   */\ntag_33:\n    /* \"#utility.yul\":2295:2303   */\n  0x00\n    /* \"#utility.yul\":2345:2350   */\n  dup3\n    /* \"#utility.yul\":2339:2343   */\n  dup3\n    /* \"#utility.yul\":2335:2351   */\n  shl\n    /* \"#utility.yul\":2314:2351   */\n  swap1\n  pop\n    /* \"#utility.yul\":2251:2358   */\n  swap3\n  swap2\n  pop\n  pop\n  jump\t// out\n    /* \"#utility.yul\":2364:2757   */\ntag_34:\n    /* \"#utility.yul\":2433:2439   */\n  0x00\n    /* \"#utility.yul\":2483:2484   */\n  0x08\n    /* \"#utility.yul\":2471:2481   */\n  dup4\n    /* \"#utility.yul\":2467:2485   */\n  mul\n    /* \"#utility.yul\":2506:2603   */\n  tag_74\n    /* \"#utility.yul\":2536:2602   */\n  0xffffffffffffffffffffffffffffffffffffffffffffffffffffffffffffffff\n    /* \"#utility.yul\":2525:2534   */\n  dup3\n    /* \"#utility.yul\":2506:2603   */\n  tag_33\n  jump\t// in\ntag_74:\n    /* \"#utility.yul\":2624:2663   */\n  tag_75\n    /* \"#utility.yul\":2654:2662   */\n  dup7\n    /* \"#utility.yul\":2643:2652   */\n  dup4\n    /* \"#utility.yul\":2624:2663   */\n  tag_33\n  jump\t// in\ntag_75:\n    /* \"#utility.yul\":2612:2663   */\n  swap6\n  pop\n    /* \"#utility.yul\":2696:2700   */\n  dup1\n    /* \"#utility.yul\":2692:2701   */\n  not\n    /* \"#utility.yul\":2685:2690   */\n  dup5\n    /* \"#utility.yul\":2681:2702   */\n  and\n    /* \"#utility.yul\":2672:2702   */\n  swap4\n  pop\n    /* \"#utility.yul\":2745:2749   */\n  dup1\n    /* \"#utility.yul\":2735:2743   */\n  dup7\n    /* \"#utility.yul\":2731:2750   */\n  and\n    /* \"#utility.yul\":2724:2729   */\n  dup5\n    /* \"#utility.yul\":2721:2751   */\n  or\n    /* \"#utility.yul\":2711:2751   */\n  swap3\n  pop\n    /* \"#utility.yul\":2440:2757   */\n  pop\n  pop\n    /* \"#utility.yul\":2364:2757   */\n  swap4\n  swap3\n  pop\n  pop\n  pop\n  jump\t// out\n    /* \"#utility.yul\":2763:2840   */\ntag_35:\n    /* \"#utility.yul\":2800:2807   */\n  0x00\n    /* \"#utility.yul\":2829:2834   */\n  dup2\n    /* \"#utility.yul\":2818:2834   */\n  swap1\n  pop\n    /* \"#utility.yul\":2763:2840   */\n  swap2\n  swap1\n  pop\n  jump\t// out\n    /* \"#utility.yul\":2846:2906   */\ntag_36:\n    /* \"#utility.yul\":2874:2877   */\n  0x00\n    /* \"#utility.yul\":2895:2900   */\n  dup2\n    /* \"#utility.yul\":2888:2900   */\n  swap1\n  pop\n    /* \"#utility.yul\":2846:2906   */\n  swap2\n  swap1\n  pop\n  jump\t// out\n    /* \"#utility.yul\":2912:3054   */\ntag_37:\n    /* \"#utility.yul\":2962:2971   */\n  0x00\n    /* \"#utility.yul\":2995:3048   */\n  tag_79\n    /* \"#utility.yul\":3013:3047   */\n  tag_80\n    /* \"#utility.yul\":3022:3046   */\n  tag_81\n    /* \"#utility.yul\":3040:3045   */\n  dup5\n    /* \"#utility.yul\":3022:3046   */\n  tag_35\n  jump\t// in\ntag_81:\n    /* \"#utility.yul\":3013:3047   */\n  tag_36\n  jump\t// in\ntag_80:\n    /* \"#utility.yul\":2995:3048   */\n  tag_35\n  jump\t// in\ntag_79:\n    /* \"#utility.yul\":2982:3048   */\n  swap1\n  pop\n    /* \"#utility.yul\":2912:3054   */\n  swap2\n  swap1\n  pop\n  jump\t// out\n    /* \"#utility.yul\":3060:3135   */\ntag_38:\n    /* \"#utility.yul\":3103:3106   */\n  0x00\n    /* \"#utility.yul\":3124:3129   */\n  dup2\n    /* \"#utility.yul\":3117:3129   */\n  swap1\n  pop\n    /* \"#utility.yul\":3060:3135   */\n  swap2\n  swap1\n  pop\n  jump\t// out\n    /* \"#utility.yul\":3141:3410   */\ntag_39:\n    /* \"#utility.yul\":3251:3290   */\n  tag_84\n    /* \"#utility.yul\":3282:3289   */\n  dup4\n    /* \"#utility.yul\":3251:3290   */\n  tag_37\n  jump\t// in\ntag_84:\n    /* \"#utility.yul\":3312:3403   */\n  tag_85\n    /* \"#utility.yul\":3361:3402   */\n  tag_86\n    /* \"#utility.yul\":3385:3401   */\n  dup3\n    /* \"#utility.yul\":3361:3402   */\n  tag_38\n  jump\t// in\ntag_86:\n    /* \"#utility.yul\":3353:3359   */\n  dup5\n    /* \"#utility.yul\":3346:3350   */\n  dup5\n    /* \"#utility.yul\":3340:3351   */\n  sload\n    /* \"#utility.yul\":3312:3403   */\n  tag_34\n  jump\t// in\ntag_85:\n    /* \"#utility.yul\":3306:3310   */\n  dup3\n    /* \"#utility.yul\":3299:3404   */\n  sstore\n    /* \"#utility.yul\":3217:3410   */\n  pop\n    /* \"#utility.yul\":3141:3410   */\n  pop\n  pop\n  pop\n  jump\t// out\n    /* \"#utility.yul\":3416:3489   */\ntag_40:\n    /* \"#utility.yul\":3461:3464   */\n  0x00\n    /* \"#utility.yul\":3416:3489   */\n  swap1\n  jump\t// out\n    /* \"#utility.yul\":3495:3684   */\ntag_41:\n    /* \"#utility.yul\":3572:3604   */\n  tag_89\n  tag_40\n  jump\t// in\ntag_89:\n    /* \"#utility.yul\":3613:3678   */\n  tag_90\n    /* \"#utility.yul\":3671:3677   */\n  dup2\n    /* \"#utility.yul\":3663:3669   */\n  dup5\n    /* \"#utility.yul\":3657:3661   */\n  dup5\n    /* \"#utility.yul\":3613:3678   */\n  tag_39\n  jump\t// in\ntag_90:\n    /* \"#utility.yul\":3548:3684   */\n  pop\n    /* \"#utility.yul\":3495:3684   */\n  pop\n  pop\n  jump\t// out\n    /* \"#utility.yul\":3690:3876   */\ntag_42:\n    /* \"#utility.yul\":3750:3870   */\ntag_92:\n    /* \"#utility.yul\":3767:3770   */\n  dup2\n    /* \"#utility.yul\":3760:3765   */\n  dup2\n    /* \"#utility.yul\":3757:3771   */\n  lt\n    /* \"#utility.yul\":3750:3870   */\n  iszero\n  tag_94\n  jumpi\n    /* \"#utility.yul\":3821:3860   */\n  tag_95\n    /* \"#utility.yul\":3858:3859   */\n  0x00\n    /* \"#utility.yul\":3851:3856   */\n  dup3\n    /* \"#utility.yul\":3821:3860   */\n  tag_41\n  jump\t// in\ntag_95:\n    /* \"#utility.yul\":3794:3795   */\n  0x01\n    /* \"#utility.yul\":3787:3792   */\n  dup2\n    /* \"#utility.yul\":3783:3796   */\n  add\n    /* \"#utility.yul\":3774:3796   */\n  swap1\n  pop\n    /* \"#utility.yul\":3750:3870   */\n  jump(tag_92)\ntag_94:\n    /* \"#utility.yul\":3690:3876   */\n  pop\n  pop\n  jump\t// out\n    /* \"#utility.yul\":3882:4425   */\ntag_43:\n    /* \"#utility.yul\":3983:3985   */\n  0x1f\n    /* \"#utility.yul\":3978:3981   */\n  dup3\n    /* \"#utility.yul\":3975:3986   */\n  gt\n    /* \"#utility.yul\":3972:4418   */\n  iszero\n  tag_97\n  jumpi\n    /* \"#utility.yul\":4017:4055   */\n  tag_98\n    /* \"#utility.yul\":4049:4054   */\n  dup2\n    /* \"#utility.yul\":4017:4055   */\n  tag_31\n  jump\t// in\ntag_98:\n    /* \"#utility.yul\":4101:4130   */\n  tag_99\n    /* \"#utility.yul\":4119:4129   */\n  dup5\n    /* \"#utility.yul\":4101:4130   */\n  tag_32\n  jump\t// in\ntag_99:\n    /* \"#utility.yul\":4091:4099   */\n  dup2\n    /* \"#utility.yul\":4087:4131   */\n  add\n    /* \"#utility.yul\":4284:4286   */\n  0x20\n    /* \"#utility.yul\":4272:4282   */\n  dup6\n    /* \"#utility.yul\":4269:4287   */\n  lt\n    /* \"#utility.yul\":4266:4315   */\n  iszero\n  tag_100\n  jumpi\n    /* \"#utility.yul\":4305:4313   */\n  dup2\n    /* \"#utility.yul\":4290:4313   */\n  swap1\n  pop\n    /* \"#utility.yul\":4266:4315   */\ntag_100:\n    /* \"#utility.yul\":4328:4408   */\n  tag_101\n    /* \"#utility.yul\":4384:4406   */\n  tag_102\n    /* \"#utility.yul\":4402:4405   */\n  dup6\n    /* \"#utility.yul\":4384:4406   */\n  tag_32\n  jump\t// in\ntag_102:\n    /* \"#utility.yul\":4374:4382   */\n  dup4\n    /* \"#utility.yul\":4370:4407   */\n  add\n    /* \"#utility.yul\":4357:4368   */\n  dup3\n    /* \"#utility.yul\":4328:4408   */\n  tag_42\n  jump\t// in\ntag_101:\n    /* \"#utility.yul\":3987:4418   */\n  pop\n  pop\n    /* \"#utility.yul\":3972:4418   */\ntag_97:\n    /* \"#utility.yul\":3882:4425   */\n  pop\n  pop\n  pop\n  jump\t// out\n    /* \"#utility.yul\":4431:4548   */\ntag_44:\n    /* \"#utility.yul\":4485:4493   */\n  0x00\n    /* \"#utility.yul\":4535:4540   */\n  dup3\n    /* \"#utility.yul\":4529:4533   */\n  dup3\n    /* \"#utility.yul\":4525:4541   */\n  shr\n    /* \"#utility.yul\":4504:4541   */\n  swap1\n  pop\n    /* \"#utility.yul\":4431:4548   */\n  swap3\n  swap2\n  pop\n  pop\n  jump\t// out\n    /* \"#utility.yul\":4554:4723   */\ntag_45:\n    /* \"#utility.yul\":4598:4604   */\n  0x00\n    /* \"#utility.yul\":4631:4682   */\n  tag_105\n    /* \"#utility.yul\":4679:4680   */\n  0x00\n    /* \"#utility.yul\":4675:4681   */\n  not\n    /* \"#utility.yul\":4667:4672   */\n  dup5\n    /* \"#utility.yul\":4664:4665   */\n  0x08\n    /* \"#utility.yul\":4660:4673   */\n  mul\n    /* \"#utility.yul\":4631:4682   */\n  tag_44\n  jump\t// in\ntag_105:\n    /* \"#utility.yul\":4627:4683   */\n  not\n    /* \"#utility.yul\":4712:4716   */\n  dup1\n    /* \"#utility.yul\":4706:4710   */\n  dup4\n    /* \"#utility.yul\":4702:4717   */\n  and\n    /* \"#utility.yul\":4692:4717   */\n  swap2\n  pop\n    /* \"#utility.yul\":4605:4723   */\n  pop\n    /* \"#utility.yul\":4554:4723   */\n  swap3\n  swap2\n  pop\n  pop\n  jump\t// out\n    /* \"#utility.yul\":4728:5023   */\ntag_46:\n    /* \"#utility.yul\":4804:4808   */\n  0x00\n    /* \"#utility.yul\":4950:4979   */\n  tag_107\n    /* \"#utility.yul\":4975:4978   */\n  dup4\n    /* \"#utility.yul\":4969:4973   */\n  dup4\n    /* \"#utility.yul\":4950:4979   */\n  tag_45\n  jump\t// in\ntag_107:\n    /* \"#utility.yul\":4942:4979   */\n  swap2\n  pop\n    /* \"#utility.yul\":5012:5015   */\n  dup3\n    /* \"#utility.yul\":5009:5010   */\n  0x02\n    /* \"#utility.yul\":5005:5016   */\n  mul\n    /* \"#utility.yul\":4999:5003   */\n  dup3\n    /* \"#utility.yul\":4996:5017   */\n  or\n    /* \"#utility.yul\":4988:5017   */\n  swap1\n  pop\n    /* \"#utility.yul\":4728:5023   */\n  swap3\n  swap2\n  pop\n  pop\n  jump\t// out\n    /* \"#utility.yul\":5028:6423   */\ntag_9:\n    /* \"#utility.yul\":5145:5182   */\n  tag_109\n    /* \"#utility.yul\":5178:5181   */\n  dup3\n    /* \"#utility.yul\":5145:5182   */\n  tag_27\n  jump\t// in\ntag_109:\n    /* \"#utility.yul\":5247:5265   */\n  0xffffffffffffffff\n    /* \"#utility.yul\":5239:5245   */\n  dup2\n    /* \"#utility.yul\":5236:5266   */\n  gt\n    /* \"#utility.yul\":5233:5289   */\n  iszero\n  tag_110\n  jumpi\n    /* \"#utility.yul\":5269:5287   */\n  tag_111\n  tag_28\n  jump\t// in\ntag_111:\n    /* \"#utility.yul\":5233:5289   */\ntag_110:\n    /* \"#utility.yul\":5313:5351   */\n  tag_112\n    /* \"#utility.yul\":5345:5349   */\n  dup3\n    /* \"#utility.yul\":5339:5350   */\n  sload\n    /* \"#utility.yul\":5313:5351   */\n  tag_30\n  jump\t// in\ntag_112:\n    /* \"#utility.yul\":5398:5465   */\n  tag_113\n    /* \"#utility.yul\":5458:5464   */\n  dup3\n    /* \"#utility.yul\":5450:5456   */\n  dup3\n    /* \"#utility.yul\":5444:5448   */\n  dup6\n    /* \"#utility.yul\":5398:5465   */\n  tag_43\n  jump\t// in\ntag_113:\n    /* \"#utility.yul\":5492:5493   */\n  0x00\n    /* \"#utility.yul\":5516:5520   */\n  0x20\n    /* \"#utility.yul\":5503:5520   */\n  swap1\n  pop\n    /* \"#utility.yul\":5548:5550   */\n  0x1f\n    /* \"#utility.yul\":5540:5546   */\n  dup4\n    /* \"#utility.yul\":5537:5551   */\n  gt\n    /* \"#utility.yul\":5565:5566   */\n  0x01\n    /* \"#utility.yul\":5560:6178   */\n  dup2\n  eq\n  tag_115\n  jumpi\n    /* \"#utility.yul\":6222:6223   */\n  0x00\n    /* \"#utility.yul\":6239:6245   */\n  dup5\n    /* \"#utility.yul\":6236:6313   */\n  iszero\n  tag_116\n  jumpi\n    /* \"#utility.yul\":6288:6297   */\n  dup3\n    /* \"#utility.yul\":6283:6286   */\n  dup8\n    /* \"#utility.yul\":6279:6298   */\n  add\n    /* \"#utility.yul\":6273:6299   */\n  mload\n    /* \"#utility.yul\":6264:6299   */\n  swap1\n  pop\n    /* \"#utility.yul\":6236:6313   */\ntag_116:\n    /* \"#utility.yul\":6339:6406   */\n  tag_117\n    /* \"#utility.yul\":6399:6405   */\n  dup6\n    /* \"#utility.yul\":6392:6397   */\n  dup3\n    /* \"#utility.yul\":6339:6406   */\n  tag_46\n  jump\t// in\ntag_117:\n    /* \"#utility.yul\":6333:6337   */\n  dup7\n    /* \"#utility.yul\":6326:6407   */\n  sstore\n    /* \"#utility.yul\":6195:6417   */\n  pop\n    /* \"#utility.yul\":5530:6417   */\n  jump(tag_114)\n    /* \"#utility.yul\":5560:6178   */\ntag_115:\n    /* \"#utility.yul\":5612:5616   */\n  0x1f\n    /* \"#utility.yul\":5608:5617   */\n  not\n    /* \"#utility.yul\":5600:5606   */\n  dup5\n    /* \"#utility.yul\":5596:5618   */\n  and\n    /* \"#utility.yul\":5646:5683   */\n  tag_118\n    /* \"#utility.yul\":5678:5682   */\n  dup7\n    /* \"#utility.yul\":5646:5683   */\n  tag_31\n  jump\t// in\ntag_118:\n    /* \"#utility.yul\":5705:5706   */\n  0x00\n    /* \"#utility.yul\":5719:5927   */\ntag_119:\n    /* \"#utility.yul\":5733:5740   */\n  dup3\n    /* \"#utility.yul\":5730:5731   */\n  dup2\n    /* \"#utility.yul\":5727:5741   */\n  lt\n    /* \"#utility.yul\":5719:5927   */\n  iszero\n  tag_121\n  jumpi\n    /* \"#utility.yul\":5812:5821   */\n  dup5\n    /* \"#utility.yul\":5807:5810   */\n  dup10\n    /* \"#utility.yul\":5803:5822   */\n  add\n    /* \"#utility.yul\":5797:5823   */\n  mload\n    /* \"#utility.yul\":5789:5795   */\n  dup3\n    /* \"#utility.yul\":5782:5824   */\n  sstore\n    /* \"#utility.yul\":5863:5864   */\n  0x01\n    /* \"#utility.yul\":5855:5861   */\n  dup3\n    /* \"#utility.yul\":5851:5865   */\n  add\n    /* \"#utility.yul\":5841:5865   */\n  swap2\n  pop\n    /* \"#utility.yul\":5910:5912   */\n  0x20\n    /* \"#utility.yul\":5899:5908   */\n  dup6\n    /* \"#utility.yul\":5895:5913   */\n  add\n    /* \"#utility.yul\":5882:5913   */\n  swap5\n  pop\n    /* \"#utility.yul\":5756:5760   */\n  0x20\n    /* \"#utility.yul\":5753:5754   */\n  dup2\n    /* \"#utility.yul\":5749:5761   */\n  add\n    /* \"#utility.yul\":5744:5761   */\n  swap1\n  pop\n    /* \"#utility.yul\":5719:5927   */\n  jump(tag_119)\ntag_121:\n    /* \"#utility.yul\":5955:5961   */\n  dup7\n    /* \"#utility.yul\":5946:5953   */\n  dup4\n    /* \"#utility.yul\":5943:5962   */\n  lt\n    /* \"#utility.yul\":5940:6119   */\n  iszero\n  tag_122\n  jumpi\n    /* \"#utility.yul\":6013:6022   */\n  dup5\n    /* \"#utility.yul\":6008:6011   */\n  dup10\n    /* \"#utility.yul\":6004:6023   */\n  add\n    /* \"#utility.yul\":5998:6024   */\n  mload\n    /* \"#utility.yul\":6056:6104   */\n  tag_123\n    /* \"#utility.yul\":6098:6102   */\n  0x1f\n    /* \"#utility.yul\":6090:6096   */\n  dup10\n    /* \"#utility.yul\":6086:6103   */\n  and\n    /* \"#utility.yul\":6075:6084   */\n  dup3\n    /* \"#utility.yul\":6056:6104   */\n  tag_45\n  jump\t// in\ntag_123:\n    /* \"#utility.yul\":6048:6054   */\n  dup4\n    /* \"#utility.yul\":6041:6105   */\n  sstore\n    /* \"#utility.yul\":5963:6119   */\n  pop\n    /* \"#utility.yul\":5940:6119   */\ntag_122:\n    /* \"#utility.yul\":6165:6166   */\n  0x01\n    /* \"#utility.yul\":6161:6162   */\n  0x02\n    /* \"#utility.yul\":6153:6159   */\n  dup9\n    /* \"#utility.yul\":6149:6163   */\n  mul\n    /* \"#utility.yul\":6145:6167   */\n  add\n    /* \"#utility.yul\":6139:6143   */\n  dup9\n    /* \"#utility.yul\":6132:6168   */\n  sstore\n    /* \"#utility.yul\":5567:6178   */\n  pop\n  pop\n  pop\n    /* \"#utility.yul\":5530:6417   */\ntag_114:\n  pop\n    /* \"#utility.yul\":5120:6423   */\n  pop\n  pop\n  pop\n    /* \"#utility.yul\":5028:6423   */\n  pop\n  pop\n  jump\t// out\n    /* \"contracts/Simplify/productStore.sol\":292:2271  contract ProductStore is ERC721, Ownable {... */\ntag_17:\n  dataSize(sub_0)\n  dup1\n  dataOffset(sub_0)\n  0x00\n  codecopy\n  0x00\n  return\nstop\n\nsub_0: assembly {\n        /* \"contracts/Simplify/productStore.sol\":292:2271  contract ProductStore is ERC721, Ownable {... */\n      mstore(0x40, 0x80)\n      callvalue\n      dup1\n      iszero\n      tag_1\n      jumpi\n      0x00\n      dup1\n      revert\n    tag_1:\n      pop\n      jumpi(tag_2, lt(calldatasize, 0x04))\n      shr(0xe0, calldataload(0x00))\n      dup1\n      0x7acc0b20\n      gt\n      tag_26\n      jumpi\n      dup1\n      0xb88d4fde\n      gt\n      tag_27\n      jumpi\n      dup1\n      0xb88d4fde\n      eq\n      tag_20\n      jumpi\n      dup1\n      0xc87b56dd\n      eq\n      tag_21\n      jumpi\n      dup1\n      0xcf2c0334\n      eq\n      tag_22\n      jumpi\n      dup1\n      0xe985e9c5\n      eq\n      tag_23\n      jumpi\n      dup1\n      0xf2fde38b\n      eq\n      tag_24\n      jumpi\n      dup1\n      0xfc0c546a\n      eq\n      tag_25\n      jumpi\n      jump(tag_2)\n    tag_27:\n      dup1\n      0x7acc0b20\n      eq\n      tag_14\n      jumpi\n      dup1\n      0x8642269e\n      eq\n      tag_15\n      jumpi\n      dup1\n      0x8da5cb5b\n      eq\n      tag_16\n      jumpi\n      dup1\n      0x95d89b41\n      eq\n      tag_17\n      jumpi\n      dup1\n      0xa22cb465\n      eq\n      tag_18\n      jumpi\n      dup1\n      0xb15247d9\n      eq\n      tag_19\n      jumpi\n      jump(tag_2)\n    tag_26:\n      dup1\n      0x23b872dd\n      gt\n      tag_28\n      jumpi\n      dup1\n      0x23b872dd\n      eq\n      tag_8\n      jumpi\n      dup1\n      0x42842e0e\n      eq\n      tag_9\n      jumpi\n      dup1\n      0x4de91a63\n      eq\n      tag_10\n      jumpi\n      dup1\n      0x6352211e\n      eq\n      tag_11\n      jumpi\n      dup1\n      0x70a08231\n      eq\n      tag_12\n      jumpi\n      dup1\n      0x715018a6\n      eq\n      tag_13\n      jumpi\n      jump(tag_2)\n    tag_28:\n      dup1\n      0x019d2fbf\n      eq\n      tag_3\n      jumpi\n      dup1\n      0x01ffc9a7\n      eq\n      tag_4\n      jumpi\n      dup1\n      0x06fdde03\n      eq\n      tag_5\n      jumpi\n      dup1\n      0x081812fc\n      eq\n      tag_6\n      jumpi\n      dup1\n      0x095ea7b3\n      eq\n      tag_7\n      jumpi\n    tag_2:\n      0x00\n      dup1\n      revert\n        /* \"contracts/Simplify/productStore.sol\":1802:2268  function getUserProductDetails(address user) external view returns (Product[] memory) {... */\n    tag_3:\n      tag_29\n      0x04\n      dup1\n      calldatasize\n      sub\n      dup2\n      add\n      swap1\n      tag_30\n      swap2\n      swap1\n      tag_31\n      jump\t// in\n    tag_30:\n      tag_32\n      jump\t// in\n    tag_29:\n      mload(0x40)\n      tag_33\n      swap2\n      swap1\n      tag_34\n      jump\t// in\n    tag_33:\n      mload(0x40)\n      dup1\n      swap2\n      sub\n      swap1\n      return\n        /* \"@openzeppelin/contracts/token/ERC721/ERC721.sol\":1561:1861  function supportsInterface(bytes4 interfaceId) public view virtual override(ERC165, IERC165) returns (bool) {... */\n    tag_4:\n      tag_35\n      0x04\n      dup1\n      calldatasize\n      sub\n      dup2\n      add\n      swap1\n      tag_36\n      swap2\n      swap1\n      tag_37\n      jump\t// in\n    tag_36:\n      tag_38\n      jump\t// in\n    tag_35:\n      mload(0x40)\n      tag_39\n      swap2\n      swap1\n      tag_40\n      jump\t// in\n    tag_39:\n      mload(0x40)\n      dup1\n      swap2\n      sub\n      swap1\n      return\n        /* \"@openzeppelin/contracts/token/ERC721/ERC721.sol\":2365:2454  function name() public view virtual returns (string memory) {... */\n    tag_5:\n      tag_41\n      tag_42\n      jump\t// in\n    tag_41:\n      mload(0x40)\n      tag_43\n      swap2\n      swap1\n      tag_44\n      jump\t// in\n    tag_43:\n      mload(0x40)\n      dup1\n      swap2\n      sub\n      swap1\n      return\n        /* \"@openzeppelin/contracts/token/ERC721/ERC721.sol\":3497:3651  function getApproved(uint256 tokenId) public view virtual returns (address) {... */\n    tag_6:\n      tag_45\n      0x04\n      dup1\n      calldatasize\n      sub\n      dup2\n      add\n      swap1\n      tag_46\n      swap2\n      swap1\n      tag_47\n      jump\t// in\n    tag_46:\n      tag_48\n      jump\t// in\n    tag_45:\n      mload(0x40)\n      tag_49\n      swap2\n      swap1\n      tag_50\n      jump\t// in\n    tag_49:\n      mload(0x40)\n      dup1\n      swap2\n      sub\n      swap1\n      return\n        /* \"@openzeppelin/contracts/token/ERC721/ERC721.sol\":3323:3436  function approve(address to, uint256 tokenId) public virtual {... */\n    tag_7:\n      tag_51\n      0x04\n      dup1\n      calldatasize\n      sub\n      dup2\n      add\n      swap1\n      tag_52\n      swap2\n      swap1\n      tag_53\n      jump\t// in\n    tag_52:\n      tag_54\n      jump\t// in\n    tag_51:\n      stop\n        /* \"@openzeppelin/contracts/token/ERC721/ERC721.sol\":4143:4721  function transferFrom(address from, address to, uint256 tokenId) public virtual {... */\n    tag_8:\n      tag_55\n      0x04\n      dup1\n      calldatasize\n      sub\n      dup2\n      add\n      swap1\n      tag_56\n      swap2\n      swap1\n      tag_57\n      jump\t// in\n    tag_56:\n      tag_58\n      jump\t// in\n    tag_55:\n      stop\n        /* \"@openzeppelin/contracts/token/ERC721/ERC721.sol\":4787:4919  function safeTransferFrom(address from, address to, uint256 tokenId) public {... */\n    tag_9:\n      tag_59\n      0x04\n      dup1\n      calldatasize\n      sub\n      dup2\n      add\n      swap1\n      tag_60\n      swap2\n      swap1\n      tag_57\n      jump\t// in\n    tag_60:\n      tag_61\n      jump\t// in\n    tag_59:\n      stop\n        /* \"contracts/Simplify/productStore.sol\":770:798  uint256 public nextProductId */\n    tag_10:\n      tag_62\n      tag_63\n      jump\t// in\n    tag_62:\n      mload(0x40)\n      tag_64\n      swap2\n      swap1\n      tag_65\n      jump\t// in\n    tag_64:\n      mload(0x40)\n      dup1\n      swap2\n      sub\n      swap1\n      return\n        /* \"@openzeppelin/contracts/token/ERC721/ERC721.sol\":2185:2303  function ownerOf(uint256 tokenId) public view virtual returns (address) {... */\n    tag_11:\n      tag_66\n      0x04\n      dup1\n      calldatasize\n      sub\n      dup2\n      add\n      swap1\n      tag_67\n      swap2\n      swap1\n      tag_47\n      jump\t// in\n    tag_67:\n      tag_68\n      jump\t// in\n    tag_66:\n      mload(0x40)\n      tag_69\n      swap2\n      swap1\n      tag_50\n      jump\t// in\n    tag_69:\n      mload(0x40)\n      dup1\n      swap2\n      sub\n      swap1\n      return\n        /* \"@openzeppelin/contracts/token/ERC721/ERC721.sol\":1920:2128  function balanceOf(address owner) public view virtual returns (uint256) {... */\n    tag_12:\n      tag_70\n      0x04\n      dup1\n      calldatasize\n      sub\n      dup2\n      add\n      swap1\n      tag_71\n      swap2\n      swap1\n      tag_31\n      jump\t// in\n    tag_71:\n      tag_72\n      jump\t// in\n    tag_70:\n      mload(0x40)\n      tag_73\n      swap2\n      swap1\n      tag_65\n      jump\t// in\n    tag_73:\n      mload(0x40)\n      dup1\n      swap2\n      sub\n      swap1\n      return\n        /* \"@openzeppelin/contracts/access/Ownable.sol\":1824:1925  function renounceOwnership() public virtual onlyOwner {... */\n    tag_13:\n      tag_74\n      tag_75\n      jump\t// in\n    tag_74:\n      stop\n        /* \"contracts/Simplify/productStore.sol\":661:704  mapping(uint256 => Product) public products */\n    tag_14:\n      tag_76\n      0x04\n      dup1\n      calldatasize\n      sub\n      dup2\n      add\n      swap1\n      tag_77\n      swap2\n      swap1\n      tag_47\n      jump\t// in\n    tag_77:\n      tag_78\n      jump\t// in\n    tag_76:\n      mload(0x40)\n      tag_79\n      swap4\n      swap3\n      swap2\n      swap1\n      tag_80\n      jump\t// in\n    tag_79:\n      mload(0x40)\n      dup1\n      swap2\n      sub\n      swap1\n      return\n        /* \"contracts/Simplify/productStore.sol\":1131:1794  function buyProduct(uint256 _productId) external {... */\n    tag_15:\n      tag_81\n      0x04\n      dup1\n      calldatasize\n      sub\n      dup2\n      add\n      swap1\n      tag_82\n      swap2\n      swap1\n      tag_47\n      jump\t// in\n    tag_82:\n      tag_83\n      jump\t// in\n    tag_81:\n      stop\n        /* \"@openzeppelin/contracts/access/Ownable.sol\":1201:1286  function owner() public view virtual returns (address) {... */\n    tag_16:\n      tag_84\n      tag_85\n      jump\t// in\n    tag_84:\n      mload(0x40)\n      tag_86\n      swap2\n      swap1\n      tag_50\n      jump\t// in\n    tag_86:\n      mload(0x40)\n      dup1\n      swap2\n      sub\n      swap1\n      return\n        /* \"@openzeppelin/contracts/token/ERC721/ERC721.sol\":2518:2611  function symbol() public view virtual returns (string memory) {... */\n    tag_17:\n      tag_87\n      tag_88\n      jump\t// in\n    tag_87:\n      mload(0x40)\n      tag_89\n      swap2\n      swap1\n      tag_44\n      jump\t// in\n    tag_89:\n      mload(0x40)\n      dup1\n      swap2\n      sub\n      swap1\n      return\n        /* \"@openzeppelin/contracts/token/ERC721/ERC721.sol\":3718:3862  function setApprovalForAll(address operator, bool approved) public virtual {... */\n    tag_18:\n      tag_90\n      0x04\n      dup1\n      calldatasize\n      sub\n      dup2\n      add\n      swap1\n      tag_91\n      swap2\n      swap1\n      tag_92\n      jump\t// in\n    tag_91:\n      tag_93\n      jump\t// in\n    tag_90:\n      stop\n        /* \"contracts/Simplify/productStore.sol\":927:1123  function addProduct(string memory _name, uint256 _price) external onlyOwner {... */\n    tag_19:\n      tag_94\n      0x04\n      dup1\n      calldatasize\n      sub\n      dup2\n      add\n      swap1\n      tag_95\n      swap2\n      swap1\n      tag_96\n      jump\t// in\n    tag_95:\n      tag_97\n      jump\t// in\n    tag_94:\n      stop\n        /* \"@openzeppelin/contracts/token/ERC721/ERC721.sol\":4985:5193  function safeTransferFrom(address from, address to, uint256 tokenId, bytes memory data) public virtual {... */\n    tag_20:\n      tag_98\n      0x04\n      dup1\n      calldatasize\n      sub\n      dup2\n      add\n      swap1\n      tag_99\n      swap2\n      swap1\n      tag_100\n      jump\t// in\n    tag_99:\n      tag_101\n      jump\t// in\n    tag_98:\n      stop\n        /* \"@openzeppelin/contracts/token/ERC721/ERC721.sol\":2677:2932  function tokenURI(uint256 tokenId) public view virtual returns (string memory) {... */\n    tag_21:\n      tag_102\n      0x04\n      dup1\n      calldatasize\n      sub\n      dup2\n      add\n      swap1\n      tag_103\n      swap2\n      swap1\n      tag_47\n      jump\t// in\n    tag_103:\n      tag_104\n      jump\t// in\n    tag_102:\n      mload(0x40)\n      tag_105\n      swap2\n      swap1\n      tag_44\n      jump\t// in\n    tag_105:\n      mload(0x40)\n      dup1\n      swap2\n      sub\n      swap1\n      return\n        /* \"contracts/Simplify/productStore.sol\":711:761  mapping(address => uint256[]) public userPurchases */\n    tag_22:\n      tag_106\n      0x04\n      dup1\n      calldatasize\n      sub\n      dup2\n      add\n      swap1\n      tag_107\n      swap2\n      swap1\n      tag_53\n      jump\t// in\n    tag_107:\n      tag_108\n      jump\t// in\n    tag_106:\n      mload(0x40)\n      tag_109\n      swap2\n      swap1\n      tag_65\n      jump\t// in\n    tag_109:\n      mload(0x40)\n      dup1\n      swap2\n      sub\n      swap1\n      return\n        /* \"@openzeppelin/contracts/token/ERC721/ERC721.sol\":3928:4081  function isApprovedForAll(address owner, address operator) public view virtual returns (bool) {... */\n    tag_23:\n      tag_110\n      0x04\n      dup1\n      calldatasize\n      sub\n      dup2\n      add\n      swap1\n      tag_111\n      swap2\n      swap1\n      tag_112\n      jump\t// in\n    tag_111:\n      tag_113\n      jump\t// in\n    tag_110:\n      mload(0x40)\n      tag_114\n      swap2\n      swap1\n      tag_40\n      jump\t// in\n    tag_114:\n      mload(0x40)\n      dup1\n      swap2\n      sub\n      swap1\n      return\n        /* \"@openzeppelin/contracts/access/Ownable.sol\":2074:2272  function transferOwnership(address newOwner) public virtual onlyOwner {... */\n    tag_24:\n      tag_115\n      0x04\n      dup1\n      calldatasize\n      sub\n      dup2\n      add\n      swap1\n      tag_116\n      swap2\n      swap1\n      tag_31\n      jump\t// in\n    tag_116:\n      tag_117\n      jump\t// in\n    tag_115:\n      stop\n        /* \"contracts/Simplify/productStore.sol\":340:359  IERC20 public token */\n    tag_25:\n      tag_118\n      tag_119\n      jump\t// in\n    tag_118:\n      mload(0x40)\n      tag_120\n      swap2\n      swap1\n      tag_121\n      jump\t// in\n    tag_120:\n      mload(0x40)\n      dup1\n      swap2\n      sub\n      swap1\n      return\n        /* \"contracts/Simplify/productStore.sol\":1802:2268  function getUserProductDetails(address user) external view returns (Product[] memory) {... */\n    tag_32:\n        /* \"contracts/Simplify/productStore.sol\":1870:1886  Product[] memory */\n      0x60\n        /* \"contracts/Simplify/productStore.sol\":1899:1935  uint256[] memory purchasedProductIds */\n      0x00\n        /* \"contracts/Simplify/productStore.sol\":1938:1951  userPurchases */\n      0x0a\n        /* \"contracts/Simplify/productStore.sol\":1938:1957  userPurchases[user] */\n      0x00\n        /* \"contracts/Simplify/productStore.sol\":1952:1956  user */\n      dup5\n        /* \"contracts/Simplify/productStore.sol\":1938:1957  userPurchases[user] */\n      0xffffffffffffffffffffffffffffffffffffffff\n      and\n      0xffffffffffffffffffffffffffffffffffffffff\n      and\n      dup2\n      mstore\n      0x20\n      add\n      swap1\n      dup2\n      mstore\n      0x20\n      add\n      0x00\n      keccak256\n        /* \"contracts/Simplify/productStore.sol\":1899:1957  uint256[] memory purchasedProductIds = userPurchases[user] */\n      dup1\n      sload\n      dup1\n      0x20\n      mul\n      0x20\n      add\n      mload(0x40)\n      swap1\n      dup2\n      add\n      0x40\n      mstore\n      dup1\n      swap3\n      swap2\n      swap1\n      dup2\n      dup2\n      mstore\n      0x20\n      add\n      dup3\n      dup1\n      sload\n      dup1\n      iszero\n      tag_123\n      jumpi\n      0x20\n      mul\n      dup3\n      add\n      swap2\n      swap1\n      0x00\n      mstore\n      keccak256(0x00, 0x20)\n      swap1\n    tag_124:\n      dup2\n      sload\n      dup2\n      mstore\n      0x20\n      add\n      swap1\n      0x01\n      add\n      swap1\n      dup1\n      dup4\n      gt\n      tag_124\n      jumpi\n    tag_123:\n      pop\n      pop\n      pop\n      pop\n      pop\n      swap1\n      pop\n        /* \"contracts/Simplify/productStore.sol\":1968:1996  Product[] memory userDetails */\n      0x00\n        /* \"contracts/Simplify/productStore.sol\":2013:2032  purchasedProductIds */\n      dup2\n        /* \"contracts/Simplify/productStore.sol\":2013:2039  purchasedProductIds.length */\n      mload\n        /* \"contracts/Simplify/productStore.sol\":1999:2040  new Product[](purchasedProductIds.length) */\n      0xffffffffffffffff\n      dup2\n      gt\n      iszero\n      tag_125\n      jumpi\n      tag_126\n      tag_127\n      jump\t// in\n    tag_126:\n    tag_125:\n      mload(0x40)\n      swap1\n      dup1\n      dup3\n      mstore\n      dup1\n      0x20\n      mul\n      0x20\n      add\n      dup3\n      add\n      0x40\n      mstore\n      dup1\n      iszero\n      tag_128\n      jumpi\n      dup2\n      0x20\n      add\n    tag_129:\n      tag_130\n      tag_131\n      jump\t// in\n    tag_130:\n      dup2\n      mstore\n      0x20\n      add\n      swap1\n      0x01\n      swap1\n      sub\n      swap1\n      dup2\n      tag_129\n      jumpi\n      swap1\n      pop\n    tag_128:\n      pop\n        /* \"contracts/Simplify/productStore.sol\":1968:2040  Product[] memory userDetails = new Product[](purchasedProductIds.length) */\n      swap1\n      pop\n        /* \"contracts/Simplify/productStore.sol\":2058:2067  uint256 i */\n      0x00\n        /* \"contracts/Simplify/productStore.sol\":2053:2230  for (uint256 i = 0; i < purchasedProductIds.length; i++) {... */\n    tag_132:\n        /* \"contracts/Simplify/productStore.sol\":2077:2096  purchasedProductIds */\n      dup3\n        /* \"contracts/Simplify/productStore.sol\":2077:2103  purchasedProductIds.length */\n      mload\n        /* \"contracts/Simplify/productStore.sol\":2073:2074  i */\n      dup2\n        /* \"contracts/Simplify/productStore.sol\":2073:2103  i < purchasedProductIds.length */\n      lt\n        /* \"contracts/Simplify/productStore.sol\":2053:2230  for (uint256 i = 0; i < purchasedProductIds.length; i++) {... */\n      iszero\n      tag_133\n      jumpi\n        /* \"contracts/Simplify/productStore.sol\":2125:2142  uint256 productId */\n      0x00\n        /* \"contracts/Simplify/productStore.sol\":2145:2164  purchasedProductIds */\n      dup4\n        /* \"contracts/Simplify/productStore.sol\":2165:2166  i */\n      dup3\n        /* \"contracts/Simplify/productStore.sol\":2145:2167  purchasedProductIds[i] */\n      dup2\n      mload\n      dup2\n      lt\n      tag_135\n      jumpi\n      tag_136\n      tag_137\n      jump\t// in\n    tag_136:\n    tag_135:\n      0x20\n      mul\n      0x20\n      add\n      add\n      mload\n        /* \"contracts/Simplify/productStore.sol\":2125:2167  uint256 productId = purchasedProductIds[i] */\n      swap1\n      pop\n        /* \"contracts/Simplify/productStore.sol\":2199:2207  products */\n      0x09\n        /* \"contracts/Simplify/productStore.sol\":2199:2218  products[productId] */\n      0x00\n        /* \"contracts/Simplify/productStore.sol\":2208:2217  productId */\n      dup3\n        /* \"contracts/Simplify/productStore.sol\":2199:2218  products[productId] */\n      dup2\n      mstore\n      0x20\n      add\n      swap1\n      dup2\n      mstore\n      0x20\n      add\n      0x00\n      keccak256\n        /* \"contracts/Simplify/productStore.sol\":2182:2218  userDetails[i] = products[productId] */\n      mload(0x40)\n      dup1\n      0x60\n      add\n      0x40\n      mstore\n      swap1\n      dup2\n      0x00\n      dup3\n      add\n      sload\n      dup2\n      mstore\n      0x20\n      add\n      0x01\n      dup3\n      add\n      dup1\n      sload\n      tag_138\n      swap1\n      tag_139\n      jump\t// in\n    tag_138:\n      dup1\n      0x1f\n      add\n      0x20\n      dup1\n      swap2\n      div\n      mul\n      0x20\n      add\n      mload(0x40)\n      swap1\n      dup2\n      add\n      0x40\n      mstore\n      dup1\n      swap3\n      swap2\n      swap1\n      dup2\n      dup2\n      mstore\n      0x20\n      add\n      dup3\n      dup1\n      sload\n      tag_140\n      swap1\n      tag_139\n      jump\t// in\n    tag_140:\n      dup1\n      iszero\n      tag_141\n      jumpi\n      dup1\n      0x1f\n      lt\n      tag_142\n      jumpi\n      0x0100\n      dup1\n      dup4\n      sload\n      div\n      mul\n      dup4\n      mstore\n      swap2\n      0x20\n      add\n      swap2\n      jump(tag_141)\n    tag_142:\n      dup3\n      add\n      swap2\n      swap1\n      0x00\n      mstore\n      keccak256(0x00, 0x20)\n      swap1\n    tag_143:\n      dup2\n      sload\n      dup2\n      mstore\n      swap1\n      0x01\n      add\n      swap1\n      0x20\n      add\n      dup1\n      dup4\n      gt\n      tag_143\n      jumpi\n      dup3\n      swap1\n      sub\n      0x1f\n      and\n      dup3\n      add\n      swap2\n    tag_141:\n      pop\n      pop\n      pop\n      pop\n      pop\n      dup2\n      mstore\n      0x20\n      add\n      0x02\n      dup3\n      add\n      sload\n      dup2\n      mstore\n      pop\n      pop\n        /* \"contracts/Simplify/productStore.sol\":2182:2193  userDetails */\n      dup4\n        /* \"contracts/Simplify/productStore.sol\":2194:2195  i */\n      dup4\n        /* \"contracts/Simplify/productStore.sol\":2182:2196  userDetails[i] */\n      dup2\n      mload\n      dup2\n      lt\n      tag_144\n      jumpi\n      tag_145\n      tag_137\n      jump\t// in\n    tag_145:\n    tag_144:\n      0x20\n      mul\n      0x20\n      add\n      add\n        /* \"contracts/Simplify/productStore.sol\":2182:2218  userDetails[i] = products[productId] */\n      dup2\n      swap1\n      mstore\n      pop\n        /* \"contracts/Simplify/productStore.sol\":2110:2230  {... */\n      pop\n        /* \"contracts/Simplify/productStore.sol\":2105:2108  i++ */\n      dup1\n      dup1\n      0x01\n      add\n      swap2\n      pop\n      pop\n        /* \"contracts/Simplify/productStore.sol\":2053:2230  for (uint256 i = 0; i < purchasedProductIds.length; i++) {... */\n      jump(tag_132)\n    tag_133:\n      pop\n        /* \"contracts/Simplify/productStore.sol\":2249:2260  userDetails */\n      dup1\n        /* \"contracts/Simplify/productStore.sol\":2242:2260  return userDetails */\n      swap3\n      pop\n      pop\n      pop\n        /* \"contracts/Simplify/productStore.sol\":1802:2268  function getUserProductDetails(address user) external view returns (Product[] memory) {... */\n      swap2\n      swap1\n      pop\n      jump\t// out\n        /* \"@openzeppelin/contracts/token/ERC721/ERC721.sol\":1561:1861  function supportsInterface(bytes4 interfaceId) public view virtual override(ERC165, IERC165) returns (bool) {... */\n    tag_38:\n        /* \"@openzeppelin/contracts/token/ERC721/ERC721.sol\":1663:1667  bool */\n      0x00\n        /* \"@openzeppelin/contracts/token/ERC721/ERC721.sol\":1713:1738  type(IERC721).interfaceId */\n      0x80ac58cd00000000000000000000000000000000000000000000000000000000\n        /* \"@openzeppelin/contracts/token/ERC721/ERC721.sol\":1698:1738  interfaceId == type(IERC721).interfaceId */\n      not(0xffffffffffffffffffffffffffffffffffffffffffffffffffffffff)\n      and\n        /* \"@openzeppelin/contracts/token/ERC721/ERC721.sol\":1698:1709  interfaceId */\n      dup3\n        /* \"@openzeppelin/contracts/token/ERC721/ERC721.sol\":1698:1738  interfaceId == type(IERC721).interfaceId */\n      not(0xffffffffffffffffffffffffffffffffffffffffffffffffffffffff)\n      and\n      eq\n        /* \"@openzeppelin/contracts/token/ERC721/ERC721.sol\":1698:1802  interfaceId == type(IERC721).interfaceId ||... */\n      dup1\n      tag_147\n      jumpi\n      pop\n        /* \"@openzeppelin/contracts/token/ERC721/ERC721.sol\":1769:1802  type(IERC721Metadata).interfaceId */\n      0x5b5e139f00000000000000000000000000000000000000000000000000000000\n        /* \"@openzeppelin/contracts/token/ERC721/ERC721.sol\":1754:1802  interfaceId == type(IERC721Metadata).interfaceId */\n      not(0xffffffffffffffffffffffffffffffffffffffffffffffffffffffff)\n      and\n        /* \"@openzeppelin/contracts/token/ERC721/ERC721.sol\":1754:1765  interfaceId */\n      dup3\n        /* \"@openzeppelin/contracts/token/ERC721/ERC721.sol\":1754:1802  interfaceId == type(IERC721Metadata).interfaceId */\n      not(0xffffffffffffffffffffffffffffffffffffffffffffffffffffffff)\n      and\n      eq\n        /* \"@openzeppelin/contracts/token/ERC721/ERC721.sol\":1698:1802  interfaceId == type(IERC721).interfaceId ||... */\n    tag_147:\n        /* \"@openzeppelin/contracts/token/ERC721/ERC721.sol\":1698:1854  interfaceId == type(IERC721).interfaceId ||... */\n      dup1\n      tag_148\n      jumpi\n      pop\n        /* \"@openzeppelin/contracts/token/ERC721/ERC721.sol\":1818:1854  super.supportsInterface(interfaceId) */\n      tag_149\n        /* \"@openzeppelin/contracts/token/ERC721/ERC721.sol\":1842:1853  interfaceId */\n      dup3\n        /* \"@openzeppelin/contracts/token/ERC721/ERC721.sol\":1818:1841  super.supportsInterface */\n      tag_150\n        /* \"@openzeppelin/contracts/token/ERC721/ERC721.sol\":1818:1854  super.supportsInterface(interfaceId) */\n      jump\t// in\n    tag_149:\n        /* \"@openzeppelin/contracts/token/ERC721/ERC721.sol\":1698:1854  interfaceId == type(IERC721).interfaceId ||... */\n    tag_148:\n        /* \"@openzeppelin/contracts/token/ERC721/ERC721.sol\":1679:1854  return... */\n      swap1\n      pop\n        /* \"@openzeppelin/contracts/token/ERC721/ERC721.sol\":1561:1861  function supportsInterface(bytes4 interfaceId) public view virtual override(ERC165, IERC165) returns (bool) {... */\n      swap2\n      swap1\n      pop\n      jump\t// out\n        /* \"@openzeppelin/contracts/token/ERC721/ERC721.sol\":2365:2454  function name() public view virtual returns (string memory) {... */\n    tag_42:\n        /* \"@openzeppelin/contracts/token/ERC721/ERC721.sol\":2410:2423  string memory */\n      0x60\n        /* \"@openzeppelin/contracts/token/ERC721/ERC721.sol\":2442:2447  _name */\n      0x00\n        /* \"@openzeppelin/contracts/token/ERC721/ERC721.sol\":2435:2447  return _name */\n      dup1\n      sload\n      tag_152\n      swap1\n      tag_139\n      jump\t// in\n    tag_152:\n      dup1\n      0x1f\n      add\n      0x20\n      dup1\n      swap2\n      div\n      mul\n      0x20\n      add\n      mload(0x40)\n      swap1\n      dup2\n      add\n      0x40\n      mstore\n      dup1\n      swap3\n      swap2\n      swap1\n      dup2\n      dup2\n      mstore\n      0x20\n      add\n      dup3\n      dup1\n      sload\n      tag_153\n      swap1\n      tag_139\n      jump\t// in\n    tag_153:\n      dup1\n      iszero\n      tag_154\n      jumpi\n      dup1\n      0x1f\n      lt\n      tag_155\n      jumpi\n      0x0100\n      dup1\n      dup4\n      sload\n      div\n      mul\n      dup4\n      mstore\n      swap2\n      0x20\n      add\n      swap2\n      jump(tag_154)\n    tag_155:\n      dup3\n      add\n      swap2\n      swap1\n      0x00\n      mstore\n      keccak256(0x00, 0x20)\n      swap1\n    tag_156:\n      dup2\n      sload\n      dup2\n      mstore\n      swap1\n      0x01\n      add\n      swap1\n      0x20\n      add\n      dup1\n      dup4\n      gt\n      tag_156\n      jumpi\n      dup3\n      swap1\n      sub\n      0x1f\n      and\n      dup3\n      add\n      swap2\n    tag_154:\n      pop\n      pop\n      pop\n      pop\n      pop\n      swap1\n      pop\n        /* \"@openzeppelin/contracts/token/ERC721/ERC721.sol\":2365:2454  function name() public view virtual returns (string memory) {... */\n      swap1\n      jump\t// out\n        /* \"@openzeppelin/contracts/token/ERC721/ERC721.sol\":3497:3651  function getApproved(uint256 tokenId) public view virtual returns (address) {... */\n    tag_48:\n        /* \"@openzeppelin/contracts/token/ERC721/ERC721.sol\":3564:3571  address */\n      0x00\n        /* \"@openzeppelin/contracts/token/ERC721/ERC721.sol\":3583:3605  _requireOwned(tokenId) */\n      tag_158\n        /* \"@openzeppelin/contracts/token/ERC721/ERC721.sol\":3597:3604  tokenId */\n      dup3\n        /* \"@openzeppelin/contracts/token/ERC721/ERC721.sol\":3583:3596  _requireOwned */\n      tag_159\n        /* \"@openzeppelin/contracts/token/ERC721/ERC721.sol\":3583:3605  _requireOwned(tokenId) */\n      jump\t// in\n    tag_158:\n      pop\n        /* \"@openzeppelin/contracts/token/ERC721/ERC721.sol\":3623:3644  _getApproved(tokenId) */\n      tag_160\n        /* \"@openzeppelin/contracts/token/ERC721/ERC721.sol\":3636:3643  tokenId */\n      dup3\n        /* \"@openzeppelin/contracts/token/ERC721/ERC721.sol\":3623:3635  _getApproved */\n      tag_161\n        /* \"@openzeppelin/contracts/token/ERC721/ERC721.sol\":3623:3644  _getApproved(tokenId) */\n      jump\t// in\n    tag_160:\n        /* \"@openzeppelin/contracts/token/ERC721/ERC721.sol\":3616:3644  return _getApproved(tokenId) */\n      swap1\n      pop\n        /* \"@openzeppelin/contracts/token/ERC721/ERC721.sol\":3497:3651  function getApproved(uint256 tokenId) public view virtual returns (address) {... */\n      swap2\n      swap1\n      pop\n      jump\t// out\n        /* \"@openzeppelin/contracts/token/ERC721/ERC721.sol\":3323:3436  function approve(address to, uint256 tokenId) public virtual {... */\n    tag_54:\n        /* \"@openzeppelin/contracts/token/ERC721/ERC721.sol\":3394:3429  _approve(to, tokenId, _msgSender()) */\n      tag_163\n        /* \"@openzeppelin/contracts/token/ERC721/ERC721.sol\":3403:3405  to */\n      dup3\n        /* \"@openzeppelin/contracts/token/ERC721/ERC721.sol\":3407:3414  tokenId */\n      dup3\n        /* \"@openzeppelin/contracts/token/ERC721/ERC721.sol\":3416:3428  _msgSender() */\n      tag_164\n        /* \"@openzeppelin/contracts/token/ERC721/ERC721.sol\":3416:3426  _msgSender */\n      tag_165\n        /* \"@openzeppelin/contracts/token/ERC721/ERC721.sol\":3416:3428  _msgSender() */\n      jump\t// in\n    tag_164:\n        /* \"@openzeppelin/contracts/token/ERC721/ERC721.sol\":3394:3402  _approve */\n      tag_166\n        /* \"@openzeppelin/contracts/token/ERC721/ERC721.sol\":3394:3429  _approve(to, tokenId, _msgSender()) */\n      jump\t// in\n    tag_163:\n        /* \"@openzeppelin/contracts/token/ERC721/ERC721.sol\":3323:3436  function approve(address to, uint256 tokenId) public virtual {... */\n      pop\n      pop\n      jump\t// out\n        /* \"@openzeppelin/contracts/token/ERC721/ERC721.sol\":4143:4721  function transferFrom(address from, address to, uint256 tokenId) public virtual {... */\n    tag_58:\n        /* \"@openzeppelin/contracts/token/ERC721/ERC721.sol\":4251:4252  0 */\n      0x00\n        /* \"@openzeppelin/contracts/token/ERC721/ERC721.sol\":4237:4253  to == address(0) */\n      0xffffffffffffffffffffffffffffffffffffffff\n      and\n        /* \"@openzeppelin/contracts/token/ERC721/ERC721.sol\":4237:4239  to */\n      dup3\n        /* \"@openzeppelin/contracts/token/ERC721/ERC721.sol\":4237:4253  to == address(0) */\n      0xffffffffffffffffffffffffffffffffffffffff\n      and\n      sub\n        /* \"@openzeppelin/contracts/token/ERC721/ERC721.sol\":4233:4320  if (to == address(0)) {... */\n      tag_168\n      jumpi\n        /* \"@openzeppelin/contracts/token/ERC721/ERC721.sol\":4306:4307  0 */\n      0x00\n        /* \"@openzeppelin/contracts/token/ERC721/ERC721.sol\":4276:4309  ERC721InvalidReceiver(address(0)) */\n      mload(0x40)\n      0x64a0ae9200000000000000000000000000000000000000000000000000000000\n      dup2\n      mstore\n      0x04\n      add\n      tag_169\n      swap2\n      swap1\n      tag_50\n      jump\t// in\n    tag_169:\n      mload(0x40)\n      dup1\n      swap2\n      sub\n      swap1\n      revert\n        /* \"@openzeppelin/contracts/token/ERC721/ERC721.sol\":4233:4320  if (to == address(0)) {... */\n    tag_168:\n        /* \"@openzeppelin/contracts/token/ERC721/ERC721.sol\":4538:4559  address previousOwner */\n      0x00\n        /* \"@openzeppelin/contracts/token/ERC721/ERC721.sol\":4562:4596  _update(to, tokenId, _msgSender()) */\n      tag_170\n        /* \"@openzeppelin/contracts/token/ERC721/ERC721.sol\":4570:4572  to */\n      dup4\n        /* \"@openzeppelin/contracts/token/ERC721/ERC721.sol\":4574:4581  tokenId */\n      dup4\n        /* \"@openzeppelin/contracts/token/ERC721/ERC721.sol\":4583:4595  _msgSender() */\n      tag_171\n        /* \"@openzeppelin/contracts/token/ERC721/ERC721.sol\":4583:4593  _msgSender */\n      tag_165\n        /* \"@openzeppelin/contracts/token/ERC721/ERC721.sol\":4583:4595  _msgSender() */\n      jump\t// in\n    tag_171:\n        /* \"@openzeppelin/contracts/token/ERC721/ERC721.sol\":4562:4569  _update */\n      tag_172\n        /* \"@openzeppelin/contracts/token/ERC721/ERC721.sol\":4562:4596  _update(to, tokenId, _msgSender()) */\n      jump\t// in\n    tag_170:\n        /* \"@openzeppelin/contracts/token/ERC721/ERC721.sol\":4538:4596  address previousOwner = _update(to, tokenId, _msgSender()) */\n      swap1\n      pop\n        /* \"@openzeppelin/contracts/token/ERC721/ERC721.sol\":4627:4631  from */\n      dup4\n        /* \"@openzeppelin/contracts/token/ERC721/ERC721.sol\":4610:4631  previousOwner != from */\n      0xffffffffffffffffffffffffffffffffffffffff\n      and\n        /* \"@openzeppelin/contracts/token/ERC721/ERC721.sol\":4610:4623  previousOwner */\n      dup2\n        /* \"@openzeppelin/contracts/token/ERC721/ERC721.sol\":4610:4631  previousOwner != from */\n      0xffffffffffffffffffffffffffffffffffffffff\n      and\n      eq\n        /* \"@openzeppelin/contracts/token/ERC721/ERC721.sol\":4606:4715  if (previousOwner != from) {... */\n      tag_173\n      jumpi\n        /* \"@openzeppelin/contracts/token/ERC721/ERC721.sol\":4675:4679  from */\n      dup4\n        /* \"@openzeppelin/contracts/token/ERC721/ERC721.sol\":4681:4688  tokenId */\n      dup3\n        /* \"@openzeppelin/contracts/token/ERC721/ERC721.sol\":4690:4703  previousOwner */\n      dup3\n        /* \"@openzeppelin/contracts/token/ERC721/ERC721.sol\":4654:4704  ERC721IncorrectOwner(from, tokenId, previousOwner) */\n      mload(0x40)\n      0x64283d7b00000000000000000000000000000000000000000000000000000000\n      dup2\n      mstore\n      0x04\n      add\n      tag_174\n      swap4\n      swap3\n      swap2\n      swap1\n      tag_175\n      jump\t// in\n    tag_174:\n      mload(0x40)\n      dup1\n      swap2\n      sub\n      swap1\n      revert\n        /* \"@openzeppelin/contracts/token/ERC721/ERC721.sol\":4606:4715  if (previousOwner != from) {... */\n    tag_173:\n        /* \"@openzeppelin/contracts/token/ERC721/ERC721.sol\":4223:4721  {... */\n      pop\n        /* \"@openzeppelin/contracts/token/ERC721/ERC721.sol\":4143:4721  function transferFrom(address from, address to, uint256 tokenId) public virtual {... */\n      pop\n      pop\n      pop\n      jump\t// out\n        /* \"@openzeppelin/contracts/token/ERC721/ERC721.sol\":4787:4919  function safeTransferFrom(address from, address to, uint256 tokenId) public {... */\n    tag_61:\n        /* \"@openzeppelin/contracts/token/ERC721/ERC721.sol\":4873:4912  safeTransferFrom(from, to, tokenId, \"\") */\n      tag_177\n        /* \"@openzeppelin/contracts/token/ERC721/ERC721.sol\":4890:4894  from */\n      dup4\n        /* \"@openzeppelin/contracts/token/ERC721/ERC721.sol\":4896:4898  to */\n      dup4\n        /* \"@openzeppelin/contracts/token/ERC721/ERC721.sol\":4900:4907  tokenId */\n      dup4\n        /* \"@openzeppelin/contracts/token/ERC721/ERC721.sol\":4873:4912  safeTransferFrom(from, to, tokenId, \"\") */\n      mload(0x40)\n      dup1\n      0x20\n      add\n      0x40\n      mstore\n      dup1\n      0x00\n      dup2\n      mstore\n      pop\n        /* \"@openzeppelin/contracts/token/ERC721/ERC721.sol\":4873:4889  safeTransferFrom */\n      tag_101\n        /* \"@openzeppelin/contracts/token/ERC721/ERC721.sol\":4873:4912  safeTransferFrom(from, to, tokenId, \"\") */\n      jump\t// in\n    tag_177:\n        /* \"@openzeppelin/contracts/token/ERC721/ERC721.sol\":4787:4919  function safeTransferFrom(address from, address to, uint256 tokenId) public {... */\n      pop\n      pop\n      pop\n      jump\t// out\n        /* \"contracts/Simplify/productStore.sol\":770:798  uint256 public nextProductId */\n    tag_63:\n      sload(0x0b)\n      dup2\n      jump\t// out\n        /* \"@openzeppelin/contracts/token/ERC721/ERC721.sol\":2185:2303  function ownerOf(uint256 tokenId) public view virtual returns (address) {... */\n    tag_68:\n        /* \"@openzeppelin/contracts/token/ERC721/ERC721.sol\":2248:2255  address */\n      0x00\n        /* \"@openzeppelin/contracts/token/ERC721/ERC721.sol\":2274:2296  _requireOwned(tokenId) */\n      tag_179\n        /* \"@openzeppelin/contracts/token/ERC721/ERC721.sol\":2288:2295  tokenId */\n      dup3\n        /* \"@openzeppelin/contracts/token/ERC721/ERC721.sol\":2274:2287  _requireOwned */\n      tag_159\n        /* \"@openzeppelin/contracts/token/ERC721/ERC721.sol\":2274:2296  _requireOwned(tokenId) */\n      jump\t// in\n    tag_179:\n        /* \"@openzeppelin/contracts/token/ERC721/ERC721.sol\":2267:2296  return _requireOwned(tokenId) */\n      swap1\n      pop\n        /* \"@openzeppelin/contracts/token/ERC721/ERC721.sol\":2185:2303  function ownerOf(uint256 tokenId) public view virtual returns (address) {... */\n      swap2\n      swap1\n      pop\n      jump\t// out\n        /* \"@openzeppelin/contracts/token/ERC721/ERC721.sol\":1920:2128  function balanceOf(address owner) public view virtual returns (uint256) {... */\n    tag_72:\n        /* \"@openzeppelin/contracts/token/ERC721/ERC721.sol\":1983:1990  uint256 */\n      0x00\n        /* \"@openzeppelin/contracts/token/ERC721/ERC721.sol\":2023:2024  0 */\n      dup1\n        /* \"@openzeppelin/contracts/token/ERC721/ERC721.sol\":2006:2025  owner == address(0) */\n      0xffffffffffffffffffffffffffffffffffffffff\n      and\n        /* \"@openzeppelin/contracts/token/ERC721/ERC721.sol\":2006:2011  owner */\n      dup3\n        /* \"@openzeppelin/contracts/token/ERC721/ERC721.sol\":2006:2025  owner == address(0) */\n      0xffffffffffffffffffffffffffffffffffffffff\n      and\n      sub\n        /* \"@openzeppelin/contracts/token/ERC721/ERC721.sol\":2002:2089  if (owner == address(0)) {... */\n      tag_181\n      jumpi\n        /* \"@openzeppelin/contracts/token/ERC721/ERC721.sol\":2075:2076  0 */\n      0x00\n        /* \"@openzeppelin/contracts/token/ERC721/ERC721.sol\":2048:2078  ERC721InvalidOwner(address(0)) */\n      mload(0x40)\n      0x89c62b6400000000000000000000000000000000000000000000000000000000\n      dup2\n      mstore\n      0x04\n      add\n      tag_182\n      swap2\n      swap1\n      tag_50\n      jump\t// in\n    tag_182:\n      mload(0x40)\n      dup1\n      swap2\n      sub\n      swap1\n      revert\n        /* \"@openzeppelin/contracts/token/ERC721/ERC721.sol\":2002:2089  if (owner == address(0)) {... */\n    tag_181:\n        /* \"@openzeppelin/contracts/token/ERC721/ERC721.sol\":2105:2114  _balances */\n      0x03\n        /* \"@openzeppelin/contracts/token/ERC721/ERC721.sol\":2105:2121  _balances[owner] */\n      0x00\n        /* \"@openzeppelin/contracts/token/ERC721/ERC721.sol\":2115:2120  owner */\n      dup4\n        /* \"@openzeppelin/contracts/token/ERC721/ERC721.sol\":2105:2121  _balances[owner] */\n      0xffffffffffffffffffffffffffffffffffffffff\n      and\n      0xffffffffffffffffffffffffffffffffffffffff\n      and\n      dup2\n      mstore\n      0x20\n      add\n      swap1\n      dup2\n      mstore\n      0x20\n      add\n      0x00\n      keccak256\n      sload\n        /* \"@openzeppelin/contracts/token/ERC721/ERC721.sol\":2098:2121  return _balances[owner] */\n      swap1\n      pop\n        /* \"@openzeppelin/contracts/token/ERC721/ERC721.sol\":1920:2128  function balanceOf(address owner) public view virtual returns (uint256) {... */\n      swap2\n      swap1\n      pop\n      jump\t// out\n        /* \"@openzeppelin/contracts/access/Ownable.sol\":1824:1925  function renounceOwnership() public virtual onlyOwner {... */\n    tag_75:\n        /* \"@openzeppelin/contracts/access/Ownable.sol\":1094:1107  _checkOwner() */\n      tag_184\n        /* \"@openzeppelin/contracts/access/Ownable.sol\":1094:1105  _checkOwner */\n      tag_185\n        /* \"@openzeppelin/contracts/access/Ownable.sol\":1094:1107  _checkOwner() */\n      jump\t// in\n    tag_184:\n        /* \"@openzeppelin/contracts/access/Ownable.sol\":1888:1918  _transferOwnership(address(0)) */\n      tag_187\n        /* \"@openzeppelin/contracts/access/Ownable.sol\":1915:1916  0 */\n      0x00\n        /* \"@openzeppelin/contracts/access/Ownable.sol\":1888:1906  _transferOwnership */\n      tag_188\n        /* \"@openzeppelin/contracts/access/Ownable.sol\":1888:1918  _transferOwnership(address(0)) */\n      jump\t// in\n    tag_187:\n        /* \"@openzeppelin/contracts/access/Ownable.sol\":1824:1925  function renounceOwnership() public virtual onlyOwner {... */\n      jump\t// out\n        /* \"contracts/Simplify/productStore.sol\":661:704  mapping(uint256 => Product) public products */\n    tag_78:\n      mstore(0x20, 0x09)\n      dup1\n      0x00\n      mstore\n      keccak256(0x00, 0x40)\n      0x00\n      swap2\n      pop\n      swap1\n      pop\n      dup1\n      0x00\n      add\n      sload\n      swap1\n      dup1\n      0x01\n      add\n      dup1\n      sload\n      tag_189\n      swap1\n      tag_139\n      jump\t// in\n    tag_189:\n      dup1\n      0x1f\n      add\n      0x20\n      dup1\n      swap2\n      div\n      mul\n      0x20\n      add\n      mload(0x40)\n      swap1\n      dup2\n      add\n      0x40\n      mstore\n      dup1\n      swap3\n      swap2\n      swap1\n      dup2\n      dup2\n      mstore\n      0x20\n      add\n      dup3\n      dup1\n      sload\n      tag_190\n      swap1\n      tag_139\n      jump\t// in\n    tag_190:\n      dup1\n      iszero\n      tag_191\n      jumpi\n      dup1\n      0x1f\n      lt\n      tag_192\n      jumpi\n      0x0100\n      dup1\n      dup4\n      sload\n      div\n      mul\n      dup4\n      mstore\n      swap2\n      0x20\n      add\n      swap2\n      jump(tag_191)\n    tag_192:\n      dup3\n      add\n      swap2\n      swap1\n      0x00\n      mstore\n      keccak256(0x00, 0x20)\n      swap1\n    tag_193:\n      dup2\n      sload\n      dup2\n      mstore\n      swap1\n      0x01\n      add\n      swap1\n      0x20\n      add\n      dup1\n      dup4\n      gt\n      tag_193\n      jumpi\n      dup3\n      swap1\n      sub\n      0x1f\n      and\n      dup3\n      add\n      swap2\n    tag_191:\n      pop\n      pop\n      pop\n      pop\n      pop\n      swap1\n      dup1\n      0x02\n      add\n      sload\n      swap1\n      pop\n      dup4\n      jump\t// out\n        /* \"contracts/Simplify/productStore.sol\":1131:1794  function buyProduct(uint256 _productId) external {... */\n    tag_83:\n        /* \"contracts/Simplify/productStore.sol\":1191:1214  Product storage product */\n      0x00\n        /* \"contracts/Simplify/productStore.sol\":1217:1225  products */\n      0x09\n        /* \"contracts/Simplify/productStore.sol\":1217:1237  products[_productId] */\n      0x00\n        /* \"contracts/Simplify/productStore.sol\":1226:1236  _productId */\n      dup4\n        /* \"contracts/Simplify/productStore.sol\":1217:1237  products[_productId] */\n      dup2\n      mstore\n      0x20\n      add\n      swap1\n      dup2\n      mstore\n      0x20\n      add\n      0x00\n      keccak256\n        /* \"contracts/Simplify/productStore.sol\":1191:1237  Product storage product = products[_productId] */\n      swap1\n      pop\n        /* \"contracts/Simplify/productStore.sol\":1270:1271  0 */\n      0x00\n        /* \"contracts/Simplify/productStore.sol\":1256:1263  product */\n      dup2\n        /* \"contracts/Simplify/productStore.sol\":1256:1266  product.id */\n      0x00\n      add\n      sload\n        /* \"contracts/Simplify/productStore.sol\":1256:1271  product.id != 0 */\n      sub\n        /* \"contracts/Simplify/productStore.sol\":1248:1298  require(product.id != 0, \"Product does not exist\") */\n      tag_195\n      jumpi\n      mload(0x40)\n      0x08c379a000000000000000000000000000000000000000000000000000000000\n      dup2\n      mstore\n      0x04\n      add\n      tag_196\n      swap1\n      tag_197\n      jump\t// in\n    tag_196:\n      mload(0x40)\n      dup1\n      swap2\n      sub\n      swap1\n      revert\n    tag_195:\n        /* \"contracts/Simplify/productStore.sol\":1317:1322  token */\n      0x07\n      0x00\n      swap1\n      sload\n      swap1\n      0x0100\n      exp\n      swap1\n      div\n      0xffffffffffffffffffffffffffffffffffffffff\n      and\n        /* \"contracts/Simplify/productStore.sol\":1317:1335  token.transferFrom */\n      0xffffffffffffffffffffffffffffffffffffffff\n      and\n      0x23b872dd\n        /* \"contracts/Simplify/productStore.sol\":1336:1346  msg.sender */\n      caller\n        /* \"contracts/Simplify/productStore.sol\":1356:1360  this */\n      address\n        /* \"contracts/Simplify/productStore.sol\":1377:1383  10**18 */\n      0x0de0b6b3a7640000\n        /* \"contracts/Simplify/productStore.sol\":1363:1370  product */\n      dup6\n        /* \"contracts/Simplify/productStore.sol\":1363:1376  product.price */\n      0x02\n      add\n      sload\n        /* \"contracts/Simplify/productStore.sol\":1363:1383  product.price*10**18 */\n      tag_198\n      swap2\n      swap1\n      tag_199\n      jump\t// in\n    tag_198:\n        /* \"contracts/Simplify/productStore.sol\":1317:1384  token.transferFrom(msg.sender, address(this), product.price*10**18) */\n      mload(0x40)\n      dup5\n      0xffffffff\n      and\n      0xe0\n      shl\n      dup2\n      mstore\n      0x04\n      add\n      tag_200\n      swap4\n      swap3\n      swap2\n      swap1\n      tag_201\n      jump\t// in\n    tag_200:\n      0x20\n      mload(0x40)\n      dup1\n      dup4\n      sub\n      dup2\n      0x00\n      dup8\n      gas\n      call\n      iszero\n      dup1\n      iszero\n      tag_203\n      jumpi\n      returndatasize\n      0x00\n      dup1\n      returndatacopy\n      revert(0x00, returndatasize)\n    tag_203:\n      pop\n      pop\n      pop\n      pop\n      mload(0x40)\n      returndatasize\n      not(0x1f)\n      0x1f\n      dup3\n      add\n      and\n      dup3\n      add\n      dup1\n      0x40\n      mstore\n      pop\n      dup2\n      add\n      swap1\n      tag_204\n      swap2\n      swap1\n      tag_205\n      jump\t// in\n    tag_204:\n        /* \"contracts/Simplify/productStore.sol\":1309:1410  require(token.transferFrom(msg.sender, address(this), product.price*10**18), \"Token transfer failed\") */\n      tag_206\n      jumpi\n      mload(0x40)\n      0x08c379a000000000000000000000000000000000000000000000000000000000\n      dup2\n      mstore\n      0x04\n      add\n      tag_207\n      swap1\n      tag_208\n      jump\t// in\n    tag_207:\n      mload(0x40)\n      dup1\n      swap2\n      sub\n      swap1\n      revert\n    tag_206:\n        /* \"contracts/Simplify/productStore.sol\":1511:1525  uint256 billId */\n      0x00\n        /* \"contracts/Simplify/productStore.sol\":1528:1546  _billIds.current() */\n      tag_209\n        /* \"contracts/Simplify/productStore.sol\":1528:1536  _billIds */\n      0x08\n        /* \"contracts/Simplify/productStore.sol\":1528:1544  _billIds.current */\n      tag_210\n        /* \"contracts/Simplify/productStore.sol\":1528:1546  _billIds.current() */\n      jump\t// in\n    tag_209:\n        /* \"contracts/Simplify/productStore.sol\":1511:1546  uint256 billId = _billIds.current() */\n      swap1\n      pop\n        /* \"contracts/Simplify/productStore.sol\":1557:1586  _safeMint(msg.sender, billId) */\n      tag_211\n        /* \"contracts/Simplify/productStore.sol\":1567:1577  msg.sender */\n      caller\n        /* \"contracts/Simplify/productStore.sol\":1579:1585  billId */\n      dup3\n        /* \"contracts/Simplify/productStore.sol\":1557:1566  _safeMint */\n      tag_212\n        /* \"contracts/Simplify/productStore.sol\":1557:1586  _safeMint(msg.sender, billId) */\n      jump\t// in\n    tag_211:\n        /* \"contracts/Simplify/productStore.sol\":1599:1619  _billIds.increment() */\n      tag_213\n        /* \"contracts/Simplify/productStore.sol\":1599:1607  _billIds */\n      0x08\n        /* \"contracts/Simplify/productStore.sol\":1599:1617  _billIds.increment */\n      tag_214\n        /* \"contracts/Simplify/productStore.sol\":1599:1619  _billIds.increment() */\n      jump\t// in\n    tag_213:\n        /* \"contracts/Simplify/productStore.sol\":1677:1690  userPurchases */\n      0x0a\n        /* \"contracts/Simplify/productStore.sol\":1677:1702  userPurchases[msg.sender] */\n      0x00\n        /* \"contracts/Simplify/productStore.sol\":1691:1701  msg.sender */\n      caller\n        /* \"contracts/Simplify/productStore.sol\":1677:1702  userPurchases[msg.sender] */\n      0xffffffffffffffffffffffffffffffffffffffff\n      and\n      0xffffffffffffffffffffffffffffffffffffffff\n      and\n      dup2\n      mstore\n      0x20\n      add\n      swap1\n      dup2\n      mstore\n      0x20\n      add\n      0x00\n      keccak256\n        /* \"contracts/Simplify/productStore.sol\":1708:1718  _productId */\n      dup4\n        /* \"contracts/Simplify/productStore.sol\":1677:1719  userPurchases[msg.sender].push(_productId) */\n      swap1\n      dup1\n      0x01\n      dup2\n      sload\n      add\n      dup1\n      dup3\n      sstore\n      dup1\n      swap2\n      pop\n      pop\n      0x01\n      swap1\n      sub\n      swap1\n      0x00\n      mstore\n      keccak256(0x00, 0x20)\n      add\n      0x00\n      swap1\n      swap2\n      swap1\n      swap2\n      swap1\n      swap2\n      pop\n      sstore\n        /* \"contracts/Simplify/productStore.sol\":1748:1758  msg.sender */\n      caller\n        /* \"contracts/Simplify/productStore.sol\":1737:1786  BuyProduct(msg.sender, _productId, product.price) */\n      0xffffffffffffffffffffffffffffffffffffffff\n      and\n      0x52e9b4b2677873f4a0e6ac637221c8e8cfd2149accd54695cb8fdaf9491ddecc\n        /* \"contracts/Simplify/productStore.sol\":1760:1770  _productId */\n      dup5\n        /* \"contracts/Simplify/productStore.sol\":1772:1779  product */\n      dup5\n        /* \"contracts/Simplify/productStore.sol\":1772:1785  product.price */\n      0x02\n      add\n      sload\n        /* \"contracts/Simplify/productStore.sol\":1737:1786  BuyProduct(msg.sender, _productId, product.price) */\n      mload(0x40)\n      tag_216\n      swap3\n      swap2\n      swap1\n      tag_217\n      jump\t// in\n    tag_216:\n      mload(0x40)\n      dup1\n      swap2\n      sub\n      swap1\n      log2\n        /* \"contracts/Simplify/productStore.sol\":1180:1794  {... */\n      pop\n      pop\n        /* \"contracts/Simplify/productStore.sol\":1131:1794  function buyProduct(uint256 _productId) external {... */\n      pop\n      jump\t// out\n        /* \"@openzeppelin/contracts/access/Ownable.sol\":1201:1286  function owner() public view virtual returns (address) {... */\n    tag_85:\n        /* \"@openzeppelin/contracts/access/Ownable.sol\":1247:1254  address */\n      0x00\n        /* \"@openzeppelin/contracts/access/Ownable.sol\":1273:1279  _owner */\n      0x06\n      0x00\n      swap1\n      sload\n      swap1\n      0x0100\n      exp\n      swap1\n      div\n      0xffffffffffffffffffffffffffffffffffffffff\n      and\n        /* \"@openzeppelin/contracts/access/Ownable.sol\":1266:1279  return _owner */\n      swap1\n      pop\n        /* \"@openzeppelin/contracts/access/Ownable.sol\":1201:1286  function owner() public view virtual returns (address) {... */\n      swap1\n      jump\t// out\n        /* \"@openzeppelin/contracts/token/ERC721/ERC721.sol\":2518:2611  function symbol() public view virtual returns (string memory) {... */\n    tag_88:\n        /* \"@openzeppelin/contracts/token/ERC721/ERC721.sol\":2565:2578  string memory */\n      0x60\n        /* \"@openzeppelin/contracts/token/ERC721/ERC721.sol\":2597:2604  _symbol */\n      0x01\n        /* \"@openzeppelin/contracts/token/ERC721/ERC721.sol\":2590:2604  return _symbol */\n      dup1\n      sload\n      tag_220\n      swap1\n      tag_139\n      jump\t// in\n    tag_220:\n      dup1\n      0x1f\n      add\n      0x20\n      dup1\n      swap2\n      div\n      mul\n      0x20\n      add\n      mload(0x40)\n      swap1\n      dup2\n      add\n      0x40\n      mstore\n      dup1\n      swap3\n      swap2\n      swap1\n      dup2\n      dup2\n      mstore\n      0x20\n      add\n      dup3\n      dup1\n      sload\n      tag_221\n      swap1\n      tag_139\n      jump\t// in\n    tag_221:\n      dup1\n      iszero\n      tag_222\n      jumpi\n      dup1\n      0x1f\n      lt\n      tag_223\n      jumpi\n      0x0100\n      dup1\n      dup4\n      sload\n      div\n      mul\n      dup4\n      mstore\n      swap2\n      0x20\n      add\n      swap2\n      jump(tag_222)\n    tag_223:\n      dup3\n      add\n      swap2\n      swap1\n      0x00\n      mstore\n      keccak256(0x00, 0x20)\n      swap1\n    tag_224:\n      dup2\n      sload\n      dup2\n      mstore\n      swap1\n      0x01\n      add\n      swap1\n      0x20\n      add\n      dup1\n      dup4\n      gt\n      tag_224\n      jumpi\n      dup3\n      swap1\n      sub\n      0x1f\n      and\n      dup3\n      add\n      swap2\n    tag_222:\n      pop\n      pop\n      pop\n      pop\n      pop\n      swap1\n      pop\n        /* \"@openzeppelin/contracts/token/ERC721/ERC721.sol\":2518:2611  function symbol() public view virtual returns (string memory) {... */\n      swap1\n      jump\t// out\n        /* \"@openzeppelin/contracts/token/ERC721/ERC721.sol\":3718:3862  function setApprovalForAll(address operator, bool approved) public virtual {... */\n    tag_93:\n        /* \"@openzeppelin/contracts/token/ERC721/ERC721.sol\":3803:3855  _setApprovalForAll(_msgSender(), operator, approved) */\n      tag_226\n        /* \"@openzeppelin/contracts/token/ERC721/ERC721.sol\":3822:3834  _msgSender() */\n      tag_227\n        /* \"@openzeppelin/contracts/token/ERC721/ERC721.sol\":3822:3832  _msgSender */\n      tag_165\n        /* \"@openzeppelin/contracts/token/ERC721/ERC721.sol\":3822:3834  _msgSender() */\n      jump\t// in\n    tag_227:\n        /* \"@openzeppelin/contracts/token/ERC721/ERC721.sol\":3836:3844  operator */\n      dup4\n        /* \"@openzeppelin/contracts/token/ERC721/ERC721.sol\":3846:3854  approved */\n      dup4\n        /* \"@openzeppelin/contracts/token/ERC721/ERC721.sol\":3803:3821  _setApprovalForAll */\n      tag_228\n        /* \"@openzeppelin/contracts/token/ERC721/ERC721.sol\":3803:3855  _setApprovalForAll(_msgSender(), operator, approved) */\n      jump\t// in\n    tag_226:\n        /* \"@openzeppelin/contracts/token/ERC721/ERC721.sol\":3718:3862  function setApprovalForAll(address operator, bool approved) public virtual {... */\n      pop\n      pop\n      jump\t// out\n        /* \"contracts/Simplify/productStore.sol\":927:1123  function addProduct(string memory _name, uint256 _price) external onlyOwner {... */\n    tag_97:\n        /* \"@openzeppelin/contracts/access/Ownable.sol\":1094:1107  _checkOwner() */\n      tag_230\n        /* \"@openzeppelin/contracts/access/Ownable.sol\":1094:1105  _checkOwner */\n      tag_185\n        /* \"@openzeppelin/contracts/access/Ownable.sol\":1094:1107  _checkOwner() */\n      jump\t// in\n    tag_230:\n        /* \"contracts/Simplify/productStore.sol\":1014:1031  uint256 productId */\n      0x00\n        /* \"contracts/Simplify/productStore.sol\":1034:1047  nextProductId */\n      0x0b\n      0x00\n        /* \"contracts/Simplify/productStore.sol\":1034:1049  nextProductId++ */\n      dup2\n      sload\n      dup1\n      swap3\n      swap2\n      swap1\n      tag_232\n      swap1\n      tag_233\n      jump\t// in\n    tag_232:\n      swap2\n      swap1\n      pop\n      sstore\n        /* \"contracts/Simplify/productStore.sol\":1014:1049  uint256 productId = nextProductId++ */\n      swap1\n      pop\n        /* \"contracts/Simplify/productStore.sol\":1082:1115  Product(productId, _name, _price) */\n      mload(0x40)\n      dup1\n      0x60\n      add\n      0x40\n      mstore\n      dup1\n        /* \"contracts/Simplify/productStore.sol\":1090:1099  productId */\n      dup3\n        /* \"contracts/Simplify/productStore.sol\":1082:1115  Product(productId, _name, _price) */\n      dup2\n      mstore\n      0x20\n      add\n        /* \"contracts/Simplify/productStore.sol\":1101:1106  _name */\n      dup5\n        /* \"contracts/Simplify/productStore.sol\":1082:1115  Product(productId, _name, _price) */\n      dup2\n      mstore\n      0x20\n      add\n        /* \"contracts/Simplify/productStore.sol\":1108:1114  _price */\n      dup4\n        /* \"contracts/Simplify/productStore.sol\":1082:1115  Product(productId, _name, _price) */\n      dup2\n      mstore\n      pop\n        /* \"contracts/Simplify/productStore.sol\":1060:1068  products */\n      0x09\n        /* \"contracts/Simplify/productStore.sol\":1060:1079  products[productId] */\n      0x00\n        /* \"contracts/Simplify/productStore.sol\":1069:1078  productId */\n      dup4\n        /* \"contracts/Simplify/productStore.sol\":1060:1079  products[productId] */\n      dup2\n      mstore\n      0x20\n      add\n      swap1\n      dup2\n      mstore\n      0x20\n      add\n      0x00\n      keccak256\n        /* \"contracts/Simplify/productStore.sol\":1060:1115  products[productId] = Product(productId, _name, _price) */\n      0x00\n      dup3\n      add\n      mload\n      dup2\n      0x00\n      add\n      sstore\n      0x20\n      dup3\n      add\n      mload\n      dup2\n      0x01\n      add\n      swap1\n      dup2\n      tag_234\n      swap2\n      swap1\n      tag_235\n      jump\t// in\n    tag_234:\n      pop\n      0x40\n      dup3\n      add\n      mload\n      dup2\n      0x02\n      add\n      sstore\n      swap1\n      pop\n      pop\n        /* \"contracts/Simplify/productStore.sol\":1003:1123  {... */\n      pop\n        /* \"contracts/Simplify/productStore.sol\":927:1123  function addProduct(string memory _name, uint256 _price) external onlyOwner {... */\n      pop\n      pop\n      jump\t// out\n        /* \"@openzeppelin/contracts/token/ERC721/ERC721.sol\":4985:5193  function safeTransferFrom(address from, address to, uint256 tokenId, bytes memory data) public virtual {... */\n    tag_101:\n        /* \"@openzeppelin/contracts/token/ERC721/ERC721.sol\":5098:5129  transferFrom(from, to, tokenId) */\n      tag_237\n        /* \"@openzeppelin/contracts/token/ERC721/ERC721.sol\":5111:5115  from */\n      dup5\n        /* \"@openzeppelin/contracts/token/ERC721/ERC721.sol\":5117:5119  to */\n      dup5\n        /* \"@openzeppelin/contracts/token/ERC721/ERC721.sol\":5121:5128  tokenId */\n      dup5\n        /* \"@openzeppelin/contracts/token/ERC721/ERC721.sol\":5098:5110  transferFrom */\n      tag_58\n        /* \"@openzeppelin/contracts/token/ERC721/ERC721.sol\":5098:5129  transferFrom(from, to, tokenId) */\n      jump\t// in\n    tag_237:\n        /* \"@openzeppelin/contracts/token/ERC721/ERC721.sol\":5139:5186  _checkOnERC721Received(from, to, tokenId, data) */\n      tag_238\n        /* \"@openzeppelin/contracts/token/ERC721/ERC721.sol\":5162:5166  from */\n      dup5\n        /* \"@openzeppelin/contracts/token/ERC721/ERC721.sol\":5168:5170  to */\n      dup5\n        /* \"@openzeppelin/contracts/token/ERC721/ERC721.sol\":5172:5179  tokenId */\n      dup5\n        /* \"@openzeppelin/contracts/token/ERC721/ERC721.sol\":5181:5185  data */\n      dup5\n        /* \"@openzeppelin/contracts/token/ERC721/ERC721.sol\":5139:5161  _checkOnERC721Received */\n      tag_239\n        /* \"@openzeppelin/contracts/token/ERC721/ERC721.sol\":5139:5186  _checkOnERC721Received(from, to, tokenId, data) */\n      jump\t// in\n    tag_238:\n        /* \"@openzeppelin/contracts/token/ERC721/ERC721.sol\":4985:5193  function safeTransferFrom(address from, address to, uint256 tokenId, bytes memory data) public virtual {... */\n      pop\n      pop\n      pop\n      pop\n      jump\t// out\n        /* \"@openzeppelin/contracts/token/ERC721/ERC721.sol\":2677:2932  function tokenURI(uint256 tokenId) public view virtual returns (string memory) {... */\n    tag_104:\n        /* \"@openzeppelin/contracts/token/ERC721/ERC721.sol\":2741:2754  string memory */\n      0x60\n        /* \"@openzeppelin/contracts/token/ERC721/ERC721.sol\":2766:2788  _requireOwned(tokenId) */\n      tag_241\n        /* \"@openzeppelin/contracts/token/ERC721/ERC721.sol\":2780:2787  tokenId */\n      dup3\n        /* \"@openzeppelin/contracts/token/ERC721/ERC721.sol\":2766:2779  _requireOwned */\n      tag_159\n        /* \"@openzeppelin/contracts/token/ERC721/ERC721.sol\":2766:2788  _requireOwned(tokenId) */\n      jump\t// in\n    tag_241:\n      pop\n        /* \"@openzeppelin/contracts/token/ERC721/ERC721.sol\":2799:2820  string memory baseURI */\n      0x00\n        /* \"@openzeppelin/contracts/token/ERC721/ERC721.sol\":2823:2833  _baseURI() */\n      tag_242\n        /* \"@openzeppelin/contracts/token/ERC721/ERC721.sol\":2823:2831  _baseURI */\n      tag_243\n        /* \"@openzeppelin/contracts/token/ERC721/ERC721.sol\":2823:2833  _baseURI() */\n      jump\t// in\n    tag_242:\n        /* \"@openzeppelin/contracts/token/ERC721/ERC721.sol\":2799:2833  string memory baseURI = _baseURI() */\n      swap1\n      pop\n        /* \"@openzeppelin/contracts/token/ERC721/ERC721.sol\":2874:2875  0 */\n      0x00\n        /* \"@openzeppelin/contracts/token/ERC721/ERC721.sol\":2856:2863  baseURI */\n      dup2\n        /* \"@openzeppelin/contracts/token/ERC721/ERC721.sol\":2850:2871  bytes(baseURI).length */\n      mload\n        /* \"@openzeppelin/contracts/token/ERC721/ERC721.sol\":2850:2875  bytes(baseURI).length > 0 */\n      gt\n        /* \"@openzeppelin/contracts/token/ERC721/ERC721.sol\":2850:2925  bytes(baseURI).length > 0 ? string.concat(baseURI, tokenId.toString()) : \"\" */\n      tag_244\n      jumpi\n      mload(0x40)\n      dup1\n      0x20\n      add\n      0x40\n      mstore\n      dup1\n      0x00\n      dup2\n      mstore\n      pop\n      jump(tag_245)\n    tag_244:\n        /* \"@openzeppelin/contracts/token/ERC721/ERC721.sol\":2892:2899  baseURI */\n      dup1\n        /* \"@openzeppelin/contracts/token/ERC721/ERC721.sol\":2901:2919  tokenId.toString() */\n      tag_246\n        /* \"@openzeppelin/contracts/token/ERC721/ERC721.sol\":2901:2908  tokenId */\n      dup5\n        /* \"@openzeppelin/contracts/token/ERC721/ERC721.sol\":2901:2917  tokenId.toString */\n      tag_247\n        /* \"@openzeppelin/contracts/token/ERC721/ERC721.sol\":2901:2919  tokenId.toString() */\n      jump\t// in\n    tag_246:\n        /* \"@openzeppelin/contracts/token/ERC721/ERC721.sol\":2878:2920  string.concat(baseURI, tokenId.toString()) */\n      add(0x20, mload(0x40))\n      tag_248\n      swap3\n      swap2\n      swap1\n      tag_249\n      jump\t// in\n    tag_248:\n      mload(0x40)\n      0x20\n      dup2\n      dup4\n      sub\n      sub\n      dup2\n      mstore\n      swap1\n      0x40\n      mstore\n        /* \"@openzeppelin/contracts/token/ERC721/ERC721.sol\":2850:2925  bytes(baseURI).length > 0 ? string.concat(baseURI, tokenId.toString()) : \"\" */\n    tag_245:\n        /* \"@openzeppelin/contracts/token/ERC721/ERC721.sol\":2843:2925  return bytes(baseURI).length > 0 ? string.concat(baseURI, tokenId.toString()) : \"\" */\n      swap2\n      pop\n      pop\n        /* \"@openzeppelin/contracts/token/ERC721/ERC721.sol\":2677:2932  function tokenURI(uint256 tokenId) public view virtual returns (string memory) {... */\n      swap2\n      swap1\n      pop\n      jump\t// out\n        /* \"contracts/Simplify/productStore.sol\":711:761  mapping(address => uint256[]) public userPurchases */\n    tag_108:\n      mstore(0x20, 0x0a)\n      dup2\n      0x00\n      mstore\n      keccak256(0x00, 0x40)\n      dup2\n      dup2\n      sload\n      dup2\n      lt\n      tag_250\n      jumpi\n      0x00\n      dup1\n      revert\n    tag_250:\n      swap1\n      0x00\n      mstore\n      keccak256(0x00, 0x20)\n      add\n      0x00\n      swap2\n      pop\n      swap2\n      pop\n      pop\n      sload\n      dup2\n      jump\t// out\n        /* \"@openzeppelin/contracts/token/ERC721/ERC721.sol\":3928:4081  function isApprovedForAll(address owner, address operator) public view virtual returns (bool) {... */\n    tag_113:\n        /* \"@openzeppelin/contracts/token/ERC721/ERC721.sol\":4016:4020  bool */\n      0x00\n        /* \"@openzeppelin/contracts/token/ERC721/ERC721.sol\":4039:4057  _operatorApprovals */\n      0x05\n        /* \"@openzeppelin/contracts/token/ERC721/ERC721.sol\":4039:4064  _operatorApprovals[owner] */\n      0x00\n        /* \"@openzeppelin/contracts/token/ERC721/ERC721.sol\":4058:4063  owner */\n      dup5\n        /* \"@openzeppelin/contracts/token/ERC721/ERC721.sol\":4039:4064  _operatorApprovals[owner] */\n      0xffffffffffffffffffffffffffffffffffffffff\n      and\n      0xffffffffffffffffffffffffffffffffffffffff\n      and\n      dup2\n      mstore\n      0x20\n      add\n      swap1\n      dup2\n      mstore\n      0x20\n      add\n      0x00\n      keccak256\n        /* \"@openzeppelin/contracts/token/ERC721/ERC721.sol\":4039:4074  _operatorApprovals[owner][operator] */\n      0x00\n        /* \"@openzeppelin/contracts/token/ERC721/ERC721.sol\":4065:4073  operator */\n      dup4\n        /* \"@openzeppelin/contracts/token/ERC721/ERC721.sol\":4039:4074  _operatorApprovals[owner][operator] */\n      0xffffffffffffffffffffffffffffffffffffffff\n      and\n      0xffffffffffffffffffffffffffffffffffffffff\n      and\n      dup2\n      mstore\n      0x20\n      add\n      swap1\n      dup2\n      mstore\n      0x20\n      add\n      0x00\n      keccak256\n      0x00\n      swap1\n      sload\n      swap1\n      0x0100\n      exp\n      swap1\n      div\n      0xff\n      and\n        /* \"@openzeppelin/contracts/token/ERC721/ERC721.sol\":4032:4074  return _operatorApprovals[owner][operator] */\n      swap1\n      pop\n        /* \"@openzeppelin/contracts/token/ERC721/ERC721.sol\":3928:4081  function isApprovedForAll(address owner, address operator) public view virtual returns (bool) {... */\n      swap3\n      swap2\n      pop\n      pop\n      jump\t// out\n        /* \"@openzeppelin/contracts/access/Ownable.sol\":2074:2272  function transferOwnership(address newOwner) public virtual onlyOwner {... */\n    tag_117:\n        /* \"@openzeppelin/contracts/access/Ownable.sol\":1094:1107  _checkOwner() */\n      tag_254\n        /* \"@openzeppelin/contracts/access/Ownable.sol\":1094:1105  _checkOwner */\n      tag_185\n        /* \"@openzeppelin/contracts/access/Ownable.sol\":1094:1107  _checkOwner() */\n      jump\t// in\n    tag_254:\n        /* \"@openzeppelin/contracts/access/Ownable.sol\":2182:2183  0 */\n      0x00\n        /* \"@openzeppelin/contracts/access/Ownable.sol\":2162:2184  newOwner != address(0) */\n      0xffffffffffffffffffffffffffffffffffffffff\n      and\n        /* \"@openzeppelin/contracts/access/Ownable.sol\":2162:2170  newOwner */\n      dup2\n        /* \"@openzeppelin/contracts/access/Ownable.sol\":2162:2184  newOwner != address(0) */\n      0xffffffffffffffffffffffffffffffffffffffff\n      and\n      sub\n        /* \"@openzeppelin/contracts/access/Ownable.sol\":2154:2227  require(newOwner != address(0), \"Ownable: new owner is the zero address\") */\n      tag_256\n      jumpi\n      mload(0x40)\n      0x08c379a000000000000000000000000000000000000000000000000000000000\n      dup2\n      mstore\n      0x04\n      add\n      tag_257\n      swap1\n      tag_258\n      jump\t// in\n    tag_257:\n      mload(0x40)\n      dup1\n      swap2\n      sub\n      swap1\n      revert\n    tag_256:\n        /* \"@openzeppelin/contracts/access/Ownable.sol\":2237:2265  _transferOwnership(newOwner) */\n      tag_259\n        /* \"@openzeppelin/contracts/access/Ownable.sol\":2256:2264  newOwner */\n      dup2\n        /* \"@openzeppelin/contracts/access/Ownable.sol\":2237:2255  _transferOwnership */\n      tag_188\n        /* \"@openzeppelin/contracts/access/Ownable.sol\":2237:2265  _transferOwnership(newOwner) */\n      jump\t// in\n    tag_259:\n        /* \"@openzeppelin/contracts/access/Ownable.sol\":2074:2272  function transferOwnership(address newOwner) public virtual onlyOwner {... */\n      pop\n      jump\t// out\n        /* \"contracts/Simplify/productStore.sol\":340:359  IERC20 public token */\n    tag_119:\n      0x07\n      0x00\n      swap1\n      sload\n      swap1\n      0x0100\n      exp\n      swap1\n      div\n      0xffffffffffffffffffffffffffffffffffffffff\n      and\n      dup2\n      jump\t// out\n        /* \"@openzeppelin/contracts/utils/introspection/ERC165.sol\":762:908  function supportsInterface(bytes4 interfaceId) public view virtual returns (bool) {... */\n    tag_150:\n        /* \"@openzeppelin/contracts/utils/introspection/ERC165.sol\":838:842  bool */\n      0x00\n        /* \"@openzeppelin/contracts/utils/introspection/ERC165.sol\":876:901  type(IERC165).interfaceId */\n      0x01ffc9a700000000000000000000000000000000000000000000000000000000\n        /* \"@openzeppelin/contracts/utils/introspection/ERC165.sol\":861:901  interfaceId == type(IERC165).interfaceId */\n      not(0xffffffffffffffffffffffffffffffffffffffffffffffffffffffff)\n      and\n        /* \"@openzeppelin/contracts/utils/introspection/ERC165.sol\":861:872  interfaceId */\n      dup3\n        /* \"@openzeppelin/contracts/utils/introspection/ERC165.sol\":861:901  interfaceId == type(IERC165).interfaceId */\n      not(0xffffffffffffffffffffffffffffffffffffffffffffffffffffffff)\n      and\n      eq\n        /* \"@openzeppelin/contracts/utils/introspection/ERC165.sol\":854:901  return interfaceId == type(IERC165).interfaceId */\n      swap1\n      pop\n        /* \"@openzeppelin/contracts/utils/introspection/ERC165.sol\":762:908  function supportsInterface(bytes4 interfaceId) public view virtual returns (bool) {... */\n      swap2\n      swap1\n      pop\n      jump\t// out\n        /* \"@openzeppelin/contracts/token/ERC721/ERC721.sol\":16138:16379  function _requireOwned(uint256 tokenId) internal view returns (address) {... */\n    tag_159:\n        /* \"@openzeppelin/contracts/token/ERC721/ERC721.sol\":16201:16208  address */\n      0x00\n        /* \"@openzeppelin/contracts/token/ERC721/ERC721.sol\":16220:16233  address owner */\n      dup1\n        /* \"@openzeppelin/contracts/token/ERC721/ERC721.sol\":16236:16253  _ownerOf(tokenId) */\n      tag_262\n        /* \"@openzeppelin/contracts/token/ERC721/ERC721.sol\":16245:16252  tokenId */\n      dup4\n        /* \"@openzeppelin/contracts/token/ERC721/ERC721.sol\":16236:16244  _ownerOf */\n      tag_263\n        /* \"@openzeppelin/contracts/token/ERC721/ERC721.sol\":16236:16253  _ownerOf(tokenId) */\n      jump\t// in\n    tag_262:\n        /* \"@openzeppelin/contracts/token/ERC721/ERC721.sol\":16220:16253  address owner = _ownerOf(tokenId) */\n      swap1\n      pop\n        /* \"@openzeppelin/contracts/token/ERC721/ERC721.sol\":16284:16285  0 */\n      0x00\n        /* \"@openzeppelin/contracts/token/ERC721/ERC721.sol\":16267:16286  owner == address(0) */\n      0xffffffffffffffffffffffffffffffffffffffff\n      and\n        /* \"@openzeppelin/contracts/token/ERC721/ERC721.sol\":16267:16272  owner */\n      dup2\n        /* \"@openzeppelin/contracts/token/ERC721/ERC721.sol\":16267:16286  owner == address(0) */\n      0xffffffffffffffffffffffffffffffffffffffff\n      and\n      sub\n        /* \"@openzeppelin/contracts/token/ERC721/ERC721.sol\":16263:16351  if (owner == address(0)) {... */\n      tag_264\n      jumpi\n        /* \"@openzeppelin/contracts/token/ERC721/ERC721.sol\":16332:16339  tokenId */\n      dup3\n        /* \"@openzeppelin/contracts/token/ERC721/ERC721.sol\":16309:16340  ERC721NonexistentToken(tokenId) */\n      mload(0x40)\n      0x7e27328900000000000000000000000000000000000000000000000000000000\n      dup2\n      mstore\n      0x04\n      add\n      tag_265\n      swap2\n      swap1\n      tag_65\n      jump\t// in\n    tag_265:\n      mload(0x40)\n      dup1\n      swap2\n      sub\n      swap1\n      revert\n        /* \"@openzeppelin/contracts/token/ERC721/ERC721.sol\":16263:16351  if (owner == address(0)) {... */\n    tag_264:\n        /* \"@openzeppelin/contracts/token/ERC721/ERC721.sol\":16367:16372  owner */\n      dup1\n        /* \"@openzeppelin/contracts/token/ERC721/ERC721.sol\":16360:16372  return owner */\n      swap2\n      pop\n      pop\n        /* \"@openzeppelin/contracts/token/ERC721/ERC721.sol\":16138:16379  function _requireOwned(uint256 tokenId) internal view returns (address) {... */\n      swap2\n      swap1\n      pop\n      jump\t// out\n        /* \"@openzeppelin/contracts/token/ERC721/ERC721.sol\":5938:6065  function _getApproved(uint256 tokenId) internal view virtual returns (address) {... */\n    tag_161:\n        /* \"@openzeppelin/contracts/token/ERC721/ERC721.sol\":6008:6015  address */\n      0x00\n        /* \"@openzeppelin/contracts/token/ERC721/ERC721.sol\":6034:6049  _tokenApprovals */\n      0x04\n        /* \"@openzeppelin/contracts/token/ERC721/ERC721.sol\":6034:6058  _tokenApprovals[tokenId] */\n      0x00\n        /* \"@openzeppelin/contracts/token/ERC721/ERC721.sol\":6050:6057  tokenId */\n      dup4\n        /* \"@openzeppelin/contracts/token/ERC721/ERC721.sol\":6034:6058  _tokenApprovals[tokenId] */\n      dup2\n      mstore\n      0x20\n      add\n      swap1\n      dup2\n      mstore\n      0x20\n      add\n      0x00\n      keccak256\n      0x00\n      swap1\n      sload\n      swap1\n      0x0100\n      exp\n      swap1\n      div\n      0xffffffffffffffffffffffffffffffffffffffff\n      and\n        /* \"@openzeppelin/contracts/token/ERC721/ERC721.sol\":6027:6058  return _tokenApprovals[tokenId] */\n      swap1\n      pop\n        /* \"@openzeppelin/contracts/token/ERC721/ERC721.sol\":5938:6065  function _getApproved(uint256 tokenId) internal view virtual returns (address) {... */\n      swap2\n      swap1\n      pop\n      jump\t// out\n        /* \"@openzeppelin/contracts/utils/Context.sol\":640:736  function _msgSender() internal view virtual returns (address) {... */\n    tag_165:\n        /* \"@openzeppelin/contracts/utils/Context.sol\":693:700  address */\n      0x00\n        /* \"@openzeppelin/contracts/utils/Context.sol\":719:729  msg.sender */\n      caller\n        /* \"@openzeppelin/contracts/utils/Context.sol\":712:729  return msg.sender */\n      swap1\n      pop\n        /* \"@openzeppelin/contracts/utils/Context.sol\":640:736  function _msgSender() internal view virtual returns (address) {... */\n      swap1\n      jump\t// out\n        /* \"@openzeppelin/contracts/token/ERC721/ERC721.sol\":14418:14538  function _approve(address to, uint256 tokenId, address auth) internal {... */\n    tag_166:\n        /* \"@openzeppelin/contracts/token/ERC721/ERC721.sol\":14498:14531  _approve(to, tokenId, auth, true) */\n      tag_269\n        /* \"@openzeppelin/contracts/token/ERC721/ERC721.sol\":14507:14509  to */\n      dup4\n        /* \"@openzeppelin/contracts/token/ERC721/ERC721.sol\":14511:14518  tokenId */\n      dup4\n        /* \"@openzeppelin/contracts/token/ERC721/ERC721.sol\":14520:14524  auth */\n      dup4\n        /* \"@openzeppelin/contracts/token/ERC721/ERC721.sol\":14526:14530  true */\n      0x01\n        /* \"@openzeppelin/contracts/token/ERC721/ERC721.sol\":14498:14506  _approve */\n      tag_270\n        /* \"@openzeppelin/contracts/token/ERC721/ERC721.sol\":14498:14531  _approve(to, tokenId, auth, true) */\n      jump\t// in\n    tag_269:\n        /* \"@openzeppelin/contracts/token/ERC721/ERC721.sol\":14418:14538  function _approve(address to, uint256 tokenId, address auth) internal {... */\n      pop\n      pop\n      pop\n      jump\t// out\n        /* \"@openzeppelin/contracts/token/ERC721/ERC721.sol\":8838:9633  function _update(address to, uint256 tokenId, address auth) internal virtual returns (address) {... */\n    tag_172:\n        /* \"@openzeppelin/contracts/token/ERC721/ERC721.sol\":8924:8931  address */\n      0x00\n        /* \"@openzeppelin/contracts/token/ERC721/ERC721.sol\":8943:8955  address from */\n      dup1\n        /* \"@openzeppelin/contracts/token/ERC721/ERC721.sol\":8958:8975  _ownerOf(tokenId) */\n      tag_272\n        /* \"@openzeppelin/contracts/token/ERC721/ERC721.sol\":8967:8974  tokenId */\n      dup5\n        /* \"@openzeppelin/contracts/token/ERC721/ERC721.sol\":8958:8966  _ownerOf */\n      tag_263\n        /* \"@openzeppelin/contracts/token/ERC721/ERC721.sol\":8958:8975  _ownerOf(tokenId) */\n      jump\t// in\n    tag_272:\n        /* \"@openzeppelin/contracts/token/ERC721/ERC721.sol\":8943:8975  address from = _ownerOf(tokenId) */\n      swap1\n      pop\n        /* \"@openzeppelin/contracts/token/ERC721/ERC721.sol\":9051:9052  0 */\n      0x00\n        /* \"@openzeppelin/contracts/token/ERC721/ERC721.sol\":9035:9053  auth != address(0) */\n      0xffffffffffffffffffffffffffffffffffffffff\n      and\n        /* \"@openzeppelin/contracts/token/ERC721/ERC721.sol\":9035:9039  auth */\n      dup4\n        /* \"@openzeppelin/contracts/token/ERC721/ERC721.sol\":9035:9053  auth != address(0) */\n      0xffffffffffffffffffffffffffffffffffffffff\n      and\n      eq\n        /* \"@openzeppelin/contracts/token/ERC721/ERC721.sol\":9031:9117  if (auth != address(0)) {... */\n      tag_273\n      jumpi\n        /* \"@openzeppelin/contracts/token/ERC721/ERC721.sol\":9069:9106  _checkAuthorized(from, auth, tokenId) */\n      tag_274\n        /* \"@openzeppelin/contracts/token/ERC721/ERC721.sol\":9086:9090  from */\n      dup2\n        /* \"@openzeppelin/contracts/token/ERC721/ERC721.sol\":9092:9096  auth */\n      dup5\n        /* \"@openzeppelin/contracts/token/ERC721/ERC721.sol\":9098:9105  tokenId */\n      dup7\n        /* \"@openzeppelin/contracts/token/ERC721/ERC721.sol\":9069:9085  _checkAuthorized */\n      tag_275\n        /* \"@openzeppelin/contracts/token/ERC721/ERC721.sol\":9069:9106  _checkAuthorized(from, auth, tokenId) */\n      jump\t// in\n    tag_274:\n        /* \"@openzeppelin/contracts/token/ERC721/ERC721.sol\":9031:9117  if (auth != address(0)) {... */\n    tag_273:\n        /* \"@openzeppelin/contracts/token/ERC721/ERC721.sol\":9177:9178  0 */\n      0x00\n        /* \"@openzeppelin/contracts/token/ERC721/ERC721.sol\":9161:9179  from != address(0) */\n      0xffffffffffffffffffffffffffffffffffffffff\n      and\n        /* \"@openzeppelin/contracts/token/ERC721/ERC721.sol\":9161:9165  from */\n      dup2\n        /* \"@openzeppelin/contracts/token/ERC721/ERC721.sol\":9161:9179  from != address(0) */\n      0xffffffffffffffffffffffffffffffffffffffff\n      and\n      eq\n        /* \"@openzeppelin/contracts/token/ERC721/ERC721.sol\":9157:9413  if (from != address(0)) {... */\n      tag_276\n      jumpi\n        /* \"@openzeppelin/contracts/token/ERC721/ERC721.sol\":9277:9325  _approve(address(0), tokenId, address(0), false) */\n      tag_277\n        /* \"@openzeppelin/contracts/token/ERC721/ERC721.sol\":9294:9295  0 */\n      0x00\n        /* \"@openzeppelin/contracts/token/ERC721/ERC721.sol\":9298:9305  tokenId */\n      dup6\n        /* \"@openzeppelin/contracts/token/ERC721/ERC721.sol\":9315:9316  0 */\n      0x00\n        /* \"@openzeppelin/contracts/token/ERC721/ERC721.sol\":9319:9324  false */\n      dup1\n        /* \"@openzeppelin/contracts/token/ERC721/ERC721.sol\":9277:9285  _approve */\n      tag_270\n        /* \"@openzeppelin/contracts/token/ERC721/ERC721.sol\":9277:9325  _approve(address(0), tokenId, address(0), false) */\n      jump\t// in\n    tag_277:\n        /* \"@openzeppelin/contracts/token/ERC721/ERC721.sol\":9387:9388  1 */\n      0x01\n        /* \"@openzeppelin/contracts/token/ERC721/ERC721.sol\":9368:9377  _balances */\n      0x03\n        /* \"@openzeppelin/contracts/token/ERC721/ERC721.sol\":9368:9383  _balances[from] */\n      0x00\n        /* \"@openzeppelin/contracts/token/ERC721/ERC721.sol\":9378:9382  from */\n      dup4\n        /* \"@openzeppelin/contracts/token/ERC721/ERC721.sol\":9368:9383  _balances[from] */\n      0xffffffffffffffffffffffffffffffffffffffff\n      and\n      0xffffffffffffffffffffffffffffffffffffffff\n      and\n      dup2\n      mstore\n      0x20\n      add\n      swap1\n      dup2\n      mstore\n      0x20\n      add\n      0x00\n      keccak256\n      0x00\n        /* \"@openzeppelin/contracts/token/ERC721/ERC721.sol\":9368:9388  _balances[from] -= 1 */\n      dup3\n      dup3\n      sload\n      sub\n      swap3\n      pop\n      pop\n      dup2\n      swap1\n      sstore\n      pop\n        /* \"@openzeppelin/contracts/token/ERC721/ERC721.sol\":9157:9413  if (from != address(0)) {... */\n    tag_276:\n        /* \"@openzeppelin/contracts/token/ERC721/ERC721.sol\":9441:9442  0 */\n      0x00\n        /* \"@openzeppelin/contracts/token/ERC721/ERC721.sol\":9427:9443  to != address(0) */\n      0xffffffffffffffffffffffffffffffffffffffff\n      and\n        /* \"@openzeppelin/contracts/token/ERC721/ERC721.sol\":9427:9429  to */\n      dup6\n        /* \"@openzeppelin/contracts/token/ERC721/ERC721.sol\":9427:9443  to != address(0) */\n      0xffffffffffffffffffffffffffffffffffffffff\n      and\n      eq\n        /* \"@openzeppelin/contracts/token/ERC721/ERC721.sol\":9423:9530  if (to != address(0)) {... */\n      tag_278\n      jumpi\n        /* \"@openzeppelin/contracts/token/ERC721/ERC721.sol\":9504:9505  1 */\n      0x01\n        /* \"@openzeppelin/contracts/token/ERC721/ERC721.sol\":9487:9496  _balances */\n      0x03\n        /* \"@openzeppelin/contracts/token/ERC721/ERC721.sol\":9487:9500  _balances[to] */\n      0x00\n        /* \"@openzeppelin/contracts/token/ERC721/ERC721.sol\":9497:9499  to */\n      dup8\n        /* \"@openzeppelin/contracts/token/ERC721/ERC721.sol\":9487:9500  _balances[to] */\n      0xffffffffffffffffffffffffffffffffffffffff\n      and\n      0xffffffffffffffffffffffffffffffffffffffff\n      and\n      dup2\n      mstore\n      0x20\n      add\n      swap1\n      dup2\n      mstore\n      0x20\n      add\n      0x00\n      keccak256\n      0x00\n        /* \"@openzeppelin/contracts/token/ERC721/ERC721.sol\":9487:9505  _balances[to] += 1 */\n      dup3\n      dup3\n      sload\n      add\n      swap3\n      pop\n      pop\n      dup2\n      swap1\n      sstore\n      pop\n        /* \"@openzeppelin/contracts/token/ERC721/ERC721.sol\":9423:9530  if (to != address(0)) {... */\n    tag_278:\n        /* \"@openzeppelin/contracts/token/ERC721/ERC721.sol\":9559:9561  to */\n      dup5\n        /* \"@openzeppelin/contracts/token/ERC721/ERC721.sol\":9540:9547  _owners */\n      0x02\n        /* \"@openzeppelin/contracts/token/ERC721/ERC721.sol\":9540:9556  _owners[tokenId] */\n      0x00\n        /* \"@openzeppelin/contracts/token/ERC721/ERC721.sol\":9548:9555  tokenId */\n      dup7\n        /* \"@openzeppelin/contracts/token/ERC721/ERC721.sol\":9540:9556  _owners[tokenId] */\n      dup2\n      mstore\n      0x20\n      add\n      swap1\n      dup2\n      mstore\n      0x20\n      add\n      0x00\n      keccak256\n      0x00\n        /* \"@openzeppelin/contracts/token/ERC721/ERC721.sol\":9540:9561  _owners[tokenId] = to */\n      0x0100\n      exp\n      dup2\n      sload\n      dup2\n      0xffffffffffffffffffffffffffffffffffffffff\n      mul\n      not\n      and\n      swap1\n      dup4\n      0xffffffffffffffffffffffffffffffffffffffff\n      and\n      mul\n      or\n      swap1\n      sstore\n      pop\n        /* \"@openzeppelin/contracts/token/ERC721/ERC721.sol\":9596:9603  tokenId */\n      dup4\n        /* \"@openzeppelin/contracts/token/ERC721/ERC721.sol\":9592:9594  to */\n      dup6\n        /* \"@openzeppelin/contracts/token/ERC721/ERC721.sol\":9577:9604  Transfer(from, to, tokenId) */\n      0xffffffffffffffffffffffffffffffffffffffff\n      and\n        /* \"@openzeppelin/contracts/token/ERC721/ERC721.sol\":9586:9590  from */\n      dup3\n        /* \"@openzeppelin/contracts/token/ERC721/ERC721.sol\":9577:9604  Transfer(from, to, tokenId) */\n      0xffffffffffffffffffffffffffffffffffffffff\n      and\n      0xddf252ad1be2c89b69c2b068fc378daa952ba7f163c4a11628f55a4df523b3ef\n      mload(0x40)\n      mload(0x40)\n      dup1\n      swap2\n      sub\n      swap1\n      log4\n        /* \"@openzeppelin/contracts/token/ERC721/ERC721.sol\":9622:9626  from */\n      dup1\n        /* \"@openzeppelin/contracts/token/ERC721/ERC721.sol\":9615:9626  return from */\n      swap2\n      pop\n      pop\n        /* \"@openzeppelin/contracts/token/ERC721/ERC721.sol\":8838:9633  function _update(address to, uint256 tokenId, address auth) internal virtual returns (address) {... */\n      swap4\n      swap3\n      pop\n      pop\n      pop\n      jump\t// out\n        /* \"@openzeppelin/contracts/access/Ownable.sol\":1359:1489  function _checkOwner() internal view virtual {... */\n    tag_185:\n        /* \"@openzeppelin/contracts/access/Ownable.sol\":1433:1445  _msgSender() */\n      tag_280\n        /* \"@openzeppelin/contracts/access/Ownable.sol\":1433:1443  _msgSender */\n      tag_165\n        /* \"@openzeppelin/contracts/access/Ownable.sol\":1433:1445  _msgSender() */\n      jump\t// in\n    tag_280:\n        /* \"@openzeppelin/contracts/access/Ownable.sol\":1422:1445  owner() == _msgSender() */\n      0xffffffffffffffffffffffffffffffffffffffff\n      and\n        /* \"@openzeppelin/contracts/access/Ownable.sol\":1422:1429  owner() */\n      tag_281\n        /* \"@openzeppelin/contracts/access/Ownable.sol\":1422:1427  owner */\n      tag_85\n        /* \"@openzeppelin/contracts/access/Ownable.sol\":1422:1429  owner() */\n      jump\t// in\n    tag_281:\n        /* \"@openzeppelin/contracts/access/Ownable.sol\":1422:1445  owner() == _msgSender() */\n      0xffffffffffffffffffffffffffffffffffffffff\n      and\n      eq\n        /* \"@openzeppelin/contracts/access/Ownable.sol\":1414:1482  require(owner() == _msgSender(), \"Ownable: caller is not the owner\") */\n      tag_282\n      jumpi\n      mload(0x40)\n      0x08c379a000000000000000000000000000000000000000000000000000000000\n      dup2\n      mstore\n      0x04\n      add\n      tag_283\n      swap1\n      tag_284\n      jump\t// in\n    tag_283:\n      mload(0x40)\n      dup1\n      swap2\n      sub\n      swap1\n      revert\n    tag_282:\n        /* \"@openzeppelin/contracts/access/Ownable.sol\":1359:1489  function _checkOwner() internal view virtual {... */\n      jump\t// out\n        /* \"@openzeppelin/contracts/access/Ownable.sol\":2426:2613  function _transferOwnership(address newOwner) internal virtual {... */\n    tag_188:\n        /* \"@openzeppelin/contracts/access/Ownable.sol\":2499:2515  address oldOwner */\n      0x00\n        /* \"@openzeppelin/contracts/access/Ownable.sol\":2518:2524  _owner */\n      0x06\n      0x00\n      swap1\n      sload\n      swap1\n      0x0100\n      exp\n      swap1\n      div\n      0xffffffffffffffffffffffffffffffffffffffff\n      and\n        /* \"@openzeppelin/contracts/access/Ownable.sol\":2499:2524  address oldOwner = _owner */\n      swap1\n      pop\n        /* \"@openzeppelin/contracts/access/Ownable.sol\":2543:2551  newOwner */\n      dup2\n        /* \"@openzeppelin/contracts/access/Ownable.sol\":2534:2540  _owner */\n      0x06\n      0x00\n        /* \"@openzeppelin/contracts/access/Ownable.sol\":2534:2551  _owner = newOwner */\n      0x0100\n      exp\n      dup2\n      sload\n      dup2\n      0xffffffffffffffffffffffffffffffffffffffff\n      mul\n      not\n      and\n      swap1\n      dup4\n      0xffffffffffffffffffffffffffffffffffffffff\n      and\n      mul\n      or\n      swap1\n      sstore\n      pop\n        /* \"@openzeppelin/contracts/access/Ownable.sol\":2597:2605  newOwner */\n      dup2\n        /* \"@openzeppelin/contracts/access/Ownable.sol\":2566:2606  OwnershipTransferred(oldOwner, newOwner) */\n      0xffffffffffffffffffffffffffffffffffffffff\n      and\n        /* \"@openzeppelin/contracts/access/Ownable.sol\":2587:2595  oldOwner */\n      dup2\n        /* \"@openzeppelin/contracts/access/Ownable.sol\":2566:2606  OwnershipTransferred(oldOwner, newOwner) */\n      0xffffffffffffffffffffffffffffffffffffffff\n      and\n      0x8be0079c531659141344cd1fd0a4f28419497f9722a3daafe3b4186f6b6457e0\n      mload(0x40)\n      mload(0x40)\n      dup1\n      swap2\n      sub\n      swap1\n      log3\n        /* \"@openzeppelin/contracts/access/Ownable.sol\":2489:2613  {... */\n      pop\n        /* \"@openzeppelin/contracts/access/Ownable.sol\":2426:2613  function _transferOwnership(address newOwner) internal virtual {... */\n      pop\n      jump\t// out\n        /* \"@openzeppelin/contracts/utils/Counters.sol\":827:939  function current(Counter storage counter) internal view returns (uint256) {... */\n    tag_210:\n        /* \"@openzeppelin/contracts/utils/Counters.sol\":892:899  uint256 */\n      0x00\n        /* \"@openzeppelin/contracts/utils/Counters.sol\":918:925  counter */\n      dup2\n        /* \"@openzeppelin/contracts/utils/Counters.sol\":918:932  counter._value */\n      0x00\n      add\n      sload\n        /* \"@openzeppelin/contracts/utils/Counters.sol\":911:932  return counter._value */\n      swap1\n      pop\n        /* \"@openzeppelin/contracts/utils/Counters.sol\":827:939  function current(Counter storage counter) internal view returns (uint256) {... */\n      swap2\n      swap1\n      pop\n      jump\t// out\n        /* \"@openzeppelin/contracts/token/ERC721/ERC721.sol\":10633:10733  function _safeMint(address to, uint256 tokenId) internal {... */\n    tag_212:\n        /* \"@openzeppelin/contracts/token/ERC721/ERC721.sol\":10700:10726  _safeMint(to, tokenId, \"\") */\n      tag_288\n        /* \"@openzeppelin/contracts/token/ERC721/ERC721.sol\":10710:10712  to */\n      dup3\n        /* \"@openzeppelin/contracts/token/ERC721/ERC721.sol\":10714:10721  tokenId */\n      dup3\n        /* \"@openzeppelin/contracts/token/ERC721/ERC721.sol\":10700:10726  _safeMint(to, tokenId, \"\") */\n      mload(0x40)\n      dup1\n      0x20\n      add\n      0x40\n      mstore\n      dup1\n      0x00\n      dup2\n      mstore\n      pop\n        /* \"@openzeppelin/contracts/token/ERC721/ERC721.sol\":10700:10709  _safeMint */\n      tag_289\n        /* \"@openzeppelin/contracts/token/ERC721/ERC721.sol\":10700:10726  _safeMint(to, tokenId, \"\") */\n      jump\t// in\n    tag_288:\n        /* \"@openzeppelin/contracts/token/ERC721/ERC721.sol\":10633:10733  function _safeMint(address to, uint256 tokenId) internal {... */\n      pop\n      pop\n      jump\t// out\n        /* \"@openzeppelin/contracts/utils/Counters.sol\":945:1068  function increment(Counter storage counter) internal {... */\n    tag_214:\n        /* \"@openzeppelin/contracts/utils/Counters.sol\":1050:1051  1 */\n      0x01\n        /* \"@openzeppelin/contracts/utils/Counters.sol\":1032:1039  counter */\n      dup2\n        /* \"@openzeppelin/contracts/utils/Counters.sol\":1032:1046  counter._value */\n      0x00\n      add\n      0x00\n        /* \"@openzeppelin/contracts/utils/Counters.sol\":1032:1051  counter._value += 1 */\n      dup3\n      dup3\n      sload\n      add\n      swap3\n      pop\n      pop\n      dup2\n      swap1\n      sstore\n      pop\n        /* \"@openzeppelin/contracts/utils/Counters.sol\":945:1068  function increment(Counter storage counter) internal {... */\n      pop\n      jump\t// out\n        /* \"@openzeppelin/contracts/token/ERC721/ERC721.sol\":15591:15903  function _setApprovalForAll(address owner, address operator, bool approved) internal virtual {... */\n    tag_228:\n        /* \"@openzeppelin/contracts/token/ERC721/ERC721.sol\":15718:15719  0 */\n      0x00\n        /* \"@openzeppelin/contracts/token/ERC721/ERC721.sol\":15698:15720  operator == address(0) */\n      0xffffffffffffffffffffffffffffffffffffffff\n      and\n        /* \"@openzeppelin/contracts/token/ERC721/ERC721.sol\":15698:15706  operator */\n      dup3\n        /* \"@openzeppelin/contracts/token/ERC721/ERC721.sol\":15698:15720  operator == address(0) */\n      0xffffffffffffffffffffffffffffffffffffffff\n      and\n      sub\n        /* \"@openzeppelin/contracts/token/ERC721/ERC721.sol\":15694:15785  if (operator == address(0)) {... */\n      tag_292\n      jumpi\n        /* \"@openzeppelin/contracts/token/ERC721/ERC721.sol\":15765:15773  operator */\n      dup2\n        /* \"@openzeppelin/contracts/token/ERC721/ERC721.sol\":15743:15774  ERC721InvalidOperator(operator) */\n      mload(0x40)\n      0x5b08ba1800000000000000000000000000000000000000000000000000000000\n      dup2\n      mstore\n      0x04\n      add\n      tag_293\n      swap2\n      swap1\n      tag_50\n      jump\t// in\n    tag_293:\n      mload(0x40)\n      dup1\n      swap2\n      sub\n      swap1\n      revert\n        /* \"@openzeppelin/contracts/token/ERC721/ERC721.sol\":15694:15785  if (operator == address(0)) {... */\n    tag_292:\n        /* \"@openzeppelin/contracts/token/ERC721/ERC721.sol\":15832:15840  approved */\n      dup1\n        /* \"@openzeppelin/contracts/token/ERC721/ERC721.sol\":15794:15812  _operatorApprovals */\n      0x05\n        /* \"@openzeppelin/contracts/token/ERC721/ERC721.sol\":15794:15819  _operatorApprovals[owner] */\n      0x00\n        /* \"@openzeppelin/contracts/token/ERC721/ERC721.sol\":15813:15818  owner */\n      dup6\n        /* \"@openzeppelin/contracts/token/ERC721/ERC721.sol\":15794:15819  _operatorApprovals[owner] */\n      0xffffffffffffffffffffffffffffffffffffffff\n      and\n      0xffffffffffffffffffffffffffffffffffffffff\n      and\n      dup2\n      mstore\n      0x20\n      add\n      swap1\n      dup2\n      mstore\n      0x20\n      add\n      0x00\n      keccak256\n        /* \"@openzeppelin/contracts/token/ERC721/ERC721.sol\":15794:15829  _operatorApprovals[owner][operator] */\n      0x00\n        /* \"@openzeppelin/contracts/token/ERC721/ERC721.sol\":15820:15828  operator */\n      dup5\n        /* \"@openzeppelin/contracts/token/ERC721/ERC721.sol\":15794:15829  _operatorApprovals[owner][operator] */\n      0xffffffffffffffffffffffffffffffffffffffff\n      and\n      0xffffffffffffffffffffffffffffffffffffffff\n      and\n      dup2\n      mstore\n      0x20\n      add\n      swap1\n      dup2\n      mstore\n      0x20\n      add\n      0x00\n      keccak256\n      0x00\n        /* \"@openzeppelin/contracts/token/ERC721/ERC721.sol\":15794:15840  _operatorApprovals[owner][operator] = approved */\n      0x0100\n      exp\n      dup2\n      sload\n      dup2\n      0xff\n      mul\n      not\n      and\n      swap1\n      dup4\n      iszero\n      iszero\n      mul\n      or\n      swap1\n      sstore\n      pop\n        /* \"@openzeppelin/contracts/token/ERC721/ERC721.sol\":15877:15885  operator */\n      dup2\n        /* \"@openzeppelin/contracts/token/ERC721/ERC721.sol\":15855:15896  ApprovalForAll(owner, operator, approved) */\n      0xffffffffffffffffffffffffffffffffffffffff\n      and\n        /* \"@openzeppelin/contracts/token/ERC721/ERC721.sol\":15870:15875  owner */\n      dup4\n        /* \"@openzeppelin/contracts/token/ERC721/ERC721.sol\":15855:15896  ApprovalForAll(owner, operator, approved) */\n      0xffffffffffffffffffffffffffffffffffffffff\n      and\n      0x17307eab39ab6107e8899845ad3d59bd9653f200f220920489ca2b5937696c31\n        /* \"@openzeppelin/contracts/token/ERC721/ERC721.sol\":15887:15895  approved */\n      dup4\n        /* \"@openzeppelin/contracts/token/ERC721/ERC721.sol\":15855:15896  ApprovalForAll(owner, operator, approved) */\n      mload(0x40)\n      tag_294\n      swap2\n      swap1\n      tag_40\n      jump\t// in\n    tag_294:\n      mload(0x40)\n      dup1\n      swap2\n      sub\n      swap1\n      log3\n        /* \"@openzeppelin/contracts/token/ERC721/ERC721.sol\":15591:15903  function _setApprovalForAll(address owner, address operator, bool approved) internal virtual {... */\n      pop\n      pop\n      pop\n      jump\t// out\n        /* \"@openzeppelin/contracts/token/ERC721/ERC721.sol\":16918:17700  function _checkOnERC721Received(address from, address to, uint256 tokenId, bytes memory data) private {... */\n    tag_239:\n        /* \"@openzeppelin/contracts/token/ERC721/ERC721.sol\":17051:17052  0 */\n      0x00\n        /* \"@openzeppelin/contracts/token/ERC721/ERC721.sol\":17034:17036  to */\n      dup4\n        /* \"@openzeppelin/contracts/token/ERC721/ERC721.sol\":17034:17048  to.code.length */\n      0xffffffffffffffffffffffffffffffffffffffff\n      and\n      extcodesize\n        /* \"@openzeppelin/contracts/token/ERC721/ERC721.sol\":17034:17052  to.code.length > 0 */\n      gt\n        /* \"@openzeppelin/contracts/token/ERC721/ERC721.sol\":17030:17694  if (to.code.length > 0) {... */\n      iszero\n      tag_296\n      jumpi\n        /* \"@openzeppelin/contracts/token/ERC721/ERC721.sol\":17088:17090  to */\n      dup3\n        /* \"@openzeppelin/contracts/token/ERC721/ERC721.sol\":17072:17108  IERC721Receiver(to).onERC721Received */\n      0xffffffffffffffffffffffffffffffffffffffff\n      and\n      0x150b7a02\n        /* \"@openzeppelin/contracts/token/ERC721/ERC721.sol\":17109:17121  _msgSender() */\n      tag_297\n        /* \"@openzeppelin/contracts/token/ERC721/ERC721.sol\":17109:17119  _msgSender */\n      tag_165\n        /* \"@openzeppelin/contracts/token/ERC721/ERC721.sol\":17109:17121  _msgSender() */\n      jump\t// in\n    tag_297:\n        /* \"@openzeppelin/contracts/token/ERC721/ERC721.sol\":17123:17127  from */\n      dup7\n        /* \"@openzeppelin/contracts/token/ERC721/ERC721.sol\":17129:17136  tokenId */\n      dup6\n        /* \"@openzeppelin/contracts/token/ERC721/ERC721.sol\":17138:17142  data */\n      dup6\n        /* \"@openzeppelin/contracts/token/ERC721/ERC721.sol\":17072:17143  IERC721Receiver(to).onERC721Received(_msgSender(), from, tokenId, data) */\n      mload(0x40)\n      dup6\n      0xffffffff\n      and\n      0xe0\n      shl\n      dup2\n      mstore\n      0x04\n      add\n      tag_298\n      swap5\n      swap4\n      swap3\n      swap2\n      swap1\n      tag_299\n      jump\t// in\n    tag_298:\n      0x20\n      mload(0x40)\n      dup1\n      dup4\n      sub\n      dup2\n      0x00\n      dup8\n      gas\n      call\n      swap3\n      pop\n      pop\n      pop\n      dup1\n      iszero\n      tag_300\n      jumpi\n      pop\n      mload(0x40)\n      returndatasize\n      not(0x1f)\n      0x1f\n      dup3\n      add\n      and\n      dup3\n      add\n      dup1\n      0x40\n      mstore\n      pop\n      dup2\n      add\n      swap1\n      tag_301\n      swap2\n      swap1\n      tag_302\n      jump\t// in\n    tag_301:\n      0x01\n    tag_300:\n        /* \"@openzeppelin/contracts/token/ERC721/ERC721.sol\":17068:17684  try IERC721Receiver(to).onERC721Received(_msgSender(), from, tokenId, data) returns (bytes4 retval) {... */\n      tag_303\n      jumpi\n      returndatasize\n      dup1\n      0x00\n      dup2\n      eq\n      tag_308\n      jumpi\n      mload(0x40)\n      swap2\n      pop\n      and(add(returndatasize, 0x3f), not(0x1f))\n      dup3\n      add\n      0x40\n      mstore\n      returndatasize\n      dup3\n      mstore\n      returndatasize\n      0x00\n      0x20\n      dup5\n      add\n      returndatacopy\n      jump(tag_307)\n    tag_308:\n      0x60\n      swap2\n      pop\n    tag_307:\n      pop\n        /* \"@openzeppelin/contracts/token/ERC721/ERC721.sol\":17398:17399  0 */\n      0x00\n        /* \"@openzeppelin/contracts/token/ERC721/ERC721.sol\":17381:17387  reason */\n      dup2\n        /* \"@openzeppelin/contracts/token/ERC721/ERC721.sol\":17381:17394  reason.length */\n      mload\n        /* \"@openzeppelin/contracts/token/ERC721/ERC721.sol\":17381:17399  reason.length == 0 */\n      sub\n        /* \"@openzeppelin/contracts/token/ERC721/ERC721.sol\":17377:17670  if (reason.length == 0) {... */\n      tag_309\n      jumpi\n        /* \"@openzeppelin/contracts/token/ERC721/ERC721.sol\":17452:17454  to */\n      dup4\n        /* \"@openzeppelin/contracts/token/ERC721/ERC721.sol\":17430:17455  ERC721InvalidReceiver(to) */\n      mload(0x40)\n      0x64a0ae9200000000000000000000000000000000000000000000000000000000\n      dup2\n      mstore\n      0x04\n      add\n      tag_310\n      swap2\n      swap1\n      tag_50\n      jump\t// in\n    tag_310:\n      mload(0x40)\n      dup1\n      swap2\n      sub\n      swap1\n      revert\n        /* \"@openzeppelin/contracts/token/ERC721/ERC721.sol\":17377:17670  if (reason.length == 0) {... */\n    tag_309:\n        /* \"@openzeppelin/contracts/token/ERC721/ERC721.sol\":17622:17628  reason */\n      dup1\n        /* \"@openzeppelin/contracts/token/ERC721/ERC721.sol\":17616:17629  mload(reason) */\n      mload\n        /* \"@openzeppelin/contracts/token/ERC721/ERC721.sol\":17607:17613  reason */\n      dup2\n        /* \"@openzeppelin/contracts/token/ERC721/ERC721.sol\":17603:17605  32 */\n      0x20\n        /* \"@openzeppelin/contracts/token/ERC721/ERC721.sol\":17599:17614  add(32, reason) */\n      add\n        /* \"@openzeppelin/contracts/token/ERC721/ERC721.sol\":17592:17630  revert(add(32, reason), mload(reason)) */\n      revert\n        /* \"@openzeppelin/contracts/token/ERC721/ERC721.sol\":17068:17684  try IERC721Receiver(to).onERC721Received(_msgSender(), from, tokenId, data) returns (bytes4 retval) {... */\n    tag_303:\n        /* \"@openzeppelin/contracts/token/ERC721/ERC721.sol\":17200:17241  IERC721Receiver.onERC721Received.selector */\n      shl(0xe0, 0x150b7a02)\n        /* \"@openzeppelin/contracts/token/ERC721/ERC721.sol\":17190:17241  retval != IERC721Receiver.onERC721Received.selector */\n      not(0xffffffffffffffffffffffffffffffffffffffffffffffffffffffff)\n      and\n        /* \"@openzeppelin/contracts/token/ERC721/ERC721.sol\":17190:17196  retval */\n      dup2\n        /* \"@openzeppelin/contracts/token/ERC721/ERC721.sol\":17190:17241  retval != IERC721Receiver.onERC721Received.selector */\n      not(0xffffffffffffffffffffffffffffffffffffffffffffffffffffffff)\n      and\n      eq\n        /* \"@openzeppelin/contracts/token/ERC721/ERC721.sol\":17186:17316  if (retval != IERC721Receiver.onERC721Received.selector) {... */\n      tag_313\n      jumpi\n        /* \"@openzeppelin/contracts/token/ERC721/ERC721.sol\":17294:17296  to */\n      dup4\n        /* \"@openzeppelin/contracts/token/ERC721/ERC721.sol\":17272:17297  ERC721InvalidReceiver(to) */\n      mload(0x40)\n      0x64a0ae9200000000000000000000000000000000000000000000000000000000\n      dup2\n      mstore\n      0x04\n      add\n      tag_314\n      swap2\n      swap1\n      tag_50\n      jump\t// in\n    tag_314:\n      mload(0x40)\n      dup1\n      swap2\n      sub\n      swap1\n      revert\n        /* \"@openzeppelin/contracts/token/ERC721/ERC721.sol\":17186:17316  if (retval != IERC721Receiver.onERC721Received.selector) {... */\n    tag_313:\n        /* \"@openzeppelin/contracts/token/ERC721/ERC721.sol\":17144:17330  returns (bytes4 retval) {... */\n      pop\n        /* \"@openzeppelin/contracts/token/ERC721/ERC721.sol\":17030:17694  if (to.code.length > 0) {... */\n    tag_296:\n        /* \"@openzeppelin/contracts/token/ERC721/ERC721.sol\":16918:17700  function _checkOnERC721Received(address from, address to, uint256 tokenId, bytes memory data) private {... */\n      pop\n      pop\n      pop\n      pop\n      jump\t// out\n        /* \"@openzeppelin/contracts/token/ERC721/ERC721.sol\":3174:3266  function _baseURI() internal view virtual returns (string memory) {... */\n    tag_243:\n        /* \"@openzeppelin/contracts/token/ERC721/ERC721.sol\":3225:3238  string memory */\n      0x60\n        /* \"@openzeppelin/contracts/token/ERC721/ERC721.sol\":3250:3259  return \"\" */\n      mload(0x40)\n      dup1\n      0x20\n      add\n      0x40\n      mstore\n      dup1\n      0x00\n      dup2\n      mstore\n      pop\n      swap1\n      pop\n        /* \"@openzeppelin/contracts/token/ERC721/ERC721.sol\":3174:3266  function _baseURI() internal view virtual returns (string memory) {... */\n      swap1\n      jump\t// out\n        /* \"@openzeppelin/contracts/utils/Strings.sol\":637:1335  function toString(uint256 value) internal pure returns (string memory) {... */\n    tag_247:\n        /* \"@openzeppelin/contracts/utils/Strings.sol\":693:706  string memory */\n      0x60\n        /* \"@openzeppelin/contracts/utils/Strings.sol\":742:756  uint256 length */\n      0x00\n        /* \"@openzeppelin/contracts/utils/Strings.sol\":779:780  1 */\n      0x01\n        /* \"@openzeppelin/contracts/utils/Strings.sol\":759:776  Math.log10(value) */\n      tag_317\n        /* \"@openzeppelin/contracts/utils/Strings.sol\":770:775  value */\n      dup5\n        /* \"@openzeppelin/contracts/utils/Strings.sol\":759:769  Math.log10 */\n      tag_318\n        /* \"@openzeppelin/contracts/utils/Strings.sol\":759:776  Math.log10(value) */\n      jump\t// in\n    tag_317:\n        /* \"@openzeppelin/contracts/utils/Strings.sol\":759:780  Math.log10(value) + 1 */\n      add\n        /* \"@openzeppelin/contracts/utils/Strings.sol\":742:780  uint256 length = Math.log10(value) + 1 */\n      swap1\n      pop\n        /* \"@openzeppelin/contracts/utils/Strings.sol\":794:814  string memory buffer */\n      0x00\n        /* \"@openzeppelin/contracts/utils/Strings.sol\":828:834  length */\n      dup2\n        /* \"@openzeppelin/contracts/utils/Strings.sol\":817:835  new string(length) */\n      0xffffffffffffffff\n      dup2\n      gt\n      iszero\n      tag_319\n      jumpi\n      tag_320\n      tag_127\n      jump\t// in\n    tag_320:\n    tag_319:\n      mload(0x40)\n      swap1\n      dup1\n      dup3\n      mstore\n      dup1\n      0x1f\n      add\n      not(0x1f)\n      and\n      0x20\n      add\n      dup3\n      add\n      0x40\n      mstore\n      dup1\n      iszero\n      tag_321\n      jumpi\n      dup2\n      0x20\n      add\n      0x01\n      dup3\n      mul\n      dup1\n      calldatasize\n      dup4\n      calldatacopy\n      dup1\n      dup3\n      add\n      swap2\n      pop\n      pop\n      swap1\n      pop\n    tag_321:\n      pop\n        /* \"@openzeppelin/contracts/utils/Strings.sol\":794:835  string memory buffer = new string(length) */\n      swap1\n      pop\n        /* \"@openzeppelin/contracts/utils/Strings.sol\":849:860  uint256 ptr */\n      0x00\n        /* \"@openzeppelin/contracts/utils/Strings.sol\":975:981  length */\n      dup3\n        /* \"@openzeppelin/contracts/utils/Strings.sol\":971:973  32 */\n      0x20\n        /* \"@openzeppelin/contracts/utils/Strings.sol\":967:982  add(32, length) */\n      add\n        /* \"@openzeppelin/contracts/utils/Strings.sol\":959:965  buffer */\n      dup3\n        /* \"@openzeppelin/contracts/utils/Strings.sol\":955:983  add(buffer, add(32, length)) */\n      add\n        /* \"@openzeppelin/contracts/utils/Strings.sol\":948:983  ptr := add(buffer, add(32, length)) */\n      swap1\n      pop\n        /* \"@openzeppelin/contracts/utils/Strings.sol\":1010:1292  while (true) {... */\n    tag_322:\n        /* \"@openzeppelin/contracts/utils/Strings.sol\":1017:1021  true */\n      0x01\n        /* \"@openzeppelin/contracts/utils/Strings.sol\":1010:1292  while (true) {... */\n      iszero\n      tag_323\n      jumpi\n        /* \"@openzeppelin/contracts/utils/Strings.sol\":1041:1046  ptr-- */\n      dup1\n      dup1\n      0x01\n      swap1\n      sub\n      swap2\n      pop\n      pop\n        /* \"@openzeppelin/contracts/utils/Strings.sol\":1180:1190  HEX_DIGITS */\n      0x3031323334353637383961626364656600000000000000000000000000000000\n        /* \"@openzeppelin/contracts/utils/Strings.sol\":1175:1177  10 */\n      0x0a\n        /* \"@openzeppelin/contracts/utils/Strings.sol\":1168:1173  value */\n      dup7\n        /* \"@openzeppelin/contracts/utils/Strings.sol\":1164:1178  mod(value, 10) */\n      mod\n        /* \"@openzeppelin/contracts/utils/Strings.sol\":1159:1191  byte(mod(value, 10), HEX_DIGITS) */\n      byte\n        /* \"@openzeppelin/contracts/utils/Strings.sol\":1154:1157  ptr */\n      dup2\n        /* \"@openzeppelin/contracts/utils/Strings.sol\":1146:1192  mstore8(ptr, byte(mod(value, 10), HEX_DIGITS)) */\n      mstore8\n        /* \"@openzeppelin/contracts/utils/Strings.sol\":1236:1238  10 */\n      0x0a\n        /* \"@openzeppelin/contracts/utils/Strings.sol\":1227:1238  value /= 10 */\n      dup6\n      dup2\n      tag_324\n      jumpi\n      tag_325\n      tag_326\n      jump\t// in\n    tag_325:\n    tag_324:\n      div\n      swap5\n      pop\n        /* \"@openzeppelin/contracts/utils/Strings.sol\":1269:1270  0 */\n      0x00\n        /* \"@openzeppelin/contracts/utils/Strings.sol\":1260:1265  value */\n      dup6\n        /* \"@openzeppelin/contracts/utils/Strings.sol\":1260:1270  value == 0 */\n      sub\n        /* \"@openzeppelin/contracts/utils/Strings.sol\":1010:1292  while (true) {... */\n      tag_322\n        /* \"@openzeppelin/contracts/utils/Strings.sol\":1256:1277  if (value == 0) break */\n      jumpi\n        /* \"@openzeppelin/contracts/utils/Strings.sol\":1010:1292  while (true) {... */\n    tag_323:\n        /* \"@openzeppelin/contracts/utils/Strings.sol\":1312:1318  buffer */\n      dup2\n        /* \"@openzeppelin/contracts/utils/Strings.sol\":1305:1318  return buffer */\n      swap4\n      pop\n      pop\n      pop\n      pop\n        /* \"@openzeppelin/contracts/utils/Strings.sol\":637:1335  function toString(uint256 value) internal pure returns (string memory) {... */\n      swap2\n      swap1\n      pop\n      jump\t// out\n        /* \"@openzeppelin/contracts/token/ERC721/ERC721.sol\":5707:5822  function _ownerOf(uint256 tokenId) internal view virtual returns (address) {... */\n    tag_263:\n        /* \"@openzeppelin/contracts/token/ERC721/ERC721.sol\":5773:5780  address */\n      0x00\n        /* \"@openzeppelin/contracts/token/ERC721/ERC721.sol\":5799:5806  _owners */\n      0x02\n        /* \"@openzeppelin/contracts/token/ERC721/ERC721.sol\":5799:5815  _owners[tokenId] */\n      0x00\n        /* \"@openzeppelin/contracts/token/ERC721/ERC721.sol\":5807:5814  tokenId */\n      dup4\n        /* \"@openzeppelin/contracts/token/ERC721/ERC721.sol\":5799:5815  _owners[tokenId] */\n      dup2\n      mstore\n      0x20\n      add\n      swap1\n      dup2\n      mstore\n      0x20\n      add\n      0x00\n      keccak256\n      0x00\n      swap1\n      sload\n      swap1\n      0x0100\n      exp\n      swap1\n      div\n      0xffffffffffffffffffffffffffffffffffffffff\n      and\n        /* \"@openzeppelin/contracts/token/ERC721/ERC721.sol\":5792:5815  return _owners[tokenId] */\n      swap1\n      pop\n        /* \"@openzeppelin/contracts/token/ERC721/ERC721.sol\":5707:5822  function _ownerOf(uint256 tokenId) internal view virtual returns (address) {... */\n      swap2\n      swap1\n      pop\n      jump\t// out\n        /* \"@openzeppelin/contracts/token/ERC721/ERC721.sol\":14720:15382  function _approve(address to, uint256 tokenId, address auth, bool emitEvent) internal virtual {... */\n    tag_270:\n        /* \"@openzeppelin/contracts/token/ERC721/ERC721.sol\":14880:14889  emitEvent */\n      dup1\n        /* \"@openzeppelin/contracts/token/ERC721/ERC721.sol\":14880:14911  emitEvent || auth != address(0) */\n      dup1\n      tag_330\n      jumpi\n      pop\n        /* \"@openzeppelin/contracts/token/ERC721/ERC721.sol\":14909:14910  0 */\n      0x00\n        /* \"@openzeppelin/contracts/token/ERC721/ERC721.sol\":14893:14911  auth != address(0) */\n      0xffffffffffffffffffffffffffffffffffffffff\n      and\n        /* \"@openzeppelin/contracts/token/ERC721/ERC721.sol\":14893:14897  auth */\n      dup3\n        /* \"@openzeppelin/contracts/token/ERC721/ERC721.sol\":14893:14911  auth != address(0) */\n      0xffffffffffffffffffffffffffffffffffffffff\n      and\n      eq\n      iszero\n        /* \"@openzeppelin/contracts/token/ERC721/ERC721.sol\":14880:14911  emitEvent || auth != address(0) */\n    tag_330:\n        /* \"@openzeppelin/contracts/token/ERC721/ERC721.sol\":14876:15336  if (emitEvent || auth != address(0)) {... */\n      iszero\n      tag_331\n      jumpi\n        /* \"@openzeppelin/contracts/token/ERC721/ERC721.sol\":14927:14940  address owner */\n      0x00\n        /* \"@openzeppelin/contracts/token/ERC721/ERC721.sol\":14943:14965  _requireOwned(tokenId) */\n      tag_332\n        /* \"@openzeppelin/contracts/token/ERC721/ERC721.sol\":14957:14964  tokenId */\n      dup5\n        /* \"@openzeppelin/contracts/token/ERC721/ERC721.sol\":14943:14956  _requireOwned */\n      tag_159\n        /* \"@openzeppelin/contracts/token/ERC721/ERC721.sol\":14943:14965  _requireOwned(tokenId) */\n      jump\t// in\n    tag_332:\n        /* \"@openzeppelin/contracts/token/ERC721/ERC721.sol\":14927:14965  address owner = _requireOwned(tokenId) */\n      swap1\n      pop\n        /* \"@openzeppelin/contracts/token/ERC721/ERC721.sol\":15109:15110  0 */\n      0x00\n        /* \"@openzeppelin/contracts/token/ERC721/ERC721.sol\":15093:15111  auth != address(0) */\n      0xffffffffffffffffffffffffffffffffffffffff\n      and\n        /* \"@openzeppelin/contracts/token/ERC721/ERC721.sol\":15093:15097  auth */\n      dup4\n        /* \"@openzeppelin/contracts/token/ERC721/ERC721.sol\":15093:15111  auth != address(0) */\n      0xffffffffffffffffffffffffffffffffffffffff\n      and\n      eq\n      iszero\n        /* \"@openzeppelin/contracts/token/ERC721/ERC721.sol\":15093:15128  auth != address(0) && owner != auth */\n      dup1\n      iszero\n      tag_333\n      jumpi\n      pop\n        /* \"@openzeppelin/contracts/token/ERC721/ERC721.sol\":15124:15128  auth */\n      dup3\n        /* \"@openzeppelin/contracts/token/ERC721/ERC721.sol\":15115:15128  owner != auth */\n      0xffffffffffffffffffffffffffffffffffffffff\n      and\n        /* \"@openzeppelin/contracts/token/ERC721/ERC721.sol\":15115:15120  owner */\n      dup2\n        /* \"@openzeppelin/contracts/token/ERC721/ERC721.sol\":15115:15128  owner != auth */\n      0xffffffffffffffffffffffffffffffffffffffff\n      and\n      eq\n      iszero\n        /* \"@openzeppelin/contracts/token/ERC721/ERC721.sol\":15093:15128  auth != address(0) && owner != auth */\n    tag_333:\n        /* \"@openzeppelin/contracts/token/ERC721/ERC721.sol\":15093:15162  auth != address(0) && owner != auth && !isApprovedForAll(owner, auth) */\n      dup1\n      iszero\n      tag_334\n      jumpi\n      pop\n        /* \"@openzeppelin/contracts/token/ERC721/ERC721.sol\":15133:15162  isApprovedForAll(owner, auth) */\n      tag_335\n        /* \"@openzeppelin/contracts/token/ERC721/ERC721.sol\":15150:15155  owner */\n      dup2\n        /* \"@openzeppelin/contracts/token/ERC721/ERC721.sol\":15157:15161  auth */\n      dup5\n        /* \"@openzeppelin/contracts/token/ERC721/ERC721.sol\":15133:15149  isApprovedForAll */\n      tag_113\n        /* \"@openzeppelin/contracts/token/ERC721/ERC721.sol\":15133:15162  isApprovedForAll(owner, auth) */\n      jump\t// in\n    tag_335:\n        /* \"@openzeppelin/contracts/token/ERC721/ERC721.sol\":15132:15162  !isApprovedForAll(owner, auth) */\n      iszero\n        /* \"@openzeppelin/contracts/token/ERC721/ERC721.sol\":15093:15162  auth != address(0) && owner != auth && !isApprovedForAll(owner, auth) */\n    tag_334:\n        /* \"@openzeppelin/contracts/token/ERC721/ERC721.sol\":15089:15231  if (auth != address(0) && owner != auth && !isApprovedForAll(owner, auth)) {... */\n      iszero\n      tag_336\n      jumpi\n        /* \"@openzeppelin/contracts/token/ERC721/ERC721.sol\":15211:15215  auth */\n      dup3\n        /* \"@openzeppelin/contracts/token/ERC721/ERC721.sol\":15189:15216  ERC721InvalidApprover(auth) */\n      mload(0x40)\n      0xa9fbf51f00000000000000000000000000000000000000000000000000000000\n      dup2\n      mstore\n      0x04\n      add\n      tag_337\n      swap2\n      swap1\n      tag_50\n      jump\t// in\n    tag_337:\n      mload(0x40)\n      dup1\n      swap2\n      sub\n      swap1\n      revert\n        /* \"@openzeppelin/contracts/token/ERC721/ERC721.sol\":15089:15231  if (auth != address(0) && owner != auth && !isApprovedForAll(owner, auth)) {... */\n    tag_336:\n        /* \"@openzeppelin/contracts/token/ERC721/ERC721.sol\":15249:15258  emitEvent */\n      dup2\n        /* \"@openzeppelin/contracts/token/ERC721/ERC721.sol\":15245:15326  if (emitEvent) {... */\n      iszero\n      tag_338\n      jumpi\n        /* \"@openzeppelin/contracts/token/ERC721/ERC721.sol\":15303:15310  tokenId */\n      dup4\n        /* \"@openzeppelin/contracts/token/ERC721/ERC721.sol\":15299:15301  to */\n      dup6\n        /* \"@openzeppelin/contracts/token/ERC721/ERC721.sol\":15283:15311  Approval(owner, to, tokenId) */\n      0xffffffffffffffffffffffffffffffffffffffff\n      and\n        /* \"@openzeppelin/contracts/token/ERC721/ERC721.sol\":15292:15297  owner */\n      dup3\n        /* \"@openzeppelin/contracts/token/ERC721/ERC721.sol\":15283:15311  Approval(owner, to, tokenId) */\n      0xffffffffffffffffffffffffffffffffffffffff\n      and\n      0x8c5be1e5ebec7d5bd14f71427d1e84f3dd0314c0f7b2291e5b200ac8c7c3b925\n      mload(0x40)\n      mload(0x40)\n      dup1\n      swap2\n      sub\n      swap1\n      log4\n        /* \"@openzeppelin/contracts/token/ERC721/ERC721.sol\":15245:15326  if (emitEvent) {... */\n    tag_338:\n        /* \"@openzeppelin/contracts/token/ERC721/ERC721.sol\":14913:15336  {... */\n      pop\n        /* \"@openzeppelin/contracts/token/ERC721/ERC721.sol\":14876:15336  if (emitEvent || auth != address(0)) {... */\n    tag_331:\n        /* \"@openzeppelin/contracts/token/ERC721/ERC721.sol\":15373:15375  to */\n      dup4\n        /* \"@openzeppelin/contracts/token/ERC721/ERC721.sol\":15346:15361  _tokenApprovals */\n      0x04\n        /* \"@openzeppelin/contracts/token/ERC721/ERC721.sol\":15346:15370  _tokenApprovals[tokenId] */\n      0x00\n        /* \"@openzeppelin/contracts/token/ERC721/ERC721.sol\":15362:15369  tokenId */\n      dup6\n        /* \"@openzeppelin/contracts/token/ERC721/ERC721.sol\":15346:15370  _tokenApprovals[tokenId] */\n      dup2\n      mstore\n      0x20\n      add\n      swap1\n      dup2\n      mstore\n      0x20\n      add\n      0x00\n      keccak256\n      0x00\n        /* \"@openzeppelin/contracts/token/ERC721/ERC721.sol\":15346:15375  _tokenApprovals[tokenId] = to */\n      0x0100\n      exp\n      dup2\n      sload\n      dup2\n      0xffffffffffffffffffffffffffffffffffffffff\n      mul\n      not\n      and\n      swap1\n      dup4\n      0xffffffffffffffffffffffffffffffffffffffff\n      and\n      mul\n      or\n      swap1\n      sstore\n      pop\n        /* \"@openzeppelin/contracts/token/ERC721/ERC721.sol\":14720:15382  function _approve(address to, uint256 tokenId, address auth, bool emitEvent) internal virtual {... */\n      pop\n      pop\n      pop\n      pop\n      jump\t// out\n        /* \"@openzeppelin/contracts/token/ERC721/ERC721.sol\":7082:7450  function _checkAuthorized(address owner, address spender, uint256 tokenId) internal view virtual {... */\n    tag_275:\n        /* \"@openzeppelin/contracts/token/ERC721/ERC721.sol\":7194:7232  _isAuthorized(owner, spender, tokenId) */\n      tag_340\n        /* \"@openzeppelin/contracts/token/ERC721/ERC721.sol\":7208:7213  owner */\n      dup4\n        /* \"@openzeppelin/contracts/token/ERC721/ERC721.sol\":7215:7222  spender */\n      dup4\n        /* \"@openzeppelin/contracts/token/ERC721/ERC721.sol\":7224:7231  tokenId */\n      dup4\n        /* \"@openzeppelin/contracts/token/ERC721/ERC721.sol\":7194:7207  _isAuthorized */\n      tag_341\n        /* \"@openzeppelin/contracts/token/ERC721/ERC721.sol\":7194:7232  _isAuthorized(owner, spender, tokenId) */\n      jump\t// in\n    tag_340:\n        /* \"@openzeppelin/contracts/token/ERC721/ERC721.sol\":7189:7444  if (!_isAuthorized(owner, spender, tokenId)) {... */\n      tag_342\n      jumpi\n        /* \"@openzeppelin/contracts/token/ERC721/ERC721.sol\":7269:7270  0 */\n      0x00\n        /* \"@openzeppelin/contracts/token/ERC721/ERC721.sol\":7252:7271  owner == address(0) */\n      0xffffffffffffffffffffffffffffffffffffffff\n      and\n        /* \"@openzeppelin/contracts/token/ERC721/ERC721.sol\":7252:7257  owner */\n      dup4\n        /* \"@openzeppelin/contracts/token/ERC721/ERC721.sol\":7252:7271  owner == address(0) */\n      0xffffffffffffffffffffffffffffffffffffffff\n      and\n      sub\n        /* \"@openzeppelin/contracts/token/ERC721/ERC721.sol\":7248:7434  if (owner == address(0)) {... */\n      tag_343\n      jumpi\n        /* \"@openzeppelin/contracts/token/ERC721/ERC721.sol\":7321:7328  tokenId */\n      dup1\n        /* \"@openzeppelin/contracts/token/ERC721/ERC721.sol\":7298:7329  ERC721NonexistentToken(tokenId) */\n      mload(0x40)\n      0x7e27328900000000000000000000000000000000000000000000000000000000\n      dup2\n      mstore\n      0x04\n      add\n      tag_344\n      swap2\n      swap1\n      tag_65\n      jump\t// in\n    tag_344:\n      mload(0x40)\n      dup1\n      swap2\n      sub\n      swap1\n      revert\n        /* \"@openzeppelin/contracts/token/ERC721/ERC721.sol\":7248:7434  if (owner == address(0)) {... */\n    tag_343:\n        /* \"@openzeppelin/contracts/token/ERC721/ERC721.sol\":7402:7409  spender */\n      dup2\n        /* \"@openzeppelin/contracts/token/ERC721/ERC721.sol\":7411:7418  tokenId */\n      dup2\n        /* \"@openzeppelin/contracts/token/ERC721/ERC721.sol\":7375:7419  ERC721InsufficientApproval(spender, tokenId) */\n      mload(0x40)\n      0x177e802f00000000000000000000000000000000000000000000000000000000\n      dup2\n      mstore\n      0x04\n      add\n      tag_346\n      swap3\n      swap2\n      swap1\n      tag_347\n      jump\t// in\n    tag_346:\n      mload(0x40)\n      dup1\n      swap2\n      sub\n      swap1\n      revert\n        /* \"@openzeppelin/contracts/token/ERC721/ERC721.sol\":7189:7444  if (!_isAuthorized(owner, spender, tokenId)) {... */\n    tag_342:\n        /* \"@openzeppelin/contracts/token/ERC721/ERC721.sol\":7082:7450  function _checkAuthorized(address owner, address spender, uint256 tokenId) internal view virtual {... */\n      pop\n      pop\n      pop\n      jump\t// out\n        /* \"@openzeppelin/contracts/token/ERC721/ERC721.sol\":10954:11136  function _safeMint(address to, uint256 tokenId, bytes memory data) internal virtual {... */\n    tag_289:\n        /* \"@openzeppelin/contracts/token/ERC721/ERC721.sol\":11048:11066  _mint(to, tokenId) */\n      tag_349\n        /* \"@openzeppelin/contracts/token/ERC721/ERC721.sol\":11054:11056  to */\n      dup4\n        /* \"@openzeppelin/contracts/token/ERC721/ERC721.sol\":11058:11065  tokenId */\n      dup4\n        /* \"@openzeppelin/contracts/token/ERC721/ERC721.sol\":11048:11053  _mint */\n      tag_350\n        /* \"@openzeppelin/contracts/token/ERC721/ERC721.sol\":11048:11066  _mint(to, tokenId) */\n      jump\t// in\n    tag_349:\n        /* \"@openzeppelin/contracts/token/ERC721/ERC721.sol\":11076:11129  _checkOnERC721Received(address(0), to, tokenId, data) */\n      tag_351\n        /* \"@openzeppelin/contracts/token/ERC721/ERC721.sol\":11107:11108  0 */\n      0x00\n        /* \"@openzeppelin/contracts/token/ERC721/ERC721.sol\":11111:11113  to */\n      dup5\n        /* \"@openzeppelin/contracts/token/ERC721/ERC721.sol\":11115:11122  tokenId */\n      dup5\n        /* \"@openzeppelin/contracts/token/ERC721/ERC721.sol\":11124:11128  data */\n      dup5\n        /* \"@openzeppelin/contracts/token/ERC721/ERC721.sol\":11076:11098  _checkOnERC721Received */\n      tag_239\n        /* \"@openzeppelin/contracts/token/ERC721/ERC721.sol\":11076:11129  _checkOnERC721Received(address(0), to, tokenId, data) */\n      jump\t// in\n    tag_351:\n        /* \"@openzeppelin/contracts/token/ERC721/ERC721.sol\":10954:11136  function _safeMint(address to, uint256 tokenId, bytes memory data) internal virtual {... */\n      pop\n      pop\n      pop\n      jump\t// out\n        /* \"@openzeppelin/contracts/utils/math/Math.sol\":12214:13130  function log10(uint256 value) internal pure returns (uint256) {... */\n    tag_318:\n        /* \"@openzeppelin/contracts/utils/math/Math.sol\":12267:12274  uint256 */\n      0x00\n        /* \"@openzeppelin/contracts/utils/math/Math.sol\":12286:12300  uint256 result */\n      dup1\n        /* \"@openzeppelin/contracts/utils/math/Math.sol\":12303:12304  0 */\n      0x00\n        /* \"@openzeppelin/contracts/utils/math/Math.sol\":12286:12304  uint256 result = 0 */\n      swap1\n      pop\n        /* \"@openzeppelin/contracts/utils/math/Math.sol\":12351:12359  10 ** 64 */\n      0x184f03e93ff9f4daa797ed6e38ed64bf6a1f010000000000000000\n        /* \"@openzeppelin/contracts/utils/math/Math.sol\":12342:12347  value */\n      dup4\n        /* \"@openzeppelin/contracts/utils/math/Math.sol\":12342:12359  value >= 10 ** 64 */\n      lt\n        /* \"@openzeppelin/contracts/utils/math/Math.sol\":12338:12441  if (value >= 10 ** 64) {... */\n      tag_353\n      jumpi\n        /* \"@openzeppelin/contracts/utils/math/Math.sol\":12388:12396  10 ** 64 */\n      0x184f03e93ff9f4daa797ed6e38ed64bf6a1f010000000000000000\n        /* \"@openzeppelin/contracts/utils/math/Math.sol\":12379:12396  value /= 10 ** 64 */\n      dup4\n      dup2\n      tag_354\n      jumpi\n      tag_355\n      tag_326\n      jump\t// in\n    tag_355:\n    tag_354:\n      div\n      swap3\n      pop\n        /* \"@openzeppelin/contracts/utils/math/Math.sol\":12424:12426  64 */\n      0x40\n        /* \"@openzeppelin/contracts/utils/math/Math.sol\":12414:12426  result += 64 */\n      dup2\n      add\n      swap1\n      pop\n        /* \"@openzeppelin/contracts/utils/math/Math.sol\":12338:12441  if (value >= 10 ** 64) {... */\n    tag_353:\n        /* \"@openzeppelin/contracts/utils/math/Math.sol\":12467:12475  10 ** 32 */\n      0x04ee2d6d415b85acef8100000000\n        /* \"@openzeppelin/contracts/utils/math/Math.sol\":12458:12463  value */\n      dup4\n        /* \"@openzeppelin/contracts/utils/math/Math.sol\":12458:12475  value >= 10 ** 32 */\n      lt\n        /* \"@openzeppelin/contracts/utils/math/Math.sol\":12454:12557  if (value >= 10 ** 32) {... */\n      tag_356\n      jumpi\n        /* \"@openzeppelin/contracts/utils/math/Math.sol\":12504:12512  10 ** 32 */\n      0x04ee2d6d415b85acef8100000000\n        /* \"@openzeppelin/contracts/utils/math/Math.sol\":12495:12512  value /= 10 ** 32 */\n      dup4\n      dup2\n      tag_357\n      jumpi\n      tag_358\n      tag_326\n      jump\t// in\n    tag_358:\n    tag_357:\n      div\n      swap3\n      pop\n        /* \"@openzeppelin/contracts/utils/math/Math.sol\":12540:12542  32 */\n      0x20\n        /* \"@openzeppelin/contracts/utils/math/Math.sol\":12530:12542  result += 32 */\n      dup2\n      add\n      swap1\n      pop\n        /* \"@openzeppelin/contracts/utils/math/Math.sol\":12454:12557  if (value >= 10 ** 32) {... */\n    tag_356:\n        /* \"@openzeppelin/contracts/utils/math/Math.sol\":12583:12591  10 ** 16 */\n      0x2386f26fc10000\n        /* \"@openzeppelin/contracts/utils/math/Math.sol\":12574:12579  value */\n      dup4\n        /* \"@openzeppelin/contracts/utils/math/Math.sol\":12574:12591  value >= 10 ** 16 */\n      lt\n        /* \"@openzeppelin/contracts/utils/math/Math.sol\":12570:12673  if (value >= 10 ** 16) {... */\n      tag_359\n      jumpi\n        /* \"@openzeppelin/contracts/utils/math/Math.sol\":12620:12628  10 ** 16 */\n      0x2386f26fc10000\n        /* \"@openzeppelin/contracts/utils/math/Math.sol\":12611:12628  value /= 10 ** 16 */\n      dup4\n      dup2\n      tag_360\n      jumpi\n      tag_361\n      tag_326\n      jump\t// in\n    tag_361:\n    tag_360:\n      div\n      swap3\n      pop\n        /* \"@openzeppelin/contracts/utils/math/Math.sol\":12656:12658  16 */\n      0x10\n        /* \"@openzeppelin/contracts/utils/math/Math.sol\":12646:12658  result += 16 */\n      dup2\n      add\n      swap1\n      pop\n        /* \"@openzeppelin/contracts/utils/math/Math.sol\":12570:12673  if (value >= 10 ** 16) {... */\n    tag_359:\n        /* \"@openzeppelin/contracts/utils/math/Math.sol\":12699:12706  10 ** 8 */\n      0x05f5e100\n        /* \"@openzeppelin/contracts/utils/math/Math.sol\":12690:12695  value */\n      dup4\n        /* \"@openzeppelin/contracts/utils/math/Math.sol\":12690:12706  value >= 10 ** 8 */\n      lt\n        /* \"@openzeppelin/contracts/utils/math/Math.sol\":12686:12786  if (value >= 10 ** 8) {... */\n      tag_362\n      jumpi\n        /* \"@openzeppelin/contracts/utils/math/Math.sol\":12735:12742  10 ** 8 */\n      0x05f5e100\n        /* \"@openzeppelin/contracts/utils/math/Math.sol\":12726:12742  value /= 10 ** 8 */\n      dup4\n      dup2\n      tag_363\n      jumpi\n      tag_364\n      tag_326\n      jump\t// in\n    tag_364:\n    tag_363:\n      div\n      swap3\n      pop\n        /* \"@openzeppelin/contracts/utils/math/Math.sol\":12770:12771  8 */\n      0x08\n        /* \"@openzeppelin/contracts/utils/math/Math.sol\":12760:12771  result += 8 */\n      dup2\n      add\n      swap1\n      pop\n        /* \"@openzeppelin/contracts/utils/math/Math.sol\":12686:12786  if (value >= 10 ** 8) {... */\n    tag_362:\n        /* \"@openzeppelin/contracts/utils/math/Math.sol\":12812:12819  10 ** 4 */\n      0x2710\n        /* \"@openzeppelin/contracts/utils/math/Math.sol\":12803:12808  value */\n      dup4\n        /* \"@openzeppelin/contracts/utils/math/Math.sol\":12803:12819  value >= 10 ** 4 */\n      lt\n        /* \"@openzeppelin/contracts/utils/math/Math.sol\":12799:12899  if (value >= 10 ** 4) {... */\n      tag_365\n      jumpi\n        /* \"@openzeppelin/contracts/utils/math/Math.sol\":12848:12855  10 ** 4 */\n      0x2710\n        /* \"@openzeppelin/contracts/utils/math/Math.sol\":12839:12855  value /= 10 ** 4 */\n      dup4\n      dup2\n      tag_366\n      jumpi\n      tag_367\n      tag_326\n      jump\t// in\n    tag_367:\n    tag_366:\n      div\n      swap3\n      pop\n        /* \"@openzeppelin/contracts/utils/math/Math.sol\":12883:12884  4 */\n      0x04\n        /* \"@openzeppelin/contracts/utils/math/Math.sol\":12873:12884  result += 4 */\n      dup2\n      add\n      swap1\n      pop\n        /* \"@openzeppelin/contracts/utils/math/Math.sol\":12799:12899  if (value >= 10 ** 4) {... */\n    tag_365:\n        /* \"@openzeppelin/contracts/utils/math/Math.sol\":12925:12932  10 ** 2 */\n      0x64\n        /* \"@openzeppelin/contracts/utils/math/Math.sol\":12916:12921  value */\n      dup4\n        /* \"@openzeppelin/contracts/utils/math/Math.sol\":12916:12932  value >= 10 ** 2 */\n      lt\n        /* \"@openzeppelin/contracts/utils/math/Math.sol\":12912:13012  if (value >= 10 ** 2) {... */\n      tag_368\n      jumpi\n        /* \"@openzeppelin/contracts/utils/math/Math.sol\":12961:12968  10 ** 2 */\n      0x64\n        /* \"@openzeppelin/contracts/utils/math/Math.sol\":12952:12968  value /= 10 ** 2 */\n      dup4\n      dup2\n      tag_369\n      jumpi\n      tag_370\n      tag_326\n      jump\t// in\n    tag_370:\n    tag_369:\n      div\n      swap3\n      pop\n        /* \"@openzeppelin/contracts/utils/math/Math.sol\":12996:12997  2 */\n      0x02\n        /* \"@openzeppelin/contracts/utils/math/Math.sol\":12986:12997  result += 2 */\n      dup2\n      add\n      swap1\n      pop\n        /* \"@openzeppelin/contracts/utils/math/Math.sol\":12912:13012  if (value >= 10 ** 2) {... */\n    tag_368:\n        /* \"@openzeppelin/contracts/utils/math/Math.sol\":13038:13045  10 ** 1 */\n      0x0a\n        /* \"@openzeppelin/contracts/utils/math/Math.sol\":13029:13034  value */\n      dup4\n        /* \"@openzeppelin/contracts/utils/math/Math.sol\":13029:13045  value >= 10 ** 1 */\n      lt\n        /* \"@openzeppelin/contracts/utils/math/Math.sol\":13025:13091  if (value >= 10 ** 1) {... */\n      tag_371\n      jumpi\n        /* \"@openzeppelin/contracts/utils/math/Math.sol\":13075:13076  1 */\n      0x01\n        /* \"@openzeppelin/contracts/utils/math/Math.sol\":13065:13076  result += 1 */\n      dup2\n      add\n      swap1\n      pop\n        /* \"@openzeppelin/contracts/utils/math/Math.sol\":13025:13091  if (value >= 10 ** 1) {... */\n    tag_371:\n        /* \"@openzeppelin/contracts/utils/math/Math.sol\":13117:13123  result */\n      dup1\n        /* \"@openzeppelin/contracts/utils/math/Math.sol\":13110:13123  return result */\n      swap2\n      pop\n      pop\n        /* \"@openzeppelin/contracts/utils/math/Math.sol\":12214:13130  function log10(uint256 value) internal pure returns (uint256) {... */\n      swap2\n      swap1\n      pop\n      jump\t// out\n        /* \"@openzeppelin/contracts/token/ERC721/ERC721.sol\":6376:6648  function _isAuthorized(address owner, address spender, uint256 tokenId) internal view virtual returns (bool) {... */\n    tag_341:\n        /* \"@openzeppelin/contracts/token/ERC721/ERC721.sol\":6479:6483  bool */\n      0x00\n        /* \"@openzeppelin/contracts/token/ERC721/ERC721.sol\":6533:6534  0 */\n      dup1\n        /* \"@openzeppelin/contracts/token/ERC721/ERC721.sol\":6514:6535  spender != address(0) */\n      0xffffffffffffffffffffffffffffffffffffffff\n      and\n        /* \"@openzeppelin/contracts/token/ERC721/ERC721.sol\":6514:6521  spender */\n      dup4\n        /* \"@openzeppelin/contracts/token/ERC721/ERC721.sol\":6514:6535  spender != address(0) */\n      0xffffffffffffffffffffffffffffffffffffffff\n      and\n      eq\n      iszero\n        /* \"@openzeppelin/contracts/token/ERC721/ERC721.sol\":6514:6641  spender != address(0) &&... */\n      dup1\n      iszero\n      tag_373\n      jumpi\n      pop\n        /* \"@openzeppelin/contracts/token/ERC721/ERC721.sol\":6561:6568  spender */\n      dup3\n        /* \"@openzeppelin/contracts/token/ERC721/ERC721.sol\":6552:6568  owner == spender */\n      0xffffffffffffffffffffffffffffffffffffffff\n      and\n        /* \"@openzeppelin/contracts/token/ERC721/ERC721.sol\":6552:6557  owner */\n      dup5\n        /* \"@openzeppelin/contracts/token/ERC721/ERC721.sol\":6552:6568  owner == spender */\n      0xffffffffffffffffffffffffffffffffffffffff\n      and\n      eq\n        /* \"@openzeppelin/contracts/token/ERC721/ERC721.sol\":6552:6604  owner == spender || isApprovedForAll(owner, spender) */\n      dup1\n      tag_374\n      jumpi\n      pop\n        /* \"@openzeppelin/contracts/token/ERC721/ERC721.sol\":6572:6604  isApprovedForAll(owner, spender) */\n      tag_375\n        /* \"@openzeppelin/contracts/token/ERC721/ERC721.sol\":6589:6594  owner */\n      dup5\n        /* \"@openzeppelin/contracts/token/ERC721/ERC721.sol\":6596:6603  spender */\n      dup5\n        /* \"@openzeppelin/contracts/token/ERC721/ERC721.sol\":6572:6588  isApprovedForAll */\n      tag_113\n        /* \"@openzeppelin/contracts/token/ERC721/ERC721.sol\":6572:6604  isApprovedForAll(owner, spender) */\n      jump\t// in\n    tag_375:\n        /* \"@openzeppelin/contracts/token/ERC721/ERC721.sol\":6552:6604  owner == spender || isApprovedForAll(owner, spender) */\n    tag_374:\n        /* \"@openzeppelin/contracts/token/ERC721/ERC721.sol\":6552:6640  owner == spender || isApprovedForAll(owner, spender) || _getApproved(tokenId) == spender */\n      dup1\n      tag_376\n      jumpi\n      pop\n        /* \"@openzeppelin/contracts/token/ERC721/ERC721.sol\":6633:6640  spender */\n      dup3\n        /* \"@openzeppelin/contracts/token/ERC721/ERC721.sol\":6608:6640  _getApproved(tokenId) == spender */\n      0xffffffffffffffffffffffffffffffffffffffff\n      and\n        /* \"@openzeppelin/contracts/token/ERC721/ERC721.sol\":6608:6629  _getApproved(tokenId) */\n      tag_377\n        /* \"@openzeppelin/contracts/token/ERC721/ERC721.sol\":6621:6628  tokenId */\n      dup4\n        /* \"@openzeppelin/contracts/token/ERC721/ERC721.sol\":6608:6620  _getApproved */\n      tag_161\n        /* \"@openzeppelin/contracts/token/ERC721/ERC721.sol\":6608:6629  _getApproved(tokenId) */\n      jump\t// in\n    tag_377:\n        /* \"@openzeppelin/contracts/token/ERC721/ERC721.sol\":6608:6640  _getApproved(tokenId) == spender */\n      0xffffffffffffffffffffffffffffffffffffffff\n      and\n      eq\n        /* \"@openzeppelin/contracts/token/ERC721/ERC721.sol\":6552:6640  owner == spender || isApprovedForAll(owner, spender) || _getApproved(tokenId) == spender */\n    tag_376:\n        /* \"@openzeppelin/contracts/token/ERC721/ERC721.sol\":6514:6641  spender != address(0) &&... */\n    tag_373:\n        /* \"@openzeppelin/contracts/token/ERC721/ERC721.sol\":6495:6641  return... */\n      swap1\n      pop\n        /* \"@openzeppelin/contracts/token/ERC721/ERC721.sol\":6376:6648  function _isAuthorized(address owner, address spender, uint256 tokenId) internal view virtual returns (bool) {... */\n      swap4\n      swap3\n      pop\n      pop\n      pop\n      jump\t// out\n        /* \"@openzeppelin/contracts/token/ERC721/ERC721.sol\":9955:10282  function _mint(address to, uint256 tokenId) internal {... */\n    tag_350:\n        /* \"@openzeppelin/contracts/token/ERC721/ERC721.sol\":10036:10037  0 */\n      0x00\n        /* \"@openzeppelin/contracts/token/ERC721/ERC721.sol\":10022:10038  to == address(0) */\n      0xffffffffffffffffffffffffffffffffffffffff\n      and\n        /* \"@openzeppelin/contracts/token/ERC721/ERC721.sol\":10022:10024  to */\n      dup3\n        /* \"@openzeppelin/contracts/token/ERC721/ERC721.sol\":10022:10038  to == address(0) */\n      0xffffffffffffffffffffffffffffffffffffffff\n      and\n      sub\n        /* \"@openzeppelin/contracts/token/ERC721/ERC721.sol\":10018:10105  if (to == address(0)) {... */\n      tag_379\n      jumpi\n        /* \"@openzeppelin/contracts/token/ERC721/ERC721.sol\":10091:10092  0 */\n      0x00\n        /* \"@openzeppelin/contracts/token/ERC721/ERC721.sol\":10061:10094  ERC721InvalidReceiver(address(0)) */\n      mload(0x40)\n      0x64a0ae9200000000000000000000000000000000000000000000000000000000\n      dup2\n      mstore\n      0x04\n      add\n      tag_380\n      swap2\n      swap1\n      tag_50\n      jump\t// in\n    tag_380:\n      mload(0x40)\n      dup1\n      swap2\n      sub\n      swap1\n      revert\n        /* \"@openzeppelin/contracts/token/ERC721/ERC721.sol\":10018:10105  if (to == address(0)) {... */\n    tag_379:\n        /* \"@openzeppelin/contracts/token/ERC721/ERC721.sol\":10114:10135  address previousOwner */\n      0x00\n        /* \"@openzeppelin/contracts/token/ERC721/ERC721.sol\":10138:10170  _update(to, tokenId, address(0)) */\n      tag_381\n        /* \"@openzeppelin/contracts/token/ERC721/ERC721.sol\":10146:10148  to */\n      dup4\n        /* \"@openzeppelin/contracts/token/ERC721/ERC721.sol\":10150:10157  tokenId */\n      dup4\n        /* \"@openzeppelin/contracts/token/ERC721/ERC721.sol\":10167:10168  0 */\n      0x00\n        /* \"@openzeppelin/contracts/token/ERC721/ERC721.sol\":10138:10145  _update */\n      tag_172\n        /* \"@openzeppelin/contracts/token/ERC721/ERC721.sol\":10138:10170  _update(to, tokenId, address(0)) */\n      jump\t// in\n    tag_381:\n        /* \"@openzeppelin/contracts/token/ERC721/ERC721.sol\":10114:10170  address previousOwner = _update(to, tokenId, address(0)) */\n      swap1\n      pop\n        /* \"@openzeppelin/contracts/token/ERC721/ERC721.sol\":10209:10210  0 */\n      0x00\n        /* \"@openzeppelin/contracts/token/ERC721/ERC721.sol\":10184:10211  previousOwner != address(0) */\n      0xffffffffffffffffffffffffffffffffffffffff\n      and\n        /* \"@openzeppelin/contracts/token/ERC721/ERC721.sol\":10184:10197  previousOwner */\n      dup2\n        /* \"@openzeppelin/contracts/token/ERC721/ERC721.sol\":10184:10211  previousOwner != address(0) */\n      0xffffffffffffffffffffffffffffffffffffffff\n      and\n      eq\n        /* \"@openzeppelin/contracts/token/ERC721/ERC721.sol\":10180:10276  if (previousOwner != address(0)) {... */\n      tag_382\n      jumpi\n        /* \"@openzeppelin/contracts/token/ERC721/ERC721.sol\":10262:10263  0 */\n      0x00\n        /* \"@openzeppelin/contracts/token/ERC721/ERC721.sol\":10234:10265  ERC721InvalidSender(address(0)) */\n      mload(0x40)\n      0x73c6ac6e00000000000000000000000000000000000000000000000000000000\n      dup2\n      mstore\n      0x04\n      add\n      tag_383\n      swap2\n      swap1\n      tag_50\n      jump\t// in\n    tag_383:\n      mload(0x40)\n      dup1\n      swap2\n      sub\n      swap1\n      revert\n        /* \"@openzeppelin/contracts/token/ERC721/ERC721.sol\":10180:10276  if (previousOwner != address(0)) {... */\n    tag_382:\n        /* \"@openzeppelin/contracts/token/ERC721/ERC721.sol\":10008:10282  {... */\n      pop\n        /* \"@openzeppelin/contracts/token/ERC721/ERC721.sol\":9955:10282  function _mint(address to, uint256 tokenId) internal {... */\n      pop\n      pop\n      jump\t// out\n    tag_131:\n      mload(0x40)\n      dup1\n      0x60\n      add\n      0x40\n      mstore\n      dup1\n      0x00\n      dup2\n      mstore\n      0x20\n      add\n      0x60\n      dup2\n      mstore\n      0x20\n      add\n      0x00\n      dup2\n      mstore\n      pop\n      swap1\n      jump\t// out\n        /* \"#utility.yul\":7:82   */\n    tag_384:\n        /* \"#utility.yul\":40:46   */\n      0x00\n        /* \"#utility.yul\":73:75   */\n      0x40\n        /* \"#utility.yul\":67:76   */\n      mload\n        /* \"#utility.yul\":57:76   */\n      swap1\n      pop\n        /* \"#utility.yul\":7:82   */\n      swap1\n      jump\t// out\n        /* \"#utility.yul\":88:205   */\n    tag_385:\n        /* \"#utility.yul\":197:198   */\n      0x00\n        /* \"#utility.yul\":194:195   */\n      dup1\n        /* \"#utility.yul\":187:199   */\n      revert\n        /* \"#utility.yul\":211:328   */\n    tag_386:\n        /* \"#utility.yul\":320:321   */\n      0x00\n        /* \"#utility.yul\":317:318   */\n      dup1\n        /* \"#utility.yul\":310:322   */\n      revert\n        /* \"#utility.yul\":334:460   */\n    tag_387:\n        /* \"#utility.yul\":371:378   */\n      0x00\n        /* \"#utility.yul\":411:453   */\n      0xffffffffffffffffffffffffffffffffffffffff\n        /* \"#utility.yul\":404:409   */\n      dup3\n        /* \"#utility.yul\":400:454   */\n      and\n        /* \"#utility.yul\":389:454   */\n      swap1\n      pop\n        /* \"#utility.yul\":334:460   */\n      swap2\n      swap1\n      pop\n      jump\t// out\n        /* \"#utility.yul\":466:562   */\n    tag_388:\n        /* \"#utility.yul\":503:510   */\n      0x00\n        /* \"#utility.yul\":532:556   */\n      tag_471\n        /* \"#utility.yul\":550:555   */\n      dup3\n        /* \"#utility.yul\":532:556   */\n      tag_387\n      jump\t// in\n    tag_471:\n        /* \"#utility.yul\":521:556   */\n      swap1\n      pop\n        /* \"#utility.yul\":466:562   */\n      swap2\n      swap1\n      pop\n      jump\t// out\n        /* \"#utility.yul\":568:690   */\n    tag_389:\n        /* \"#utility.yul\":641:665   */\n      tag_473\n        /* \"#utility.yul\":659:664   */\n      dup2\n        /* \"#utility.yul\":641:665   */\n      tag_388\n      jump\t// in\n    tag_473:\n        /* \"#utility.yul\":634:639   */\n      dup2\n        /* \"#utility.yul\":631:666   */\n      eq\n        /* \"#utility.yul\":621:684   */\n      tag_474\n      jumpi\n        /* \"#utility.yul\":680:681   */\n      0x00\n        /* \"#utility.yul\":677:678   */\n      dup1\n        /* \"#utility.yul\":670:682   */\n      revert\n        /* \"#utility.yul\":621:684   */\n    tag_474:\n        /* \"#utility.yul\":568:690   */\n      pop\n      jump\t// out\n        /* \"#utility.yul\":696:835   */\n    tag_390:\n        /* \"#utility.yul\":742:747   */\n      0x00\n        /* \"#utility.yul\":780:786   */\n      dup2\n        /* \"#utility.yul\":767:787   */\n      calldataload\n        /* \"#utility.yul\":758:787   */\n      swap1\n      pop\n        /* \"#utility.yul\":796:829   */\n      tag_476\n        /* \"#utility.yul\":823:828   */\n      dup2\n        /* \"#utility.yul\":796:829   */\n      tag_389\n      jump\t// in\n    tag_476:\n        /* \"#utility.yul\":696:835   */\n      swap3\n      swap2\n      pop\n      pop\n      jump\t// out\n        /* \"#utility.yul\":841:1170   */\n    tag_31:\n        /* \"#utility.yul\":900:906   */\n      0x00\n        /* \"#utility.yul\":949:951   */\n      0x20\n        /* \"#utility.yul\":937:946   */\n      dup3\n        /* \"#utility.yul\":928:935   */\n      dup5\n        /* \"#utility.yul\":924:947   */\n      sub\n        /* \"#utility.yul\":920:952   */\n      slt\n        /* \"#utility.yul\":917:1036   */\n      iszero\n      tag_478\n      jumpi\n        /* \"#utility.yul\":955:1034   */\n      tag_479\n      tag_385\n      jump\t// in\n    tag_479:\n        /* \"#utility.yul\":917:1036   */\n    tag_478:\n        /* \"#utility.yul\":1075:1076   */\n      0x00\n        /* \"#utility.yul\":1100:1153   */\n      tag_480\n        /* \"#utility.yul\":1145:1152   */\n      dup5\n        /* \"#utility.yul\":1136:1142   */\n      dup3\n        /* \"#utility.yul\":1125:1134   */\n      dup6\n        /* \"#utility.yul\":1121:1143   */\n      add\n        /* \"#utility.yul\":1100:1153   */\n      tag_390\n      jump\t// in\n    tag_480:\n        /* \"#utility.yul\":1090:1153   */\n      swap2\n      pop\n        /* \"#utility.yul\":1046:1163   */\n      pop\n        /* \"#utility.yul\":841:1170   */\n      swap3\n      swap2\n      pop\n      pop\n      jump\t// out\n        /* \"#utility.yul\":1176:1315   */\n    tag_391:\n        /* \"#utility.yul\":1268:1274   */\n      0x00\n        /* \"#utility.yul\":1302:1307   */\n      dup2\n        /* \"#utility.yul\":1296:1308   */\n      mload\n        /* \"#utility.yul\":1286:1308   */\n      swap1\n      pop\n        /* \"#utility.yul\":1176:1315   */\n      swap2\n      swap1\n      pop\n      jump\t// out\n        /* \"#utility.yul\":1321:1530   */\n    tag_392:\n        /* \"#utility.yul\":1445:1456   */\n      0x00\n        /* \"#utility.yul\":1479:1485   */\n      dup3\n        /* \"#utility.yul\":1474:1477   */\n      dup3\n        /* \"#utility.yul\":1467:1486   */\n      mstore\n        /* \"#utility.yul\":1519:1523   */\n      0x20\n        /* \"#utility.yul\":1514:1517   */\n      dup3\n        /* \"#utility.yul\":1510:1524   */\n      add\n        /* \"#utility.yul\":1495:1524   */\n      swap1\n      pop\n        /* \"#utility.yul\":1321:1530   */\n      swap3\n      swap2\n      pop\n      pop\n      jump\t// out\n        /* \"#utility.yul\":1536:1693   */\n    tag_393:\n        /* \"#utility.yul\":1628:1632   */\n      0x00\n        /* \"#utility.yul\":1651:1654   */\n      dup2\n        /* \"#utility.yul\":1643:1654   */\n      swap1\n      pop\n        /* \"#utility.yul\":1681:1685   */\n      0x20\n        /* \"#utility.yul\":1676:1679   */\n      dup3\n        /* \"#utility.yul\":1672:1686   */\n      add\n        /* \"#utility.yul\":1664:1686   */\n      swap1\n      pop\n        /* \"#utility.yul\":1536:1693   */\n      swap2\n      swap1\n      pop\n      jump\t// out\n        /* \"#utility.yul\":1699:1776   */\n    tag_394:\n        /* \"#utility.yul\":1736:1743   */\n      0x00\n        /* \"#utility.yul\":1765:1770   */\n      dup2\n        /* \"#utility.yul\":1754:1770   */\n      swap1\n      pop\n        /* \"#utility.yul\":1699:1776   */\n      swap2\n      swap1\n      pop\n      jump\t// out\n        /* \"#utility.yul\":1782:1890   */\n    tag_395:\n        /* \"#utility.yul\":1859:1883   */\n      tag_486\n        /* \"#utility.yul\":1877:1882   */\n      dup2\n        /* \"#utility.yul\":1859:1883   */\n      tag_394\n      jump\t// in\n    tag_486:\n        /* \"#utility.yul\":1854:1857   */\n      dup3\n        /* \"#utility.yul\":1847:1884   */\n      mstore\n        /* \"#utility.yul\":1782:1890   */\n      pop\n      pop\n      jump\t// out\n        /* \"#utility.yul\":1896:1995   */\n    tag_396:\n        /* \"#utility.yul\":1948:1954   */\n      0x00\n        /* \"#utility.yul\":1982:1987   */\n      dup2\n        /* \"#utility.yul\":1976:1988   */\n      mload\n        /* \"#utility.yul\":1966:1988   */\n      swap1\n      pop\n        /* \"#utility.yul\":1896:1995   */\n      swap2\n      swap1\n      pop\n      jump\t// out\n        /* \"#utility.yul\":2001:2160   */\n    tag_397:\n        /* \"#utility.yul\":2075:2086   */\n      0x00\n        /* \"#utility.yul\":2109:2115   */\n      dup3\n        /* \"#utility.yul\":2104:2107   */\n      dup3\n        /* \"#utility.yul\":2097:2116   */\n      mstore\n        /* \"#utility.yul\":2149:2153   */\n      0x20\n        /* \"#utility.yul\":2144:2147   */\n      dup3\n        /* \"#utility.yul\":2140:2154   */\n      add\n        /* \"#utility.yul\":2125:2154   */\n      swap1\n      pop\n        /* \"#utility.yul\":2001:2160   */\n      swap3\n      swap2\n      pop\n      pop\n      jump\t// out\n        /* \"#utility.yul\":2166:2412   */\n    tag_398:\n        /* \"#utility.yul\":2247:2248   */\n      0x00\n        /* \"#utility.yul\":2257:2370   */\n    tag_490:\n        /* \"#utility.yul\":2271:2277   */\n      dup4\n        /* \"#utility.yul\":2268:2269   */\n      dup2\n        /* \"#utility.yul\":2265:2278   */\n      lt\n        /* \"#utility.yul\":2257:2370   */\n      iszero\n      tag_492\n      jumpi\n        /* \"#utility.yul\":2356:2357   */\n      dup1\n        /* \"#utility.yul\":2351:2354   */\n      dup3\n        /* \"#utility.yul\":2347:2358   */\n      add\n        /* \"#utility.yul\":2341:2359   */\n      mload\n        /* \"#utility.yul\":2337:2338   */\n      dup2\n        /* \"#utility.yul\":2332:2335   */\n      dup5\n        /* \"#utility.yul\":2328:2339   */\n      add\n        /* \"#utility.yul\":2321:2360   */\n      mstore\n        /* \"#utility.yul\":2293:2295   */\n      0x20\n        /* \"#utility.yul\":2290:2291   */\n      dup2\n        /* \"#utility.yul\":2286:2296   */\n      add\n        /* \"#utility.yul\":2281:2296   */\n      swap1\n      pop\n        /* \"#utility.yul\":2257:2370   */\n      jump(tag_490)\n    tag_492:\n        /* \"#utility.yul\":2404:2405   */\n      0x00\n        /* \"#utility.yul\":2395:2401   */\n      dup5\n        /* \"#utility.yul\":2390:2393   */\n      dup5\n        /* \"#utility.yul\":2386:2402   */\n      add\n        /* \"#utility.yul\":2379:2406   */\n      mstore\n        /* \"#utility.yul\":2228:2412   */\n      pop\n        /* \"#utility.yul\":2166:2412   */\n      pop\n      pop\n      pop\n      jump\t// out\n        /* \"#utility.yul\":2418:2520   */\n    tag_399:\n        /* \"#utility.yul\":2459:2465   */\n      0x00\n        /* \"#utility.yul\":2510:2512   */\n      0x1f\n        /* \"#utility.yul\":2506:2513   */\n      not\n        /* \"#utility.yul\":2501:2503   */\n      0x1f\n        /* \"#utility.yul\":2494:2499   */\n      dup4\n        /* \"#utility.yul\":2490:2504   */\n      add\n        /* \"#utility.yul\":2486:2514   */\n      and\n        /* \"#utility.yul\":2476:2514   */\n      swap1\n      pop\n        /* \"#utility.yul\":2418:2520   */\n      swap2\n      swap1\n      pop\n      jump\t// out\n        /* \"#utility.yul\":2526:2883   */\n    tag_400:\n        /* \"#utility.yul\":2604:2607   */\n      0x00\n        /* \"#utility.yul\":2632:2671   */\n      tag_495\n        /* \"#utility.yul\":2665:2670   */\n      dup3\n        /* \"#utility.yul\":2632:2671   */\n      tag_396\n      jump\t// in\n    tag_495:\n        /* \"#utility.yul\":2687:2748   */\n      tag_496\n        /* \"#utility.yul\":2741:2747   */\n      dup2\n        /* \"#utility.yul\":2736:2739   */\n      dup6\n        /* \"#utility.yul\":2687:2748   */\n      tag_397\n      jump\t// in\n    tag_496:\n        /* \"#utility.yul\":2680:2748   */\n      swap4\n      pop\n        /* \"#utility.yul\":2757:2822   */\n      tag_497\n        /* \"#utility.yul\":2815:2821   */\n      dup2\n        /* \"#utility.yul\":2810:2813   */\n      dup6\n        /* \"#utility.yul\":2803:2807   */\n      0x20\n        /* \"#utility.yul\":2796:2801   */\n      dup7\n        /* \"#utility.yul\":2792:2808   */\n      add\n        /* \"#utility.yul\":2757:2822   */\n      tag_398\n      jump\t// in\n    tag_497:\n        /* \"#utility.yul\":2847:2876   */\n      tag_498\n        /* \"#utility.yul\":2869:2875   */\n      dup2\n        /* \"#utility.yul\":2847:2876   */\n      tag_399\n      jump\t// in\n    tag_498:\n        /* \"#utility.yul\":2842:2845   */\n      dup5\n        /* \"#utility.yul\":2838:2877   */\n      add\n        /* \"#utility.yul\":2831:2877   */\n      swap2\n      pop\n        /* \"#utility.yul\":2608:2883   */\n      pop\n        /* \"#utility.yul\":2526:2883   */\n      swap3\n      swap2\n      pop\n      pop\n      jump\t// out\n        /* \"#utility.yul\":2955:3724   */\n    tag_401:\n        /* \"#utility.yul\":3064:3067   */\n      0x00\n        /* \"#utility.yul\":3100:3104   */\n      0x60\n        /* \"#utility.yul\":3095:3098   */\n      dup4\n        /* \"#utility.yul\":3091:3105   */\n      add\n        /* \"#utility.yul\":3185:3189   */\n      0x00\n        /* \"#utility.yul\":3178:3183   */\n      dup4\n        /* \"#utility.yul\":3174:3190   */\n      add\n        /* \"#utility.yul\":3168:3191   */\n      mload\n        /* \"#utility.yul\":3204:3267   */\n      tag_500\n        /* \"#utility.yul\":3261:3265   */\n      0x00\n        /* \"#utility.yul\":3256:3259   */\n      dup7\n        /* \"#utility.yul\":3252:3266   */\n      add\n        /* \"#utility.yul\":3238:3250   */\n      dup3\n        /* \"#utility.yul\":3204:3267   */\n      tag_395\n      jump\t// in\n    tag_500:\n        /* \"#utility.yul\":3115:3277   */\n      pop\n        /* \"#utility.yul\":3359:3363   */\n      0x20\n        /* \"#utility.yul\":3352:3357   */\n      dup4\n        /* \"#utility.yul\":3348:3364   */\n      add\n        /* \"#utility.yul\":3342:3365   */\n      mload\n        /* \"#utility.yul\":3412:3415   */\n      dup5\n        /* \"#utility.yul\":3406:3410   */\n      dup3\n        /* \"#utility.yul\":3402:3416   */\n      sub\n        /* \"#utility.yul\":3395:3399   */\n      0x20\n        /* \"#utility.yul\":3390:3393   */\n      dup7\n        /* \"#utility.yul\":3386:3400   */\n      add\n        /* \"#utility.yul\":3379:3417   */\n      mstore\n        /* \"#utility.yul\":3438:3511   */\n      tag_501\n        /* \"#utility.yul\":3506:3510   */\n      dup3\n        /* \"#utility.yul\":3492:3504   */\n      dup3\n        /* \"#utility.yul\":3438:3511   */\n      tag_400\n      jump\t// in\n    tag_501:\n        /* \"#utility.yul\":3430:3511   */\n      swap2\n      pop\n        /* \"#utility.yul\":3287:3522   */\n      pop\n        /* \"#utility.yul\":3605:3609   */\n      0x40\n        /* \"#utility.yul\":3598:3603   */\n      dup4\n        /* \"#utility.yul\":3594:3610   */\n      add\n        /* \"#utility.yul\":3588:3611   */\n      mload\n        /* \"#utility.yul\":3624:3687   */\n      tag_502\n        /* \"#utility.yul\":3681:3685   */\n      0x40\n        /* \"#utility.yul\":3676:3679   */\n      dup7\n        /* \"#utility.yul\":3672:3686   */\n      add\n        /* \"#utility.yul\":3658:3670   */\n      dup3\n        /* \"#utility.yul\":3624:3687   */\n      tag_395\n      jump\t// in\n    tag_502:\n        /* \"#utility.yul\":3532:3697   */\n      pop\n        /* \"#utility.yul\":3714:3718   */\n      dup1\n        /* \"#utility.yul\":3707:3718   */\n      swap2\n      pop\n        /* \"#utility.yul\":3069:3724   */\n      pop\n        /* \"#utility.yul\":2955:3724   */\n      swap3\n      swap2\n      pop\n      pop\n      jump\t// out\n        /* \"#utility.yul\":3730:3986   */\n    tag_402:\n        /* \"#utility.yul\":3849:3859   */\n      0x00\n        /* \"#utility.yul\":3884:3980   */\n      tag_504\n        /* \"#utility.yul\":3976:3979   */\n      dup4\n        /* \"#utility.yul\":3968:3974   */\n      dup4\n        /* \"#utility.yul\":3884:3980   */\n      tag_401\n      jump\t// in\n    tag_504:\n        /* \"#utility.yul\":3870:3980   */\n      swap1\n      pop\n        /* \"#utility.yul\":3730:3986   */\n      swap3\n      swap2\n      pop\n      pop\n      jump\t// out\n        /* \"#utility.yul\":3992:4130   */\n    tag_403:\n        /* \"#utility.yul\":4087:4091   */\n      0x00\n        /* \"#utility.yul\":4119:4123   */\n      0x20\n        /* \"#utility.yul\":4114:4117   */\n      dup3\n        /* \"#utility.yul\":4110:4124   */\n      add\n        /* \"#utility.yul\":4102:4124   */\n      swap1\n      pop\n        /* \"#utility.yul\":3992:4130   */\n      swap2\n      swap1\n      pop\n      jump\t// out\n        /* \"#utility.yul\":4206:5317   */\n    tag_404:\n        /* \"#utility.yul\":4375:4378   */\n      0x00\n        /* \"#utility.yul\":4404:4483   */\n      tag_507\n        /* \"#utility.yul\":4477:4482   */\n      dup3\n        /* \"#utility.yul\":4404:4483   */\n      tag_391\n      jump\t// in\n    tag_507:\n        /* \"#utility.yul\":4499:4610   */\n      tag_508\n        /* \"#utility.yul\":4603:4609   */\n      dup2\n        /* \"#utility.yul\":4598:4601   */\n      dup6\n        /* \"#utility.yul\":4499:4610   */\n      tag_392\n      jump\t// in\n    tag_508:\n        /* \"#utility.yul\":4492:4610   */\n      swap4\n      pop\n        /* \"#utility.yul\":4636:4639   */\n      dup4\n        /* \"#utility.yul\":4681:4685   */\n      0x20\n        /* \"#utility.yul\":4673:4679   */\n      dup3\n        /* \"#utility.yul\":4669:4686   */\n      mul\n        /* \"#utility.yul\":4664:4667   */\n      dup6\n        /* \"#utility.yul\":4660:4687   */\n      add\n        /* \"#utility.yul\":4711:4792   */\n      tag_509\n        /* \"#utility.yul\":4786:4791   */\n      dup6\n        /* \"#utility.yul\":4711:4792   */\n      tag_393\n      jump\t// in\n    tag_509:\n        /* \"#utility.yul\":4815:4822   */\n      dup1\n        /* \"#utility.yul\":4846:4847   */\n      0x00\n        /* \"#utility.yul\":4831:5272   */\n    tag_510:\n        /* \"#utility.yul\":4856:4862   */\n      dup6\n        /* \"#utility.yul\":4853:4854   */\n      dup2\n        /* \"#utility.yul\":4850:4863   */\n      lt\n        /* \"#utility.yul\":4831:5272   */\n      iszero\n      tag_512\n      jumpi\n        /* \"#utility.yul\":4927:4936   */\n      dup5\n        /* \"#utility.yul\":4921:4925   */\n      dup5\n        /* \"#utility.yul\":4917:4937   */\n      sub\n        /* \"#utility.yul\":4912:4915   */\n      dup10\n        /* \"#utility.yul\":4905:4938   */\n      mstore\n        /* \"#utility.yul\":4978:4984   */\n      dup2\n        /* \"#utility.yul\":4972:4985   */\n      mload\n        /* \"#utility.yul\":5006:5120   */\n      tag_513\n        /* \"#utility.yul\":5115:5119   */\n      dup6\n        /* \"#utility.yul\":5100:5113   */\n      dup3\n        /* \"#utility.yul\":5006:5120   */\n      tag_402\n      jump\t// in\n    tag_513:\n        /* \"#utility.yul\":4998:5120   */\n      swap5\n      pop\n        /* \"#utility.yul\":5143:5228   */\n      tag_514\n        /* \"#utility.yul\":5221:5227   */\n      dup4\n        /* \"#utility.yul\":5143:5228   */\n      tag_403\n      jump\t// in\n    tag_514:\n        /* \"#utility.yul\":5133:5228   */\n      swap3\n      pop\n        /* \"#utility.yul\":5257:5261   */\n      0x20\n        /* \"#utility.yul\":5252:5255   */\n      dup11\n        /* \"#utility.yul\":5248:5262   */\n      add\n        /* \"#utility.yul\":5241:5262   */\n      swap10\n      pop\n        /* \"#utility.yul\":4891:5272   */\n      pop\n        /* \"#utility.yul\":4878:4879   */\n      0x01\n        /* \"#utility.yul\":4875:4876   */\n      dup2\n        /* \"#utility.yul\":4871:4880   */\n      add\n        /* \"#utility.yul\":4866:4880   */\n      swap1\n      pop\n        /* \"#utility.yul\":4831:5272   */\n      jump(tag_510)\n    tag_512:\n        /* \"#utility.yul\":4835:4849   */\n      pop\n        /* \"#utility.yul\":5288:5292   */\n      dup3\n        /* \"#utility.yul\":5281:5292   */\n      swap8\n      pop\n        /* \"#utility.yul\":5308:5311   */\n      dup8\n        /* \"#utility.yul\":5301:5311   */\n      swap6\n      pop\n        /* \"#utility.yul\":4380:5317   */\n      pop\n      pop\n      pop\n      pop\n      pop\n        /* \"#utility.yul\":4206:5317   */\n      swap3\n      swap2\n      pop\n      pop\n      jump\t// out\n        /* \"#utility.yul\":5323:5796   */\n    tag_34:\n        /* \"#utility.yul\":5516:5520   */\n      0x00\n        /* \"#utility.yul\":5554:5556   */\n      0x20\n        /* \"#utility.yul\":5543:5552   */\n      dup3\n        /* \"#utility.yul\":5539:5557   */\n      add\n        /* \"#utility.yul\":5531:5557   */\n      swap1\n      pop\n        /* \"#utility.yul\":5603:5612   */\n      dup2\n        /* \"#utility.yul\":5597:5601   */\n      dup2\n        /* \"#utility.yul\":5593:5613   */\n      sub\n        /* \"#utility.yul\":5589:5590   */\n      0x00\n        /* \"#utility.yul\":5578:5587   */\n      dup4\n        /* \"#utility.yul\":5574:5591   */\n      add\n        /* \"#utility.yul\":5567:5614   */\n      mstore\n        /* \"#utility.yul\":5631:5789   */\n      tag_516\n        /* \"#utility.yul\":5784:5788   */\n      dup2\n        /* \"#utility.yul\":5775:5781   */\n      dup5\n        /* \"#utility.yul\":5631:5789   */\n      tag_404\n      jump\t// in\n    tag_516:\n        /* \"#utility.yul\":5623:5789   */\n      swap1\n      pop\n        /* \"#utility.yul\":5323:5796   */\n      swap3\n      swap2\n      pop\n      pop\n      jump\t// out\n        /* \"#utility.yul\":5802:5951   */\n    tag_405:\n        /* \"#utility.yul\":5838:5845   */\n      0x00\n        /* \"#utility.yul\":5878:5944   */\n      0xffffffff00000000000000000000000000000000000000000000000000000000\n        /* \"#utility.yul\":5871:5876   */\n      dup3\n        /* \"#utility.yul\":5867:5945   */\n      and\n        /* \"#utility.yul\":5856:5945   */\n      swap1\n      pop\n        /* \"#utility.yul\":5802:5951   */\n      swap2\n      swap1\n      pop\n      jump\t// out\n        /* \"#utility.yul\":5957:6077   */\n    tag_406:\n        /* \"#utility.yul\":6029:6052   */\n      tag_519\n        /* \"#utility.yul\":6046:6051   */\n      dup2\n        /* \"#utility.yul\":6029:6052   */\n      tag_405\n      jump\t// in\n    tag_519:\n        /* \"#utility.yul\":6022:6027   */\n      dup2\n        /* \"#utility.yul\":6019:6053   */\n      eq\n        /* \"#utility.yul\":6009:6071   */\n      tag_520\n      jumpi\n        /* \"#utility.yul\":6067:6068   */\n      0x00\n        /* \"#utility.yul\":6064:6065   */\n      dup1\n        /* \"#utility.yul\":6057:6069   */\n      revert\n        /* \"#utility.yul\":6009:6071   */\n    tag_520:\n        /* \"#utility.yul\":5957:6077   */\n      pop\n      jump\t// out\n        /* \"#utility.yul\":6083:6220   */\n    tag_407:\n        /* \"#utility.yul\":6128:6133   */\n      0x00\n        /* \"#utility.yul\":6166:6172   */\n      dup2\n        /* \"#utility.yul\":6153:6173   */\n      calldataload\n        /* \"#utility.yul\":6144:6173   */\n      swap1\n      pop\n        /* \"#utility.yul\":6182:6214   */\n      tag_522\n        /* \"#utility.yul\":6208:6213   */\n      dup2\n        /* \"#utility.yul\":6182:6214   */\n      tag_406\n      jump\t// in\n    tag_522:\n        /* \"#utility.yul\":6083:6220   */\n      swap3\n      swap2\n      pop\n      pop\n      jump\t// out\n        /* \"#utility.yul\":6226:6553   */\n    tag_37:\n        /* \"#utility.yul\":6284:6290   */\n      0x00\n        /* \"#utility.yul\":6333:6335   */\n      0x20\n        /* \"#utility.yul\":6321:6330   */\n      dup3\n        /* \"#utility.yul\":6312:6319   */\n      dup5\n        /* \"#utility.yul\":6308:6331   */\n      sub\n        /* \"#utility.yul\":6304:6336   */\n      slt\n        /* \"#utility.yul\":6301:6420   */\n      iszero\n      tag_524\n      jumpi\n        /* \"#utility.yul\":6339:6418   */\n      tag_525\n      tag_385\n      jump\t// in\n    tag_525:\n        /* \"#utility.yul\":6301:6420   */\n    tag_524:\n        /* \"#utility.yul\":6459:6460   */\n      0x00\n        /* \"#utility.yul\":6484:6536   */\n      tag_526\n        /* \"#utility.yul\":6528:6535   */\n      dup5\n        /* \"#utility.yul\":6519:6525   */\n      dup3\n        /* \"#utility.yul\":6508:6517   */\n      dup6\n        /* \"#utility.yul\":6504:6526   */\n      add\n        /* \"#utility.yul\":6484:6536   */\n      tag_407\n      jump\t// in\n    tag_526:\n        /* \"#utility.yul\":6474:6536   */\n      swap2\n      pop\n        /* \"#utility.yul\":6430:6546   */\n      pop\n        /* \"#utility.yul\":6226:6553   */\n      swap3\n      swap2\n      pop\n      pop\n      jump\t// out\n        /* \"#utility.yul\":6559:6649   */\n    tag_408:\n        /* \"#utility.yul\":6593:6600   */\n      0x00\n        /* \"#utility.yul\":6636:6641   */\n      dup2\n        /* \"#utility.yul\":6629:6642   */\n      iszero\n        /* \"#utility.yul\":6622:6643   */\n      iszero\n        /* \"#utility.yul\":6611:6643   */\n      swap1\n      pop\n        /* \"#utility.yul\":6559:6649   */\n      swap2\n      swap1\n      pop\n      jump\t// out\n        /* \"#utility.yul\":6655:6764   */\n    tag_409:\n        /* \"#utility.yul\":6736:6757   */\n      tag_529\n        /* \"#utility.yul\":6751:6756   */\n      dup2\n        /* \"#utility.yul\":6736:6757   */\n      tag_408\n      jump\t// in\n    tag_529:\n        /* \"#utility.yul\":6731:6734   */\n      dup3\n        /* \"#utility.yul\":6724:6758   */\n      mstore\n        /* \"#utility.yul\":6655:6764   */\n      pop\n      pop\n      jump\t// out\n        /* \"#utility.yul\":6770:6980   */\n    tag_40:\n        /* \"#utility.yul\":6857:6861   */\n      0x00\n        /* \"#utility.yul\":6895:6897   */\n      0x20\n        /* \"#utility.yul\":6884:6893   */\n      dup3\n        /* \"#utility.yul\":6880:6898   */\n      add\n        /* \"#utility.yul\":6872:6898   */\n      swap1\n      pop\n        /* \"#utility.yul\":6908:6973   */\n      tag_531\n        /* \"#utility.yul\":6970:6971   */\n      0x00\n        /* \"#utility.yul\":6959:6968   */\n      dup4\n        /* \"#utility.yul\":6955:6972   */\n      add\n        /* \"#utility.yul\":6946:6952   */\n      dup5\n        /* \"#utility.yul\":6908:6973   */\n      tag_409\n      jump\t// in\n    tag_531:\n        /* \"#utility.yul\":6770:6980   */\n      swap3\n      swap2\n      pop\n      pop\n      jump\t// out\n        /* \"#utility.yul\":6986:7155   */\n    tag_410:\n        /* \"#utility.yul\":7070:7081   */\n      0x00\n        /* \"#utility.yul\":7104:7110   */\n      dup3\n        /* \"#utility.yul\":7099:7102   */\n      dup3\n        /* \"#utility.yul\":7092:7111   */\n      mstore\n        /* \"#utility.yul\":7144:7148   */\n      0x20\n        /* \"#utility.yul\":7139:7142   */\n      dup3\n        /* \"#utility.yul\":7135:7149   */\n      add\n        /* \"#utility.yul\":7120:7149   */\n      swap1\n      pop\n        /* \"#utility.yul\":6986:7155   */\n      swap3\n      swap2\n      pop\n      pop\n      jump\t// out\n        /* \"#utility.yul\":7161:7538   */\n    tag_411:\n        /* \"#utility.yul\":7249:7252   */\n      0x00\n        /* \"#utility.yul\":7277:7316   */\n      tag_534\n        /* \"#utility.yul\":7310:7315   */\n      dup3\n        /* \"#utility.yul\":7277:7316   */\n      tag_396\n      jump\t// in\n    tag_534:\n        /* \"#utility.yul\":7332:7403   */\n      tag_535\n        /* \"#utility.yul\":7396:7402   */\n      dup2\n        /* \"#utility.yul\":7391:7394   */\n      dup6\n        /* \"#utility.yul\":7332:7403   */\n      tag_410\n      jump\t// in\n    tag_535:\n        /* \"#utility.yul\":7325:7403   */\n      swap4\n      pop\n        /* \"#utility.yul\":7412:7477   */\n      tag_536\n        /* \"#utility.yul\":7470:7476   */\n      dup2\n        /* \"#utility.yul\":7465:7468   */\n      dup6\n        /* \"#utility.yul\":7458:7462   */\n      0x20\n        /* \"#utility.yul\":7451:7456   */\n      dup7\n        /* \"#utility.yul\":7447:7463   */\n      add\n        /* \"#utility.yul\":7412:7477   */\n      tag_398\n      jump\t// in\n    tag_536:\n        /* \"#utility.yul\":7502:7531   */\n      tag_537\n        /* \"#utility.yul\":7524:7530   */\n      dup2\n        /* \"#utility.yul\":7502:7531   */\n      tag_399\n      jump\t// in\n    tag_537:\n        /* \"#utility.yul\":7497:7500   */\n      dup5\n        /* \"#utility.yul\":7493:7532   */\n      add\n        /* \"#utility.yul\":7486:7532   */\n      swap2\n      pop\n        /* \"#utility.yul\":7253:7538   */\n      pop\n        /* \"#utility.yul\":7161:7538   */\n      swap3\n      swap2\n      pop\n      pop\n      jump\t// out\n        /* \"#utility.yul\":7544:7857   */\n    tag_44:\n        /* \"#utility.yul\":7657:7661   */\n      0x00\n        /* \"#utility.yul\":7695:7697   */\n      0x20\n        /* \"#utility.yul\":7684:7693   */\n      dup3\n        /* \"#utility.yul\":7680:7698   */\n      add\n        /* \"#utility.yul\":7672:7698   */\n      swap1\n      pop\n        /* \"#utility.yul\":7744:7753   */\n      dup2\n        /* \"#utility.yul\":7738:7742   */\n      dup2\n        /* \"#utility.yul\":7734:7754   */\n      sub\n        /* \"#utility.yul\":7730:7731   */\n      0x00\n        /* \"#utility.yul\":7719:7728   */\n      dup4\n        /* \"#utility.yul\":7715:7732   */\n      add\n        /* \"#utility.yul\":7708:7755   */\n      mstore\n        /* \"#utility.yul\":7772:7850   */\n      tag_539\n        /* \"#utility.yul\":7845:7849   */\n      dup2\n        /* \"#utility.yul\":7836:7842   */\n      dup5\n        /* \"#utility.yul\":7772:7850   */\n      tag_411\n      jump\t// in\n    tag_539:\n        /* \"#utility.yul\":7764:7850   */\n      swap1\n      pop\n        /* \"#utility.yul\":7544:7857   */\n      swap3\n      swap2\n      pop\n      pop\n      jump\t// out\n        /* \"#utility.yul\":7863:7985   */\n    tag_412:\n        /* \"#utility.yul\":7936:7960   */\n      tag_541\n        /* \"#utility.yul\":7954:7959   */\n      dup2\n        /* \"#utility.yul\":7936:7960   */\n      tag_394\n      jump\t// in\n    tag_541:\n        /* \"#utility.yul\":7929:7934   */\n      dup2\n        /* \"#utility.yul\":7926:7961   */\n      eq\n        /* \"#utility.yul\":7916:7979   */\n      tag_542\n      jumpi\n        /* \"#utility.yul\":7975:7976   */\n      0x00\n        /* \"#utility.yul\":7972:7973   */\n      dup1\n        /* \"#utility.yul\":7965:7977   */\n      revert\n        /* \"#utility.yul\":7916:7979   */\n    tag_542:\n        /* \"#utility.yul\":7863:7985   */\n      pop\n      jump\t// out\n        /* \"#utility.yul\":7991:8130   */\n    tag_413:\n        /* \"#utility.yul\":8037:8042   */\n      0x00\n        /* \"#utility.yul\":8075:8081   */\n      dup2\n        /* \"#utility.yul\":8062:8082   */\n      calldataload\n        /* \"#utility.yul\":8053:8082   */\n      swap1\n      pop\n        /* \"#utility.yul\":8091:8124   */\n      tag_544\n        /* \"#utility.yul\":8118:8123   */\n      dup2\n        /* \"#utility.yul\":8091:8124   */\n      tag_412\n      jump\t// in\n    tag_544:\n        /* \"#utility.yul\":7991:8130   */\n      swap3\n      swap2\n      pop\n      pop\n      jump\t// out\n        /* \"#utility.yul\":8136:8465   */\n    tag_47:\n        /* \"#utility.yul\":8195:8201   */\n      0x00\n        /* \"#utility.yul\":8244:8246   */\n      0x20\n        /* \"#utility.yul\":8232:8241   */\n      dup3\n        /* \"#utility.yul\":8223:8230   */\n      dup5\n        /* \"#utility.yul\":8219:8242   */\n      sub\n        /* \"#utility.yul\":8215:8247   */\n      slt\n        /* \"#utility.yul\":8212:8331   */\n      iszero\n      tag_546\n      jumpi\n        /* \"#utility.yul\":8250:8329   */\n      tag_547\n      tag_385\n      jump\t// in\n    tag_547:\n        /* \"#utility.yul\":8212:8331   */\n    tag_546:\n        /* \"#utility.yul\":8370:8371   */\n      0x00\n        /* \"#utility.yul\":8395:8448   */\n      tag_548\n        /* \"#utility.yul\":8440:8447   */\n      dup5\n        /* \"#utility.yul\":8431:8437   */\n      dup3\n        /* \"#utility.yul\":8420:8429   */\n      dup6\n        /* \"#utility.yul\":8416:8438   */\n      add\n        /* \"#utility.yul\":8395:8448   */\n      tag_413\n      jump\t// in\n    tag_548:\n        /* \"#utility.yul\":8385:8448   */\n      swap2\n      pop\n        /* \"#utility.yul\":8341:8458   */\n      pop\n        /* \"#utility.yul\":8136:8465   */\n      swap3\n      swap2\n      pop\n      pop\n      jump\t// out\n        /* \"#utility.yul\":8471:8589   */\n    tag_414:\n        /* \"#utility.yul\":8558:8582   */\n      tag_550\n        /* \"#utility.yul\":8576:8581   */\n      dup2\n        /* \"#utility.yul\":8558:8582   */\n      tag_388\n      jump\t// in\n    tag_550:\n        /* \"#utility.yul\":8553:8556   */\n      dup3\n        /* \"#utility.yul\":8546:8583   */\n      mstore\n        /* \"#utility.yul\":8471:8589   */\n      pop\n      pop\n      jump\t// out\n        /* \"#utility.yul\":8595:8817   */\n    tag_50:\n        /* \"#utility.yul\":8688:8692   */\n      0x00\n        /* \"#utility.yul\":8726:8728   */\n      0x20\n        /* \"#utility.yul\":8715:8724   */\n      dup3\n        /* \"#utility.yul\":8711:8729   */\n      add\n        /* \"#utility.yul\":8703:8729   */\n      swap1\n      pop\n        /* \"#utility.yul\":8739:8810   */\n      tag_552\n        /* \"#utility.yul\":8807:8808   */\n      0x00\n        /* \"#utility.yul\":8796:8805   */\n      dup4\n        /* \"#utility.yul\":8792:8809   */\n      add\n        /* \"#utility.yul\":8783:8789   */\n      dup5\n        /* \"#utility.yul\":8739:8810   */\n      tag_414\n      jump\t// in\n    tag_552:\n        /* \"#utility.yul\":8595:8817   */\n      swap3\n      swap2\n      pop\n      pop\n      jump\t// out\n        /* \"#utility.yul\":8823:9297   */\n    tag_53:\n        /* \"#utility.yul\":8891:8897   */\n      0x00\n        /* \"#utility.yul\":8899:8905   */\n      dup1\n        /* \"#utility.yul\":8948:8950   */\n      0x40\n        /* \"#utility.yul\":8936:8945   */\n      dup4\n        /* \"#utility.yul\":8927:8934   */\n      dup6\n        /* \"#utility.yul\":8923:8946   */\n      sub\n        /* \"#utility.yul\":8919:8951   */\n      slt\n        /* \"#utility.yul\":8916:9035   */\n      iszero\n      tag_554\n      jumpi\n        /* \"#utility.yul\":8954:9033   */\n      tag_555\n      tag_385\n      jump\t// in\n    tag_555:\n        /* \"#utility.yul\":8916:9035   */\n    tag_554:\n        /* \"#utility.yul\":9074:9075   */\n      0x00\n        /* \"#utility.yul\":9099:9152   */\n      tag_556\n        /* \"#utility.yul\":9144:9151   */\n      dup6\n        /* \"#utility.yul\":9135:9141   */\n      dup3\n        /* \"#utility.yul\":9124:9133   */\n      dup7\n        /* \"#utility.yul\":9120:9142   */\n      add\n        /* \"#utility.yul\":9099:9152   */\n      tag_390\n      jump\t// in\n    tag_556:\n        /* \"#utility.yul\":9089:9152   */\n      swap3\n      pop\n        /* \"#utility.yul\":9045:9162   */\n      pop\n        /* \"#utility.yul\":9201:9203   */\n      0x20\n        /* \"#utility.yul\":9227:9280   */\n      tag_557\n        /* \"#utility.yul\":9272:9279   */\n      dup6\n        /* \"#utility.yul\":9263:9269   */\n      dup3\n        /* \"#utility.yul\":9252:9261   */\n      dup7\n        /* \"#utility.yul\":9248:9270   */\n      add\n        /* \"#utility.yul\":9227:9280   */\n      tag_413\n      jump\t// in\n    tag_557:\n        /* \"#utility.yul\":9217:9280   */\n      swap2\n      pop\n        /* \"#utility.yul\":9172:9290   */\n      pop\n        /* \"#utility.yul\":8823:9297   */\n      swap3\n      pop\n      swap3\n      swap1\n      pop\n      jump\t// out\n        /* \"#utility.yul\":9303:9922   */\n    tag_57:\n        /* \"#utility.yul\":9380:9386   */\n      0x00\n        /* \"#utility.yul\":9388:9394   */\n      dup1\n        /* \"#utility.yul\":9396:9402   */\n      0x00\n        /* \"#utility.yul\":9445:9447   */\n      0x60\n        /* \"#utility.yul\":9433:9442   */\n      dup5\n        /* \"#utility.yul\":9424:9431   */\n      dup7\n        /* \"#utility.yul\":9420:9443   */\n      sub\n        /* \"#utility.yul\":9416:9448   */\n      slt\n        /* \"#utility.yul\":9413:9532   */\n      iszero\n      tag_559\n      jumpi\n        /* \"#utility.yul\":9451:9530   */\n      tag_560\n      tag_385\n      jump\t// in\n    tag_560:\n        /* \"#utility.yul\":9413:9532   */\n    tag_559:\n        /* \"#utility.yul\":9571:9572   */\n      0x00\n        /* \"#utility.yul\":9596:9649   */\n      tag_561\n        /* \"#utility.yul\":9641:9648   */\n      dup7\n        /* \"#utility.yul\":9632:9638   */\n      dup3\n        /* \"#utility.yul\":9621:9630   */\n      dup8\n        /* \"#utility.yul\":9617:9639   */\n      add\n        /* \"#utility.yul\":9596:9649   */\n      tag_390\n      jump\t// in\n    tag_561:\n        /* \"#utility.yul\":9586:9649   */\n      swap4\n      pop\n        /* \"#utility.yul\":9542:9659   */\n      pop\n        /* \"#utility.yul\":9698:9700   */\n      0x20\n        /* \"#utility.yul\":9724:9777   */\n      tag_562\n        /* \"#utility.yul\":9769:9776   */\n      dup7\n        /* \"#utility.yul\":9760:9766   */\n      dup3\n        /* \"#utility.yul\":9749:9758   */\n      dup8\n        /* \"#utility.yul\":9745:9767   */\n      add\n        /* \"#utility.yul\":9724:9777   */\n      tag_390\n      jump\t// in\n    tag_562:\n        /* \"#utility.yul\":9714:9777   */\n      swap3\n      pop\n        /* \"#utility.yul\":9669:9787   */\n      pop\n        /* \"#utility.yul\":9826:9828   */\n      0x40\n        /* \"#utility.yul\":9852:9905   */\n      tag_563\n        /* \"#utility.yul\":9897:9904   */\n      dup7\n        /* \"#utility.yul\":9888:9894   */\n      dup3\n        /* \"#utility.yul\":9877:9886   */\n      dup8\n        /* \"#utility.yul\":9873:9895   */\n      add\n        /* \"#utility.yul\":9852:9905   */\n      tag_413\n      jump\t// in\n    tag_563:\n        /* \"#utility.yul\":9842:9905   */\n      swap2\n      pop\n        /* \"#utility.yul\":9797:9915   */\n      pop\n        /* \"#utility.yul\":9303:9922   */\n      swap3\n      pop\n      swap3\n      pop\n      swap3\n      jump\t// out\n        /* \"#utility.yul\":9928:10046   */\n    tag_415:\n        /* \"#utility.yul\":10015:10039   */\n      tag_565\n        /* \"#utility.yul\":10033:10038   */\n      dup2\n        /* \"#utility.yul\":10015:10039   */\n      tag_394\n      jump\t// in\n    tag_565:\n        /* \"#utility.yul\":10010:10013   */\n      dup3\n        /* \"#utility.yul\":10003:10040   */\n      mstore\n        /* \"#utility.yul\":9928:10046   */\n      pop\n      pop\n      jump\t// out\n        /* \"#utility.yul\":10052:10274   */\n    tag_65:\n        /* \"#utility.yul\":10145:10149   */\n      0x00\n        /* \"#utility.yul\":10183:10185   */\n      0x20\n        /* \"#utility.yul\":10172:10181   */\n      dup3\n        /* \"#utility.yul\":10168:10186   */\n      add\n        /* \"#utility.yul\":10160:10186   */\n      swap1\n      pop\n        /* \"#utility.yul\":10196:10267   */\n      tag_567\n        /* \"#utility.yul\":10264:10265   */\n      0x00\n        /* \"#utility.yul\":10253:10262   */\n      dup4\n        /* \"#utility.yul\":10249:10266   */\n      add\n        /* \"#utility.yul\":10240:10246   */\n      dup5\n        /* \"#utility.yul\":10196:10267   */\n      tag_415\n      jump\t// in\n    tag_567:\n        /* \"#utility.yul\":10052:10274   */\n      swap3\n      swap2\n      pop\n      pop\n      jump\t// out\n        /* \"#utility.yul\":10280:10813   */\n    tag_80:\n        /* \"#utility.yul\":10449:10453   */\n      0x00\n        /* \"#utility.yul\":10487:10489   */\n      0x60\n        /* \"#utility.yul\":10476:10485   */\n      dup3\n        /* \"#utility.yul\":10472:10490   */\n      add\n        /* \"#utility.yul\":10464:10490   */\n      swap1\n      pop\n        /* \"#utility.yul\":10500:10571   */\n      tag_569\n        /* \"#utility.yul\":10568:10569   */\n      0x00\n        /* \"#utility.yul\":10557:10566   */\n      dup4\n        /* \"#utility.yul\":10553:10570   */\n      add\n        /* \"#utility.yul\":10544:10550   */\n      dup7\n        /* \"#utility.yul\":10500:10571   */\n      tag_415\n      jump\t// in\n    tag_569:\n        /* \"#utility.yul\":10618:10627   */\n      dup2\n        /* \"#utility.yul\":10612:10616   */\n      dup2\n        /* \"#utility.yul\":10608:10628   */\n      sub\n        /* \"#utility.yul\":10603:10605   */\n      0x20\n        /* \"#utility.yul\":10592:10601   */\n      dup4\n        /* \"#utility.yul\":10588:10606   */\n      add\n        /* \"#utility.yul\":10581:10629   */\n      mstore\n        /* \"#utility.yul\":10646:10724   */\n      tag_570\n        /* \"#utility.yul\":10719:10723   */\n      dup2\n        /* \"#utility.yul\":10710:10716   */\n      dup6\n        /* \"#utility.yul\":10646:10724   */\n      tag_411\n      jump\t// in\n    tag_570:\n        /* \"#utility.yul\":10638:10724   */\n      swap1\n      pop\n        /* \"#utility.yul\":10734:10806   */\n      tag_571\n        /* \"#utility.yul\":10802:10804   */\n      0x40\n        /* \"#utility.yul\":10791:10800   */\n      dup4\n        /* \"#utility.yul\":10787:10805   */\n      add\n        /* \"#utility.yul\":10778:10784   */\n      dup5\n        /* \"#utility.yul\":10734:10806   */\n      tag_415\n      jump\t// in\n    tag_571:\n        /* \"#utility.yul\":10280:10813   */\n      swap5\n      swap4\n      pop\n      pop\n      pop\n      pop\n      jump\t// out\n        /* \"#utility.yul\":10819:10935   */\n    tag_416:\n        /* \"#utility.yul\":10889:10910   */\n      tag_573\n        /* \"#utility.yul\":10904:10909   */\n      dup2\n        /* \"#utility.yul\":10889:10910   */\n      tag_408\n      jump\t// in\n    tag_573:\n        /* \"#utility.yul\":10882:10887   */\n      dup2\n        /* \"#utility.yul\":10879:10911   */\n      eq\n        /* \"#utility.yul\":10869:10929   */\n      tag_574\n      jumpi\n        /* \"#utility.yul\":10925:10926   */\n      0x00\n        /* \"#utility.yul\":10922:10923   */\n      dup1\n        /* \"#utility.yul\":10915:10927   */\n      revert\n        /* \"#utility.yul\":10869:10929   */\n    tag_574:\n        /* \"#utility.yul\":10819:10935   */\n      pop\n      jump\t// out\n        /* \"#utility.yul\":10941:11074   */\n    tag_417:\n        /* \"#utility.yul\":10984:10989   */\n      0x00\n        /* \"#utility.yul\":11022:11028   */\n      dup2\n        /* \"#utility.yul\":11009:11029   */\n      calldataload\n        /* \"#utility.yul\":11000:11029   */\n      swap1\n      pop\n        /* \"#utility.yul\":11038:11068   */\n      tag_576\n        /* \"#utility.yul\":11062:11067   */\n      dup2\n        /* \"#utility.yul\":11038:11068   */\n      tag_416\n      jump\t// in\n    tag_576:\n        /* \"#utility.yul\":10941:11074   */\n      swap3\n      swap2\n      pop\n      pop\n      jump\t// out\n        /* \"#utility.yul\":11080:11548   */\n    tag_92:\n        /* \"#utility.yul\":11145:11151   */\n      0x00\n        /* \"#utility.yul\":11153:11159   */\n      dup1\n        /* \"#utility.yul\":11202:11204   */\n      0x40\n        /* \"#utility.yul\":11190:11199   */\n      dup4\n        /* \"#utility.yul\":11181:11188   */\n      dup6\n        /* \"#utility.yul\":11177:11200   */\n      sub\n        /* \"#utility.yul\":11173:11205   */\n      slt\n        /* \"#utility.yul\":11170:11289   */\n      iszero\n      tag_578\n      jumpi\n        /* \"#utility.yul\":11208:11287   */\n      tag_579\n      tag_385\n      jump\t// in\n    tag_579:\n        /* \"#utility.yul\":11170:11289   */\n    tag_578:\n        /* \"#utility.yul\":11328:11329   */\n      0x00\n        /* \"#utility.yul\":11353:11406   */\n      tag_580\n        /* \"#utility.yul\":11398:11405   */\n      dup6\n        /* \"#utility.yul\":11389:11395   */\n      dup3\n        /* \"#utility.yul\":11378:11387   */\n      dup7\n        /* \"#utility.yul\":11374:11396   */\n      add\n        /* \"#utility.yul\":11353:11406   */\n      tag_390\n      jump\t// in\n    tag_580:\n        /* \"#utility.yul\":11343:11406   */\n      swap3\n      pop\n        /* \"#utility.yul\":11299:11416   */\n      pop\n        /* \"#utility.yul\":11455:11457   */\n      0x20\n        /* \"#utility.yul\":11481:11531   */\n      tag_581\n        /* \"#utility.yul\":11523:11530   */\n      dup6\n        /* \"#utility.yul\":11514:11520   */\n      dup3\n        /* \"#utility.yul\":11503:11512   */\n      dup7\n        /* \"#utility.yul\":11499:11521   */\n      add\n        /* \"#utility.yul\":11481:11531   */\n      tag_417\n      jump\t// in\n    tag_581:\n        /* \"#utility.yul\":11471:11531   */\n      swap2\n      pop\n        /* \"#utility.yul\":11426:11541   */\n      pop\n        /* \"#utility.yul\":11080:11548   */\n      swap3\n      pop\n      swap3\n      swap1\n      pop\n      jump\t// out\n        /* \"#utility.yul\":11554:11671   */\n    tag_418:\n        /* \"#utility.yul\":11663:11664   */\n      0x00\n        /* \"#utility.yul\":11660:11661   */\n      dup1\n        /* \"#utility.yul\":11653:11665   */\n      revert\n        /* \"#utility.yul\":11677:11794   */\n    tag_419:\n        /* \"#utility.yul\":11786:11787   */\n      0x00\n        /* \"#utility.yul\":11783:11784   */\n      dup1\n        /* \"#utility.yul\":11776:11788   */\n      revert\n        /* \"#utility.yul\":11800:11980   */\n    tag_127:\n        /* \"#utility.yul\":11848:11925   */\n      0x4e487b7100000000000000000000000000000000000000000000000000000000\n        /* \"#utility.yul\":11845:11846   */\n      0x00\n        /* \"#utility.yul\":11838:11926   */\n      mstore\n        /* \"#utility.yul\":11945:11949   */\n      0x41\n        /* \"#utility.yul\":11942:11943   */\n      0x04\n        /* \"#utility.yul\":11935:11950   */\n      mstore\n        /* \"#utility.yul\":11969:11973   */\n      0x24\n        /* \"#utility.yul\":11966:11967   */\n      0x00\n        /* \"#utility.yul\":11959:11974   */\n      revert\n        /* \"#utility.yul\":11986:12267   */\n    tag_420:\n        /* \"#utility.yul\":12069:12096   */\n      tag_586\n        /* \"#utility.yul\":12091:12095   */\n      dup3\n        /* \"#utility.yul\":12069:12096   */\n      tag_399\n      jump\t// in\n    tag_586:\n        /* \"#utility.yul\":12061:12067   */\n      dup2\n        /* \"#utility.yul\":12057:12097   */\n      add\n        /* \"#utility.yul\":12199:12205   */\n      dup2\n        /* \"#utility.yul\":12187:12197   */\n      dup2\n        /* \"#utility.yul\":12184:12206   */\n      lt\n        /* \"#utility.yul\":12163:12181   */\n      0xffffffffffffffff\n        /* \"#utility.yul\":12151:12161   */\n      dup3\n        /* \"#utility.yul\":12148:12182   */\n      gt\n        /* \"#utility.yul\":12145:12207   */\n      or\n        /* \"#utility.yul\":12142:12230   */\n      iszero\n      tag_587\n      jumpi\n        /* \"#utility.yul\":12210:12228   */\n      tag_588\n      tag_127\n      jump\t// in\n    tag_588:\n        /* \"#utility.yul\":12142:12230   */\n    tag_587:\n        /* \"#utility.yul\":12250:12260   */\n      dup1\n        /* \"#utility.yul\":12246:12248   */\n      0x40\n        /* \"#utility.yul\":12239:12261   */\n      mstore\n        /* \"#utility.yul\":12029:12267   */\n      pop\n        /* \"#utility.yul\":11986:12267   */\n      pop\n      pop\n      jump\t// out\n        /* \"#utility.yul\":12273:12402   */\n    tag_421:\n        /* \"#utility.yul\":12307:12313   */\n      0x00\n        /* \"#utility.yul\":12334:12354   */\n      tag_590\n      tag_384\n      jump\t// in\n    tag_590:\n        /* \"#utility.yul\":12324:12354   */\n      swap1\n      pop\n        /* \"#utility.yul\":12363:12396   */\n      tag_591\n        /* \"#utility.yul\":12391:12395   */\n      dup3\n        /* \"#utility.yul\":12383:12389   */\n      dup3\n        /* \"#utility.yul\":12363:12396   */\n      tag_420\n      jump\t// in\n    tag_591:\n        /* \"#utility.yul\":12273:12402   */\n      swap2\n      swap1\n      pop\n      jump\t// out\n        /* \"#utility.yul\":12408:12716   */\n    tag_422:\n        /* \"#utility.yul\":12470:12474   */\n      0x00\n        /* \"#utility.yul\":12560:12578   */\n      0xffffffffffffffff\n        /* \"#utility.yul\":12552:12558   */\n      dup3\n        /* \"#utility.yul\":12549:12579   */\n      gt\n        /* \"#utility.yul\":12546:12602   */\n      iszero\n      tag_593\n      jumpi\n        /* \"#utility.yul\":12582:12600   */\n      tag_594\n      tag_127\n      jump\t// in\n    tag_594:\n        /* \"#utility.yul\":12546:12602   */\n    tag_593:\n        /* \"#utility.yul\":12620:12649   */\n      tag_595\n        /* \"#utility.yul\":12642:12648   */\n      dup3\n        /* \"#utility.yul\":12620:12649   */\n      tag_399\n      jump\t// in\n    tag_595:\n        /* \"#utility.yul\":12612:12649   */\n      swap1\n      pop\n        /* \"#utility.yul\":12704:12708   */\n      0x20\n        /* \"#utility.yul\":12698:12702   */\n      dup2\n        /* \"#utility.yul\":12694:12709   */\n      add\n        /* \"#utility.yul\":12686:12709   */\n      swap1\n      pop\n        /* \"#utility.yul\":12408:12716   */\n      swap2\n      swap1\n      pop\n      jump\t// out\n        /* \"#utility.yul\":12722:12868   */\n    tag_423:\n        /* \"#utility.yul\":12819:12825   */\n      dup3\n        /* \"#utility.yul\":12814:12817   */\n      dup2\n        /* \"#utility.yul\":12809:12812   */\n      dup4\n        /* \"#utility.yul\":12796:12826   */\n      calldatacopy\n        /* \"#utility.yul\":12860:12861   */\n      0x00\n        /* \"#utility.yul\":12851:12857   */\n      dup4\n        /* \"#utility.yul\":12846:12849   */\n      dup4\n        /* \"#utility.yul\":12842:12858   */\n      add\n        /* \"#utility.yul\":12835:12862   */\n      mstore\n        /* \"#utility.yul\":12722:12868   */\n      pop\n      pop\n      pop\n      jump\t// out\n        /* \"#utility.yul\":12874:13299   */\n    tag_424:\n        /* \"#utility.yul\":12952:12957   */\n      0x00\n        /* \"#utility.yul\":12977:13043   */\n      tag_598\n        /* \"#utility.yul\":12993:13042   */\n      tag_599\n        /* \"#utility.yul\":13035:13041   */\n      dup5\n        /* \"#utility.yul\":12993:13042   */\n      tag_422\n      jump\t// in\n    tag_599:\n        /* \"#utility.yul\":12977:13043   */\n      tag_421\n      jump\t// in\n    tag_598:\n        /* \"#utility.yul\":12968:13043   */\n      swap1\n      pop\n        /* \"#utility.yul\":13066:13072   */\n      dup3\n        /* \"#utility.yul\":13059:13064   */\n      dup2\n        /* \"#utility.yul\":13052:13073   */\n      mstore\n        /* \"#utility.yul\":13104:13108   */\n      0x20\n        /* \"#utility.yul\":13097:13102   */\n      dup2\n        /* \"#utility.yul\":13093:13109   */\n      add\n        /* \"#utility.yul\":13142:13145   */\n      dup5\n        /* \"#utility.yul\":13133:13139   */\n      dup5\n        /* \"#utility.yul\":13128:13131   */\n      dup5\n        /* \"#utility.yul\":13124:13140   */\n      add\n        /* \"#utility.yul\":13121:13146   */\n      gt\n        /* \"#utility.yul\":13118:13230   */\n      iszero\n      tag_600\n      jumpi\n        /* \"#utility.yul\":13149:13228   */\n      tag_601\n      tag_419\n      jump\t// in\n    tag_601:\n        /* \"#utility.yul\":13118:13230   */\n    tag_600:\n        /* \"#utility.yul\":13239:13293   */\n      tag_602\n        /* \"#utility.yul\":13286:13292   */\n      dup5\n        /* \"#utility.yul\":13281:13284   */\n      dup3\n        /* \"#utility.yul\":13276:13279   */\n      dup6\n        /* \"#utility.yul\":13239:13293   */\n      tag_423\n      jump\t// in\n    tag_602:\n        /* \"#utility.yul\":12958:13299   */\n      pop\n        /* \"#utility.yul\":12874:13299   */\n      swap4\n      swap3\n      pop\n      pop\n      pop\n      jump\t// out\n        /* \"#utility.yul\":13319:13659   */\n    tag_425:\n        /* \"#utility.yul\":13375:13380   */\n      0x00\n        /* \"#utility.yul\":13424:13427   */\n      dup3\n        /* \"#utility.yul\":13417:13421   */\n      0x1f\n        /* \"#utility.yul\":13409:13415   */\n      dup4\n        /* \"#utility.yul\":13405:13422   */\n      add\n        /* \"#utility.yul\":13401:13428   */\n      slt\n        /* \"#utility.yul\":13391:13513   */\n      tag_604\n      jumpi\n        /* \"#utility.yul\":13432:13511   */\n      tag_605\n      tag_418\n      jump\t// in\n    tag_605:\n        /* \"#utility.yul\":13391:13513   */\n    tag_604:\n        /* \"#utility.yul\":13549:13555   */\n      dup2\n        /* \"#utility.yul\":13536:13556   */\n      calldataload\n        /* \"#utility.yul\":13574:13653   */\n      tag_606\n        /* \"#utility.yul\":13649:13652   */\n      dup5\n        /* \"#utility.yul\":13641:13647   */\n      dup3\n        /* \"#utility.yul\":13634:13638   */\n      0x20\n        /* \"#utility.yul\":13626:13632   */\n      dup7\n        /* \"#utility.yul\":13622:13639   */\n      add\n        /* \"#utility.yul\":13574:13653   */\n      tag_424\n      jump\t// in\n    tag_606:\n        /* \"#utility.yul\":13565:13653   */\n      swap2\n      pop\n        /* \"#utility.yul\":13381:13659   */\n      pop\n        /* \"#utility.yul\":13319:13659   */\n      swap3\n      swap2\n      pop\n      pop\n      jump\t// out\n        /* \"#utility.yul\":13665:14319   */\n    tag_96:\n        /* \"#utility.yul\":13743:13749   */\n      0x00\n        /* \"#utility.yul\":13751:13757   */\n      dup1\n        /* \"#utility.yul\":13800:13802   */\n      0x40\n        /* \"#utility.yul\":13788:13797   */\n      dup4\n        /* \"#utility.yul\":13779:13786   */\n      dup6\n        /* \"#utility.yul\":13775:13798   */\n      sub\n        /* \"#utility.yul\":13771:13803   */\n      slt\n        /* \"#utility.yul\":13768:13887   */\n      iszero\n      tag_608\n      jumpi\n        /* \"#utility.yul\":13806:13885   */\n      tag_609\n      tag_385\n      jump\t// in\n    tag_609:\n        /* \"#utility.yul\":13768:13887   */\n    tag_608:\n        /* \"#utility.yul\":13954:13955   */\n      0x00\n        /* \"#utility.yul\":13943:13952   */\n      dup4\n        /* \"#utility.yul\":13939:13956   */\n      add\n        /* \"#utility.yul\":13926:13957   */\n      calldataload\n        /* \"#utility.yul\":13984:14002   */\n      0xffffffffffffffff\n        /* \"#utility.yul\":13976:13982   */\n      dup2\n        /* \"#utility.yul\":13973:14003   */\n      gt\n        /* \"#utility.yul\":13970:14087   */\n      iszero\n      tag_610\n      jumpi\n        /* \"#utility.yul\":14006:14085   */\n      tag_611\n      tag_386\n      jump\t// in\n    tag_611:\n        /* \"#utility.yul\":13970:14087   */\n    tag_610:\n        /* \"#utility.yul\":14111:14174   */\n      tag_612\n        /* \"#utility.yul\":14166:14173   */\n      dup6\n        /* \"#utility.yul\":14157:14163   */\n      dup3\n        /* \"#utility.yul\":14146:14155   */\n      dup7\n        /* \"#utility.yul\":14142:14164   */\n      add\n        /* \"#utility.yul\":14111:14174   */\n      tag_425\n      jump\t// in\n    tag_612:\n        /* \"#utility.yul\":14101:14174   */\n      swap3\n      pop\n        /* \"#utility.yul\":13897:14184   */\n      pop\n        /* \"#utility.yul\":14223:14225   */\n      0x20\n        /* \"#utility.yul\":14249:14302   */\n      tag_613\n        /* \"#utility.yul\":14294:14301   */\n      dup6\n        /* \"#utility.yul\":14285:14291   */\n      dup3\n        /* \"#utility.yul\":14274:14283   */\n      dup7\n        /* \"#utility.yul\":14270:14292   */\n      add\n        /* \"#utility.yul\":14249:14302   */\n      tag_413\n      jump\t// in\n    tag_613:\n        /* \"#utility.yul\":14239:14302   */\n      swap2\n      pop\n        /* \"#utility.yul\":14194:14312   */\n      pop\n        /* \"#utility.yul\":13665:14319   */\n      swap3\n      pop\n      swap3\n      swap1\n      pop\n      jump\t// out\n        /* \"#utility.yul\":14325:14632   */\n    tag_426:\n        /* \"#utility.yul\":14386:14390   */\n      0x00\n        /* \"#utility.yul\":14476:14494   */\n      0xffffffffffffffff\n        /* \"#utility.yul\":14468:14474   */\n      dup3\n        /* \"#utility.yul\":14465:14495   */\n      gt\n        /* \"#utility.yul\":14462:14518   */\n      iszero\n      tag_615\n      jumpi\n        /* \"#utility.yul\":14498:14516   */\n      tag_616\n      tag_127\n      jump\t// in\n    tag_616:\n        /* \"#utility.yul\":14462:14518   */\n    tag_615:\n        /* \"#utility.yul\":14536:14565   */\n      tag_617\n        /* \"#utility.yul\":14558:14564   */\n      dup3\n        /* \"#utility.yul\":14536:14565   */\n      tag_399\n      jump\t// in\n    tag_617:\n        /* \"#utility.yul\":14528:14565   */\n      swap1\n      pop\n        /* \"#utility.yul\":14620:14624   */\n      0x20\n        /* \"#utility.yul\":14614:14618   */\n      dup2\n        /* \"#utility.yul\":14610:14625   */\n      add\n        /* \"#utility.yul\":14602:14625   */\n      swap1\n      pop\n        /* \"#utility.yul\":14325:14632   */\n      swap2\n      swap1\n      pop\n      jump\t// out\n        /* \"#utility.yul\":14638:15061   */\n    tag_427:\n        /* \"#utility.yul\":14715:14720   */\n      0x00\n        /* \"#utility.yul\":14740:14805   */\n      tag_619\n        /* \"#utility.yul\":14756:14804   */\n      tag_620\n        /* \"#utility.yul\":14797:14803   */\n      dup5\n        /* \"#utility.yul\":14756:14804   */\n      tag_426\n      jump\t// in\n    tag_620:\n        /* \"#utility.yul\":14740:14805   */\n      tag_421\n      jump\t// in\n    tag_619:\n        /* \"#utility.yul\":14731:14805   */\n      swap1\n      pop\n        /* \"#utility.yul\":14828:14834   */\n      dup3\n        /* \"#utility.yul\":14821:14826   */\n      dup2\n        /* \"#utility.yul\":14814:14835   */\n      mstore\n        /* \"#utility.yul\":14866:14870   */\n      0x20\n        /* \"#utility.yul\":14859:14864   */\n      dup2\n        /* \"#utility.yul\":14855:14871   */\n      add\n        /* \"#utility.yul\":14904:14907   */\n      dup5\n        /* \"#utility.yul\":14895:14901   */\n      dup5\n        /* \"#utility.yul\":14890:14893   */\n      dup5\n        /* \"#utility.yul\":14886:14902   */\n      add\n        /* \"#utility.yul\":14883:14908   */\n      gt\n        /* \"#utility.yul\":14880:14992   */\n      iszero\n      tag_621\n      jumpi\n        /* \"#utility.yul\":14911:14990   */\n      tag_622\n      tag_419\n      jump\t// in\n    tag_622:\n        /* \"#utility.yul\":14880:14992   */\n    tag_621:\n        /* \"#utility.yul\":15001:15055   */\n      tag_623\n        /* \"#utility.yul\":15048:15054   */\n      dup5\n        /* \"#utility.yul\":15043:15046   */\n      dup3\n        /* \"#utility.yul\":15038:15041   */\n      dup6\n        /* \"#utility.yul\":15001:15055   */\n      tag_423\n      jump\t// in\n    tag_623:\n        /* \"#utility.yul\":14721:15061   */\n      pop\n        /* \"#utility.yul\":14638:15061   */\n      swap4\n      swap3\n      pop\n      pop\n      pop\n      jump\t// out\n        /* \"#utility.yul\":15080:15418   */\n    tag_428:\n        /* \"#utility.yul\":15135:15140   */\n      0x00\n        /* \"#utility.yul\":15184:15187   */\n      dup3\n        /* \"#utility.yul\":15177:15181   */\n      0x1f\n        /* \"#utility.yul\":15169:15175   */\n      dup4\n        /* \"#utility.yul\":15165:15182   */\n      add\n        /* \"#utility.yul\":15161:15188   */\n      slt\n        /* \"#utility.yul\":15151:15273   */\n      tag_625\n      jumpi\n        /* \"#utility.yul\":15192:15271   */\n      tag_626\n      tag_418\n      jump\t// in\n    tag_626:\n        /* \"#utility.yul\":15151:15273   */\n    tag_625:\n        /* \"#utility.yul\":15309:15315   */\n      dup2\n        /* \"#utility.yul\":15296:15316   */\n      calldataload\n        /* \"#utility.yul\":15334:15412   */\n      tag_627\n        /* \"#utility.yul\":15408:15411   */\n      dup5\n        /* \"#utility.yul\":15400:15406   */\n      dup3\n        /* \"#utility.yul\":15393:15397   */\n      0x20\n        /* \"#utility.yul\":15385:15391   */\n      dup7\n        /* \"#utility.yul\":15381:15398   */\n      add\n        /* \"#utility.yul\":15334:15412   */\n      tag_427\n      jump\t// in\n    tag_627:\n        /* \"#utility.yul\":15325:15412   */\n      swap2\n      pop\n        /* \"#utility.yul\":15141:15418   */\n      pop\n        /* \"#utility.yul\":15080:15418   */\n      swap3\n      swap2\n      pop\n      pop\n      jump\t// out\n        /* \"#utility.yul\":15424:16367   */\n    tag_100:\n        /* \"#utility.yul\":15519:15525   */\n      0x00\n        /* \"#utility.yul\":15527:15533   */\n      dup1\n        /* \"#utility.yul\":15535:15541   */\n      0x00\n        /* \"#utility.yul\":15543:15549   */\n      dup1\n        /* \"#utility.yul\":15592:15595   */\n      0x80\n        /* \"#utility.yul\":15580:15589   */\n      dup6\n        /* \"#utility.yul\":15571:15578   */\n      dup8\n        /* \"#utility.yul\":15567:15590   */\n      sub\n        /* \"#utility.yul\":15563:15596   */\n      slt\n        /* \"#utility.yul\":15560:15680   */\n      iszero\n      tag_629\n      jumpi\n        /* \"#utility.yul\":15599:15678   */\n      tag_630\n      tag_385\n      jump\t// in\n    tag_630:\n        /* \"#utility.yul\":15560:15680   */\n    tag_629:\n        /* \"#utility.yul\":15719:15720   */\n      0x00\n        /* \"#utility.yul\":15744:15797   */\n      tag_631\n        /* \"#utility.yul\":15789:15796   */\n      dup8\n        /* \"#utility.yul\":15780:15786   */\n      dup3\n        /* \"#utility.yul\":15769:15778   */\n      dup9\n        /* \"#utility.yul\":15765:15787   */\n      add\n        /* \"#utility.yul\":15744:15797   */\n      tag_390\n      jump\t// in\n    tag_631:\n        /* \"#utility.yul\":15734:15797   */\n      swap5\n      pop\n        /* \"#utility.yul\":15690:15807   */\n      pop\n        /* \"#utility.yul\":15846:15848   */\n      0x20\n        /* \"#utility.yul\":15872:15925   */\n      tag_632\n        /* \"#utility.yul\":15917:15924   */\n      dup8\n        /* \"#utility.yul\":15908:15914   */\n      dup3\n        /* \"#utility.yul\":15897:15906   */\n      dup9\n        /* \"#utility.yul\":15893:15915   */\n      add\n        /* \"#utility.yul\":15872:15925   */\n      tag_390\n      jump\t// in\n    tag_632:\n        /* \"#utility.yul\":15862:15925   */\n      swap4\n      pop\n        /* \"#utility.yul\":15817:15935   */\n      pop\n        /* \"#utility.yul\":15974:15976   */\n      0x40\n        /* \"#utility.yul\":16000:16053   */\n      tag_633\n        /* \"#utility.yul\":16045:16052   */\n      dup8\n        /* \"#utility.yul\":16036:16042   */\n      dup3\n        /* \"#utility.yul\":16025:16034   */\n      dup9\n        /* \"#utility.yul\":16021:16043   */\n      add\n        /* \"#utility.yul\":16000:16053   */\n      tag_413\n      jump\t// in\n    tag_633:\n        /* \"#utility.yul\":15990:16053   */\n      swap3\n      pop\n        /* \"#utility.yul\":15945:16063   */\n      pop\n        /* \"#utility.yul\":16130:16132   */\n      0x60\n        /* \"#utility.yul\":16119:16128   */\n      dup6\n        /* \"#utility.yul\":16115:16133   */\n      add\n        /* \"#utility.yul\":16102:16134   */\n      calldataload\n        /* \"#utility.yul\":16161:16179   */\n      0xffffffffffffffff\n        /* \"#utility.yul\":16153:16159   */\n      dup2\n        /* \"#utility.yul\":16150:16180   */\n      gt\n        /* \"#utility.yul\":16147:16264   */\n      iszero\n      tag_634\n      jumpi\n        /* \"#utility.yul\":16183:16262   */\n      tag_635\n      tag_386\n      jump\t// in\n    tag_635:\n        /* \"#utility.yul\":16147:16264   */\n    tag_634:\n        /* \"#utility.yul\":16288:16350   */\n      tag_636\n        /* \"#utility.yul\":16342:16349   */\n      dup8\n        /* \"#utility.yul\":16333:16339   */\n      dup3\n        /* \"#utility.yul\":16322:16331   */\n      dup9\n        /* \"#utility.yul\":16318:16340   */\n      add\n        /* \"#utility.yul\":16288:16350   */\n      tag_428\n      jump\t// in\n    tag_636:\n        /* \"#utility.yul\":16278:16350   */\n      swap2\n      pop\n        /* \"#utility.yul\":16073:16360   */\n      pop\n        /* \"#utility.yul\":15424:16367   */\n      swap3\n      swap6\n      swap2\n      swap5\n      pop\n      swap3\n      pop\n      jump\t// out\n        /* \"#utility.yul\":16373:16847   */\n    tag_112:\n        /* \"#utility.yul\":16441:16447   */\n      0x00\n        /* \"#utility.yul\":16449:16455   */\n      dup1\n        /* \"#utility.yul\":16498:16500   */\n      0x40\n        /* \"#utility.yul\":16486:16495   */\n      dup4\n        /* \"#utility.yul\":16477:16484   */\n      dup6\n        /* \"#utility.yul\":16473:16496   */\n      sub\n        /* \"#utility.yul\":16469:16501   */\n      slt\n        /* \"#utility.yul\":16466:16585   */\n      iszero\n      tag_638\n      jumpi\n        /* \"#utility.yul\":16504:16583   */\n      tag_639\n      tag_385\n      jump\t// in\n    tag_639:\n        /* \"#utility.yul\":16466:16585   */\n    tag_638:\n        /* \"#utility.yul\":16624:16625   */\n      0x00\n        /* \"#utility.yul\":16649:16702   */\n      tag_640\n        /* \"#utility.yul\":16694:16701   */\n      dup6\n        /* \"#utility.yul\":16685:16691   */\n      dup3\n        /* \"#utility.yul\":16674:16683   */\n      dup7\n        /* \"#utility.yul\":16670:16692   */\n      add\n        /* \"#utility.yul\":16649:16702   */\n      tag_390\n      jump\t// in\n    tag_640:\n        /* \"#utility.yul\":16639:16702   */\n      swap3\n      pop\n        /* \"#utility.yul\":16595:16712   */\n      pop\n        /* \"#utility.yul\":16751:16753   */\n      0x20\n        /* \"#utility.yul\":16777:16830   */\n      tag_641\n        /* \"#utility.yul\":16822:16829   */\n      dup6\n        /* \"#utility.yul\":16813:16819   */\n      dup3\n        /* \"#utility.yul\":16802:16811   */\n      dup7\n        /* \"#utility.yul\":16798:16820   */\n      add\n        /* \"#utility.yul\":16777:16830   */\n      tag_390\n      jump\t// in\n    tag_641:\n        /* \"#utility.yul\":16767:16830   */\n      swap2\n      pop\n        /* \"#utility.yul\":16722:16840   */\n      pop\n        /* \"#utility.yul\":16373:16847   */\n      swap3\n      pop\n      swap3\n      swap1\n      pop\n      jump\t// out\n        /* \"#utility.yul\":16853:16913   */\n    tag_429:\n        /* \"#utility.yul\":16881:16884   */\n      0x00\n        /* \"#utility.yul\":16902:16907   */\n      dup2\n        /* \"#utility.yul\":16895:16907   */\n      swap1\n      pop\n        /* \"#utility.yul\":16853:16913   */\n      swap2\n      swap1\n      pop\n      jump\t// out\n        /* \"#utility.yul\":16919:17061   */\n    tag_430:\n        /* \"#utility.yul\":16969:16978   */\n      0x00\n        /* \"#utility.yul\":17002:17055   */\n      tag_644\n        /* \"#utility.yul\":17020:17054   */\n      tag_645\n        /* \"#utility.yul\":17029:17053   */\n      tag_646\n        /* \"#utility.yul\":17047:17052   */\n      dup5\n        /* \"#utility.yul\":17029:17053   */\n      tag_387\n      jump\t// in\n    tag_646:\n        /* \"#utility.yul\":17020:17054   */\n      tag_429\n      jump\t// in\n    tag_645:\n        /* \"#utility.yul\":17002:17055   */\n      tag_387\n      jump\t// in\n    tag_644:\n        /* \"#utility.yul\":16989:17055   */\n      swap1\n      pop\n        /* \"#utility.yul\":16919:17061   */\n      swap2\n      swap1\n      pop\n      jump\t// out\n        /* \"#utility.yul\":17067:17193   */\n    tag_431:\n        /* \"#utility.yul\":17117:17126   */\n      0x00\n        /* \"#utility.yul\":17150:17187   */\n      tag_648\n        /* \"#utility.yul\":17181:17186   */\n      dup3\n        /* \"#utility.yul\":17150:17187   */\n      tag_430\n      jump\t// in\n    tag_648:\n        /* \"#utility.yul\":17137:17187   */\n      swap1\n      pop\n        /* \"#utility.yul\":17067:17193   */\n      swap2\n      swap1\n      pop\n      jump\t// out\n        /* \"#utility.yul\":17199:17339   */\n    tag_432:\n        /* \"#utility.yul\":17263:17272   */\n      0x00\n        /* \"#utility.yul\":17296:17333   */\n      tag_650\n        /* \"#utility.yul\":17327:17332   */\n      dup3\n        /* \"#utility.yul\":17296:17333   */\n      tag_431\n      jump\t// in\n    tag_650:\n        /* \"#utility.yul\":17283:17333   */\n      swap1\n      pop\n        /* \"#utility.yul\":17199:17339   */\n      swap2\n      swap1\n      pop\n      jump\t// out\n        /* \"#utility.yul\":17345:17504   */\n    tag_433:\n        /* \"#utility.yul\":17446:17497   */\n      tag_652\n        /* \"#utility.yul\":17491:17496   */\n      dup2\n        /* \"#utility.yul\":17446:17497   */\n      tag_432\n      jump\t// in\n    tag_652:\n        /* \"#utility.yul\":17441:17444   */\n      dup3\n        /* \"#utility.yul\":17434:17498   */\n      mstore\n        /* \"#utility.yul\":17345:17504   */\n      pop\n      pop\n      jump\t// out\n        /* \"#utility.yul\":17510:17760   */\n    tag_121:\n        /* \"#utility.yul\":17617:17621   */\n      0x00\n        /* \"#utility.yul\":17655:17657   */\n      0x20\n        /* \"#utility.yul\":17644:17653   */\n      dup3\n        /* \"#utility.yul\":17640:17658   */\n      add\n        /* \"#utility.yul\":17632:17658   */\n      swap1\n      pop\n        /* \"#utility.yul\":17668:17753   */\n      tag_654\n        /* \"#utility.yul\":17750:17751   */\n      0x00\n        /* \"#utility.yul\":17739:17748   */\n      dup4\n        /* \"#utility.yul\":17735:17752   */\n      add\n        /* \"#utility.yul\":17726:17732   */\n      dup5\n        /* \"#utility.yul\":17668:17753   */\n      tag_433\n      jump\t// in\n    tag_654:\n        /* \"#utility.yul\":17510:17760   */\n      swap3\n      swap2\n      pop\n      pop\n      jump\t// out\n        /* \"#utility.yul\":17766:17946   */\n    tag_137:\n        /* \"#utility.yul\":17814:17891   */\n      0x4e487b7100000000000000000000000000000000000000000000000000000000\n        /* \"#utility.yul\":17811:17812   */\n      0x00\n        /* \"#utility.yul\":17804:17892   */\n      mstore\n        /* \"#utility.yul\":17911:17915   */\n      0x32\n        /* \"#utility.yul\":17908:17909   */\n      0x04\n        /* \"#utility.yul\":17901:17916   */\n      mstore\n        /* \"#utility.yul\":17935:17939   */\n      0x24\n        /* \"#utility.yul\":17932:17933   */\n      0x00\n        /* \"#utility.yul\":17925:17940   */\n      revert\n        /* \"#utility.yul\":17952:18132   */\n    tag_434:\n        /* \"#utility.yul\":18000:18077   */\n      0x4e487b7100000000000000000000000000000000000000000000000000000000\n        /* \"#utility.yul\":17997:17998   */\n      0x00\n        /* \"#utility.yul\":17990:18078   */\n      mstore\n        /* \"#utility.yul\":18097:18101   */\n      0x22\n        /* \"#utility.yul\":18094:18095   */\n      0x04\n        /* \"#utility.yul\":18087:18102   */\n      mstore\n        /* \"#utility.yul\":18121:18125   */\n      0x24\n        /* \"#utility.yul\":18118:18119   */\n      0x00\n        /* \"#utility.yul\":18111:18126   */\n      revert\n        /* \"#utility.yul\":18138:18458   */\n    tag_139:\n        /* \"#utility.yul\":18182:18188   */\n      0x00\n        /* \"#utility.yul\":18219:18220   */\n      0x02\n        /* \"#utility.yul\":18213:18217   */\n      dup3\n        /* \"#utility.yul\":18209:18221   */\n      div\n        /* \"#utility.yul\":18199:18221   */\n      swap1\n      pop\n        /* \"#utility.yul\":18266:18267   */\n      0x01\n        /* \"#utility.yul\":18260:18264   */\n      dup3\n        /* \"#utility.yul\":18256:18268   */\n      and\n        /* \"#utility.yul\":18287:18305   */\n      dup1\n        /* \"#utility.yul\":18277:18358   */\n      tag_658\n      jumpi\n        /* \"#utility.yul\":18343:18347   */\n      0x7f\n        /* \"#utility.yul\":18335:18341   */\n      dup3\n        /* \"#utility.yul\":18331:18348   */\n      and\n        /* \"#utility.yul\":18321:18348   */\n      swap2\n      pop\n        /* \"#utility.yul\":18277:18358   */\n    tag_658:\n        /* \"#utility.yul\":18405:18407   */\n      0x20\n        /* \"#utility.yul\":18397:18403   */\n      dup3\n        /* \"#utility.yul\":18394:18408   */\n      lt\n        /* \"#utility.yul\":18374:18392   */\n      dup2\n        /* \"#utility.yul\":18371:18409   */\n      sub\n        /* \"#utility.yul\":18368:18452   */\n      tag_659\n      jumpi\n        /* \"#utility.yul\":18424:18442   */\n      tag_660\n      tag_434\n      jump\t// in\n    tag_660:\n        /* \"#utility.yul\":18368:18452   */\n    tag_659:\n        /* \"#utility.yul\":18189:18458   */\n      pop\n        /* \"#utility.yul\":18138:18458   */\n      swap2\n      swap1\n      pop\n      jump\t// out\n        /* \"#utility.yul\":18464:18906   */\n    tag_175:\n        /* \"#utility.yul\":18613:18617   */\n      0x00\n        /* \"#utility.yul\":18651:18653   */\n      0x60\n        /* \"#utility.yul\":18640:18649   */\n      dup3\n        /* \"#utility.yul\":18636:18654   */\n      add\n        /* \"#utility.yul\":18628:18654   */\n      swap1\n      pop\n        /* \"#utility.yul\":18664:18735   */\n      tag_662\n        /* \"#utility.yul\":18732:18733   */\n      0x00\n        /* \"#utility.yul\":18721:18730   */\n      dup4\n        /* \"#utility.yul\":18717:18734   */\n      add\n        /* \"#utility.yul\":18708:18714   */\n      dup7\n        /* \"#utility.yul\":18664:18735   */\n      tag_414\n      jump\t// in\n    tag_662:\n        /* \"#utility.yul\":18745:18817   */\n      tag_663\n        /* \"#utility.yul\":18813:18815   */\n      0x20\n        /* \"#utility.yul\":18802:18811   */\n      dup4\n        /* \"#utility.yul\":18798:18816   */\n      add\n        /* \"#utility.yul\":18789:18795   */\n      dup6\n        /* \"#utility.yul\":18745:18817   */\n      tag_415\n      jump\t// in\n    tag_663:\n        /* \"#utility.yul\":18827:18899   */\n      tag_664\n        /* \"#utility.yul\":18895:18897   */\n      0x40\n        /* \"#utility.yul\":18884:18893   */\n      dup4\n        /* \"#utility.yul\":18880:18898   */\n      add\n        /* \"#utility.yul\":18871:18877   */\n      dup5\n        /* \"#utility.yul\":18827:18899   */\n      tag_414\n      jump\t// in\n    tag_664:\n        /* \"#utility.yul\":18464:18906   */\n      swap5\n      swap4\n      pop\n      pop\n      pop\n      pop\n      jump\t// out\n        /* \"#utility.yul\":18912:19084   */\n    tag_435:\n        /* \"#utility.yul\":19052:19076   */\n      0x50726f6475637420646f6573206e6f7420657869737400000000000000000000\n        /* \"#utility.yul\":19048:19049   */\n      0x00\n        /* \"#utility.yul\":19040:19046   */\n      dup3\n        /* \"#utility.yul\":19036:19050   */\n      add\n        /* \"#utility.yul\":19029:19077   */\n      mstore\n        /* \"#utility.yul\":18912:19084   */\n      pop\n      jump\t// out\n        /* \"#utility.yul\":19090:19456   */\n    tag_436:\n        /* \"#utility.yul\":19232:19235   */\n      0x00\n        /* \"#utility.yul\":19253:19320   */\n      tag_667\n        /* \"#utility.yul\":19317:19319   */\n      0x16\n        /* \"#utility.yul\":19312:19315   */\n      dup4\n        /* \"#utility.yul\":19253:19320   */\n      tag_410\n      jump\t// in\n    tag_667:\n        /* \"#utility.yul\":19246:19320   */\n      swap2\n      pop\n        /* \"#utility.yul\":19329:19422   */\n      tag_668\n        /* \"#utility.yul\":19418:19421   */\n      dup3\n        /* \"#utility.yul\":19329:19422   */\n      tag_435\n      jump\t// in\n    tag_668:\n        /* \"#utility.yul\":19447:19449   */\n      0x20\n        /* \"#utility.yul\":19442:19445   */\n      dup3\n        /* \"#utility.yul\":19438:19450   */\n      add\n        /* \"#utility.yul\":19431:19450   */\n      swap1\n      pop\n        /* \"#utility.yul\":19090:19456   */\n      swap2\n      swap1\n      pop\n      jump\t// out\n        /* \"#utility.yul\":19462:19881   */\n    tag_197:\n        /* \"#utility.yul\":19628:19632   */\n      0x00\n        /* \"#utility.yul\":19666:19668   */\n      0x20\n        /* \"#utility.yul\":19655:19664   */\n      dup3\n        /* \"#utility.yul\":19651:19669   */\n      add\n        /* \"#utility.yul\":19643:19669   */\n      swap1\n      pop\n        /* \"#utility.yul\":19715:19724   */\n      dup2\n        /* \"#utility.yul\":19709:19713   */\n      dup2\n        /* \"#utility.yul\":19705:19725   */\n      sub\n        /* \"#utility.yul\":19701:19702   */\n      0x00\n        /* \"#utility.yul\":19690:19699   */\n      dup4\n        /* \"#utility.yul\":19686:19703   */\n      add\n        /* \"#utility.yul\":19679:19726   */\n      mstore\n        /* \"#utility.yul\":19743:19874   */\n      tag_670\n        /* \"#utility.yul\":19869:19873   */\n      dup2\n        /* \"#utility.yul\":19743:19874   */\n      tag_436\n      jump\t// in\n    tag_670:\n        /* \"#utility.yul\":19735:19874   */\n      swap1\n      pop\n        /* \"#utility.yul\":19462:19881   */\n      swap2\n      swap1\n      pop\n      jump\t// out\n        /* \"#utility.yul\":19887:20067   */\n    tag_437:\n        /* \"#utility.yul\":19935:20012   */\n      0x4e487b7100000000000000000000000000000000000000000000000000000000\n        /* \"#utility.yul\":19932:19933   */\n      0x00\n        /* \"#utility.yul\":19925:20013   */\n      mstore\n        /* \"#utility.yul\":20032:20036   */\n      0x11\n        /* \"#utility.yul\":20029:20030   */\n      0x04\n        /* \"#utility.yul\":20022:20037   */\n      mstore\n        /* \"#utility.yul\":20056:20060   */\n      0x24\n        /* \"#utility.yul\":20053:20054   */\n      0x00\n        /* \"#utility.yul\":20046:20061   */\n      revert\n        /* \"#utility.yul\":20073:20483   */\n    tag_199:\n        /* \"#utility.yul\":20113:20120   */\n      0x00\n        /* \"#utility.yul\":20136:20156   */\n      tag_673\n        /* \"#utility.yul\":20154:20155   */\n      dup3\n        /* \"#utility.yul\":20136:20156   */\n      tag_394\n      jump\t// in\n    tag_673:\n        /* \"#utility.yul\":20131:20156   */\n      swap2\n      pop\n        /* \"#utility.yul\":20170:20190   */\n      tag_674\n        /* \"#utility.yul\":20188:20189   */\n      dup4\n        /* \"#utility.yul\":20170:20190   */\n      tag_394\n      jump\t// in\n    tag_674:\n        /* \"#utility.yul\":20165:20190   */\n      swap3\n      pop\n        /* \"#utility.yul\":20225:20226   */\n      dup3\n        /* \"#utility.yul\":20222:20223   */\n      dup3\n        /* \"#utility.yul\":20218:20227   */\n      mul\n        /* \"#utility.yul\":20247:20277   */\n      tag_675\n        /* \"#utility.yul\":20265:20276   */\n      dup2\n        /* \"#utility.yul\":20247:20277   */\n      tag_394\n      jump\t// in\n    tag_675:\n        /* \"#utility.yul\":20236:20277   */\n      swap2\n      pop\n        /* \"#utility.yul\":20426:20427   */\n      dup3\n        /* \"#utility.yul\":20417:20424   */\n      dup3\n        /* \"#utility.yul\":20413:20428   */\n      div\n        /* \"#utility.yul\":20410:20411   */\n      dup5\n        /* \"#utility.yul\":20407:20429   */\n      eq\n        /* \"#utility.yul\":20387:20388   */\n      dup4\n        /* \"#utility.yul\":20380:20389   */\n      iszero\n        /* \"#utility.yul\":20360:20443   */\n      or\n        /* \"#utility.yul\":20337:20476   */\n      tag_676\n      jumpi\n        /* \"#utility.yul\":20456:20474   */\n      tag_677\n      tag_437\n      jump\t// in\n    tag_677:\n        /* \"#utility.yul\":20337:20476   */\n    tag_676:\n        /* \"#utility.yul\":20121:20483   */\n      pop\n        /* \"#utility.yul\":20073:20483   */\n      swap3\n      swap2\n      pop\n      pop\n      jump\t// out\n        /* \"#utility.yul\":20489:20931   */\n    tag_201:\n        /* \"#utility.yul\":20638:20642   */\n      0x00\n        /* \"#utility.yul\":20676:20678   */\n      0x60\n        /* \"#utility.yul\":20665:20674   */\n      dup3\n        /* \"#utility.yul\":20661:20679   */\n      add\n        /* \"#utility.yul\":20653:20679   */\n      swap1\n      pop\n        /* \"#utility.yul\":20689:20760   */\n      tag_679\n        /* \"#utility.yul\":20757:20758   */\n      0x00\n        /* \"#utility.yul\":20746:20755   */\n      dup4\n        /* \"#utility.yul\":20742:20759   */\n      add\n        /* \"#utility.yul\":20733:20739   */\n      dup7\n        /* \"#utility.yul\":20689:20760   */\n      tag_414\n      jump\t// in\n    tag_679:\n        /* \"#utility.yul\":20770:20842   */\n      tag_680\n        /* \"#utility.yul\":20838:20840   */\n      0x20\n        /* \"#utility.yul\":20827:20836   */\n      dup4\n        /* \"#utility.yul\":20823:20841   */\n      add\n        /* \"#utility.yul\":20814:20820   */\n      dup6\n        /* \"#utility.yul\":20770:20842   */\n      tag_414\n      jump\t// in\n    tag_680:\n        /* \"#utility.yul\":20852:20924   */\n      tag_681\n        /* \"#utility.yul\":20920:20922   */\n      0x40\n        /* \"#utility.yul\":20909:20918   */\n      dup4\n        /* \"#utility.yul\":20905:20923   */\n      add\n        /* \"#utility.yul\":20896:20902   */\n      dup5\n        /* \"#utility.yul\":20852:20924   */\n      tag_415\n      jump\t// in\n    tag_681:\n        /* \"#utility.yul\":20489:20931   */\n      swap5\n      swap4\n      pop\n      pop\n      pop\n      pop\n      jump\t// out\n        /* \"#utility.yul\":20937:21074   */\n    tag_438:\n        /* \"#utility.yul\":20991:20996   */\n      0x00\n        /* \"#utility.yul\":21022:21028   */\n      dup2\n        /* \"#utility.yul\":21016:21029   */\n      mload\n        /* \"#utility.yul\":21007:21029   */\n      swap1\n      pop\n        /* \"#utility.yul\":21038:21068   */\n      tag_683\n        /* \"#utility.yul\":21062:21067   */\n      dup2\n        /* \"#utility.yul\":21038:21068   */\n      tag_416\n      jump\t// in\n    tag_683:\n        /* \"#utility.yul\":20937:21074   */\n      swap3\n      swap2\n      pop\n      pop\n      jump\t// out\n        /* \"#utility.yul\":21080:21425   */\n    tag_205:\n        /* \"#utility.yul\":21147:21153   */\n      0x00\n        /* \"#utility.yul\":21196:21198   */\n      0x20\n        /* \"#utility.yul\":21184:21193   */\n      dup3\n        /* \"#utility.yul\":21175:21182   */\n      dup5\n        /* \"#utility.yul\":21171:21194   */\n      sub\n        /* \"#utility.yul\":21167:21199   */\n      slt\n        /* \"#utility.yul\":21164:21283   */\n      iszero\n      tag_685\n      jumpi\n        /* \"#utility.yul\":21202:21281   */\n      tag_686\n      tag_385\n      jump\t// in\n    tag_686:\n        /* \"#utility.yul\":21164:21283   */\n    tag_685:\n        /* \"#utility.yul\":21322:21323   */\n      0x00\n        /* \"#utility.yul\":21347:21408   */\n      tag_687\n        /* \"#utility.yul\":21400:21407   */\n      dup5\n        /* \"#utility.yul\":21391:21397   */\n      dup3\n        /* \"#utility.yul\":21380:21389   */\n      dup6\n        /* \"#utility.yul\":21376:21398   */\n      add\n        /* \"#utility.yul\":21347:21408   */\n      tag_438\n      jump\t// in\n    tag_687:\n        /* \"#utility.yul\":21337:21408   */\n      swap2\n      pop\n        /* \"#utility.yul\":21293:21418   */\n      pop\n        /* \"#utility.yul\":21080:21425   */\n      swap3\n      swap2\n      pop\n      pop\n      jump\t// out\n        /* \"#utility.yul\":21431:21602   */\n    tag_439:\n        /* \"#utility.yul\":21571:21594   */\n      0x546f6b656e207472616e73666572206661696c65640000000000000000000000\n        /* \"#utility.yul\":21567:21568   */\n      0x00\n        /* \"#utility.yul\":21559:21565   */\n      dup3\n        /* \"#utility.yul\":21555:21569   */\n      add\n        /* \"#utility.yul\":21548:21595   */\n      mstore\n        /* \"#utility.yul\":21431:21602   */\n      pop\n      jump\t// out\n        /* \"#utility.yul\":21608:21974   */\n    tag_440:\n        /* \"#utility.yul\":21750:21753   */\n      0x00\n        /* \"#utility.yul\":21771:21838   */\n      tag_690\n        /* \"#utility.yul\":21835:21837   */\n      0x15\n        /* \"#utility.yul\":21830:21833   */\n      dup4\n        /* \"#utility.yul\":21771:21838   */\n      tag_410\n      jump\t// in\n    tag_690:\n        /* \"#utility.yul\":21764:21838   */\n      swap2\n      pop\n        /* \"#utility.yul\":21847:21940   */\n      tag_691\n        /* \"#utility.yul\":21936:21939   */\n      dup3\n        /* \"#utility.yul\":21847:21940   */\n      tag_439\n      jump\t// in\n    tag_691:\n        /* \"#utility.yul\":21965:21967   */\n      0x20\n        /* \"#utility.yul\":21960:21963   */\n      dup3\n        /* \"#utility.yul\":21956:21968   */\n      add\n        /* \"#utility.yul\":21949:21968   */\n      swap1\n      pop\n        /* \"#utility.yul\":21608:21974   */\n      swap2\n      swap1\n      pop\n      jump\t// out\n        /* \"#utility.yul\":21980:22399   */\n    tag_208:\n        /* \"#utility.yul\":22146:22150   */\n      0x00\n        /* \"#utility.yul\":22184:22186   */\n      0x20\n        /* \"#utility.yul\":22173:22182   */\n      dup3\n        /* \"#utility.yul\":22169:22187   */\n      add\n        /* \"#utility.yul\":22161:22187   */\n      swap1\n      pop\n        /* \"#utility.yul\":22233:22242   */\n      dup2\n        /* \"#utility.yul\":22227:22231   */\n      dup2\n        /* \"#utility.yul\":22223:22243   */\n      sub\n        /* \"#utility.yul\":22219:22220   */\n      0x00\n        /* \"#utility.yul\":22208:22217   */\n      dup4\n        /* \"#utility.yul\":22204:22221   */\n      add\n        /* \"#utility.yul\":22197:22244   */\n      mstore\n        /* \"#utility.yul\":22261:22392   */\n      tag_693\n        /* \"#utility.yul\":22387:22391   */\n      dup2\n        /* \"#utility.yul\":22261:22392   */\n      tag_440\n      jump\t// in\n    tag_693:\n        /* \"#utility.yul\":22253:22392   */\n      swap1\n      pop\n        /* \"#utility.yul\":21980:22399   */\n      swap2\n      swap1\n      pop\n      jump\t// out\n        /* \"#utility.yul\":22405:22737   */\n    tag_217:\n        /* \"#utility.yul\":22526:22530   */\n      0x00\n        /* \"#utility.yul\":22564:22566   */\n      0x40\n        /* \"#utility.yul\":22553:22562   */\n      dup3\n        /* \"#utility.yul\":22549:22567   */\n      add\n        /* \"#utility.yul\":22541:22567   */\n      swap1\n      pop\n        /* \"#utility.yul\":22577:22648   */\n      tag_695\n        /* \"#utility.yul\":22645:22646   */\n      0x00\n        /* \"#utility.yul\":22634:22643   */\n      dup4\n        /* \"#utility.yul\":22630:22647   */\n      add\n        /* \"#utility.yul\":22621:22627   */\n      dup6\n        /* \"#utility.yul\":22577:22648   */\n      tag_415\n      jump\t// in\n    tag_695:\n        /* \"#utility.yul\":22658:22730   */\n      tag_696\n        /* \"#utility.yul\":22726:22728   */\n      0x20\n        /* \"#utility.yul\":22715:22724   */\n      dup4\n        /* \"#utility.yul\":22711:22729   */\n      add\n        /* \"#utility.yul\":22702:22708   */\n      dup5\n        /* \"#utility.yul\":22658:22730   */\n      tag_415\n      jump\t// in\n    tag_696:\n        /* \"#utility.yul\":22405:22737   */\n      swap4\n      swap3\n      pop\n      pop\n      pop\n      jump\t// out\n        /* \"#utility.yul\":22743:22976   */\n    tag_233:\n        /* \"#utility.yul\":22782:22785   */\n      0x00\n        /* \"#utility.yul\":22805:22829   */\n      tag_698\n        /* \"#utility.yul\":22823:22828   */\n      dup3\n        /* \"#utility.yul\":22805:22829   */\n      tag_394\n      jump\t// in\n    tag_698:\n        /* \"#utility.yul\":22796:22829   */\n      swap2\n      pop\n        /* \"#utility.yul\":22851:22917   */\n      0xffffffffffffffffffffffffffffffffffffffffffffffffffffffffffffffff\n        /* \"#utility.yul\":22844:22849   */\n      dup3\n        /* \"#utility.yul\":22841:22918   */\n      sub\n        /* \"#utility.yul\":22838:22941   */\n      tag_699\n      jumpi\n        /* \"#utility.yul\":22921:22939   */\n      tag_700\n      tag_437\n      jump\t// in\n    tag_700:\n        /* \"#utility.yul\":22838:22941   */\n    tag_699:\n        /* \"#utility.yul\":22968:22969   */\n      0x01\n        /* \"#utility.yul\":22961:22966   */\n      dup3\n        /* \"#utility.yul\":22957:22970   */\n      add\n        /* \"#utility.yul\":22950:22970   */\n      swap1\n      pop\n        /* \"#utility.yul\":22743:22976   */\n      swap2\n      swap1\n      pop\n      jump\t// out\n        /* \"#utility.yul\":22982:23123   */\n    tag_441:\n        /* \"#utility.yul\":23031:23035   */\n      0x00\n        /* \"#utility.yul\":23054:23057   */\n      dup2\n        /* \"#utility.yul\":23046:23057   */\n      swap1\n      pop\n        /* \"#utility.yul\":23077:23080   */\n      dup2\n        /* \"#utility.yul\":23074:23075   */\n      0x00\n        /* \"#utility.yul\":23067:23081   */\n      mstore\n        /* \"#utility.yul\":23111:23115   */\n      0x20\n        /* \"#utility.yul\":23108:23109   */\n      0x00\n        /* \"#utility.yul\":23098:23116   */\n      keccak256\n        /* \"#utility.yul\":23090:23116   */\n      swap1\n      pop\n        /* \"#utility.yul\":22982:23123   */\n      swap2\n      swap1\n      pop\n      jump\t// out\n        /* \"#utility.yul\":23129:23222   */\n    tag_442:\n        /* \"#utility.yul\":23166:23172   */\n      0x00\n        /* \"#utility.yul\":23213:23215   */\n      0x20\n        /* \"#utility.yul\":23208:23210   */\n      0x1f\n        /* \"#utility.yul\":23201:23206   */\n      dup4\n        /* \"#utility.yul\":23197:23211   */\n      add\n        /* \"#utility.yul\":23193:23216   */\n      div\n        /* \"#utility.yul\":23183:23216   */\n      swap1\n      pop\n        /* \"#utility.yul\":23129:23222   */\n      swap2\n      swap1\n      pop\n      jump\t// out\n        /* \"#utility.yul\":23228:23335   */\n    tag_443:\n        /* \"#utility.yul\":23272:23280   */\n      0x00\n        /* \"#utility.yul\":23322:23327   */\n      dup3\n        /* \"#utility.yul\":23316:23320   */\n      dup3\n        /* \"#utility.yul\":23312:23328   */\n      shl\n        /* \"#utility.yul\":23291:23328   */\n      swap1\n      pop\n        /* \"#utility.yul\":23228:23335   */\n      swap3\n      swap2\n      pop\n      pop\n      jump\t// out\n        /* \"#utility.yul\":23341:23734   */\n    tag_444:\n        /* \"#utility.yul\":23410:23416   */\n      0x00\n        /* \"#utility.yul\":23460:23461   */\n      0x08\n        /* \"#utility.yul\":23448:23458   */\n      dup4\n        /* \"#utility.yul\":23444:23462   */\n      mul\n        /* \"#utility.yul\":23483:23580   */\n      tag_705\n        /* \"#utility.yul\":23513:23579   */\n      0xffffffffffffffffffffffffffffffffffffffffffffffffffffffffffffffff\n        /* \"#utility.yul\":23502:23511   */\n      dup3\n        /* \"#utility.yul\":23483:23580   */\n      tag_443\n      jump\t// in\n    tag_705:\n        /* \"#utility.yul\":23601:23640   */\n      tag_706\n        /* \"#utility.yul\":23631:23639   */\n      dup7\n        /* \"#utility.yul\":23620:23629   */\n      dup4\n        /* \"#utility.yul\":23601:23640   */\n      tag_443\n      jump\t// in\n    tag_706:\n        /* \"#utility.yul\":23589:23640   */\n      swap6\n      pop\n        /* \"#utility.yul\":23673:23677   */\n      dup1\n        /* \"#utility.yul\":23669:23678   */\n      not\n        /* \"#utility.yul\":23662:23667   */\n      dup5\n        /* \"#utility.yul\":23658:23679   */\n      and\n        /* \"#utility.yul\":23649:23679   */\n      swap4\n      pop\n        /* \"#utility.yul\":23722:23726   */\n      dup1\n        /* \"#utility.yul\":23712:23720   */\n      dup7\n        /* \"#utility.yul\":23708:23727   */\n      and\n        /* \"#utility.yul\":23701:23706   */\n      dup5\n        /* \"#utility.yul\":23698:23728   */\n      or\n        /* \"#utility.yul\":23688:23728   */\n      swap3\n      pop\n        /* \"#utility.yul\":23417:23734   */\n      pop\n      pop\n        /* \"#utility.yul\":23341:23734   */\n      swap4\n      swap3\n      pop\n      pop\n      pop\n      jump\t// out\n        /* \"#utility.yul\":23740:23882   */\n    tag_445:\n        /* \"#utility.yul\":23790:23799   */\n      0x00\n        /* \"#utility.yul\":23823:23876   */\n      tag_708\n        /* \"#utility.yul\":23841:23875   */\n      tag_709\n        /* \"#utility.yul\":23850:23874   */\n      tag_710\n        /* \"#utility.yul\":23868:23873   */\n      dup5\n        /* \"#utility.yul\":23850:23874   */\n      tag_394\n      jump\t// in\n    tag_710:\n        /* \"#utility.yul\":23841:23875   */\n      tag_429\n      jump\t// in\n    tag_709:\n        /* \"#utility.yul\":23823:23876   */\n      tag_394\n      jump\t// in\n    tag_708:\n        /* \"#utility.yul\":23810:23876   */\n      swap1\n      pop\n        /* \"#utility.yul\":23740:23882   */\n      swap2\n      swap1\n      pop\n      jump\t// out\n        /* \"#utility.yul\":23888:23963   */\n    tag_446:\n        /* \"#utility.yul\":23931:23934   */\n      0x00\n        /* \"#utility.yul\":23952:23957   */\n      dup2\n        /* \"#utility.yul\":23945:23957   */\n      swap1\n      pop\n        /* \"#utility.yul\":23888:23963   */\n      swap2\n      swap1\n      pop\n      jump\t// out\n        /* \"#utility.yul\":23969:24238   */\n    tag_447:\n        /* \"#utility.yul\":24079:24118   */\n      tag_713\n        /* \"#utility.yul\":24110:24117   */\n      dup4\n        /* \"#utility.yul\":24079:24118   */\n      tag_445\n      jump\t// in\n    tag_713:\n        /* \"#utility.yul\":24140:24231   */\n      tag_714\n        /* \"#utility.yul\":24189:24230   */\n      tag_715\n        /* \"#utility.yul\":24213:24229   */\n      dup3\n        /* \"#utility.yul\":24189:24230   */\n      tag_446\n      jump\t// in\n    tag_715:\n        /* \"#utility.yul\":24181:24187   */\n      dup5\n        /* \"#utility.yul\":24174:24178   */\n      dup5\n        /* \"#utility.yul\":24168:24179   */\n      sload\n        /* \"#utility.yul\":24140:24231   */\n      tag_444\n      jump\t// in\n    tag_714:\n        /* \"#utility.yul\":24134:24138   */\n      dup3\n        /* \"#utility.yul\":24127:24232   */\n      sstore\n        /* \"#utility.yul\":24045:24238   */\n      pop\n        /* \"#utility.yul\":23969:24238   */\n      pop\n      pop\n      pop\n      jump\t// out\n        /* \"#utility.yul\":24244:24317   */\n    tag_448:\n        /* \"#utility.yul\":24289:24292   */\n      0x00\n        /* \"#utility.yul\":24244:24317   */\n      swap1\n      jump\t// out\n        /* \"#utility.yul\":24323:24512   */\n    tag_449:\n        /* \"#utility.yul\":24400:24432   */\n      tag_718\n      tag_448\n      jump\t// in\n    tag_718:\n        /* \"#utility.yul\":24441:24506   */\n      tag_719\n        /* \"#utility.yul\":24499:24505   */\n      dup2\n        /* \"#utility.yul\":24491:24497   */\n      dup5\n        /* \"#utility.yul\":24485:24489   */\n      dup5\n        /* \"#utility.yul\":24441:24506   */\n      tag_447\n      jump\t// in\n    tag_719:\n        /* \"#utility.yul\":24376:24512   */\n      pop\n        /* \"#utility.yul\":24323:24512   */\n      pop\n      pop\n      jump\t// out\n        /* \"#utility.yul\":24518:24704   */\n    tag_450:\n        /* \"#utility.yul\":24578:24698   */\n    tag_721:\n        /* \"#utility.yul\":24595:24598   */\n      dup2\n        /* \"#utility.yul\":24588:24593   */\n      dup2\n        /* \"#utility.yul\":24585:24599   */\n      lt\n        /* \"#utility.yul\":24578:24698   */\n      iszero\n      tag_723\n      jumpi\n        /* \"#utility.yul\":24649:24688   */\n      tag_724\n        /* \"#utility.yul\":24686:24687   */\n      0x00\n        /* \"#utility.yul\":24679:24684   */\n      dup3\n        /* \"#utility.yul\":24649:24688   */\n      tag_449\n      jump\t// in\n    tag_724:\n        /* \"#utility.yul\":24622:24623   */\n      0x01\n        /* \"#utility.yul\":24615:24620   */\n      dup2\n        /* \"#utility.yul\":24611:24624   */\n      add\n        /* \"#utility.yul\":24602:24624   */\n      swap1\n      pop\n        /* \"#utility.yul\":24578:24698   */\n      jump(tag_721)\n    tag_723:\n        /* \"#utility.yul\":24518:24704   */\n      pop\n      pop\n      jump\t// out\n        /* \"#utility.yul\":24710:25253   */\n    tag_451:\n        /* \"#utility.yul\":24811:24813   */\n      0x1f\n        /* \"#utility.yul\":24806:24809   */\n      dup3\n        /* \"#utility.yul\":24803:24814   */\n      gt\n        /* \"#utility.yul\":24800:25246   */\n      iszero\n      tag_726\n      jumpi\n        /* \"#utility.yul\":24845:24883   */\n      tag_727\n        /* \"#utility.yul\":24877:24882   */\n      dup2\n        /* \"#utility.yul\":24845:24883   */\n      tag_441\n      jump\t// in\n    tag_727:\n        /* \"#utility.yul\":24929:24958   */\n      tag_728\n        /* \"#utility.yul\":24947:24957   */\n      dup5\n        /* \"#utility.yul\":24929:24958   */\n      tag_442\n      jump\t// in\n    tag_728:\n        /* \"#utility.yul\":24919:24927   */\n      dup2\n        /* \"#utility.yul\":24915:24959   */\n      add\n        /* \"#utility.yul\":25112:25114   */\n      0x20\n        /* \"#utility.yul\":25100:25110   */\n      dup6\n        /* \"#utility.yul\":25097:25115   */\n      lt\n        /* \"#utility.yul\":25094:25143   */\n      iszero\n      tag_729\n      jumpi\n        /* \"#utility.yul\":25133:25141   */\n      dup2\n        /* \"#utility.yul\":25118:25141   */\n      swap1\n      pop\n        /* \"#utility.yul\":25094:25143   */\n    tag_729:\n        /* \"#utility.yul\":25156:25236   */\n      tag_730\n        /* \"#utility.yul\":25212:25234   */\n      tag_731\n        /* \"#utility.yul\":25230:25233   */\n      dup6\n        /* \"#utility.yul\":25212:25234   */\n      tag_442\n      jump\t// in\n    tag_731:\n        /* \"#utility.yul\":25202:25210   */\n      dup4\n        /* \"#utility.yul\":25198:25235   */\n      add\n        /* \"#utility.yul\":25185:25196   */\n      dup3\n        /* \"#utility.yul\":25156:25236   */\n      tag_450\n      jump\t// in\n    tag_730:\n        /* \"#utility.yul\":24815:25246   */\n      pop\n      pop\n        /* \"#utility.yul\":24800:25246   */\n    tag_726:\n        /* \"#utility.yul\":24710:25253   */\n      pop\n      pop\n      pop\n      jump\t// out\n        /* \"#utility.yul\":25259:25376   */\n    tag_452:\n        /* \"#utility.yul\":25313:25321   */\n      0x00\n        /* \"#utility.yul\":25363:25368   */\n      dup3\n        /* \"#utility.yul\":25357:25361   */\n      dup3\n        /* \"#utility.yul\":25353:25369   */\n      shr\n        /* \"#utility.yul\":25332:25369   */\n      swap1\n      pop\n        /* \"#utility.yul\":25259:25376   */\n      swap3\n      swap2\n      pop\n      pop\n      jump\t// out\n        /* \"#utility.yul\":25382:25551   */\n    tag_453:\n        /* \"#utility.yul\":25426:25432   */\n      0x00\n        /* \"#utility.yul\":25459:25510   */\n      tag_734\n        /* \"#utility.yul\":25507:25508   */\n      0x00\n        /* \"#utility.yul\":25503:25509   */\n      not\n        /* \"#utility.yul\":25495:25500   */\n      dup5\n        /* \"#utility.yul\":25492:25493   */\n      0x08\n        /* \"#utility.yul\":25488:25501   */\n      mul\n        /* \"#utility.yul\":25459:25510   */\n      tag_452\n      jump\t// in\n    tag_734:\n        /* \"#utility.yul\":25455:25511   */\n      not\n        /* \"#utility.yul\":25540:25544   */\n      dup1\n        /* \"#utility.yul\":25534:25538   */\n      dup4\n        /* \"#utility.yul\":25530:25545   */\n      and\n        /* \"#utility.yul\":25520:25545   */\n      swap2\n      pop\n        /* \"#utility.yul\":25433:25551   */\n      pop\n        /* \"#utility.yul\":25382:25551   */\n      swap3\n      swap2\n      pop\n      pop\n      jump\t// out\n        /* \"#utility.yul\":25556:25851   */\n    tag_454:\n        /* \"#utility.yul\":25632:25636   */\n      0x00\n        /* \"#utility.yul\":25778:25807   */\n      tag_736\n        /* \"#utility.yul\":25803:25806   */\n      dup4\n        /* \"#utility.yul\":25797:25801   */\n      dup4\n        /* \"#utility.yul\":25778:25807   */\n      tag_453\n      jump\t// in\n    tag_736:\n        /* \"#utility.yul\":25770:25807   */\n      swap2\n      pop\n        /* \"#utility.yul\":25840:25843   */\n      dup3\n        /* \"#utility.yul\":25837:25838   */\n      0x02\n        /* \"#utility.yul\":25833:25844   */\n      mul\n        /* \"#utility.yul\":25827:25831   */\n      dup3\n        /* \"#utility.yul\":25824:25845   */\n      or\n        /* \"#utility.yul\":25816:25845   */\n      swap1\n      pop\n        /* \"#utility.yul\":25556:25851   */\n      swap3\n      swap2\n      pop\n      pop\n      jump\t// out\n        /* \"#utility.yul\":25856:27251   */\n    tag_235:\n        /* \"#utility.yul\":25973:26010   */\n      tag_738\n        /* \"#utility.yul\":26006:26009   */\n      dup3\n        /* \"#utility.yul\":25973:26010   */\n      tag_396\n      jump\t// in\n    tag_738:\n        /* \"#utility.yul\":26075:26093   */\n      0xffffffffffffffff\n        /* \"#utility.yul\":26067:26073   */\n      dup2\n        /* \"#utility.yul\":26064:26094   */\n      gt\n        /* \"#utility.yul\":26061:26117   */\n      iszero\n      tag_739\n      jumpi\n        /* \"#utility.yul\":26097:26115   */\n      tag_740\n      tag_127\n      jump\t// in\n    tag_740:\n        /* \"#utility.yul\":26061:26117   */\n    tag_739:\n        /* \"#utility.yul\":26141:26179   */\n      tag_741\n        /* \"#utility.yul\":26173:26177   */\n      dup3\n        /* \"#utility.yul\":26167:26178   */\n      sload\n        /* \"#utility.yul\":26141:26179   */\n      tag_139\n      jump\t// in\n    tag_741:\n        /* \"#utility.yul\":26226:26293   */\n      tag_742\n        /* \"#utility.yul\":26286:26292   */\n      dup3\n        /* \"#utility.yul\":26278:26284   */\n      dup3\n        /* \"#utility.yul\":26272:26276   */\n      dup6\n        /* \"#utility.yul\":26226:26293   */\n      tag_451\n      jump\t// in\n    tag_742:\n        /* \"#utility.yul\":26320:26321   */\n      0x00\n        /* \"#utility.yul\":26344:26348   */\n      0x20\n        /* \"#utility.yul\":26331:26348   */\n      swap1\n      pop\n        /* \"#utility.yul\":26376:26378   */\n      0x1f\n        /* \"#utility.yul\":26368:26374   */\n      dup4\n        /* \"#utility.yul\":26365:26379   */\n      gt\n        /* \"#utility.yul\":26393:26394   */\n      0x01\n        /* \"#utility.yul\":26388:27006   */\n      dup2\n      eq\n      tag_744\n      jumpi\n        /* \"#utility.yul\":27050:27051   */\n      0x00\n        /* \"#utility.yul\":27067:27073   */\n      dup5\n        /* \"#utility.yul\":27064:27141   */\n      iszero\n      tag_745\n      jumpi\n        /* \"#utility.yul\":27116:27125   */\n      dup3\n        /* \"#utility.yul\":27111:27114   */\n      dup8\n        /* \"#utility.yul\":27107:27126   */\n      add\n        /* \"#utility.yul\":27101:27127   */\n      mload\n        /* \"#utility.yul\":27092:27127   */\n      swap1\n      pop\n        /* \"#utility.yul\":27064:27141   */\n    tag_745:\n        /* \"#utility.yul\":27167:27234   */\n      tag_746\n        /* \"#utility.yul\":27227:27233   */\n      dup6\n        /* \"#utility.yul\":27220:27225   */\n      dup3\n        /* \"#utility.yul\":27167:27234   */\n      tag_454\n      jump\t// in\n    tag_746:\n        /* \"#utility.yul\":27161:27165   */\n      dup7\n        /* \"#utility.yul\":27154:27235   */\n      sstore\n        /* \"#utility.yul\":27023:27245   */\n      pop\n        /* \"#utility.yul\":26358:27245   */\n      jump(tag_743)\n        /* \"#utility.yul\":26388:27006   */\n    tag_744:\n        /* \"#utility.yul\":26440:26444   */\n      0x1f\n        /* \"#utility.yul\":26436:26445   */\n      not\n        /* \"#utility.yul\":26428:26434   */\n      dup5\n        /* \"#utility.yul\":26424:26446   */\n      and\n        /* \"#utility.yul\":26474:26511   */\n      tag_747\n        /* \"#utility.yul\":26506:26510   */\n      dup7\n        /* \"#utility.yul\":26474:26511   */\n      tag_441\n      jump\t// in\n    tag_747:\n        /* \"#utility.yul\":26533:26534   */\n      0x00\n        /* \"#utility.yul\":26547:26755   */\n    tag_748:\n        /* \"#utility.yul\":26561:26568   */\n      dup3\n        /* \"#utility.yul\":26558:26559   */\n      dup2\n        /* \"#utility.yul\":26555:26569   */\n      lt\n        /* \"#utility.yul\":26547:26755   */\n      iszero\n      tag_750\n      jumpi\n        /* \"#utility.yul\":26640:26649   */\n      dup5\n        /* \"#utility.yul\":26635:26638   */\n      dup10\n        /* \"#utility.yul\":26631:26650   */\n      add\n        /* \"#utility.yul\":26625:26651   */\n      mload\n        /* \"#utility.yul\":26617:26623   */\n      dup3\n        /* \"#utility.yul\":26610:26652   */\n      sstore\n        /* \"#utility.yul\":26691:26692   */\n      0x01\n        /* \"#utility.yul\":26683:26689   */\n      dup3\n        /* \"#utility.yul\":26679:26693   */\n      add\n        /* \"#utility.yul\":26669:26693   */\n      swap2\n      pop\n        /* \"#utility.yul\":26738:26740   */\n      0x20\n        /* \"#utility.yul\":26727:26736   */\n      dup6\n        /* \"#utility.yul\":26723:26741   */\n      add\n        /* \"#utility.yul\":26710:26741   */\n      swap5\n      pop\n        /* \"#utility.yul\":26584:26588   */\n      0x20\n        /* \"#utility.yul\":26581:26582   */\n      dup2\n        /* \"#utility.yul\":26577:26589   */\n      add\n        /* \"#utility.yul\":26572:26589   */\n      swap1\n      pop\n        /* \"#utility.yul\":26547:26755   */\n      jump(tag_748)\n    tag_750:\n        /* \"#utility.yul\":26783:26789   */\n      dup7\n        /* \"#utility.yul\":26774:26781   */\n      dup4\n        /* \"#utility.yul\":26771:26790   */\n      lt\n        /* \"#utility.yul\":26768:26947   */\n      iszero\n      tag_751\n      jumpi\n        /* \"#utility.yul\":26841:26850   */\n      dup5\n        /* \"#utility.yul\":26836:26839   */\n      dup10\n        /* \"#utility.yul\":26832:26851   */\n      add\n        /* \"#utility.yul\":26826:26852   */\n      mload\n        /* \"#utility.yul\":26884:26932   */\n      tag_752\n        /* \"#utility.yul\":26926:26930   */\n      0x1f\n        /* \"#utility.yul\":26918:26924   */\n      dup10\n        /* \"#utility.yul\":26914:26931   */\n      and\n        /* \"#utility.yul\":26903:26912   */\n      dup3\n        /* \"#utility.yul\":26884:26932   */\n      tag_453\n      jump\t// in\n    tag_752:\n        /* \"#utility.yul\":26876:26882   */\n      dup4\n        /* \"#utility.yul\":26869:26933   */\n      sstore\n        /* \"#utility.yul\":26791:26947   */\n      pop\n        /* \"#utility.yul\":26768:26947   */\n    tag_751:\n        /* \"#utility.yul\":26993:26994   */\n      0x01\n        /* \"#utility.yul\":26989:26990   */\n      0x02\n        /* \"#utility.yul\":26981:26987   */\n      dup9\n        /* \"#utility.yul\":26977:26991   */\n      mul\n        /* \"#utility.yul\":26973:26995   */\n      add\n        /* \"#utility.yul\":26967:26971   */\n      dup9\n        /* \"#utility.yul\":26960:26996   */\n      sstore\n        /* \"#utility.yul\":26395:27006   */\n      pop\n      pop\n      pop\n        /* \"#utility.yul\":26358:27245   */\n    tag_743:\n      pop\n        /* \"#utility.yul\":25948:27251   */\n      pop\n      pop\n      pop\n        /* \"#utility.yul\":25856:27251   */\n      pop\n      pop\n      jump\t// out\n        /* \"#utility.yul\":27257:27405   */\n    tag_455:\n        /* \"#utility.yul\":27359:27370   */\n      0x00\n        /* \"#utility.yul\":27396:27399   */\n      dup2\n        /* \"#utility.yul\":27381:27399   */\n      swap1\n      pop\n        /* \"#utility.yul\":27257:27405   */\n      swap3\n      swap2\n      pop\n      pop\n      jump\t// out\n        /* \"#utility.yul\":27411:27801   */\n    tag_456:\n        /* \"#utility.yul\":27517:27520   */\n      0x00\n        /* \"#utility.yul\":27545:27584   */\n      tag_755\n        /* \"#utility.yul\":27578:27583   */\n      dup3\n        /* \"#utility.yul\":27545:27584   */\n      tag_396\n      jump\t// in\n    tag_755:\n        /* \"#utility.yul\":27600:27689   */\n      tag_756\n        /* \"#utility.yul\":27682:27688   */\n      dup2\n        /* \"#utility.yul\":27677:27680   */\n      dup6\n        /* \"#utility.yul\":27600:27689   */\n      tag_455\n      jump\t// in\n    tag_756:\n        /* \"#utility.yul\":27593:27689   */\n      swap4\n      pop\n        /* \"#utility.yul\":27698:27763   */\n      tag_757\n        /* \"#utility.yul\":27756:27762   */\n      dup2\n        /* \"#utility.yul\":27751:27754   */\n      dup6\n        /* \"#utility.yul\":27744:27748   */\n      0x20\n        /* \"#utility.yul\":27737:27742   */\n      dup7\n        /* \"#utility.yul\":27733:27749   */\n      add\n        /* \"#utility.yul\":27698:27763   */\n      tag_398\n      jump\t// in\n    tag_757:\n        /* \"#utility.yul\":27788:27794   */\n      dup1\n        /* \"#utility.yul\":27783:27786   */\n      dup5\n        /* \"#utility.yul\":27779:27795   */\n      add\n        /* \"#utility.yul\":27772:27795   */\n      swap2\n      pop\n        /* \"#utility.yul\":27521:27801   */\n      pop\n        /* \"#utility.yul\":27411:27801   */\n      swap3\n      swap2\n      pop\n      pop\n      jump\t// out\n        /* \"#utility.yul\":27807:28242   */\n    tag_249:\n        /* \"#utility.yul\":27987:27990   */\n      0x00\n        /* \"#utility.yul\":28009:28104   */\n      tag_759\n        /* \"#utility.yul\":28100:28103   */\n      dup3\n        /* \"#utility.yul\":28091:28097   */\n      dup6\n        /* \"#utility.yul\":28009:28104   */\n      tag_456\n      jump\t// in\n    tag_759:\n        /* \"#utility.yul\":28002:28104   */\n      swap2\n      pop\n        /* \"#utility.yul\":28121:28216   */\n      tag_760\n        /* \"#utility.yul\":28212:28215   */\n      dup3\n        /* \"#utility.yul\":28203:28209   */\n      dup5\n        /* \"#utility.yul\":28121:28216   */\n      tag_456\n      jump\t// in\n    tag_760:\n        /* \"#utility.yul\":28114:28216   */\n      swap2\n      pop\n        /* \"#utility.yul\":28233:28236   */\n      dup2\n        /* \"#utility.yul\":28226:28236   */\n      swap1\n      pop\n        /* \"#utility.yul\":27807:28242   */\n      swap4\n      swap3\n      pop\n      pop\n      pop\n      jump\t// out\n        /* \"#utility.yul\":28248:28473   */\n    tag_457:\n        /* \"#utility.yul\":28388:28422   */\n      0x4f776e61626c653a206e6577206f776e657220697320746865207a65726f2061\n        /* \"#utility.yul\":28384:28385   */\n      0x00\n        /* \"#utility.yul\":28376:28382   */\n      dup3\n        /* \"#utility.yul\":28372:28386   */\n      add\n        /* \"#utility.yul\":28365:28423   */\n      mstore\n        /* \"#utility.yul\":28457:28465   */\n      0x6464726573730000000000000000000000000000000000000000000000000000\n        /* \"#utility.yul\":28452:28454   */\n      0x20\n        /* \"#utility.yul\":28444:28450   */\n      dup3\n        /* \"#utility.yul\":28440:28455   */\n      add\n        /* \"#utility.yul\":28433:28466   */\n      mstore\n        /* \"#utility.yul\":28248:28473   */\n      pop\n      jump\t// out\n        /* \"#utility.yul\":28479:28845   */\n    tag_458:\n        /* \"#utility.yul\":28621:28624   */\n      0x00\n        /* \"#utility.yul\":28642:28709   */\n      tag_763\n        /* \"#utility.yul\":28706:28708   */\n      0x26\n        /* \"#utility.yul\":28701:28704   */\n      dup4\n        /* \"#utility.yul\":28642:28709   */\n      tag_410\n      jump\t// in\n    tag_763:\n        /* \"#utility.yul\":28635:28709   */\n      swap2\n      pop\n        /* \"#utility.yul\":28718:28811   */\n      tag_764\n        /* \"#utility.yul\":28807:28810   */\n      dup3\n        /* \"#utility.yul\":28718:28811   */\n      tag_457\n      jump\t// in\n    tag_764:\n        /* \"#utility.yul\":28836:28838   */\n      0x40\n        /* \"#utility.yul\":28831:28834   */\n      dup3\n        /* \"#utility.yul\":28827:28839   */\n      add\n        /* \"#utility.yul\":28820:28839   */\n      swap1\n      pop\n        /* \"#utility.yul\":28479:28845   */\n      swap2\n      swap1\n      pop\n      jump\t// out\n        /* \"#utility.yul\":28851:29270   */\n    tag_258:\n        /* \"#utility.yul\":29017:29021   */\n      0x00\n        /* \"#utility.yul\":29055:29057   */\n      0x20\n        /* \"#utility.yul\":29044:29053   */\n      dup3\n        /* \"#utility.yul\":29040:29058   */\n      add\n        /* \"#utility.yul\":29032:29058   */\n      swap1\n      pop\n        /* \"#utility.yul\":29104:29113   */\n      dup2\n        /* \"#utility.yul\":29098:29102   */\n      dup2\n        /* \"#utility.yul\":29094:29114   */\n      sub\n        /* \"#utility.yul\":29090:29091   */\n      0x00\n        /* \"#utility.yul\":29079:29088   */\n      dup4\n        /* \"#utility.yul\":29075:29092   */\n      add\n        /* \"#utility.yul\":29068:29115   */\n      mstore\n        /* \"#utility.yul\":29132:29263   */\n      tag_766\n        /* \"#utility.yul\":29258:29262   */\n      dup2\n        /* \"#utility.yul\":29132:29263   */\n      tag_458\n      jump\t// in\n    tag_766:\n        /* \"#utility.yul\":29124:29263   */\n      swap1\n      pop\n        /* \"#utility.yul\":28851:29270   */\n      swap2\n      swap1\n      pop\n      jump\t// out\n        /* \"#utility.yul\":29276:29458   */\n    tag_459:\n        /* \"#utility.yul\":29416:29450   */\n      0x4f776e61626c653a2063616c6c6572206973206e6f7420746865206f776e6572\n        /* \"#utility.yul\":29412:29413   */\n      0x00\n        /* \"#utility.yul\":29404:29410   */\n      dup3\n        /* \"#utility.yul\":29400:29414   */\n      add\n        /* \"#utility.yul\":29393:29451   */\n      mstore\n        /* \"#utility.yul\":29276:29458   */\n      pop\n      jump\t// out\n        /* \"#utility.yul\":29464:29830   */\n    tag_460:\n        /* \"#utility.yul\":29606:29609   */\n      0x00\n        /* \"#utility.yul\":29627:29694   */\n      tag_769\n        /* \"#utility.yul\":29691:29693   */\n      0x20\n        /* \"#utility.yul\":29686:29689   */\n      dup4\n        /* \"#utility.yul\":29627:29694   */\n      tag_410\n      jump\t// in\n    tag_769:\n        /* \"#utility.yul\":29620:29694   */\n      swap2\n      pop\n        /* \"#utility.yul\":29703:29796   */\n      tag_770\n        /* \"#utility.yul\":29792:29795   */\n      dup3\n        /* \"#utility.yul\":29703:29796   */\n      tag_459\n      jump\t// in\n    tag_770:\n        /* \"#utility.yul\":29821:29823   */\n      0x20\n        /* \"#utility.yul\":29816:29819   */\n      dup3\n        /* \"#utility.yul\":29812:29824   */\n      add\n        /* \"#utility.yul\":29805:29824   */\n      swap1\n      pop\n        /* \"#utility.yul\":29464:29830   */\n      swap2\n      swap1\n      pop\n      jump\t// out\n        /* \"#utility.yul\":29836:30255   */\n    tag_284:\n        /* \"#utility.yul\":30002:30006   */\n      0x00\n        /* \"#utility.yul\":30040:30042   */\n      0x20\n        /* \"#utility.yul\":30029:30038   */\n      dup3\n        /* \"#utility.yul\":30025:30043   */\n      add\n        /* \"#utility.yul\":30017:30043   */\n      swap1\n      pop\n        /* \"#utility.yul\":30089:30098   */\n      dup2\n        /* \"#utility.yul\":30083:30087   */\n      dup2\n        /* \"#utility.yul\":30079:30099   */\n      sub\n        /* \"#utility.yul\":30075:30076   */\n      0x00\n        /* \"#utility.yul\":30064:30073   */\n      dup4\n        /* \"#utility.yul\":30060:30077   */\n      add\n        /* \"#utility.yul\":30053:30100   */\n      mstore\n        /* \"#utility.yul\":30117:30248   */\n      tag_772\n        /* \"#utility.yul\":30243:30247   */\n      dup2\n        /* \"#utility.yul\":30117:30248   */\n      tag_460\n      jump\t// in\n    tag_772:\n        /* \"#utility.yul\":30109:30248   */\n      swap1\n      pop\n        /* \"#utility.yul\":29836:30255   */\n      swap2\n      swap1\n      pop\n      jump\t// out\n        /* \"#utility.yul\":30261:30359   */\n    tag_461:\n        /* \"#utility.yul\":30312:30318   */\n      0x00\n        /* \"#utility.yul\":30346:30351   */\n      dup2\n        /* \"#utility.yul\":30340:30352   */\n      mload\n        /* \"#utility.yul\":30330:30352   */\n      swap1\n      pop\n        /* \"#utility.yul\":30261:30359   */\n      swap2\n      swap1\n      pop\n      jump\t// out\n        /* \"#utility.yul\":30365:30533   */\n    tag_462:\n        /* \"#utility.yul\":30448:30459   */\n      0x00\n        /* \"#utility.yul\":30482:30488   */\n      dup3\n        /* \"#utility.yul\":30477:30480   */\n      dup3\n        /* \"#utility.yul\":30470:30489   */\n      mstore\n        /* \"#utility.yul\":30522:30526   */\n      0x20\n        /* \"#utility.yul\":30517:30520   */\n      dup3\n        /* \"#utility.yul\":30513:30527   */\n      add\n        /* \"#utility.yul\":30498:30527   */\n      swap1\n      pop\n        /* \"#utility.yul\":30365:30533   */\n      swap3\n      swap2\n      pop\n      pop\n      jump\t// out\n        /* \"#utility.yul\":30539:30912   */\n    tag_463:\n        /* \"#utility.yul\":30625:30628   */\n      0x00\n        /* \"#utility.yul\":30653:30691   */\n      tag_776\n        /* \"#utility.yul\":30685:30690   */\n      dup3\n        /* \"#utility.yul\":30653:30691   */\n      tag_461\n      jump\t// in\n    tag_776:\n        /* \"#utility.yul\":30707:30777   */\n      tag_777\n        /* \"#utility.yul\":30770:30776   */\n      dup2\n        /* \"#utility.yul\":30765:30768   */\n      dup6\n        /* \"#utility.yul\":30707:30777   */\n      tag_462\n      jump\t// in\n    tag_777:\n        /* \"#utility.yul\":30700:30777   */\n      swap4\n      pop\n        /* \"#utility.yul\":30786:30851   */\n      tag_778\n        /* \"#utility.yul\":30844:30850   */\n      dup2\n        /* \"#utility.yul\":30839:30842   */\n      dup6\n        /* \"#utility.yul\":30832:30836   */\n      0x20\n        /* \"#utility.yul\":30825:30830   */\n      dup7\n        /* \"#utility.yul\":30821:30837   */\n      add\n        /* \"#utility.yul\":30786:30851   */\n      tag_398\n      jump\t// in\n    tag_778:\n        /* \"#utility.yul\":30876:30905   */\n      tag_779\n        /* \"#utility.yul\":30898:30904   */\n      dup2\n        /* \"#utility.yul\":30876:30905   */\n      tag_399\n      jump\t// in\n    tag_779:\n        /* \"#utility.yul\":30871:30874   */\n      dup5\n        /* \"#utility.yul\":30867:30906   */\n      add\n        /* \"#utility.yul\":30860:30906   */\n      swap2\n      pop\n        /* \"#utility.yul\":30629:30912   */\n      pop\n        /* \"#utility.yul\":30539:30912   */\n      swap3\n      swap2\n      pop\n      pop\n      jump\t// out\n        /* \"#utility.yul\":30918:31558   */\n    tag_299:\n        /* \"#utility.yul\":31113:31117   */\n      0x00\n        /* \"#utility.yul\":31151:31154   */\n      0x80\n        /* \"#utility.yul\":31140:31149   */\n      dup3\n        /* \"#utility.yul\":31136:31155   */\n      add\n        /* \"#utility.yul\":31128:31155   */\n      swap1\n      pop\n        /* \"#utility.yul\":31165:31236   */\n      tag_781\n        /* \"#utility.yul\":31233:31234   */\n      0x00\n        /* \"#utility.yul\":31222:31231   */\n      dup4\n        /* \"#utility.yul\":31218:31235   */\n      add\n        /* \"#utility.yul\":31209:31215   */\n      dup8\n        /* \"#utility.yul\":31165:31236   */\n      tag_414\n      jump\t// in\n    tag_781:\n        /* \"#utility.yul\":31246:31318   */\n      tag_782\n        /* \"#utility.yul\":31314:31316   */\n      0x20\n        /* \"#utility.yul\":31303:31312   */\n      dup4\n        /* \"#utility.yul\":31299:31317   */\n      add\n        /* \"#utility.yul\":31290:31296   */\n      dup7\n        /* \"#utility.yul\":31246:31318   */\n      tag_414\n      jump\t// in\n    tag_782:\n        /* \"#utility.yul\":31328:31400   */\n      tag_783\n        /* \"#utility.yul\":31396:31398   */\n      0x40\n        /* \"#utility.yul\":31385:31394   */\n      dup4\n        /* \"#utility.yul\":31381:31399   */\n      add\n        /* \"#utility.yul\":31372:31378   */\n      dup6\n        /* \"#utility.yul\":31328:31400   */\n      tag_415\n      jump\t// in\n    tag_783:\n        /* \"#utility.yul\":31447:31456   */\n      dup2\n        /* \"#utility.yul\":31441:31445   */\n      dup2\n        /* \"#utility.yul\":31437:31457   */\n      sub\n        /* \"#utility.yul\":31432:31434   */\n      0x60\n        /* \"#utility.yul\":31421:31430   */\n      dup4\n        /* \"#utility.yul\":31417:31435   */\n      add\n        /* \"#utility.yul\":31410:31458   */\n      mstore\n        /* \"#utility.yul\":31475:31551   */\n      tag_784\n        /* \"#utility.yul\":31546:31550   */\n      dup2\n        /* \"#utility.yul\":31537:31543   */\n      dup5\n        /* \"#utility.yul\":31475:31551   */\n      tag_463\n      jump\t// in\n    tag_784:\n        /* \"#utility.yul\":31467:31551   */\n      swap1\n      pop\n        /* \"#utility.yul\":30918:31558   */\n      swap6\n      swap5\n      pop\n      pop\n      pop\n      pop\n      pop\n      jump\t// out\n        /* \"#utility.yul\":31564:31705   */\n    tag_464:\n        /* \"#utility.yul\":31620:31625   */\n      0x00\n        /* \"#utility.yul\":31651:31657   */\n      dup2\n        /* \"#utility.yul\":31645:31658   */\n      mload\n        /* \"#utility.yul\":31636:31658   */\n      swap1\n      pop\n        /* \"#utility.yul\":31667:31699   */\n      tag_786\n        /* \"#utility.yul\":31693:31698   */\n      dup2\n        /* \"#utility.yul\":31667:31699   */\n      tag_406\n      jump\t// in\n    tag_786:\n        /* \"#utility.yul\":31564:31705   */\n      swap3\n      swap2\n      pop\n      pop\n      jump\t// out\n        /* \"#utility.yul\":31711:32060   */\n    tag_302:\n        /* \"#utility.yul\":31780:31786   */\n      0x00\n        /* \"#utility.yul\":31829:31831   */\n      0x20\n        /* \"#utility.yul\":31817:31826   */\n      dup3\n        /* \"#utility.yul\":31808:31815   */\n      dup5\n        /* \"#utility.yul\":31804:31827   */\n      sub\n        /* \"#utility.yul\":31800:31832   */\n      slt\n        /* \"#utility.yul\":31797:31916   */\n      iszero\n      tag_788\n      jumpi\n        /* \"#utility.yul\":31835:31914   */\n      tag_789\n      tag_385\n      jump\t// in\n    tag_789:\n        /* \"#utility.yul\":31797:31916   */\n    tag_788:\n        /* \"#utility.yul\":31955:31956   */\n      0x00\n        /* \"#utility.yul\":31980:32043   */\n      tag_790\n        /* \"#utility.yul\":32035:32042   */\n      dup5\n        /* \"#utility.yul\":32026:32032   */\n      dup3\n        /* \"#utility.yul\":32015:32024   */\n      dup6\n        /* \"#utility.yul\":32011:32033   */\n      add\n        /* \"#utility.yul\":31980:32043   */\n      tag_464\n      jump\t// in\n    tag_790:\n        /* \"#utility.yul\":31970:32043   */\n      swap2\n      pop\n        /* \"#utility.yul\":31926:32053   */\n      pop\n        /* \"#utility.yul\":31711:32060   */\n      swap3\n      swap2\n      pop\n      pop\n      jump\t// out\n        /* \"#utility.yul\":32066:32246   */\n    tag_326:\n        /* \"#utility.yul\":32114:32191   */\n      0x4e487b7100000000000000000000000000000000000000000000000000000000\n        /* \"#utility.yul\":32111:32112   */\n      0x00\n        /* \"#utility.yul\":32104:32192   */\n      mstore\n        /* \"#utility.yul\":32211:32215   */\n      0x12\n        /* \"#utility.yul\":32208:32209   */\n      0x04\n        /* \"#utility.yul\":32201:32216   */\n      mstore\n        /* \"#utility.yul\":32235:32239   */\n      0x24\n        /* \"#utility.yul\":32232:32233   */\n      0x00\n        /* \"#utility.yul\":32225:32240   */\n      revert\n        /* \"#utility.yul\":32252:32584   */\n    tag_347:\n        /* \"#utility.yul\":32373:32377   */\n      0x00\n        /* \"#utility.yul\":32411:32413   */\n      0x40\n        /* \"#utility.yul\":32400:32409   */\n      dup3\n        /* \"#utility.yul\":32396:32414   */\n      add\n        /* \"#utility.yul\":32388:32414   */\n      swap1\n      pop\n        /* \"#utility.yul\":32424:32495   */\n      tag_793\n        /* \"#utility.yul\":32492:32493   */\n      0x00\n        /* \"#utility.yul\":32481:32490   */\n      dup4\n        /* \"#utility.yul\":32477:32494   */\n      add\n        /* \"#utility.yul\":32468:32474   */\n      dup6\n        /* \"#utility.yul\":32424:32495   */\n      tag_414\n      jump\t// in\n    tag_793:\n        /* \"#utility.yul\":32505:32577   */\n      tag_794\n        /* \"#utility.yul\":32573:32575   */\n      0x20\n        /* \"#utility.yul\":32562:32571   */\n      dup4\n        /* \"#utility.yul\":32558:32576   */\n      add\n        /* \"#utility.yul\":32549:32555   */\n      dup5\n        /* \"#utility.yul\":32505:32577   */\n      tag_415\n      jump\t// in\n    tag_794:\n        /* \"#utility.yul\":32252:32584   */\n      swap4\n      swap3\n      pop\n      pop\n      pop\n      jump\t// out\n\n    auxdata: 0xa26469706673582212209d12e630dbaee6201dcca645506ae7ba042529c523195945bc9894904e7eca8864736f6c63430008160033\n}\n",
				"bytecode": {
					"linkReferences": {},
					"object": "608060405234801562000010575f80fd5b506040516200356b3803806200356b83398181016040528101906200003691906200025d565b6040518060400160405280600b81526020017f50726f6475637442696c6c0000000000000000000000000000000000000000008152506040518060400160405280600381526020017f50424c0000000000000000000000000000000000000000000000000000000000815250815f9081620000b29190620004f1565b508060019081620000c49190620004f1565b505050620000e7620000db6200012e60201b60201c565b6200013560201b60201c565b8060075f6101000a81548173ffffffffffffffffffffffffffffffffffffffff021916908373ffffffffffffffffffffffffffffffffffffffff16021790555050620005d5565b5f33905090565b5f60065f9054906101000a900473ffffffffffffffffffffffffffffffffffffffff1690508160065f6101000a81548173ffffffffffffffffffffffffffffffffffffffff021916908373ffffffffffffffffffffffffffffffffffffffff1602179055508173ffffffffffffffffffffffffffffffffffffffff168173ffffffffffffffffffffffffffffffffffffffff167f8be0079c531659141344cd1fd0a4f28419497f9722a3daafe3b4186f6b6457e060405160405180910390a35050565b5f80fd5b5f73ffffffffffffffffffffffffffffffffffffffff82169050919050565b5f6200022782620001fc565b9050919050565b62000239816200021b565b811462000244575f80fd5b50565b5f8151905062000257816200022e565b92915050565b5f60208284031215620002755762000274620001f8565b5b5f620002848482850162000247565b91505092915050565b5f81519050919050565b7f4e487b71000000000000000000000000000000000000000000000000000000005f52604160045260245ffd5b7f4e487b71000000000000000000000000000000000000000000000000000000005f52602260045260245ffd5b5f60028204905060018216806200030957607f821691505b6020821081036200031f576200031e620002c4565b5b50919050565b5f819050815f5260205f209050919050565b5f6020601f8301049050919050565b5f82821b905092915050565b5f60088302620003837fffffffffffffffffffffffffffffffffffffffffffffffffffffffffffffffff8262000346565b6200038f868362000346565b95508019841693508086168417925050509392505050565b5f819050919050565b5f819050919050565b5f620003d9620003d3620003cd84620003a7565b620003b0565b620003a7565b9050919050565b5f819050919050565b620003f483620003b9565b6200040c6200040382620003e0565b84845462000352565b825550505050565b5f90565b6200042262000414565b6200042f818484620003e9565b505050565b5b8181101562000456576200044a5f8262000418565b60018101905062000435565b5050565b601f821115620004a5576200046f8162000325565b6200047a8462000337565b810160208510156200048a578190505b620004a2620004998562000337565b83018262000434565b50505b505050565b5f82821c905092915050565b5f620004c75f1984600802620004aa565b1980831691505092915050565b5f620004e18383620004b6565b9150826002028217905092915050565b620004fc826200028d565b67ffffffffffffffff81111562000518576200051762000297565b5b620005248254620002f1565b620005318282856200045a565b5f60209050601f83116001811462000567575f841562000552578287015190505b6200055e8582620004d4565b865550620005cd565b601f198416620005778662000325565b5f5b82811015620005a05784890151825560018201915060208501945060208101905062000579565b86831015620005c05784890151620005bc601f891682620004b6565b8355505b6001600288020188555050505b505050505050565b612f8880620005e35f395ff3fe608060405234801561000f575f80fd5b506004361061014b575f3560e01c80637acc0b20116100c1578063b88d4fde1161007a578063b88d4fde1461039b578063c87b56dd146103b7578063cf2c0334146103e7578063e985e9c514610417578063f2fde38b14610447578063fc0c546a146104635761014b565b80637acc0b20146102d95780638642269e1461030b5780638da5cb5b1461032757806395d89b4114610345578063a22cb46514610363578063b15247d91461037f5761014b565b806323b872dd1161011357806323b872dd1461021957806342842e0e146102355780634de91a63146102515780636352211e1461026f57806370a082311461029f578063715018a6146102cf5761014b565b8063019d2fbf1461014f57806301ffc9a71461017f57806306fdde03146101af578063081812fc146101cd578063095ea7b3146101fd575b5f80fd5b61016960048036038101906101649190611f51565b610481565b6040516101769190612126565b60405180910390f35b6101996004803603810190610194919061219b565b610687565b6040516101a691906121e0565b60405180910390f35b6101b7610768565b6040516101c49190612241565b60405180910390f35b6101e760048036038101906101e2919061228b565b6107f7565b6040516101f491906122c5565b60405180910390f35b610217600480360381019061021291906122de565b610812565b005b610233600480360381019061022e919061231c565b610828565b005b61024f600480360381019061024a919061231c565b610927565b005b610259610946565b604051610266919061237b565b60405180910390f35b6102896004803603810190610284919061228b565b61094c565b60405161029691906122c5565b60405180910390f35b6102b960048036038101906102b49190611f51565b61095d565b6040516102c6919061237b565b60405180910390f35b6102d7610a13565b005b6102f360048036038101906102ee919061228b565b610a26565b60405161030293929190612394565b60405180910390f35b6103256004803603810190610320919061228b565b610ad2565b005b61032f610cfa565b60405161033c91906122c5565b60405180910390f35b61034d610d22565b60405161035a9190612241565b60405180910390f35b61037d600480360381019061037891906123fa565b610db2565b005b61039960048036038101906103949190612564565b610dc8565b005b6103b560048036038101906103b0919061265c565b610e45565b005b6103d160048036038101906103cc919061228b565b610e62565b6040516103de9190612241565b60405180910390f35b61040160048036038101906103fc91906122de565b610ec8565b60405161040e919061237b565b60405180910390f35b610431600480360381019061042c91906126dc565b610ef3565b60405161043e91906121e0565b60405180910390f35b610461600480360381019061045c9190611f51565b610f81565b005b61046b611003565b6040516104789190612775565b60405180910390f35b60605f600a5f8473ffffffffffffffffffffffffffffffffffffffff1673ffffffffffffffffffffffffffffffffffffffff1681526020019081526020015f2080548060200260200160405190810160405280929190818152602001828054801561050957602002820191905f5260205f20905b8154815260200190600101908083116104f5575b505050505090505f815167ffffffffffffffff81111561052c5761052b612440565b5b60405190808252806020026020018201604052801561056557816020015b610552611ec7565b81526020019060019003908161054a5790505b5090505f5b825181101561067c575f8382815181106105875761058661278e565b5b6020026020010151905060095f8281526020019081526020015f206040518060600160405290815f82015481526020016001820180546105c6906127e8565b80601f01602080910402602001604051908101604052809291908181526020018280546105f2906127e8565b801561063d5780601f106106145761010080835404028352916020019161063d565b820191905f5260205f20905b81548152906001019060200180831161062057829003601f168201915b505050505081526020016002820154815250508383815181106106635761066261278e565b5b602002602001018190525050808060010191505061056a565b508092505050919050565b5f7f80ac58cd000000000000000000000000000000000000000000000000000000007bffffffffffffffffffffffffffffffffffffffffffffffffffffffff1916827bffffffffffffffffffffffffffffffffffffffffffffffffffffffff1916148061075157507f5b5e139f000000000000000000000000000000000000000000000000000000007bffffffffffffffffffffffffffffffffffffffffffffffffffffffff1916827bffffffffffffffffffffffffffffffffffffffffffffffffffffffff1916145b80610761575061076082611028565b5b9050919050565b60605f8054610776906127e8565b80601f01602080910402602001604051908101604052809291908181526020018280546107a2906127e8565b80156107ed5780601f106107c4576101008083540402835291602001916107ed565b820191905f5260205f20905b8154815290600101906020018083116107d057829003601f168201915b5050505050905090565b5f61080182611091565b5061080b82611117565b9050919050565b610824828261081f611150565b611157565b5050565b5f73ffffffffffffffffffffffffffffffffffffffff168273ffffffffffffffffffffffffffffffffffffffff1603610898575f6040517f64a0ae9200000000000000000000000000000000000000000000000000000000815260040161088f91906122c5565b60405180910390fd5b5f6108ab83836108a6611150565b611169565b90508373ffffffffffffffffffffffffffffffffffffffff168173ffffffffffffffffffffffffffffffffffffffff1614610921578382826040517f64283d7b00000000000000000000000000000000000000000000000000000000815260040161091893929190612818565b60405180910390fd5b50505050565b61094183838360405180602001604052805f815250610e45565b505050565b600b5481565b5f61095682611091565b9050919050565b5f8073ffffffffffffffffffffffffffffffffffffffff168273ffffffffffffffffffffffffffffffffffffffff16036109ce575f6040517f89c62b640000000000000000000000000000000000000000000000000000000081526004016109c591906122c5565b60405180910390fd5b60035f8373ffffffffffffffffffffffffffffffffffffffff1673ffffffffffffffffffffffffffffffffffffffff1681526020019081526020015f20549050919050565b610a1b611374565b610a245f6113f2565b565b6009602052805f5260405f205f91509050805f015490806001018054610a4b906127e8565b80601f0160208091040260200160405190810160405280929190818152602001828054610a77906127e8565b8015610ac25780601f10610a9957610100808354040283529160200191610ac2565b820191905f5260205f20905b815481529060010190602001808311610aa557829003601f168201915b5050505050908060020154905083565b5f60095f8381526020019081526020015f2090505f815f015403610b2b576040517f08c379a0000000000000000000000000000000000000000000000000000000008152600401610b2290612897565b60405180910390fd5b60075f9054906101000a900473ffffffffffffffffffffffffffffffffffffffff1673ffffffffffffffffffffffffffffffffffffffff166323b872dd3330670de0b6b3a76400008560020154610b8291906128e2565b6040518463ffffffff1660e01b8152600401610ba093929190612923565b6020604051808303815f875af1158015610bbc573d5f803e3d5ffd5b505050506040513d601f19601f82011682018060405250810190610be0919061296c565b610c1f576040517f08c379a0000000000000000000000000000000000000000000000000000000008152600401610c16906129e1565b60405180910390fd5b5f610c2a60086114b5565b9050610c3633826114c1565b610c4060086114de565b600a5f3373ffffffffffffffffffffffffffffffffffffffff1673ffffffffffffffffffffffffffffffffffffffff1681526020019081526020015f2083908060018154018082558091505060019003905f5260205f20015f90919091909150553373ffffffffffffffffffffffffffffffffffffffff167f52e9b4b2677873f4a0e6ac637221c8e8cfd2149accd54695cb8fdaf9491ddecc848460020154604051610ced9291906129ff565b60405180910390a2505050565b5f60065f9054906101000a900473ffffffffffffffffffffffffffffffffffffffff16905090565b606060018054610d31906127e8565b80601f0160208091040260200160405190810160405280929190818152602001828054610d5d906127e8565b8015610da85780601f10610d7f57610100808354040283529160200191610da8565b820191905f5260205f20905b815481529060010190602001808311610d8b57829003601f168201915b5050505050905090565b610dc4610dbd611150565b83836114f2565b5050565b610dd0611374565b5f600b5f815480929190610de390612a26565b91905055905060405180606001604052808281526020018481526020018381525060095f8381526020019081526020015f205f820151815f01556020820151816001019081610e329190612c01565b5060408201518160020155905050505050565b610e50848484610828565b610e5c8484848461165b565b50505050565b6060610e6d82611091565b505f610e7761180d565b90505f815111610e955760405180602001604052805f815250610ec0565b80610e9f84611823565b604051602001610eb0929190612d0a565b6040516020818303038152906040525b915050919050565b600a602052815f5260405f208181548110610ee1575f80fd5b905f5260205f20015f91509150505481565b5f60055f8473ffffffffffffffffffffffffffffffffffffffff1673ffffffffffffffffffffffffffffffffffffffff1681526020019081526020015f205f8373ffffffffffffffffffffffffffffffffffffffff1673ffffffffffffffffffffffffffffffffffffffff1681526020019081526020015f205f9054906101000a900460ff16905092915050565b610f89611374565b5f73ffffffffffffffffffffffffffffffffffffffff168173ffffffffffffffffffffffffffffffffffffffff1603610ff7576040517f08c379a0000000000000000000000000000000000000000000000000000000008152600401610fee90612d9d565b60405180910390fd5b611000816113f2565b50565b60075f9054906101000a900473ffffffffffffffffffffffffffffffffffffffff1681565b5f7f01ffc9a7000000000000000000000000000000000000000000000000000000007bffffffffffffffffffffffffffffffffffffffffffffffffffffffff1916827bffffffffffffffffffffffffffffffffffffffffffffffffffffffff1916149050919050565b5f8061109c836118ed565b90505f73ffffffffffffffffffffffffffffffffffffffff168173ffffffffffffffffffffffffffffffffffffffff160361110e57826040517f7e273289000000000000000000000000000000000000000000000000000000008152600401611105919061237b565b60405180910390fd5b80915050919050565b5f60045f8381526020019081526020015f205f9054906101000a900473ffffffffffffffffffffffffffffffffffffffff169050919050565b5f33905090565b6111648383836001611926565b505050565b5f80611174846118ed565b90505f73ffffffffffffffffffffffffffffffffffffffff168373ffffffffffffffffffffffffffffffffffffffff16146111b5576111b4818486611ae5565b5b5f73ffffffffffffffffffffffffffffffffffffffff168173ffffffffffffffffffffffffffffffffffffffff1614611240576111f45f855f80611926565b600160035f8373ffffffffffffffffffffffffffffffffffffffff1673ffffffffffffffffffffffffffffffffffffffff1681526020019081526020015f205f82825403925050819055505b5f73ffffffffffffffffffffffffffffffffffffffff168573ffffffffffffffffffffffffffffffffffffffff16146112bf57600160035f8773ffffffffffffffffffffffffffffffffffffffff1673ffffffffffffffffffffffffffffffffffffffff1681526020019081526020015f205f82825401925050819055505b8460025f8681526020019081526020015f205f6101000a81548173ffffffffffffffffffffffffffffffffffffffff021916908373ffffffffffffffffffffffffffffffffffffffff160217905550838573ffffffffffffffffffffffffffffffffffffffff168273ffffffffffffffffffffffffffffffffffffffff167fddf252ad1be2c89b69c2b068fc378daa952ba7f163c4a11628f55a4df523b3ef60405160405180910390a4809150509392505050565b61137c611150565b73ffffffffffffffffffffffffffffffffffffffff1661139a610cfa565b73ffffffffffffffffffffffffffffffffffffffff16146113f0576040517f08c379a00000000000000000000000000000000000000000000000000000000081526004016113e790612e05565b60405180910390fd5b565b5f60065f9054906101000a900473ffffffffffffffffffffffffffffffffffffffff1690508160065f6101000a81548173ffffffffffffffffffffffffffffffffffffffff021916908373ffffffffffffffffffffffffffffffffffffffff1602179055508173ffffffffffffffffffffffffffffffffffffffff168173ffffffffffffffffffffffffffffffffffffffff167f8be0079c531659141344cd1fd0a4f28419497f9722a3daafe3b4186f6b6457e060405160405180910390a35050565b5f815f01549050919050565b6114da828260405180602001604052805f815250611ba8565b5050565b6001815f015f828254019250508190555050565b5f73ffffffffffffffffffffffffffffffffffffffff168273ffffffffffffffffffffffffffffffffffffffff160361156257816040517f5b08ba1800000000000000000000000000000000000000000000000000000000815260040161155991906122c5565b60405180910390fd5b8060055f8573ffffffffffffffffffffffffffffffffffffffff1673ffffffffffffffffffffffffffffffffffffffff1681526020019081526020015f205f8473ffffffffffffffffffffffffffffffffffffffff1673ffffffffffffffffffffffffffffffffffffffff1681526020019081526020015f205f6101000a81548160ff0219169083151502179055508173ffffffffffffffffffffffffffffffffffffffff168373ffffffffffffffffffffffffffffffffffffffff167f17307eab39ab6107e8899845ad3d59bd9653f200f220920489ca2b5937696c318360405161164e91906121e0565b60405180910390a3505050565b5f8373ffffffffffffffffffffffffffffffffffffffff163b1115611807578273ffffffffffffffffffffffffffffffffffffffff1663150b7a0261169e611150565b8685856040518563ffffffff1660e01b81526004016116c09493929190612e75565b6020604051808303815f875af19250505080156116fb57506040513d601f19601f820116820180604052508101906116f89190612ed3565b60015b61177c573d805f8114611729576040519150601f19603f3d011682016040523d82523d5f602084013e61172e565b606091505b505f81510361177457836040517f64a0ae9200000000000000000000000000000000000000000000000000000000815260040161176b91906122c5565b60405180910390fd5b805181602001fd5b63150b7a0260e01b7bffffffffffffffffffffffffffffffffffffffffffffffffffffffff1916817bffffffffffffffffffffffffffffffffffffffffffffffffffffffff19161461180557836040517f64a0ae920000000000000000000000000000000000000000000000000000000081526004016117fc91906122c5565b60405180910390fd5b505b50505050565b606060405180602001604052805f815250905090565b60605f600161183184611bc3565b0190505f8167ffffffffffffffff81111561184f5761184e612440565b5b6040519080825280601f01601f1916602001820160405280156118815781602001600182028036833780820191505090505b5090505f82602001820190505b6001156118e2578080600190039150507f3031323334353637383961626364656600000000000000000000000000000000600a86061a8153600a85816118d7576118d6612efe565b5b0494505f850361188e575b819350505050919050565b5f60025f8381526020019081526020015f205f9054906101000a900473ffffffffffffffffffffffffffffffffffffffff169050919050565b808061195e57505f73ffffffffffffffffffffffffffffffffffffffff168273ffffffffffffffffffffffffffffffffffffffff1614155b15611a90575f61196d84611091565b90505f73ffffffffffffffffffffffffffffffffffffffff168373ffffffffffffffffffffffffffffffffffffffff16141580156119d757508273ffffffffffffffffffffffffffffffffffffffff168173ffffffffffffffffffffffffffffffffffffffff1614155b80156119ea57506119e88184610ef3565b155b15611a2c57826040517fa9fbf51f000000000000000000000000000000000000000000000000000000008152600401611a2391906122c5565b60405180910390fd5b8115611a8e57838573ffffffffffffffffffffffffffffffffffffffff168273ffffffffffffffffffffffffffffffffffffffff167f8c5be1e5ebec7d5bd14f71427d1e84f3dd0314c0f7b2291e5b200ac8c7c3b92560405160405180910390a45b505b8360045f8581526020019081526020015f205f6101000a81548173ffffffffffffffffffffffffffffffffffffffff021916908373ffffffffffffffffffffffffffffffffffffffff16021790555050505050565b611af0838383611d14565b611ba3575f73ffffffffffffffffffffffffffffffffffffffff168373ffffffffffffffffffffffffffffffffffffffff1603611b6457806040517f7e273289000000000000000000000000000000000000000000000000000000008152600401611b5b919061237b565b60405180910390fd5b81816040517f177e802f000000000000000000000000000000000000000000000000000000008152600401611b9a929190612f2b565b60405180910390fd5b505050565b611bb28383611dd4565b611bbe5f84848461165b565b505050565b5f805f90507a184f03e93ff9f4daa797ed6e38ed64bf6a1f0100000000000000008310611c1f577a184f03e93ff9f4daa797ed6e38ed64bf6a1f0100000000000000008381611c1557611c14612efe565b5b0492506040810190505b6d04ee2d6d415b85acef81000000008310611c5c576d04ee2d6d415b85acef81000000008381611c5257611c51612efe565b5b0492506020810190505b662386f26fc100008310611c8b57662386f26fc100008381611c8157611c80612efe565b5b0492506010810190505b6305f5e1008310611cb4576305f5e1008381611caa57611ca9612efe565b5b0492506008810190505b6127108310611cd9576127108381611ccf57611cce612efe565b5b0492506004810190505b60648310611cfc5760648381611cf257611cf1612efe565b5b0492506002810190505b600a8310611d0b576001810190505b80915050919050565b5f8073ffffffffffffffffffffffffffffffffffffffff168373ffffffffffffffffffffffffffffffffffffffff1614158015611dcb57508273ffffffffffffffffffffffffffffffffffffffff168473ffffffffffffffffffffffffffffffffffffffff161480611d8c5750611d8b8484610ef3565b5b80611dca57508273ffffffffffffffffffffffffffffffffffffffff16611db283611117565b73ffffffffffffffffffffffffffffffffffffffff16145b5b90509392505050565b5f73ffffffffffffffffffffffffffffffffffffffff168273ffffffffffffffffffffffffffffffffffffffff1603611e44575f6040517f64a0ae92000000000000000000000000000000000000000000000000000000008152600401611e3b91906122c5565b60405180910390fd5b5f611e5083835f611169565b90505f73ffffffffffffffffffffffffffffffffffffffff168173ffffffffffffffffffffffffffffffffffffffff1614611ec2575f6040517f73c6ac6e000000000000000000000000000000000000000000000000000000008152600401611eb991906122c5565b60405180910390fd5b505050565b60405180606001604052805f8152602001606081526020015f81525090565b5f604051905090565b5f80fd5b5f80fd5b5f73ffffffffffffffffffffffffffffffffffffffff82169050919050565b5f611f2082611ef7565b9050919050565b611f3081611f16565b8114611f3a575f80fd5b50565b5f81359050611f4b81611f27565b92915050565b5f60208284031215611f6657611f65611eef565b5b5f611f7384828501611f3d565b91505092915050565b5f81519050919050565b5f82825260208201905092915050565b5f819050602082019050919050565b5f819050919050565b611fb781611fa5565b82525050565b5f81519050919050565b5f82825260208201905092915050565b5f5b83811015611ff4578082015181840152602081019050611fd9565b5f8484015250505050565b5f601f19601f8301169050919050565b5f61201982611fbd565b6120238185611fc7565b9350612033818560208601611fd7565b61203c81611fff565b840191505092915050565b5f606083015f83015161205c5f860182611fae565b5060208301518482036020860152612074828261200f565b91505060408301516120896040860182611fae565b508091505092915050565b5f61209f8383612047565b905092915050565b5f602082019050919050565b5f6120bd82611f7c565b6120c78185611f86565b9350836020820285016120d985611f96565b805f5b8581101561211457848403895281516120f58582612094565b9450612100836120a7565b925060208a019950506001810190506120dc565b50829750879550505050505092915050565b5f6020820190508181035f83015261213e81846120b3565b905092915050565b5f7fffffffff0000000000000000000000000000000000000000000000000000000082169050919050565b61217a81612146565b8114612184575f80fd5b50565b5f8135905061219581612171565b92915050565b5f602082840312156121b0576121af611eef565b5b5f6121bd84828501612187565b91505092915050565b5f8115159050919050565b6121da816121c6565b82525050565b5f6020820190506121f35f8301846121d1565b92915050565b5f82825260208201905092915050565b5f61221382611fbd565b61221d81856121f9565b935061222d818560208601611fd7565b61223681611fff565b840191505092915050565b5f6020820190508181035f8301526122598184612209565b905092915050565b61226a81611fa5565b8114612274575f80fd5b50565b5f8135905061228581612261565b92915050565b5f602082840312156122a05761229f611eef565b5b5f6122ad84828501612277565b91505092915050565b6122bf81611f16565b82525050565b5f6020820190506122d85f8301846122b6565b92915050565b5f80604083850312156122f4576122f3611eef565b5b5f61230185828601611f3d565b925050602061231285828601612277565b9150509250929050565b5f805f6060848603121561233357612332611eef565b5b5f61234086828701611f3d565b935050602061235186828701611f3d565b925050604061236286828701612277565b9150509250925092565b61237581611fa5565b82525050565b5f60208201905061238e5f83018461236c565b92915050565b5f6060820190506123a75f83018661236c565b81810360208301526123b98185612209565b90506123c8604083018461236c565b949350505050565b6123d9816121c6565b81146123e3575f80fd5b50565b5f813590506123f4816123d0565b92915050565b5f80604083850312156124105761240f611eef565b5b5f61241d85828601611f3d565b925050602061242e858286016123e6565b9150509250929050565b5f80fd5b5f80fd5b7f4e487b71000000000000000000000000000000000000000000000000000000005f52604160045260245ffd5b61247682611fff565b810181811067ffffffffffffffff8211171561249557612494612440565b5b80604052505050565b5f6124a7611ee6565b90506124b3828261246d565b919050565b5f67ffffffffffffffff8211156124d2576124d1612440565b5b6124db82611fff565b9050602081019050919050565b828183375f83830152505050565b5f612508612503846124b8565b61249e565b9050828152602081018484840111156125245761252361243c565b5b61252f8482856124e8565b509392505050565b5f82601f83011261254b5761254a612438565b5b813561255b8482602086016124f6565b91505092915050565b5f806040838503121561257a57612579611eef565b5b5f83013567ffffffffffffffff81111561259757612596611ef3565b5b6125a385828601612537565b92505060206125b485828601612277565b9150509250929050565b5f67ffffffffffffffff8211156125d8576125d7612440565b5b6125e182611fff565b9050602081019050919050565b5f6126006125fb846125be565b61249e565b90508281526020810184848401111561261c5761261b61243c565b5b6126278482856124e8565b509392505050565b5f82601f83011261264357612642612438565b5b81356126538482602086016125ee565b91505092915050565b5f805f806080858703121561267457612673611eef565b5b5f61268187828801611f3d565b945050602061269287828801611f3d565b93505060406126a387828801612277565b925050606085013567ffffffffffffffff8111156126c4576126c3611ef3565b5b6126d08782880161262f565b91505092959194509250565b5f80604083850312156126f2576126f1611eef565b5b5f6126ff85828601611f3d565b925050602061271085828601611f3d565b9150509250929050565b5f819050919050565b5f61273d61273861273384611ef7565b61271a565b611ef7565b9050919050565b5f61274e82612723565b9050919050565b5f61275f82612744565b9050919050565b61276f81612755565b82525050565b5f6020820190506127885f830184612766565b92915050565b7f4e487b71000000000000000000000000000000000000000000000000000000005f52603260045260245ffd5b7f4e487b71000000000000000000000000000000000000000000000000000000005f52602260045260245ffd5b5f60028204905060018216806127ff57607f821691505b602082108103612812576128116127bb565b5b50919050565b5f60608201905061282b5f8301866122b6565b612838602083018561236c565b61284560408301846122b6565b949350505050565b7f50726f6475637420646f6573206e6f74206578697374000000000000000000005f82015250565b5f6128816016836121f9565b915061288c8261284d565b602082019050919050565b5f6020820190508181035f8301526128ae81612875565b9050919050565b7f4e487b71000000000000000000000000000000000000000000000000000000005f52601160045260245ffd5b5f6128ec82611fa5565b91506128f783611fa5565b925082820261290581611fa5565b9150828204841483151761291c5761291b6128b5565b5b5092915050565b5f6060820190506129365f8301866122b6565b61294360208301856122b6565b612950604083018461236c565b949350505050565b5f81519050612966816123d0565b92915050565b5f6020828403121561298157612980611eef565b5b5f61298e84828501612958565b91505092915050565b7f546f6b656e207472616e73666572206661696c656400000000000000000000005f82015250565b5f6129cb6015836121f9565b91506129d682612997565b602082019050919050565b5f6020820190508181035f8301526129f8816129bf565b9050919050565b5f604082019050612a125f83018561236c565b612a1f602083018461236c565b9392505050565b5f612a3082611fa5565b91507fffffffffffffffffffffffffffffffffffffffffffffffffffffffffffffffff8203612a6257612a616128b5565b5b600182019050919050565b5f819050815f5260205f209050919050565b5f6020601f8301049050919050565b5f82821b905092915050565b5f60088302612ac97fffffffffffffffffffffffffffffffffffffffffffffffffffffffffffffffff82612a8e565b612ad38683612a8e565b95508019841693508086168417925050509392505050565b5f612b05612b00612afb84611fa5565b61271a565b611fa5565b9050919050565b5f819050919050565b612b1e83612aeb565b612b32612b2a82612b0c565b848454612a9a565b825550505050565b5f90565b612b46612b3a565b612b51818484612b15565b505050565b5b81811015612b7457612b695f82612b3e565b600181019050612b57565b5050565b601f821115612bb957612b8a81612a6d565b612b9384612a7f565b81016020851015612ba2578190505b612bb6612bae85612a7f565b830182612b56565b50505b505050565b5f82821c905092915050565b5f612bd95f1984600802612bbe565b1980831691505092915050565b5f612bf18383612bca565b9150826002028217905092915050565b612c0a82611fbd565b67ffffffffffffffff811115612c2357612c22612440565b5b612c2d82546127e8565b612c38828285612b78565b5f60209050601f831160018114612c69575f8415612c57578287015190505b612c618582612be6565b865550612cc8565b601f198416612c7786612a6d565b5f5b82811015612c9e57848901518255600182019150602085019450602081019050612c79565b86831015612cbb5784890151612cb7601f891682612bca565b8355505b6001600288020188555050505b505050505050565b5f81905092915050565b5f612ce482611fbd565b612cee8185612cd0565b9350612cfe818560208601611fd7565b80840191505092915050565b5f612d158285612cda565b9150612d218284612cda565b91508190509392505050565b7f4f776e61626c653a206e6577206f776e657220697320746865207a65726f20615f8201527f6464726573730000000000000000000000000000000000000000000000000000602082015250565b5f612d876026836121f9565b9150612d9282612d2d565b604082019050919050565b5f6020820190508181035f830152612db481612d7b565b9050919050565b7f4f776e61626c653a2063616c6c6572206973206e6f7420746865206f776e65725f82015250565b5f612def6020836121f9565b9150612dfa82612dbb565b602082019050919050565b5f6020820190508181035f830152612e1c81612de3565b9050919050565b5f81519050919050565b5f82825260208201905092915050565b5f612e4782612e23565b612e518185612e2d565b9350612e61818560208601611fd7565b612e6a81611fff565b840191505092915050565b5f608082019050612e885f8301876122b6565b612e9560208301866122b6565b612ea2604083018561236c565b8181036060830152612eb48184612e3d565b905095945050505050565b5f81519050612ecd81612171565b92915050565b5f60208284031215612ee857612ee7611eef565b5b5f612ef584828501612ebf565b91505092915050565b7f4e487b71000000000000000000000000000000000000000000000000000000005f52601260045260245ffd5b5f604082019050612f3e5f8301856122b6565b612f4b602083018461236c565b939250505056fea26469706673582212209d12e630dbaee6201dcca645506ae7ba042529c523195945bc9894904e7eca8864736f6c63430008160033",
					"opcodes": "PUSH1 0x80 PUSH1 0x40 MSTORE CALLVALUE DUP1 ISZERO PUSH3 0x10 JUMPI PUSH0 DUP1 REVERT JUMPDEST POP PUSH1 0x40 MLOAD PUSH3 0x356B CODESIZE SUB DUP1 PUSH3 0x356B DUP4 CODECOPY DUP2 DUP2 ADD PUSH1 0x40 MSTORE DUP2 ADD SWAP1 PUSH3 0x36 SWAP2 SWAP1 PUSH3 0x25D JUMP JUMPDEST PUSH1 0x40 MLOAD DUP1 PUSH1 0x40 ADD PUSH1 0x40 MSTORE DUP1 PUSH1 0xB DUP2 MSTORE PUSH1 0x20 ADD PUSH32 0x50726F6475637442696C6C000000000000000000000000000000000000000000 DUP2 MSTORE POP PUSH1 0x40 MLOAD DUP1 PUSH1 0x40 ADD PUSH1 0x40 MSTORE DUP1 PUSH1 0x3 DUP2 MSTORE PUSH1 0x20 ADD PUSH32 0x50424C0000000000000000000000000000000000000000000000000000000000 DUP2 MSTORE POP DUP2 PUSH0 SWAP1 DUP2 PUSH3 0xB2 SWAP2 SWAP1 PUSH3 0x4F1 JUMP JUMPDEST POP DUP1 PUSH1 0x1 SWAP1 DUP2 PUSH3 0xC4 SWAP2 SWAP1 PUSH3 0x4F1 JUMP JUMPDEST POP POP POP PUSH3 0xE7 PUSH3 0xDB PUSH3 0x12E PUSH1 0x20 SHL PUSH1 0x20 SHR JUMP JUMPDEST PUSH3 0x135 PUSH1 0x20 SHL PUSH1 0x20 SHR JUMP JUMPDEST DUP1 PUSH1 0x7 PUSH0 PUSH2 0x100 EXP DUP2 SLOAD DUP2 PUSH20 0xFFFFFFFFFFFFFFFFFFFFFFFFFFFFFFFFFFFFFFFF MUL NOT AND SWAP1 DUP4 PUSH20 0xFFFFFFFFFFFFFFFFFFFFFFFFFFFFFFFFFFFFFFFF AND MUL OR SWAP1 SSTORE POP POP PUSH3 0x5D5 JUMP JUMPDEST PUSH0 CALLER SWAP1 POP SWAP1 JUMP JUMPDEST PUSH0 PUSH1 0x6 PUSH0 SWAP1 SLOAD SWAP1 PUSH2 0x100 EXP SWAP1 DIV PUSH20 0xFFFFFFFFFFFFFFFFFFFFFFFFFFFFFFFFFFFFFFFF AND SWAP1 POP DUP2 PUSH1 0x6 PUSH0 PUSH2 0x100 EXP DUP2 SLOAD DUP2 PUSH20 0xFFFFFFFFFFFFFFFFFFFFFFFFFFFFFFFFFFFFFFFF MUL NOT AND SWAP1 DUP4 PUSH20 0xFFFFFFFFFFFFFFFFFFFFFFFFFFFFFFFFFFFFFFFF AND MUL OR SWAP1 SSTORE POP DUP2 PUSH20 0xFFFFFFFFFFFFFFFFFFFFFFFFFFFFFFFFFFFFFFFF AND DUP2 PUSH20 0xFFFFFFFFFFFFFFFFFFFFFFFFFFFFFFFFFFFFFFFF AND PUSH32 0x8BE0079C531659141344CD1FD0A4F28419497F9722A3DAAFE3B4186F6B6457E0 PUSH1 0x40 MLOAD PUSH1 0x40 MLOAD DUP1 SWAP2 SUB SWAP1 LOG3 POP POP JUMP JUMPDEST PUSH0 DUP1 REVERT JUMPDEST PUSH0 PUSH20 0xFFFFFFFFFFFFFFFFFFFFFFFFFFFFFFFFFFFFFFFF DUP3 AND SWAP1 POP SWAP2 SWAP1 POP JUMP JUMPDEST PUSH0 PUSH3 0x227 DUP3 PUSH3 0x1FC JUMP JUMPDEST SWAP1 POP SWAP2 SWAP1 POP JUMP JUMPDEST PUSH3 0x239 DUP2 PUSH3 0x21B JUMP JUMPDEST DUP2 EQ PUSH3 0x244 JUMPI PUSH0 DUP1 REVERT JUMPDEST POP JUMP JUMPDEST PUSH0 DUP2 MLOAD SWAP1 POP PUSH3 0x257 DUP2 PUSH3 0x22E JUMP JUMPDEST SWAP3 SWAP2 POP POP JUMP JUMPDEST PUSH0 PUSH1 0x20 DUP3 DUP5 SUB SLT ISZERO PUSH3 0x275 JUMPI PUSH3 0x274 PUSH3 0x1F8 JUMP JUMPDEST JUMPDEST PUSH0 PUSH3 0x284 DUP5 DUP3 DUP6 ADD PUSH3 0x247 JUMP JUMPDEST SWAP2 POP POP SWAP3 SWAP2 POP POP JUMP JUMPDEST PUSH0 DUP2 MLOAD SWAP1 POP SWAP2 SWAP1 POP JUMP JUMPDEST PUSH32 0x4E487B7100000000000000000000000000000000000000000000000000000000 PUSH0 MSTORE PUSH1 0x41 PUSH1 0x4 MSTORE PUSH1 0x24 PUSH0 REVERT JUMPDEST PUSH32 0x4E487B7100000000000000000000000000000000000000000000000000000000 PUSH0 MSTORE PUSH1 0x22 PUSH1 0x4 MSTORE PUSH1 0x24 PUSH0 REVERT JUMPDEST PUSH0 PUSH1 0x2 DUP3 DIV SWAP1 POP PUSH1 0x1 DUP3 AND DUP1 PUSH3 0x309 JUMPI PUSH1 0x7F DUP3 AND SWAP2 POP JUMPDEST PUSH1 0x20 DUP3 LT DUP2 SUB PUSH3 0x31F JUMPI PUSH3 0x31E PUSH3 0x2C4 JUMP JUMPDEST JUMPDEST POP SWAP2 SWAP1 POP JUMP JUMPDEST PUSH0 DUP2 SWAP1 POP DUP2 PUSH0 MSTORE PUSH1 0x20 PUSH0 KECCAK256 SWAP1 POP SWAP2 SWAP1 POP JUMP JUMPDEST PUSH0 PUSH1 0x20 PUSH1 0x1F DUP4 ADD DIV SWAP1 POP SWAP2 SWAP1 POP JUMP JUMPDEST PUSH0 DUP3 DUP3 SHL SWAP1 POP SWAP3 SWAP2 POP POP JUMP JUMPDEST PUSH0 PUSH1 0x8 DUP4 MUL PUSH3 0x383 PUSH32 0xFFFFFFFFFFFFFFFFFFFFFFFFFFFFFFFFFFFFFFFFFFFFFFFFFFFFFFFFFFFFFFFF DUP3 PUSH3 0x346 JUMP JUMPDEST PUSH3 0x38F DUP7 DUP4 PUSH3 0x346 JUMP JUMPDEST SWAP6 POP DUP1 NOT DUP5 AND SWAP4 POP DUP1 DUP7 AND DUP5 OR SWAP3 POP POP POP SWAP4 SWAP3 POP POP POP JUMP JUMPDEST PUSH0 DUP2 SWAP1 POP SWAP2 SWAP1 POP JUMP JUMPDEST PUSH0 DUP2 SWAP1 POP SWAP2 SWAP1 POP JUMP JUMPDEST PUSH0 PUSH3 0x3D9 PUSH3 0x3D3 PUSH3 0x3CD DUP5 PUSH3 0x3A7 JUMP JUMPDEST PUSH3 0x3B0 JUMP JUMPDEST PUSH3 0x3A7 JUMP JUMPDEST SWAP1 POP SWAP2 SWAP1 POP JUMP JUMPDEST PUSH0 DUP2 SWAP1 POP SWAP2 SWAP1 POP JUMP JUMPDEST PUSH3 0x3F4 DUP4 PUSH3 0x3B9 JUMP JUMPDEST PUSH3 0x40C PUSH3 0x403 DUP3 PUSH3 0x3E0 JUMP JUMPDEST DUP5 DUP5 SLOAD PUSH3 0x352 JUMP JUMPDEST DUP3 SSTORE POP POP POP POP JUMP JUMPDEST PUSH0 SWAP1 JUMP JUMPDEST PUSH3 0x422 PUSH3 0x414 JUMP JUMPDEST PUSH3 0x42F DUP2 DUP5 DUP5 PUSH3 0x3E9 JUMP JUMPDEST POP POP POP JUMP JUMPDEST JUMPDEST DUP2 DUP2 LT ISZERO PUSH3 0x456 JUMPI PUSH3 0x44A PUSH0 DUP3 PUSH3 0x418 JUMP JUMPDEST PUSH1 0x1 DUP2 ADD SWAP1 POP PUSH3 0x435 JUMP JUMPDEST POP POP JUMP JUMPDEST PUSH1 0x1F DUP3 GT ISZERO PUSH3 0x4A5 JUMPI PUSH3 0x46F DUP2 PUSH3 0x325 JUMP JUMPDEST PUSH3 0x47A DUP5 PUSH3 0x337 JUMP JUMPDEST DUP2 ADD PUSH1 0x20 DUP6 LT ISZERO PUSH3 0x48A JUMPI DUP2 SWAP1 POP JUMPDEST PUSH3 0x4A2 PUSH3 0x499 DUP6 PUSH3 0x337 JUMP JUMPDEST DUP4 ADD DUP3 PUSH3 0x434 JUMP JUMPDEST POP POP JUMPDEST POP POP POP JUMP JUMPDEST PUSH0 DUP3 DUP3 SHR SWAP1 POP SWAP3 SWAP2 POP POP JUMP JUMPDEST PUSH0 PUSH3 0x4C7 PUSH0 NOT DUP5 PUSH1 0x8 MUL PUSH3 0x4AA JUMP JUMPDEST NOT DUP1 DUP4 AND SWAP2 POP POP SWAP3 SWAP2 POP POP JUMP JUMPDEST PUSH0 PUSH3 0x4E1 DUP4 DUP4 PUSH3 0x4B6 JUMP JUMPDEST SWAP2 POP DUP3 PUSH1 0x2 MUL DUP3 OR SWAP1 POP SWAP3 SWAP2 POP POP JUMP JUMPDEST PUSH3 0x4FC DUP3 PUSH3 0x28D JUMP JUMPDEST PUSH8 0xFFFFFFFFFFFFFFFF DUP2 GT ISZERO PUSH3 0x518 JUMPI PUSH3 0x517 PUSH3 0x297 JUMP JUMPDEST JUMPDEST PUSH3 0x524 DUP3 SLOAD PUSH3 0x2F1 JUMP JUMPDEST PUSH3 0x531 DUP3 DUP3 DUP6 PUSH3 0x45A JUMP JUMPDEST PUSH0 PUSH1 0x20 SWAP1 POP PUSH1 0x1F DUP4 GT PUSH1 0x1 DUP2 EQ PUSH3 0x567 JUMPI PUSH0 DUP5 ISZERO PUSH3 0x552 JUMPI DUP3 DUP8 ADD MLOAD SWAP1 POP JUMPDEST PUSH3 0x55E DUP6 DUP3 PUSH3 0x4D4 JUMP JUMPDEST DUP7 SSTORE POP PUSH3 0x5CD JUMP JUMPDEST PUSH1 0x1F NOT DUP5 AND PUSH3 0x577 DUP7 PUSH3 0x325 JUMP JUMPDEST PUSH0 JUMPDEST DUP3 DUP2 LT ISZERO PUSH3 0x5A0 JUMPI DUP5 DUP10 ADD MLOAD DUP3 SSTORE PUSH1 0x1 DUP3 ADD SWAP2 POP PUSH1 0x20 DUP6 ADD SWAP5 POP PUSH1 0x20 DUP2 ADD SWAP1 POP PUSH3 0x579 JUMP JUMPDEST DUP7 DUP4 LT ISZERO PUSH3 0x5C0 JUMPI DUP5 DUP10 ADD MLOAD PUSH3 0x5BC PUSH1 0x1F DUP10 AND DUP3 PUSH3 0x4B6 JUMP JUMPDEST DUP4 SSTORE POP JUMPDEST PUSH1 0x1 PUSH1 0x2 DUP9 MUL ADD DUP9 SSTORE POP POP POP JUMPDEST POP POP POP POP POP POP JUMP JUMPDEST PUSH2 0x2F88 DUP1 PUSH3 0x5E3 PUSH0 CODECOPY PUSH0 RETURN INVALID PUSH1 0x80 PUSH1 0x40 MSTORE CALLVALUE DUP1 ISZERO PUSH2 0xF JUMPI PUSH0 DUP1 REVERT JUMPDEST POP PUSH1 0x4 CALLDATASIZE LT PUSH2 0x14B JUMPI PUSH0 CALLDATALOAD PUSH1 0xE0 SHR DUP1 PUSH4 0x7ACC0B20 GT PUSH2 0xC1 JUMPI DUP1 PUSH4 0xB88D4FDE GT PUSH2 0x7A JUMPI DUP1 PUSH4 0xB88D4FDE EQ PUSH2 0x39B JUMPI DUP1 PUSH4 0xC87B56DD EQ PUSH2 0x3B7 JUMPI DUP1 PUSH4 0xCF2C0334 EQ PUSH2 0x3E7 JUMPI DUP1 PUSH4 0xE985E9C5 EQ PUSH2 0x417 JUMPI DUP1 PUSH4 0xF2FDE38B EQ PUSH2 0x447 JUMPI DUP1 PUSH4 0xFC0C546A EQ PUSH2 0x463 JUMPI PUSH2 0x14B JUMP JUMPDEST DUP1 PUSH4 0x7ACC0B20 EQ PUSH2 0x2D9 JUMPI DUP1 PUSH4 0x8642269E EQ PUSH2 0x30B JUMPI DUP1 PUSH4 0x8DA5CB5B EQ PUSH2 0x327 JUMPI DUP1 PUSH4 0x95D89B41 EQ PUSH2 0x345 JUMPI DUP1 PUSH4 0xA22CB465 EQ PUSH2 0x363 JUMPI DUP1 PUSH4 0xB15247D9 EQ PUSH2 0x37F JUMPI PUSH2 0x14B JUMP JUMPDEST DUP1 PUSH4 0x23B872DD GT PUSH2 0x113 JUMPI DUP1 PUSH4 0x23B872DD EQ PUSH2 0x219 JUMPI DUP1 PUSH4 0x42842E0E EQ PUSH2 0x235 JUMPI DUP1 PUSH4 0x4DE91A63 EQ PUSH2 0x251 JUMPI DUP1 PUSH4 0x6352211E EQ PUSH2 0x26F JUMPI DUP1 PUSH4 0x70A08231 EQ PUSH2 0x29F JUMPI DUP1 PUSH4 0x715018A6 EQ PUSH2 0x2CF JUMPI PUSH2 0x14B JUMP JUMPDEST DUP1 PUSH4 0x19D2FBF EQ PUSH2 0x14F JUMPI DUP1 PUSH4 0x1FFC9A7 EQ PUSH2 0x17F JUMPI DUP1 PUSH4 0x6FDDE03 EQ PUSH2 0x1AF JUMPI DUP1 PUSH4 0x81812FC EQ PUSH2 0x1CD JUMPI DUP1 PUSH4 0x95EA7B3 EQ PUSH2 0x1FD JUMPI JUMPDEST PUSH0 DUP1 REVERT JUMPDEST PUSH2 0x169 PUSH1 0x4 DUP1 CALLDATASIZE SUB DUP2 ADD SWAP1 PUSH2 0x164 SWAP2 SWAP1 PUSH2 0x1F51 JUMP JUMPDEST PUSH2 0x481 JUMP JUMPDEST PUSH1 0x40 MLOAD PUSH2 0x176 SWAP2 SWAP1 PUSH2 0x2126 JUMP JUMPDEST PUSH1 0x40 MLOAD DUP1 SWAP2 SUB SWAP1 RETURN JUMPDEST PUSH2 0x199 PUSH1 0x4 DUP1 CALLDATASIZE SUB DUP2 ADD SWAP1 PUSH2 0x194 SWAP2 SWAP1 PUSH2 0x219B JUMP JUMPDEST PUSH2 0x687 JUMP JUMPDEST PUSH1 0x40 MLOAD PUSH2 0x1A6 SWAP2 SWAP1 PUSH2 0x21E0 JUMP JUMPDEST PUSH1 0x40 MLOAD DUP1 SWAP2 SUB SWAP1 RETURN JUMPDEST PUSH2 0x1B7 PUSH2 0x768 JUMP JUMPDEST PUSH1 0x40 MLOAD PUSH2 0x1C4 SWAP2 SWAP1 PUSH2 0x2241 JUMP JUMPDEST PUSH1 0x40 MLOAD DUP1 SWAP2 SUB SWAP1 RETURN JUMPDEST PUSH2 0x1E7 PUSH1 0x4 DUP1 CALLDATASIZE SUB DUP2 ADD SWAP1 PUSH2 0x1E2 SWAP2 SWAP1 PUSH2 0x228B JUMP JUMPDEST PUSH2 0x7F7 JUMP JUMPDEST PUSH1 0x40 MLOAD PUSH2 0x1F4 SWAP2 SWAP1 PUSH2 0x22C5 JUMP JUMPDEST PUSH1 0x40 MLOAD DUP1 SWAP2 SUB SWAP1 RETURN JUMPDEST PUSH2 0x217 PUSH1 0x4 DUP1 CALLDATASIZE SUB DUP2 ADD SWAP1 PUSH2 0x212 SWAP2 SWAP1 PUSH2 0x22DE JUMP JUMPDEST PUSH2 0x812 JUMP JUMPDEST STOP JUMPDEST PUSH2 0x233 PUSH1 0x4 DUP1 CALLDATASIZE SUB DUP2 ADD SWAP1 PUSH2 0x22E SWAP2 SWAP1 PUSH2 0x231C JUMP JUMPDEST PUSH2 0x828 JUMP JUMPDEST STOP JUMPDEST PUSH2 0x24F PUSH1 0x4 DUP1 CALLDATASIZE SUB DUP2 ADD SWAP1 PUSH2 0x24A SWAP2 SWAP1 PUSH2 0x231C JUMP JUMPDEST PUSH2 0x927 JUMP JUMPDEST STOP JUMPDEST PUSH2 0x259 PUSH2 0x946 JUMP JUMPDEST PUSH1 0x40 MLOAD PUSH2 0x266 SWAP2 SWAP1 PUSH2 0x237B JUMP JUMPDEST PUSH1 0x40 MLOAD DUP1 SWAP2 SUB SWAP1 RETURN JUMPDEST PUSH2 0x289 PUSH1 0x4 DUP1 CALLDATASIZE SUB DUP2 ADD SWAP1 PUSH2 0x284 SWAP2 SWAP1 PUSH2 0x228B JUMP JUMPDEST PUSH2 0x94C JUMP JUMPDEST PUSH1 0x40 MLOAD PUSH2 0x296 SWAP2 SWAP1 PUSH2 0x22C5 JUMP JUMPDEST PUSH1 0x40 MLOAD DUP1 SWAP2 SUB SWAP1 RETURN JUMPDEST PUSH2 0x2B9 PUSH1 0x4 DUP1 CALLDATASIZE SUB DUP2 ADD SWAP1 PUSH2 0x2B4 SWAP2 SWAP1 PUSH2 0x1F51 JUMP JUMPDEST PUSH2 0x95D JUMP JUMPDEST PUSH1 0x40 MLOAD PUSH2 0x2C6 SWAP2 SWAP1 PUSH2 0x237B JUMP JUMPDEST PUSH1 0x40 MLOAD DUP1 SWAP2 SUB SWAP1 RETURN JUMPDEST PUSH2 0x2D7 PUSH2 0xA13 JUMP JUMPDEST STOP JUMPDEST PUSH2 0x2F3 PUSH1 0x4 DUP1 CALLDATASIZE SUB DUP2 ADD SWAP1 PUSH2 0x2EE SWAP2 SWAP1 PUSH2 0x228B JUMP JUMPDEST PUSH2 0xA26 JUMP JUMPDEST PUSH1 0x40 MLOAD PUSH2 0x302 SWAP4 SWAP3 SWAP2 SWAP1 PUSH2 0x2394 JUMP JUMPDEST PUSH1 0x40 MLOAD DUP1 SWAP2 SUB SWAP1 RETURN JUMPDEST PUSH2 0x325 PUSH1 0x4 DUP1 CALLDATASIZE SUB DUP2 ADD SWAP1 PUSH2 0x320 SWAP2 SWAP1 PUSH2 0x228B JUMP JUMPDEST PUSH2 0xAD2 JUMP JUMPDEST STOP JUMPDEST PUSH2 0x32F PUSH2 0xCFA JUMP JUMPDEST PUSH1 0x40 MLOAD PUSH2 0x33C SWAP2 SWAP1 PUSH2 0x22C5 JUMP JUMPDEST PUSH1 0x40 MLOAD DUP1 SWAP2 SUB SWAP1 RETURN JUMPDEST PUSH2 0x34D PUSH2 0xD22 JUMP JUMPDEST PUSH1 0x40 MLOAD PUSH2 0x35A SWAP2 SWAP1 PUSH2 0x2241 JUMP JUMPDEST PUSH1 0x40 MLOAD DUP1 SWAP2 SUB SWAP1 RETURN JUMPDEST PUSH2 0x37D PUSH1 0x4 DUP1 CALLDATASIZE SUB DUP2 ADD SWAP1 PUSH2 0x378 SWAP2 SWAP1 PUSH2 0x23FA JUMP JUMPDEST PUSH2 0xDB2 JUMP JUMPDEST STOP JUMPDEST PUSH2 0x399 PUSH1 0x4 DUP1 CALLDATASIZE SUB DUP2 ADD SWAP1 PUSH2 0x394 SWAP2 SWAP1 PUSH2 0x2564 JUMP JUMPDEST PUSH2 0xDC8 JUMP JUMPDEST STOP JUMPDEST PUSH2 0x3B5 PUSH1 0x4 DUP1 CALLDATASIZE SUB DUP2 ADD SWAP1 PUSH2 0x3B0 SWAP2 SWAP1 PUSH2 0x265C JUMP JUMPDEST PUSH2 0xE45 JUMP JUMPDEST STOP JUMPDEST PUSH2 0x3D1 PUSH1 0x4 DUP1 CALLDATASIZE SUB DUP2 ADD SWAP1 PUSH2 0x3CC SWAP2 SWAP1 PUSH2 0x228B JUMP JUMPDEST PUSH2 0xE62 JUMP JUMPDEST PUSH1 0x40 MLOAD PUSH2 0x3DE SWAP2 SWAP1 PUSH2 0x2241 JUMP JUMPDEST PUSH1 0x40 MLOAD DUP1 SWAP2 SUB SWAP1 RETURN JUMPDEST PUSH2 0x401 PUSH1 0x4 DUP1 CALLDATASIZE SUB DUP2 ADD SWAP1 PUSH2 0x3FC SWAP2 SWAP1 PUSH2 0x22DE JUMP JUMPDEST PUSH2 0xEC8 JUMP JUMPDEST PUSH1 0x40 MLOAD PUSH2 0x40E SWAP2 SWAP1 PUSH2 0x237B JUMP JUMPDEST PUSH1 0x40 MLOAD DUP1 SWAP2 SUB SWAP1 RETURN JUMPDEST PUSH2 0x431 PUSH1 0x4 DUP1 CALLDATASIZE SUB DUP2 ADD SWAP1 PUSH2 0x42C SWAP2 SWAP1 PUSH2 0x26DC JUMP JUMPDEST PUSH2 0xEF3 JUMP JUMPDEST PUSH1 0x40 MLOAD PUSH2 0x43E SWAP2 SWAP1 PUSH2 0x21E0 JUMP JUMPDEST PUSH1 0x40 MLOAD DUP1 SWAP2 SUB SWAP1 RETURN JUMPDEST PUSH2 0x461 PUSH1 0x4 DUP1 CALLDATASIZE SUB DUP2 ADD SWAP1 PUSH2 0x45C SWAP2 SWAP1 PUSH2 0x1F51 JUMP JUMPDEST PUSH2 0xF81 JUMP JUMPDEST STOP JUMPDEST PUSH2 0x46B PUSH2 0x1003 JUMP JUMPDEST PUSH1 0x40 MLOAD PUSH2 0x478 SWAP2 SWAP1 PUSH2 0x2775 JUMP JUMPDEST PUSH1 0x40 MLOAD DUP1 SWAP2 SUB SWAP1 RETURN JUMPDEST PUSH1 0x60 PUSH0 PUSH1 0xA PUSH0 DUP5 PUSH20 0xFFFFFFFFFFFFFFFFFFFFFFFFFFFFFFFFFFFFFFFF AND PUSH20 0xFFFFFFFFFFFFFFFFFFFFFFFFFFFFFFFFFFFFFFFF AND DUP2 MSTORE PUSH1 0x20 ADD SWAP1 DUP2 MSTORE PUSH1 0x20 ADD PUSH0 KECCAK256 DUP1 SLOAD DUP1 PUSH1 0x20 MUL PUSH1 0x20 ADD PUSH1 0x40 MLOAD SWAP1 DUP2 ADD PUSH1 0x40 MSTORE DUP1 SWAP3 SWAP2 SWAP1 DUP2 DUP2 MSTORE PUSH1 0x20 ADD DUP3 DUP1 SLOAD DUP1 ISZERO PUSH2 0x509 JUMPI PUSH1 0x20 MUL DUP3 ADD SWAP2 SWAP1 PUSH0 MSTORE PUSH1 0x20 PUSH0 KECCAK256 SWAP1 JUMPDEST DUP2 SLOAD DUP2 MSTORE PUSH1 0x20 ADD SWAP1 PUSH1 0x1 ADD SWAP1 DUP1 DUP4 GT PUSH2 0x4F5 JUMPI JUMPDEST POP POP POP POP POP SWAP1 POP PUSH0 DUP2 MLOAD PUSH8 0xFFFFFFFFFFFFFFFF DUP2 GT ISZERO PUSH2 0x52C JUMPI PUSH2 0x52B PUSH2 0x2440 JUMP JUMPDEST JUMPDEST PUSH1 0x40 MLOAD SWAP1 DUP1 DUP3 MSTORE DUP1 PUSH1 0x20 MUL PUSH1 0x20 ADD DUP3 ADD PUSH1 0x40 MSTORE DUP1 ISZERO PUSH2 0x565 JUMPI DUP2 PUSH1 0x20 ADD JUMPDEST PUSH2 0x552 PUSH2 0x1EC7 JUMP JUMPDEST DUP2 MSTORE PUSH1 0x20 ADD SWAP1 PUSH1 0x1 SWAP1 SUB SWAP1 DUP2 PUSH2 0x54A JUMPI SWAP1 POP JUMPDEST POP SWAP1 POP PUSH0 JUMPDEST DUP3 MLOAD DUP2 LT ISZERO PUSH2 0x67C JUMPI PUSH0 DUP4 DUP3 DUP2 MLOAD DUP2 LT PUSH2 0x587 JUMPI PUSH2 0x586 PUSH2 0x278E JUMP JUMPDEST JUMPDEST PUSH1 0x20 MUL PUSH1 0x20 ADD ADD MLOAD SWAP1 POP PUSH1 0x9 PUSH0 DUP3 DUP2 MSTORE PUSH1 0x20 ADD SWAP1 DUP2 MSTORE PUSH1 0x20 ADD PUSH0 KECCAK256 PUSH1 0x40 MLOAD DUP1 PUSH1 0x60 ADD PUSH1 0x40 MSTORE SWAP1 DUP2 PUSH0 DUP3 ADD SLOAD DUP2 MSTORE PUSH1 0x20 ADD PUSH1 0x1 DUP3 ADD DUP1 SLOAD PUSH2 0x5C6 SWAP1 PUSH2 0x27E8 JUMP JUMPDEST DUP1 PUSH1 0x1F ADD PUSH1 0x20 DUP1 SWAP2 DIV MUL PUSH1 0x20 ADD PUSH1 0x40 MLOAD SWAP1 DUP2 ADD PUSH1 0x40 MSTORE DUP1 SWAP3 SWAP2 SWAP1 DUP2 DUP2 MSTORE PUSH1 0x20 ADD DUP3 DUP1 SLOAD PUSH2 0x5F2 SWAP1 PUSH2 0x27E8 JUMP JUMPDEST DUP1 ISZERO PUSH2 0x63D JUMPI DUP1 PUSH1 0x1F LT PUSH2 0x614 JUMPI PUSH2 0x100 DUP1 DUP4 SLOAD DIV MUL DUP4 MSTORE SWAP2 PUSH1 0x20 ADD SWAP2 PUSH2 0x63D JUMP JUMPDEST DUP3 ADD SWAP2 SWAP1 PUSH0 MSTORE PUSH1 0x20 PUSH0 KECCAK256 SWAP1 JUMPDEST DUP2 SLOAD DUP2 MSTORE SWAP1 PUSH1 0x1 ADD SWAP1 PUSH1 0x20 ADD DUP1 DUP4 GT PUSH2 0x620 JUMPI DUP3 SWAP1 SUB PUSH1 0x1F AND DUP3 ADD SWAP2 JUMPDEST POP POP POP POP POP DUP2 MSTORE PUSH1 0x20 ADD PUSH1 0x2 DUP3 ADD SLOAD DUP2 MSTORE POP POP DUP4 DUP4 DUP2 MLOAD DUP2 LT PUSH2 0x663 JUMPI PUSH2 0x662 PUSH2 0x278E JUMP JUMPDEST JUMPDEST PUSH1 0x20 MUL PUSH1 0x20 ADD ADD DUP2 SWAP1 MSTORE POP POP DUP1 DUP1 PUSH1 0x1 ADD SWAP2 POP POP PUSH2 0x56A JUMP JUMPDEST POP DUP1 SWAP3 POP POP POP SWAP2 SWAP1 POP JUMP JUMPDEST PUSH0 PUSH32 0x80AC58CD00000000000000000000000000000000000000000000000000000000 PUSH28 0xFFFFFFFFFFFFFFFFFFFFFFFFFFFFFFFFFFFFFFFFFFFFFFFFFFFFFFFF NOT AND DUP3 PUSH28 0xFFFFFFFFFFFFFFFFFFFFFFFFFFFFFFFFFFFFFFFFFFFFFFFFFFFFFFFF NOT AND EQ DUP1 PUSH2 0x751 JUMPI POP PUSH32 0x5B5E139F00000000000000000000000000000000000000000000000000000000 PUSH28 0xFFFFFFFFFFFFFFFFFFFFFFFFFFFFFFFFFFFFFFFFFFFFFFFFFFFFFFFF NOT AND DUP3 PUSH28 0xFFFFFFFFFFFFFFFFFFFFFFFFFFFFFFFFFFFFFFFFFFFFFFFFFFFFFFFF NOT AND EQ JUMPDEST DUP1 PUSH2 0x761 JUMPI POP PUSH2 0x760 DUP3 PUSH2 0x1028 JUMP JUMPDEST JUMPDEST SWAP1 POP SWAP2 SWAP1 POP JUMP JUMPDEST PUSH1 0x60 PUSH0 DUP1 SLOAD PUSH2 0x776 SWAP1 PUSH2 0x27E8 JUMP JUMPDEST DUP1 PUSH1 0x1F ADD PUSH1 0x20 DUP1 SWAP2 DIV MUL PUSH1 0x20 ADD PUSH1 0x40 MLOAD SWAP1 DUP2 ADD PUSH1 0x40 MSTORE DUP1 SWAP3 SWAP2 SWAP1 DUP2 DUP2 MSTORE PUSH1 0x20 ADD DUP3 DUP1 SLOAD PUSH2 0x7A2 SWAP1 PUSH2 0x27E8 JUMP JUMPDEST DUP1 ISZERO PUSH2 0x7ED JUMPI DUP1 PUSH1 0x1F LT PUSH2 0x7C4 JUMPI PUSH2 0x100 DUP1 DUP4 SLOAD DIV MUL DUP4 MSTORE SWAP2 PUSH1 0x20 ADD SWAP2 PUSH2 0x7ED JUMP JUMPDEST DUP3 ADD SWAP2 SWAP1 PUSH0 MSTORE PUSH1 0x20 PUSH0 KECCAK256 SWAP1 JUMPDEST DUP2 SLOAD DUP2 MSTORE SWAP1 PUSH1 0x1 ADD SWAP1 PUSH1 0x20 ADD DUP1 DUP4 GT PUSH2 0x7D0 JUMPI DUP3 SWAP1 SUB PUSH1 0x1F AND DUP3 ADD SWAP2 JUMPDEST POP POP POP POP POP SWAP1 POP SWAP1 JUMP JUMPDEST PUSH0 PUSH2 0x801 DUP3 PUSH2 0x1091 JUMP JUMPDEST POP PUSH2 0x80B DUP3 PUSH2 0x1117 JUMP JUMPDEST SWAP1 POP SWAP2 SWAP1 POP JUMP JUMPDEST PUSH2 0x824 DUP3 DUP3 PUSH2 0x81F PUSH2 0x1150 JUMP JUMPDEST PUSH2 0x1157 JUMP JUMPDEST POP POP JUMP JUMPDEST PUSH0 PUSH20 0xFFFFFFFFFFFFFFFFFFFFFFFFFFFFFFFFFFFFFFFF AND DUP3 PUSH20 0xFFFFFFFFFFFFFFFFFFFFFFFFFFFFFFFFFFFFFFFF AND SUB PUSH2 0x898 JUMPI PUSH0 PUSH1 0x40 MLOAD PUSH32 0x64A0AE9200000000000000000000000000000000000000000000000000000000 DUP2 MSTORE PUSH1 0x4 ADD PUSH2 0x88F SWAP2 SWAP1 PUSH2 0x22C5 JUMP JUMPDEST PUSH1 0x40 MLOAD DUP1 SWAP2 SUB SWAP1 REVERT JUMPDEST PUSH0 PUSH2 0x8AB DUP4 DUP4 PUSH2 0x8A6 PUSH2 0x1150 JUMP JUMPDEST PUSH2 0x1169 JUMP JUMPDEST SWAP1 POP DUP4 PUSH20 0xFFFFFFFFFFFFFFFFFFFFFFFFFFFFFFFFFFFFFFFF AND DUP2 PUSH20 0xFFFFFFFFFFFFFFFFFFFFFFFFFFFFFFFFFFFFFFFF AND EQ PUSH2 0x921 JUMPI DUP4 DUP3 DUP3 PUSH1 0x40 MLOAD PUSH32 0x64283D7B00000000000000000000000000000000000000000000000000000000 DUP2 MSTORE PUSH1 0x4 ADD PUSH2 0x918 SWAP4 SWAP3 SWAP2 SWAP1 PUSH2 0x2818 JUMP JUMPDEST PUSH1 0x40 MLOAD DUP1 SWAP2 SUB SWAP1 REVERT JUMPDEST POP POP POP POP JUMP JUMPDEST PUSH2 0x941 DUP4 DUP4 DUP4 PUSH1 0x40 MLOAD DUP1 PUSH1 0x20 ADD PUSH1 0x40 MSTORE DUP1 PUSH0 DUP2 MSTORE POP PUSH2 0xE45 JUMP JUMPDEST POP POP POP JUMP JUMPDEST PUSH1 0xB SLOAD DUP2 JUMP JUMPDEST PUSH0 PUSH2 0x956 DUP3 PUSH2 0x1091 JUMP JUMPDEST SWAP1 POP SWAP2 SWAP1 POP JUMP JUMPDEST PUSH0 DUP1 PUSH20 0xFFFFFFFFFFFFFFFFFFFFFFFFFFFFFFFFFFFFFFFF AND DUP3 PUSH20 0xFFFFFFFFFFFFFFFFFFFFFFFFFFFFFFFFFFFFFFFF AND SUB PUSH2 0x9CE JUMPI PUSH0 PUSH1 0x40 MLOAD PUSH32 0x89C62B6400000000000000000000000000000000000000000000000000000000 DUP2 MSTORE PUSH1 0x4 ADD PUSH2 0x9C5 SWAP2 SWAP1 PUSH2 0x22C5 JUMP JUMPDEST PUSH1 0x40 MLOAD DUP1 SWAP2 SUB SWAP1 REVERT JUMPDEST PUSH1 0x3 PUSH0 DUP4 PUSH20 0xFFFFFFFFFFFFFFFFFFFFFFFFFFFFFFFFFFFFFFFF AND PUSH20 0xFFFFFFFFFFFFFFFFFFFFFFFFFFFFFFFFFFFFFFFF AND DUP2 MSTORE PUSH1 0x20 ADD SWAP1 DUP2 MSTORE PUSH1 0x20 ADD PUSH0 KECCAK256 SLOAD SWAP1 POP SWAP2 SWAP1 POP JUMP JUMPDEST PUSH2 0xA1B PUSH2 0x1374 JUMP JUMPDEST PUSH2 0xA24 PUSH0 PUSH2 0x13F2 JUMP JUMPDEST JUMP JUMPDEST PUSH1 0x9 PUSH1 0x20 MSTORE DUP1 PUSH0 MSTORE PUSH1 0x40 PUSH0 KECCAK256 PUSH0 SWAP2 POP SWAP1 POP DUP1 PUSH0 ADD SLOAD SWAP1 DUP1 PUSH1 0x1 ADD DUP1 SLOAD PUSH2 0xA4B SWAP1 PUSH2 0x27E8 JUMP JUMPDEST DUP1 PUSH1 0x1F ADD PUSH1 0x20 DUP1 SWAP2 DIV MUL PUSH1 0x20 ADD PUSH1 0x40 MLOAD SWAP1 DUP2 ADD PUSH1 0x40 MSTORE DUP1 SWAP3 SWAP2 SWAP1 DUP2 DUP2 MSTORE PUSH1 0x20 ADD DUP3 DUP1 SLOAD PUSH2 0xA77 SWAP1 PUSH2 0x27E8 JUMP JUMPDEST DUP1 ISZERO PUSH2 0xAC2 JUMPI DUP1 PUSH1 0x1F LT PUSH2 0xA99 JUMPI PUSH2 0x100 DUP1 DUP4 SLOAD DIV MUL DUP4 MSTORE SWAP2 PUSH1 0x20 ADD SWAP2 PUSH2 0xAC2 JUMP JUMPDEST DUP3 ADD SWAP2 SWAP1 PUSH0 MSTORE PUSH1 0x20 PUSH0 KECCAK256 SWAP1 JUMPDEST DUP2 SLOAD DUP2 MSTORE SWAP1 PUSH1 0x1 ADD SWAP1 PUSH1 0x20 ADD DUP1 DUP4 GT PUSH2 0xAA5 JUMPI DUP3 SWAP1 SUB PUSH1 0x1F AND DUP3 ADD SWAP2 JUMPDEST POP POP POP POP POP SWAP1 DUP1 PUSH1 0x2 ADD SLOAD SWAP1 POP DUP4 JUMP JUMPDEST PUSH0 PUSH1 0x9 PUSH0 DUP4 DUP2 MSTORE PUSH1 0x20 ADD SWAP1 DUP2 MSTORE PUSH1 0x20 ADD PUSH0 KECCAK256 SWAP1 POP PUSH0 DUP2 PUSH0 ADD SLOAD SUB PUSH2 0xB2B JUMPI PUSH1 0x40 MLOAD PUSH32 0x8C379A000000000000000000000000000000000000000000000000000000000 DUP2 MSTORE PUSH1 0x4 ADD PUSH2 0xB22 SWAP1 PUSH2 0x2897 JUMP JUMPDEST PUSH1 0x40 MLOAD DUP1 SWAP2 SUB SWAP1 REVERT JUMPDEST PUSH1 0x7 PUSH0 SWAP1 SLOAD SWAP1 PUSH2 0x100 EXP SWAP1 DIV PUSH20 0xFFFFFFFFFFFFFFFFFFFFFFFFFFFFFFFFFFFFFFFF AND PUSH20 0xFFFFFFFFFFFFFFFFFFFFFFFFFFFFFFFFFFFFFFFF AND PUSH4 0x23B872DD CALLER ADDRESS PUSH8 0xDE0B6B3A7640000 DUP6 PUSH1 0x2 ADD SLOAD PUSH2 0xB82 SWAP2 SWAP1 PUSH2 0x28E2 JUMP JUMPDEST PUSH1 0x40 MLOAD DUP5 PUSH4 0xFFFFFFFF AND PUSH1 0xE0 SHL DUP2 MSTORE PUSH1 0x4 ADD PUSH2 0xBA0 SWAP4 SWAP3 SWAP2 SWAP1 PUSH2 0x2923 JUMP JUMPDEST PUSH1 0x20 PUSH1 0x40 MLOAD DUP1 DUP4 SUB DUP2 PUSH0 DUP8 GAS CALL ISZERO DUP1 ISZERO PUSH2 0xBBC JUMPI RETURNDATASIZE PUSH0 DUP1 RETURNDATACOPY RETURNDATASIZE PUSH0 REVERT JUMPDEST POP POP POP POP PUSH1 0x40 MLOAD RETURNDATASIZE PUSH1 0x1F NOT PUSH1 0x1F DUP3 ADD AND DUP3 ADD DUP1 PUSH1 0x40 MSTORE POP DUP2 ADD SWAP1 PUSH2 0xBE0 SWAP2 SWAP1 PUSH2 0x296C JUMP JUMPDEST PUSH2 0xC1F JUMPI PUSH1 0x40 MLOAD PUSH32 0x8C379A000000000000000000000000000000000000000000000000000000000 DUP2 MSTORE PUSH1 0x4 ADD PUSH2 0xC16 SWAP1 PUSH2 0x29E1 JUMP JUMPDEST PUSH1 0x40 MLOAD DUP1 SWAP2 SUB SWAP1 REVERT JUMPDEST PUSH0 PUSH2 0xC2A PUSH1 0x8 PUSH2 0x14B5 JUMP JUMPDEST SWAP1 POP PUSH2 0xC36 CALLER DUP3 PUSH2 0x14C1 JUMP JUMPDEST PUSH2 0xC40 PUSH1 0x8 PUSH2 0x14DE JUMP JUMPDEST PUSH1 0xA PUSH0 CALLER PUSH20 0xFFFFFFFFFFFFFFFFFFFFFFFFFFFFFFFFFFFFFFFF AND PUSH20 0xFFFFFFFFFFFFFFFFFFFFFFFFFFFFFFFFFFFFFFFF AND DUP2 MSTORE PUSH1 0x20 ADD SWAP1 DUP2 MSTORE PUSH1 0x20 ADD PUSH0 KECCAK256 DUP4 SWAP1 DUP1 PUSH1 0x1 DUP2 SLOAD ADD DUP1 DUP3 SSTORE DUP1 SWAP2 POP POP PUSH1 0x1 SWAP1 SUB SWAP1 PUSH0 MSTORE PUSH1 0x20 PUSH0 KECCAK256 ADD PUSH0 SWAP1 SWAP2 SWAP1 SWAP2 SWAP1 SWAP2 POP SSTORE CALLER PUSH20 0xFFFFFFFFFFFFFFFFFFFFFFFFFFFFFFFFFFFFFFFF AND PUSH32 0x52E9B4B2677873F4A0E6AC637221C8E8CFD2149ACCD54695CB8FDAF9491DDECC DUP5 DUP5 PUSH1 0x2 ADD SLOAD PUSH1 0x40 MLOAD PUSH2 0xCED SWAP3 SWAP2 SWAP1 PUSH2 0x29FF JUMP JUMPDEST PUSH1 0x40 MLOAD DUP1 SWAP2 SUB SWAP1 LOG2 POP POP POP JUMP JUMPDEST PUSH0 PUSH1 0x6 PUSH0 SWAP1 SLOAD SWAP1 PUSH2 0x100 EXP SWAP1 DIV PUSH20 0xFFFFFFFFFFFFFFFFFFFFFFFFFFFFFFFFFFFFFFFF AND SWAP1 POP SWAP1 JUMP JUMPDEST PUSH1 0x60 PUSH1 0x1 DUP1 SLOAD PUSH2 0xD31 SWAP1 PUSH2 0x27E8 JUMP JUMPDEST DUP1 PUSH1 0x1F ADD PUSH1 0x20 DUP1 SWAP2 DIV MUL PUSH1 0x20 ADD PUSH1 0x40 MLOAD SWAP1 DUP2 ADD PUSH1 0x40 MSTORE DUP1 SWAP3 SWAP2 SWAP1 DUP2 DUP2 MSTORE PUSH1 0x20 ADD DUP3 DUP1 SLOAD PUSH2 0xD5D SWAP1 PUSH2 0x27E8 JUMP JUMPDEST DUP1 ISZERO PUSH2 0xDA8 JUMPI DUP1 PUSH1 0x1F LT PUSH2 0xD7F JUMPI PUSH2 0x100 DUP1 DUP4 SLOAD DIV MUL DUP4 MSTORE SWAP2 PUSH1 0x20 ADD SWAP2 PUSH2 0xDA8 JUMP JUMPDEST DUP3 ADD SWAP2 SWAP1 PUSH0 MSTORE PUSH1 0x20 PUSH0 KECCAK256 SWAP1 JUMPDEST DUP2 SLOAD DUP2 MSTORE SWAP1 PUSH1 0x1 ADD SWAP1 PUSH1 0x20 ADD DUP1 DUP4 GT PUSH2 0xD8B JUMPI DUP3 SWAP1 SUB PUSH1 0x1F AND DUP3 ADD SWAP2 JUMPDEST POP POP POP POP POP SWAP1 POP SWAP1 JUMP JUMPDEST PUSH2 0xDC4 PUSH2 0xDBD PUSH2 0x1150 JUMP JUMPDEST DUP4 DUP4 PUSH2 0x14F2 JUMP JUMPDEST POP POP JUMP JUMPDEST PUSH2 0xDD0 PUSH2 0x1374 JUMP JUMPDEST PUSH0 PUSH1 0xB PUSH0 DUP2 SLOAD DUP1 SWAP3 SWAP2 SWAP1 PUSH2 0xDE3 SWAP1 PUSH2 0x2A26 JUMP JUMPDEST SWAP2 SWAP1 POP SSTORE SWAP1 POP PUSH1 0x40 MLOAD DUP1 PUSH1 0x60 ADD PUSH1 0x40 MSTORE DUP1 DUP3 DUP2 MSTORE PUSH1 0x20 ADD DUP5 DUP2 MSTORE PUSH1 0x20 ADD DUP4 DUP2 MSTORE POP PUSH1 0x9 PUSH0 DUP4 DUP2 MSTORE PUSH1 0x20 ADD SWAP1 DUP2 MSTORE PUSH1 0x20 ADD PUSH0 KECCAK256 PUSH0 DUP3 ADD MLOAD DUP2 PUSH0 ADD SSTORE PUSH1 0x20 DUP3 ADD MLOAD DUP2 PUSH1 0x1 ADD SWAP1 DUP2 PUSH2 0xE32 SWAP2 SWAP1 PUSH2 0x2C01 JUMP JUMPDEST POP PUSH1 0x40 DUP3 ADD MLOAD DUP2 PUSH1 0x2 ADD SSTORE SWAP1 POP POP POP POP POP JUMP JUMPDEST PUSH2 0xE50 DUP5 DUP5 DUP5 PUSH2 0x828 JUMP JUMPDEST PUSH2 0xE5C DUP5 DUP5 DUP5 DUP5 PUSH2 0x165B JUMP JUMPDEST POP POP POP POP JUMP JUMPDEST PUSH1 0x60 PUSH2 0xE6D DUP3 PUSH2 0x1091 JUMP JUMPDEST POP PUSH0 PUSH2 0xE77 PUSH2 0x180D JUMP JUMPDEST SWAP1 POP PUSH0 DUP2 MLOAD GT PUSH2 0xE95 JUMPI PUSH1 0x40 MLOAD DUP1 PUSH1 0x20 ADD PUSH1 0x40 MSTORE DUP1 PUSH0 DUP2 MSTORE POP PUSH2 0xEC0 JUMP JUMPDEST DUP1 PUSH2 0xE9F DUP5 PUSH2 0x1823 JUMP JUMPDEST PUSH1 0x40 MLOAD PUSH1 0x20 ADD PUSH2 0xEB0 SWAP3 SWAP2 SWAP1 PUSH2 0x2D0A JUMP JUMPDEST PUSH1 0x40 MLOAD PUSH1 0x20 DUP2 DUP4 SUB SUB DUP2 MSTORE SWAP1 PUSH1 0x40 MSTORE JUMPDEST SWAP2 POP POP SWAP2 SWAP1 POP JUMP JUMPDEST PUSH1 0xA PUSH1 0x20 MSTORE DUP2 PUSH0 MSTORE PUSH1 0x40 PUSH0 KECCAK256 DUP2 DUP2 SLOAD DUP2 LT PUSH2 0xEE1 JUMPI PUSH0 DUP1 REVERT JUMPDEST SWAP1 PUSH0 MSTORE PUSH1 0x20 PUSH0 KECCAK256 ADD PUSH0 SWAP2 POP SWAP2 POP POP SLOAD DUP2 JUMP JUMPDEST PUSH0 PUSH1 0x5 PUSH0 DUP5 PUSH20 0xFFFFFFFFFFFFFFFFFFFFFFFFFFFFFFFFFFFFFFFF AND PUSH20 0xFFFFFFFFFFFFFFFFFFFFFFFFFFFFFFFFFFFFFFFF AND DUP2 MSTORE PUSH1 0x20 ADD SWAP1 DUP2 MSTORE PUSH1 0x20 ADD PUSH0 KECCAK256 PUSH0 DUP4 PUSH20 0xFFFFFFFFFFFFFFFFFFFFFFFFFFFFFFFFFFFFFFFF AND PUSH20 0xFFFFFFFFFFFFFFFFFFFFFFFFFFFFFFFFFFFFFFFF AND DUP2 MSTORE PUSH1 0x20 ADD SWAP1 DUP2 MSTORE PUSH1 0x20 ADD PUSH0 KECCAK256 PUSH0 SWAP1 SLOAD SWAP1 PUSH2 0x100 EXP SWAP1 DIV PUSH1 0xFF AND SWAP1 POP SWAP3 SWAP2 POP POP JUMP JUMPDEST PUSH2 0xF89 PUSH2 0x1374 JUMP JUMPDEST PUSH0 PUSH20 0xFFFFFFFFFFFFFFFFFFFFFFFFFFFFFFFFFFFFFFFF AND DUP2 PUSH20 0xFFFFFFFFFFFFFFFFFFFFFFFFFFFFFFFFFFFFFFFF AND SUB PUSH2 0xFF7 JUMPI PUSH1 0x40 MLOAD PUSH32 0x8C379A000000000000000000000000000000000000000000000000000000000 DUP2 MSTORE PUSH1 0x4 ADD PUSH2 0xFEE SWAP1 PUSH2 0x2D9D JUMP JUMPDEST PUSH1 0x40 MLOAD DUP1 SWAP2 SUB SWAP1 REVERT JUMPDEST PUSH2 0x1000 DUP2 PUSH2 0x13F2 JUMP JUMPDEST POP JUMP JUMPDEST PUSH1 0x7 PUSH0 SWAP1 SLOAD SWAP1 PUSH2 0x100 EXP SWAP1 DIV PUSH20 0xFFFFFFFFFFFFFFFFFFFFFFFFFFFFFFFFFFFFFFFF AND DUP2 JUMP JUMPDEST PUSH0 PUSH32 0x1FFC9A700000000000000000000000000000000000000000000000000000000 PUSH28 0xFFFFFFFFFFFFFFFFFFFFFFFFFFFFFFFFFFFFFFFFFFFFFFFFFFFFFFFF NOT AND DUP3 PUSH28 0xFFFFFFFFFFFFFFFFFFFFFFFFFFFFFFFFFFFFFFFFFFFFFFFFFFFFFFFF NOT AND EQ SWAP1 POP SWAP2 SWAP1 POP JUMP JUMPDEST PUSH0 DUP1 PUSH2 0x109C DUP4 PUSH2 0x18ED JUMP JUMPDEST SWAP1 POP PUSH0 PUSH20 0xFFFFFFFFFFFFFFFFFFFFFFFFFFFFFFFFFFFFFFFF AND DUP2 PUSH20 0xFFFFFFFFFFFFFFFFFFFFFFFFFFFFFFFFFFFFFFFF AND SUB PUSH2 0x110E JUMPI DUP3 PUSH1 0x40 MLOAD PUSH32 0x7E27328900000000000000000000000000000000000000000000000000000000 DUP2 MSTORE PUSH1 0x4 ADD PUSH2 0x1105 SWAP2 SWAP1 PUSH2 0x237B JUMP JUMPDEST PUSH1 0x40 MLOAD DUP1 SWAP2 SUB SWAP1 REVERT JUMPDEST DUP1 SWAP2 POP POP SWAP2 SWAP1 POP JUMP JUMPDEST PUSH0 PUSH1 0x4 PUSH0 DUP4 DUP2 MSTORE PUSH1 0x20 ADD SWAP1 DUP2 MSTORE PUSH1 0x20 ADD PUSH0 KECCAK256 PUSH0 SWAP1 SLOAD SWAP1 PUSH2 0x100 EXP SWAP1 DIV PUSH20 0xFFFFFFFFFFFFFFFFFFFFFFFFFFFFFFFFFFFFFFFF AND SWAP1 POP SWAP2 SWAP1 POP JUMP JUMPDEST PUSH0 CALLER SWAP1 POP SWAP1 JUMP JUMPDEST PUSH2 0x1164 DUP4 DUP4 DUP4 PUSH1 0x1 PUSH2 0x1926 JUMP JUMPDEST POP POP POP JUMP JUMPDEST PUSH0 DUP1 PUSH2 0x1174 DUP5 PUSH2 0x18ED JUMP JUMPDEST SWAP1 POP PUSH0 PUSH20 0xFFFFFFFFFFFFFFFFFFFFFFFFFFFFFFFFFFFFFFFF AND DUP4 PUSH20 0xFFFFFFFFFFFFFFFFFFFFFFFFFFFFFFFFFFFFFFFF AND EQ PUSH2 0x11B5 JUMPI PUSH2 0x11B4 DUP2 DUP5 DUP7 PUSH2 0x1AE5 JUMP JUMPDEST JUMPDEST PUSH0 PUSH20 0xFFFFFFFFFFFFFFFFFFFFFFFFFFFFFFFFFFFFFFFF AND DUP2 PUSH20 0xFFFFFFFFFFFFFFFFFFFFFFFFFFFFFFFFFFFFFFFF AND EQ PUSH2 0x1240 JUMPI PUSH2 0x11F4 PUSH0 DUP6 PUSH0 DUP1 PUSH2 0x1926 JUMP JUMPDEST PUSH1 0x1 PUSH1 0x3 PUSH0 DUP4 PUSH20 0xFFFFFFFFFFFFFFFFFFFFFFFFFFFFFFFFFFFFFFFF AND PUSH20 0xFFFFFFFFFFFFFFFFFFFFFFFFFFFFFFFFFFFFFFFF AND DUP2 MSTORE PUSH1 0x20 ADD SWAP1 DUP2 MSTORE PUSH1 0x20 ADD PUSH0 KECCAK256 PUSH0 DUP3 DUP3 SLOAD SUB SWAP3 POP POP DUP2 SWAP1 SSTORE POP JUMPDEST PUSH0 PUSH20 0xFFFFFFFFFFFFFFFFFFFFFFFFFFFFFFFFFFFFFFFF AND DUP6 PUSH20 0xFFFFFFFFFFFFFFFFFFFFFFFFFFFFFFFFFFFFFFFF AND EQ PUSH2 0x12BF JUMPI PUSH1 0x1 PUSH1 0x3 PUSH0 DUP8 PUSH20 0xFFFFFFFFFFFFFFFFFFFFFFFFFFFFFFFFFFFFFFFF AND PUSH20 0xFFFFFFFFFFFFFFFFFFFFFFFFFFFFFFFFFFFFFFFF AND DUP2 MSTORE PUSH1 0x20 ADD SWAP1 DUP2 MSTORE PUSH1 0x20 ADD PUSH0 KECCAK256 PUSH0 DUP3 DUP3 SLOAD ADD SWAP3 POP POP DUP2 SWAP1 SSTORE POP JUMPDEST DUP5 PUSH1 0x2 PUSH0 DUP7 DUP2 MSTORE PUSH1 0x20 ADD SWAP1 DUP2 MSTORE PUSH1 0x20 ADD PUSH0 KECCAK256 PUSH0 PUSH2 0x100 EXP DUP2 SLOAD DUP2 PUSH20 0xFFFFFFFFFFFFFFFFFFFFFFFFFFFFFFFFFFFFFFFF MUL NOT AND SWAP1 DUP4 PUSH20 0xFFFFFFFFFFFFFFFFFFFFFFFFFFFFFFFFFFFFFFFF AND MUL OR SWAP1 SSTORE POP DUP4 DUP6 PUSH20 0xFFFFFFFFFFFFFFFFFFFFFFFFFFFFFFFFFFFFFFFF AND DUP3 PUSH20 0xFFFFFFFFFFFFFFFFFFFFFFFFFFFFFFFFFFFFFFFF AND PUSH32 0xDDF252AD1BE2C89B69C2B068FC378DAA952BA7F163C4A11628F55A4DF523B3EF PUSH1 0x40 MLOAD PUSH1 0x40 MLOAD DUP1 SWAP2 SUB SWAP1 LOG4 DUP1 SWAP2 POP POP SWAP4 SWAP3 POP POP POP JUMP JUMPDEST PUSH2 0x137C PUSH2 0x1150 JUMP JUMPDEST PUSH20 0xFFFFFFFFFFFFFFFFFFFFFFFFFFFFFFFFFFFFFFFF AND PUSH2 0x139A PUSH2 0xCFA JUMP JUMPDEST PUSH20 0xFFFFFFFFFFFFFFFFFFFFFFFFFFFFFFFFFFFFFFFF AND EQ PUSH2 0x13F0 JUMPI PUSH1 0x40 MLOAD PUSH32 0x8C379A000000000000000000000000000000000000000000000000000000000 DUP2 MSTORE PUSH1 0x4 ADD PUSH2 0x13E7 SWAP1 PUSH2 0x2E05 JUMP JUMPDEST PUSH1 0x40 MLOAD DUP1 SWAP2 SUB SWAP1 REVERT JUMPDEST JUMP JUMPDEST PUSH0 PUSH1 0x6 PUSH0 SWAP1 SLOAD SWAP1 PUSH2 0x100 EXP SWAP1 DIV PUSH20 0xFFFFFFFFFFFFFFFFFFFFFFFFFFFFFFFFFFFFFFFF AND SWAP1 POP DUP2 PUSH1 0x6 PUSH0 PUSH2 0x100 EXP DUP2 SLOAD DUP2 PUSH20 0xFFFFFFFFFFFFFFFFFFFFFFFFFFFFFFFFFFFFFFFF MUL NOT AND SWAP1 DUP4 PUSH20 0xFFFFFFFFFFFFFFFFFFFFFFFFFFFFFFFFFFFFFFFF AND MUL OR SWAP1 SSTORE POP DUP2 PUSH20 0xFFFFFFFFFFFFFFFFFFFFFFFFFFFFFFFFFFFFFFFF AND DUP2 PUSH20 0xFFFFFFFFFFFFFFFFFFFFFFFFFFFFFFFFFFFFFFFF AND PUSH32 0x8BE0079C531659141344CD1FD0A4F28419497F9722A3DAAFE3B4186F6B6457E0 PUSH1 0x40 MLOAD PUSH1 0x40 MLOAD DUP1 SWAP2 SUB SWAP1 LOG3 POP POP JUMP JUMPDEST PUSH0 DUP2 PUSH0 ADD SLOAD SWAP1 POP SWAP2 SWAP1 POP JUMP JUMPDEST PUSH2 0x14DA DUP3 DUP3 PUSH1 0x40 MLOAD DUP1 PUSH1 0x20 ADD PUSH1 0x40 MSTORE DUP1 PUSH0 DUP2 MSTORE POP PUSH2 0x1BA8 JUMP JUMPDEST POP POP JUMP JUMPDEST PUSH1 0x1 DUP2 PUSH0 ADD PUSH0 DUP3 DUP3 SLOAD ADD SWAP3 POP POP DUP2 SWAP1 SSTORE POP POP JUMP JUMPDEST PUSH0 PUSH20 0xFFFFFFFFFFFFFFFFFFFFFFFFFFFFFFFFFFFFFFFF AND DUP3 PUSH20 0xFFFFFFFFFFFFFFFFFFFFFFFFFFFFFFFFFFFFFFFF AND SUB PUSH2 0x1562 JUMPI DUP2 PUSH1 0x40 MLOAD PUSH32 0x5B08BA1800000000000000000000000000000000000000000000000000000000 DUP2 MSTORE PUSH1 0x4 ADD PUSH2 0x1559 SWAP2 SWAP1 PUSH2 0x22C5 JUMP JUMPDEST PUSH1 0x40 MLOAD DUP1 SWAP2 SUB SWAP1 REVERT JUMPDEST DUP1 PUSH1 0x5 PUSH0 DUP6 PUSH20 0xFFFFFFFFFFFFFFFFFFFFFFFFFFFFFFFFFFFFFFFF AND PUSH20 0xFFFFFFFFFFFFFFFFFFFFFFFFFFFFFFFFFFFFFFFF AND DUP2 MSTORE PUSH1 0x20 ADD SWAP1 DUP2 MSTORE PUSH1 0x20 ADD PUSH0 KECCAK256 PUSH0 DUP5 PUSH20 0xFFFFFFFFFFFFFFFFFFFFFFFFFFFFFFFFFFFFFFFF AND PUSH20 0xFFFFFFFFFFFFFFFFFFFFFFFFFFFFFFFFFFFFFFFF AND DUP2 MSTORE PUSH1 0x20 ADD SWAP1 DUP2 MSTORE PUSH1 0x20 ADD PUSH0 KECCAK256 PUSH0 PUSH2 0x100 EXP DUP2 SLOAD DUP2 PUSH1 0xFF MUL NOT AND SWAP1 DUP4 ISZERO ISZERO MUL OR SWAP1 SSTORE POP DUP2 PUSH20 0xFFFFFFFFFFFFFFFFFFFFFFFFFFFFFFFFFFFFFFFF AND DUP4 PUSH20 0xFFFFFFFFFFFFFFFFFFFFFFFFFFFFFFFFFFFFFFFF AND PUSH32 0x17307EAB39AB6107E8899845AD3D59BD9653F200F220920489CA2B5937696C31 DUP4 PUSH1 0x40 MLOAD PUSH2 0x164E SWAP2 SWAP1 PUSH2 0x21E0 JUMP JUMPDEST PUSH1 0x40 MLOAD DUP1 SWAP2 SUB SWAP1 LOG3 POP POP POP JUMP JUMPDEST PUSH0 DUP4 PUSH20 0xFFFFFFFFFFFFFFFFFFFFFFFFFFFFFFFFFFFFFFFF AND EXTCODESIZE GT ISZERO PUSH2 0x1807 JUMPI DUP3 PUSH20 0xFFFFFFFFFFFFFFFFFFFFFFFFFFFFFFFFFFFFFFFF AND PUSH4 0x150B7A02 PUSH2 0x169E PUSH2 0x1150 JUMP JUMPDEST DUP7 DUP6 DUP6 PUSH1 0x40 MLOAD DUP6 PUSH4 0xFFFFFFFF AND PUSH1 0xE0 SHL DUP2 MSTORE PUSH1 0x4 ADD PUSH2 0x16C0 SWAP5 SWAP4 SWAP3 SWAP2 SWAP1 PUSH2 0x2E75 JUMP JUMPDEST PUSH1 0x20 PUSH1 0x40 MLOAD DUP1 DUP4 SUB DUP2 PUSH0 DUP8 GAS CALL SWAP3 POP POP POP DUP1 ISZERO PUSH2 0x16FB JUMPI POP PUSH1 0x40 MLOAD RETURNDATASIZE PUSH1 0x1F NOT PUSH1 0x1F DUP3 ADD AND DUP3 ADD DUP1 PUSH1 0x40 MSTORE POP DUP2 ADD SWAP1 PUSH2 0x16F8 SWAP2 SWAP1 PUSH2 0x2ED3 JUMP JUMPDEST PUSH1 0x1 JUMPDEST PUSH2 0x177C JUMPI RETURNDATASIZE DUP1 PUSH0 DUP2 EQ PUSH2 0x1729 JUMPI PUSH1 0x40 MLOAD SWAP2 POP PUSH1 0x1F NOT PUSH1 0x3F RETURNDATASIZE ADD AND DUP3 ADD PUSH1 0x40 MSTORE RETURNDATASIZE DUP3 MSTORE RETURNDATASIZE PUSH0 PUSH1 0x20 DUP5 ADD RETURNDATACOPY PUSH2 0x172E JUMP JUMPDEST PUSH1 0x60 SWAP2 POP JUMPDEST POP PUSH0 DUP2 MLOAD SUB PUSH2 0x1774 JUMPI DUP4 PUSH1 0x40 MLOAD PUSH32 0x64A0AE9200000000000000000000000000000000000000000000000000000000 DUP2 MSTORE PUSH1 0x4 ADD PUSH2 0x176B SWAP2 SWAP1 PUSH2 0x22C5 JUMP JUMPDEST PUSH1 0x40 MLOAD DUP1 SWAP2 SUB SWAP1 REVERT JUMPDEST DUP1 MLOAD DUP2 PUSH1 0x20 ADD REVERT JUMPDEST PUSH4 0x150B7A02 PUSH1 0xE0 SHL PUSH28 0xFFFFFFFFFFFFFFFFFFFFFFFFFFFFFFFFFFFFFFFFFFFFFFFFFFFFFFFF NOT AND DUP2 PUSH28 0xFFFFFFFFFFFFFFFFFFFFFFFFFFFFFFFFFFFFFFFFFFFFFFFFFFFFFFFF NOT AND EQ PUSH2 0x1805 JUMPI DUP4 PUSH1 0x40 MLOAD PUSH32 0x64A0AE9200000000000000000000000000000000000000000000000000000000 DUP2 MSTORE PUSH1 0x4 ADD PUSH2 0x17FC SWAP2 SWAP1 PUSH2 0x22C5 JUMP JUMPDEST PUSH1 0x40 MLOAD DUP1 SWAP2 SUB SWAP1 REVERT JUMPDEST POP JUMPDEST POP POP POP POP JUMP JUMPDEST PUSH1 0x60 PUSH1 0x40 MLOAD DUP1 PUSH1 0x20 ADD PUSH1 0x40 MSTORE DUP1 PUSH0 DUP2 MSTORE POP SWAP1 POP SWAP1 JUMP JUMPDEST PUSH1 0x60 PUSH0 PUSH1 0x1 PUSH2 0x1831 DUP5 PUSH2 0x1BC3 JUMP JUMPDEST ADD SWAP1 POP PUSH0 DUP2 PUSH8 0xFFFFFFFFFFFFFFFF DUP2 GT ISZERO PUSH2 0x184F JUMPI PUSH2 0x184E PUSH2 0x2440 JUMP JUMPDEST JUMPDEST PUSH1 0x40 MLOAD SWAP1 DUP1 DUP3 MSTORE DUP1 PUSH1 0x1F ADD PUSH1 0x1F NOT AND PUSH1 0x20 ADD DUP3 ADD PUSH1 0x40 MSTORE DUP1 ISZERO PUSH2 0x1881 JUMPI DUP2 PUSH1 0x20 ADD PUSH1 0x1 DUP3 MUL DUP1 CALLDATASIZE DUP4 CALLDATACOPY DUP1 DUP3 ADD SWAP2 POP POP SWAP1 POP JUMPDEST POP SWAP1 POP PUSH0 DUP3 PUSH1 0x20 ADD DUP3 ADD SWAP1 POP JUMPDEST PUSH1 0x1 ISZERO PUSH2 0x18E2 JUMPI DUP1 DUP1 PUSH1 0x1 SWAP1 SUB SWAP2 POP POP PUSH32 0x3031323334353637383961626364656600000000000000000000000000000000 PUSH1 0xA DUP7 MOD BYTE DUP2 MSTORE8 PUSH1 0xA DUP6 DUP2 PUSH2 0x18D7 JUMPI PUSH2 0x18D6 PUSH2 0x2EFE JUMP JUMPDEST JUMPDEST DIV SWAP5 POP PUSH0 DUP6 SUB PUSH2 0x188E JUMPI JUMPDEST DUP2 SWAP4 POP POP POP POP SWAP2 SWAP1 POP JUMP JUMPDEST PUSH0 PUSH1 0x2 PUSH0 DUP4 DUP2 MSTORE PUSH1 0x20 ADD SWAP1 DUP2 MSTORE PUSH1 0x20 ADD PUSH0 KECCAK256 PUSH0 SWAP1 SLOAD SWAP1 PUSH2 0x100 EXP SWAP1 DIV PUSH20 0xFFFFFFFFFFFFFFFFFFFFFFFFFFFFFFFFFFFFFFFF AND SWAP1 POP SWAP2 SWAP1 POP JUMP JUMPDEST DUP1 DUP1 PUSH2 0x195E JUMPI POP PUSH0 PUSH20 0xFFFFFFFFFFFFFFFFFFFFFFFFFFFFFFFFFFFFFFFF AND DUP3 PUSH20 0xFFFFFFFFFFFFFFFFFFFFFFFFFFFFFFFFFFFFFFFF AND EQ ISZERO JUMPDEST ISZERO PUSH2 0x1A90 JUMPI PUSH0 PUSH2 0x196D DUP5 PUSH2 0x1091 JUMP JUMPDEST SWAP1 POP PUSH0 PUSH20 0xFFFFFFFFFFFFFFFFFFFFFFFFFFFFFFFFFFFFFFFF AND DUP4 PUSH20 0xFFFFFFFFFFFFFFFFFFFFFFFFFFFFFFFFFFFFFFFF AND EQ ISZERO DUP1 ISZERO PUSH2 0x19D7 JUMPI POP DUP3 PUSH20 0xFFFFFFFFFFFFFFFFFFFFFFFFFFFFFFFFFFFFFFFF AND DUP2 PUSH20 0xFFFFFFFFFFFFFFFFFFFFFFFFFFFFFFFFFFFFFFFF AND EQ ISZERO JUMPDEST DUP1 ISZERO PUSH2 0x19EA JUMPI POP PUSH2 0x19E8 DUP2 DUP5 PUSH2 0xEF3 JUMP JUMPDEST ISZERO JUMPDEST ISZERO PUSH2 0x1A2C JUMPI DUP3 PUSH1 0x40 MLOAD PUSH32 0xA9FBF51F00000000000000000000000000000000000000000000000000000000 DUP2 MSTORE PUSH1 0x4 ADD PUSH2 0x1A23 SWAP2 SWAP1 PUSH2 0x22C5 JUMP JUMPDEST PUSH1 0x40 MLOAD DUP1 SWAP2 SUB SWAP1 REVERT JUMPDEST DUP2 ISZERO PUSH2 0x1A8E JUMPI DUP4 DUP6 PUSH20 0xFFFFFFFFFFFFFFFFFFFFFFFFFFFFFFFFFFFFFFFF AND DUP3 PUSH20 0xFFFFFFFFFFFFFFFFFFFFFFFFFFFFFFFFFFFFFFFF AND PUSH32 0x8C5BE1E5EBEC7D5BD14F71427D1E84F3DD0314C0F7B2291E5B200AC8C7C3B925 PUSH1 0x40 MLOAD PUSH1 0x40 MLOAD DUP1 SWAP2 SUB SWAP1 LOG4 JUMPDEST POP JUMPDEST DUP4 PUSH1 0x4 PUSH0 DUP6 DUP2 MSTORE PUSH1 0x20 ADD SWAP1 DUP2 MSTORE PUSH1 0x20 ADD PUSH0 KECCAK256 PUSH0 PUSH2 0x100 EXP DUP2 SLOAD DUP2 PUSH20 0xFFFFFFFFFFFFFFFFFFFFFFFFFFFFFFFFFFFFFFFF MUL NOT AND SWAP1 DUP4 PUSH20 0xFFFFFFFFFFFFFFFFFFFFFFFFFFFFFFFFFFFFFFFF AND MUL OR SWAP1 SSTORE POP POP POP POP POP JUMP JUMPDEST PUSH2 0x1AF0 DUP4 DUP4 DUP4 PUSH2 0x1D14 JUMP JUMPDEST PUSH2 0x1BA3 JUMPI PUSH0 PUSH20 0xFFFFFFFFFFFFFFFFFFFFFFFFFFFFFFFFFFFFFFFF AND DUP4 PUSH20 0xFFFFFFFFFFFFFFFFFFFFFFFFFFFFFFFFFFFFFFFF AND SUB PUSH2 0x1B64 JUMPI DUP1 PUSH1 0x40 MLOAD PUSH32 0x7E27328900000000000000000000000000000000000000000000000000000000 DUP2 MSTORE PUSH1 0x4 ADD PUSH2 0x1B5B SWAP2 SWAP1 PUSH2 0x237B JUMP JUMPDEST PUSH1 0x40 MLOAD DUP1 SWAP2 SUB SWAP1 REVERT JUMPDEST DUP2 DUP2 PUSH1 0x40 MLOAD PUSH32 0x177E802F00000000000000000000000000000000000000000000000000000000 DUP2 MSTORE PUSH1 0x4 ADD PUSH2 0x1B9A SWAP3 SWAP2 SWAP1 PUSH2 0x2F2B JUMP JUMPDEST PUSH1 0x40 MLOAD DUP1 SWAP2 SUB SWAP1 REVERT JUMPDEST POP POP POP JUMP JUMPDEST PUSH2 0x1BB2 DUP4 DUP4 PUSH2 0x1DD4 JUMP JUMPDEST PUSH2 0x1BBE PUSH0 DUP5 DUP5 DUP5 PUSH2 0x165B JUMP JUMPDEST POP POP POP JUMP JUMPDEST PUSH0 DUP1 PUSH0 SWAP1 POP PUSH27 0x184F03E93FF9F4DAA797ED6E38ED64BF6A1F010000000000000000 DUP4 LT PUSH2 0x1C1F JUMPI PUSH27 0x184F03E93FF9F4DAA797ED6E38ED64BF6A1F010000000000000000 DUP4 DUP2 PUSH2 0x1C15 JUMPI PUSH2 0x1C14 PUSH2 0x2EFE JUMP JUMPDEST JUMPDEST DIV SWAP3 POP PUSH1 0x40 DUP2 ADD SWAP1 POP JUMPDEST PUSH14 0x4EE2D6D415B85ACEF8100000000 DUP4 LT PUSH2 0x1C5C JUMPI PUSH14 0x4EE2D6D415B85ACEF8100000000 DUP4 DUP2 PUSH2 0x1C52 JUMPI PUSH2 0x1C51 PUSH2 0x2EFE JUMP JUMPDEST JUMPDEST DIV SWAP3 POP PUSH1 0x20 DUP2 ADD SWAP1 POP JUMPDEST PUSH7 0x2386F26FC10000 DUP4 LT PUSH2 0x1C8B JUMPI PUSH7 0x2386F26FC10000 DUP4 DUP2 PUSH2 0x1C81 JUMPI PUSH2 0x1C80 PUSH2 0x2EFE JUMP JUMPDEST JUMPDEST DIV SWAP3 POP PUSH1 0x10 DUP2 ADD SWAP1 POP JUMPDEST PUSH4 0x5F5E100 DUP4 LT PUSH2 0x1CB4 JUMPI PUSH4 0x5F5E100 DUP4 DUP2 PUSH2 0x1CAA JUMPI PUSH2 0x1CA9 PUSH2 0x2EFE JUMP JUMPDEST JUMPDEST DIV SWAP3 POP PUSH1 0x8 DUP2 ADD SWAP1 POP JUMPDEST PUSH2 0x2710 DUP4 LT PUSH2 0x1CD9 JUMPI PUSH2 0x2710 DUP4 DUP2 PUSH2 0x1CCF JUMPI PUSH2 0x1CCE PUSH2 0x2EFE JUMP JUMPDEST JUMPDEST DIV SWAP3 POP PUSH1 0x4 DUP2 ADD SWAP1 POP JUMPDEST PUSH1 0x64 DUP4 LT PUSH2 0x1CFC JUMPI PUSH1 0x64 DUP4 DUP2 PUSH2 0x1CF2 JUMPI PUSH2 0x1CF1 PUSH2 0x2EFE JUMP JUMPDEST JUMPDEST DIV SWAP3 POP PUSH1 0x2 DUP2 ADD SWAP1 POP JUMPDEST PUSH1 0xA DUP4 LT PUSH2 0x1D0B JUMPI PUSH1 0x1 DUP2 ADD SWAP1 POP JUMPDEST DUP1 SWAP2 POP POP SWAP2 SWAP1 POP JUMP JUMPDEST PUSH0 DUP1 PUSH20 0xFFFFFFFFFFFFFFFFFFFFFFFFFFFFFFFFFFFFFFFF AND DUP4 PUSH20 0xFFFFFFFFFFFFFFFFFFFFFFFFFFFFFFFFFFFFFFFF AND EQ ISZERO DUP1 ISZERO PUSH2 0x1DCB JUMPI POP DUP3 PUSH20 0xFFFFFFFFFFFFFFFFFFFFFFFFFFFFFFFFFFFFFFFF AND DUP5 PUSH20 0xFFFFFFFFFFFFFFFFFFFFFFFFFFFFFFFFFFFFFFFF AND EQ DUP1 PUSH2 0x1D8C JUMPI POP PUSH2 0x1D8B DUP5 DUP5 PUSH2 0xEF3 JUMP JUMPDEST JUMPDEST DUP1 PUSH2 0x1DCA JUMPI POP DUP3 PUSH20 0xFFFFFFFFFFFFFFFFFFFFFFFFFFFFFFFFFFFFFFFF AND PUSH2 0x1DB2 DUP4 PUSH2 0x1117 JUMP JUMPDEST PUSH20 0xFFFFFFFFFFFFFFFFFFFFFFFFFFFFFFFFFFFFFFFF AND EQ JUMPDEST JUMPDEST SWAP1 POP SWAP4 SWAP3 POP POP POP JUMP JUMPDEST PUSH0 PUSH20 0xFFFFFFFFFFFFFFFFFFFFFFFFFFFFFFFFFFFFFFFF AND DUP3 PUSH20 0xFFFFFFFFFFFFFFFFFFFFFFFFFFFFFFFFFFFFFFFF AND SUB PUSH2 0x1E44 JUMPI PUSH0 PUSH1 0x40 MLOAD PUSH32 0x64A0AE9200000000000000000000000000000000000000000000000000000000 DUP2 MSTORE PUSH1 0x4 ADD PUSH2 0x1E3B SWAP2 SWAP1 PUSH2 0x22C5 JUMP JUMPDEST PUSH1 0x40 MLOAD DUP1 SWAP2 SUB SWAP1 REVERT JUMPDEST PUSH0 PUSH2 0x1E50 DUP4 DUP4 PUSH0 PUSH2 0x1169 JUMP JUMPDEST SWAP1 POP PUSH0 PUSH20 0xFFFFFFFFFFFFFFFFFFFFFFFFFFFFFFFFFFFFFFFF AND DUP2 PUSH20 0xFFFFFFFFFFFFFFFFFFFFFFFFFFFFFFFFFFFFFFFF AND EQ PUSH2 0x1EC2 JUMPI PUSH0 PUSH1 0x40 MLOAD PUSH32 0x73C6AC6E00000000000000000000000000000000000000000000000000000000 DUP2 MSTORE PUSH1 0x4 ADD PUSH2 0x1EB9 SWAP2 SWAP1 PUSH2 0x22C5 JUMP JUMPDEST PUSH1 0x40 MLOAD DUP1 SWAP2 SUB SWAP1 REVERT JUMPDEST POP POP POP JUMP JUMPDEST PUSH1 0x40 MLOAD DUP1 PUSH1 0x60 ADD PUSH1 0x40 MSTORE DUP1 PUSH0 DUP2 MSTORE PUSH1 0x20 ADD PUSH1 0x60 DUP2 MSTORE PUSH1 0x20 ADD PUSH0 DUP2 MSTORE POP SWAP1 JUMP JUMPDEST PUSH0 PUSH1 0x40 MLOAD SWAP1 POP SWAP1 JUMP JUMPDEST PUSH0 DUP1 REVERT JUMPDEST PUSH0 DUP1 REVERT JUMPDEST PUSH0 PUSH20 0xFFFFFFFFFFFFFFFFFFFFFFFFFFFFFFFFFFFFFFFF DUP3 AND SWAP1 POP SWAP2 SWAP1 POP JUMP JUMPDEST PUSH0 PUSH2 0x1F20 DUP3 PUSH2 0x1EF7 JUMP JUMPDEST SWAP1 POP SWAP2 SWAP1 POP JUMP JUMPDEST PUSH2 0x1F30 DUP2 PUSH2 0x1F16 JUMP JUMPDEST DUP2 EQ PUSH2 0x1F3A JUMPI PUSH0 DUP1 REVERT JUMPDEST POP JUMP JUMPDEST PUSH0 DUP2 CALLDATALOAD SWAP1 POP PUSH2 0x1F4B DUP2 PUSH2 0x1F27 JUMP JUMPDEST SWAP3 SWAP2 POP POP JUMP JUMPDEST PUSH0 PUSH1 0x20 DUP3 DUP5 SUB SLT ISZERO PUSH2 0x1F66 JUMPI PUSH2 0x1F65 PUSH2 0x1EEF JUMP JUMPDEST JUMPDEST PUSH0 PUSH2 0x1F73 DUP5 DUP3 DUP6 ADD PUSH2 0x1F3D JUMP JUMPDEST SWAP2 POP POP SWAP3 SWAP2 POP POP JUMP JUMPDEST PUSH0 DUP2 MLOAD SWAP1 POP SWAP2 SWAP1 POP JUMP JUMPDEST PUSH0 DUP3 DUP3 MSTORE PUSH1 0x20 DUP3 ADD SWAP1 POP SWAP3 SWAP2 POP POP JUMP JUMPDEST PUSH0 DUP2 SWAP1 POP PUSH1 0x20 DUP3 ADD SWAP1 POP SWAP2 SWAP1 POP JUMP JUMPDEST PUSH0 DUP2 SWAP1 POP SWAP2 SWAP1 POP JUMP JUMPDEST PUSH2 0x1FB7 DUP2 PUSH2 0x1FA5 JUMP JUMPDEST DUP3 MSTORE POP POP JUMP JUMPDEST PUSH0 DUP2 MLOAD SWAP1 POP SWAP2 SWAP1 POP JUMP JUMPDEST PUSH0 DUP3 DUP3 MSTORE PUSH1 0x20 DUP3 ADD SWAP1 POP SWAP3 SWAP2 POP POP JUMP JUMPDEST PUSH0 JUMPDEST DUP4 DUP2 LT ISZERO PUSH2 0x1FF4 JUMPI DUP1 DUP3 ADD MLOAD DUP2 DUP5 ADD MSTORE PUSH1 0x20 DUP2 ADD SWAP1 POP PUSH2 0x1FD9 JUMP JUMPDEST PUSH0 DUP5 DUP5 ADD MSTORE POP POP POP POP JUMP JUMPDEST PUSH0 PUSH1 0x1F NOT PUSH1 0x1F DUP4 ADD AND SWAP1 POP SWAP2 SWAP1 POP JUMP JUMPDEST PUSH0 PUSH2 0x2019 DUP3 PUSH2 0x1FBD JUMP JUMPDEST PUSH2 0x2023 DUP2 DUP6 PUSH2 0x1FC7 JUMP JUMPDEST SWAP4 POP PUSH2 0x2033 DUP2 DUP6 PUSH1 0x20 DUP7 ADD PUSH2 0x1FD7 JUMP JUMPDEST PUSH2 0x203C DUP2 PUSH2 0x1FFF JUMP JUMPDEST DUP5 ADD SWAP2 POP POP SWAP3 SWAP2 POP POP JUMP JUMPDEST PUSH0 PUSH1 0x60 DUP4 ADD PUSH0 DUP4 ADD MLOAD PUSH2 0x205C PUSH0 DUP7 ADD DUP3 PUSH2 0x1FAE JUMP JUMPDEST POP PUSH1 0x20 DUP4 ADD MLOAD DUP5 DUP3 SUB PUSH1 0x20 DUP7 ADD MSTORE PUSH2 0x2074 DUP3 DUP3 PUSH2 0x200F JUMP JUMPDEST SWAP2 POP POP PUSH1 0x40 DUP4 ADD MLOAD PUSH2 0x2089 PUSH1 0x40 DUP7 ADD DUP3 PUSH2 0x1FAE JUMP JUMPDEST POP DUP1 SWAP2 POP POP SWAP3 SWAP2 POP POP JUMP JUMPDEST PUSH0 PUSH2 0x209F DUP4 DUP4 PUSH2 0x2047 JUMP JUMPDEST SWAP1 POP SWAP3 SWAP2 POP POP JUMP JUMPDEST PUSH0 PUSH1 0x20 DUP3 ADD SWAP1 POP SWAP2 SWAP1 POP JUMP JUMPDEST PUSH0 PUSH2 0x20BD DUP3 PUSH2 0x1F7C JUMP JUMPDEST PUSH2 0x20C7 DUP2 DUP6 PUSH2 0x1F86 JUMP JUMPDEST SWAP4 POP DUP4 PUSH1 0x20 DUP3 MUL DUP6 ADD PUSH2 0x20D9 DUP6 PUSH2 0x1F96 JUMP JUMPDEST DUP1 PUSH0 JUMPDEST DUP6 DUP2 LT ISZERO PUSH2 0x2114 JUMPI DUP5 DUP5 SUB DUP10 MSTORE DUP2 MLOAD PUSH2 0x20F5 DUP6 DUP3 PUSH2 0x2094 JUMP JUMPDEST SWAP5 POP PUSH2 0x2100 DUP4 PUSH2 0x20A7 JUMP JUMPDEST SWAP3 POP PUSH1 0x20 DUP11 ADD SWAP10 POP POP PUSH1 0x1 DUP2 ADD SWAP1 POP PUSH2 0x20DC JUMP JUMPDEST POP DUP3 SWAP8 POP DUP8 SWAP6 POP POP POP POP POP POP SWAP3 SWAP2 POP POP JUMP JUMPDEST PUSH0 PUSH1 0x20 DUP3 ADD SWAP1 POP DUP2 DUP2 SUB PUSH0 DUP4 ADD MSTORE PUSH2 0x213E DUP2 DUP5 PUSH2 0x20B3 JUMP JUMPDEST SWAP1 POP SWAP3 SWAP2 POP POP JUMP JUMPDEST PUSH0 PUSH32 0xFFFFFFFF00000000000000000000000000000000000000000000000000000000 DUP3 AND SWAP1 POP SWAP2 SWAP1 POP JUMP JUMPDEST PUSH2 0x217A DUP2 PUSH2 0x2146 JUMP JUMPDEST DUP2 EQ PUSH2 0x2184 JUMPI PUSH0 DUP1 REVERT JUMPDEST POP JUMP JUMPDEST PUSH0 DUP2 CALLDATALOAD SWAP1 POP PUSH2 0x2195 DUP2 PUSH2 0x2171 JUMP JUMPDEST SWAP3 SWAP2 POP POP JUMP JUMPDEST PUSH0 PUSH1 0x20 DUP3 DUP5 SUB SLT ISZERO PUSH2 0x21B0 JUMPI PUSH2 0x21AF PUSH2 0x1EEF JUMP JUMPDEST JUMPDEST PUSH0 PUSH2 0x21BD DUP5 DUP3 DUP6 ADD PUSH2 0x2187 JUMP JUMPDEST SWAP2 POP POP SWAP3 SWAP2 POP POP JUMP JUMPDEST PUSH0 DUP2 ISZERO ISZERO SWAP1 POP SWAP2 SWAP1 POP JUMP JUMPDEST PUSH2 0x21DA DUP2 PUSH2 0x21C6 JUMP JUMPDEST DUP3 MSTORE POP POP JUMP JUMPDEST PUSH0 PUSH1 0x20 DUP3 ADD SWAP1 POP PUSH2 0x21F3 PUSH0 DUP4 ADD DUP5 PUSH2 0x21D1 JUMP JUMPDEST SWAP3 SWAP2 POP POP JUMP JUMPDEST PUSH0 DUP3 DUP3 MSTORE PUSH1 0x20 DUP3 ADD SWAP1 POP SWAP3 SWAP2 POP POP JUMP JUMPDEST PUSH0 PUSH2 0x2213 DUP3 PUSH2 0x1FBD JUMP JUMPDEST PUSH2 0x221D DUP2 DUP6 PUSH2 0x21F9 JUMP JUMPDEST SWAP4 POP PUSH2 0x222D DUP2 DUP6 PUSH1 0x20 DUP7 ADD PUSH2 0x1FD7 JUMP JUMPDEST PUSH2 0x2236 DUP2 PUSH2 0x1FFF JUMP JUMPDEST DUP5 ADD SWAP2 POP POP SWAP3 SWAP2 POP POP JUMP JUMPDEST PUSH0 PUSH1 0x20 DUP3 ADD SWAP1 POP DUP2 DUP2 SUB PUSH0 DUP4 ADD MSTORE PUSH2 0x2259 DUP2 DUP5 PUSH2 0x2209 JUMP JUMPDEST SWAP1 POP SWAP3 SWAP2 POP POP JUMP JUMPDEST PUSH2 0x226A DUP2 PUSH2 0x1FA5 JUMP JUMPDEST DUP2 EQ PUSH2 0x2274 JUMPI PUSH0 DUP1 REVERT JUMPDEST POP JUMP JUMPDEST PUSH0 DUP2 CALLDATALOAD SWAP1 POP PUSH2 0x2285 DUP2 PUSH2 0x2261 JUMP JUMPDEST SWAP3 SWAP2 POP POP JUMP JUMPDEST PUSH0 PUSH1 0x20 DUP3 DUP5 SUB SLT ISZERO PUSH2 0x22A0 JUMPI PUSH2 0x229F PUSH2 0x1EEF JUMP JUMPDEST JUMPDEST PUSH0 PUSH2 0x22AD DUP5 DUP3 DUP6 ADD PUSH2 0x2277 JUMP JUMPDEST SWAP2 POP POP SWAP3 SWAP2 POP POP JUMP JUMPDEST PUSH2 0x22BF DUP2 PUSH2 0x1F16 JUMP JUMPDEST DUP3 MSTORE POP POP JUMP JUMPDEST PUSH0 PUSH1 0x20 DUP3 ADD SWAP1 POP PUSH2 0x22D8 PUSH0 DUP4 ADD DUP5 PUSH2 0x22B6 JUMP JUMPDEST SWAP3 SWAP2 POP POP JUMP JUMPDEST PUSH0 DUP1 PUSH1 0x40 DUP4 DUP6 SUB SLT ISZERO PUSH2 0x22F4 JUMPI PUSH2 0x22F3 PUSH2 0x1EEF JUMP JUMPDEST JUMPDEST PUSH0 PUSH2 0x2301 DUP6 DUP3 DUP7 ADD PUSH2 0x1F3D JUMP JUMPDEST SWAP3 POP POP PUSH1 0x20 PUSH2 0x2312 DUP6 DUP3 DUP7 ADD PUSH2 0x2277 JUMP JUMPDEST SWAP2 POP POP SWAP3 POP SWAP3 SWAP1 POP JUMP JUMPDEST PUSH0 DUP1 PUSH0 PUSH1 0x60 DUP5 DUP7 SUB SLT ISZERO PUSH2 0x2333 JUMPI PUSH2 0x2332 PUSH2 0x1EEF JUMP JUMPDEST JUMPDEST PUSH0 PUSH2 0x2340 DUP7 DUP3 DUP8 ADD PUSH2 0x1F3D JUMP JUMPDEST SWAP4 POP POP PUSH1 0x20 PUSH2 0x2351 DUP7 DUP3 DUP8 ADD PUSH2 0x1F3D JUMP JUMPDEST SWAP3 POP POP PUSH1 0x40 PUSH2 0x2362 DUP7 DUP3 DUP8 ADD PUSH2 0x2277 JUMP JUMPDEST SWAP2 POP POP SWAP3 POP SWAP3 POP SWAP3 JUMP JUMPDEST PUSH2 0x2375 DUP2 PUSH2 0x1FA5 JUMP JUMPDEST DUP3 MSTORE POP POP JUMP JUMPDEST PUSH0 PUSH1 0x20 DUP3 ADD SWAP1 POP PUSH2 0x238E PUSH0 DUP4 ADD DUP5 PUSH2 0x236C JUMP JUMPDEST SWAP3 SWAP2 POP POP JUMP JUMPDEST PUSH0 PUSH1 0x60 DUP3 ADD SWAP1 POP PUSH2 0x23A7 PUSH0 DUP4 ADD DUP7 PUSH2 0x236C JUMP JUMPDEST DUP2 DUP2 SUB PUSH1 0x20 DUP4 ADD MSTORE PUSH2 0x23B9 DUP2 DUP6 PUSH2 0x2209 JUMP JUMPDEST SWAP1 POP PUSH2 0x23C8 PUSH1 0x40 DUP4 ADD DUP5 PUSH2 0x236C JUMP JUMPDEST SWAP5 SWAP4 POP POP POP POP JUMP JUMPDEST PUSH2 0x23D9 DUP2 PUSH2 0x21C6 JUMP JUMPDEST DUP2 EQ PUSH2 0x23E3 JUMPI PUSH0 DUP1 REVERT JUMPDEST POP JUMP JUMPDEST PUSH0 DUP2 CALLDATALOAD SWAP1 POP PUSH2 0x23F4 DUP2 PUSH2 0x23D0 JUMP JUMPDEST SWAP3 SWAP2 POP POP JUMP JUMPDEST PUSH0 DUP1 PUSH1 0x40 DUP4 DUP6 SUB SLT ISZERO PUSH2 0x2410 JUMPI PUSH2 0x240F PUSH2 0x1EEF JUMP JUMPDEST JUMPDEST PUSH0 PUSH2 0x241D DUP6 DUP3 DUP7 ADD PUSH2 0x1F3D JUMP JUMPDEST SWAP3 POP POP PUSH1 0x20 PUSH2 0x242E DUP6 DUP3 DUP7 ADD PUSH2 0x23E6 JUMP JUMPDEST SWAP2 POP POP SWAP3 POP SWAP3 SWAP1 POP JUMP JUMPDEST PUSH0 DUP1 REVERT JUMPDEST PUSH0 DUP1 REVERT JUMPDEST PUSH32 0x4E487B7100000000000000000000000000000000000000000000000000000000 PUSH0 MSTORE PUSH1 0x41 PUSH1 0x4 MSTORE PUSH1 0x24 PUSH0 REVERT JUMPDEST PUSH2 0x2476 DUP3 PUSH2 0x1FFF JUMP JUMPDEST DUP2 ADD DUP2 DUP2 LT PUSH8 0xFFFFFFFFFFFFFFFF DUP3 GT OR ISZERO PUSH2 0x2495 JUMPI PUSH2 0x2494 PUSH2 0x2440 JUMP JUMPDEST JUMPDEST DUP1 PUSH1 0x40 MSTORE POP POP POP JUMP JUMPDEST PUSH0 PUSH2 0x24A7 PUSH2 0x1EE6 JUMP JUMPDEST SWAP1 POP PUSH2 0x24B3 DUP3 DUP3 PUSH2 0x246D JUMP JUMPDEST SWAP2 SWAP1 POP JUMP JUMPDEST PUSH0 PUSH8 0xFFFFFFFFFFFFFFFF DUP3 GT ISZERO PUSH2 0x24D2 JUMPI PUSH2 0x24D1 PUSH2 0x2440 JUMP JUMPDEST JUMPDEST PUSH2 0x24DB DUP3 PUSH2 0x1FFF JUMP JUMPDEST SWAP1 POP PUSH1 0x20 DUP2 ADD SWAP1 POP SWAP2 SWAP1 POP JUMP JUMPDEST DUP3 DUP2 DUP4 CALLDATACOPY PUSH0 DUP4 DUP4 ADD MSTORE POP POP POP JUMP JUMPDEST PUSH0 PUSH2 0x2508 PUSH2 0x2503 DUP5 PUSH2 0x24B8 JUMP JUMPDEST PUSH2 0x249E JUMP JUMPDEST SWAP1 POP DUP3 DUP2 MSTORE PUSH1 0x20 DUP2 ADD DUP5 DUP5 DUP5 ADD GT ISZERO PUSH2 0x2524 JUMPI PUSH2 0x2523 PUSH2 0x243C JUMP JUMPDEST JUMPDEST PUSH2 0x252F DUP5 DUP3 DUP6 PUSH2 0x24E8 JUMP JUMPDEST POP SWAP4 SWAP3 POP POP POP JUMP JUMPDEST PUSH0 DUP3 PUSH1 0x1F DUP4 ADD SLT PUSH2 0x254B JUMPI PUSH2 0x254A PUSH2 0x2438 JUMP JUMPDEST JUMPDEST DUP2 CALLDATALOAD PUSH2 0x255B DUP5 DUP3 PUSH1 0x20 DUP7 ADD PUSH2 0x24F6 JUMP JUMPDEST SWAP2 POP POP SWAP3 SWAP2 POP POP JUMP JUMPDEST PUSH0 DUP1 PUSH1 0x40 DUP4 DUP6 SUB SLT ISZERO PUSH2 0x257A JUMPI PUSH2 0x2579 PUSH2 0x1EEF JUMP JUMPDEST JUMPDEST PUSH0 DUP4 ADD CALLDATALOAD PUSH8 0xFFFFFFFFFFFFFFFF DUP2 GT ISZERO PUSH2 0x2597 JUMPI PUSH2 0x2596 PUSH2 0x1EF3 JUMP JUMPDEST JUMPDEST PUSH2 0x25A3 DUP6 DUP3 DUP7 ADD PUSH2 0x2537 JUMP JUMPDEST SWAP3 POP POP PUSH1 0x20 PUSH2 0x25B4 DUP6 DUP3 DUP7 ADD PUSH2 0x2277 JUMP JUMPDEST SWAP2 POP POP SWAP3 POP SWAP3 SWAP1 POP JUMP JUMPDEST PUSH0 PUSH8 0xFFFFFFFFFFFFFFFF DUP3 GT ISZERO PUSH2 0x25D8 JUMPI PUSH2 0x25D7 PUSH2 0x2440 JUMP JUMPDEST JUMPDEST PUSH2 0x25E1 DUP3 PUSH2 0x1FFF JUMP JUMPDEST SWAP1 POP PUSH1 0x20 DUP2 ADD SWAP1 POP SWAP2 SWAP1 POP JUMP JUMPDEST PUSH0 PUSH2 0x2600 PUSH2 0x25FB DUP5 PUSH2 0x25BE JUMP JUMPDEST PUSH2 0x249E JUMP JUMPDEST SWAP1 POP DUP3 DUP2 MSTORE PUSH1 0x20 DUP2 ADD DUP5 DUP5 DUP5 ADD GT ISZERO PUSH2 0x261C JUMPI PUSH2 0x261B PUSH2 0x243C JUMP JUMPDEST JUMPDEST PUSH2 0x2627 DUP5 DUP3 DUP6 PUSH2 0x24E8 JUMP JUMPDEST POP SWAP4 SWAP3 POP POP POP JUMP JUMPDEST PUSH0 DUP3 PUSH1 0x1F DUP4 ADD SLT PUSH2 0x2643 JUMPI PUSH2 0x2642 PUSH2 0x2438 JUMP JUMPDEST JUMPDEST DUP2 CALLDATALOAD PUSH2 0x2653 DUP5 DUP3 PUSH1 0x20 DUP7 ADD PUSH2 0x25EE JUMP JUMPDEST SWAP2 POP POP SWAP3 SWAP2 POP POP JUMP JUMPDEST PUSH0 DUP1 PUSH0 DUP1 PUSH1 0x80 DUP6 DUP8 SUB SLT ISZERO PUSH2 0x2674 JUMPI PUSH2 0x2673 PUSH2 0x1EEF JUMP JUMPDEST JUMPDEST PUSH0 PUSH2 0x2681 DUP8 DUP3 DUP9 ADD PUSH2 0x1F3D JUMP JUMPDEST SWAP5 POP POP PUSH1 0x20 PUSH2 0x2692 DUP8 DUP3 DUP9 ADD PUSH2 0x1F3D JUMP JUMPDEST SWAP4 POP POP PUSH1 0x40 PUSH2 0x26A3 DUP8 DUP3 DUP9 ADD PUSH2 0x2277 JUMP JUMPDEST SWAP3 POP POP PUSH1 0x60 DUP6 ADD CALLDATALOAD PUSH8 0xFFFFFFFFFFFFFFFF DUP2 GT ISZERO PUSH2 0x26C4 JUMPI PUSH2 0x26C3 PUSH2 0x1EF3 JUMP JUMPDEST JUMPDEST PUSH2 0x26D0 DUP8 DUP3 DUP9 ADD PUSH2 0x262F JUMP JUMPDEST SWAP2 POP POP SWAP3 SWAP6 SWAP2 SWAP5 POP SWAP3 POP JUMP JUMPDEST PUSH0 DUP1 PUSH1 0x40 DUP4 DUP6 SUB SLT ISZERO PUSH2 0x26F2 JUMPI PUSH2 0x26F1 PUSH2 0x1EEF JUMP JUMPDEST JUMPDEST PUSH0 PUSH2 0x26FF DUP6 DUP3 DUP7 ADD PUSH2 0x1F3D JUMP JUMPDEST SWAP3 POP POP PUSH1 0x20 PUSH2 0x2710 DUP6 DUP3 DUP7 ADD PUSH2 0x1F3D JUMP JUMPDEST SWAP2 POP POP SWAP3 POP SWAP3 SWAP1 POP JUMP JUMPDEST PUSH0 DUP2 SWAP1 POP SWAP2 SWAP1 POP JUMP JUMPDEST PUSH0 PUSH2 0x273D PUSH2 0x2738 PUSH2 0x2733 DUP5 PUSH2 0x1EF7 JUMP JUMPDEST PUSH2 0x271A JUMP JUMPDEST PUSH2 0x1EF7 JUMP JUMPDEST SWAP1 POP SWAP2 SWAP1 POP JUMP JUMPDEST PUSH0 PUSH2 0x274E DUP3 PUSH2 0x2723 JUMP JUMPDEST SWAP1 POP SWAP2 SWAP1 POP JUMP JUMPDEST PUSH0 PUSH2 0x275F DUP3 PUSH2 0x2744 JUMP JUMPDEST SWAP1 POP SWAP2 SWAP1 POP JUMP JUMPDEST PUSH2 0x276F DUP2 PUSH2 0x2755 JUMP JUMPDEST DUP3 MSTORE POP POP JUMP JUMPDEST PUSH0 PUSH1 0x20 DUP3 ADD SWAP1 POP PUSH2 0x2788 PUSH0 DUP4 ADD DUP5 PUSH2 0x2766 JUMP JUMPDEST SWAP3 SWAP2 POP POP JUMP JUMPDEST PUSH32 0x4E487B7100000000000000000000000000000000000000000000000000000000 PUSH0 MSTORE PUSH1 0x32 PUSH1 0x4 MSTORE PUSH1 0x24 PUSH0 REVERT JUMPDEST PUSH32 0x4E487B7100000000000000000000000000000000000000000000000000000000 PUSH0 MSTORE PUSH1 0x22 PUSH1 0x4 MSTORE PUSH1 0x24 PUSH0 REVERT JUMPDEST PUSH0 PUSH1 0x2 DUP3 DIV SWAP1 POP PUSH1 0x1 DUP3 AND DUP1 PUSH2 0x27FF JUMPI PUSH1 0x7F DUP3 AND SWAP2 POP JUMPDEST PUSH1 0x20 DUP3 LT DUP2 SUB PUSH2 0x2812 JUMPI PUSH2 0x2811 PUSH2 0x27BB JUMP JUMPDEST JUMPDEST POP SWAP2 SWAP1 POP JUMP JUMPDEST PUSH0 PUSH1 0x60 DUP3 ADD SWAP1 POP PUSH2 0x282B PUSH0 DUP4 ADD DUP7 PUSH2 0x22B6 JUMP JUMPDEST PUSH2 0x2838 PUSH1 0x20 DUP4 ADD DUP6 PUSH2 0x236C JUMP JUMPDEST PUSH2 0x2845 PUSH1 0x40 DUP4 ADD DUP5 PUSH2 0x22B6 JUMP JUMPDEST SWAP5 SWAP4 POP POP POP POP JUMP JUMPDEST PUSH32 0x50726F6475637420646F6573206E6F7420657869737400000000000000000000 PUSH0 DUP3 ADD MSTORE POP JUMP JUMPDEST PUSH0 PUSH2 0x2881 PUSH1 0x16 DUP4 PUSH2 0x21F9 JUMP JUMPDEST SWAP2 POP PUSH2 0x288C DUP3 PUSH2 0x284D JUMP JUMPDEST PUSH1 0x20 DUP3 ADD SWAP1 POP SWAP2 SWAP1 POP JUMP JUMPDEST PUSH0 PUSH1 0x20 DUP3 ADD SWAP1 POP DUP2 DUP2 SUB PUSH0 DUP4 ADD MSTORE PUSH2 0x28AE DUP2 PUSH2 0x2875 JUMP JUMPDEST SWAP1 POP SWAP2 SWAP1 POP JUMP JUMPDEST PUSH32 0x4E487B7100000000000000000000000000000000000000000000000000000000 PUSH0 MSTORE PUSH1 0x11 PUSH1 0x4 MSTORE PUSH1 0x24 PUSH0 REVERT JUMPDEST PUSH0 PUSH2 0x28EC DUP3 PUSH2 0x1FA5 JUMP JUMPDEST SWAP2 POP PUSH2 0x28F7 DUP4 PUSH2 0x1FA5 JUMP JUMPDEST SWAP3 POP DUP3 DUP3 MUL PUSH2 0x2905 DUP2 PUSH2 0x1FA5 JUMP JUMPDEST SWAP2 POP DUP3 DUP3 DIV DUP5 EQ DUP4 ISZERO OR PUSH2 0x291C JUMPI PUSH2 0x291B PUSH2 0x28B5 JUMP JUMPDEST JUMPDEST POP SWAP3 SWAP2 POP POP JUMP JUMPDEST PUSH0 PUSH1 0x60 DUP3 ADD SWAP1 POP PUSH2 0x2936 PUSH0 DUP4 ADD DUP7 PUSH2 0x22B6 JUMP JUMPDEST PUSH2 0x2943 PUSH1 0x20 DUP4 ADD DUP6 PUSH2 0x22B6 JUMP JUMPDEST PUSH2 0x2950 PUSH1 0x40 DUP4 ADD DUP5 PUSH2 0x236C JUMP JUMPDEST SWAP5 SWAP4 POP POP POP POP JUMP JUMPDEST PUSH0 DUP2 MLOAD SWAP1 POP PUSH2 0x2966 DUP2 PUSH2 0x23D0 JUMP JUMPDEST SWAP3 SWAP2 POP POP JUMP JUMPDEST PUSH0 PUSH1 0x20 DUP3 DUP5 SUB SLT ISZERO PUSH2 0x2981 JUMPI PUSH2 0x2980 PUSH2 0x1EEF JUMP JUMPDEST JUMPDEST PUSH0 PUSH2 0x298E DUP5 DUP3 DUP6 ADD PUSH2 0x2958 JUMP JUMPDEST SWAP2 POP POP SWAP3 SWAP2 POP POP JUMP JUMPDEST PUSH32 0x546F6B656E207472616E73666572206661696C65640000000000000000000000 PUSH0 DUP3 ADD MSTORE POP JUMP JUMPDEST PUSH0 PUSH2 0x29CB PUSH1 0x15 DUP4 PUSH2 0x21F9 JUMP JUMPDEST SWAP2 POP PUSH2 0x29D6 DUP3 PUSH2 0x2997 JUMP JUMPDEST PUSH1 0x20 DUP3 ADD SWAP1 POP SWAP2 SWAP1 POP JUMP JUMPDEST PUSH0 PUSH1 0x20 DUP3 ADD SWAP1 POP DUP2 DUP2 SUB PUSH0 DUP4 ADD MSTORE PUSH2 0x29F8 DUP2 PUSH2 0x29BF JUMP JUMPDEST SWAP1 POP SWAP2 SWAP1 POP JUMP JUMPDEST PUSH0 PUSH1 0x40 DUP3 ADD SWAP1 POP PUSH2 0x2A12 PUSH0 DUP4 ADD DUP6 PUSH2 0x236C JUMP JUMPDEST PUSH2 0x2A1F PUSH1 0x20 DUP4 ADD DUP5 PUSH2 0x236C JUMP JUMPDEST SWAP4 SWAP3 POP POP POP JUMP JUMPDEST PUSH0 PUSH2 0x2A30 DUP3 PUSH2 0x1FA5 JUMP JUMPDEST SWAP2 POP PUSH32 0xFFFFFFFFFFFFFFFFFFFFFFFFFFFFFFFFFFFFFFFFFFFFFFFFFFFFFFFFFFFFFFFF DUP3 SUB PUSH2 0x2A62 JUMPI PUSH2 0x2A61 PUSH2 0x28B5 JUMP JUMPDEST JUMPDEST PUSH1 0x1 DUP3 ADD SWAP1 POP SWAP2 SWAP1 POP JUMP JUMPDEST PUSH0 DUP2 SWAP1 POP DUP2 PUSH0 MSTORE PUSH1 0x20 PUSH0 KECCAK256 SWAP1 POP SWAP2 SWAP1 POP JUMP JUMPDEST PUSH0 PUSH1 0x20 PUSH1 0x1F DUP4 ADD DIV SWAP1 POP SWAP2 SWAP1 POP JUMP JUMPDEST PUSH0 DUP3 DUP3 SHL SWAP1 POP SWAP3 SWAP2 POP POP JUMP JUMPDEST PUSH0 PUSH1 0x8 DUP4 MUL PUSH2 0x2AC9 PUSH32 0xFFFFFFFFFFFFFFFFFFFFFFFFFFFFFFFFFFFFFFFFFFFFFFFFFFFFFFFFFFFFFFFF DUP3 PUSH2 0x2A8E JUMP JUMPDEST PUSH2 0x2AD3 DUP7 DUP4 PUSH2 0x2A8E JUMP JUMPDEST SWAP6 POP DUP1 NOT DUP5 AND SWAP4 POP DUP1 DUP7 AND DUP5 OR SWAP3 POP POP POP SWAP4 SWAP3 POP POP POP JUMP JUMPDEST PUSH0 PUSH2 0x2B05 PUSH2 0x2B00 PUSH2 0x2AFB DUP5 PUSH2 0x1FA5 JUMP JUMPDEST PUSH2 0x271A JUMP JUMPDEST PUSH2 0x1FA5 JUMP JUMPDEST SWAP1 POP SWAP2 SWAP1 POP JUMP JUMPDEST PUSH0 DUP2 SWAP1 POP SWAP2 SWAP1 POP JUMP JUMPDEST PUSH2 0x2B1E DUP4 PUSH2 0x2AEB JUMP JUMPDEST PUSH2 0x2B32 PUSH2 0x2B2A DUP3 PUSH2 0x2B0C JUMP JUMPDEST DUP5 DUP5 SLOAD PUSH2 0x2A9A JUMP JUMPDEST DUP3 SSTORE POP POP POP POP JUMP JUMPDEST PUSH0 SWAP1 JUMP JUMPDEST PUSH2 0x2B46 PUSH2 0x2B3A JUMP JUMPDEST PUSH2 0x2B51 DUP2 DUP5 DUP5 PUSH2 0x2B15 JUMP JUMPDEST POP POP POP JUMP JUMPDEST JUMPDEST DUP2 DUP2 LT ISZERO PUSH2 0x2B74 JUMPI PUSH2 0x2B69 PUSH0 DUP3 PUSH2 0x2B3E JUMP JUMPDEST PUSH1 0x1 DUP2 ADD SWAP1 POP PUSH2 0x2B57 JUMP JUMPDEST POP POP JUMP JUMPDEST PUSH1 0x1F DUP3 GT ISZERO PUSH2 0x2BB9 JUMPI PUSH2 0x2B8A DUP2 PUSH2 0x2A6D JUMP JUMPDEST PUSH2 0x2B93 DUP5 PUSH2 0x2A7F JUMP JUMPDEST DUP2 ADD PUSH1 0x20 DUP6 LT ISZERO PUSH2 0x2BA2 JUMPI DUP2 SWAP1 POP JUMPDEST PUSH2 0x2BB6 PUSH2 0x2BAE DUP6 PUSH2 0x2A7F JUMP JUMPDEST DUP4 ADD DUP3 PUSH2 0x2B56 JUMP JUMPDEST POP POP JUMPDEST POP POP POP JUMP JUMPDEST PUSH0 DUP3 DUP3 SHR SWAP1 POP SWAP3 SWAP2 POP POP JUMP JUMPDEST PUSH0 PUSH2 0x2BD9 PUSH0 NOT DUP5 PUSH1 0x8 MUL PUSH2 0x2BBE JUMP JUMPDEST NOT DUP1 DUP4 AND SWAP2 POP POP SWAP3 SWAP2 POP POP JUMP JUMPDEST PUSH0 PUSH2 0x2BF1 DUP4 DUP4 PUSH2 0x2BCA JUMP JUMPDEST SWAP2 POP DUP3 PUSH1 0x2 MUL DUP3 OR SWAP1 POP SWAP3 SWAP2 POP POP JUMP JUMPDEST PUSH2 0x2C0A DUP3 PUSH2 0x1FBD JUMP JUMPDEST PUSH8 0xFFFFFFFFFFFFFFFF DUP2 GT ISZERO PUSH2 0x2C23 JUMPI PUSH2 0x2C22 PUSH2 0x2440 JUMP JUMPDEST JUMPDEST PUSH2 0x2C2D DUP3 SLOAD PUSH2 0x27E8 JUMP JUMPDEST PUSH2 0x2C38 DUP3 DUP3 DUP6 PUSH2 0x2B78 JUMP JUMPDEST PUSH0 PUSH1 0x20 SWAP1 POP PUSH1 0x1F DUP4 GT PUSH1 0x1 DUP2 EQ PUSH2 0x2C69 JUMPI PUSH0 DUP5 ISZERO PUSH2 0x2C57 JUMPI DUP3 DUP8 ADD MLOAD SWAP1 POP JUMPDEST PUSH2 0x2C61 DUP6 DUP3 PUSH2 0x2BE6 JUMP JUMPDEST DUP7 SSTORE POP PUSH2 0x2CC8 JUMP JUMPDEST PUSH1 0x1F NOT DUP5 AND PUSH2 0x2C77 DUP7 PUSH2 0x2A6D JUMP JUMPDEST PUSH0 JUMPDEST DUP3 DUP2 LT ISZERO PUSH2 0x2C9E JUMPI DUP5 DUP10 ADD MLOAD DUP3 SSTORE PUSH1 0x1 DUP3 ADD SWAP2 POP PUSH1 0x20 DUP6 ADD SWAP5 POP PUSH1 0x20 DUP2 ADD SWAP1 POP PUSH2 0x2C79 JUMP JUMPDEST DUP7 DUP4 LT ISZERO PUSH2 0x2CBB JUMPI DUP5 DUP10 ADD MLOAD PUSH2 0x2CB7 PUSH1 0x1F DUP10 AND DUP3 PUSH2 0x2BCA JUMP JUMPDEST DUP4 SSTORE POP JUMPDEST PUSH1 0x1 PUSH1 0x2 DUP9 MUL ADD DUP9 SSTORE POP POP POP JUMPDEST POP POP POP POP POP POP JUMP JUMPDEST PUSH0 DUP2 SWAP1 POP SWAP3 SWAP2 POP POP JUMP JUMPDEST PUSH0 PUSH2 0x2CE4 DUP3 PUSH2 0x1FBD JUMP JUMPDEST PUSH2 0x2CEE DUP2 DUP6 PUSH2 0x2CD0 JUMP JUMPDEST SWAP4 POP PUSH2 0x2CFE DUP2 DUP6 PUSH1 0x20 DUP7 ADD PUSH2 0x1FD7 JUMP JUMPDEST DUP1 DUP5 ADD SWAP2 POP POP SWAP3 SWAP2 POP POP JUMP JUMPDEST PUSH0 PUSH2 0x2D15 DUP3 DUP6 PUSH2 0x2CDA JUMP JUMPDEST SWAP2 POP PUSH2 0x2D21 DUP3 DUP5 PUSH2 0x2CDA JUMP JUMPDEST SWAP2 POP DUP2 SWAP1 POP SWAP4 SWAP3 POP POP POP JUMP JUMPDEST PUSH32 0x4F776E61626C653A206E6577206F776E657220697320746865207A65726F2061 PUSH0 DUP3 ADD MSTORE PUSH32 0x6464726573730000000000000000000000000000000000000000000000000000 PUSH1 0x20 DUP3 ADD MSTORE POP JUMP JUMPDEST PUSH0 PUSH2 0x2D87 PUSH1 0x26 DUP4 PUSH2 0x21F9 JUMP JUMPDEST SWAP2 POP PUSH2 0x2D92 DUP3 PUSH2 0x2D2D JUMP JUMPDEST PUSH1 0x40 DUP3 ADD SWAP1 POP SWAP2 SWAP1 POP JUMP JUMPDEST PUSH0 PUSH1 0x20 DUP3 ADD SWAP1 POP DUP2 DUP2 SUB PUSH0 DUP4 ADD MSTORE PUSH2 0x2DB4 DUP2 PUSH2 0x2D7B JUMP JUMPDEST SWAP1 POP SWAP2 SWAP1 POP JUMP JUMPDEST PUSH32 0x4F776E61626C653A2063616C6C6572206973206E6F7420746865206F776E6572 PUSH0 DUP3 ADD MSTORE POP JUMP JUMPDEST PUSH0 PUSH2 0x2DEF PUSH1 0x20 DUP4 PUSH2 0x21F9 JUMP JUMPDEST SWAP2 POP PUSH2 0x2DFA DUP3 PUSH2 0x2DBB JUMP JUMPDEST PUSH1 0x20 DUP3 ADD SWAP1 POP SWAP2 SWAP1 POP JUMP JUMPDEST PUSH0 PUSH1 0x20 DUP3 ADD SWAP1 POP DUP2 DUP2 SUB PUSH0 DUP4 ADD MSTORE PUSH2 0x2E1C DUP2 PUSH2 0x2DE3 JUMP JUMPDEST SWAP1 POP SWAP2 SWAP1 POP JUMP JUMPDEST PUSH0 DUP2 MLOAD SWAP1 POP SWAP2 SWAP1 POP JUMP JUMPDEST PUSH0 DUP3 DUP3 MSTORE PUSH1 0x20 DUP3 ADD SWAP1 POP SWAP3 SWAP2 POP POP JUMP JUMPDEST PUSH0 PUSH2 0x2E47 DUP3 PUSH2 0x2E23 JUMP JUMPDEST PUSH2 0x2E51 DUP2 DUP6 PUSH2 0x2E2D JUMP JUMPDEST SWAP4 POP PUSH2 0x2E61 DUP2 DUP6 PUSH1 0x20 DUP7 ADD PUSH2 0x1FD7 JUMP JUMPDEST PUSH2 0x2E6A DUP2 PUSH2 0x1FFF JUMP JUMPDEST DUP5 ADD SWAP2 POP POP SWAP3 SWAP2 POP POP JUMP JUMPDEST PUSH0 PUSH1 0x80 DUP3 ADD SWAP1 POP PUSH2 0x2E88 PUSH0 DUP4 ADD DUP8 PUSH2 0x22B6 JUMP JUMPDEST PUSH2 0x2E95 PUSH1 0x20 DUP4 ADD DUP7 PUSH2 0x22B6 JUMP JUMPDEST PUSH2 0x2EA2 PUSH1 0x40 DUP4 ADD DUP6 PUSH2 0x236C JUMP JUMPDEST DUP2 DUP2 SUB PUSH1 0x60 DUP4 ADD MSTORE PUSH2 0x2EB4 DUP2 DUP5 PUSH2 0x2E3D JUMP JUMPDEST SWAP1 POP SWAP6 SWAP5 POP POP POP POP POP JUMP JUMPDEST PUSH0 DUP2 MLOAD SWAP1 POP PUSH2 0x2ECD DUP2 PUSH2 0x2171 JUMP JUMPDEST SWAP3 SWAP2 POP POP JUMP JUMPDEST PUSH0 PUSH1 0x20 DUP3 DUP5 SUB SLT ISZERO PUSH2 0x2EE8 JUMPI PUSH2 0x2EE7 PUSH2 0x1EEF JUMP JUMPDEST JUMPDEST PUSH0 PUSH2 0x2EF5 DUP5 DUP3 DUP6 ADD PUSH2 0x2EBF JUMP JUMPDEST SWAP2 POP POP SWAP3 SWAP2 POP POP JUMP JUMPDEST PUSH32 0x4E487B7100000000000000000000000000000000000000000000000000000000 PUSH0 MSTORE PUSH1 0x12 PUSH1 0x4 MSTORE PUSH1 0x24 PUSH0 REVERT JUMPDEST PUSH0 PUSH1 0x40 DUP3 ADD SWAP1 POP PUSH2 0x2F3E PUSH0 DUP4 ADD DUP6 PUSH2 0x22B6 JUMP JUMPDEST PUSH2 0x2F4B PUSH1 0x20 DUP4 ADD DUP5 PUSH2 0x236C JUMP JUMPDEST SWAP4 SWAP3 POP POP POP JUMP INVALID LOG2 PUSH5 0x6970667358 0x22 SLT KECCAK256 SWAP14 SLT 0xE6 ADDRESS 0xDB 0xAE 0xE6 KECCAK256 SAR 0xCC 0xA6 GASLIMIT POP PUSH11 0xE7BA042529C523195945BC SWAP9 SWAP5 SWAP1 0x4E PUSH31 0xCA8864736F6C63430008160033000000000000000000000000000000000000 "
				},
				"gasEstimates": {
					"creation": {
						"codeDepositCost": "2433600",
						"executionCost": "infinite",
						"totalCost": "infinite"
					},
					"external": {
						"addProduct(string,uint256)": "infinite",
						"approve(address,uint256)": "infinite",
						"balanceOf(address)": "infinite",
						"buyProduct(uint256)": "infinite",
						"getApproved(uint256)": "infinite",
						"getUserProductDetails(address)": "infinite",
						"isApprovedForAll(address,address)": "infinite",
						"name()": "infinite",
						"nextProductId()": "2492",
						"owner()": "2582",
						"ownerOf(uint256)": "infinite",
						"products(uint256)": "infinite",
						"renounceOwnership()": "30523",
						"safeTransferFrom(address,address,uint256)": "infinite",
						"safeTransferFrom(address,address,uint256,bytes)": "infinite",
						"setApprovalForAll(address,bool)": "infinite",
						"supportsInterface(bytes4)": "809",
						"symbol()": "infinite",
						"token()": "infinite",
						"tokenURI(uint256)": "infinite",
						"transferFrom(address,address,uint256)": "infinite",
						"transferOwnership(address)": "30841",
						"userPurchases(address,uint256)": "infinite"
					}
				},
				"methodIdentifiers": {
					"addProduct(string,uint256)": "b15247d9",
					"approve(address,uint256)": "095ea7b3",
					"balanceOf(address)": "70a08231",
					"buyProduct(uint256)": "8642269e",
					"getApproved(uint256)": "081812fc",
					"getUserProductDetails(address)": "019d2fbf",
					"isApprovedForAll(address,address)": "e985e9c5",
					"name()": "06fdde03",
					"nextProductId()": "4de91a63",
					"owner()": "8da5cb5b",
					"ownerOf(uint256)": "6352211e",
					"products(uint256)": "7acc0b20",
					"renounceOwnership()": "715018a6",
					"safeTransferFrom(address,address,uint256)": "42842e0e",
					"safeTransferFrom(address,address,uint256,bytes)": "b88d4fde",
					"setApprovalForAll(address,bool)": "a22cb465",
					"supportsInterface(bytes4)": "01ffc9a7",
					"symbol()": "95d89b41",
					"token()": "fc0c546a",
					"tokenURI(uint256)": "c87b56dd",
					"transferFrom(address,address,uint256)": "23b872dd",
					"transferOwnership(address)": "f2fde38b",
					"userPurchases(address,uint256)": "cf2c0334"
				}
			},
			"storageLayout": {
				"storage": [
					{
						"astId": 360,
						"contract": "contracts/Simplify/productStore.sol:ProductStore",
						"label": "_name",
						"offset": 0,
						"slot": "0",
						"type": "t_string_storage"
					},
					{
						"astId": 362,
						"contract": "contracts/Simplify/productStore.sol:ProductStore",
						"label": "_symbol",
						"offset": 0,
						"slot": "1",
						"type": "t_string_storage"
					},
					{
						"astId": 366,
						"contract": "contracts/Simplify/productStore.sol:ProductStore",
						"label": "_owners",
						"offset": 0,
						"slot": "2",
						"type": "t_mapping(t_uint256,t_address)"
					},
					{
						"astId": 370,
						"contract": "contracts/Simplify/productStore.sol:ProductStore",
						"label": "_balances",
						"offset": 0,
						"slot": "3",
						"type": "t_mapping(t_address,t_uint256)"
					},
					{
						"astId": 374,
						"contract": "contracts/Simplify/productStore.sol:ProductStore",
						"label": "_tokenApprovals",
						"offset": 0,
						"slot": "4",
						"type": "t_mapping(t_uint256,t_address)"
					},
					{
						"astId": 380,
						"contract": "contracts/Simplify/productStore.sol:ProductStore",
						"label": "_operatorApprovals",
						"offset": 0,
						"slot": "5",
						"type": "t_mapping(t_address,t_mapping(t_address,t_bool))"
					},
					{
						"astId": 7,
						"contract": "contracts/Simplify/productStore.sol:ProductStore",
						"label": "_owner",
						"offset": 0,
						"slot": "6",
						"type": "t_address"
					},
					{
						"astId": 3058,
						"contract": "contracts/Simplify/productStore.sol:ProductStore",
						"label": "token",
						"offset": 0,
						"slot": "7",
						"type": "t_contract(IERC20)327"
					},
					{
						"astId": 3065,
						"contract": "contracts/Simplify/productStore.sol:ProductStore",
						"label": "_billIds",
						"offset": 0,
						"slot": "8",
						"type": "t_struct(Counter)1527_storage"
					},
					{
						"astId": 3085,
						"contract": "contracts/Simplify/productStore.sol:ProductStore",
						"label": "products",
						"offset": 0,
						"slot": "9",
						"type": "t_mapping(t_uint256,t_struct(Product)3080_storage)"
					},
					{
						"astId": 3090,
						"contract": "contracts/Simplify/productStore.sol:ProductStore",
						"label": "userPurchases",
						"offset": 0,
						"slot": "10",
						"type": "t_mapping(t_address,t_array(t_uint256)dyn_storage)"
					},
					{
						"astId": 3092,
						"contract": "contracts/Simplify/productStore.sol:ProductStore",
						"label": "nextProductId",
						"offset": 0,
						"slot": "11",
						"type": "t_uint256"
					}
				],
				"types": {
					"t_address": {
						"encoding": "inplace",
						"label": "address",
						"numberOfBytes": "20"
					},
					"t_array(t_uint256)dyn_storage": {
						"base": "t_uint256",
						"encoding": "dynamic_array",
						"label": "uint256[]",
						"numberOfBytes": "32"
					},
					"t_bool": {
						"encoding": "inplace",
						"label": "bool",
						"numberOfBytes": "1"
					},
					"t_contract(IERC20)327": {
						"encoding": "inplace",
						"label": "contract IERC20",
						"numberOfBytes": "20"
					},
					"t_mapping(t_address,t_array(t_uint256)dyn_storage)": {
						"encoding": "mapping",
						"key": "t_address",
						"label": "mapping(address => uint256[])",
						"numberOfBytes": "32",
						"value": "t_array(t_uint256)dyn_storage"
					},
					"t_mapping(t_address,t_bool)": {
						"encoding": "mapping",
						"key": "t_address",
						"label": "mapping(address => bool)",
						"numberOfBytes": "32",
						"value": "t_bool"
					},
					"t_mapping(t_address,t_mapping(t_address,t_bool))": {
						"encoding": "mapping",
						"key": "t_address",
						"label": "mapping(address => mapping(address => bool))",
						"numberOfBytes": "32",
						"value": "t_mapping(t_address,t_bool)"
					},
					"t_mapping(t_address,t_uint256)": {
						"encoding": "mapping",
						"key": "t_address",
						"label": "mapping(address => uint256)",
						"numberOfBytes": "32",
						"value": "t_uint256"
					},
					"t_mapping(t_uint256,t_address)": {
						"encoding": "mapping",
						"key": "t_uint256",
						"label": "mapping(uint256 => address)",
						"numberOfBytes": "32",
						"value": "t_address"
					},
					"t_mapping(t_uint256,t_struct(Product)3080_storage)": {
						"encoding": "mapping",
						"key": "t_uint256",
						"label": "mapping(uint256 => struct ProductStore.Product)",
						"numberOfBytes": "32",
						"value": "t_struct(Product)3080_storage"
					},
					"t_string_storage": {
						"encoding": "bytes",
						"label": "string",
						"numberOfBytes": "32"
					},
					"t_struct(Counter)1527_storage": {
						"encoding": "inplace",
						"label": "struct Counters.Counter",
						"members": [
							{
								"astId": 1526,
								"contract": "contracts/Simplify/productStore.sol:ProductStore",
								"label": "_value",
								"offset": 0,
								"slot": "0",
								"type": "t_uint256"
							}
						],
						"numberOfBytes": "32"
					},
					"t_struct(Product)3080_storage": {
						"encoding": "inplace",
						"label": "struct ProductStore.Product",
						"members": [
							{
								"astId": 3075,
								"contract": "contracts/Simplify/productStore.sol:ProductStore",
								"label": "id",
								"offset": 0,
								"slot": "0",
								"type": "t_uint256"
							},
							{
								"astId": 3077,
								"contract": "contracts/Simplify/productStore.sol:ProductStore",
								"label": "name",
								"offset": 0,
								"slot": "1",
								"type": "t_string_storage"
							},
							{
								"astId": 3079,
								"contract": "contracts/Simplify/productStore.sol:ProductStore",
								"label": "price",
								"offset": 0,
								"slot": "2",
								"type": "t_uint256"
							}
						],
						"numberOfBytes": "96"
					},
					"t_uint256": {
						"encoding": "inplace",
						"label": "uint256",
						"numberOfBytes": "32"
					}
				}
			},
			"userdoc": {
				"kind": "user",
				"methods": {},
				"version": 1
			}
		}
	}
}