{
	"contracts/Simplify/ssss.sol": {
		"ProductStore": {
			"abi": [
				{
					"inputs": [
						{
							"internalType": "address",
							"name": "_tokenAddress",
							"type": "address"
						}
					],
					"stateMutability": "nonpayable",
					"type": "constructor"
				},
				{
					"inputs": [
						{
							"internalType": "address",
							"name": "sender",
							"type": "address"
						},
						{
							"internalType": "uint256",
							"name": "tokenId",
							"type": "uint256"
						},
						{
							"internalType": "address",
							"name": "owner",
							"type": "address"
						}
					],
					"name": "ERC721IncorrectOwner",
					"type": "error"
				},
				{
					"inputs": [
						{
							"internalType": "address",
							"name": "operator",
							"type": "address"
						},
						{
							"internalType": "uint256",
							"name": "tokenId",
							"type": "uint256"
						}
					],
					"name": "ERC721InsufficientApproval",
					"type": "error"
				},
				{
					"inputs": [
						{
							"internalType": "address",
							"name": "approver",
							"type": "address"
						}
					],
					"name": "ERC721InvalidApprover",
					"type": "error"
				},
				{
					"inputs": [
						{
							"internalType": "address",
							"name": "operator",
							"type": "address"
						}
					],
					"name": "ERC721InvalidOperator",
					"type": "error"
				},
				{
					"inputs": [
						{
							"internalType": "address",
							"name": "owner",
							"type": "address"
						}
					],
					"name": "ERC721InvalidOwner",
					"type": "error"
				},
				{
					"inputs": [
						{
							"internalType": "address",
							"name": "receiver",
							"type": "address"
						}
					],
					"name": "ERC721InvalidReceiver",
					"type": "error"
				},
				{
					"inputs": [
						{
							"internalType": "address",
							"name": "sender",
							"type": "address"
						}
					],
					"name": "ERC721InvalidSender",
					"type": "error"
				},
				{
					"inputs": [
						{
							"internalType": "uint256",
							"name": "tokenId",
							"type": "uint256"
						}
					],
					"name": "ERC721NonexistentToken",
					"type": "error"
				},
				{
					"anonymous": false,
					"inputs": [
						{
							"indexed": true,
							"internalType": "address",
							"name": "owner",
							"type": "address"
						},
						{
							"indexed": true,
							"internalType": "address",
							"name": "approved",
							"type": "address"
						},
						{
							"indexed": true,
							"internalType": "uint256",
							"name": "tokenId",
							"type": "uint256"
						}
					],
					"name": "Approval",
					"type": "event"
				},
				{
					"anonymous": false,
					"inputs": [
						{
							"indexed": true,
							"internalType": "address",
							"name": "owner",
							"type": "address"
						},
						{
							"indexed": true,
							"internalType": "address",
							"name": "operator",
							"type": "address"
						},
						{
							"indexed": false,
							"internalType": "bool",
							"name": "approved",
							"type": "bool"
						}
					],
					"name": "ApprovalForAll",
					"type": "event"
				},
				{
					"anonymous": false,
					"inputs": [
						{
							"indexed": true,
							"internalType": "address",
							"name": "previousOwner",
							"type": "address"
						},
						{
							"indexed": true,
							"internalType": "address",
							"name": "newOwner",
							"type": "address"
						}
					],
					"name": "OwnershipTransferred",
					"type": "event"
				},
				{
					"anonymous": false,
					"inputs": [
						{
							"indexed": true,
							"internalType": "address",
							"name": "buyer",
							"type": "address"
						},
						{
							"indexed": false,
							"internalType": "uint256",
							"name": "productId",
							"type": "uint256"
						},
						{
							"indexed": false,
							"internalType": "uint256",
							"name": "amountPaid",
							"type": "uint256"
						}
					],
					"name": "ProductPurchased",
					"type": "event"
				},
				{
					"anonymous": false,
					"inputs": [
						{
							"indexed": true,
							"internalType": "address",
							"name": "from",
							"type": "address"
						},
						{
							"indexed": true,
							"internalType": "address",
							"name": "to",
							"type": "address"
						},
						{
							"indexed": true,
							"internalType": "uint256",
							"name": "tokenId",
							"type": "uint256"
						}
					],
					"name": "Transfer",
					"type": "event"
				},
				{
					"inputs": [
						{
							"internalType": "string",
							"name": "_name",
							"type": "string"
						},
						{
							"internalType": "uint256",
							"name": "_price",
							"type": "uint256"
						}
					],
					"name": "addProduct",
					"outputs": [],
					"stateMutability": "nonpayable",
					"type": "function"
				},
				{
					"inputs": [
						{
							"internalType": "address",
							"name": "to",
							"type": "address"
						},
						{
							"internalType": "uint256",
							"name": "tokenId",
							"type": "uint256"
						}
					],
					"name": "approve",
					"outputs": [],
					"stateMutability": "nonpayable",
					"type": "function"
				},
				{
					"inputs": [
						{
							"internalType": "address",
							"name": "owner",
							"type": "address"
						}
					],
					"name": "balanceOf",
					"outputs": [
						{
							"internalType": "uint256",
							"name": "",
							"type": "uint256"
						}
					],
					"stateMutability": "view",
					"type": "function"
				},
				{
					"inputs": [
						{
							"internalType": "uint256",
							"name": "_productId",
							"type": "uint256"
						}
					],
					"name": "buyProduct",
					"outputs": [
						{
							"internalType": "uint256",
							"name": "",
							"type": "uint256"
						}
					],
					"stateMutability": "nonpayable",
					"type": "function"
				},
				{
					"inputs": [
						{
							"internalType": "uint256",
							"name": "tokenId",
							"type": "uint256"
						}
					],
					"name": "getApproved",
					"outputs": [
						{
							"internalType": "address",
							"name": "",
							"type": "address"
						}
					],
					"stateMutability": "view",
					"type": "function"
				},
				{
					"inputs": [
						{
							"internalType": "uint256",
							"name": "_billId",
							"type": "uint256"
						}
					],
					"name": "getBillDetails",
					"outputs": [
						{
							"internalType": "string",
							"name": "",
							"type": "string"
						},
						{
							"internalType": "uint256",
							"name": "",
							"type": "uint256"
						}
					],
					"stateMutability": "view",
					"type": "function"
				},
				{
					"inputs": [
						{
							"internalType": "address",
							"name": "owner",
							"type": "address"
						},
						{
							"internalType": "address",
							"name": "operator",
							"type": "address"
						}
					],
					"name": "isApprovedForAll",
					"outputs": [
						{
							"internalType": "bool",
							"name": "",
							"type": "bool"
						}
					],
					"stateMutability": "view",
					"type": "function"
				},
				{
					"inputs": [],
					"name": "name",
					"outputs": [
						{
							"internalType": "string",
							"name": "",
							"type": "string"
						}
					],
					"stateMutability": "view",
					"type": "function"
				},
				{
					"inputs": [],
					"name": "owner",
					"outputs": [
						{
							"internalType": "address",
							"name": "",
							"type": "address"
						}
					],
					"stateMutability": "view",
					"type": "function"
				},
				{
					"inputs": [
						{
							"internalType": "uint256",
							"name": "tokenId",
							"type": "uint256"
						}
					],
					"name": "ownerOf",
					"outputs": [
						{
							"internalType": "address",
							"name": "",
							"type": "address"
						}
					],
					"stateMutability": "view",
					"type": "function"
				},
				{
					"inputs": [
						{
							"internalType": "uint256",
							"name": "",
							"type": "uint256"
						}
					],
					"name": "products",
					"outputs": [
						{
							"internalType": "string",
							"name": "name",
							"type": "string"
						},
						{
							"internalType": "uint256",
							"name": "price",
							"type": "uint256"
						}
					],
					"stateMutability": "view",
					"type": "function"
				},
				{
					"inputs": [],
					"name": "renounceOwnership",
					"outputs": [],
					"stateMutability": "nonpayable",
					"type": "function"
				},
				{
					"inputs": [
						{
							"internalType": "address",
							"name": "from",
							"type": "address"
						},
						{
							"internalType": "address",
							"name": "to",
							"type": "address"
						},
						{
							"internalType": "uint256",
							"name": "tokenId",
							"type": "uint256"
						}
					],
					"name": "safeTransferFrom",
					"outputs": [],
					"stateMutability": "nonpayable",
					"type": "function"
				},
				{
					"inputs": [
						{
							"internalType": "address",
							"name": "from",
							"type": "address"
						},
						{
							"internalType": "address",
							"name": "to",
							"type": "address"
						},
						{
							"internalType": "uint256",
							"name": "tokenId",
							"type": "uint256"
						},
						{
							"internalType": "bytes",
							"name": "data",
							"type": "bytes"
						}
					],
					"name": "safeTransferFrom",
					"outputs": [],
					"stateMutability": "nonpayable",
					"type": "function"
				},
				{
					"inputs": [
						{
							"internalType": "address",
							"name": "operator",
							"type": "address"
						},
						{
							"internalType": "bool",
							"name": "approved",
							"type": "bool"
						}
					],
					"name": "setApprovalForAll",
					"outputs": [],
					"stateMutability": "nonpayable",
					"type": "function"
				},
				{
					"inputs": [
						{
							"internalType": "bytes4",
							"name": "interfaceId",
							"type": "bytes4"
						}
					],
					"name": "supportsInterface",
					"outputs": [
						{
							"internalType": "bool",
							"name": "",
							"type": "bool"
						}
					],
					"stateMutability": "view",
					"type": "function"
				},
				{
					"inputs": [],
					"name": "symbol",
					"outputs": [
						{
							"internalType": "string",
							"name": "",
							"type": "string"
						}
					],
					"stateMutability": "view",
					"type": "function"
				},
				{
					"inputs": [],
					"name": "token",
					"outputs": [
						{
							"internalType": "contract IERC20",
							"name": "",
							"type": "address"
						}
					],
					"stateMutability": "view",
					"type": "function"
				},
				{
					"inputs": [
						{
							"internalType": "uint256",
							"name": "tokenId",
							"type": "uint256"
						}
					],
					"name": "tokenURI",
					"outputs": [
						{
							"internalType": "string",
							"name": "",
							"type": "string"
						}
					],
					"stateMutability": "view",
					"type": "function"
				},
				{
					"inputs": [
						{
							"internalType": "address",
							"name": "from",
							"type": "address"
						},
						{
							"internalType": "address",
							"name": "to",
							"type": "address"
						},
						{
							"internalType": "uint256",
							"name": "tokenId",
							"type": "uint256"
						}
					],
					"name": "transferFrom",
					"outputs": [],
					"stateMutability": "nonpayable",
					"type": "function"
				},
				{
					"inputs": [
						{
							"internalType": "address",
							"name": "newOwner",
							"type": "address"
						}
					],
					"name": "transferOwnership",
					"outputs": [],
					"stateMutability": "nonpayable",
					"type": "function"
				},
				{
					"inputs": [
						{
							"internalType": "address",
							"name": "",
							"type": "address"
						},
						{
							"internalType": "uint256",
							"name": "",
							"type": "uint256"
						}
					],
					"name": "userPurchases",
					"outputs": [
						{
							"internalType": "uint256",
							"name": "",
							"type": "uint256"
						}
					],
					"stateMutability": "view",
					"type": "function"
				}
			],
			"devdoc": {
				"errors": {
					"ERC721IncorrectOwner(address,uint256,address)": [
						{
							"details": "Indicates an error related to the ownership over a particular token. Used in transfers.",
							"params": {
								"owner": "Address of the current owner of a token.",
								"sender": "Address whose tokens are being transferred.",
								"tokenId": "Identifier number of a token."
							}
						}
					],
					"ERC721InsufficientApproval(address,uint256)": [
						{
							"details": "Indicates a failure with the `operator`’s approval. Used in transfers.",
							"params": {
								"operator": "Address that may be allowed to operate on tokens without being their owner.",
								"tokenId": "Identifier number of a token."
							}
						}
					],
					"ERC721InvalidApprover(address)": [
						{
							"details": "Indicates a failure with the `approver` of a token to be approved. Used in approvals.",
							"params": {
								"approver": "Address initiating an approval operation."
							}
						}
					],
					"ERC721InvalidOperator(address)": [
						{
							"details": "Indicates a failure with the `operator` to be approved. Used in approvals.",
							"params": {
								"operator": "Address that may be allowed to operate on tokens without being their owner."
							}
						}
					],
					"ERC721InvalidOwner(address)": [
						{
							"details": "Indicates that an address can't be an owner. For example, `address(0)` is a forbidden owner in EIP-20. Used in balance queries.",
							"params": {
								"owner": "Address of the current owner of a token."
							}
						}
					],
					"ERC721InvalidReceiver(address)": [
						{
							"details": "Indicates a failure with the token `receiver`. Used in transfers.",
							"params": {
								"receiver": "Address to which tokens are being transferred."
							}
						}
					],
					"ERC721InvalidSender(address)": [
						{
							"details": "Indicates a failure with the token `sender`. Used in transfers.",
							"params": {
								"sender": "Address whose tokens are being transferred."
							}
						}
					],
					"ERC721NonexistentToken(uint256)": [
						{
							"details": "Indicates a `tokenId` whose `owner` is the zero address.",
							"params": {
								"tokenId": "Identifier number of a token."
							}
						}
					]
				},
				"events": {
					"Approval(address,address,uint256)": {
						"details": "Emitted when `owner` enables `approved` to manage the `tokenId` token."
					},
					"ApprovalForAll(address,address,bool)": {
						"details": "Emitted when `owner` enables or disables (`approved`) `operator` to manage all of its assets."
					},
					"Transfer(address,address,uint256)": {
						"details": "Emitted when `tokenId` token is transferred from `from` to `to`."
					}
				},
				"kind": "dev",
				"methods": {
					"approve(address,uint256)": {
						"details": "See {IERC721-approve}."
					},
					"balanceOf(address)": {
						"details": "See {IERC721-balanceOf}."
					},
					"getApproved(uint256)": {
						"details": "See {IERC721-getApproved}."
					},
					"isApprovedForAll(address,address)": {
						"details": "See {IERC721-isApprovedForAll}."
					},
					"name()": {
						"details": "See {IERC721Metadata-name}."
					},
					"owner()": {
						"details": "Returns the address of the current owner."
					},
					"ownerOf(uint256)": {
						"details": "See {IERC721-ownerOf}."
					},
					"renounceOwnership()": {
						"details": "Leaves the contract without owner. It will not be possible to call `onlyOwner` functions. Can only be called by the current owner. NOTE: Renouncing ownership will leave the contract without an owner, thereby disabling any functionality that is only available to the owner."
					},
					"safeTransferFrom(address,address,uint256)": {
						"details": "See {IERC721-safeTransferFrom}."
					},
					"safeTransferFrom(address,address,uint256,bytes)": {
						"details": "See {IERC721-safeTransferFrom}."
					},
					"setApprovalForAll(address,bool)": {
						"details": "See {IERC721-setApprovalForAll}."
					},
					"supportsInterface(bytes4)": {
						"details": "See {IERC165-supportsInterface}."
					},
					"symbol()": {
						"details": "See {IERC721Metadata-symbol}."
					},
					"tokenURI(uint256)": {
						"details": "See {IERC721Metadata-tokenURI}."
					},
					"transferFrom(address,address,uint256)": {
						"details": "See {IERC721-transferFrom}."
					},
					"transferOwnership(address)": {
						"details": "Transfers ownership of the contract to a new account (`newOwner`). Can only be called by the current owner."
					}
				},
				"version": 1
			},
			"evm": {
				"assembly": "    /* \"contracts/Simplify/ssss.sol\":368:2267  contract ProductStore is ERC721, Ownable {... */\n  mstore(0x40, 0x80)\n    /* \"contracts/Simplify/ssss.sol\":845:959  constructor(address _tokenAddress) ERC721(\"ProductBill\", \"PBL\") {... */\n  callvalue\n  dup1\n  iszero\n  tag_1\n  jumpi\n  0x00\n  dup1\n  revert\ntag_1:\n  pop\n  mload(0x40)\n  sub(codesize, bytecodeSize)\n  dup1\n  bytecodeSize\n  dup4\n  codecopy\n  dup2\n  dup2\n  add\n  0x40\n  mstore\n  dup2\n  add\n  swap1\n  tag_2\n  swap2\n  swap1\n  tag_3\n  jump\t// in\ntag_2:\n    /* \"@openzeppelin/contracts/token/ERC721/ERC721.sol\":1381:1494  constructor(string memory name_, string memory symbol_) {... */\n  mload(0x40)\n  dup1\n  0x40\n  add\n  0x40\n  mstore\n  dup1\n  0x0b\n  dup2\n  mstore\n  0x20\n  add\n  0x50726f6475637442696c6c000000000000000000000000000000000000000000\n  dup2\n  mstore\n  pop\n  mload(0x40)\n  dup1\n  0x40\n  add\n  0x40\n  mstore\n  dup1\n  0x03\n  dup2\n  mstore\n  0x20\n  add\n  0x50424c0000000000000000000000000000000000000000000000000000000000\n  dup2\n  mstore\n  pop\n    /* \"@openzeppelin/contracts/token/ERC721/ERC721.sol\":1455:1460  name_ */\n  dup2\n    /* \"@openzeppelin/contracts/token/ERC721/ERC721.sol\":1447:1452  _name */\n  0x00\n    /* \"@openzeppelin/contracts/token/ERC721/ERC721.sol\":1447:1460  _name = name_ */\n  swap1\n  dup2\n  tag_8\n  swap2\n  swap1\n  tag_9\n  jump\t// in\ntag_8:\n  pop\n    /* \"@openzeppelin/contracts/token/ERC721/ERC721.sol\":1480:1487  symbol_ */\n  dup1\n    /* \"@openzeppelin/contracts/token/ERC721/ERC721.sol\":1470:1477  _symbol */\n  0x01\n    /* \"@openzeppelin/contracts/token/ERC721/ERC721.sol\":1470:1487  _symbol = symbol_ */\n  swap1\n  dup2\n  tag_10\n  swap2\n  swap1\n  tag_9\n  jump\t// in\ntag_10:\n  pop\n    /* \"@openzeppelin/contracts/token/ERC721/ERC721.sol\":1381:1494  constructor(string memory name_, string memory symbol_) {... */\n  pop\n  pop\n    /* \"@openzeppelin/contracts/access/Ownable.sol\":936:968  _transferOwnership(_msgSender()) */\n  tag_12\n    /* \"@openzeppelin/contracts/access/Ownable.sol\":955:967  _msgSender() */\n  tag_13\n    /* \"@openzeppelin/contracts/access/Ownable.sol\":955:965  _msgSender */\n  shl(0x20, tag_14)\n    /* \"@openzeppelin/contracts/access/Ownable.sol\":955:967  _msgSender() */\n  0x20\n  shr\n  jump\t// in\ntag_13:\n    /* \"@openzeppelin/contracts/access/Ownable.sol\":936:954  _transferOwnership */\n  shl(0x20, tag_15)\n    /* \"@openzeppelin/contracts/access/Ownable.sol\":936:968  _transferOwnership(_msgSender()) */\n  0x20\n  shr\n  jump\t// in\ntag_12:\n    /* \"contracts/Simplify/ssss.sol\":935:948  _tokenAddress */\n  dup1\n    /* \"contracts/Simplify/ssss.sol\":920:925  token */\n  0x08\n  0x00\n    /* \"contracts/Simplify/ssss.sol\":920:949  token = IERC20(_tokenAddress) */\n  0x0100\n  exp\n  dup2\n  sload\n  dup2\n  0xffffffffffffffffffffffffffffffffffffffff\n  mul\n  not\n  and\n  swap1\n  dup4\n  0xffffffffffffffffffffffffffffffffffffffff\n  and\n  mul\n  or\n  swap1\n  sstore\n  pop\n    /* \"contracts/Simplify/ssss.sol\":845:959  constructor(address _tokenAddress) ERC721(\"ProductBill\", \"PBL\") {... */\n  pop\n    /* \"contracts/Simplify/ssss.sol\":368:2267  contract ProductStore is ERC721, Ownable {... */\n  jump(tag_17)\n    /* \"@openzeppelin/contracts/utils/Context.sol\":640:736  function _msgSender() internal view virtual returns (address) {... */\ntag_14:\n    /* \"@openzeppelin/contracts/utils/Context.sol\":693:700  address */\n  0x00\n    /* \"@openzeppelin/contracts/utils/Context.sol\":719:729  msg.sender */\n  caller\n    /* \"@openzeppelin/contracts/utils/Context.sol\":712:729  return msg.sender */\n  swap1\n  pop\n    /* \"@openzeppelin/contracts/utils/Context.sol\":640:736  function _msgSender() internal view virtual returns (address) {... */\n  swap1\n  jump\t// out\n    /* \"@openzeppelin/contracts/access/Ownable.sol\":2426:2613  function _transferOwnership(address newOwner) internal virtual {... */\ntag_15:\n    /* \"@openzeppelin/contracts/access/Ownable.sol\":2499:2515  address oldOwner */\n  0x00\n    /* \"@openzeppelin/contracts/access/Ownable.sol\":2518:2524  _owner */\n  0x06\n  0x00\n  swap1\n  sload\n  swap1\n  0x0100\n  exp\n  swap1\n  div\n  0xffffffffffffffffffffffffffffffffffffffff\n  and\n    /* \"@openzeppelin/contracts/access/Ownable.sol\":2499:2524  address oldOwner = _owner */\n  swap1\n  pop\n    /* \"@openzeppelin/contracts/access/Ownable.sol\":2543:2551  newOwner */\n  dup2\n    /* \"@openzeppelin/contracts/access/Ownable.sol\":2534:2540  _owner */\n  0x06\n  0x00\n    /* \"@openzeppelin/contracts/access/Ownable.sol\":2534:2551  _owner = newOwner */\n  0x0100\n  exp\n  dup2\n  sload\n  dup2\n  0xffffffffffffffffffffffffffffffffffffffff\n  mul\n  not\n  and\n  swap1\n  dup4\n  0xffffffffffffffffffffffffffffffffffffffff\n  and\n  mul\n  or\n  swap1\n  sstore\n  pop\n    /* \"@openzeppelin/contracts/access/Ownable.sol\":2597:2605  newOwner */\n  dup2\n    /* \"@openzeppelin/contracts/access/Ownable.sol\":2566:2606  OwnershipTransferred(oldOwner, newOwner) */\n  0xffffffffffffffffffffffffffffffffffffffff\n  and\n    /* \"@openzeppelin/contracts/access/Ownable.sol\":2587:2595  oldOwner */\n  dup2\n    /* \"@openzeppelin/contracts/access/Ownable.sol\":2566:2606  OwnershipTransferred(oldOwner, newOwner) */\n  0xffffffffffffffffffffffffffffffffffffffff\n  and\n  0x8be0079c531659141344cd1fd0a4f28419497f9722a3daafe3b4186f6b6457e0\n  mload(0x40)\n  mload(0x40)\n  dup1\n  swap2\n  sub\n  swap1\n  log3\n    /* \"@openzeppelin/contracts/access/Ownable.sol\":2489:2613  {... */\n  pop\n    /* \"@openzeppelin/contracts/access/Ownable.sol\":2426:2613  function _transferOwnership(address newOwner) internal virtual {... */\n  pop\n  jump\t// out\n    /* \"#utility.yul\":88:205   */\ntag_21:\n    /* \"#utility.yul\":197:198   */\n  0x00\n    /* \"#utility.yul\":194:195   */\n  dup1\n    /* \"#utility.yul\":187:199   */\n  revert\n    /* \"#utility.yul\":334:460   */\ntag_23:\n    /* \"#utility.yul\":371:378   */\n  0x00\n    /* \"#utility.yul\":411:453   */\n  0xffffffffffffffffffffffffffffffffffffffff\n    /* \"#utility.yul\":404:409   */\n  dup3\n    /* \"#utility.yul\":400:454   */\n  and\n    /* \"#utility.yul\":389:454   */\n  swap1\n  pop\n    /* \"#utility.yul\":334:460   */\n  swap2\n  swap1\n  pop\n  jump\t// out\n    /* \"#utility.yul\":466:562   */\ntag_24:\n    /* \"#utility.yul\":503:510   */\n  0x00\n    /* \"#utility.yul\":532:556   */\n  tag_53\n    /* \"#utility.yul\":550:555   */\n  dup3\n    /* \"#utility.yul\":532:556   */\n  tag_23\n  jump\t// in\ntag_53:\n    /* \"#utility.yul\":521:556   */\n  swap1\n  pop\n    /* \"#utility.yul\":466:562   */\n  swap2\n  swap1\n  pop\n  jump\t// out\n    /* \"#utility.yul\":568:690   */\ntag_25:\n    /* \"#utility.yul\":641:665   */\n  tag_55\n    /* \"#utility.yul\":659:664   */\n  dup2\n    /* \"#utility.yul\":641:665   */\n  tag_24\n  jump\t// in\ntag_55:\n    /* \"#utility.yul\":634:639   */\n  dup2\n    /* \"#utility.yul\":631:666   */\n  eq\n    /* \"#utility.yul\":621:684   */\n  tag_56\n  jumpi\n    /* \"#utility.yul\":680:681   */\n  0x00\n    /* \"#utility.yul\":677:678   */\n  dup1\n    /* \"#utility.yul\":670:682   */\n  revert\n    /* \"#utility.yul\":621:684   */\ntag_56:\n    /* \"#utility.yul\":568:690   */\n  pop\n  jump\t// out\n    /* \"#utility.yul\":696:839   */\ntag_26:\n    /* \"#utility.yul\":753:758   */\n  0x00\n    /* \"#utility.yul\":784:790   */\n  dup2\n    /* \"#utility.yul\":778:791   */\n  mload\n    /* \"#utility.yul\":769:791   */\n  swap1\n  pop\n    /* \"#utility.yul\":800:833   */\n  tag_58\n    /* \"#utility.yul\":827:832   */\n  dup2\n    /* \"#utility.yul\":800:833   */\n  tag_25\n  jump\t// in\ntag_58:\n    /* \"#utility.yul\":696:839   */\n  swap3\n  swap2\n  pop\n  pop\n  jump\t// out\n    /* \"#utility.yul\":845:1196   */\ntag_3:\n    /* \"#utility.yul\":915:921   */\n  0x00\n    /* \"#utility.yul\":964:966   */\n  0x20\n    /* \"#utility.yul\":952:961   */\n  dup3\n    /* \"#utility.yul\":943:950   */\n  dup5\n    /* \"#utility.yul\":939:962   */\n  sub\n    /* \"#utility.yul\":935:967   */\n  slt\n    /* \"#utility.yul\":932:1051   */\n  iszero\n  tag_60\n  jumpi\n    /* \"#utility.yul\":970:1049   */\n  tag_61\n  tag_21\n  jump\t// in\ntag_61:\n    /* \"#utility.yul\":932:1051   */\ntag_60:\n    /* \"#utility.yul\":1090:1091   */\n  0x00\n    /* \"#utility.yul\":1115:1179   */\n  tag_62\n    /* \"#utility.yul\":1171:1178   */\n  dup5\n    /* \"#utility.yul\":1162:1168   */\n  dup3\n    /* \"#utility.yul\":1151:1160   */\n  dup6\n    /* \"#utility.yul\":1147:1169   */\n  add\n    /* \"#utility.yul\":1115:1179   */\n  tag_26\n  jump\t// in\ntag_62:\n    /* \"#utility.yul\":1105:1179   */\n  swap2\n  pop\n    /* \"#utility.yul\":1061:1189   */\n  pop\n    /* \"#utility.yul\":845:1196   */\n  swap3\n  swap2\n  pop\n  pop\n  jump\t// out\n    /* \"#utility.yul\":1202:1301   */\ntag_27:\n    /* \"#utility.yul\":1254:1260   */\n  0x00\n    /* \"#utility.yul\":1288:1293   */\n  dup2\n    /* \"#utility.yul\":1282:1294   */\n  mload\n    /* \"#utility.yul\":1272:1294   */\n  swap1\n  pop\n    /* \"#utility.yul\":1202:1301   */\n  swap2\n  swap1\n  pop\n  jump\t// out\n    /* \"#utility.yul\":1307:1487   */\ntag_28:\n    /* \"#utility.yul\":1355:1432   */\n  0x4e487b7100000000000000000000000000000000000000000000000000000000\n    /* \"#utility.yul\":1352:1353   */\n  0x00\n    /* \"#utility.yul\":1345:1433   */\n  mstore\n    /* \"#utility.yul\":1452:1456   */\n  0x41\n    /* \"#utility.yul\":1449:1450   */\n  0x04\n    /* \"#utility.yul\":1442:1457   */\n  mstore\n    /* \"#utility.yul\":1476:1480   */\n  0x24\n    /* \"#utility.yul\":1473:1474   */\n  0x00\n    /* \"#utility.yul\":1466:1481   */\n  revert\n    /* \"#utility.yul\":1493:1673   */\ntag_29:\n    /* \"#utility.yul\":1541:1618   */\n  0x4e487b7100000000000000000000000000000000000000000000000000000000\n    /* \"#utility.yul\":1538:1539   */\n  0x00\n    /* \"#utility.yul\":1531:1619   */\n  mstore\n    /* \"#utility.yul\":1638:1642   */\n  0x22\n    /* \"#utility.yul\":1635:1636   */\n  0x04\n    /* \"#utility.yul\":1628:1643   */\n  mstore\n    /* \"#utility.yul\":1662:1666   */\n  0x24\n    /* \"#utility.yul\":1659:1660   */\n  0x00\n    /* \"#utility.yul\":1652:1667   */\n  revert\n    /* \"#utility.yul\":1679:1999   */\ntag_30:\n    /* \"#utility.yul\":1723:1729   */\n  0x00\n    /* \"#utility.yul\":1760:1761   */\n  0x02\n    /* \"#utility.yul\":1754:1758   */\n  dup3\n    /* \"#utility.yul\":1750:1762   */\n  div\n    /* \"#utility.yul\":1740:1762   */\n  swap1\n  pop\n    /* \"#utility.yul\":1807:1808   */\n  0x01\n    /* \"#utility.yul\":1801:1805   */\n  dup3\n    /* \"#utility.yul\":1797:1809   */\n  and\n    /* \"#utility.yul\":1828:1846   */\n  dup1\n    /* \"#utility.yul\":1818:1899   */\n  tag_67\n  jumpi\n    /* \"#utility.yul\":1884:1888   */\n  0x7f\n    /* \"#utility.yul\":1876:1882   */\n  dup3\n    /* \"#utility.yul\":1872:1889   */\n  and\n    /* \"#utility.yul\":1862:1889   */\n  swap2\n  pop\n    /* \"#utility.yul\":1818:1899   */\ntag_67:\n    /* \"#utility.yul\":1946:1948   */\n  0x20\n    /* \"#utility.yul\":1938:1944   */\n  dup3\n    /* \"#utility.yul\":1935:1949   */\n  lt\n    /* \"#utility.yul\":1915:1933   */\n  dup2\n    /* \"#utility.yul\":1912:1950   */\n  sub\n    /* \"#utility.yul\":1909:1993   */\n  tag_68\n  jumpi\n    /* \"#utility.yul\":1965:1983   */\n  tag_69\n  tag_29\n  jump\t// in\ntag_69:\n    /* \"#utility.yul\":1909:1993   */\ntag_68:\n    /* \"#utility.yul\":1730:1999   */\n  pop\n    /* \"#utility.yul\":1679:1999   */\n  swap2\n  swap1\n  pop\n  jump\t// out\n    /* \"#utility.yul\":2005:2146   */\ntag_31:\n    /* \"#utility.yul\":2054:2058   */\n  0x00\n    /* \"#utility.yul\":2077:2080   */\n  dup2\n    /* \"#utility.yul\":2069:2080   */\n  swap1\n  pop\n    /* \"#utility.yul\":2100:2103   */\n  dup2\n    /* \"#utility.yul\":2097:2098   */\n  0x00\n    /* \"#utility.yul\":2090:2104   */\n  mstore\n    /* \"#utility.yul\":2134:2138   */\n  0x20\n    /* \"#utility.yul\":2131:2132   */\n  0x00\n    /* \"#utility.yul\":2121:2139   */\n  keccak256\n    /* \"#utility.yul\":2113:2139   */\n  swap1\n  pop\n    /* \"#utility.yul\":2005:2146   */\n  swap2\n  swap1\n  pop\n  jump\t// out\n    /* \"#utility.yul\":2152:2245   */\ntag_32:\n    /* \"#utility.yul\":2189:2195   */\n  0x00\n    /* \"#utility.yul\":2236:2238   */\n  0x20\n    /* \"#utility.yul\":2231:2233   */\n  0x1f\n    /* \"#utility.yul\":2224:2229   */\n  dup4\n    /* \"#utility.yul\":2220:2234   */\n  add\n    /* \"#utility.yul\":2216:2239   */\n  div\n    /* \"#utility.yul\":2206:2239   */\n  swap1\n  pop\n    /* \"#utility.yul\":2152:2245   */\n  swap2\n  swap1\n  pop\n  jump\t// out\n    /* \"#utility.yul\":2251:2358   */\ntag_33:\n    /* \"#utility.yul\":2295:2303   */\n  0x00\n    /* \"#utility.yul\":2345:2350   */\n  dup3\n    /* \"#utility.yul\":2339:2343   */\n  dup3\n    /* \"#utility.yul\":2335:2351   */\n  shl\n    /* \"#utility.yul\":2314:2351   */\n  swap1\n  pop\n    /* \"#utility.yul\":2251:2358   */\n  swap3\n  swap2\n  pop\n  pop\n  jump\t// out\n    /* \"#utility.yul\":2364:2757   */\ntag_34:\n    /* \"#utility.yul\":2433:2439   */\n  0x00\n    /* \"#utility.yul\":2483:2484   */\n  0x08\n    /* \"#utility.yul\":2471:2481   */\n  dup4\n    /* \"#utility.yul\":2467:2485   */\n  mul\n    /* \"#utility.yul\":2506:2603   */\n  tag_74\n    /* \"#utility.yul\":2536:2602   */\n  0xffffffffffffffffffffffffffffffffffffffffffffffffffffffffffffffff\n    /* \"#utility.yul\":2525:2534   */\n  dup3\n    /* \"#utility.yul\":2506:2603   */\n  tag_33\n  jump\t// in\ntag_74:\n    /* \"#utility.yul\":2624:2663   */\n  tag_75\n    /* \"#utility.yul\":2654:2662   */\n  dup7\n    /* \"#utility.yul\":2643:2652   */\n  dup4\n    /* \"#utility.yul\":2624:2663   */\n  tag_33\n  jump\t// in\ntag_75:\n    /* \"#utility.yul\":2612:2663   */\n  swap6\n  pop\n    /* \"#utility.yul\":2696:2700   */\n  dup1\n    /* \"#utility.yul\":2692:2701   */\n  not\n    /* \"#utility.yul\":2685:2690   */\n  dup5\n    /* \"#utility.yul\":2681:2702   */\n  and\n    /* \"#utility.yul\":2672:2702   */\n  swap4\n  pop\n    /* \"#utility.yul\":2745:2749   */\n  dup1\n    /* \"#utility.yul\":2735:2743   */\n  dup7\n    /* \"#utility.yul\":2731:2750   */\n  and\n    /* \"#utility.yul\":2724:2729   */\n  dup5\n    /* \"#utility.yul\":2721:2751   */\n  or\n    /* \"#utility.yul\":2711:2751   */\n  swap3\n  pop\n    /* \"#utility.yul\":2440:2757   */\n  pop\n  pop\n    /* \"#utility.yul\":2364:2757   */\n  swap4\n  swap3\n  pop\n  pop\n  pop\n  jump\t// out\n    /* \"#utility.yul\":2763:2840   */\ntag_35:\n    /* \"#utility.yul\":2800:2807   */\n  0x00\n    /* \"#utility.yul\":2829:2834   */\n  dup2\n    /* \"#utility.yul\":2818:2834   */\n  swap1\n  pop\n    /* \"#utility.yul\":2763:2840   */\n  swap2\n  swap1\n  pop\n  jump\t// out\n    /* \"#utility.yul\":2846:2906   */\ntag_36:\n    /* \"#utility.yul\":2874:2877   */\n  0x00\n    /* \"#utility.yul\":2895:2900   */\n  dup2\n    /* \"#utility.yul\":2888:2900   */\n  swap1\n  pop\n    /* \"#utility.yul\":2846:2906   */\n  swap2\n  swap1\n  pop\n  jump\t// out\n    /* \"#utility.yul\":2912:3054   */\ntag_37:\n    /* \"#utility.yul\":2962:2971   */\n  0x00\n    /* \"#utility.yul\":2995:3048   */\n  tag_79\n    /* \"#utility.yul\":3013:3047   */\n  tag_80\n    /* \"#utility.yul\":3022:3046   */\n  tag_81\n    /* \"#utility.yul\":3040:3045   */\n  dup5\n    /* \"#utility.yul\":3022:3046   */\n  tag_35\n  jump\t// in\ntag_81:\n    /* \"#utility.yul\":3013:3047   */\n  tag_36\n  jump\t// in\ntag_80:\n    /* \"#utility.yul\":2995:3048   */\n  tag_35\n  jump\t// in\ntag_79:\n    /* \"#utility.yul\":2982:3048   */\n  swap1\n  pop\n    /* \"#utility.yul\":2912:3054   */\n  swap2\n  swap1\n  pop\n  jump\t// out\n    /* \"#utility.yul\":3060:3135   */\ntag_38:\n    /* \"#utility.yul\":3103:3106   */\n  0x00\n    /* \"#utility.yul\":3124:3129   */\n  dup2\n    /* \"#utility.yul\":3117:3129   */\n  swap1\n  pop\n    /* \"#utility.yul\":3060:3135   */\n  swap2\n  swap1\n  pop\n  jump\t// out\n    /* \"#utility.yul\":3141:3410   */\ntag_39:\n    /* \"#utility.yul\":3251:3290   */\n  tag_84\n    /* \"#utility.yul\":3282:3289   */\n  dup4\n    /* \"#utility.yul\":3251:3290   */\n  tag_37\n  jump\t// in\ntag_84:\n    /* \"#utility.yul\":3312:3403   */\n  tag_85\n    /* \"#utility.yul\":3361:3402   */\n  tag_86\n    /* \"#utility.yul\":3385:3401   */\n  dup3\n    /* \"#utility.yul\":3361:3402   */\n  tag_38\n  jump\t// in\ntag_86:\n    /* \"#utility.yul\":3353:3359   */\n  dup5\n    /* \"#utility.yul\":3346:3350   */\n  dup5\n    /* \"#utility.yul\":3340:3351   */\n  sload\n    /* \"#utility.yul\":3312:3403   */\n  tag_34\n  jump\t// in\ntag_85:\n    /* \"#utility.yul\":3306:3310   */\n  dup3\n    /* \"#utility.yul\":3299:3404   */\n  sstore\n    /* \"#utility.yul\":3217:3410   */\n  pop\n    /* \"#utility.yul\":3141:3410   */\n  pop\n  pop\n  pop\n  jump\t// out\n    /* \"#utility.yul\":3416:3489   */\ntag_40:\n    /* \"#utility.yul\":3461:3464   */\n  0x00\n    /* \"#utility.yul\":3416:3489   */\n  swap1\n  jump\t// out\n    /* \"#utility.yul\":3495:3684   */\ntag_41:\n    /* \"#utility.yul\":3572:3604   */\n  tag_89\n  tag_40\n  jump\t// in\ntag_89:\n    /* \"#utility.yul\":3613:3678   */\n  tag_90\n    /* \"#utility.yul\":3671:3677   */\n  dup2\n    /* \"#utility.yul\":3663:3669   */\n  dup5\n    /* \"#utility.yul\":3657:3661   */\n  dup5\n    /* \"#utility.yul\":3613:3678   */\n  tag_39\n  jump\t// in\ntag_90:\n    /* \"#utility.yul\":3548:3684   */\n  pop\n    /* \"#utility.yul\":3495:3684   */\n  pop\n  pop\n  jump\t// out\n    /* \"#utility.yul\":3690:3876   */\ntag_42:\n    /* \"#utility.yul\":3750:3870   */\ntag_92:\n    /* \"#utility.yul\":3767:3770   */\n  dup2\n    /* \"#utility.yul\":3760:3765   */\n  dup2\n    /* \"#utility.yul\":3757:3771   */\n  lt\n    /* \"#utility.yul\":3750:3870   */\n  iszero\n  tag_94\n  jumpi\n    /* \"#utility.yul\":3821:3860   */\n  tag_95\n    /* \"#utility.yul\":3858:3859   */\n  0x00\n    /* \"#utility.yul\":3851:3856   */\n  dup3\n    /* \"#utility.yul\":3821:3860   */\n  tag_41\n  jump\t// in\ntag_95:\n    /* \"#utility.yul\":3794:3795   */\n  0x01\n    /* \"#utility.yul\":3787:3792   */\n  dup2\n    /* \"#utility.yul\":3783:3796   */\n  add\n    /* \"#utility.yul\":3774:3796   */\n  swap1\n  pop\n    /* \"#utility.yul\":3750:3870   */\n  jump(tag_92)\ntag_94:\n    /* \"#utility.yul\":3690:3876   */\n  pop\n  pop\n  jump\t// out\n    /* \"#utility.yul\":3882:4425   */\ntag_43:\n    /* \"#utility.yul\":3983:3985   */\n  0x1f\n    /* \"#utility.yul\":3978:3981   */\n  dup3\n    /* \"#utility.yul\":3975:3986   */\n  gt\n    /* \"#utility.yul\":3972:4418   */\n  iszero\n  tag_97\n  jumpi\n    /* \"#utility.yul\":4017:4055   */\n  tag_98\n    /* \"#utility.yul\":4049:4054   */\n  dup2\n    /* \"#utility.yul\":4017:4055   */\n  tag_31\n  jump\t// in\ntag_98:\n    /* \"#utility.yul\":4101:4130   */\n  tag_99\n    /* \"#utility.yul\":4119:4129   */\n  dup5\n    /* \"#utility.yul\":4101:4130   */\n  tag_32\n  jump\t// in\ntag_99:\n    /* \"#utility.yul\":4091:4099   */\n  dup2\n    /* \"#utility.yul\":4087:4131   */\n  add\n    /* \"#utility.yul\":4284:4286   */\n  0x20\n    /* \"#utility.yul\":4272:4282   */\n  dup6\n    /* \"#utility.yul\":4269:4287   */\n  lt\n    /* \"#utility.yul\":4266:4315   */\n  iszero\n  tag_100\n  jumpi\n    /* \"#utility.yul\":4305:4313   */\n  dup2\n    /* \"#utility.yul\":4290:4313   */\n  swap1\n  pop\n    /* \"#utility.yul\":4266:4315   */\ntag_100:\n    /* \"#utility.yul\":4328:4408   */\n  tag_101\n    /* \"#utility.yul\":4384:4406   */\n  tag_102\n    /* \"#utility.yul\":4402:4405   */\n  dup6\n    /* \"#utility.yul\":4384:4406   */\n  tag_32\n  jump\t// in\ntag_102:\n    /* \"#utility.yul\":4374:4382   */\n  dup4\n    /* \"#utility.yul\":4370:4407   */\n  add\n    /* \"#utility.yul\":4357:4368   */\n  dup3\n    /* \"#utility.yul\":4328:4408   */\n  tag_42\n  jump\t// in\ntag_101:\n    /* \"#utility.yul\":3987:4418   */\n  pop\n  pop\n    /* \"#utility.yul\":3972:4418   */\ntag_97:\n    /* \"#utility.yul\":3882:4425   */\n  pop\n  pop\n  pop\n  jump\t// out\n    /* \"#utility.yul\":4431:4548   */\ntag_44:\n    /* \"#utility.yul\":4485:4493   */\n  0x00\n    /* \"#utility.yul\":4535:4540   */\n  dup3\n    /* \"#utility.yul\":4529:4533   */\n  dup3\n    /* \"#utility.yul\":4525:4541   */\n  shr\n    /* \"#utility.yul\":4504:4541   */\n  swap1\n  pop\n    /* \"#utility.yul\":4431:4548   */\n  swap3\n  swap2\n  pop\n  pop\n  jump\t// out\n    /* \"#utility.yul\":4554:4723   */\ntag_45:\n    /* \"#utility.yul\":4598:4604   */\n  0x00\n    /* \"#utility.yul\":4631:4682   */\n  tag_105\n    /* \"#utility.yul\":4679:4680   */\n  0x00\n    /* \"#utility.yul\":4675:4681   */\n  not\n    /* \"#utility.yul\":4667:4672   */\n  dup5\n    /* \"#utility.yul\":4664:4665   */\n  0x08\n    /* \"#utility.yul\":4660:4673   */\n  mul\n    /* \"#utility.yul\":4631:4682   */\n  tag_44\n  jump\t// in\ntag_105:\n    /* \"#utility.yul\":4627:4683   */\n  not\n    /* \"#utility.yul\":4712:4716   */\n  dup1\n    /* \"#utility.yul\":4706:4710   */\n  dup4\n    /* \"#utility.yul\":4702:4717   */\n  and\n    /* \"#utility.yul\":4692:4717   */\n  swap2\n  pop\n    /* \"#utility.yul\":4605:4723   */\n  pop\n    /* \"#utility.yul\":4554:4723   */\n  swap3\n  swap2\n  pop\n  pop\n  jump\t// out\n    /* \"#utility.yul\":4728:5023   */\ntag_46:\n    /* \"#utility.yul\":4804:4808   */\n  0x00\n    /* \"#utility.yul\":4950:4979   */\n  tag_107\n    /* \"#utility.yul\":4975:4978   */\n  dup4\n    /* \"#utility.yul\":4969:4973   */\n  dup4\n    /* \"#utility.yul\":4950:4979   */\n  tag_45\n  jump\t// in\ntag_107:\n    /* \"#utility.yul\":4942:4979   */\n  swap2\n  pop\n    /* \"#utility.yul\":5012:5015   */\n  dup3\n    /* \"#utility.yul\":5009:5010   */\n  0x02\n    /* \"#utility.yul\":5005:5016   */\n  mul\n    /* \"#utility.yul\":4999:5003   */\n  dup3\n    /* \"#utility.yul\":4996:5017   */\n  or\n    /* \"#utility.yul\":4988:5017   */\n  swap1\n  pop\n    /* \"#utility.yul\":4728:5023   */\n  swap3\n  swap2\n  pop\n  pop\n  jump\t// out\n    /* \"#utility.yul\":5028:6423   */\ntag_9:\n    /* \"#utility.yul\":5145:5182   */\n  tag_109\n    /* \"#utility.yul\":5178:5181   */\n  dup3\n    /* \"#utility.yul\":5145:5182   */\n  tag_27\n  jump\t// in\ntag_109:\n    /* \"#utility.yul\":5247:5265   */\n  0xffffffffffffffff\n    /* \"#utility.yul\":5239:5245   */\n  dup2\n    /* \"#utility.yul\":5236:5266   */\n  gt\n    /* \"#utility.yul\":5233:5289   */\n  iszero\n  tag_110\n  jumpi\n    /* \"#utility.yul\":5269:5287   */\n  tag_111\n  tag_28\n  jump\t// in\ntag_111:\n    /* \"#utility.yul\":5233:5289   */\ntag_110:\n    /* \"#utility.yul\":5313:5351   */\n  tag_112\n    /* \"#utility.yul\":5345:5349   */\n  dup3\n    /* \"#utility.yul\":5339:5350   */\n  sload\n    /* \"#utility.yul\":5313:5351   */\n  tag_30\n  jump\t// in\ntag_112:\n    /* \"#utility.yul\":5398:5465   */\n  tag_113\n    /* \"#utility.yul\":5458:5464   */\n  dup3\n    /* \"#utility.yul\":5450:5456   */\n  dup3\n    /* \"#utility.yul\":5444:5448   */\n  dup6\n    /* \"#utility.yul\":5398:5465   */\n  tag_43\n  jump\t// in\ntag_113:\n    /* \"#utility.yul\":5492:5493   */\n  0x00\n    /* \"#utility.yul\":5516:5520   */\n  0x20\n    /* \"#utility.yul\":5503:5520   */\n  swap1\n  pop\n    /* \"#utility.yul\":5548:5550   */\n  0x1f\n    /* \"#utility.yul\":5540:5546   */\n  dup4\n    /* \"#utility.yul\":5537:5551   */\n  gt\n    /* \"#utility.yul\":5565:5566   */\n  0x01\n    /* \"#utility.yul\":5560:6178   */\n  dup2\n  eq\n  tag_115\n  jumpi\n    /* \"#utility.yul\":6222:6223   */\n  0x00\n    /* \"#utility.yul\":6239:6245   */\n  dup5\n    /* \"#utility.yul\":6236:6313   */\n  iszero\n  tag_116\n  jumpi\n    /* \"#utility.yul\":6288:6297   */\n  dup3\n    /* \"#utility.yul\":6283:6286   */\n  dup8\n    /* \"#utility.yul\":6279:6298   */\n  add\n    /* \"#utility.yul\":6273:6299   */\n  mload\n    /* \"#utility.yul\":6264:6299   */\n  swap1\n  pop\n    /* \"#utility.yul\":6236:6313   */\ntag_116:\n    /* \"#utility.yul\":6339:6406   */\n  tag_117\n    /* \"#utility.yul\":6399:6405   */\n  dup6\n    /* \"#utility.yul\":6392:6397   */\n  dup3\n    /* \"#utility.yul\":6339:6406   */\n  tag_46\n  jump\t// in\ntag_117:\n    /* \"#utility.yul\":6333:6337   */\n  dup7\n    /* \"#utility.yul\":6326:6407   */\n  sstore\n    /* \"#utility.yul\":6195:6417   */\n  pop\n    /* \"#utility.yul\":5530:6417   */\n  jump(tag_114)\n    /* \"#utility.yul\":5560:6178   */\ntag_115:\n    /* \"#utility.yul\":5612:5616   */\n  0x1f\n    /* \"#utility.yul\":5608:5617   */\n  not\n    /* \"#utility.yul\":5600:5606   */\n  dup5\n    /* \"#utility.yul\":5596:5618   */\n  and\n    /* \"#utility.yul\":5646:5683   */\n  tag_118\n    /* \"#utility.yul\":5678:5682   */\n  dup7\n    /* \"#utility.yul\":5646:5683   */\n  tag_31\n  jump\t// in\ntag_118:\n    /* \"#utility.yul\":5705:5706   */\n  0x00\n    /* \"#utility.yul\":5719:5927   */\ntag_119:\n    /* \"#utility.yul\":5733:5740   */\n  dup3\n    /* \"#utility.yul\":5730:5731   */\n  dup2\n    /* \"#utility.yul\":5727:5741   */\n  lt\n    /* \"#utility.yul\":5719:5927   */\n  iszero\n  tag_121\n  jumpi\n    /* \"#utility.yul\":5812:5821   */\n  dup5\n    /* \"#utility.yul\":5807:5810   */\n  dup10\n    /* \"#utility.yul\":5803:5822   */\n  add\n    /* \"#utility.yul\":5797:5823   */\n  mload\n    /* \"#utility.yul\":5789:5795   */\n  dup3\n    /* \"#utility.yul\":5782:5824   */\n  sstore\n    /* \"#utility.yul\":5863:5864   */\n  0x01\n    /* \"#utility.yul\":5855:5861   */\n  dup3\n    /* \"#utility.yul\":5851:5865   */\n  add\n    /* \"#utility.yul\":5841:5865   */\n  swap2\n  pop\n    /* \"#utility.yul\":5910:5912   */\n  0x20\n    /* \"#utility.yul\":5899:5908   */\n  dup6\n    /* \"#utility.yul\":5895:5913   */\n  add\n    /* \"#utility.yul\":5882:5913   */\n  swap5\n  pop\n    /* \"#utility.yul\":5756:5760   */\n  0x20\n    /* \"#utility.yul\":5753:5754   */\n  dup2\n    /* \"#utility.yul\":5749:5761   */\n  add\n    /* \"#utility.yul\":5744:5761   */\n  swap1\n  pop\n    /* \"#utility.yul\":5719:5927   */\n  jump(tag_119)\ntag_121:\n    /* \"#utility.yul\":5955:5961   */\n  dup7\n    /* \"#utility.yul\":5946:5953   */\n  dup4\n    /* \"#utility.yul\":5943:5962   */\n  lt\n    /* \"#utility.yul\":5940:6119   */\n  iszero\n  tag_122\n  jumpi\n    /* \"#utility.yul\":6013:6022   */\n  dup5\n    /* \"#utility.yul\":6008:6011   */\n  dup10\n    /* \"#utility.yul\":6004:6023   */\n  add\n    /* \"#utility.yul\":5998:6024   */\n  mload\n    /* \"#utility.yul\":6056:6104   */\n  tag_123\n    /* \"#utility.yul\":6098:6102   */\n  0x1f\n    /* \"#utility.yul\":6090:6096   */\n  dup10\n    /* \"#utility.yul\":6086:6103   */\n  and\n    /* \"#utility.yul\":6075:6084   */\n  dup3\n    /* \"#utility.yul\":6056:6104   */\n  tag_45\n  jump\t// in\ntag_123:\n    /* \"#utility.yul\":6048:6054   */\n  dup4\n    /* \"#utility.yul\":6041:6105   */\n  sstore\n    /* \"#utility.yul\":5963:6119   */\n  pop\n    /* \"#utility.yul\":5940:6119   */\ntag_122:\n    /* \"#utility.yul\":6165:6166   */\n  0x01\n    /* \"#utility.yul\":6161:6162   */\n  0x02\n    /* \"#utility.yul\":6153:6159   */\n  dup9\n    /* \"#utility.yul\":6149:6163   */\n  mul\n    /* \"#utility.yul\":6145:6167   */\n  add\n    /* \"#utility.yul\":6139:6143   */\n  dup9\n    /* \"#utility.yul\":6132:6168   */\n  sstore\n    /* \"#utility.yul\":5567:6178   */\n  pop\n  pop\n  pop\n    /* \"#utility.yul\":5530:6417   */\ntag_114:\n  pop\n    /* \"#utility.yul\":5120:6423   */\n  pop\n  pop\n  pop\n    /* \"#utility.yul\":5028:6423   */\n  pop\n  pop\n  jump\t// out\n    /* \"contracts/Simplify/ssss.sol\":368:2267  contract ProductStore is ERC721, Ownable {... */\ntag_17:\n  dataSize(sub_0)\n  dup1\n  dataOffset(sub_0)\n  0x00\n  codecopy\n  0x00\n  return\nstop\n\nsub_0: assembly {\n        /* \"contracts/Simplify/ssss.sol\":368:2267  contract ProductStore is ERC721, Ownable {... */\n      mstore(0x40, 0x80)\n      callvalue\n      dup1\n      iszero\n      tag_1\n      jumpi\n      0x00\n      dup1\n      revert\n    tag_1:\n      pop\n      jumpi(tag_2, lt(calldatasize, 0x04))\n      shr(0xe0, calldataload(0x00))\n      dup1\n      0x8642269e\n      gt\n      tag_25\n      jumpi\n      dup1\n      0xb88d4fde\n      gt\n      tag_26\n      jumpi\n      dup1\n      0xb88d4fde\n      eq\n      tag_19\n      jumpi\n      dup1\n      0xc87b56dd\n      eq\n      tag_20\n      jumpi\n      dup1\n      0xcf2c0334\n      eq\n      tag_21\n      jumpi\n      dup1\n      0xe985e9c5\n      eq\n      tag_22\n      jumpi\n      dup1\n      0xf2fde38b\n      eq\n      tag_23\n      jumpi\n      dup1\n      0xfc0c546a\n      eq\n      tag_24\n      jumpi\n      jump(tag_2)\n    tag_26:\n      dup1\n      0x8642269e\n      eq\n      tag_14\n      jumpi\n      dup1\n      0x8da5cb5b\n      eq\n      tag_15\n      jumpi\n      dup1\n      0x95d89b41\n      eq\n      tag_16\n      jumpi\n      dup1\n      0xa22cb465\n      eq\n      tag_17\n      jumpi\n      dup1\n      0xb15247d9\n      eq\n      tag_18\n      jumpi\n      jump(tag_2)\n    tag_25:\n      dup1\n      0x42842e0e\n      gt\n      tag_27\n      jumpi\n      dup1\n      0x42842e0e\n      eq\n      tag_8\n      jumpi\n      dup1\n      0x5ba2530b\n      eq\n      tag_9\n      jumpi\n      dup1\n      0x6352211e\n      eq\n      tag_10\n      jumpi\n      dup1\n      0x70a08231\n      eq\n      tag_11\n      jumpi\n      dup1\n      0x715018a6\n      eq\n      tag_12\n      jumpi\n      dup1\n      0x7acc0b20\n      eq\n      tag_13\n      jumpi\n      jump(tag_2)\n    tag_27:\n      dup1\n      0x01ffc9a7\n      eq\n      tag_3\n      jumpi\n      dup1\n      0x06fdde03\n      eq\n      tag_4\n      jumpi\n      dup1\n      0x081812fc\n      eq\n      tag_5\n      jumpi\n      dup1\n      0x095ea7b3\n      eq\n      tag_6\n      jumpi\n      dup1\n      0x23b872dd\n      eq\n      tag_7\n      jumpi\n    tag_2:\n      0x00\n      dup1\n      revert\n        /* \"@openzeppelin/contracts/token/ERC721/ERC721.sol\":1561:1861  function supportsInterface(bytes4 interfaceId) public view virtual override(ERC165, IERC165) returns (bool) {... */\n    tag_3:\n      tag_28\n      0x04\n      dup1\n      calldatasize\n      sub\n      dup2\n      add\n      swap1\n      tag_29\n      swap2\n      swap1\n      tag_30\n      jump\t// in\n    tag_29:\n      tag_31\n      jump\t// in\n    tag_28:\n      mload(0x40)\n      tag_32\n      swap2\n      swap1\n      tag_33\n      jump\t// in\n    tag_32:\n      mload(0x40)\n      dup1\n      swap2\n      sub\n      swap1\n      return\n        /* \"@openzeppelin/contracts/token/ERC721/ERC721.sol\":2365:2454  function name() public view virtual returns (string memory) {... */\n    tag_4:\n      tag_34\n      tag_35\n      jump\t// in\n    tag_34:\n      mload(0x40)\n      tag_36\n      swap2\n      swap1\n      tag_37\n      jump\t// in\n    tag_36:\n      mload(0x40)\n      dup1\n      swap2\n      sub\n      swap1\n      return\n        /* \"@openzeppelin/contracts/token/ERC721/ERC721.sol\":3497:3651  function getApproved(uint256 tokenId) public view virtual returns (address) {... */\n    tag_5:\n      tag_38\n      0x04\n      dup1\n      calldatasize\n      sub\n      dup2\n      add\n      swap1\n      tag_39\n      swap2\n      swap1\n      tag_40\n      jump\t// in\n    tag_39:\n      tag_41\n      jump\t// in\n    tag_38:\n      mload(0x40)\n      tag_42\n      swap2\n      swap1\n      tag_43\n      jump\t// in\n    tag_42:\n      mload(0x40)\n      dup1\n      swap2\n      sub\n      swap1\n      return\n        /* \"@openzeppelin/contracts/token/ERC721/ERC721.sol\":3323:3436  function approve(address to, uint256 tokenId) public virtual {... */\n    tag_6:\n      tag_44\n      0x04\n      dup1\n      calldatasize\n      sub\n      dup2\n      add\n      swap1\n      tag_45\n      swap2\n      swap1\n      tag_46\n      jump\t// in\n    tag_45:\n      tag_47\n      jump\t// in\n    tag_44:\n      stop\n        /* \"@openzeppelin/contracts/token/ERC721/ERC721.sol\":4143:4721  function transferFrom(address from, address to, uint256 tokenId) public virtual {... */\n    tag_7:\n      tag_48\n      0x04\n      dup1\n      calldatasize\n      sub\n      dup2\n      add\n      swap1\n      tag_49\n      swap2\n      swap1\n      tag_50\n      jump\t// in\n    tag_49:\n      tag_51\n      jump\t// in\n    tag_48:\n      stop\n        /* \"@openzeppelin/contracts/token/ERC721/ERC721.sol\":4787:4919  function safeTransferFrom(address from, address to, uint256 tokenId) public {... */\n    tag_8:\n      tag_52\n      0x04\n      dup1\n      calldatasize\n      sub\n      dup2\n      add\n      swap1\n      tag_53\n      swap2\n      swap1\n      tag_50\n      jump\t// in\n    tag_53:\n      tag_54\n      jump\t// in\n    tag_52:\n      stop\n        /* \"contracts/Simplify/ssss.sol\":1919:2264  function getBillDetails(uint256 _billId) external view returns (string memory, uint256) {... */\n    tag_9:\n      tag_55\n      0x04\n      dup1\n      calldatasize\n      sub\n      dup2\n      add\n      swap1\n      tag_56\n      swap2\n      swap1\n      tag_40\n      jump\t// in\n    tag_56:\n      tag_57\n      jump\t// in\n    tag_55:\n      mload(0x40)\n      tag_58\n      swap3\n      swap2\n      swap1\n      tag_59\n      jump\t// in\n    tag_58:\n      mload(0x40)\n      dup1\n      swap2\n      sub\n      swap1\n      return\n        /* \"@openzeppelin/contracts/token/ERC721/ERC721.sol\":2185:2303  function ownerOf(uint256 tokenId) public view virtual returns (address) {... */\n    tag_10:\n      tag_60\n      0x04\n      dup1\n      calldatasize\n      sub\n      dup2\n      add\n      swap1\n      tag_61\n      swap2\n      swap1\n      tag_40\n      jump\t// in\n    tag_61:\n      tag_62\n      jump\t// in\n    tag_60:\n      mload(0x40)\n      tag_63\n      swap2\n      swap1\n      tag_43\n      jump\t// in\n    tag_63:\n      mload(0x40)\n      dup1\n      swap2\n      sub\n      swap1\n      return\n        /* \"@openzeppelin/contracts/token/ERC721/ERC721.sol\":1920:2128  function balanceOf(address owner) public view virtual returns (uint256) {... */\n    tag_11:\n      tag_64\n      0x04\n      dup1\n      calldatasize\n      sub\n      dup2\n      add\n      swap1\n      tag_65\n      swap2\n      swap1\n      tag_66\n      jump\t// in\n    tag_65:\n      tag_67\n      jump\t// in\n    tag_64:\n      mload(0x40)\n      tag_68\n      swap2\n      swap1\n      tag_69\n      jump\t// in\n    tag_68:\n      mload(0x40)\n      dup1\n      swap2\n      sub\n      swap1\n      return\n        /* \"@openzeppelin/contracts/access/Ownable.sol\":1824:1925  function renounceOwnership() public virtual onlyOwner {... */\n    tag_12:\n      tag_70\n      tag_71\n      jump\t// in\n    tag_70:\n      stop\n        /* \"contracts/Simplify/ssss.sol\":736:779  mapping(uint256 => Product) public products */\n    tag_13:\n      tag_72\n      0x04\n      dup1\n      calldatasize\n      sub\n      dup2\n      add\n      swap1\n      tag_73\n      swap2\n      swap1\n      tag_40\n      jump\t// in\n    tag_73:\n      tag_74\n      jump\t// in\n    tag_72:\n      mload(0x40)\n      tag_75\n      swap3\n      swap2\n      swap1\n      tag_59\n      jump\t// in\n    tag_75:\n      mload(0x40)\n      dup1\n      swap2\n      sub\n      swap1\n      return\n        /* \"contracts/Simplify/ssss.sol\":1212:1911  function buyProduct(uint256 _productId) external returns (uint256) {... */\n    tag_14:\n      tag_76\n      0x04\n      dup1\n      calldatasize\n      sub\n      dup2\n      add\n      swap1\n      tag_77\n      swap2\n      swap1\n      tag_40\n      jump\t// in\n    tag_77:\n      tag_78\n      jump\t// in\n    tag_76:\n      mload(0x40)\n      tag_79\n      swap2\n      swap1\n      tag_69\n      jump\t// in\n    tag_79:\n      mload(0x40)\n      dup1\n      swap2\n      sub\n      swap1\n      return\n        /* \"@openzeppelin/contracts/access/Ownable.sol\":1201:1286  function owner() public view virtual returns (address) {... */\n    tag_15:\n      tag_80\n      tag_81\n      jump\t// in\n    tag_80:\n      mload(0x40)\n      tag_82\n      swap2\n      swap1\n      tag_43\n      jump\t// in\n    tag_82:\n      mload(0x40)\n      dup1\n      swap2\n      sub\n      swap1\n      return\n        /* \"@openzeppelin/contracts/token/ERC721/ERC721.sol\":2518:2611  function symbol() public view virtual returns (string memory) {... */\n    tag_16:\n      tag_83\n      tag_84\n      jump\t// in\n    tag_83:\n      mload(0x40)\n      tag_85\n      swap2\n      swap1\n      tag_37\n      jump\t// in\n    tag_85:\n      mload(0x40)\n      dup1\n      swap2\n      sub\n      swap1\n      return\n        /* \"@openzeppelin/contracts/token/ERC721/ERC721.sol\":3718:3862  function setApprovalForAll(address operator, bool approved) public virtual {... */\n    tag_17:\n      tag_86\n      0x04\n      dup1\n      calldatasize\n      sub\n      dup2\n      add\n      swap1\n      tag_87\n      swap2\n      swap1\n      tag_88\n      jump\t// in\n    tag_87:\n      tag_89\n      jump\t// in\n    tag_86:\n      stop\n        /* \"contracts/Simplify/ssss.sol\":967:1204  function addProduct(string memory _name, uint256 _price) external onlyOwner {... */\n    tag_18:\n      tag_90\n      0x04\n      dup1\n      calldatasize\n      sub\n      dup2\n      add\n      swap1\n      tag_91\n      swap2\n      swap1\n      tag_92\n      jump\t// in\n    tag_91:\n      tag_93\n      jump\t// in\n    tag_90:\n      stop\n        /* \"@openzeppelin/contracts/token/ERC721/ERC721.sol\":4985:5193  function safeTransferFrom(address from, address to, uint256 tokenId, bytes memory data) public virtual {... */\n    tag_19:\n      tag_94\n      0x04\n      dup1\n      calldatasize\n      sub\n      dup2\n      add\n      swap1\n      tag_95\n      swap2\n      swap1\n      tag_96\n      jump\t// in\n    tag_95:\n      tag_97\n      jump\t// in\n    tag_94:\n      stop\n        /* \"@openzeppelin/contracts/token/ERC721/ERC721.sol\":2677:2932  function tokenURI(uint256 tokenId) public view virtual returns (string memory) {... */\n    tag_20:\n      tag_98\n      0x04\n      dup1\n      calldatasize\n      sub\n      dup2\n      add\n      swap1\n      tag_99\n      swap2\n      swap1\n      tag_40\n      jump\t// in\n    tag_99:\n      tag_100\n      jump\t// in\n    tag_98:\n      mload(0x40)\n      tag_101\n      swap2\n      swap1\n      tag_37\n      jump\t// in\n    tag_101:\n      mload(0x40)\n      dup1\n      swap2\n      sub\n      swap1\n      return\n        /* \"contracts/Simplify/ssss.sol\":786:836  mapping(address => uint256[]) public userPurchases */\n    tag_21:\n      tag_102\n      0x04\n      dup1\n      calldatasize\n      sub\n      dup2\n      add\n      swap1\n      tag_103\n      swap2\n      swap1\n      tag_46\n      jump\t// in\n    tag_103:\n      tag_104\n      jump\t// in\n    tag_102:\n      mload(0x40)\n      tag_105\n      swap2\n      swap1\n      tag_69\n      jump\t// in\n    tag_105:\n      mload(0x40)\n      dup1\n      swap2\n      sub\n      swap1\n      return\n        /* \"@openzeppelin/contracts/token/ERC721/ERC721.sol\":3928:4081  function isApprovedForAll(address owner, address operator) public view virtual returns (bool) {... */\n    tag_22:\n      tag_106\n      0x04\n      dup1\n      calldatasize\n      sub\n      dup2\n      add\n      swap1\n      tag_107\n      swap2\n      swap1\n      tag_108\n      jump\t// in\n    tag_107:\n      tag_109\n      jump\t// in\n    tag_106:\n      mload(0x40)\n      tag_110\n      swap2\n      swap1\n      tag_33\n      jump\t// in\n    tag_110:\n      mload(0x40)\n      dup1\n      swap2\n      sub\n      swap1\n      return\n        /* \"@openzeppelin/contracts/access/Ownable.sol\":2074:2272  function transferOwnership(address newOwner) public virtual onlyOwner {... */\n    tag_23:\n      tag_111\n      0x04\n      dup1\n      calldatasize\n      sub\n      dup2\n      add\n      swap1\n      tag_112\n      swap2\n      swap1\n      tag_66\n      jump\t// in\n    tag_112:\n      tag_113\n      jump\t// in\n    tag_111:\n      stop\n        /* \"contracts/Simplify/ssss.sol\":509:528  IERC20 public token */\n    tag_24:\n      tag_114\n      tag_115\n      jump\t// in\n    tag_114:\n      mload(0x40)\n      tag_116\n      swap2\n      swap1\n      tag_117\n      jump\t// in\n    tag_116:\n      mload(0x40)\n      dup1\n      swap2\n      sub\n      swap1\n      return\n        /* \"@openzeppelin/contracts/token/ERC721/ERC721.sol\":1561:1861  function supportsInterface(bytes4 interfaceId) public view virtual override(ERC165, IERC165) returns (bool) {... */\n    tag_31:\n        /* \"@openzeppelin/contracts/token/ERC721/ERC721.sol\":1663:1667  bool */\n      0x00\n        /* \"@openzeppelin/contracts/token/ERC721/ERC721.sol\":1713:1738  type(IERC721).interfaceId */\n      0x80ac58cd00000000000000000000000000000000000000000000000000000000\n        /* \"@openzeppelin/contracts/token/ERC721/ERC721.sol\":1698:1738  interfaceId == type(IERC721).interfaceId */\n      not(0xffffffffffffffffffffffffffffffffffffffffffffffffffffffff)\n      and\n        /* \"@openzeppelin/contracts/token/ERC721/ERC721.sol\":1698:1709  interfaceId */\n      dup3\n        /* \"@openzeppelin/contracts/token/ERC721/ERC721.sol\":1698:1738  interfaceId == type(IERC721).interfaceId */\n      not(0xffffffffffffffffffffffffffffffffffffffffffffffffffffffff)\n      and\n      eq\n        /* \"@openzeppelin/contracts/token/ERC721/ERC721.sol\":1698:1802  interfaceId == type(IERC721).interfaceId ||... */\n      dup1\n      tag_119\n      jumpi\n      pop\n        /* \"@openzeppelin/contracts/token/ERC721/ERC721.sol\":1769:1802  type(IERC721Metadata).interfaceId */\n      0x5b5e139f00000000000000000000000000000000000000000000000000000000\n        /* \"@openzeppelin/contracts/token/ERC721/ERC721.sol\":1754:1802  interfaceId == type(IERC721Metadata).interfaceId */\n      not(0xffffffffffffffffffffffffffffffffffffffffffffffffffffffff)\n      and\n        /* \"@openzeppelin/contracts/token/ERC721/ERC721.sol\":1754:1765  interfaceId */\n      dup3\n        /* \"@openzeppelin/contracts/token/ERC721/ERC721.sol\":1754:1802  interfaceId == type(IERC721Metadata).interfaceId */\n      not(0xffffffffffffffffffffffffffffffffffffffffffffffffffffffff)\n      and\n      eq\n        /* \"@openzeppelin/contracts/token/ERC721/ERC721.sol\":1698:1802  interfaceId == type(IERC721).interfaceId ||... */\n    tag_119:\n        /* \"@openzeppelin/contracts/token/ERC721/ERC721.sol\":1698:1854  interfaceId == type(IERC721).interfaceId ||... */\n      dup1\n      tag_120\n      jumpi\n      pop\n        /* \"@openzeppelin/contracts/token/ERC721/ERC721.sol\":1818:1854  super.supportsInterface(interfaceId) */\n      tag_121\n        /* \"@openzeppelin/contracts/token/ERC721/ERC721.sol\":1842:1853  interfaceId */\n      dup3\n        /* \"@openzeppelin/contracts/token/ERC721/ERC721.sol\":1818:1841  super.supportsInterface */\n      tag_122\n        /* \"@openzeppelin/contracts/token/ERC721/ERC721.sol\":1818:1854  super.supportsInterface(interfaceId) */\n      jump\t// in\n    tag_121:\n        /* \"@openzeppelin/contracts/token/ERC721/ERC721.sol\":1698:1854  interfaceId == type(IERC721).interfaceId ||... */\n    tag_120:\n        /* \"@openzeppelin/contracts/token/ERC721/ERC721.sol\":1679:1854  return... */\n      swap1\n      pop\n        /* \"@openzeppelin/contracts/token/ERC721/ERC721.sol\":1561:1861  function supportsInterface(bytes4 interfaceId) public view virtual override(ERC165, IERC165) returns (bool) {... */\n      swap2\n      swap1\n      pop\n      jump\t// out\n        /* \"@openzeppelin/contracts/token/ERC721/ERC721.sol\":2365:2454  function name() public view virtual returns (string memory) {... */\n    tag_35:\n        /* \"@openzeppelin/contracts/token/ERC721/ERC721.sol\":2410:2423  string memory */\n      0x60\n        /* \"@openzeppelin/contracts/token/ERC721/ERC721.sol\":2442:2447  _name */\n      0x00\n        /* \"@openzeppelin/contracts/token/ERC721/ERC721.sol\":2435:2447  return _name */\n      dup1\n      sload\n      tag_124\n      swap1\n      tag_125\n      jump\t// in\n    tag_124:\n      dup1\n      0x1f\n      add\n      0x20\n      dup1\n      swap2\n      div\n      mul\n      0x20\n      add\n      mload(0x40)\n      swap1\n      dup2\n      add\n      0x40\n      mstore\n      dup1\n      swap3\n      swap2\n      swap1\n      dup2\n      dup2\n      mstore\n      0x20\n      add\n      dup3\n      dup1\n      sload\n      tag_126\n      swap1\n      tag_125\n      jump\t// in\n    tag_126:\n      dup1\n      iszero\n      tag_127\n      jumpi\n      dup1\n      0x1f\n      lt\n      tag_128\n      jumpi\n      0x0100\n      dup1\n      dup4\n      sload\n      div\n      mul\n      dup4\n      mstore\n      swap2\n      0x20\n      add\n      swap2\n      jump(tag_127)\n    tag_128:\n      dup3\n      add\n      swap2\n      swap1\n      0x00\n      mstore\n      keccak256(0x00, 0x20)\n      swap1\n    tag_129:\n      dup2\n      sload\n      dup2\n      mstore\n      swap1\n      0x01\n      add\n      swap1\n      0x20\n      add\n      dup1\n      dup4\n      gt\n      tag_129\n      jumpi\n      dup3\n      swap1\n      sub\n      0x1f\n      and\n      dup3\n      add\n      swap2\n    tag_127:\n      pop\n      pop\n      pop\n      pop\n      pop\n      swap1\n      pop\n        /* \"@openzeppelin/contracts/token/ERC721/ERC721.sol\":2365:2454  function name() public view virtual returns (string memory) {... */\n      swap1\n      jump\t// out\n        /* \"@openzeppelin/contracts/token/ERC721/ERC721.sol\":3497:3651  function getApproved(uint256 tokenId) public view virtual returns (address) {... */\n    tag_41:\n        /* \"@openzeppelin/contracts/token/ERC721/ERC721.sol\":3564:3571  address */\n      0x00\n        /* \"@openzeppelin/contracts/token/ERC721/ERC721.sol\":3583:3605  _requireOwned(tokenId) */\n      tag_131\n        /* \"@openzeppelin/contracts/token/ERC721/ERC721.sol\":3597:3604  tokenId */\n      dup3\n        /* \"@openzeppelin/contracts/token/ERC721/ERC721.sol\":3583:3596  _requireOwned */\n      tag_132\n        /* \"@openzeppelin/contracts/token/ERC721/ERC721.sol\":3583:3605  _requireOwned(tokenId) */\n      jump\t// in\n    tag_131:\n      pop\n        /* \"@openzeppelin/contracts/token/ERC721/ERC721.sol\":3623:3644  _getApproved(tokenId) */\n      tag_133\n        /* \"@openzeppelin/contracts/token/ERC721/ERC721.sol\":3636:3643  tokenId */\n      dup3\n        /* \"@openzeppelin/contracts/token/ERC721/ERC721.sol\":3623:3635  _getApproved */\n      tag_134\n        /* \"@openzeppelin/contracts/token/ERC721/ERC721.sol\":3623:3644  _getApproved(tokenId) */\n      jump\t// in\n    tag_133:\n        /* \"@openzeppelin/contracts/token/ERC721/ERC721.sol\":3616:3644  return _getApproved(tokenId) */\n      swap1\n      pop\n        /* \"@openzeppelin/contracts/token/ERC721/ERC721.sol\":3497:3651  function getApproved(uint256 tokenId) public view virtual returns (address) {... */\n      swap2\n      swap1\n      pop\n      jump\t// out\n        /* \"@openzeppelin/contracts/token/ERC721/ERC721.sol\":3323:3436  function approve(address to, uint256 tokenId) public virtual {... */\n    tag_47:\n        /* \"@openzeppelin/contracts/token/ERC721/ERC721.sol\":3394:3429  _approve(to, tokenId, _msgSender()) */\n      tag_136\n        /* \"@openzeppelin/contracts/token/ERC721/ERC721.sol\":3403:3405  to */\n      dup3\n        /* \"@openzeppelin/contracts/token/ERC721/ERC721.sol\":3407:3414  tokenId */\n      dup3\n        /* \"@openzeppelin/contracts/token/ERC721/ERC721.sol\":3416:3428  _msgSender() */\n      tag_137\n        /* \"@openzeppelin/contracts/token/ERC721/ERC721.sol\":3416:3426  _msgSender */\n      tag_138\n        /* \"@openzeppelin/contracts/token/ERC721/ERC721.sol\":3416:3428  _msgSender() */\n      jump\t// in\n    tag_137:\n        /* \"@openzeppelin/contracts/token/ERC721/ERC721.sol\":3394:3402  _approve */\n      tag_139\n        /* \"@openzeppelin/contracts/token/ERC721/ERC721.sol\":3394:3429  _approve(to, tokenId, _msgSender()) */\n      jump\t// in\n    tag_136:\n        /* \"@openzeppelin/contracts/token/ERC721/ERC721.sol\":3323:3436  function approve(address to, uint256 tokenId) public virtual {... */\n      pop\n      pop\n      jump\t// out\n        /* \"@openzeppelin/contracts/token/ERC721/ERC721.sol\":4143:4721  function transferFrom(address from, address to, uint256 tokenId) public virtual {... */\n    tag_51:\n        /* \"@openzeppelin/contracts/token/ERC721/ERC721.sol\":4251:4252  0 */\n      0x00\n        /* \"@openzeppelin/contracts/token/ERC721/ERC721.sol\":4237:4253  to == address(0) */\n      0xffffffffffffffffffffffffffffffffffffffff\n      and\n        /* \"@openzeppelin/contracts/token/ERC721/ERC721.sol\":4237:4239  to */\n      dup3\n        /* \"@openzeppelin/contracts/token/ERC721/ERC721.sol\":4237:4253  to == address(0) */\n      0xffffffffffffffffffffffffffffffffffffffff\n      and\n      sub\n        /* \"@openzeppelin/contracts/token/ERC721/ERC721.sol\":4233:4320  if (to == address(0)) {... */\n      tag_141\n      jumpi\n        /* \"@openzeppelin/contracts/token/ERC721/ERC721.sol\":4306:4307  0 */\n      0x00\n        /* \"@openzeppelin/contracts/token/ERC721/ERC721.sol\":4276:4309  ERC721InvalidReceiver(address(0)) */\n      mload(0x40)\n      0x64a0ae9200000000000000000000000000000000000000000000000000000000\n      dup2\n      mstore\n      0x04\n      add\n      tag_142\n      swap2\n      swap1\n      tag_43\n      jump\t// in\n    tag_142:\n      mload(0x40)\n      dup1\n      swap2\n      sub\n      swap1\n      revert\n        /* \"@openzeppelin/contracts/token/ERC721/ERC721.sol\":4233:4320  if (to == address(0)) {... */\n    tag_141:\n        /* \"@openzeppelin/contracts/token/ERC721/ERC721.sol\":4538:4559  address previousOwner */\n      0x00\n        /* \"@openzeppelin/contracts/token/ERC721/ERC721.sol\":4562:4596  _update(to, tokenId, _msgSender()) */\n      tag_143\n        /* \"@openzeppelin/contracts/token/ERC721/ERC721.sol\":4570:4572  to */\n      dup4\n        /* \"@openzeppelin/contracts/token/ERC721/ERC721.sol\":4574:4581  tokenId */\n      dup4\n        /* \"@openzeppelin/contracts/token/ERC721/ERC721.sol\":4583:4595  _msgSender() */\n      tag_144\n        /* \"@openzeppelin/contracts/token/ERC721/ERC721.sol\":4583:4593  _msgSender */\n      tag_138\n        /* \"@openzeppelin/contracts/token/ERC721/ERC721.sol\":4583:4595  _msgSender() */\n      jump\t// in\n    tag_144:\n        /* \"@openzeppelin/contracts/token/ERC721/ERC721.sol\":4562:4569  _update */\n      tag_145\n        /* \"@openzeppelin/contracts/token/ERC721/ERC721.sol\":4562:4596  _update(to, tokenId, _msgSender()) */\n      jump\t// in\n    tag_143:\n        /* \"@openzeppelin/contracts/token/ERC721/ERC721.sol\":4538:4596  address previousOwner = _update(to, tokenId, _msgSender()) */\n      swap1\n      pop\n        /* \"@openzeppelin/contracts/token/ERC721/ERC721.sol\":4627:4631  from */\n      dup4\n        /* \"@openzeppelin/contracts/token/ERC721/ERC721.sol\":4610:4631  previousOwner != from */\n      0xffffffffffffffffffffffffffffffffffffffff\n      and\n        /* \"@openzeppelin/contracts/token/ERC721/ERC721.sol\":4610:4623  previousOwner */\n      dup2\n        /* \"@openzeppelin/contracts/token/ERC721/ERC721.sol\":4610:4631  previousOwner != from */\n      0xffffffffffffffffffffffffffffffffffffffff\n      and\n      eq\n        /* \"@openzeppelin/contracts/token/ERC721/ERC721.sol\":4606:4715  if (previousOwner != from) {... */\n      tag_146\n      jumpi\n        /* \"@openzeppelin/contracts/token/ERC721/ERC721.sol\":4675:4679  from */\n      dup4\n        /* \"@openzeppelin/contracts/token/ERC721/ERC721.sol\":4681:4688  tokenId */\n      dup3\n        /* \"@openzeppelin/contracts/token/ERC721/ERC721.sol\":4690:4703  previousOwner */\n      dup3\n        /* \"@openzeppelin/contracts/token/ERC721/ERC721.sol\":4654:4704  ERC721IncorrectOwner(from, tokenId, previousOwner) */\n      mload(0x40)\n      0x64283d7b00000000000000000000000000000000000000000000000000000000\n      dup2\n      mstore\n      0x04\n      add\n      tag_147\n      swap4\n      swap3\n      swap2\n      swap1\n      tag_148\n      jump\t// in\n    tag_147:\n      mload(0x40)\n      dup1\n      swap2\n      sub\n      swap1\n      revert\n        /* \"@openzeppelin/contracts/token/ERC721/ERC721.sol\":4606:4715  if (previousOwner != from) {... */\n    tag_146:\n        /* \"@openzeppelin/contracts/token/ERC721/ERC721.sol\":4223:4721  {... */\n      pop\n        /* \"@openzeppelin/contracts/token/ERC721/ERC721.sol\":4143:4721  function transferFrom(address from, address to, uint256 tokenId) public virtual {... */\n      pop\n      pop\n      pop\n      jump\t// out\n        /* \"@openzeppelin/contracts/token/ERC721/ERC721.sol\":4787:4919  function safeTransferFrom(address from, address to, uint256 tokenId) public {... */\n    tag_54:\n        /* \"@openzeppelin/contracts/token/ERC721/ERC721.sol\":4873:4912  safeTransferFrom(from, to, tokenId, \"\") */\n      tag_150\n        /* \"@openzeppelin/contracts/token/ERC721/ERC721.sol\":4890:4894  from */\n      dup4\n        /* \"@openzeppelin/contracts/token/ERC721/ERC721.sol\":4896:4898  to */\n      dup4\n        /* \"@openzeppelin/contracts/token/ERC721/ERC721.sol\":4900:4907  tokenId */\n      dup4\n        /* \"@openzeppelin/contracts/token/ERC721/ERC721.sol\":4873:4912  safeTransferFrom(from, to, tokenId, \"\") */\n      mload(0x40)\n      dup1\n      0x20\n      add\n      0x40\n      mstore\n      dup1\n      0x00\n      dup2\n      mstore\n      pop\n        /* \"@openzeppelin/contracts/token/ERC721/ERC721.sol\":4873:4889  safeTransferFrom */\n      tag_97\n        /* \"@openzeppelin/contracts/token/ERC721/ERC721.sol\":4873:4912  safeTransferFrom(from, to, tokenId, \"\") */\n      jump\t// in\n    tag_150:\n        /* \"@openzeppelin/contracts/token/ERC721/ERC721.sol\":4787:4919  function safeTransferFrom(address from, address to, uint256 tokenId) public {... */\n      pop\n      pop\n      pop\n      jump\t// out\n        /* \"contracts/Simplify/ssss.sol\":1919:2264  function getBillDetails(uint256 _billId) external view returns (string memory, uint256) {... */\n    tag_57:\n        /* \"contracts/Simplify/ssss.sol\":1983:1996  string memory */\n      0x60\n        /* \"contracts/Simplify/ssss.sol\":1998:2005  uint256 */\n      0x00\n        /* \"contracts/Simplify/ssss.sol\":2036:2063  _productIdCounter.current() */\n      tag_152\n        /* \"contracts/Simplify/ssss.sol\":2036:2053  _productIdCounter */\n      0x07\n        /* \"contracts/Simplify/ssss.sol\":2036:2061  _productIdCounter.current */\n      tag_153\n        /* \"contracts/Simplify/ssss.sol\":2036:2063  _productIdCounter.current() */\n      jump\t// in\n    tag_152:\n        /* \"contracts/Simplify/ssss.sol\":2026:2033  _billId */\n      dup4\n        /* \"contracts/Simplify/ssss.sol\":2026:2063  _billId < _productIdCounter.current() */\n      lt\n        /* \"contracts/Simplify/ssss.sol\":2018:2087  require(_billId < _productIdCounter.current(), \"Bill does not exist\") */\n      tag_154\n      jumpi\n      mload(0x40)\n      0x08c379a000000000000000000000000000000000000000000000000000000000\n      dup2\n      mstore\n      0x04\n      add\n      tag_155\n      swap1\n      tag_156\n      jump\t// in\n    tag_155:\n      mload(0x40)\n      dup1\n      swap2\n      sub\n      swap1\n      revert\n    tag_154:\n        /* \"contracts/Simplify/ssss.sol\":2166:2189  Product storage product */\n      0x00\n        /* \"contracts/Simplify/ssss.sol\":2192:2200  products */\n      0x09\n        /* \"contracts/Simplify/ssss.sol\":2192:2209  products[_billId] */\n      0x00\n        /* \"contracts/Simplify/ssss.sol\":2201:2208  _billId */\n      dup6\n        /* \"contracts/Simplify/ssss.sol\":2192:2209  products[_billId] */\n      dup2\n      mstore\n      0x20\n      add\n      swap1\n      dup2\n      mstore\n      0x20\n      add\n      0x00\n      keccak256\n        /* \"contracts/Simplify/ssss.sol\":2166:2209  Product storage product = products[_billId] */\n      swap1\n      pop\n        /* \"contracts/Simplify/ssss.sol\":2228:2235  product */\n      dup1\n        /* \"contracts/Simplify/ssss.sol\":2228:2240  product.name */\n      0x00\n      add\n        /* \"contracts/Simplify/ssss.sol\":2242:2249  product */\n      dup2\n        /* \"contracts/Simplify/ssss.sol\":2242:2255  product.price */\n      0x01\n      add\n      sload\n        /* \"contracts/Simplify/ssss.sol\":2220:2256  return (product.name, product.price) */\n      dup2\n      dup1\n      sload\n      tag_157\n      swap1\n      tag_125\n      jump\t// in\n    tag_157:\n      dup1\n      0x1f\n      add\n      0x20\n      dup1\n      swap2\n      div\n      mul\n      0x20\n      add\n      mload(0x40)\n      swap1\n      dup2\n      add\n      0x40\n      mstore\n      dup1\n      swap3\n      swap2\n      swap1\n      dup2\n      dup2\n      mstore\n      0x20\n      add\n      dup3\n      dup1\n      sload\n      tag_158\n      swap1\n      tag_125\n      jump\t// in\n    tag_158:\n      dup1\n      iszero\n      tag_159\n      jumpi\n      dup1\n      0x1f\n      lt\n      tag_160\n      jumpi\n      0x0100\n      dup1\n      dup4\n      sload\n      div\n      mul\n      dup4\n      mstore\n      swap2\n      0x20\n      add\n      swap2\n      jump(tag_159)\n    tag_160:\n      dup3\n      add\n      swap2\n      swap1\n      0x00\n      mstore\n      keccak256(0x00, 0x20)\n      swap1\n    tag_161:\n      dup2\n      sload\n      dup2\n      mstore\n      swap1\n      0x01\n      add\n      swap1\n      0x20\n      add\n      dup1\n      dup4\n      gt\n      tag_161\n      jumpi\n      dup3\n      swap1\n      sub\n      0x1f\n      and\n      dup3\n      add\n      swap2\n    tag_159:\n      pop\n      pop\n      pop\n      pop\n      pop\n      swap2\n      pop\n      swap3\n      pop\n      swap3\n      pop\n      pop\n        /* \"contracts/Simplify/ssss.sol\":1919:2264  function getBillDetails(uint256 _billId) external view returns (string memory, uint256) {... */\n      swap2\n      pop\n      swap2\n      jump\t// out\n        /* \"@openzeppelin/contracts/token/ERC721/ERC721.sol\":2185:2303  function ownerOf(uint256 tokenId) public view virtual returns (address) {... */\n    tag_62:\n        /* \"@openzeppelin/contracts/token/ERC721/ERC721.sol\":2248:2255  address */\n      0x00\n        /* \"@openzeppelin/contracts/token/ERC721/ERC721.sol\":2274:2296  _requireOwned(tokenId) */\n      tag_163\n        /* \"@openzeppelin/contracts/token/ERC721/ERC721.sol\":2288:2295  tokenId */\n      dup3\n        /* \"@openzeppelin/contracts/token/ERC721/ERC721.sol\":2274:2287  _requireOwned */\n      tag_132\n        /* \"@openzeppelin/contracts/token/ERC721/ERC721.sol\":2274:2296  _requireOwned(tokenId) */\n      jump\t// in\n    tag_163:\n        /* \"@openzeppelin/contracts/token/ERC721/ERC721.sol\":2267:2296  return _requireOwned(tokenId) */\n      swap1\n      pop\n        /* \"@openzeppelin/contracts/token/ERC721/ERC721.sol\":2185:2303  function ownerOf(uint256 tokenId) public view virtual returns (address) {... */\n      swap2\n      swap1\n      pop\n      jump\t// out\n        /* \"@openzeppelin/contracts/token/ERC721/ERC721.sol\":1920:2128  function balanceOf(address owner) public view virtual returns (uint256) {... */\n    tag_67:\n        /* \"@openzeppelin/contracts/token/ERC721/ERC721.sol\":1983:1990  uint256 */\n      0x00\n        /* \"@openzeppelin/contracts/token/ERC721/ERC721.sol\":2023:2024  0 */\n      dup1\n        /* \"@openzeppelin/contracts/token/ERC721/ERC721.sol\":2006:2025  owner == address(0) */\n      0xffffffffffffffffffffffffffffffffffffffff\n      and\n        /* \"@openzeppelin/contracts/token/ERC721/ERC721.sol\":2006:2011  owner */\n      dup3\n        /* \"@openzeppelin/contracts/token/ERC721/ERC721.sol\":2006:2025  owner == address(0) */\n      0xffffffffffffffffffffffffffffffffffffffff\n      and\n      sub\n        /* \"@openzeppelin/contracts/token/ERC721/ERC721.sol\":2002:2089  if (owner == address(0)) {... */\n      tag_165\n      jumpi\n        /* \"@openzeppelin/contracts/token/ERC721/ERC721.sol\":2075:2076  0 */\n      0x00\n        /* \"@openzeppelin/contracts/token/ERC721/ERC721.sol\":2048:2078  ERC721InvalidOwner(address(0)) */\n      mload(0x40)\n      0x89c62b6400000000000000000000000000000000000000000000000000000000\n      dup2\n      mstore\n      0x04\n      add\n      tag_166\n      swap2\n      swap1\n      tag_43\n      jump\t// in\n    tag_166:\n      mload(0x40)\n      dup1\n      swap2\n      sub\n      swap1\n      revert\n        /* \"@openzeppelin/contracts/token/ERC721/ERC721.sol\":2002:2089  if (owner == address(0)) {... */\n    tag_165:\n        /* \"@openzeppelin/contracts/token/ERC721/ERC721.sol\":2105:2114  _balances */\n      0x03\n        /* \"@openzeppelin/contracts/token/ERC721/ERC721.sol\":2105:2121  _balances[owner] */\n      0x00\n        /* \"@openzeppelin/contracts/token/ERC721/ERC721.sol\":2115:2120  owner */\n      dup4\n        /* \"@openzeppelin/contracts/token/ERC721/ERC721.sol\":2105:2121  _balances[owner] */\n      0xffffffffffffffffffffffffffffffffffffffff\n      and\n      0xffffffffffffffffffffffffffffffffffffffff\n      and\n      dup2\n      mstore\n      0x20\n      add\n      swap1\n      dup2\n      mstore\n      0x20\n      add\n      0x00\n      keccak256\n      sload\n        /* \"@openzeppelin/contracts/token/ERC721/ERC721.sol\":2098:2121  return _balances[owner] */\n      swap1\n      pop\n        /* \"@openzeppelin/contracts/token/ERC721/ERC721.sol\":1920:2128  function balanceOf(address owner) public view virtual returns (uint256) {... */\n      swap2\n      swap1\n      pop\n      jump\t// out\n        /* \"@openzeppelin/contracts/access/Ownable.sol\":1824:1925  function renounceOwnership() public virtual onlyOwner {... */\n    tag_71:\n        /* \"@openzeppelin/contracts/access/Ownable.sol\":1094:1107  _checkOwner() */\n      tag_168\n        /* \"@openzeppelin/contracts/access/Ownable.sol\":1094:1105  _checkOwner */\n      tag_169\n        /* \"@openzeppelin/contracts/access/Ownable.sol\":1094:1107  _checkOwner() */\n      jump\t// in\n    tag_168:\n        /* \"@openzeppelin/contracts/access/Ownable.sol\":1888:1918  _transferOwnership(address(0)) */\n      tag_171\n        /* \"@openzeppelin/contracts/access/Ownable.sol\":1915:1916  0 */\n      0x00\n        /* \"@openzeppelin/contracts/access/Ownable.sol\":1888:1906  _transferOwnership */\n      tag_172\n        /* \"@openzeppelin/contracts/access/Ownable.sol\":1888:1918  _transferOwnership(address(0)) */\n      jump\t// in\n    tag_171:\n        /* \"@openzeppelin/contracts/access/Ownable.sol\":1824:1925  function renounceOwnership() public virtual onlyOwner {... */\n      jump\t// out\n        /* \"contracts/Simplify/ssss.sol\":736:779  mapping(uint256 => Product) public products */\n    tag_74:\n      mstore(0x20, 0x09)\n      dup1\n      0x00\n      mstore\n      keccak256(0x00, 0x40)\n      0x00\n      swap2\n      pop\n      swap1\n      pop\n      dup1\n      0x00\n      add\n      dup1\n      sload\n      tag_173\n      swap1\n      tag_125\n      jump\t// in\n    tag_173:\n      dup1\n      0x1f\n      add\n      0x20\n      dup1\n      swap2\n      div\n      mul\n      0x20\n      add\n      mload(0x40)\n      swap1\n      dup2\n      add\n      0x40\n      mstore\n      dup1\n      swap3\n      swap2\n      swap1\n      dup2\n      dup2\n      mstore\n      0x20\n      add\n      dup3\n      dup1\n      sload\n      tag_174\n      swap1\n      tag_125\n      jump\t// in\n    tag_174:\n      dup1\n      iszero\n      tag_175\n      jumpi\n      dup1\n      0x1f\n      lt\n      tag_176\n      jumpi\n      0x0100\n      dup1\n      dup4\n      sload\n      div\n      mul\n      dup4\n      mstore\n      swap2\n      0x20\n      add\n      swap2\n      jump(tag_175)\n    tag_176:\n      dup3\n      add\n      swap2\n      swap1\n      0x00\n      mstore\n      keccak256(0x00, 0x20)\n      swap1\n    tag_177:\n      dup2\n      sload\n      dup2\n      mstore\n      swap1\n      0x01\n      add\n      swap1\n      0x20\n      add\n      dup1\n      dup4\n      gt\n      tag_177\n      jumpi\n      dup3\n      swap1\n      sub\n      0x1f\n      and\n      dup3\n      add\n      swap2\n    tag_175:\n      pop\n      pop\n      pop\n      pop\n      pop\n      swap1\n      dup1\n      0x01\n      add\n      sload\n      swap1\n      pop\n      dup3\n      jump\t// out\n        /* \"contracts/Simplify/ssss.sol\":1212:1911  function buyProduct(uint256 _productId) external returns (uint256) {... */\n    tag_78:\n        /* \"contracts/Simplify/ssss.sol\":1270:1277  uint256 */\n      0x00\n        /* \"contracts/Simplify/ssss.sol\":1290:1313  Product storage product */\n      dup1\n        /* \"contracts/Simplify/ssss.sol\":1316:1324  products */\n      0x09\n        /* \"contracts/Simplify/ssss.sol\":1316:1336  products[_productId] */\n      0x00\n        /* \"contracts/Simplify/ssss.sol\":1325:1335  _productId */\n      dup5\n        /* \"contracts/Simplify/ssss.sol\":1316:1336  products[_productId] */\n      dup2\n      mstore\n      0x20\n      add\n      swap1\n      dup2\n      mstore\n      0x20\n      add\n      0x00\n      keccak256\n        /* \"contracts/Simplify/ssss.sol\":1290:1336  Product storage product = products[_productId] */\n      swap1\n      pop\n        /* \"contracts/Simplify/ssss.sol\":1426:1427  0 */\n      0x00\n        /* \"contracts/Simplify/ssss.sol\":1403:1410  product */\n      dup2\n        /* \"contracts/Simplify/ssss.sol\":1403:1415  product.name */\n      0x00\n      add\n        /* \"contracts/Simplify/ssss.sol\":1397:1423  bytes(product.name).length */\n      dup1\n      sload\n      tag_179\n      swap1\n      tag_125\n      jump\t// in\n    tag_179:\n      swap1\n      pop\n        /* \"contracts/Simplify/ssss.sol\":1397:1427  bytes(product.name).length > 0 */\n      gt\n        /* \"contracts/Simplify/ssss.sol\":1389:1454  require(bytes(product.name).length > 0, \"Product does not exist\") */\n      tag_180\n      jumpi\n      mload(0x40)\n      0x08c379a000000000000000000000000000000000000000000000000000000000\n      dup2\n      mstore\n      0x04\n      add\n      tag_181\n      swap1\n      tag_182\n      jump\t// in\n    tag_181:\n      mload(0x40)\n      dup1\n      swap2\n      sub\n      swap1\n      revert\n    tag_180:\n        /* \"contracts/Simplify/ssss.sol\":1511:1516  token */\n      0x08\n      0x00\n      swap1\n      sload\n      swap1\n      0x0100\n      exp\n      swap1\n      div\n      0xffffffffffffffffffffffffffffffffffffffff\n      and\n        /* \"contracts/Simplify/ssss.sol\":1511:1529  token.transferFrom */\n      0xffffffffffffffffffffffffffffffffffffffff\n      and\n      0x23b872dd\n        /* \"contracts/Simplify/ssss.sol\":1530:1540  msg.sender */\n      caller\n        /* \"contracts/Simplify/ssss.sol\":1542:1549  owner() */\n      tag_183\n        /* \"contracts/Simplify/ssss.sol\":1542:1547  owner */\n      tag_81\n        /* \"contracts/Simplify/ssss.sol\":1542:1549  owner() */\n      jump\t// in\n    tag_183:\n        /* \"contracts/Simplify/ssss.sol\":1551:1558  product */\n      dup5\n        /* \"contracts/Simplify/ssss.sol\":1551:1564  product.price */\n      0x01\n      add\n      sload\n        /* \"contracts/Simplify/ssss.sol\":1511:1565  token.transferFrom(msg.sender, owner(), product.price) */\n      mload(0x40)\n      dup5\n      0xffffffff\n      and\n      0xe0\n      shl\n      dup2\n      mstore\n      0x04\n      add\n      tag_184\n      swap4\n      swap3\n      swap2\n      swap1\n      tag_185\n      jump\t// in\n    tag_184:\n      0x20\n      mload(0x40)\n      dup1\n      dup4\n      sub\n      dup2\n      0x00\n      dup8\n      gas\n      call\n      iszero\n      dup1\n      iszero\n      tag_187\n      jumpi\n      returndatasize\n      0x00\n      dup1\n      returndatacopy\n      revert(0x00, returndatasize)\n    tag_187:\n      pop\n      pop\n      pop\n      pop\n      mload(0x40)\n      returndatasize\n      not(0x1f)\n      0x1f\n      dup3\n      add\n      and\n      dup3\n      add\n      dup1\n      0x40\n      mstore\n      pop\n      dup2\n      add\n      swap1\n      tag_188\n      swap2\n      swap1\n      tag_189\n      jump\t// in\n    tag_188:\n      pop\n        /* \"contracts/Simplify/ssss.sol\":1628:1657  _mint(msg.sender, _productId) */\n      tag_190\n        /* \"contracts/Simplify/ssss.sol\":1634:1644  msg.sender */\n      caller\n        /* \"contracts/Simplify/ssss.sol\":1646:1656  _productId */\n      dup5\n        /* \"contracts/Simplify/ssss.sol\":1628:1633  _mint */\n      tag_191\n        /* \"contracts/Simplify/ssss.sol\":1628:1657  _mint(msg.sender, _productId) */\n      jump\t// in\n    tag_190:\n        /* \"contracts/Simplify/ssss.sol\":1715:1728  userPurchases */\n      0x0a\n        /* \"contracts/Simplify/ssss.sol\":1715:1740  userPurchases[msg.sender] */\n      0x00\n        /* \"contracts/Simplify/ssss.sol\":1729:1739  msg.sender */\n      caller\n        /* \"contracts/Simplify/ssss.sol\":1715:1740  userPurchases[msg.sender] */\n      0xffffffffffffffffffffffffffffffffffffffff\n      and\n      0xffffffffffffffffffffffffffffffffffffffff\n      and\n      dup2\n      mstore\n      0x20\n      add\n      swap1\n      dup2\n      mstore\n      0x20\n      add\n      0x00\n      keccak256\n        /* \"contracts/Simplify/ssss.sol\":1746:1756  _productId */\n      dup4\n        /* \"contracts/Simplify/ssss.sol\":1715:1757  userPurchases[msg.sender].push(_productId) */\n      swap1\n      dup1\n      0x01\n      dup2\n      sload\n      add\n      dup1\n      dup3\n      sstore\n      dup1\n      swap2\n      pop\n      pop\n      0x01\n      swap1\n      sub\n      swap1\n      0x00\n      mstore\n      keccak256(0x00, 0x20)\n      add\n      0x00\n      swap1\n      swap2\n      swap1\n      swap2\n      swap1\n      swap2\n      pop\n      sstore\n        /* \"contracts/Simplify/ssss.sol\":1835:1845  msg.sender */\n      caller\n        /* \"contracts/Simplify/ssss.sol\":1818:1873  ProductPurchased(msg.sender, _productId, product.price) */\n      0xffffffffffffffffffffffffffffffffffffffff\n      and\n      0x228a5d93a19503d5154326b1b21603e2cdd97bda22fc58196235b4490659fc01\n        /* \"contracts/Simplify/ssss.sol\":1847:1857  _productId */\n      dup5\n        /* \"contracts/Simplify/ssss.sol\":1859:1866  product */\n      dup4\n        /* \"contracts/Simplify/ssss.sol\":1859:1872  product.price */\n      0x01\n      add\n      sload\n        /* \"contracts/Simplify/ssss.sol\":1818:1873  ProductPurchased(msg.sender, _productId, product.price) */\n      mload(0x40)\n      tag_193\n      swap3\n      swap2\n      swap1\n      tag_194\n      jump\t// in\n    tag_193:\n      mload(0x40)\n      dup1\n      swap2\n      sub\n      swap1\n      log2\n        /* \"contracts/Simplify/ssss.sol\":1893:1903  _productId */\n      dup3\n        /* \"contracts/Simplify/ssss.sol\":1886:1903  return _productId */\n      swap2\n      pop\n      pop\n        /* \"contracts/Simplify/ssss.sol\":1212:1911  function buyProduct(uint256 _productId) external returns (uint256) {... */\n      swap2\n      swap1\n      pop\n      jump\t// out\n        /* \"@openzeppelin/contracts/access/Ownable.sol\":1201:1286  function owner() public view virtual returns (address) {... */\n    tag_81:\n        /* \"@openzeppelin/contracts/access/Ownable.sol\":1247:1254  address */\n      0x00\n        /* \"@openzeppelin/contracts/access/Ownable.sol\":1273:1279  _owner */\n      0x06\n      0x00\n      swap1\n      sload\n      swap1\n      0x0100\n      exp\n      swap1\n      div\n      0xffffffffffffffffffffffffffffffffffffffff\n      and\n        /* \"@openzeppelin/contracts/access/Ownable.sol\":1266:1279  return _owner */\n      swap1\n      pop\n        /* \"@openzeppelin/contracts/access/Ownable.sol\":1201:1286  function owner() public view virtual returns (address) {... */\n      swap1\n      jump\t// out\n        /* \"@openzeppelin/contracts/token/ERC721/ERC721.sol\":2518:2611  function symbol() public view virtual returns (string memory) {... */\n    tag_84:\n        /* \"@openzeppelin/contracts/token/ERC721/ERC721.sol\":2565:2578  string memory */\n      0x60\n        /* \"@openzeppelin/contracts/token/ERC721/ERC721.sol\":2597:2604  _symbol */\n      0x01\n        /* \"@openzeppelin/contracts/token/ERC721/ERC721.sol\":2590:2604  return _symbol */\n      dup1\n      sload\n      tag_197\n      swap1\n      tag_125\n      jump\t// in\n    tag_197:\n      dup1\n      0x1f\n      add\n      0x20\n      dup1\n      swap2\n      div\n      mul\n      0x20\n      add\n      mload(0x40)\n      swap1\n      dup2\n      add\n      0x40\n      mstore\n      dup1\n      swap3\n      swap2\n      swap1\n      dup2\n      dup2\n      mstore\n      0x20\n      add\n      dup3\n      dup1\n      sload\n      tag_198\n      swap1\n      tag_125\n      jump\t// in\n    tag_198:\n      dup1\n      iszero\n      tag_199\n      jumpi\n      dup1\n      0x1f\n      lt\n      tag_200\n      jumpi\n      0x0100\n      dup1\n      dup4\n      sload\n      div\n      mul\n      dup4\n      mstore\n      swap2\n      0x20\n      add\n      swap2\n      jump(tag_199)\n    tag_200:\n      dup3\n      add\n      swap2\n      swap1\n      0x00\n      mstore\n      keccak256(0x00, 0x20)\n      swap1\n    tag_201:\n      dup2\n      sload\n      dup2\n      mstore\n      swap1\n      0x01\n      add\n      swap1\n      0x20\n      add\n      dup1\n      dup4\n      gt\n      tag_201\n      jumpi\n      dup3\n      swap1\n      sub\n      0x1f\n      and\n      dup3\n      add\n      swap2\n    tag_199:\n      pop\n      pop\n      pop\n      pop\n      pop\n      swap1\n      pop\n        /* \"@openzeppelin/contracts/token/ERC721/ERC721.sol\":2518:2611  function symbol() public view virtual returns (string memory) {... */\n      swap1\n      jump\t// out\n        /* \"@openzeppelin/contracts/token/ERC721/ERC721.sol\":3718:3862  function setApprovalForAll(address operator, bool approved) public virtual {... */\n    tag_89:\n        /* \"@openzeppelin/contracts/token/ERC721/ERC721.sol\":3803:3855  _setApprovalForAll(_msgSender(), operator, approved) */\n      tag_203\n        /* \"@openzeppelin/contracts/token/ERC721/ERC721.sol\":3822:3834  _msgSender() */\n      tag_204\n        /* \"@openzeppelin/contracts/token/ERC721/ERC721.sol\":3822:3832  _msgSender */\n      tag_138\n        /* \"@openzeppelin/contracts/token/ERC721/ERC721.sol\":3822:3834  _msgSender() */\n      jump\t// in\n    tag_204:\n        /* \"@openzeppelin/contracts/token/ERC721/ERC721.sol\":3836:3844  operator */\n      dup4\n        /* \"@openzeppelin/contracts/token/ERC721/ERC721.sol\":3846:3854  approved */\n      dup4\n        /* \"@openzeppelin/contracts/token/ERC721/ERC721.sol\":3803:3821  _setApprovalForAll */\n      tag_205\n        /* \"@openzeppelin/contracts/token/ERC721/ERC721.sol\":3803:3855  _setApprovalForAll(_msgSender(), operator, approved) */\n      jump\t// in\n    tag_203:\n        /* \"@openzeppelin/contracts/token/ERC721/ERC721.sol\":3718:3862  function setApprovalForAll(address operator, bool approved) public virtual {... */\n      pop\n      pop\n      jump\t// out\n        /* \"contracts/Simplify/ssss.sol\":967:1204  function addProduct(string memory _name, uint256 _price) external onlyOwner {... */\n    tag_93:\n        /* \"@openzeppelin/contracts/access/Ownable.sol\":1094:1107  _checkOwner() */\n      tag_207\n        /* \"@openzeppelin/contracts/access/Ownable.sol\":1094:1105  _checkOwner */\n      tag_169\n        /* \"@openzeppelin/contracts/access/Ownable.sol\":1094:1107  _checkOwner() */\n      jump\t// in\n    tag_207:\n        /* \"contracts/Simplify/ssss.sol\":1054:1071  uint256 productId */\n      0x00\n        /* \"contracts/Simplify/ssss.sol\":1074:1101  _productIdCounter.current() */\n      tag_209\n        /* \"contracts/Simplify/ssss.sol\":1074:1091  _productIdCounter */\n      0x07\n        /* \"contracts/Simplify/ssss.sol\":1074:1099  _productIdCounter.current */\n      tag_153\n        /* \"contracts/Simplify/ssss.sol\":1074:1101  _productIdCounter.current() */\n      jump\t// in\n    tag_209:\n        /* \"contracts/Simplify/ssss.sol\":1054:1101  uint256 productId = _productIdCounter.current() */\n      swap1\n      pop\n        /* \"contracts/Simplify/ssss.sol\":1134:1156  Product(_name, _price) */\n      mload(0x40)\n      dup1\n      0x40\n      add\n      0x40\n      mstore\n      dup1\n        /* \"contracts/Simplify/ssss.sol\":1142:1147  _name */\n      dup5\n        /* \"contracts/Simplify/ssss.sol\":1134:1156  Product(_name, _price) */\n      dup2\n      mstore\n      0x20\n      add\n        /* \"contracts/Simplify/ssss.sol\":1149:1155  _price */\n      dup4\n        /* \"contracts/Simplify/ssss.sol\":1134:1156  Product(_name, _price) */\n      dup2\n      mstore\n      pop\n        /* \"contracts/Simplify/ssss.sol\":1112:1120  products */\n      0x09\n        /* \"contracts/Simplify/ssss.sol\":1112:1131  products[productId] */\n      0x00\n        /* \"contracts/Simplify/ssss.sol\":1121:1130  productId */\n      dup4\n        /* \"contracts/Simplify/ssss.sol\":1112:1131  products[productId] */\n      dup2\n      mstore\n      0x20\n      add\n      swap1\n      dup2\n      mstore\n      0x20\n      add\n      0x00\n      keccak256\n        /* \"contracts/Simplify/ssss.sol\":1112:1156  products[productId] = Product(_name, _price) */\n      0x00\n      dup3\n      add\n      mload\n      dup2\n      0x00\n      add\n      swap1\n      dup2\n      tag_210\n      swap2\n      swap1\n      tag_211\n      jump\t// in\n    tag_210:\n      pop\n      0x20\n      dup3\n      add\n      mload\n      dup2\n      0x01\n      add\n      sstore\n      swap1\n      pop\n      pop\n        /* \"contracts/Simplify/ssss.sol\":1167:1196  _productIdCounter.increment() */\n      tag_212\n        /* \"contracts/Simplify/ssss.sol\":1167:1184  _productIdCounter */\n      0x07\n        /* \"contracts/Simplify/ssss.sol\":1167:1194  _productIdCounter.increment */\n      tag_213\n        /* \"contracts/Simplify/ssss.sol\":1167:1196  _productIdCounter.increment() */\n      jump\t// in\n    tag_212:\n        /* \"contracts/Simplify/ssss.sol\":1043:1204  {... */\n      pop\n        /* \"contracts/Simplify/ssss.sol\":967:1204  function addProduct(string memory _name, uint256 _price) external onlyOwner {... */\n      pop\n      pop\n      jump\t// out\n        /* \"@openzeppelin/contracts/token/ERC721/ERC721.sol\":4985:5193  function safeTransferFrom(address from, address to, uint256 tokenId, bytes memory data) public virtual {... */\n    tag_97:\n        /* \"@openzeppelin/contracts/token/ERC721/ERC721.sol\":5098:5129  transferFrom(from, to, tokenId) */\n      tag_215\n        /* \"@openzeppelin/contracts/token/ERC721/ERC721.sol\":5111:5115  from */\n      dup5\n        /* \"@openzeppelin/contracts/token/ERC721/ERC721.sol\":5117:5119  to */\n      dup5\n        /* \"@openzeppelin/contracts/token/ERC721/ERC721.sol\":5121:5128  tokenId */\n      dup5\n        /* \"@openzeppelin/contracts/token/ERC721/ERC721.sol\":5098:5110  transferFrom */\n      tag_51\n        /* \"@openzeppelin/contracts/token/ERC721/ERC721.sol\":5098:5129  transferFrom(from, to, tokenId) */\n      jump\t// in\n    tag_215:\n        /* \"@openzeppelin/contracts/token/ERC721/ERC721.sol\":5139:5186  _checkOnERC721Received(from, to, tokenId, data) */\n      tag_216\n        /* \"@openzeppelin/contracts/token/ERC721/ERC721.sol\":5162:5166  from */\n      dup5\n        /* \"@openzeppelin/contracts/token/ERC721/ERC721.sol\":5168:5170  to */\n      dup5\n        /* \"@openzeppelin/contracts/token/ERC721/ERC721.sol\":5172:5179  tokenId */\n      dup5\n        /* \"@openzeppelin/contracts/token/ERC721/ERC721.sol\":5181:5185  data */\n      dup5\n        /* \"@openzeppelin/contracts/token/ERC721/ERC721.sol\":5139:5161  _checkOnERC721Received */\n      tag_217\n        /* \"@openzeppelin/contracts/token/ERC721/ERC721.sol\":5139:5186  _checkOnERC721Received(from, to, tokenId, data) */\n      jump\t// in\n    tag_216:\n        /* \"@openzeppelin/contracts/token/ERC721/ERC721.sol\":4985:5193  function safeTransferFrom(address from, address to, uint256 tokenId, bytes memory data) public virtual {... */\n      pop\n      pop\n      pop\n      pop\n      jump\t// out\n        /* \"@openzeppelin/contracts/token/ERC721/ERC721.sol\":2677:2932  function tokenURI(uint256 tokenId) public view virtual returns (string memory) {... */\n    tag_100:\n        /* \"@openzeppelin/contracts/token/ERC721/ERC721.sol\":2741:2754  string memory */\n      0x60\n        /* \"@openzeppelin/contracts/token/ERC721/ERC721.sol\":2766:2788  _requireOwned(tokenId) */\n      tag_219\n        /* \"@openzeppelin/contracts/token/ERC721/ERC721.sol\":2780:2787  tokenId */\n      dup3\n        /* \"@openzeppelin/contracts/token/ERC721/ERC721.sol\":2766:2779  _requireOwned */\n      tag_132\n        /* \"@openzeppelin/contracts/token/ERC721/ERC721.sol\":2766:2788  _requireOwned(tokenId) */\n      jump\t// in\n    tag_219:\n      pop\n        /* \"@openzeppelin/contracts/token/ERC721/ERC721.sol\":2799:2820  string memory baseURI */\n      0x00\n        /* \"@openzeppelin/contracts/token/ERC721/ERC721.sol\":2823:2833  _baseURI() */\n      tag_220\n        /* \"@openzeppelin/contracts/token/ERC721/ERC721.sol\":2823:2831  _baseURI */\n      tag_221\n        /* \"@openzeppelin/contracts/token/ERC721/ERC721.sol\":2823:2833  _baseURI() */\n      jump\t// in\n    tag_220:\n        /* \"@openzeppelin/contracts/token/ERC721/ERC721.sol\":2799:2833  string memory baseURI = _baseURI() */\n      swap1\n      pop\n        /* \"@openzeppelin/contracts/token/ERC721/ERC721.sol\":2874:2875  0 */\n      0x00\n        /* \"@openzeppelin/contracts/token/ERC721/ERC721.sol\":2856:2863  baseURI */\n      dup2\n        /* \"@openzeppelin/contracts/token/ERC721/ERC721.sol\":2850:2871  bytes(baseURI).length */\n      mload\n        /* \"@openzeppelin/contracts/token/ERC721/ERC721.sol\":2850:2875  bytes(baseURI).length > 0 */\n      gt\n        /* \"@openzeppelin/contracts/token/ERC721/ERC721.sol\":2850:2925  bytes(baseURI).length > 0 ? string.concat(baseURI, tokenId.toString()) : \"\" */\n      tag_222\n      jumpi\n      mload(0x40)\n      dup1\n      0x20\n      add\n      0x40\n      mstore\n      dup1\n      0x00\n      dup2\n      mstore\n      pop\n      jump(tag_223)\n    tag_222:\n        /* \"@openzeppelin/contracts/token/ERC721/ERC721.sol\":2892:2899  baseURI */\n      dup1\n        /* \"@openzeppelin/contracts/token/ERC721/ERC721.sol\":2901:2919  tokenId.toString() */\n      tag_224\n        /* \"@openzeppelin/contracts/token/ERC721/ERC721.sol\":2901:2908  tokenId */\n      dup5\n        /* \"@openzeppelin/contracts/token/ERC721/ERC721.sol\":2901:2917  tokenId.toString */\n      tag_225\n        /* \"@openzeppelin/contracts/token/ERC721/ERC721.sol\":2901:2919  tokenId.toString() */\n      jump\t// in\n    tag_224:\n        /* \"@openzeppelin/contracts/token/ERC721/ERC721.sol\":2878:2920  string.concat(baseURI, tokenId.toString()) */\n      add(0x20, mload(0x40))\n      tag_226\n      swap3\n      swap2\n      swap1\n      tag_227\n      jump\t// in\n    tag_226:\n      mload(0x40)\n      0x20\n      dup2\n      dup4\n      sub\n      sub\n      dup2\n      mstore\n      swap1\n      0x40\n      mstore\n        /* \"@openzeppelin/contracts/token/ERC721/ERC721.sol\":2850:2925  bytes(baseURI).length > 0 ? string.concat(baseURI, tokenId.toString()) : \"\" */\n    tag_223:\n        /* \"@openzeppelin/contracts/token/ERC721/ERC721.sol\":2843:2925  return bytes(baseURI).length > 0 ? string.concat(baseURI, tokenId.toString()) : \"\" */\n      swap2\n      pop\n      pop\n        /* \"@openzeppelin/contracts/token/ERC721/ERC721.sol\":2677:2932  function tokenURI(uint256 tokenId) public view virtual returns (string memory) {... */\n      swap2\n      swap1\n      pop\n      jump\t// out\n        /* \"contracts/Simplify/ssss.sol\":786:836  mapping(address => uint256[]) public userPurchases */\n    tag_104:\n      mstore(0x20, 0x0a)\n      dup2\n      0x00\n      mstore\n      keccak256(0x00, 0x40)\n      dup2\n      dup2\n      sload\n      dup2\n      lt\n      tag_228\n      jumpi\n      0x00\n      dup1\n      revert\n    tag_228:\n      swap1\n      0x00\n      mstore\n      keccak256(0x00, 0x20)\n      add\n      0x00\n      swap2\n      pop\n      swap2\n      pop\n      pop\n      sload\n      dup2\n      jump\t// out\n        /* \"@openzeppelin/contracts/token/ERC721/ERC721.sol\":3928:4081  function isApprovedForAll(address owner, address operator) public view virtual returns (bool) {... */\n    tag_109:\n        /* \"@openzeppelin/contracts/token/ERC721/ERC721.sol\":4016:4020  bool */\n      0x00\n        /* \"@openzeppelin/contracts/token/ERC721/ERC721.sol\":4039:4057  _operatorApprovals */\n      0x05\n        /* \"@openzeppelin/contracts/token/ERC721/ERC721.sol\":4039:4064  _operatorApprovals[owner] */\n      0x00\n        /* \"@openzeppelin/contracts/token/ERC721/ERC721.sol\":4058:4063  owner */\n      dup5\n        /* \"@openzeppelin/contracts/token/ERC721/ERC721.sol\":4039:4064  _operatorApprovals[owner] */\n      0xffffffffffffffffffffffffffffffffffffffff\n      and\n      0xffffffffffffffffffffffffffffffffffffffff\n      and\n      dup2\n      mstore\n      0x20\n      add\n      swap1\n      dup2\n      mstore\n      0x20\n      add\n      0x00\n      keccak256\n        /* \"@openzeppelin/contracts/token/ERC721/ERC721.sol\":4039:4074  _operatorApprovals[owner][operator] */\n      0x00\n        /* \"@openzeppelin/contracts/token/ERC721/ERC721.sol\":4065:4073  operator */\n      dup4\n        /* \"@openzeppelin/contracts/token/ERC721/ERC721.sol\":4039:4074  _operatorApprovals[owner][operator] */\n      0xffffffffffffffffffffffffffffffffffffffff\n      and\n      0xffffffffffffffffffffffffffffffffffffffff\n      and\n      dup2\n      mstore\n      0x20\n      add\n      swap1\n      dup2\n      mstore\n      0x20\n      add\n      0x00\n      keccak256\n      0x00\n      swap1\n      sload\n      swap1\n      0x0100\n      exp\n      swap1\n      div\n      0xff\n      and\n        /* \"@openzeppelin/contracts/token/ERC721/ERC721.sol\":4032:4074  return _operatorApprovals[owner][operator] */\n      swap1\n      pop\n        /* \"@openzeppelin/contracts/token/ERC721/ERC721.sol\":3928:4081  function isApprovedForAll(address owner, address operator) public view virtual returns (bool) {... */\n      swap3\n      swap2\n      pop\n      pop\n      jump\t// out\n        /* \"@openzeppelin/contracts/access/Ownable.sol\":2074:2272  function transferOwnership(address newOwner) public virtual onlyOwner {... */\n    tag_113:\n        /* \"@openzeppelin/contracts/access/Ownable.sol\":1094:1107  _checkOwner() */\n      tag_232\n        /* \"@openzeppelin/contracts/access/Ownable.sol\":1094:1105  _checkOwner */\n      tag_169\n        /* \"@openzeppelin/contracts/access/Ownable.sol\":1094:1107  _checkOwner() */\n      jump\t// in\n    tag_232:\n        /* \"@openzeppelin/contracts/access/Ownable.sol\":2182:2183  0 */\n      0x00\n        /* \"@openzeppelin/contracts/access/Ownable.sol\":2162:2184  newOwner != address(0) */\n      0xffffffffffffffffffffffffffffffffffffffff\n      and\n        /* \"@openzeppelin/contracts/access/Ownable.sol\":2162:2170  newOwner */\n      dup2\n        /* \"@openzeppelin/contracts/access/Ownable.sol\":2162:2184  newOwner != address(0) */\n      0xffffffffffffffffffffffffffffffffffffffff\n      and\n      sub\n        /* \"@openzeppelin/contracts/access/Ownable.sol\":2154:2227  require(newOwner != address(0), \"Ownable: new owner is the zero address\") */\n      tag_234\n      jumpi\n      mload(0x40)\n      0x08c379a000000000000000000000000000000000000000000000000000000000\n      dup2\n      mstore\n      0x04\n      add\n      tag_235\n      swap1\n      tag_236\n      jump\t// in\n    tag_235:\n      mload(0x40)\n      dup1\n      swap2\n      sub\n      swap1\n      revert\n    tag_234:\n        /* \"@openzeppelin/contracts/access/Ownable.sol\":2237:2265  _transferOwnership(newOwner) */\n      tag_237\n        /* \"@openzeppelin/contracts/access/Ownable.sol\":2256:2264  newOwner */\n      dup2\n        /* \"@openzeppelin/contracts/access/Ownable.sol\":2237:2255  _transferOwnership */\n      tag_172\n        /* \"@openzeppelin/contracts/access/Ownable.sol\":2237:2265  _transferOwnership(newOwner) */\n      jump\t// in\n    tag_237:\n        /* \"@openzeppelin/contracts/access/Ownable.sol\":2074:2272  function transferOwnership(address newOwner) public virtual onlyOwner {... */\n      pop\n      jump\t// out\n        /* \"contracts/Simplify/ssss.sol\":509:528  IERC20 public token */\n    tag_115:\n      0x08\n      0x00\n      swap1\n      sload\n      swap1\n      0x0100\n      exp\n      swap1\n      div\n      0xffffffffffffffffffffffffffffffffffffffff\n      and\n      dup2\n      jump\t// out\n        /* \"@openzeppelin/contracts/utils/introspection/ERC165.sol\":762:908  function supportsInterface(bytes4 interfaceId) public view virtual returns (bool) {... */\n    tag_122:\n        /* \"@openzeppelin/contracts/utils/introspection/ERC165.sol\":838:842  bool */\n      0x00\n        /* \"@openzeppelin/contracts/utils/introspection/ERC165.sol\":876:901  type(IERC165).interfaceId */\n      0x01ffc9a700000000000000000000000000000000000000000000000000000000\n        /* \"@openzeppelin/contracts/utils/introspection/ERC165.sol\":861:901  interfaceId == type(IERC165).interfaceId */\n      not(0xffffffffffffffffffffffffffffffffffffffffffffffffffffffff)\n      and\n        /* \"@openzeppelin/contracts/utils/introspection/ERC165.sol\":861:872  interfaceId */\n      dup3\n        /* \"@openzeppelin/contracts/utils/introspection/ERC165.sol\":861:901  interfaceId == type(IERC165).interfaceId */\n      not(0xffffffffffffffffffffffffffffffffffffffffffffffffffffffff)\n      and\n      eq\n        /* \"@openzeppelin/contracts/utils/introspection/ERC165.sol\":854:901  return interfaceId == type(IERC165).interfaceId */\n      swap1\n      pop\n        /* \"@openzeppelin/contracts/utils/introspection/ERC165.sol\":762:908  function supportsInterface(bytes4 interfaceId) public view virtual returns (bool) {... */\n      swap2\n      swap1\n      pop\n      jump\t// out\n        /* \"@openzeppelin/contracts/token/ERC721/ERC721.sol\":16138:16379  function _requireOwned(uint256 tokenId) internal view returns (address) {... */\n    tag_132:\n        /* \"@openzeppelin/contracts/token/ERC721/ERC721.sol\":16201:16208  address */\n      0x00\n        /* \"@openzeppelin/contracts/token/ERC721/ERC721.sol\":16220:16233  address owner */\n      dup1\n        /* \"@openzeppelin/contracts/token/ERC721/ERC721.sol\":16236:16253  _ownerOf(tokenId) */\n      tag_240\n        /* \"@openzeppelin/contracts/token/ERC721/ERC721.sol\":16245:16252  tokenId */\n      dup4\n        /* \"@openzeppelin/contracts/token/ERC721/ERC721.sol\":16236:16244  _ownerOf */\n      tag_241\n        /* \"@openzeppelin/contracts/token/ERC721/ERC721.sol\":16236:16253  _ownerOf(tokenId) */\n      jump\t// in\n    tag_240:\n        /* \"@openzeppelin/contracts/token/ERC721/ERC721.sol\":16220:16253  address owner = _ownerOf(tokenId) */\n      swap1\n      pop\n        /* \"@openzeppelin/contracts/token/ERC721/ERC721.sol\":16284:16285  0 */\n      0x00\n        /* \"@openzeppelin/contracts/token/ERC721/ERC721.sol\":16267:16286  owner == address(0) */\n      0xffffffffffffffffffffffffffffffffffffffff\n      and\n        /* \"@openzeppelin/contracts/token/ERC721/ERC721.sol\":16267:16272  owner */\n      dup2\n        /* \"@openzeppelin/contracts/token/ERC721/ERC721.sol\":16267:16286  owner == address(0) */\n      0xffffffffffffffffffffffffffffffffffffffff\n      and\n      sub\n        /* \"@openzeppelin/contracts/token/ERC721/ERC721.sol\":16263:16351  if (owner == address(0)) {... */\n      tag_242\n      jumpi\n        /* \"@openzeppelin/contracts/token/ERC721/ERC721.sol\":16332:16339  tokenId */\n      dup3\n        /* \"@openzeppelin/contracts/token/ERC721/ERC721.sol\":16309:16340  ERC721NonexistentToken(tokenId) */\n      mload(0x40)\n      0x7e27328900000000000000000000000000000000000000000000000000000000\n      dup2\n      mstore\n      0x04\n      add\n      tag_243\n      swap2\n      swap1\n      tag_69\n      jump\t// in\n    tag_243:\n      mload(0x40)\n      dup1\n      swap2\n      sub\n      swap1\n      revert\n        /* \"@openzeppelin/contracts/token/ERC721/ERC721.sol\":16263:16351  if (owner == address(0)) {... */\n    tag_242:\n        /* \"@openzeppelin/contracts/token/ERC721/ERC721.sol\":16367:16372  owner */\n      dup1\n        /* \"@openzeppelin/contracts/token/ERC721/ERC721.sol\":16360:16372  return owner */\n      swap2\n      pop\n      pop\n        /* \"@openzeppelin/contracts/token/ERC721/ERC721.sol\":16138:16379  function _requireOwned(uint256 tokenId) internal view returns (address) {... */\n      swap2\n      swap1\n      pop\n      jump\t// out\n        /* \"@openzeppelin/contracts/token/ERC721/ERC721.sol\":5938:6065  function _getApproved(uint256 tokenId) internal view virtual returns (address) {... */\n    tag_134:\n        /* \"@openzeppelin/contracts/token/ERC721/ERC721.sol\":6008:6015  address */\n      0x00\n        /* \"@openzeppelin/contracts/token/ERC721/ERC721.sol\":6034:6049  _tokenApprovals */\n      0x04\n        /* \"@openzeppelin/contracts/token/ERC721/ERC721.sol\":6034:6058  _tokenApprovals[tokenId] */\n      0x00\n        /* \"@openzeppelin/contracts/token/ERC721/ERC721.sol\":6050:6057  tokenId */\n      dup4\n        /* \"@openzeppelin/contracts/token/ERC721/ERC721.sol\":6034:6058  _tokenApprovals[tokenId] */\n      dup2\n      mstore\n      0x20\n      add\n      swap1\n      dup2\n      mstore\n      0x20\n      add\n      0x00\n      keccak256\n      0x00\n      swap1\n      sload\n      swap1\n      0x0100\n      exp\n      swap1\n      div\n      0xffffffffffffffffffffffffffffffffffffffff\n      and\n        /* \"@openzeppelin/contracts/token/ERC721/ERC721.sol\":6027:6058  return _tokenApprovals[tokenId] */\n      swap1\n      pop\n        /* \"@openzeppelin/contracts/token/ERC721/ERC721.sol\":5938:6065  function _getApproved(uint256 tokenId) internal view virtual returns (address) {... */\n      swap2\n      swap1\n      pop\n      jump\t// out\n        /* \"@openzeppelin/contracts/utils/Context.sol\":640:736  function _msgSender() internal view virtual returns (address) {... */\n    tag_138:\n        /* \"@openzeppelin/contracts/utils/Context.sol\":693:700  address */\n      0x00\n        /* \"@openzeppelin/contracts/utils/Context.sol\":719:729  msg.sender */\n      caller\n        /* \"@openzeppelin/contracts/utils/Context.sol\":712:729  return msg.sender */\n      swap1\n      pop\n        /* \"@openzeppelin/contracts/utils/Context.sol\":640:736  function _msgSender() internal view virtual returns (address) {... */\n      swap1\n      jump\t// out\n        /* \"@openzeppelin/contracts/token/ERC721/ERC721.sol\":14418:14538  function _approve(address to, uint256 tokenId, address auth) internal {... */\n    tag_139:\n        /* \"@openzeppelin/contracts/token/ERC721/ERC721.sol\":14498:14531  _approve(to, tokenId, auth, true) */\n      tag_247\n        /* \"@openzeppelin/contracts/token/ERC721/ERC721.sol\":14507:14509  to */\n      dup4\n        /* \"@openzeppelin/contracts/token/ERC721/ERC721.sol\":14511:14518  tokenId */\n      dup4\n        /* \"@openzeppelin/contracts/token/ERC721/ERC721.sol\":14520:14524  auth */\n      dup4\n        /* \"@openzeppelin/contracts/token/ERC721/ERC721.sol\":14526:14530  true */\n      0x01\n        /* \"@openzeppelin/contracts/token/ERC721/ERC721.sol\":14498:14506  _approve */\n      tag_248\n        /* \"@openzeppelin/contracts/token/ERC721/ERC721.sol\":14498:14531  _approve(to, tokenId, auth, true) */\n      jump\t// in\n    tag_247:\n        /* \"@openzeppelin/contracts/token/ERC721/ERC721.sol\":14418:14538  function _approve(address to, uint256 tokenId, address auth) internal {... */\n      pop\n      pop\n      pop\n      jump\t// out\n        /* \"@openzeppelin/contracts/token/ERC721/ERC721.sol\":8838:9633  function _update(address to, uint256 tokenId, address auth) internal virtual returns (address) {... */\n    tag_145:\n        /* \"@openzeppelin/contracts/token/ERC721/ERC721.sol\":8924:8931  address */\n      0x00\n        /* \"@openzeppelin/contracts/token/ERC721/ERC721.sol\":8943:8955  address from */\n      dup1\n        /* \"@openzeppelin/contracts/token/ERC721/ERC721.sol\":8958:8975  _ownerOf(tokenId) */\n      tag_250\n        /* \"@openzeppelin/contracts/token/ERC721/ERC721.sol\":8967:8974  tokenId */\n      dup5\n        /* \"@openzeppelin/contracts/token/ERC721/ERC721.sol\":8958:8966  _ownerOf */\n      tag_241\n        /* \"@openzeppelin/contracts/token/ERC721/ERC721.sol\":8958:8975  _ownerOf(tokenId) */\n      jump\t// in\n    tag_250:\n        /* \"@openzeppelin/contracts/token/ERC721/ERC721.sol\":8943:8975  address from = _ownerOf(tokenId) */\n      swap1\n      pop\n        /* \"@openzeppelin/contracts/token/ERC721/ERC721.sol\":9051:9052  0 */\n      0x00\n        /* \"@openzeppelin/contracts/token/ERC721/ERC721.sol\":9035:9053  auth != address(0) */\n      0xffffffffffffffffffffffffffffffffffffffff\n      and\n        /* \"@openzeppelin/contracts/token/ERC721/ERC721.sol\":9035:9039  auth */\n      dup4\n        /* \"@openzeppelin/contracts/token/ERC721/ERC721.sol\":9035:9053  auth != address(0) */\n      0xffffffffffffffffffffffffffffffffffffffff\n      and\n      eq\n        /* \"@openzeppelin/contracts/token/ERC721/ERC721.sol\":9031:9117  if (auth != address(0)) {... */\n      tag_251\n      jumpi\n        /* \"@openzeppelin/contracts/token/ERC721/ERC721.sol\":9069:9106  _checkAuthorized(from, auth, tokenId) */\n      tag_252\n        /* \"@openzeppelin/contracts/token/ERC721/ERC721.sol\":9086:9090  from */\n      dup2\n        /* \"@openzeppelin/contracts/token/ERC721/ERC721.sol\":9092:9096  auth */\n      dup5\n        /* \"@openzeppelin/contracts/token/ERC721/ERC721.sol\":9098:9105  tokenId */\n      dup7\n        /* \"@openzeppelin/contracts/token/ERC721/ERC721.sol\":9069:9085  _checkAuthorized */\n      tag_253\n        /* \"@openzeppelin/contracts/token/ERC721/ERC721.sol\":9069:9106  _checkAuthorized(from, auth, tokenId) */\n      jump\t// in\n    tag_252:\n        /* \"@openzeppelin/contracts/token/ERC721/ERC721.sol\":9031:9117  if (auth != address(0)) {... */\n    tag_251:\n        /* \"@openzeppelin/contracts/token/ERC721/ERC721.sol\":9177:9178  0 */\n      0x00\n        /* \"@openzeppelin/contracts/token/ERC721/ERC721.sol\":9161:9179  from != address(0) */\n      0xffffffffffffffffffffffffffffffffffffffff\n      and\n        /* \"@openzeppelin/contracts/token/ERC721/ERC721.sol\":9161:9165  from */\n      dup2\n        /* \"@openzeppelin/contracts/token/ERC721/ERC721.sol\":9161:9179  from != address(0) */\n      0xffffffffffffffffffffffffffffffffffffffff\n      and\n      eq\n        /* \"@openzeppelin/contracts/token/ERC721/ERC721.sol\":9157:9413  if (from != address(0)) {... */\n      tag_254\n      jumpi\n        /* \"@openzeppelin/contracts/token/ERC721/ERC721.sol\":9277:9325  _approve(address(0), tokenId, address(0), false) */\n      tag_255\n        /* \"@openzeppelin/contracts/token/ERC721/ERC721.sol\":9294:9295  0 */\n      0x00\n        /* \"@openzeppelin/contracts/token/ERC721/ERC721.sol\":9298:9305  tokenId */\n      dup6\n        /* \"@openzeppelin/contracts/token/ERC721/ERC721.sol\":9315:9316  0 */\n      0x00\n        /* \"@openzeppelin/contracts/token/ERC721/ERC721.sol\":9319:9324  false */\n      dup1\n        /* \"@openzeppelin/contracts/token/ERC721/ERC721.sol\":9277:9285  _approve */\n      tag_248\n        /* \"@openzeppelin/contracts/token/ERC721/ERC721.sol\":9277:9325  _approve(address(0), tokenId, address(0), false) */\n      jump\t// in\n    tag_255:\n        /* \"@openzeppelin/contracts/token/ERC721/ERC721.sol\":9387:9388  1 */\n      0x01\n        /* \"@openzeppelin/contracts/token/ERC721/ERC721.sol\":9368:9377  _balances */\n      0x03\n        /* \"@openzeppelin/contracts/token/ERC721/ERC721.sol\":9368:9383  _balances[from] */\n      0x00\n        /* \"@openzeppelin/contracts/token/ERC721/ERC721.sol\":9378:9382  from */\n      dup4\n        /* \"@openzeppelin/contracts/token/ERC721/ERC721.sol\":9368:9383  _balances[from] */\n      0xffffffffffffffffffffffffffffffffffffffff\n      and\n      0xffffffffffffffffffffffffffffffffffffffff\n      and\n      dup2\n      mstore\n      0x20\n      add\n      swap1\n      dup2\n      mstore\n      0x20\n      add\n      0x00\n      keccak256\n      0x00\n        /* \"@openzeppelin/contracts/token/ERC721/ERC721.sol\":9368:9388  _balances[from] -= 1 */\n      dup3\n      dup3\n      sload\n      sub\n      swap3\n      pop\n      pop\n      dup2\n      swap1\n      sstore\n      pop\n        /* \"@openzeppelin/contracts/token/ERC721/ERC721.sol\":9157:9413  if (from != address(0)) {... */\n    tag_254:\n        /* \"@openzeppelin/contracts/token/ERC721/ERC721.sol\":9441:9442  0 */\n      0x00\n        /* \"@openzeppelin/contracts/token/ERC721/ERC721.sol\":9427:9443  to != address(0) */\n      0xffffffffffffffffffffffffffffffffffffffff\n      and\n        /* \"@openzeppelin/contracts/token/ERC721/ERC721.sol\":9427:9429  to */\n      dup6\n        /* \"@openzeppelin/contracts/token/ERC721/ERC721.sol\":9427:9443  to != address(0) */\n      0xffffffffffffffffffffffffffffffffffffffff\n      and\n      eq\n        /* \"@openzeppelin/contracts/token/ERC721/ERC721.sol\":9423:9530  if (to != address(0)) {... */\n      tag_256\n      jumpi\n        /* \"@openzeppelin/contracts/token/ERC721/ERC721.sol\":9504:9505  1 */\n      0x01\n        /* \"@openzeppelin/contracts/token/ERC721/ERC721.sol\":9487:9496  _balances */\n      0x03\n        /* \"@openzeppelin/contracts/token/ERC721/ERC721.sol\":9487:9500  _balances[to] */\n      0x00\n        /* \"@openzeppelin/contracts/token/ERC721/ERC721.sol\":9497:9499  to */\n      dup8\n        /* \"@openzeppelin/contracts/token/ERC721/ERC721.sol\":9487:9500  _balances[to] */\n      0xffffffffffffffffffffffffffffffffffffffff\n      and\n      0xffffffffffffffffffffffffffffffffffffffff\n      and\n      dup2\n      mstore\n      0x20\n      add\n      swap1\n      dup2\n      mstore\n      0x20\n      add\n      0x00\n      keccak256\n      0x00\n        /* \"@openzeppelin/contracts/token/ERC721/ERC721.sol\":9487:9505  _balances[to] += 1 */\n      dup3\n      dup3\n      sload\n      add\n      swap3\n      pop\n      pop\n      dup2\n      swap1\n      sstore\n      pop\n        /* \"@openzeppelin/contracts/token/ERC721/ERC721.sol\":9423:9530  if (to != address(0)) {... */\n    tag_256:\n        /* \"@openzeppelin/contracts/token/ERC721/ERC721.sol\":9559:9561  to */\n      dup5\n        /* \"@openzeppelin/contracts/token/ERC721/ERC721.sol\":9540:9547  _owners */\n      0x02\n        /* \"@openzeppelin/contracts/token/ERC721/ERC721.sol\":9540:9556  _owners[tokenId] */\n      0x00\n        /* \"@openzeppelin/contracts/token/ERC721/ERC721.sol\":9548:9555  tokenId */\n      dup7\n        /* \"@openzeppelin/contracts/token/ERC721/ERC721.sol\":9540:9556  _owners[tokenId] */\n      dup2\n      mstore\n      0x20\n      add\n      swap1\n      dup2\n      mstore\n      0x20\n      add\n      0x00\n      keccak256\n      0x00\n        /* \"@openzeppelin/contracts/token/ERC721/ERC721.sol\":9540:9561  _owners[tokenId] = to */\n      0x0100\n      exp\n      dup2\n      sload\n      dup2\n      0xffffffffffffffffffffffffffffffffffffffff\n      mul\n      not\n      and\n      swap1\n      dup4\n      0xffffffffffffffffffffffffffffffffffffffff\n      and\n      mul\n      or\n      swap1\n      sstore\n      pop\n        /* \"@openzeppelin/contracts/token/ERC721/ERC721.sol\":9596:9603  tokenId */\n      dup4\n        /* \"@openzeppelin/contracts/token/ERC721/ERC721.sol\":9592:9594  to */\n      dup6\n        /* \"@openzeppelin/contracts/token/ERC721/ERC721.sol\":9577:9604  Transfer(from, to, tokenId) */\n      0xffffffffffffffffffffffffffffffffffffffff\n      and\n        /* \"@openzeppelin/contracts/token/ERC721/ERC721.sol\":9586:9590  from */\n      dup3\n        /* \"@openzeppelin/contracts/token/ERC721/ERC721.sol\":9577:9604  Transfer(from, to, tokenId) */\n      0xffffffffffffffffffffffffffffffffffffffff\n      and\n      0xddf252ad1be2c89b69c2b068fc378daa952ba7f163c4a11628f55a4df523b3ef\n      mload(0x40)\n      mload(0x40)\n      dup1\n      swap2\n      sub\n      swap1\n      log4\n        /* \"@openzeppelin/contracts/token/ERC721/ERC721.sol\":9622:9626  from */\n      dup1\n        /* \"@openzeppelin/contracts/token/ERC721/ERC721.sol\":9615:9626  return from */\n      swap2\n      pop\n      pop\n        /* \"@openzeppelin/contracts/token/ERC721/ERC721.sol\":8838:9633  function _update(address to, uint256 tokenId, address auth) internal virtual returns (address) {... */\n      swap4\n      swap3\n      pop\n      pop\n      pop\n      jump\t// out\n        /* \"@openzeppelin/contracts/utils/Counters.sol\":827:939  function current(Counter storage counter) internal view returns (uint256) {... */\n    tag_153:\n        /* \"@openzeppelin/contracts/utils/Counters.sol\":892:899  uint256 */\n      0x00\n        /* \"@openzeppelin/contracts/utils/Counters.sol\":918:925  counter */\n      dup2\n        /* \"@openzeppelin/contracts/utils/Counters.sol\":918:932  counter._value */\n      0x00\n      add\n      sload\n        /* \"@openzeppelin/contracts/utils/Counters.sol\":911:932  return counter._value */\n      swap1\n      pop\n        /* \"@openzeppelin/contracts/utils/Counters.sol\":827:939  function current(Counter storage counter) internal view returns (uint256) {... */\n      swap2\n      swap1\n      pop\n      jump\t// out\n        /* \"@openzeppelin/contracts/access/Ownable.sol\":1359:1489  function _checkOwner() internal view virtual {... */\n    tag_169:\n        /* \"@openzeppelin/contracts/access/Ownable.sol\":1433:1445  _msgSender() */\n      tag_259\n        /* \"@openzeppelin/contracts/access/Ownable.sol\":1433:1443  _msgSender */\n      tag_138\n        /* \"@openzeppelin/contracts/access/Ownable.sol\":1433:1445  _msgSender() */\n      jump\t// in\n    tag_259:\n        /* \"@openzeppelin/contracts/access/Ownable.sol\":1422:1445  owner() == _msgSender() */\n      0xffffffffffffffffffffffffffffffffffffffff\n      and\n        /* \"@openzeppelin/contracts/access/Ownable.sol\":1422:1429  owner() */\n      tag_260\n        /* \"@openzeppelin/contracts/access/Ownable.sol\":1422:1427  owner */\n      tag_81\n        /* \"@openzeppelin/contracts/access/Ownable.sol\":1422:1429  owner() */\n      jump\t// in\n    tag_260:\n        /* \"@openzeppelin/contracts/access/Ownable.sol\":1422:1445  owner() == _msgSender() */\n      0xffffffffffffffffffffffffffffffffffffffff\n      and\n      eq\n        /* \"@openzeppelin/contracts/access/Ownable.sol\":1414:1482  require(owner() == _msgSender(), \"Ownable: caller is not the owner\") */\n      tag_261\n      jumpi\n      mload(0x40)\n      0x08c379a000000000000000000000000000000000000000000000000000000000\n      dup2\n      mstore\n      0x04\n      add\n      tag_262\n      swap1\n      tag_263\n      jump\t// in\n    tag_262:\n      mload(0x40)\n      dup1\n      swap2\n      sub\n      swap1\n      revert\n    tag_261:\n        /* \"@openzeppelin/contracts/access/Ownable.sol\":1359:1489  function _checkOwner() internal view virtual {... */\n      jump\t// out\n        /* \"@openzeppelin/contracts/access/Ownable.sol\":2426:2613  function _transferOwnership(address newOwner) internal virtual {... */\n    tag_172:\n        /* \"@openzeppelin/contracts/access/Ownable.sol\":2499:2515  address oldOwner */\n      0x00\n        /* \"@openzeppelin/contracts/access/Ownable.sol\":2518:2524  _owner */\n      0x06\n      0x00\n      swap1\n      sload\n      swap1\n      0x0100\n      exp\n      swap1\n      div\n      0xffffffffffffffffffffffffffffffffffffffff\n      and\n        /* \"@openzeppelin/contracts/access/Ownable.sol\":2499:2524  address oldOwner = _owner */\n      swap1\n      pop\n        /* \"@openzeppelin/contracts/access/Ownable.sol\":2543:2551  newOwner */\n      dup2\n        /* \"@openzeppelin/contracts/access/Ownable.sol\":2534:2540  _owner */\n      0x06\n      0x00\n        /* \"@openzeppelin/contracts/access/Ownable.sol\":2534:2551  _owner = newOwner */\n      0x0100\n      exp\n      dup2\n      sload\n      dup2\n      0xffffffffffffffffffffffffffffffffffffffff\n      mul\n      not\n      and\n      swap1\n      dup4\n      0xffffffffffffffffffffffffffffffffffffffff\n      and\n      mul\n      or\n      swap1\n      sstore\n      pop\n        /* \"@openzeppelin/contracts/access/Ownable.sol\":2597:2605  newOwner */\n      dup2\n        /* \"@openzeppelin/contracts/access/Ownable.sol\":2566:2606  OwnershipTransferred(oldOwner, newOwner) */\n      0xffffffffffffffffffffffffffffffffffffffff\n      and\n        /* \"@openzeppelin/contracts/access/Ownable.sol\":2587:2595  oldOwner */\n      dup2\n        /* \"@openzeppelin/contracts/access/Ownable.sol\":2566:2606  OwnershipTransferred(oldOwner, newOwner) */\n      0xffffffffffffffffffffffffffffffffffffffff\n      and\n      0x8be0079c531659141344cd1fd0a4f28419497f9722a3daafe3b4186f6b6457e0\n      mload(0x40)\n      mload(0x40)\n      dup1\n      swap2\n      sub\n      swap1\n      log3\n        /* \"@openzeppelin/contracts/access/Ownable.sol\":2489:2613  {... */\n      pop\n        /* \"@openzeppelin/contracts/access/Ownable.sol\":2426:2613  function _transferOwnership(address newOwner) internal virtual {... */\n      pop\n      jump\t// out\n        /* \"@openzeppelin/contracts/token/ERC721/ERC721.sol\":9955:10282  function _mint(address to, uint256 tokenId) internal {... */\n    tag_191:\n        /* \"@openzeppelin/contracts/token/ERC721/ERC721.sol\":10036:10037  0 */\n      0x00\n        /* \"@openzeppelin/contracts/token/ERC721/ERC721.sol\":10022:10038  to == address(0) */\n      0xffffffffffffffffffffffffffffffffffffffff\n      and\n        /* \"@openzeppelin/contracts/token/ERC721/ERC721.sol\":10022:10024  to */\n      dup3\n        /* \"@openzeppelin/contracts/token/ERC721/ERC721.sol\":10022:10038  to == address(0) */\n      0xffffffffffffffffffffffffffffffffffffffff\n      and\n      sub\n        /* \"@openzeppelin/contracts/token/ERC721/ERC721.sol\":10018:10105  if (to == address(0)) {... */\n      tag_266\n      jumpi\n        /* \"@openzeppelin/contracts/token/ERC721/ERC721.sol\":10091:10092  0 */\n      0x00\n        /* \"@openzeppelin/contracts/token/ERC721/ERC721.sol\":10061:10094  ERC721InvalidReceiver(address(0)) */\n      mload(0x40)\n      0x64a0ae9200000000000000000000000000000000000000000000000000000000\n      dup2\n      mstore\n      0x04\n      add\n      tag_267\n      swap2\n      swap1\n      tag_43\n      jump\t// in\n    tag_267:\n      mload(0x40)\n      dup1\n      swap2\n      sub\n      swap1\n      revert\n        /* \"@openzeppelin/contracts/token/ERC721/ERC721.sol\":10018:10105  if (to == address(0)) {... */\n    tag_266:\n        /* \"@openzeppelin/contracts/token/ERC721/ERC721.sol\":10114:10135  address previousOwner */\n      0x00\n        /* \"@openzeppelin/contracts/token/ERC721/ERC721.sol\":10138:10170  _update(to, tokenId, address(0)) */\n      tag_268\n        /* \"@openzeppelin/contracts/token/ERC721/ERC721.sol\":10146:10148  to */\n      dup4\n        /* \"@openzeppelin/contracts/token/ERC721/ERC721.sol\":10150:10157  tokenId */\n      dup4\n        /* \"@openzeppelin/contracts/token/ERC721/ERC721.sol\":10167:10168  0 */\n      0x00\n        /* \"@openzeppelin/contracts/token/ERC721/ERC721.sol\":10138:10145  _update */\n      tag_145\n        /* \"@openzeppelin/contracts/token/ERC721/ERC721.sol\":10138:10170  _update(to, tokenId, address(0)) */\n      jump\t// in\n    tag_268:\n        /* \"@openzeppelin/contracts/token/ERC721/ERC721.sol\":10114:10170  address previousOwner = _update(to, tokenId, address(0)) */\n      swap1\n      pop\n        /* \"@openzeppelin/contracts/token/ERC721/ERC721.sol\":10209:10210  0 */\n      0x00\n        /* \"@openzeppelin/contracts/token/ERC721/ERC721.sol\":10184:10211  previousOwner != address(0) */\n      0xffffffffffffffffffffffffffffffffffffffff\n      and\n        /* \"@openzeppelin/contracts/token/ERC721/ERC721.sol\":10184:10197  previousOwner */\n      dup2\n        /* \"@openzeppelin/contracts/token/ERC721/ERC721.sol\":10184:10211  previousOwner != address(0) */\n      0xffffffffffffffffffffffffffffffffffffffff\n      and\n      eq\n        /* \"@openzeppelin/contracts/token/ERC721/ERC721.sol\":10180:10276  if (previousOwner != address(0)) {... */\n      tag_269\n      jumpi\n        /* \"@openzeppelin/contracts/token/ERC721/ERC721.sol\":10262:10263  0 */\n      0x00\n        /* \"@openzeppelin/contracts/token/ERC721/ERC721.sol\":10234:10265  ERC721InvalidSender(address(0)) */\n      mload(0x40)\n      0x73c6ac6e00000000000000000000000000000000000000000000000000000000\n      dup2\n      mstore\n      0x04\n      add\n      tag_270\n      swap2\n      swap1\n      tag_43\n      jump\t// in\n    tag_270:\n      mload(0x40)\n      dup1\n      swap2\n      sub\n      swap1\n      revert\n        /* \"@openzeppelin/contracts/token/ERC721/ERC721.sol\":10180:10276  if (previousOwner != address(0)) {... */\n    tag_269:\n        /* \"@openzeppelin/contracts/token/ERC721/ERC721.sol\":10008:10282  {... */\n      pop\n        /* \"@openzeppelin/contracts/token/ERC721/ERC721.sol\":9955:10282  function _mint(address to, uint256 tokenId) internal {... */\n      pop\n      pop\n      jump\t// out\n        /* \"@openzeppelin/contracts/token/ERC721/ERC721.sol\":15591:15903  function _setApprovalForAll(address owner, address operator, bool approved) internal virtual {... */\n    tag_205:\n        /* \"@openzeppelin/contracts/token/ERC721/ERC721.sol\":15718:15719  0 */\n      0x00\n        /* \"@openzeppelin/contracts/token/ERC721/ERC721.sol\":15698:15720  operator == address(0) */\n      0xffffffffffffffffffffffffffffffffffffffff\n      and\n        /* \"@openzeppelin/contracts/token/ERC721/ERC721.sol\":15698:15706  operator */\n      dup3\n        /* \"@openzeppelin/contracts/token/ERC721/ERC721.sol\":15698:15720  operator == address(0) */\n      0xffffffffffffffffffffffffffffffffffffffff\n      and\n      sub\n        /* \"@openzeppelin/contracts/token/ERC721/ERC721.sol\":15694:15785  if (operator == address(0)) {... */\n      tag_272\n      jumpi\n        /* \"@openzeppelin/contracts/token/ERC721/ERC721.sol\":15765:15773  operator */\n      dup2\n        /* \"@openzeppelin/contracts/token/ERC721/ERC721.sol\":15743:15774  ERC721InvalidOperator(operator) */\n      mload(0x40)\n      0x5b08ba1800000000000000000000000000000000000000000000000000000000\n      dup2\n      mstore\n      0x04\n      add\n      tag_273\n      swap2\n      swap1\n      tag_43\n      jump\t// in\n    tag_273:\n      mload(0x40)\n      dup1\n      swap2\n      sub\n      swap1\n      revert\n        /* \"@openzeppelin/contracts/token/ERC721/ERC721.sol\":15694:15785  if (operator == address(0)) {... */\n    tag_272:\n        /* \"@openzeppelin/contracts/token/ERC721/ERC721.sol\":15832:15840  approved */\n      dup1\n        /* \"@openzeppelin/contracts/token/ERC721/ERC721.sol\":15794:15812  _operatorApprovals */\n      0x05\n        /* \"@openzeppelin/contracts/token/ERC721/ERC721.sol\":15794:15819  _operatorApprovals[owner] */\n      0x00\n        /* \"@openzeppelin/contracts/token/ERC721/ERC721.sol\":15813:15818  owner */\n      dup6\n        /* \"@openzeppelin/contracts/token/ERC721/ERC721.sol\":15794:15819  _operatorApprovals[owner] */\n      0xffffffffffffffffffffffffffffffffffffffff\n      and\n      0xffffffffffffffffffffffffffffffffffffffff\n      and\n      dup2\n      mstore\n      0x20\n      add\n      swap1\n      dup2\n      mstore\n      0x20\n      add\n      0x00\n      keccak256\n        /* \"@openzeppelin/contracts/token/ERC721/ERC721.sol\":15794:15829  _operatorApprovals[owner][operator] */\n      0x00\n        /* \"@openzeppelin/contracts/token/ERC721/ERC721.sol\":15820:15828  operator */\n      dup5\n        /* \"@openzeppelin/contracts/token/ERC721/ERC721.sol\":15794:15829  _operatorApprovals[owner][operator] */\n      0xffffffffffffffffffffffffffffffffffffffff\n      and\n      0xffffffffffffffffffffffffffffffffffffffff\n      and\n      dup2\n      mstore\n      0x20\n      add\n      swap1\n      dup2\n      mstore\n      0x20\n      add\n      0x00\n      keccak256\n      0x00\n        /* \"@openzeppelin/contracts/token/ERC721/ERC721.sol\":15794:15840  _operatorApprovals[owner][operator] = approved */\n      0x0100\n      exp\n      dup2\n      sload\n      dup2\n      0xff\n      mul\n      not\n      and\n      swap1\n      dup4\n      iszero\n      iszero\n      mul\n      or\n      swap1\n      sstore\n      pop\n        /* \"@openzeppelin/contracts/token/ERC721/ERC721.sol\":15877:15885  operator */\n      dup2\n        /* \"@openzeppelin/contracts/token/ERC721/ERC721.sol\":15855:15896  ApprovalForAll(owner, operator, approved) */\n      0xffffffffffffffffffffffffffffffffffffffff\n      and\n        /* \"@openzeppelin/contracts/token/ERC721/ERC721.sol\":15870:15875  owner */\n      dup4\n        /* \"@openzeppelin/contracts/token/ERC721/ERC721.sol\":15855:15896  ApprovalForAll(owner, operator, approved) */\n      0xffffffffffffffffffffffffffffffffffffffff\n      and\n      0x17307eab39ab6107e8899845ad3d59bd9653f200f220920489ca2b5937696c31\n        /* \"@openzeppelin/contracts/token/ERC721/ERC721.sol\":15887:15895  approved */\n      dup4\n        /* \"@openzeppelin/contracts/token/ERC721/ERC721.sol\":15855:15896  ApprovalForAll(owner, operator, approved) */\n      mload(0x40)\n      tag_274\n      swap2\n      swap1\n      tag_33\n      jump\t// in\n    tag_274:\n      mload(0x40)\n      dup1\n      swap2\n      sub\n      swap1\n      log3\n        /* \"@openzeppelin/contracts/token/ERC721/ERC721.sol\":15591:15903  function _setApprovalForAll(address owner, address operator, bool approved) internal virtual {... */\n      pop\n      pop\n      pop\n      jump\t// out\n        /* \"@openzeppelin/contracts/utils/Counters.sol\":945:1068  function increment(Counter storage counter) internal {... */\n    tag_213:\n        /* \"@openzeppelin/contracts/utils/Counters.sol\":1050:1051  1 */\n      0x01\n        /* \"@openzeppelin/contracts/utils/Counters.sol\":1032:1039  counter */\n      dup2\n        /* \"@openzeppelin/contracts/utils/Counters.sol\":1032:1046  counter._value */\n      0x00\n      add\n      0x00\n        /* \"@openzeppelin/contracts/utils/Counters.sol\":1032:1051  counter._value += 1 */\n      dup3\n      dup3\n      sload\n      add\n      swap3\n      pop\n      pop\n      dup2\n      swap1\n      sstore\n      pop\n        /* \"@openzeppelin/contracts/utils/Counters.sol\":945:1068  function increment(Counter storage counter) internal {... */\n      pop\n      jump\t// out\n        /* \"@openzeppelin/contracts/token/ERC721/ERC721.sol\":16918:17700  function _checkOnERC721Received(address from, address to, uint256 tokenId, bytes memory data) private {... */\n    tag_217:\n        /* \"@openzeppelin/contracts/token/ERC721/ERC721.sol\":17051:17052  0 */\n      0x00\n        /* \"@openzeppelin/contracts/token/ERC721/ERC721.sol\":17034:17036  to */\n      dup4\n        /* \"@openzeppelin/contracts/token/ERC721/ERC721.sol\":17034:17048  to.code.length */\n      0xffffffffffffffffffffffffffffffffffffffff\n      and\n      extcodesize\n        /* \"@openzeppelin/contracts/token/ERC721/ERC721.sol\":17034:17052  to.code.length > 0 */\n      gt\n        /* \"@openzeppelin/contracts/token/ERC721/ERC721.sol\":17030:17694  if (to.code.length > 0) {... */\n      iszero\n      tag_277\n      jumpi\n        /* \"@openzeppelin/contracts/token/ERC721/ERC721.sol\":17088:17090  to */\n      dup3\n        /* \"@openzeppelin/contracts/token/ERC721/ERC721.sol\":17072:17108  IERC721Receiver(to).onERC721Received */\n      0xffffffffffffffffffffffffffffffffffffffff\n      and\n      0x150b7a02\n        /* \"@openzeppelin/contracts/token/ERC721/ERC721.sol\":17109:17121  _msgSender() */\n      tag_278\n        /* \"@openzeppelin/contracts/token/ERC721/ERC721.sol\":17109:17119  _msgSender */\n      tag_138\n        /* \"@openzeppelin/contracts/token/ERC721/ERC721.sol\":17109:17121  _msgSender() */\n      jump\t// in\n    tag_278:\n        /* \"@openzeppelin/contracts/token/ERC721/ERC721.sol\":17123:17127  from */\n      dup7\n        /* \"@openzeppelin/contracts/token/ERC721/ERC721.sol\":17129:17136  tokenId */\n      dup6\n        /* \"@openzeppelin/contracts/token/ERC721/ERC721.sol\":17138:17142  data */\n      dup6\n        /* \"@openzeppelin/contracts/token/ERC721/ERC721.sol\":17072:17143  IERC721Receiver(to).onERC721Received(_msgSender(), from, tokenId, data) */\n      mload(0x40)\n      dup6\n      0xffffffff\n      and\n      0xe0\n      shl\n      dup2\n      mstore\n      0x04\n      add\n      tag_279\n      swap5\n      swap4\n      swap3\n      swap2\n      swap1\n      tag_280\n      jump\t// in\n    tag_279:\n      0x20\n      mload(0x40)\n      dup1\n      dup4\n      sub\n      dup2\n      0x00\n      dup8\n      gas\n      call\n      swap3\n      pop\n      pop\n      pop\n      dup1\n      iszero\n      tag_281\n      jumpi\n      pop\n      mload(0x40)\n      returndatasize\n      not(0x1f)\n      0x1f\n      dup3\n      add\n      and\n      dup3\n      add\n      dup1\n      0x40\n      mstore\n      pop\n      dup2\n      add\n      swap1\n      tag_282\n      swap2\n      swap1\n      tag_283\n      jump\t// in\n    tag_282:\n      0x01\n    tag_281:\n        /* \"@openzeppelin/contracts/token/ERC721/ERC721.sol\":17068:17684  try IERC721Receiver(to).onERC721Received(_msgSender(), from, tokenId, data) returns (bytes4 retval) {... */\n      tag_284\n      jumpi\n      returndatasize\n      dup1\n      0x00\n      dup2\n      eq\n      tag_289\n      jumpi\n      mload(0x40)\n      swap2\n      pop\n      and(add(returndatasize, 0x3f), not(0x1f))\n      dup3\n      add\n      0x40\n      mstore\n      returndatasize\n      dup3\n      mstore\n      returndatasize\n      0x00\n      0x20\n      dup5\n      add\n      returndatacopy\n      jump(tag_288)\n    tag_289:\n      0x60\n      swap2\n      pop\n    tag_288:\n      pop\n        /* \"@openzeppelin/contracts/token/ERC721/ERC721.sol\":17398:17399  0 */\n      0x00\n        /* \"@openzeppelin/contracts/token/ERC721/ERC721.sol\":17381:17387  reason */\n      dup2\n        /* \"@openzeppelin/contracts/token/ERC721/ERC721.sol\":17381:17394  reason.length */\n      mload\n        /* \"@openzeppelin/contracts/token/ERC721/ERC721.sol\":17381:17399  reason.length == 0 */\n      sub\n        /* \"@openzeppelin/contracts/token/ERC721/ERC721.sol\":17377:17670  if (reason.length == 0) {... */\n      tag_290\n      jumpi\n        /* \"@openzeppelin/contracts/token/ERC721/ERC721.sol\":17452:17454  to */\n      dup4\n        /* \"@openzeppelin/contracts/token/ERC721/ERC721.sol\":17430:17455  ERC721InvalidReceiver(to) */\n      mload(0x40)\n      0x64a0ae9200000000000000000000000000000000000000000000000000000000\n      dup2\n      mstore\n      0x04\n      add\n      tag_291\n      swap2\n      swap1\n      tag_43\n      jump\t// in\n    tag_291:\n      mload(0x40)\n      dup1\n      swap2\n      sub\n      swap1\n      revert\n        /* \"@openzeppelin/contracts/token/ERC721/ERC721.sol\":17377:17670  if (reason.length == 0) {... */\n    tag_290:\n        /* \"@openzeppelin/contracts/token/ERC721/ERC721.sol\":17622:17628  reason */\n      dup1\n        /* \"@openzeppelin/contracts/token/ERC721/ERC721.sol\":17616:17629  mload(reason) */\n      mload\n        /* \"@openzeppelin/contracts/token/ERC721/ERC721.sol\":17607:17613  reason */\n      dup2\n        /* \"@openzeppelin/contracts/token/ERC721/ERC721.sol\":17603:17605  32 */\n      0x20\n        /* \"@openzeppelin/contracts/token/ERC721/ERC721.sol\":17599:17614  add(32, reason) */\n      add\n        /* \"@openzeppelin/contracts/token/ERC721/ERC721.sol\":17592:17630  revert(add(32, reason), mload(reason)) */\n      revert\n        /* \"@openzeppelin/contracts/token/ERC721/ERC721.sol\":17068:17684  try IERC721Receiver(to).onERC721Received(_msgSender(), from, tokenId, data) returns (bytes4 retval) {... */\n    tag_284:\n        /* \"@openzeppelin/contracts/token/ERC721/ERC721.sol\":17200:17241  IERC721Receiver.onERC721Received.selector */\n      shl(0xe0, 0x150b7a02)\n        /* \"@openzeppelin/contracts/token/ERC721/ERC721.sol\":17190:17241  retval != IERC721Receiver.onERC721Received.selector */\n      not(0xffffffffffffffffffffffffffffffffffffffffffffffffffffffff)\n      and\n        /* \"@openzeppelin/contracts/token/ERC721/ERC721.sol\":17190:17196  retval */\n      dup2\n        /* \"@openzeppelin/contracts/token/ERC721/ERC721.sol\":17190:17241  retval != IERC721Receiver.onERC721Received.selector */\n      not(0xffffffffffffffffffffffffffffffffffffffffffffffffffffffff)\n      and\n      eq\n        /* \"@openzeppelin/contracts/token/ERC721/ERC721.sol\":17186:17316  if (retval != IERC721Receiver.onERC721Received.selector) {... */\n      tag_294\n      jumpi\n        /* \"@openzeppelin/contracts/token/ERC721/ERC721.sol\":17294:17296  to */\n      dup4\n        /* \"@openzeppelin/contracts/token/ERC721/ERC721.sol\":17272:17297  ERC721InvalidReceiver(to) */\n      mload(0x40)\n      0x64a0ae9200000000000000000000000000000000000000000000000000000000\n      dup2\n      mstore\n      0x04\n      add\n      tag_295\n      swap2\n      swap1\n      tag_43\n      jump\t// in\n    tag_295:\n      mload(0x40)\n      dup1\n      swap2\n      sub\n      swap1\n      revert\n        /* \"@openzeppelin/contracts/token/ERC721/ERC721.sol\":17186:17316  if (retval != IERC721Receiver.onERC721Received.selector) {... */\n    tag_294:\n        /* \"@openzeppelin/contracts/token/ERC721/ERC721.sol\":17144:17330  returns (bytes4 retval) {... */\n      pop\n        /* \"@openzeppelin/contracts/token/ERC721/ERC721.sol\":17030:17694  if (to.code.length > 0) {... */\n    tag_277:\n        /* \"@openzeppelin/contracts/token/ERC721/ERC721.sol\":16918:17700  function _checkOnERC721Received(address from, address to, uint256 tokenId, bytes memory data) private {... */\n      pop\n      pop\n      pop\n      pop\n      jump\t// out\n        /* \"@openzeppelin/contracts/token/ERC721/ERC721.sol\":3174:3266  function _baseURI() internal view virtual returns (string memory) {... */\n    tag_221:\n        /* \"@openzeppelin/contracts/token/ERC721/ERC721.sol\":3225:3238  string memory */\n      0x60\n        /* \"@openzeppelin/contracts/token/ERC721/ERC721.sol\":3250:3259  return \"\" */\n      mload(0x40)\n      dup1\n      0x20\n      add\n      0x40\n      mstore\n      dup1\n      0x00\n      dup2\n      mstore\n      pop\n      swap1\n      pop\n        /* \"@openzeppelin/contracts/token/ERC721/ERC721.sol\":3174:3266  function _baseURI() internal view virtual returns (string memory) {... */\n      swap1\n      jump\t// out\n        /* \"@openzeppelin/contracts/utils/Strings.sol\":637:1335  function toString(uint256 value) internal pure returns (string memory) {... */\n    tag_225:\n        /* \"@openzeppelin/contracts/utils/Strings.sol\":693:706  string memory */\n      0x60\n        /* \"@openzeppelin/contracts/utils/Strings.sol\":742:756  uint256 length */\n      0x00\n        /* \"@openzeppelin/contracts/utils/Strings.sol\":779:780  1 */\n      0x01\n        /* \"@openzeppelin/contracts/utils/Strings.sol\":759:776  Math.log10(value) */\n      tag_298\n        /* \"@openzeppelin/contracts/utils/Strings.sol\":770:775  value */\n      dup5\n        /* \"@openzeppelin/contracts/utils/Strings.sol\":759:769  Math.log10 */\n      tag_299\n        /* \"@openzeppelin/contracts/utils/Strings.sol\":759:776  Math.log10(value) */\n      jump\t// in\n    tag_298:\n        /* \"@openzeppelin/contracts/utils/Strings.sol\":759:780  Math.log10(value) + 1 */\n      add\n        /* \"@openzeppelin/contracts/utils/Strings.sol\":742:780  uint256 length = Math.log10(value) + 1 */\n      swap1\n      pop\n        /* \"@openzeppelin/contracts/utils/Strings.sol\":794:814  string memory buffer */\n      0x00\n        /* \"@openzeppelin/contracts/utils/Strings.sol\":828:834  length */\n      dup2\n        /* \"@openzeppelin/contracts/utils/Strings.sol\":817:835  new string(length) */\n      0xffffffffffffffff\n      dup2\n      gt\n      iszero\n      tag_300\n      jumpi\n      tag_301\n      tag_302\n      jump\t// in\n    tag_301:\n    tag_300:\n      mload(0x40)\n      swap1\n      dup1\n      dup3\n      mstore\n      dup1\n      0x1f\n      add\n      not(0x1f)\n      and\n      0x20\n      add\n      dup3\n      add\n      0x40\n      mstore\n      dup1\n      iszero\n      tag_303\n      jumpi\n      dup2\n      0x20\n      add\n      0x01\n      dup3\n      mul\n      dup1\n      calldatasize\n      dup4\n      calldatacopy\n      dup1\n      dup3\n      add\n      swap2\n      pop\n      pop\n      swap1\n      pop\n    tag_303:\n      pop\n        /* \"@openzeppelin/contracts/utils/Strings.sol\":794:835  string memory buffer = new string(length) */\n      swap1\n      pop\n        /* \"@openzeppelin/contracts/utils/Strings.sol\":849:860  uint256 ptr */\n      0x00\n        /* \"@openzeppelin/contracts/utils/Strings.sol\":975:981  length */\n      dup3\n        /* \"@openzeppelin/contracts/utils/Strings.sol\":971:973  32 */\n      0x20\n        /* \"@openzeppelin/contracts/utils/Strings.sol\":967:982  add(32, length) */\n      add\n        /* \"@openzeppelin/contracts/utils/Strings.sol\":959:965  buffer */\n      dup3\n        /* \"@openzeppelin/contracts/utils/Strings.sol\":955:983  add(buffer, add(32, length)) */\n      add\n        /* \"@openzeppelin/contracts/utils/Strings.sol\":948:983  ptr := add(buffer, add(32, length)) */\n      swap1\n      pop\n        /* \"@openzeppelin/contracts/utils/Strings.sol\":1010:1292  while (true) {... */\n    tag_304:\n        /* \"@openzeppelin/contracts/utils/Strings.sol\":1017:1021  true */\n      0x01\n        /* \"@openzeppelin/contracts/utils/Strings.sol\":1010:1292  while (true) {... */\n      iszero\n      tag_305\n      jumpi\n        /* \"@openzeppelin/contracts/utils/Strings.sol\":1041:1046  ptr-- */\n      dup1\n      dup1\n      0x01\n      swap1\n      sub\n      swap2\n      pop\n      pop\n        /* \"@openzeppelin/contracts/utils/Strings.sol\":1180:1190  HEX_DIGITS */\n      0x3031323334353637383961626364656600000000000000000000000000000000\n        /* \"@openzeppelin/contracts/utils/Strings.sol\":1175:1177  10 */\n      0x0a\n        /* \"@openzeppelin/contracts/utils/Strings.sol\":1168:1173  value */\n      dup7\n        /* \"@openzeppelin/contracts/utils/Strings.sol\":1164:1178  mod(value, 10) */\n      mod\n        /* \"@openzeppelin/contracts/utils/Strings.sol\":1159:1191  byte(mod(value, 10), HEX_DIGITS) */\n      byte\n        /* \"@openzeppelin/contracts/utils/Strings.sol\":1154:1157  ptr */\n      dup2\n        /* \"@openzeppelin/contracts/utils/Strings.sol\":1146:1192  mstore8(ptr, byte(mod(value, 10), HEX_DIGITS)) */\n      mstore8\n        /* \"@openzeppelin/contracts/utils/Strings.sol\":1236:1238  10 */\n      0x0a\n        /* \"@openzeppelin/contracts/utils/Strings.sol\":1227:1238  value /= 10 */\n      dup6\n      dup2\n      tag_306\n      jumpi\n      tag_307\n      tag_308\n      jump\t// in\n    tag_307:\n    tag_306:\n      div\n      swap5\n      pop\n        /* \"@openzeppelin/contracts/utils/Strings.sol\":1269:1270  0 */\n      0x00\n        /* \"@openzeppelin/contracts/utils/Strings.sol\":1260:1265  value */\n      dup6\n        /* \"@openzeppelin/contracts/utils/Strings.sol\":1260:1270  value == 0 */\n      sub\n        /* \"@openzeppelin/contracts/utils/Strings.sol\":1010:1292  while (true) {... */\n      tag_304\n        /* \"@openzeppelin/contracts/utils/Strings.sol\":1256:1277  if (value == 0) break */\n      jumpi\n        /* \"@openzeppelin/contracts/utils/Strings.sol\":1010:1292  while (true) {... */\n    tag_305:\n        /* \"@openzeppelin/contracts/utils/Strings.sol\":1312:1318  buffer */\n      dup2\n        /* \"@openzeppelin/contracts/utils/Strings.sol\":1305:1318  return buffer */\n      swap4\n      pop\n      pop\n      pop\n      pop\n        /* \"@openzeppelin/contracts/utils/Strings.sol\":637:1335  function toString(uint256 value) internal pure returns (string memory) {... */\n      swap2\n      swap1\n      pop\n      jump\t// out\n        /* \"@openzeppelin/contracts/token/ERC721/ERC721.sol\":5707:5822  function _ownerOf(uint256 tokenId) internal view virtual returns (address) {... */\n    tag_241:\n        /* \"@openzeppelin/contracts/token/ERC721/ERC721.sol\":5773:5780  address */\n      0x00\n        /* \"@openzeppelin/contracts/token/ERC721/ERC721.sol\":5799:5806  _owners */\n      0x02\n        /* \"@openzeppelin/contracts/token/ERC721/ERC721.sol\":5799:5815  _owners[tokenId] */\n      0x00\n        /* \"@openzeppelin/contracts/token/ERC721/ERC721.sol\":5807:5814  tokenId */\n      dup4\n        /* \"@openzeppelin/contracts/token/ERC721/ERC721.sol\":5799:5815  _owners[tokenId] */\n      dup2\n      mstore\n      0x20\n      add\n      swap1\n      dup2\n      mstore\n      0x20\n      add\n      0x00\n      keccak256\n      0x00\n      swap1\n      sload\n      swap1\n      0x0100\n      exp\n      swap1\n      div\n      0xffffffffffffffffffffffffffffffffffffffff\n      and\n        /* \"@openzeppelin/contracts/token/ERC721/ERC721.sol\":5792:5815  return _owners[tokenId] */\n      swap1\n      pop\n        /* \"@openzeppelin/contracts/token/ERC721/ERC721.sol\":5707:5822  function _ownerOf(uint256 tokenId) internal view virtual returns (address) {... */\n      swap2\n      swap1\n      pop\n      jump\t// out\n        /* \"@openzeppelin/contracts/token/ERC721/ERC721.sol\":14720:15382  function _approve(address to, uint256 tokenId, address auth, bool emitEvent) internal virtual {... */\n    tag_248:\n        /* \"@openzeppelin/contracts/token/ERC721/ERC721.sol\":14880:14889  emitEvent */\n      dup1\n        /* \"@openzeppelin/contracts/token/ERC721/ERC721.sol\":14880:14911  emitEvent || auth != address(0) */\n      dup1\n      tag_312\n      jumpi\n      pop\n        /* \"@openzeppelin/contracts/token/ERC721/ERC721.sol\":14909:14910  0 */\n      0x00\n        /* \"@openzeppelin/contracts/token/ERC721/ERC721.sol\":14893:14911  auth != address(0) */\n      0xffffffffffffffffffffffffffffffffffffffff\n      and\n        /* \"@openzeppelin/contracts/token/ERC721/ERC721.sol\":14893:14897  auth */\n      dup3\n        /* \"@openzeppelin/contracts/token/ERC721/ERC721.sol\":14893:14911  auth != address(0) */\n      0xffffffffffffffffffffffffffffffffffffffff\n      and\n      eq\n      iszero\n        /* \"@openzeppelin/contracts/token/ERC721/ERC721.sol\":14880:14911  emitEvent || auth != address(0) */\n    tag_312:\n        /* \"@openzeppelin/contracts/token/ERC721/ERC721.sol\":14876:15336  if (emitEvent || auth != address(0)) {... */\n      iszero\n      tag_313\n      jumpi\n        /* \"@openzeppelin/contracts/token/ERC721/ERC721.sol\":14927:14940  address owner */\n      0x00\n        /* \"@openzeppelin/contracts/token/ERC721/ERC721.sol\":14943:14965  _requireOwned(tokenId) */\n      tag_314\n        /* \"@openzeppelin/contracts/token/ERC721/ERC721.sol\":14957:14964  tokenId */\n      dup5\n        /* \"@openzeppelin/contracts/token/ERC721/ERC721.sol\":14943:14956  _requireOwned */\n      tag_132\n        /* \"@openzeppelin/contracts/token/ERC721/ERC721.sol\":14943:14965  _requireOwned(tokenId) */\n      jump\t// in\n    tag_314:\n        /* \"@openzeppelin/contracts/token/ERC721/ERC721.sol\":14927:14965  address owner = _requireOwned(tokenId) */\n      swap1\n      pop\n        /* \"@openzeppelin/contracts/token/ERC721/ERC721.sol\":15109:15110  0 */\n      0x00\n        /* \"@openzeppelin/contracts/token/ERC721/ERC721.sol\":15093:15111  auth != address(0) */\n      0xffffffffffffffffffffffffffffffffffffffff\n      and\n        /* \"@openzeppelin/contracts/token/ERC721/ERC721.sol\":15093:15097  auth */\n      dup4\n        /* \"@openzeppelin/contracts/token/ERC721/ERC721.sol\":15093:15111  auth != address(0) */\n      0xffffffffffffffffffffffffffffffffffffffff\n      and\n      eq\n      iszero\n        /* \"@openzeppelin/contracts/token/ERC721/ERC721.sol\":15093:15128  auth != address(0) && owner != auth */\n      dup1\n      iszero\n      tag_315\n      jumpi\n      pop\n        /* \"@openzeppelin/contracts/token/ERC721/ERC721.sol\":15124:15128  auth */\n      dup3\n        /* \"@openzeppelin/contracts/token/ERC721/ERC721.sol\":15115:15128  owner != auth */\n      0xffffffffffffffffffffffffffffffffffffffff\n      and\n        /* \"@openzeppelin/contracts/token/ERC721/ERC721.sol\":15115:15120  owner */\n      dup2\n        /* \"@openzeppelin/contracts/token/ERC721/ERC721.sol\":15115:15128  owner != auth */\n      0xffffffffffffffffffffffffffffffffffffffff\n      and\n      eq\n      iszero\n        /* \"@openzeppelin/contracts/token/ERC721/ERC721.sol\":15093:15128  auth != address(0) && owner != auth */\n    tag_315:\n        /* \"@openzeppelin/contracts/token/ERC721/ERC721.sol\":15093:15162  auth != address(0) && owner != auth && !isApprovedForAll(owner, auth) */\n      dup1\n      iszero\n      tag_316\n      jumpi\n      pop\n        /* \"@openzeppelin/contracts/token/ERC721/ERC721.sol\":15133:15162  isApprovedForAll(owner, auth) */\n      tag_317\n        /* \"@openzeppelin/contracts/token/ERC721/ERC721.sol\":15150:15155  owner */\n      dup2\n        /* \"@openzeppelin/contracts/token/ERC721/ERC721.sol\":15157:15161  auth */\n      dup5\n        /* \"@openzeppelin/contracts/token/ERC721/ERC721.sol\":15133:15149  isApprovedForAll */\n      tag_109\n        /* \"@openzeppelin/contracts/token/ERC721/ERC721.sol\":15133:15162  isApprovedForAll(owner, auth) */\n      jump\t// in\n    tag_317:\n        /* \"@openzeppelin/contracts/token/ERC721/ERC721.sol\":15132:15162  !isApprovedForAll(owner, auth) */\n      iszero\n        /* \"@openzeppelin/contracts/token/ERC721/ERC721.sol\":15093:15162  auth != address(0) && owner != auth && !isApprovedForAll(owner, auth) */\n    tag_316:\n        /* \"@openzeppelin/contracts/token/ERC721/ERC721.sol\":15089:15231  if (auth != address(0) && owner != auth && !isApprovedForAll(owner, auth)) {... */\n      iszero\n      tag_318\n      jumpi\n        /* \"@openzeppelin/contracts/token/ERC721/ERC721.sol\":15211:15215  auth */\n      dup3\n        /* \"@openzeppelin/contracts/token/ERC721/ERC721.sol\":15189:15216  ERC721InvalidApprover(auth) */\n      mload(0x40)\n      0xa9fbf51f00000000000000000000000000000000000000000000000000000000\n      dup2\n      mstore\n      0x04\n      add\n      tag_319\n      swap2\n      swap1\n      tag_43\n      jump\t// in\n    tag_319:\n      mload(0x40)\n      dup1\n      swap2\n      sub\n      swap1\n      revert\n        /* \"@openzeppelin/contracts/token/ERC721/ERC721.sol\":15089:15231  if (auth != address(0) && owner != auth && !isApprovedForAll(owner, auth)) {... */\n    tag_318:\n        /* \"@openzeppelin/contracts/token/ERC721/ERC721.sol\":15249:15258  emitEvent */\n      dup2\n        /* \"@openzeppelin/contracts/token/ERC721/ERC721.sol\":15245:15326  if (emitEvent) {... */\n      iszero\n      tag_320\n      jumpi\n        /* \"@openzeppelin/contracts/token/ERC721/ERC721.sol\":15303:15310  tokenId */\n      dup4\n        /* \"@openzeppelin/contracts/token/ERC721/ERC721.sol\":15299:15301  to */\n      dup6\n        /* \"@openzeppelin/contracts/token/ERC721/ERC721.sol\":15283:15311  Approval(owner, to, tokenId) */\n      0xffffffffffffffffffffffffffffffffffffffff\n      and\n        /* \"@openzeppelin/contracts/token/ERC721/ERC721.sol\":15292:15297  owner */\n      dup3\n        /* \"@openzeppelin/contracts/token/ERC721/ERC721.sol\":15283:15311  Approval(owner, to, tokenId) */\n      0xffffffffffffffffffffffffffffffffffffffff\n      and\n      0x8c5be1e5ebec7d5bd14f71427d1e84f3dd0314c0f7b2291e5b200ac8c7c3b925\n      mload(0x40)\n      mload(0x40)\n      dup1\n      swap2\n      sub\n      swap1\n      log4\n        /* \"@openzeppelin/contracts/token/ERC721/ERC721.sol\":15245:15326  if (emitEvent) {... */\n    tag_320:\n        /* \"@openzeppelin/contracts/token/ERC721/ERC721.sol\":14913:15336  {... */\n      pop\n        /* \"@openzeppelin/contracts/token/ERC721/ERC721.sol\":14876:15336  if (emitEvent || auth != address(0)) {... */\n    tag_313:\n        /* \"@openzeppelin/contracts/token/ERC721/ERC721.sol\":15373:15375  to */\n      dup4\n        /* \"@openzeppelin/contracts/token/ERC721/ERC721.sol\":15346:15361  _tokenApprovals */\n      0x04\n        /* \"@openzeppelin/contracts/token/ERC721/ERC721.sol\":15346:15370  _tokenApprovals[tokenId] */\n      0x00\n        /* \"@openzeppelin/contracts/token/ERC721/ERC721.sol\":15362:15369  tokenId */\n      dup6\n        /* \"@openzeppelin/contracts/token/ERC721/ERC721.sol\":15346:15370  _tokenApprovals[tokenId] */\n      dup2\n      mstore\n      0x20\n      add\n      swap1\n      dup2\n      mstore\n      0x20\n      add\n      0x00\n      keccak256\n      0x00\n        /* \"@openzeppelin/contracts/token/ERC721/ERC721.sol\":15346:15375  _tokenApprovals[tokenId] = to */\n      0x0100\n      exp\n      dup2\n      sload\n      dup2\n      0xffffffffffffffffffffffffffffffffffffffff\n      mul\n      not\n      and\n      swap1\n      dup4\n      0xffffffffffffffffffffffffffffffffffffffff\n      and\n      mul\n      or\n      swap1\n      sstore\n      pop\n        /* \"@openzeppelin/contracts/token/ERC721/ERC721.sol\":14720:15382  function _approve(address to, uint256 tokenId, address auth, bool emitEvent) internal virtual {... */\n      pop\n      pop\n      pop\n      pop\n      jump\t// out\n        /* \"@openzeppelin/contracts/token/ERC721/ERC721.sol\":7082:7450  function _checkAuthorized(address owner, address spender, uint256 tokenId) internal view virtual {... */\n    tag_253:\n        /* \"@openzeppelin/contracts/token/ERC721/ERC721.sol\":7194:7232  _isAuthorized(owner, spender, tokenId) */\n      tag_322\n        /* \"@openzeppelin/contracts/token/ERC721/ERC721.sol\":7208:7213  owner */\n      dup4\n        /* \"@openzeppelin/contracts/token/ERC721/ERC721.sol\":7215:7222  spender */\n      dup4\n        /* \"@openzeppelin/contracts/token/ERC721/ERC721.sol\":7224:7231  tokenId */\n      dup4\n        /* \"@openzeppelin/contracts/token/ERC721/ERC721.sol\":7194:7207  _isAuthorized */\n      tag_323\n        /* \"@openzeppelin/contracts/token/ERC721/ERC721.sol\":7194:7232  _isAuthorized(owner, spender, tokenId) */\n      jump\t// in\n    tag_322:\n        /* \"@openzeppelin/contracts/token/ERC721/ERC721.sol\":7189:7444  if (!_isAuthorized(owner, spender, tokenId)) {... */\n      tag_324\n      jumpi\n        /* \"@openzeppelin/contracts/token/ERC721/ERC721.sol\":7269:7270  0 */\n      0x00\n        /* \"@openzeppelin/contracts/token/ERC721/ERC721.sol\":7252:7271  owner == address(0) */\n      0xffffffffffffffffffffffffffffffffffffffff\n      and\n        /* \"@openzeppelin/contracts/token/ERC721/ERC721.sol\":7252:7257  owner */\n      dup4\n        /* \"@openzeppelin/contracts/token/ERC721/ERC721.sol\":7252:7271  owner == address(0) */\n      0xffffffffffffffffffffffffffffffffffffffff\n      and\n      sub\n        /* \"@openzeppelin/contracts/token/ERC721/ERC721.sol\":7248:7434  if (owner == address(0)) {... */\n      tag_325\n      jumpi\n        /* \"@openzeppelin/contracts/token/ERC721/ERC721.sol\":7321:7328  tokenId */\n      dup1\n        /* \"@openzeppelin/contracts/token/ERC721/ERC721.sol\":7298:7329  ERC721NonexistentToken(tokenId) */\n      mload(0x40)\n      0x7e27328900000000000000000000000000000000000000000000000000000000\n      dup2\n      mstore\n      0x04\n      add\n      tag_326\n      swap2\n      swap1\n      tag_69\n      jump\t// in\n    tag_326:\n      mload(0x40)\n      dup1\n      swap2\n      sub\n      swap1\n      revert\n        /* \"@openzeppelin/contracts/token/ERC721/ERC721.sol\":7248:7434  if (owner == address(0)) {... */\n    tag_325:\n        /* \"@openzeppelin/contracts/token/ERC721/ERC721.sol\":7402:7409  spender */\n      dup2\n        /* \"@openzeppelin/contracts/token/ERC721/ERC721.sol\":7411:7418  tokenId */\n      dup2\n        /* \"@openzeppelin/contracts/token/ERC721/ERC721.sol\":7375:7419  ERC721InsufficientApproval(spender, tokenId) */\n      mload(0x40)\n      0x177e802f00000000000000000000000000000000000000000000000000000000\n      dup2\n      mstore\n      0x04\n      add\n      tag_328\n      swap3\n      swap2\n      swap1\n      tag_329\n      jump\t// in\n    tag_328:\n      mload(0x40)\n      dup1\n      swap2\n      sub\n      swap1\n      revert\n        /* \"@openzeppelin/contracts/token/ERC721/ERC721.sol\":7189:7444  if (!_isAuthorized(owner, spender, tokenId)) {... */\n    tag_324:\n        /* \"@openzeppelin/contracts/token/ERC721/ERC721.sol\":7082:7450  function _checkAuthorized(address owner, address spender, uint256 tokenId) internal view virtual {... */\n      pop\n      pop\n      pop\n      jump\t// out\n        /* \"@openzeppelin/contracts/utils/math/Math.sol\":12214:13130  function log10(uint256 value) internal pure returns (uint256) {... */\n    tag_299:\n        /* \"@openzeppelin/contracts/utils/math/Math.sol\":12267:12274  uint256 */\n      0x00\n        /* \"@openzeppelin/contracts/utils/math/Math.sol\":12286:12300  uint256 result */\n      dup1\n        /* \"@openzeppelin/contracts/utils/math/Math.sol\":12303:12304  0 */\n      0x00\n        /* \"@openzeppelin/contracts/utils/math/Math.sol\":12286:12304  uint256 result = 0 */\n      swap1\n      pop\n        /* \"@openzeppelin/contracts/utils/math/Math.sol\":12351:12359  10 ** 64 */\n      0x184f03e93ff9f4daa797ed6e38ed64bf6a1f010000000000000000\n        /* \"@openzeppelin/contracts/utils/math/Math.sol\":12342:12347  value */\n      dup4\n        /* \"@openzeppelin/contracts/utils/math/Math.sol\":12342:12359  value >= 10 ** 64 */\n      lt\n        /* \"@openzeppelin/contracts/utils/math/Math.sol\":12338:12441  if (value >= 10 ** 64) {... */\n      tag_331\n      jumpi\n        /* \"@openzeppelin/contracts/utils/math/Math.sol\":12388:12396  10 ** 64 */\n      0x184f03e93ff9f4daa797ed6e38ed64bf6a1f010000000000000000\n        /* \"@openzeppelin/contracts/utils/math/Math.sol\":12379:12396  value /= 10 ** 64 */\n      dup4\n      dup2\n      tag_332\n      jumpi\n      tag_333\n      tag_308\n      jump\t// in\n    tag_333:\n    tag_332:\n      div\n      swap3\n      pop\n        /* \"@openzeppelin/contracts/utils/math/Math.sol\":12424:12426  64 */\n      0x40\n        /* \"@openzeppelin/contracts/utils/math/Math.sol\":12414:12426  result += 64 */\n      dup2\n      add\n      swap1\n      pop\n        /* \"@openzeppelin/contracts/utils/math/Math.sol\":12338:12441  if (value >= 10 ** 64) {... */\n    tag_331:\n        /* \"@openzeppelin/contracts/utils/math/Math.sol\":12467:12475  10 ** 32 */\n      0x04ee2d6d415b85acef8100000000\n        /* \"@openzeppelin/contracts/utils/math/Math.sol\":12458:12463  value */\n      dup4\n        /* \"@openzeppelin/contracts/utils/math/Math.sol\":12458:12475  value >= 10 ** 32 */\n      lt\n        /* \"@openzeppelin/contracts/utils/math/Math.sol\":12454:12557  if (value >= 10 ** 32) {... */\n      tag_334\n      jumpi\n        /* \"@openzeppelin/contracts/utils/math/Math.sol\":12504:12512  10 ** 32 */\n      0x04ee2d6d415b85acef8100000000\n        /* \"@openzeppelin/contracts/utils/math/Math.sol\":12495:12512  value /= 10 ** 32 */\n      dup4\n      dup2\n      tag_335\n      jumpi\n      tag_336\n      tag_308\n      jump\t// in\n    tag_336:\n    tag_335:\n      div\n      swap3\n      pop\n        /* \"@openzeppelin/contracts/utils/math/Math.sol\":12540:12542  32 */\n      0x20\n        /* \"@openzeppelin/contracts/utils/math/Math.sol\":12530:12542  result += 32 */\n      dup2\n      add\n      swap1\n      pop\n        /* \"@openzeppelin/contracts/utils/math/Math.sol\":12454:12557  if (value >= 10 ** 32) {... */\n    tag_334:\n        /* \"@openzeppelin/contracts/utils/math/Math.sol\":12583:12591  10 ** 16 */\n      0x2386f26fc10000\n        /* \"@openzeppelin/contracts/utils/math/Math.sol\":12574:12579  value */\n      dup4\n        /* \"@openzeppelin/contracts/utils/math/Math.sol\":12574:12591  value >= 10 ** 16 */\n      lt\n        /* \"@openzeppelin/contracts/utils/math/Math.sol\":12570:12673  if (value >= 10 ** 16) {... */\n      tag_337\n      jumpi\n        /* \"@openzeppelin/contracts/utils/math/Math.sol\":12620:12628  10 ** 16 */\n      0x2386f26fc10000\n        /* \"@openzeppelin/contracts/utils/math/Math.sol\":12611:12628  value /= 10 ** 16 */\n      dup4\n      dup2\n      tag_338\n      jumpi\n      tag_339\n      tag_308\n      jump\t// in\n    tag_339:\n    tag_338:\n      div\n      swap3\n      pop\n        /* \"@openzeppelin/contracts/utils/math/Math.sol\":12656:12658  16 */\n      0x10\n        /* \"@openzeppelin/contracts/utils/math/Math.sol\":12646:12658  result += 16 */\n      dup2\n      add\n      swap1\n      pop\n        /* \"@openzeppelin/contracts/utils/math/Math.sol\":12570:12673  if (value >= 10 ** 16) {... */\n    tag_337:\n        /* \"@openzeppelin/contracts/utils/math/Math.sol\":12699:12706  10 ** 8 */\n      0x05f5e100\n        /* \"@openzeppelin/contracts/utils/math/Math.sol\":12690:12695  value */\n      dup4\n        /* \"@openzeppelin/contracts/utils/math/Math.sol\":12690:12706  value >= 10 ** 8 */\n      lt\n        /* \"@openzeppelin/contracts/utils/math/Math.sol\":12686:12786  if (value >= 10 ** 8) {... */\n      tag_340\n      jumpi\n        /* \"@openzeppelin/contracts/utils/math/Math.sol\":12735:12742  10 ** 8 */\n      0x05f5e100\n        /* \"@openzeppelin/contracts/utils/math/Math.sol\":12726:12742  value /= 10 ** 8 */\n      dup4\n      dup2\n      tag_341\n      jumpi\n      tag_342\n      tag_308\n      jump\t// in\n    tag_342:\n    tag_341:\n      div\n      swap3\n      pop\n        /* \"@openzeppelin/contracts/utils/math/Math.sol\":12770:12771  8 */\n      0x08\n        /* \"@openzeppelin/contracts/utils/math/Math.sol\":12760:12771  result += 8 */\n      dup2\n      add\n      swap1\n      pop\n        /* \"@openzeppelin/contracts/utils/math/Math.sol\":12686:12786  if (value >= 10 ** 8) {... */\n    tag_340:\n        /* \"@openzeppelin/contracts/utils/math/Math.sol\":12812:12819  10 ** 4 */\n      0x2710\n        /* \"@openzeppelin/contracts/utils/math/Math.sol\":12803:12808  value */\n      dup4\n        /* \"@openzeppelin/contracts/utils/math/Math.sol\":12803:12819  value >= 10 ** 4 */\n      lt\n        /* \"@openzeppelin/contracts/utils/math/Math.sol\":12799:12899  if (value >= 10 ** 4) {... */\n      tag_343\n      jumpi\n        /* \"@openzeppelin/contracts/utils/math/Math.sol\":12848:12855  10 ** 4 */\n      0x2710\n        /* \"@openzeppelin/contracts/utils/math/Math.sol\":12839:12855  value /= 10 ** 4 */\n      dup4\n      dup2\n      tag_344\n      jumpi\n      tag_345\n      tag_308\n      jump\t// in\n    tag_345:\n    tag_344:\n      div\n      swap3\n      pop\n        /* \"@openzeppelin/contracts/utils/math/Math.sol\":12883:12884  4 */\n      0x04\n        /* \"@openzeppelin/contracts/utils/math/Math.sol\":12873:12884  result += 4 */\n      dup2\n      add\n      swap1\n      pop\n        /* \"@openzeppelin/contracts/utils/math/Math.sol\":12799:12899  if (value >= 10 ** 4) {... */\n    tag_343:\n        /* \"@openzeppelin/contracts/utils/math/Math.sol\":12925:12932  10 ** 2 */\n      0x64\n        /* \"@openzeppelin/contracts/utils/math/Math.sol\":12916:12921  value */\n      dup4\n        /* \"@openzeppelin/contracts/utils/math/Math.sol\":12916:12932  value >= 10 ** 2 */\n      lt\n        /* \"@openzeppelin/contracts/utils/math/Math.sol\":12912:13012  if (value >= 10 ** 2) {... */\n      tag_346\n      jumpi\n        /* \"@openzeppelin/contracts/utils/math/Math.sol\":12961:12968  10 ** 2 */\n      0x64\n        /* \"@openzeppelin/contracts/utils/math/Math.sol\":12952:12968  value /= 10 ** 2 */\n      dup4\n      dup2\n      tag_347\n      jumpi\n      tag_348\n      tag_308\n      jump\t// in\n    tag_348:\n    tag_347:\n      div\n      swap3\n      pop\n        /* \"@openzeppelin/contracts/utils/math/Math.sol\":12996:12997  2 */\n      0x02\n        /* \"@openzeppelin/contracts/utils/math/Math.sol\":12986:12997  result += 2 */\n      dup2\n      add\n      swap1\n      pop\n        /* \"@openzeppelin/contracts/utils/math/Math.sol\":12912:13012  if (value >= 10 ** 2) {... */\n    tag_346:\n        /* \"@openzeppelin/contracts/utils/math/Math.sol\":13038:13045  10 ** 1 */\n      0x0a\n        /* \"@openzeppelin/contracts/utils/math/Math.sol\":13029:13034  value */\n      dup4\n        /* \"@openzeppelin/contracts/utils/math/Math.sol\":13029:13045  value >= 10 ** 1 */\n      lt\n        /* \"@openzeppelin/contracts/utils/math/Math.sol\":13025:13091  if (value >= 10 ** 1) {... */\n      tag_349\n      jumpi\n        /* \"@openzeppelin/contracts/utils/math/Math.sol\":13075:13076  1 */\n      0x01\n        /* \"@openzeppelin/contracts/utils/math/Math.sol\":13065:13076  result += 1 */\n      dup2\n      add\n      swap1\n      pop\n        /* \"@openzeppelin/contracts/utils/math/Math.sol\":13025:13091  if (value >= 10 ** 1) {... */\n    tag_349:\n        /* \"@openzeppelin/contracts/utils/math/Math.sol\":13117:13123  result */\n      dup1\n        /* \"@openzeppelin/contracts/utils/math/Math.sol\":13110:13123  return result */\n      swap2\n      pop\n      pop\n        /* \"@openzeppelin/contracts/utils/math/Math.sol\":12214:13130  function log10(uint256 value) internal pure returns (uint256) {... */\n      swap2\n      swap1\n      pop\n      jump\t// out\n        /* \"@openzeppelin/contracts/token/ERC721/ERC721.sol\":6376:6648  function _isAuthorized(address owner, address spender, uint256 tokenId) internal view virtual returns (bool) {... */\n    tag_323:\n        /* \"@openzeppelin/contracts/token/ERC721/ERC721.sol\":6479:6483  bool */\n      0x00\n        /* \"@openzeppelin/contracts/token/ERC721/ERC721.sol\":6533:6534  0 */\n      dup1\n        /* \"@openzeppelin/contracts/token/ERC721/ERC721.sol\":6514:6535  spender != address(0) */\n      0xffffffffffffffffffffffffffffffffffffffff\n      and\n        /* \"@openzeppelin/contracts/token/ERC721/ERC721.sol\":6514:6521  spender */\n      dup4\n        /* \"@openzeppelin/contracts/token/ERC721/ERC721.sol\":6514:6535  spender != address(0) */\n      0xffffffffffffffffffffffffffffffffffffffff\n      and\n      eq\n      iszero\n        /* \"@openzeppelin/contracts/token/ERC721/ERC721.sol\":6514:6641  spender != address(0) &&... */\n      dup1\n      iszero\n      tag_351\n      jumpi\n      pop\n        /* \"@openzeppelin/contracts/token/ERC721/ERC721.sol\":6561:6568  spender */\n      dup3\n        /* \"@openzeppelin/contracts/token/ERC721/ERC721.sol\":6552:6568  owner == spender */\n      0xffffffffffffffffffffffffffffffffffffffff\n      and\n        /* \"@openzeppelin/contracts/token/ERC721/ERC721.sol\":6552:6557  owner */\n      dup5\n        /* \"@openzeppelin/contracts/token/ERC721/ERC721.sol\":6552:6568  owner == spender */\n      0xffffffffffffffffffffffffffffffffffffffff\n      and\n      eq\n        /* \"@openzeppelin/contracts/token/ERC721/ERC721.sol\":6552:6604  owner == spender || isApprovedForAll(owner, spender) */\n      dup1\n      tag_352\n      jumpi\n      pop\n        /* \"@openzeppelin/contracts/token/ERC721/ERC721.sol\":6572:6604  isApprovedForAll(owner, spender) */\n      tag_353\n        /* \"@openzeppelin/contracts/token/ERC721/ERC721.sol\":6589:6594  owner */\n      dup5\n        /* \"@openzeppelin/contracts/token/ERC721/ERC721.sol\":6596:6603  spender */\n      dup5\n        /* \"@openzeppelin/contracts/token/ERC721/ERC721.sol\":6572:6588  isApprovedForAll */\n      tag_109\n        /* \"@openzeppelin/contracts/token/ERC721/ERC721.sol\":6572:6604  isApprovedForAll(owner, spender) */\n      jump\t// in\n    tag_353:\n        /* \"@openzeppelin/contracts/token/ERC721/ERC721.sol\":6552:6604  owner == spender || isApprovedForAll(owner, spender) */\n    tag_352:\n        /* \"@openzeppelin/contracts/token/ERC721/ERC721.sol\":6552:6640  owner == spender || isApprovedForAll(owner, spender) || _getApproved(tokenId) == spender */\n      dup1\n      tag_354\n      jumpi\n      pop\n        /* \"@openzeppelin/contracts/token/ERC721/ERC721.sol\":6633:6640  spender */\n      dup3\n        /* \"@openzeppelin/contracts/token/ERC721/ERC721.sol\":6608:6640  _getApproved(tokenId) == spender */\n      0xffffffffffffffffffffffffffffffffffffffff\n      and\n        /* \"@openzeppelin/contracts/token/ERC721/ERC721.sol\":6608:6629  _getApproved(tokenId) */\n      tag_355\n        /* \"@openzeppelin/contracts/token/ERC721/ERC721.sol\":6621:6628  tokenId */\n      dup4\n        /* \"@openzeppelin/contracts/token/ERC721/ERC721.sol\":6608:6620  _getApproved */\n      tag_134\n        /* \"@openzeppelin/contracts/token/ERC721/ERC721.sol\":6608:6629  _getApproved(tokenId) */\n      jump\t// in\n    tag_355:\n        /* \"@openzeppelin/contracts/token/ERC721/ERC721.sol\":6608:6640  _getApproved(tokenId) == spender */\n      0xffffffffffffffffffffffffffffffffffffffff\n      and\n      eq\n        /* \"@openzeppelin/contracts/token/ERC721/ERC721.sol\":6552:6640  owner == spender || isApprovedForAll(owner, spender) || _getApproved(tokenId) == spender */\n    tag_354:\n        /* \"@openzeppelin/contracts/token/ERC721/ERC721.sol\":6514:6641  spender != address(0) &&... */\n    tag_351:\n        /* \"@openzeppelin/contracts/token/ERC721/ERC721.sol\":6495:6641  return... */\n      swap1\n      pop\n        /* \"@openzeppelin/contracts/token/ERC721/ERC721.sol\":6376:6648  function _isAuthorized(address owner, address spender, uint256 tokenId) internal view virtual returns (bool) {... */\n      swap4\n      swap3\n      pop\n      pop\n      pop\n      jump\t// out\n        /* \"#utility.yul\":7:82   */\n    tag_356:\n        /* \"#utility.yul\":40:46   */\n      0x00\n        /* \"#utility.yul\":73:75   */\n      0x40\n        /* \"#utility.yul\":67:76   */\n      mload\n        /* \"#utility.yul\":57:76   */\n      swap1\n      pop\n        /* \"#utility.yul\":7:82   */\n      swap1\n      jump\t// out\n        /* \"#utility.yul\":88:205   */\n    tag_357:\n        /* \"#utility.yul\":197:198   */\n      0x00\n        /* \"#utility.yul\":194:195   */\n      dup1\n        /* \"#utility.yul\":187:199   */\n      revert\n        /* \"#utility.yul\":211:328   */\n    tag_358:\n        /* \"#utility.yul\":320:321   */\n      0x00\n        /* \"#utility.yul\":317:318   */\n      dup1\n        /* \"#utility.yul\":310:322   */\n      revert\n        /* \"#utility.yul\":334:483   */\n    tag_359:\n        /* \"#utility.yul\":370:377   */\n      0x00\n        /* \"#utility.yul\":410:476   */\n      0xffffffff00000000000000000000000000000000000000000000000000000000\n        /* \"#utility.yul\":403:408   */\n      dup3\n        /* \"#utility.yul\":399:477   */\n      and\n        /* \"#utility.yul\":388:477   */\n      swap1\n      pop\n        /* \"#utility.yul\":334:483   */\n      swap2\n      swap1\n      pop\n      jump\t// out\n        /* \"#utility.yul\":489:609   */\n    tag_360:\n        /* \"#utility.yul\":561:584   */\n      tag_432\n        /* \"#utility.yul\":578:583   */\n      dup2\n        /* \"#utility.yul\":561:584   */\n      tag_359\n      jump\t// in\n    tag_432:\n        /* \"#utility.yul\":554:559   */\n      dup2\n        /* \"#utility.yul\":551:585   */\n      eq\n        /* \"#utility.yul\":541:603   */\n      tag_433\n      jumpi\n        /* \"#utility.yul\":599:600   */\n      0x00\n        /* \"#utility.yul\":596:597   */\n      dup1\n        /* \"#utility.yul\":589:601   */\n      revert\n        /* \"#utility.yul\":541:603   */\n    tag_433:\n        /* \"#utility.yul\":489:609   */\n      pop\n      jump\t// out\n        /* \"#utility.yul\":615:752   */\n    tag_361:\n        /* \"#utility.yul\":660:665   */\n      0x00\n        /* \"#utility.yul\":698:704   */\n      dup2\n        /* \"#utility.yul\":685:705   */\n      calldataload\n        /* \"#utility.yul\":676:705   */\n      swap1\n      pop\n        /* \"#utility.yul\":714:746   */\n      tag_435\n        /* \"#utility.yul\":740:745   */\n      dup2\n        /* \"#utility.yul\":714:746   */\n      tag_360\n      jump\t// in\n    tag_435:\n        /* \"#utility.yul\":615:752   */\n      swap3\n      swap2\n      pop\n      pop\n      jump\t// out\n        /* \"#utility.yul\":758:1085   */\n    tag_30:\n        /* \"#utility.yul\":816:822   */\n      0x00\n        /* \"#utility.yul\":865:867   */\n      0x20\n        /* \"#utility.yul\":853:862   */\n      dup3\n        /* \"#utility.yul\":844:851   */\n      dup5\n        /* \"#utility.yul\":840:863   */\n      sub\n        /* \"#utility.yul\":836:868   */\n      slt\n        /* \"#utility.yul\":833:952   */\n      iszero\n      tag_437\n      jumpi\n        /* \"#utility.yul\":871:950   */\n      tag_438\n      tag_357\n      jump\t// in\n    tag_438:\n        /* \"#utility.yul\":833:952   */\n    tag_437:\n        /* \"#utility.yul\":991:992   */\n      0x00\n        /* \"#utility.yul\":1016:1068   */\n      tag_439\n        /* \"#utility.yul\":1060:1067   */\n      dup5\n        /* \"#utility.yul\":1051:1057   */\n      dup3\n        /* \"#utility.yul\":1040:1049   */\n      dup6\n        /* \"#utility.yul\":1036:1058   */\n      add\n        /* \"#utility.yul\":1016:1068   */\n      tag_361\n      jump\t// in\n    tag_439:\n        /* \"#utility.yul\":1006:1068   */\n      swap2\n      pop\n        /* \"#utility.yul\":962:1078   */\n      pop\n        /* \"#utility.yul\":758:1085   */\n      swap3\n      swap2\n      pop\n      pop\n      jump\t// out\n        /* \"#utility.yul\":1091:1181   */\n    tag_362:\n        /* \"#utility.yul\":1125:1132   */\n      0x00\n        /* \"#utility.yul\":1168:1173   */\n      dup2\n        /* \"#utility.yul\":1161:1174   */\n      iszero\n        /* \"#utility.yul\":1154:1175   */\n      iszero\n        /* \"#utility.yul\":1143:1175   */\n      swap1\n      pop\n        /* \"#utility.yul\":1091:1181   */\n      swap2\n      swap1\n      pop\n      jump\t// out\n        /* \"#utility.yul\":1187:1296   */\n    tag_363:\n        /* \"#utility.yul\":1268:1289   */\n      tag_442\n        /* \"#utility.yul\":1283:1288   */\n      dup2\n        /* \"#utility.yul\":1268:1289   */\n      tag_362\n      jump\t// in\n    tag_442:\n        /* \"#utility.yul\":1263:1266   */\n      dup3\n        /* \"#utility.yul\":1256:1290   */\n      mstore\n        /* \"#utility.yul\":1187:1296   */\n      pop\n      pop\n      jump\t// out\n        /* \"#utility.yul\":1302:1512   */\n    tag_33:\n        /* \"#utility.yul\":1389:1393   */\n      0x00\n        /* \"#utility.yul\":1427:1429   */\n      0x20\n        /* \"#utility.yul\":1416:1425   */\n      dup3\n        /* \"#utility.yul\":1412:1430   */\n      add\n        /* \"#utility.yul\":1404:1430   */\n      swap1\n      pop\n        /* \"#utility.yul\":1440:1505   */\n      tag_444\n        /* \"#utility.yul\":1502:1503   */\n      0x00\n        /* \"#utility.yul\":1491:1500   */\n      dup4\n        /* \"#utility.yul\":1487:1504   */\n      add\n        /* \"#utility.yul\":1478:1484   */\n      dup5\n        /* \"#utility.yul\":1440:1505   */\n      tag_363\n      jump\t// in\n    tag_444:\n        /* \"#utility.yul\":1302:1512   */\n      swap3\n      swap2\n      pop\n      pop\n      jump\t// out\n        /* \"#utility.yul\":1518:1617   */\n    tag_364:\n        /* \"#utility.yul\":1570:1576   */\n      0x00\n        /* \"#utility.yul\":1604:1609   */\n      dup2\n        /* \"#utility.yul\":1598:1610   */\n      mload\n        /* \"#utility.yul\":1588:1610   */\n      swap1\n      pop\n        /* \"#utility.yul\":1518:1617   */\n      swap2\n      swap1\n      pop\n      jump\t// out\n        /* \"#utility.yul\":1623:1792   */\n    tag_365:\n        /* \"#utility.yul\":1707:1718   */\n      0x00\n        /* \"#utility.yul\":1741:1747   */\n      dup3\n        /* \"#utility.yul\":1736:1739   */\n      dup3\n        /* \"#utility.yul\":1729:1748   */\n      mstore\n        /* \"#utility.yul\":1781:1785   */\n      0x20\n        /* \"#utility.yul\":1776:1779   */\n      dup3\n        /* \"#utility.yul\":1772:1786   */\n      add\n        /* \"#utility.yul\":1757:1786   */\n      swap1\n      pop\n        /* \"#utility.yul\":1623:1792   */\n      swap3\n      swap2\n      pop\n      pop\n      jump\t// out\n        /* \"#utility.yul\":1798:2044   */\n    tag_366:\n        /* \"#utility.yul\":1879:1880   */\n      0x00\n        /* \"#utility.yul\":1889:2002   */\n    tag_448:\n        /* \"#utility.yul\":1903:1909   */\n      dup4\n        /* \"#utility.yul\":1900:1901   */\n      dup2\n        /* \"#utility.yul\":1897:1910   */\n      lt\n        /* \"#utility.yul\":1889:2002   */\n      iszero\n      tag_450\n      jumpi\n        /* \"#utility.yul\":1988:1989   */\n      dup1\n        /* \"#utility.yul\":1983:1986   */\n      dup3\n        /* \"#utility.yul\":1979:1990   */\n      add\n        /* \"#utility.yul\":1973:1991   */\n      mload\n        /* \"#utility.yul\":1969:1970   */\n      dup2\n        /* \"#utility.yul\":1964:1967   */\n      dup5\n        /* \"#utility.yul\":1960:1971   */\n      add\n        /* \"#utility.yul\":1953:1992   */\n      mstore\n        /* \"#utility.yul\":1925:1927   */\n      0x20\n        /* \"#utility.yul\":1922:1923   */\n      dup2\n        /* \"#utility.yul\":1918:1928   */\n      add\n        /* \"#utility.yul\":1913:1928   */\n      swap1\n      pop\n        /* \"#utility.yul\":1889:2002   */\n      jump(tag_448)\n    tag_450:\n        /* \"#utility.yul\":2036:2037   */\n      0x00\n        /* \"#utility.yul\":2027:2033   */\n      dup5\n        /* \"#utility.yul\":2022:2025   */\n      dup5\n        /* \"#utility.yul\":2018:2034   */\n      add\n        /* \"#utility.yul\":2011:2038   */\n      mstore\n        /* \"#utility.yul\":1860:2044   */\n      pop\n        /* \"#utility.yul\":1798:2044   */\n      pop\n      pop\n      pop\n      jump\t// out\n        /* \"#utility.yul\":2050:2152   */\n    tag_367:\n        /* \"#utility.yul\":2091:2097   */\n      0x00\n        /* \"#utility.yul\":2142:2144   */\n      0x1f\n        /* \"#utility.yul\":2138:2145   */\n      not\n        /* \"#utility.yul\":2133:2135   */\n      0x1f\n        /* \"#utility.yul\":2126:2131   */\n      dup4\n        /* \"#utility.yul\":2122:2136   */\n      add\n        /* \"#utility.yul\":2118:2146   */\n      and\n        /* \"#utility.yul\":2108:2146   */\n      swap1\n      pop\n        /* \"#utility.yul\":2050:2152   */\n      swap2\n      swap1\n      pop\n      jump\t// out\n        /* \"#utility.yul\":2158:2535   */\n    tag_368:\n        /* \"#utility.yul\":2246:2249   */\n      0x00\n        /* \"#utility.yul\":2274:2313   */\n      tag_453\n        /* \"#utility.yul\":2307:2312   */\n      dup3\n        /* \"#utility.yul\":2274:2313   */\n      tag_364\n      jump\t// in\n    tag_453:\n        /* \"#utility.yul\":2329:2400   */\n      tag_454\n        /* \"#utility.yul\":2393:2399   */\n      dup2\n        /* \"#utility.yul\":2388:2391   */\n      dup6\n        /* \"#utility.yul\":2329:2400   */\n      tag_365\n      jump\t// in\n    tag_454:\n        /* \"#utility.yul\":2322:2400   */\n      swap4\n      pop\n        /* \"#utility.yul\":2409:2474   */\n      tag_455\n        /* \"#utility.yul\":2467:2473   */\n      dup2\n        /* \"#utility.yul\":2462:2465   */\n      dup6\n        /* \"#utility.yul\":2455:2459   */\n      0x20\n        /* \"#utility.yul\":2448:2453   */\n      dup7\n        /* \"#utility.yul\":2444:2460   */\n      add\n        /* \"#utility.yul\":2409:2474   */\n      tag_366\n      jump\t// in\n    tag_455:\n        /* \"#utility.yul\":2499:2528   */\n      tag_456\n        /* \"#utility.yul\":2521:2527   */\n      dup2\n        /* \"#utility.yul\":2499:2528   */\n      tag_367\n      jump\t// in\n    tag_456:\n        /* \"#utility.yul\":2494:2497   */\n      dup5\n        /* \"#utility.yul\":2490:2529   */\n      add\n        /* \"#utility.yul\":2483:2529   */\n      swap2\n      pop\n        /* \"#utility.yul\":2250:2535   */\n      pop\n        /* \"#utility.yul\":2158:2535   */\n      swap3\n      swap2\n      pop\n      pop\n      jump\t// out\n        /* \"#utility.yul\":2541:2854   */\n    tag_37:\n        /* \"#utility.yul\":2654:2658   */\n      0x00\n        /* \"#utility.yul\":2692:2694   */\n      0x20\n        /* \"#utility.yul\":2681:2690   */\n      dup3\n        /* \"#utility.yul\":2677:2695   */\n      add\n        /* \"#utility.yul\":2669:2695   */\n      swap1\n      pop\n        /* \"#utility.yul\":2741:2750   */\n      dup2\n        /* \"#utility.yul\":2735:2739   */\n      dup2\n        /* \"#utility.yul\":2731:2751   */\n      sub\n        /* \"#utility.yul\":2727:2728   */\n      0x00\n        /* \"#utility.yul\":2716:2725   */\n      dup4\n        /* \"#utility.yul\":2712:2729   */\n      add\n        /* \"#utility.yul\":2705:2752   */\n      mstore\n        /* \"#utility.yul\":2769:2847   */\n      tag_458\n        /* \"#utility.yul\":2842:2846   */\n      dup2\n        /* \"#utility.yul\":2833:2839   */\n      dup5\n        /* \"#utility.yul\":2769:2847   */\n      tag_368\n      jump\t// in\n    tag_458:\n        /* \"#utility.yul\":2761:2847   */\n      swap1\n      pop\n        /* \"#utility.yul\":2541:2854   */\n      swap3\n      swap2\n      pop\n      pop\n      jump\t// out\n        /* \"#utility.yul\":2860:2937   */\n    tag_369:\n        /* \"#utility.yul\":2897:2904   */\n      0x00\n        /* \"#utility.yul\":2926:2931   */\n      dup2\n        /* \"#utility.yul\":2915:2931   */\n      swap1\n      pop\n        /* \"#utility.yul\":2860:2937   */\n      swap2\n      swap1\n      pop\n      jump\t// out\n        /* \"#utility.yul\":2943:3065   */\n    tag_370:\n        /* \"#utility.yul\":3016:3040   */\n      tag_461\n        /* \"#utility.yul\":3034:3039   */\n      dup2\n        /* \"#utility.yul\":3016:3040   */\n      tag_369\n      jump\t// in\n    tag_461:\n        /* \"#utility.yul\":3009:3014   */\n      dup2\n        /* \"#utility.yul\":3006:3041   */\n      eq\n        /* \"#utility.yul\":2996:3059   */\n      tag_462\n      jumpi\n        /* \"#utility.yul\":3055:3056   */\n      0x00\n        /* \"#utility.yul\":3052:3053   */\n      dup1\n        /* \"#utility.yul\":3045:3057   */\n      revert\n        /* \"#utility.yul\":2996:3059   */\n    tag_462:\n        /* \"#utility.yul\":2943:3065   */\n      pop\n      jump\t// out\n        /* \"#utility.yul\":3071:3210   */\n    tag_371:\n        /* \"#utility.yul\":3117:3122   */\n      0x00\n        /* \"#utility.yul\":3155:3161   */\n      dup2\n        /* \"#utility.yul\":3142:3162   */\n      calldataload\n        /* \"#utility.yul\":3133:3162   */\n      swap1\n      pop\n        /* \"#utility.yul\":3171:3204   */\n      tag_464\n        /* \"#utility.yul\":3198:3203   */\n      dup2\n        /* \"#utility.yul\":3171:3204   */\n      tag_370\n      jump\t// in\n    tag_464:\n        /* \"#utility.yul\":3071:3210   */\n      swap3\n      swap2\n      pop\n      pop\n      jump\t// out\n        /* \"#utility.yul\":3216:3545   */\n    tag_40:\n        /* \"#utility.yul\":3275:3281   */\n      0x00\n        /* \"#utility.yul\":3324:3326   */\n      0x20\n        /* \"#utility.yul\":3312:3321   */\n      dup3\n        /* \"#utility.yul\":3303:3310   */\n      dup5\n        /* \"#utility.yul\":3299:3322   */\n      sub\n        /* \"#utility.yul\":3295:3327   */\n      slt\n        /* \"#utility.yul\":3292:3411   */\n      iszero\n      tag_466\n      jumpi\n        /* \"#utility.yul\":3330:3409   */\n      tag_467\n      tag_357\n      jump\t// in\n    tag_467:\n        /* \"#utility.yul\":3292:3411   */\n    tag_466:\n        /* \"#utility.yul\":3450:3451   */\n      0x00\n        /* \"#utility.yul\":3475:3528   */\n      tag_468\n        /* \"#utility.yul\":3520:3527   */\n      dup5\n        /* \"#utility.yul\":3511:3517   */\n      dup3\n        /* \"#utility.yul\":3500:3509   */\n      dup6\n        /* \"#utility.yul\":3496:3518   */\n      add\n        /* \"#utility.yul\":3475:3528   */\n      tag_371\n      jump\t// in\n    tag_468:\n        /* \"#utility.yul\":3465:3528   */\n      swap2\n      pop\n        /* \"#utility.yul\":3421:3538   */\n      pop\n        /* \"#utility.yul\":3216:3545   */\n      swap3\n      swap2\n      pop\n      pop\n      jump\t// out\n        /* \"#utility.yul\":3551:3677   */\n    tag_372:\n        /* \"#utility.yul\":3588:3595   */\n      0x00\n        /* \"#utility.yul\":3628:3670   */\n      0xffffffffffffffffffffffffffffffffffffffff\n        /* \"#utility.yul\":3621:3626   */\n      dup3\n        /* \"#utility.yul\":3617:3671   */\n      and\n        /* \"#utility.yul\":3606:3671   */\n      swap1\n      pop\n        /* \"#utility.yul\":3551:3677   */\n      swap2\n      swap1\n      pop\n      jump\t// out\n        /* \"#utility.yul\":3683:3779   */\n    tag_373:\n        /* \"#utility.yul\":3720:3727   */\n      0x00\n        /* \"#utility.yul\":3749:3773   */\n      tag_471\n        /* \"#utility.yul\":3767:3772   */\n      dup3\n        /* \"#utility.yul\":3749:3773   */\n      tag_372\n      jump\t// in\n    tag_471:\n        /* \"#utility.yul\":3738:3773   */\n      swap1\n      pop\n        /* \"#utility.yul\":3683:3779   */\n      swap2\n      swap1\n      pop\n      jump\t// out\n        /* \"#utility.yul\":3785:3903   */\n    tag_374:\n        /* \"#utility.yul\":3872:3896   */\n      tag_473\n        /* \"#utility.yul\":3890:3895   */\n      dup2\n        /* \"#utility.yul\":3872:3896   */\n      tag_373\n      jump\t// in\n    tag_473:\n        /* \"#utility.yul\":3867:3870   */\n      dup3\n        /* \"#utility.yul\":3860:3897   */\n      mstore\n        /* \"#utility.yul\":3785:3903   */\n      pop\n      pop\n      jump\t// out\n        /* \"#utility.yul\":3909:4131   */\n    tag_43:\n        /* \"#utility.yul\":4002:4006   */\n      0x00\n        /* \"#utility.yul\":4040:4042   */\n      0x20\n        /* \"#utility.yul\":4029:4038   */\n      dup3\n        /* \"#utility.yul\":4025:4043   */\n      add\n        /* \"#utility.yul\":4017:4043   */\n      swap1\n      pop\n        /* \"#utility.yul\":4053:4124   */\n      tag_475\n        /* \"#utility.yul\":4121:4122   */\n      0x00\n        /* \"#utility.yul\":4110:4119   */\n      dup4\n        /* \"#utility.yul\":4106:4123   */\n      add\n        /* \"#utility.yul\":4097:4103   */\n      dup5\n        /* \"#utility.yul\":4053:4124   */\n      tag_374\n      jump\t// in\n    tag_475:\n        /* \"#utility.yul\":3909:4131   */\n      swap3\n      swap2\n      pop\n      pop\n      jump\t// out\n        /* \"#utility.yul\":4137:4259   */\n    tag_375:\n        /* \"#utility.yul\":4210:4234   */\n      tag_477\n        /* \"#utility.yul\":4228:4233   */\n      dup2\n        /* \"#utility.yul\":4210:4234   */\n      tag_373\n      jump\t// in\n    tag_477:\n        /* \"#utility.yul\":4203:4208   */\n      dup2\n        /* \"#utility.yul\":4200:4235   */\n      eq\n        /* \"#utility.yul\":4190:4253   */\n      tag_478\n      jumpi\n        /* \"#utility.yul\":4249:4250   */\n      0x00\n        /* \"#utility.yul\":4246:4247   */\n      dup1\n        /* \"#utility.yul\":4239:4251   */\n      revert\n        /* \"#utility.yul\":4190:4253   */\n    tag_478:\n        /* \"#utility.yul\":4137:4259   */\n      pop\n      jump\t// out\n        /* \"#utility.yul\":4265:4404   */\n    tag_376:\n        /* \"#utility.yul\":4311:4316   */\n      0x00\n        /* \"#utility.yul\":4349:4355   */\n      dup2\n        /* \"#utility.yul\":4336:4356   */\n      calldataload\n        /* \"#utility.yul\":4327:4356   */\n      swap1\n      pop\n        /* \"#utility.yul\":4365:4398   */\n      tag_480\n        /* \"#utility.yul\":4392:4397   */\n      dup2\n        /* \"#utility.yul\":4365:4398   */\n      tag_375\n      jump\t// in\n    tag_480:\n        /* \"#utility.yul\":4265:4404   */\n      swap3\n      swap2\n      pop\n      pop\n      jump\t// out\n        /* \"#utility.yul\":4410:4884   */\n    tag_46:\n        /* \"#utility.yul\":4478:4484   */\n      0x00\n        /* \"#utility.yul\":4486:4492   */\n      dup1\n        /* \"#utility.yul\":4535:4537   */\n      0x40\n        /* \"#utility.yul\":4523:4532   */\n      dup4\n        /* \"#utility.yul\":4514:4521   */\n      dup6\n        /* \"#utility.yul\":4510:4533   */\n      sub\n        /* \"#utility.yul\":4506:4538   */\n      slt\n        /* \"#utility.yul\":4503:4622   */\n      iszero\n      tag_482\n      jumpi\n        /* \"#utility.yul\":4541:4620   */\n      tag_483\n      tag_357\n      jump\t// in\n    tag_483:\n        /* \"#utility.yul\":4503:4622   */\n    tag_482:\n        /* \"#utility.yul\":4661:4662   */\n      0x00\n        /* \"#utility.yul\":4686:4739   */\n      tag_484\n        /* \"#utility.yul\":4731:4738   */\n      dup6\n        /* \"#utility.yul\":4722:4728   */\n      dup3\n        /* \"#utility.yul\":4711:4720   */\n      dup7\n        /* \"#utility.yul\":4707:4729   */\n      add\n        /* \"#utility.yul\":4686:4739   */\n      tag_376\n      jump\t// in\n    tag_484:\n        /* \"#utility.yul\":4676:4739   */\n      swap3\n      pop\n        /* \"#utility.yul\":4632:4749   */\n      pop\n        /* \"#utility.yul\":4788:4790   */\n      0x20\n        /* \"#utility.yul\":4814:4867   */\n      tag_485\n        /* \"#utility.yul\":4859:4866   */\n      dup6\n        /* \"#utility.yul\":4850:4856   */\n      dup3\n        /* \"#utility.yul\":4839:4848   */\n      dup7\n        /* \"#utility.yul\":4835:4857   */\n      add\n        /* \"#utility.yul\":4814:4867   */\n      tag_371\n      jump\t// in\n    tag_485:\n        /* \"#utility.yul\":4804:4867   */\n      swap2\n      pop\n        /* \"#utility.yul\":4759:4877   */\n      pop\n        /* \"#utility.yul\":4410:4884   */\n      swap3\n      pop\n      swap3\n      swap1\n      pop\n      jump\t// out\n        /* \"#utility.yul\":4890:5509   */\n    tag_50:\n        /* \"#utility.yul\":4967:4973   */\n      0x00\n        /* \"#utility.yul\":4975:4981   */\n      dup1\n        /* \"#utility.yul\":4983:4989   */\n      0x00\n        /* \"#utility.yul\":5032:5034   */\n      0x60\n        /* \"#utility.yul\":5020:5029   */\n      dup5\n        /* \"#utility.yul\":5011:5018   */\n      dup7\n        /* \"#utility.yul\":5007:5030   */\n      sub\n        /* \"#utility.yul\":5003:5035   */\n      slt\n        /* \"#utility.yul\":5000:5119   */\n      iszero\n      tag_487\n      jumpi\n        /* \"#utility.yul\":5038:5117   */\n      tag_488\n      tag_357\n      jump\t// in\n    tag_488:\n        /* \"#utility.yul\":5000:5119   */\n    tag_487:\n        /* \"#utility.yul\":5158:5159   */\n      0x00\n        /* \"#utility.yul\":5183:5236   */\n      tag_489\n        /* \"#utility.yul\":5228:5235   */\n      dup7\n        /* \"#utility.yul\":5219:5225   */\n      dup3\n        /* \"#utility.yul\":5208:5217   */\n      dup8\n        /* \"#utility.yul\":5204:5226   */\n      add\n        /* \"#utility.yul\":5183:5236   */\n      tag_376\n      jump\t// in\n    tag_489:\n        /* \"#utility.yul\":5173:5236   */\n      swap4\n      pop\n        /* \"#utility.yul\":5129:5246   */\n      pop\n        /* \"#utility.yul\":5285:5287   */\n      0x20\n        /* \"#utility.yul\":5311:5364   */\n      tag_490\n        /* \"#utility.yul\":5356:5363   */\n      dup7\n        /* \"#utility.yul\":5347:5353   */\n      dup3\n        /* \"#utility.yul\":5336:5345   */\n      dup8\n        /* \"#utility.yul\":5332:5354   */\n      add\n        /* \"#utility.yul\":5311:5364   */\n      tag_376\n      jump\t// in\n    tag_490:\n        /* \"#utility.yul\":5301:5364   */\n      swap3\n      pop\n        /* \"#utility.yul\":5256:5374   */\n      pop\n        /* \"#utility.yul\":5413:5415   */\n      0x40\n        /* \"#utility.yul\":5439:5492   */\n      tag_491\n        /* \"#utility.yul\":5484:5491   */\n      dup7\n        /* \"#utility.yul\":5475:5481   */\n      dup3\n        /* \"#utility.yul\":5464:5473   */\n      dup8\n        /* \"#utility.yul\":5460:5482   */\n      add\n        /* \"#utility.yul\":5439:5492   */\n      tag_371\n      jump\t// in\n    tag_491:\n        /* \"#utility.yul\":5429:5492   */\n      swap2\n      pop\n        /* \"#utility.yul\":5384:5502   */\n      pop\n        /* \"#utility.yul\":4890:5509   */\n      swap3\n      pop\n      swap3\n      pop\n      swap3\n      jump\t// out\n        /* \"#utility.yul\":5515:5633   */\n    tag_377:\n        /* \"#utility.yul\":5602:5626   */\n      tag_493\n        /* \"#utility.yul\":5620:5625   */\n      dup2\n        /* \"#utility.yul\":5602:5626   */\n      tag_369\n      jump\t// in\n    tag_493:\n        /* \"#utility.yul\":5597:5600   */\n      dup3\n        /* \"#utility.yul\":5590:5627   */\n      mstore\n        /* \"#utility.yul\":5515:5633   */\n      pop\n      pop\n      jump\t// out\n        /* \"#utility.yul\":5639:6062   */\n    tag_59:\n        /* \"#utility.yul\":5780:5784   */\n      0x00\n        /* \"#utility.yul\":5818:5820   */\n      0x40\n        /* \"#utility.yul\":5807:5816   */\n      dup3\n        /* \"#utility.yul\":5803:5821   */\n      add\n        /* \"#utility.yul\":5795:5821   */\n      swap1\n      pop\n        /* \"#utility.yul\":5867:5876   */\n      dup2\n        /* \"#utility.yul\":5861:5865   */\n      dup2\n        /* \"#utility.yul\":5857:5877   */\n      sub\n        /* \"#utility.yul\":5853:5854   */\n      0x00\n        /* \"#utility.yul\":5842:5851   */\n      dup4\n        /* \"#utility.yul\":5838:5855   */\n      add\n        /* \"#utility.yul\":5831:5878   */\n      mstore\n        /* \"#utility.yul\":5895:5973   */\n      tag_495\n        /* \"#utility.yul\":5968:5972   */\n      dup2\n        /* \"#utility.yul\":5959:5965   */\n      dup6\n        /* \"#utility.yul\":5895:5973   */\n      tag_368\n      jump\t// in\n    tag_495:\n        /* \"#utility.yul\":5887:5973   */\n      swap1\n      pop\n        /* \"#utility.yul\":5983:6055   */\n      tag_496\n        /* \"#utility.yul\":6051:6053   */\n      0x20\n        /* \"#utility.yul\":6040:6049   */\n      dup4\n        /* \"#utility.yul\":6036:6054   */\n      add\n        /* \"#utility.yul\":6027:6033   */\n      dup5\n        /* \"#utility.yul\":5983:6055   */\n      tag_377\n      jump\t// in\n    tag_496:\n        /* \"#utility.yul\":5639:6062   */\n      swap4\n      swap3\n      pop\n      pop\n      pop\n      jump\t// out\n        /* \"#utility.yul\":6068:6397   */\n    tag_66:\n        /* \"#utility.yul\":6127:6133   */\n      0x00\n        /* \"#utility.yul\":6176:6178   */\n      0x20\n        /* \"#utility.yul\":6164:6173   */\n      dup3\n        /* \"#utility.yul\":6155:6162   */\n      dup5\n        /* \"#utility.yul\":6151:6174   */\n      sub\n        /* \"#utility.yul\":6147:6179   */\n      slt\n        /* \"#utility.yul\":6144:6263   */\n      iszero\n      tag_498\n      jumpi\n        /* \"#utility.yul\":6182:6261   */\n      tag_499\n      tag_357\n      jump\t// in\n    tag_499:\n        /* \"#utility.yul\":6144:6263   */\n    tag_498:\n        /* \"#utility.yul\":6302:6303   */\n      0x00\n        /* \"#utility.yul\":6327:6380   */\n      tag_500\n        /* \"#utility.yul\":6372:6379   */\n      dup5\n        /* \"#utility.yul\":6363:6369   */\n      dup3\n        /* \"#utility.yul\":6352:6361   */\n      dup6\n        /* \"#utility.yul\":6348:6370   */\n      add\n        /* \"#utility.yul\":6327:6380   */\n      tag_376\n      jump\t// in\n    tag_500:\n        /* \"#utility.yul\":6317:6380   */\n      swap2\n      pop\n        /* \"#utility.yul\":6273:6390   */\n      pop\n        /* \"#utility.yul\":6068:6397   */\n      swap3\n      swap2\n      pop\n      pop\n      jump\t// out\n        /* \"#utility.yul\":6403:6625   */\n    tag_69:\n        /* \"#utility.yul\":6496:6500   */\n      0x00\n        /* \"#utility.yul\":6534:6536   */\n      0x20\n        /* \"#utility.yul\":6523:6532   */\n      dup3\n        /* \"#utility.yul\":6519:6537   */\n      add\n        /* \"#utility.yul\":6511:6537   */\n      swap1\n      pop\n        /* \"#utility.yul\":6547:6618   */\n      tag_502\n        /* \"#utility.yul\":6615:6616   */\n      0x00\n        /* \"#utility.yul\":6604:6613   */\n      dup4\n        /* \"#utility.yul\":6600:6617   */\n      add\n        /* \"#utility.yul\":6591:6597   */\n      dup5\n        /* \"#utility.yul\":6547:6618   */\n      tag_377\n      jump\t// in\n    tag_502:\n        /* \"#utility.yul\":6403:6625   */\n      swap3\n      swap2\n      pop\n      pop\n      jump\t// out\n        /* \"#utility.yul\":6631:6747   */\n    tag_378:\n        /* \"#utility.yul\":6701:6722   */\n      tag_504\n        /* \"#utility.yul\":6716:6721   */\n      dup2\n        /* \"#utility.yul\":6701:6722   */\n      tag_362\n      jump\t// in\n    tag_504:\n        /* \"#utility.yul\":6694:6699   */\n      dup2\n        /* \"#utility.yul\":6691:6723   */\n      eq\n        /* \"#utility.yul\":6681:6741   */\n      tag_505\n      jumpi\n        /* \"#utility.yul\":6737:6738   */\n      0x00\n        /* \"#utility.yul\":6734:6735   */\n      dup1\n        /* \"#utility.yul\":6727:6739   */\n      revert\n        /* \"#utility.yul\":6681:6741   */\n    tag_505:\n        /* \"#utility.yul\":6631:6747   */\n      pop\n      jump\t// out\n        /* \"#utility.yul\":6753:6886   */\n    tag_379:\n        /* \"#utility.yul\":6796:6801   */\n      0x00\n        /* \"#utility.yul\":6834:6840   */\n      dup2\n        /* \"#utility.yul\":6821:6841   */\n      calldataload\n        /* \"#utility.yul\":6812:6841   */\n      swap1\n      pop\n        /* \"#utility.yul\":6850:6880   */\n      tag_507\n        /* \"#utility.yul\":6874:6879   */\n      dup2\n        /* \"#utility.yul\":6850:6880   */\n      tag_378\n      jump\t// in\n    tag_507:\n        /* \"#utility.yul\":6753:6886   */\n      swap3\n      swap2\n      pop\n      pop\n      jump\t// out\n        /* \"#utility.yul\":6892:7360   */\n    tag_88:\n        /* \"#utility.yul\":6957:6963   */\n      0x00\n        /* \"#utility.yul\":6965:6971   */\n      dup1\n        /* \"#utility.yul\":7014:7016   */\n      0x40\n        /* \"#utility.yul\":7002:7011   */\n      dup4\n        /* \"#utility.yul\":6993:7000   */\n      dup6\n        /* \"#utility.yul\":6989:7012   */\n      sub\n        /* \"#utility.yul\":6985:7017   */\n      slt\n        /* \"#utility.yul\":6982:7101   */\n      iszero\n      tag_509\n      jumpi\n        /* \"#utility.yul\":7020:7099   */\n      tag_510\n      tag_357\n      jump\t// in\n    tag_510:\n        /* \"#utility.yul\":6982:7101   */\n    tag_509:\n        /* \"#utility.yul\":7140:7141   */\n      0x00\n        /* \"#utility.yul\":7165:7218   */\n      tag_511\n        /* \"#utility.yul\":7210:7217   */\n      dup6\n        /* \"#utility.yul\":7201:7207   */\n      dup3\n        /* \"#utility.yul\":7190:7199   */\n      dup7\n        /* \"#utility.yul\":7186:7208   */\n      add\n        /* \"#utility.yul\":7165:7218   */\n      tag_376\n      jump\t// in\n    tag_511:\n        /* \"#utility.yul\":7155:7218   */\n      swap3\n      pop\n        /* \"#utility.yul\":7111:7228   */\n      pop\n        /* \"#utility.yul\":7267:7269   */\n      0x20\n        /* \"#utility.yul\":7293:7343   */\n      tag_512\n        /* \"#utility.yul\":7335:7342   */\n      dup6\n        /* \"#utility.yul\":7326:7332   */\n      dup3\n        /* \"#utility.yul\":7315:7324   */\n      dup7\n        /* \"#utility.yul\":7311:7333   */\n      add\n        /* \"#utility.yul\":7293:7343   */\n      tag_379\n      jump\t// in\n    tag_512:\n        /* \"#utility.yul\":7283:7343   */\n      swap2\n      pop\n        /* \"#utility.yul\":7238:7353   */\n      pop\n        /* \"#utility.yul\":6892:7360   */\n      swap3\n      pop\n      swap3\n      swap1\n      pop\n      jump\t// out\n        /* \"#utility.yul\":7366:7483   */\n    tag_380:\n        /* \"#utility.yul\":7475:7476   */\n      0x00\n        /* \"#utility.yul\":7472:7473   */\n      dup1\n        /* \"#utility.yul\":7465:7477   */\n      revert\n        /* \"#utility.yul\":7489:7606   */\n    tag_381:\n        /* \"#utility.yul\":7598:7599   */\n      0x00\n        /* \"#utility.yul\":7595:7596   */\n      dup1\n        /* \"#utility.yul\":7588:7600   */\n      revert\n        /* \"#utility.yul\":7612:7792   */\n    tag_302:\n        /* \"#utility.yul\":7660:7737   */\n      0x4e487b7100000000000000000000000000000000000000000000000000000000\n        /* \"#utility.yul\":7657:7658   */\n      0x00\n        /* \"#utility.yul\":7650:7738   */\n      mstore\n        /* \"#utility.yul\":7757:7761   */\n      0x41\n        /* \"#utility.yul\":7754:7755   */\n      0x04\n        /* \"#utility.yul\":7747:7762   */\n      mstore\n        /* \"#utility.yul\":7781:7785   */\n      0x24\n        /* \"#utility.yul\":7778:7779   */\n      0x00\n        /* \"#utility.yul\":7771:7786   */\n      revert\n        /* \"#utility.yul\":7798:8079   */\n    tag_382:\n        /* \"#utility.yul\":7881:7908   */\n      tag_517\n        /* \"#utility.yul\":7903:7907   */\n      dup3\n        /* \"#utility.yul\":7881:7908   */\n      tag_367\n      jump\t// in\n    tag_517:\n        /* \"#utility.yul\":7873:7879   */\n      dup2\n        /* \"#utility.yul\":7869:7909   */\n      add\n        /* \"#utility.yul\":8011:8017   */\n      dup2\n        /* \"#utility.yul\":7999:8009   */\n      dup2\n        /* \"#utility.yul\":7996:8018   */\n      lt\n        /* \"#utility.yul\":7975:7993   */\n      0xffffffffffffffff\n        /* \"#utility.yul\":7963:7973   */\n      dup3\n        /* \"#utility.yul\":7960:7994   */\n      gt\n        /* \"#utility.yul\":7957:8019   */\n      or\n        /* \"#utility.yul\":7954:8042   */\n      iszero\n      tag_518\n      jumpi\n        /* \"#utility.yul\":8022:8040   */\n      tag_519\n      tag_302\n      jump\t// in\n    tag_519:\n        /* \"#utility.yul\":7954:8042   */\n    tag_518:\n        /* \"#utility.yul\":8062:8072   */\n      dup1\n        /* \"#utility.yul\":8058:8060   */\n      0x40\n        /* \"#utility.yul\":8051:8073   */\n      mstore\n        /* \"#utility.yul\":7841:8079   */\n      pop\n        /* \"#utility.yul\":7798:8079   */\n      pop\n      pop\n      jump\t// out\n        /* \"#utility.yul\":8085:8214   */\n    tag_383:\n        /* \"#utility.yul\":8119:8125   */\n      0x00\n        /* \"#utility.yul\":8146:8166   */\n      tag_521\n      tag_356\n      jump\t// in\n    tag_521:\n        /* \"#utility.yul\":8136:8166   */\n      swap1\n      pop\n        /* \"#utility.yul\":8175:8208   */\n      tag_522\n        /* \"#utility.yul\":8203:8207   */\n      dup3\n        /* \"#utility.yul\":8195:8201   */\n      dup3\n        /* \"#utility.yul\":8175:8208   */\n      tag_382\n      jump\t// in\n    tag_522:\n        /* \"#utility.yul\":8085:8214   */\n      swap2\n      swap1\n      pop\n      jump\t// out\n        /* \"#utility.yul\":8220:8528   */\n    tag_384:\n        /* \"#utility.yul\":8282:8286   */\n      0x00\n        /* \"#utility.yul\":8372:8390   */\n      0xffffffffffffffff\n        /* \"#utility.yul\":8364:8370   */\n      dup3\n        /* \"#utility.yul\":8361:8391   */\n      gt\n        /* \"#utility.yul\":8358:8414   */\n      iszero\n      tag_524\n      jumpi\n        /* \"#utility.yul\":8394:8412   */\n      tag_525\n      tag_302\n      jump\t// in\n    tag_525:\n        /* \"#utility.yul\":8358:8414   */\n    tag_524:\n        /* \"#utility.yul\":8432:8461   */\n      tag_526\n        /* \"#utility.yul\":8454:8460   */\n      dup3\n        /* \"#utility.yul\":8432:8461   */\n      tag_367\n      jump\t// in\n    tag_526:\n        /* \"#utility.yul\":8424:8461   */\n      swap1\n      pop\n        /* \"#utility.yul\":8516:8520   */\n      0x20\n        /* \"#utility.yul\":8510:8514   */\n      dup2\n        /* \"#utility.yul\":8506:8521   */\n      add\n        /* \"#utility.yul\":8498:8521   */\n      swap1\n      pop\n        /* \"#utility.yul\":8220:8528   */\n      swap2\n      swap1\n      pop\n      jump\t// out\n        /* \"#utility.yul\":8534:8680   */\n    tag_385:\n        /* \"#utility.yul\":8631:8637   */\n      dup3\n        /* \"#utility.yul\":8626:8629   */\n      dup2\n        /* \"#utility.yul\":8621:8624   */\n      dup4\n        /* \"#utility.yul\":8608:8638   */\n      calldatacopy\n        /* \"#utility.yul\":8672:8673   */\n      0x00\n        /* \"#utility.yul\":8663:8669   */\n      dup4\n        /* \"#utility.yul\":8658:8661   */\n      dup4\n        /* \"#utility.yul\":8654:8670   */\n      add\n        /* \"#utility.yul\":8647:8674   */\n      mstore\n        /* \"#utility.yul\":8534:8680   */\n      pop\n      pop\n      pop\n      jump\t// out\n        /* \"#utility.yul\":8686:9111   */\n    tag_386:\n        /* \"#utility.yul\":8764:8769   */\n      0x00\n        /* \"#utility.yul\":8789:8855   */\n      tag_529\n        /* \"#utility.yul\":8805:8854   */\n      tag_530\n        /* \"#utility.yul\":8847:8853   */\n      dup5\n        /* \"#utility.yul\":8805:8854   */\n      tag_384\n      jump\t// in\n    tag_530:\n        /* \"#utility.yul\":8789:8855   */\n      tag_383\n      jump\t// in\n    tag_529:\n        /* \"#utility.yul\":8780:8855   */\n      swap1\n      pop\n        /* \"#utility.yul\":8878:8884   */\n      dup3\n        /* \"#utility.yul\":8871:8876   */\n      dup2\n        /* \"#utility.yul\":8864:8885   */\n      mstore\n        /* \"#utility.yul\":8916:8920   */\n      0x20\n        /* \"#utility.yul\":8909:8914   */\n      dup2\n        /* \"#utility.yul\":8905:8921   */\n      add\n        /* \"#utility.yul\":8954:8957   */\n      dup5\n        /* \"#utility.yul\":8945:8951   */\n      dup5\n        /* \"#utility.yul\":8940:8943   */\n      dup5\n        /* \"#utility.yul\":8936:8952   */\n      add\n        /* \"#utility.yul\":8933:8958   */\n      gt\n        /* \"#utility.yul\":8930:9042   */\n      iszero\n      tag_531\n      jumpi\n        /* \"#utility.yul\":8961:9040   */\n      tag_532\n      tag_381\n      jump\t// in\n    tag_532:\n        /* \"#utility.yul\":8930:9042   */\n    tag_531:\n        /* \"#utility.yul\":9051:9105   */\n      tag_533\n        /* \"#utility.yul\":9098:9104   */\n      dup5\n        /* \"#utility.yul\":9093:9096   */\n      dup3\n        /* \"#utility.yul\":9088:9091   */\n      dup6\n        /* \"#utility.yul\":9051:9105   */\n      tag_385\n      jump\t// in\n    tag_533:\n        /* \"#utility.yul\":8770:9111   */\n      pop\n        /* \"#utility.yul\":8686:9111   */\n      swap4\n      swap3\n      pop\n      pop\n      pop\n      jump\t// out\n        /* \"#utility.yul\":9131:9471   */\n    tag_387:\n        /* \"#utility.yul\":9187:9192   */\n      0x00\n        /* \"#utility.yul\":9236:9239   */\n      dup3\n        /* \"#utility.yul\":9229:9233   */\n      0x1f\n        /* \"#utility.yul\":9221:9227   */\n      dup4\n        /* \"#utility.yul\":9217:9234   */\n      add\n        /* \"#utility.yul\":9213:9240   */\n      slt\n        /* \"#utility.yul\":9203:9325   */\n      tag_535\n      jumpi\n        /* \"#utility.yul\":9244:9323   */\n      tag_536\n      tag_380\n      jump\t// in\n    tag_536:\n        /* \"#utility.yul\":9203:9325   */\n    tag_535:\n        /* \"#utility.yul\":9361:9367   */\n      dup2\n        /* \"#utility.yul\":9348:9368   */\n      calldataload\n        /* \"#utility.yul\":9386:9465   */\n      tag_537\n        /* \"#utility.yul\":9461:9464   */\n      dup5\n        /* \"#utility.yul\":9453:9459   */\n      dup3\n        /* \"#utility.yul\":9446:9450   */\n      0x20\n        /* \"#utility.yul\":9438:9444   */\n      dup7\n        /* \"#utility.yul\":9434:9451   */\n      add\n        /* \"#utility.yul\":9386:9465   */\n      tag_386\n      jump\t// in\n    tag_537:\n        /* \"#utility.yul\":9377:9465   */\n      swap2\n      pop\n        /* \"#utility.yul\":9193:9471   */\n      pop\n        /* \"#utility.yul\":9131:9471   */\n      swap3\n      swap2\n      pop\n      pop\n      jump\t// out\n        /* \"#utility.yul\":9477:10131   */\n    tag_92:\n        /* \"#utility.yul\":9555:9561   */\n      0x00\n        /* \"#utility.yul\":9563:9569   */\n      dup1\n        /* \"#utility.yul\":9612:9614   */\n      0x40\n        /* \"#utility.yul\":9600:9609   */\n      dup4\n        /* \"#utility.yul\":9591:9598   */\n      dup6\n        /* \"#utility.yul\":9587:9610   */\n      sub\n        /* \"#utility.yul\":9583:9615   */\n      slt\n        /* \"#utility.yul\":9580:9699   */\n      iszero\n      tag_539\n      jumpi\n        /* \"#utility.yul\":9618:9697   */\n      tag_540\n      tag_357\n      jump\t// in\n    tag_540:\n        /* \"#utility.yul\":9580:9699   */\n    tag_539:\n        /* \"#utility.yul\":9766:9767   */\n      0x00\n        /* \"#utility.yul\":9755:9764   */\n      dup4\n        /* \"#utility.yul\":9751:9768   */\n      add\n        /* \"#utility.yul\":9738:9769   */\n      calldataload\n        /* \"#utility.yul\":9796:9814   */\n      0xffffffffffffffff\n        /* \"#utility.yul\":9788:9794   */\n      dup2\n        /* \"#utility.yul\":9785:9815   */\n      gt\n        /* \"#utility.yul\":9782:9899   */\n      iszero\n      tag_541\n      jumpi\n        /* \"#utility.yul\":9818:9897   */\n      tag_542\n      tag_358\n      jump\t// in\n    tag_542:\n        /* \"#utility.yul\":9782:9899   */\n    tag_541:\n        /* \"#utility.yul\":9923:9986   */\n      tag_543\n        /* \"#utility.yul\":9978:9985   */\n      dup6\n        /* \"#utility.yul\":9969:9975   */\n      dup3\n        /* \"#utility.yul\":9958:9967   */\n      dup7\n        /* \"#utility.yul\":9954:9976   */\n      add\n        /* \"#utility.yul\":9923:9986   */\n      tag_387\n      jump\t// in\n    tag_543:\n        /* \"#utility.yul\":9913:9986   */\n      swap3\n      pop\n        /* \"#utility.yul\":9709:9996   */\n      pop\n        /* \"#utility.yul\":10035:10037   */\n      0x20\n        /* \"#utility.yul\":10061:10114   */\n      tag_544\n        /* \"#utility.yul\":10106:10113   */\n      dup6\n        /* \"#utility.yul\":10097:10103   */\n      dup3\n        /* \"#utility.yul\":10086:10095   */\n      dup7\n        /* \"#utility.yul\":10082:10104   */\n      add\n        /* \"#utility.yul\":10061:10114   */\n      tag_371\n      jump\t// in\n    tag_544:\n        /* \"#utility.yul\":10051:10114   */\n      swap2\n      pop\n        /* \"#utility.yul\":10006:10124   */\n      pop\n        /* \"#utility.yul\":9477:10131   */\n      swap3\n      pop\n      swap3\n      swap1\n      pop\n      jump\t// out\n        /* \"#utility.yul\":10137:10444   */\n    tag_388:\n        /* \"#utility.yul\":10198:10202   */\n      0x00\n        /* \"#utility.yul\":10288:10306   */\n      0xffffffffffffffff\n        /* \"#utility.yul\":10280:10286   */\n      dup3\n        /* \"#utility.yul\":10277:10307   */\n      gt\n        /* \"#utility.yul\":10274:10330   */\n      iszero\n      tag_546\n      jumpi\n        /* \"#utility.yul\":10310:10328   */\n      tag_547\n      tag_302\n      jump\t// in\n    tag_547:\n        /* \"#utility.yul\":10274:10330   */\n    tag_546:\n        /* \"#utility.yul\":10348:10377   */\n      tag_548\n        /* \"#utility.yul\":10370:10376   */\n      dup3\n        /* \"#utility.yul\":10348:10377   */\n      tag_367\n      jump\t// in\n    tag_548:\n        /* \"#utility.yul\":10340:10377   */\n      swap1\n      pop\n        /* \"#utility.yul\":10432:10436   */\n      0x20\n        /* \"#utility.yul\":10426:10430   */\n      dup2\n        /* \"#utility.yul\":10422:10437   */\n      add\n        /* \"#utility.yul\":10414:10437   */\n      swap1\n      pop\n        /* \"#utility.yul\":10137:10444   */\n      swap2\n      swap1\n      pop\n      jump\t// out\n        /* \"#utility.yul\":10450:10873   */\n    tag_389:\n        /* \"#utility.yul\":10527:10532   */\n      0x00\n        /* \"#utility.yul\":10552:10617   */\n      tag_550\n        /* \"#utility.yul\":10568:10616   */\n      tag_551\n        /* \"#utility.yul\":10609:10615   */\n      dup5\n        /* \"#utility.yul\":10568:10616   */\n      tag_388\n      jump\t// in\n    tag_551:\n        /* \"#utility.yul\":10552:10617   */\n      tag_383\n      jump\t// in\n    tag_550:\n        /* \"#utility.yul\":10543:10617   */\n      swap1\n      pop\n        /* \"#utility.yul\":10640:10646   */\n      dup3\n        /* \"#utility.yul\":10633:10638   */\n      dup2\n        /* \"#utility.yul\":10626:10647   */\n      mstore\n        /* \"#utility.yul\":10678:10682   */\n      0x20\n        /* \"#utility.yul\":10671:10676   */\n      dup2\n        /* \"#utility.yul\":10667:10683   */\n      add\n        /* \"#utility.yul\":10716:10719   */\n      dup5\n        /* \"#utility.yul\":10707:10713   */\n      dup5\n        /* \"#utility.yul\":10702:10705   */\n      dup5\n        /* \"#utility.yul\":10698:10714   */\n      add\n        /* \"#utility.yul\":10695:10720   */\n      gt\n        /* \"#utility.yul\":10692:10804   */\n      iszero\n      tag_552\n      jumpi\n        /* \"#utility.yul\":10723:10802   */\n      tag_553\n      tag_381\n      jump\t// in\n    tag_553:\n        /* \"#utility.yul\":10692:10804   */\n    tag_552:\n        /* \"#utility.yul\":10813:10867   */\n      tag_554\n        /* \"#utility.yul\":10860:10866   */\n      dup5\n        /* \"#utility.yul\":10855:10858   */\n      dup3\n        /* \"#utility.yul\":10850:10853   */\n      dup6\n        /* \"#utility.yul\":10813:10867   */\n      tag_385\n      jump\t// in\n    tag_554:\n        /* \"#utility.yul\":10533:10873   */\n      pop\n        /* \"#utility.yul\":10450:10873   */\n      swap4\n      swap3\n      pop\n      pop\n      pop\n      jump\t// out\n        /* \"#utility.yul\":10892:11230   */\n    tag_390:\n        /* \"#utility.yul\":10947:10952   */\n      0x00\n        /* \"#utility.yul\":10996:10999   */\n      dup3\n        /* \"#utility.yul\":10989:10993   */\n      0x1f\n        /* \"#utility.yul\":10981:10987   */\n      dup4\n        /* \"#utility.yul\":10977:10994   */\n      add\n        /* \"#utility.yul\":10973:11000   */\n      slt\n        /* \"#utility.yul\":10963:11085   */\n      tag_556\n      jumpi\n        /* \"#utility.yul\":11004:11083   */\n      tag_557\n      tag_380\n      jump\t// in\n    tag_557:\n        /* \"#utility.yul\":10963:11085   */\n    tag_556:\n        /* \"#utility.yul\":11121:11127   */\n      dup2\n        /* \"#utility.yul\":11108:11128   */\n      calldataload\n        /* \"#utility.yul\":11146:11224   */\n      tag_558\n        /* \"#utility.yul\":11220:11223   */\n      dup5\n        /* \"#utility.yul\":11212:11218   */\n      dup3\n        /* \"#utility.yul\":11205:11209   */\n      0x20\n        /* \"#utility.yul\":11197:11203   */\n      dup7\n        /* \"#utility.yul\":11193:11210   */\n      add\n        /* \"#utility.yul\":11146:11224   */\n      tag_389\n      jump\t// in\n    tag_558:\n        /* \"#utility.yul\":11137:11224   */\n      swap2\n      pop\n        /* \"#utility.yul\":10953:11230   */\n      pop\n        /* \"#utility.yul\":10892:11230   */\n      swap3\n      swap2\n      pop\n      pop\n      jump\t// out\n        /* \"#utility.yul\":11236:12179   */\n    tag_96:\n        /* \"#utility.yul\":11331:11337   */\n      0x00\n        /* \"#utility.yul\":11339:11345   */\n      dup1\n        /* \"#utility.yul\":11347:11353   */\n      0x00\n        /* \"#utility.yul\":11355:11361   */\n      dup1\n        /* \"#utility.yul\":11404:11407   */\n      0x80\n        /* \"#utility.yul\":11392:11401   */\n      dup6\n        /* \"#utility.yul\":11383:11390   */\n      dup8\n        /* \"#utility.yul\":11379:11402   */\n      sub\n        /* \"#utility.yul\":11375:11408   */\n      slt\n        /* \"#utility.yul\":11372:11492   */\n      iszero\n      tag_560\n      jumpi\n        /* \"#utility.yul\":11411:11490   */\n      tag_561\n      tag_357\n      jump\t// in\n    tag_561:\n        /* \"#utility.yul\":11372:11492   */\n    tag_560:\n        /* \"#utility.yul\":11531:11532   */\n      0x00\n        /* \"#utility.yul\":11556:11609   */\n      tag_562\n        /* \"#utility.yul\":11601:11608   */\n      dup8\n        /* \"#utility.yul\":11592:11598   */\n      dup3\n        /* \"#utility.yul\":11581:11590   */\n      dup9\n        /* \"#utility.yul\":11577:11599   */\n      add\n        /* \"#utility.yul\":11556:11609   */\n      tag_376\n      jump\t// in\n    tag_562:\n        /* \"#utility.yul\":11546:11609   */\n      swap5\n      pop\n        /* \"#utility.yul\":11502:11619   */\n      pop\n        /* \"#utility.yul\":11658:11660   */\n      0x20\n        /* \"#utility.yul\":11684:11737   */\n      tag_563\n        /* \"#utility.yul\":11729:11736   */\n      dup8\n        /* \"#utility.yul\":11720:11726   */\n      dup3\n        /* \"#utility.yul\":11709:11718   */\n      dup9\n        /* \"#utility.yul\":11705:11727   */\n      add\n        /* \"#utility.yul\":11684:11737   */\n      tag_376\n      jump\t// in\n    tag_563:\n        /* \"#utility.yul\":11674:11737   */\n      swap4\n      pop\n        /* \"#utility.yul\":11629:11747   */\n      pop\n        /* \"#utility.yul\":11786:11788   */\n      0x40\n        /* \"#utility.yul\":11812:11865   */\n      tag_564\n        /* \"#utility.yul\":11857:11864   */\n      dup8\n        /* \"#utility.yul\":11848:11854   */\n      dup3\n        /* \"#utility.yul\":11837:11846   */\n      dup9\n        /* \"#utility.yul\":11833:11855   */\n      add\n        /* \"#utility.yul\":11812:11865   */\n      tag_371\n      jump\t// in\n    tag_564:\n        /* \"#utility.yul\":11802:11865   */\n      swap3\n      pop\n        /* \"#utility.yul\":11757:11875   */\n      pop\n        /* \"#utility.yul\":11942:11944   */\n      0x60\n        /* \"#utility.yul\":11931:11940   */\n      dup6\n        /* \"#utility.yul\":11927:11945   */\n      add\n        /* \"#utility.yul\":11914:11946   */\n      calldataload\n        /* \"#utility.yul\":11973:11991   */\n      0xffffffffffffffff\n        /* \"#utility.yul\":11965:11971   */\n      dup2\n        /* \"#utility.yul\":11962:11992   */\n      gt\n        /* \"#utility.yul\":11959:12076   */\n      iszero\n      tag_565\n      jumpi\n        /* \"#utility.yul\":11995:12074   */\n      tag_566\n      tag_358\n      jump\t// in\n    tag_566:\n        /* \"#utility.yul\":11959:12076   */\n    tag_565:\n        /* \"#utility.yul\":12100:12162   */\n      tag_567\n        /* \"#utility.yul\":12154:12161   */\n      dup8\n        /* \"#utility.yul\":12145:12151   */\n      dup3\n        /* \"#utility.yul\":12134:12143   */\n      dup9\n        /* \"#utility.yul\":12130:12152   */\n      add\n        /* \"#utility.yul\":12100:12162   */\n      tag_390\n      jump\t// in\n    tag_567:\n        /* \"#utility.yul\":12090:12162   */\n      swap2\n      pop\n        /* \"#utility.yul\":11885:12172   */\n      pop\n        /* \"#utility.yul\":11236:12179   */\n      swap3\n      swap6\n      swap2\n      swap5\n      pop\n      swap3\n      pop\n      jump\t// out\n        /* \"#utility.yul\":12185:12659   */\n    tag_108:\n        /* \"#utility.yul\":12253:12259   */\n      0x00\n        /* \"#utility.yul\":12261:12267   */\n      dup1\n        /* \"#utility.yul\":12310:12312   */\n      0x40\n        /* \"#utility.yul\":12298:12307   */\n      dup4\n        /* \"#utility.yul\":12289:12296   */\n      dup6\n        /* \"#utility.yul\":12285:12308   */\n      sub\n        /* \"#utility.yul\":12281:12313   */\n      slt\n        /* \"#utility.yul\":12278:12397   */\n      iszero\n      tag_569\n      jumpi\n        /* \"#utility.yul\":12316:12395   */\n      tag_570\n      tag_357\n      jump\t// in\n    tag_570:\n        /* \"#utility.yul\":12278:12397   */\n    tag_569:\n        /* \"#utility.yul\":12436:12437   */\n      0x00\n        /* \"#utility.yul\":12461:12514   */\n      tag_571\n        /* \"#utility.yul\":12506:12513   */\n      dup6\n        /* \"#utility.yul\":12497:12503   */\n      dup3\n        /* \"#utility.yul\":12486:12495   */\n      dup7\n        /* \"#utility.yul\":12482:12504   */\n      add\n        /* \"#utility.yul\":12461:12514   */\n      tag_376\n      jump\t// in\n    tag_571:\n        /* \"#utility.yul\":12451:12514   */\n      swap3\n      pop\n        /* \"#utility.yul\":12407:12524   */\n      pop\n        /* \"#utility.yul\":12563:12565   */\n      0x20\n        /* \"#utility.yul\":12589:12642   */\n      tag_572\n        /* \"#utility.yul\":12634:12641   */\n      dup6\n        /* \"#utility.yul\":12625:12631   */\n      dup3\n        /* \"#utility.yul\":12614:12623   */\n      dup7\n        /* \"#utility.yul\":12610:12632   */\n      add\n        /* \"#utility.yul\":12589:12642   */\n      tag_376\n      jump\t// in\n    tag_572:\n        /* \"#utility.yul\":12579:12642   */\n      swap2\n      pop\n        /* \"#utility.yul\":12534:12652   */\n      pop\n        /* \"#utility.yul\":12185:12659   */\n      swap3\n      pop\n      swap3\n      swap1\n      pop\n      jump\t// out\n        /* \"#utility.yul\":12665:12725   */\n    tag_391:\n        /* \"#utility.yul\":12693:12696   */\n      0x00\n        /* \"#utility.yul\":12714:12719   */\n      dup2\n        /* \"#utility.yul\":12707:12719   */\n      swap1\n      pop\n        /* \"#utility.yul\":12665:12725   */\n      swap2\n      swap1\n      pop\n      jump\t// out\n        /* \"#utility.yul\":12731:12873   */\n    tag_392:\n        /* \"#utility.yul\":12781:12790   */\n      0x00\n        /* \"#utility.yul\":12814:12867   */\n      tag_575\n        /* \"#utility.yul\":12832:12866   */\n      tag_576\n        /* \"#utility.yul\":12841:12865   */\n      tag_577\n        /* \"#utility.yul\":12859:12864   */\n      dup5\n        /* \"#utility.yul\":12841:12865   */\n      tag_372\n      jump\t// in\n    tag_577:\n        /* \"#utility.yul\":12832:12866   */\n      tag_391\n      jump\t// in\n    tag_576:\n        /* \"#utility.yul\":12814:12867   */\n      tag_372\n      jump\t// in\n    tag_575:\n        /* \"#utility.yul\":12801:12867   */\n      swap1\n      pop\n        /* \"#utility.yul\":12731:12873   */\n      swap2\n      swap1\n      pop\n      jump\t// out\n        /* \"#utility.yul\":12879:13005   */\n    tag_393:\n        /* \"#utility.yul\":12929:12938   */\n      0x00\n        /* \"#utility.yul\":12962:12999   */\n      tag_579\n        /* \"#utility.yul\":12993:12998   */\n      dup3\n        /* \"#utility.yul\":12962:12999   */\n      tag_392\n      jump\t// in\n    tag_579:\n        /* \"#utility.yul\":12949:12999   */\n      swap1\n      pop\n        /* \"#utility.yul\":12879:13005   */\n      swap2\n      swap1\n      pop\n      jump\t// out\n        /* \"#utility.yul\":13011:13151   */\n    tag_394:\n        /* \"#utility.yul\":13075:13084   */\n      0x00\n        /* \"#utility.yul\":13108:13145   */\n      tag_581\n        /* \"#utility.yul\":13139:13144   */\n      dup3\n        /* \"#utility.yul\":13108:13145   */\n      tag_393\n      jump\t// in\n    tag_581:\n        /* \"#utility.yul\":13095:13145   */\n      swap1\n      pop\n        /* \"#utility.yul\":13011:13151   */\n      swap2\n      swap1\n      pop\n      jump\t// out\n        /* \"#utility.yul\":13157:13316   */\n    tag_395:\n        /* \"#utility.yul\":13258:13309   */\n      tag_583\n        /* \"#utility.yul\":13303:13308   */\n      dup2\n        /* \"#utility.yul\":13258:13309   */\n      tag_394\n      jump\t// in\n    tag_583:\n        /* \"#utility.yul\":13253:13256   */\n      dup3\n        /* \"#utility.yul\":13246:13310   */\n      mstore\n        /* \"#utility.yul\":13157:13316   */\n      pop\n      pop\n      jump\t// out\n        /* \"#utility.yul\":13322:13572   */\n    tag_117:\n        /* \"#utility.yul\":13429:13433   */\n      0x00\n        /* \"#utility.yul\":13467:13469   */\n      0x20\n        /* \"#utility.yul\":13456:13465   */\n      dup3\n        /* \"#utility.yul\":13452:13470   */\n      add\n        /* \"#utility.yul\":13444:13470   */\n      swap1\n      pop\n        /* \"#utility.yul\":13480:13565   */\n      tag_585\n        /* \"#utility.yul\":13562:13563   */\n      0x00\n        /* \"#utility.yul\":13551:13560   */\n      dup4\n        /* \"#utility.yul\":13547:13564   */\n      add\n        /* \"#utility.yul\":13538:13544   */\n      dup5\n        /* \"#utility.yul\":13480:13565   */\n      tag_395\n      jump\t// in\n    tag_585:\n        /* \"#utility.yul\":13322:13572   */\n      swap3\n      swap2\n      pop\n      pop\n      jump\t// out\n        /* \"#utility.yul\":13578:13758   */\n    tag_396:\n        /* \"#utility.yul\":13626:13703   */\n      0x4e487b7100000000000000000000000000000000000000000000000000000000\n        /* \"#utility.yul\":13623:13624   */\n      0x00\n        /* \"#utility.yul\":13616:13704   */\n      mstore\n        /* \"#utility.yul\":13723:13727   */\n      0x22\n        /* \"#utility.yul\":13720:13721   */\n      0x04\n        /* \"#utility.yul\":13713:13728   */\n      mstore\n        /* \"#utility.yul\":13747:13751   */\n      0x24\n        /* \"#utility.yul\":13744:13745   */\n      0x00\n        /* \"#utility.yul\":13737:13752   */\n      revert\n        /* \"#utility.yul\":13764:14084   */\n    tag_125:\n        /* \"#utility.yul\":13808:13814   */\n      0x00\n        /* \"#utility.yul\":13845:13846   */\n      0x02\n        /* \"#utility.yul\":13839:13843   */\n      dup3\n        /* \"#utility.yul\":13835:13847   */\n      div\n        /* \"#utility.yul\":13825:13847   */\n      swap1\n      pop\n        /* \"#utility.yul\":13892:13893   */\n      0x01\n        /* \"#utility.yul\":13886:13890   */\n      dup3\n        /* \"#utility.yul\":13882:13894   */\n      and\n        /* \"#utility.yul\":13913:13931   */\n      dup1\n        /* \"#utility.yul\":13903:13984   */\n      tag_588\n      jumpi\n        /* \"#utility.yul\":13969:13973   */\n      0x7f\n        /* \"#utility.yul\":13961:13967   */\n      dup3\n        /* \"#utility.yul\":13957:13974   */\n      and\n        /* \"#utility.yul\":13947:13974   */\n      swap2\n      pop\n        /* \"#utility.yul\":13903:13984   */\n    tag_588:\n        /* \"#utility.yul\":14031:14033   */\n      0x20\n        /* \"#utility.yul\":14023:14029   */\n      dup3\n        /* \"#utility.yul\":14020:14034   */\n      lt\n        /* \"#utility.yul\":14000:14018   */\n      dup2\n        /* \"#utility.yul\":13997:14035   */\n      sub\n        /* \"#utility.yul\":13994:14078   */\n      tag_589\n      jumpi\n        /* \"#utility.yul\":14050:14068   */\n      tag_590\n      tag_396\n      jump\t// in\n    tag_590:\n        /* \"#utility.yul\":13994:14078   */\n    tag_589:\n        /* \"#utility.yul\":13815:14084   */\n      pop\n        /* \"#utility.yul\":13764:14084   */\n      swap2\n      swap1\n      pop\n      jump\t// out\n        /* \"#utility.yul\":14090:14532   */\n    tag_148:\n        /* \"#utility.yul\":14239:14243   */\n      0x00\n        /* \"#utility.yul\":14277:14279   */\n      0x60\n        /* \"#utility.yul\":14266:14275   */\n      dup3\n        /* \"#utility.yul\":14262:14280   */\n      add\n        /* \"#utility.yul\":14254:14280   */\n      swap1\n      pop\n        /* \"#utility.yul\":14290:14361   */\n      tag_592\n        /* \"#utility.yul\":14358:14359   */\n      0x00\n        /* \"#utility.yul\":14347:14356   */\n      dup4\n        /* \"#utility.yul\":14343:14360   */\n      add\n        /* \"#utility.yul\":14334:14340   */\n      dup7\n        /* \"#utility.yul\":14290:14361   */\n      tag_374\n      jump\t// in\n    tag_592:\n        /* \"#utility.yul\":14371:14443   */\n      tag_593\n        /* \"#utility.yul\":14439:14441   */\n      0x20\n        /* \"#utility.yul\":14428:14437   */\n      dup4\n        /* \"#utility.yul\":14424:14442   */\n      add\n        /* \"#utility.yul\":14415:14421   */\n      dup6\n        /* \"#utility.yul\":14371:14443   */\n      tag_377\n      jump\t// in\n    tag_593:\n        /* \"#utility.yul\":14453:14525   */\n      tag_594\n        /* \"#utility.yul\":14521:14523   */\n      0x40\n        /* \"#utility.yul\":14510:14519   */\n      dup4\n        /* \"#utility.yul\":14506:14524   */\n      add\n        /* \"#utility.yul\":14497:14503   */\n      dup5\n        /* \"#utility.yul\":14453:14525   */\n      tag_374\n      jump\t// in\n    tag_594:\n        /* \"#utility.yul\":14090:14532   */\n      swap5\n      swap4\n      pop\n      pop\n      pop\n      pop\n      jump\t// out\n        /* \"#utility.yul\":14538:14707   */\n    tag_397:\n        /* \"#utility.yul\":14678:14699   */\n      0x42696c6c20646f6573206e6f7420657869737400000000000000000000000000\n        /* \"#utility.yul\":14674:14675   */\n      0x00\n        /* \"#utility.yul\":14666:14672   */\n      dup3\n        /* \"#utility.yul\":14662:14676   */\n      add\n        /* \"#utility.yul\":14655:14700   */\n      mstore\n        /* \"#utility.yul\":14538:14707   */\n      pop\n      jump\t// out\n        /* \"#utility.yul\":14713:15079   */\n    tag_398:\n        /* \"#utility.yul\":14855:14858   */\n      0x00\n        /* \"#utility.yul\":14876:14943   */\n      tag_597\n        /* \"#utility.yul\":14940:14942   */\n      0x13\n        /* \"#utility.yul\":14935:14938   */\n      dup4\n        /* \"#utility.yul\":14876:14943   */\n      tag_365\n      jump\t// in\n    tag_597:\n        /* \"#utility.yul\":14869:14943   */\n      swap2\n      pop\n        /* \"#utility.yul\":14952:15045   */\n      tag_598\n        /* \"#utility.yul\":15041:15044   */\n      dup3\n        /* \"#utility.yul\":14952:15045   */\n      tag_397\n      jump\t// in\n    tag_598:\n        /* \"#utility.yul\":15070:15072   */\n      0x20\n        /* \"#utility.yul\":15065:15068   */\n      dup3\n        /* \"#utility.yul\":15061:15073   */\n      add\n        /* \"#utility.yul\":15054:15073   */\n      swap1\n      pop\n        /* \"#utility.yul\":14713:15079   */\n      swap2\n      swap1\n      pop\n      jump\t// out\n        /* \"#utility.yul\":15085:15504   */\n    tag_156:\n        /* \"#utility.yul\":15251:15255   */\n      0x00\n        /* \"#utility.yul\":15289:15291   */\n      0x20\n        /* \"#utility.yul\":15278:15287   */\n      dup3\n        /* \"#utility.yul\":15274:15292   */\n      add\n        /* \"#utility.yul\":15266:15292   */\n      swap1\n      pop\n        /* \"#utility.yul\":15338:15347   */\n      dup2\n        /* \"#utility.yul\":15332:15336   */\n      dup2\n        /* \"#utility.yul\":15328:15348   */\n      sub\n        /* \"#utility.yul\":15324:15325   */\n      0x00\n        /* \"#utility.yul\":15313:15322   */\n      dup4\n        /* \"#utility.yul\":15309:15326   */\n      add\n        /* \"#utility.yul\":15302:15349   */\n      mstore\n        /* \"#utility.yul\":15366:15497   */\n      tag_600\n        /* \"#utility.yul\":15492:15496   */\n      dup2\n        /* \"#utility.yul\":15366:15497   */\n      tag_398\n      jump\t// in\n    tag_600:\n        /* \"#utility.yul\":15358:15497   */\n      swap1\n      pop\n        /* \"#utility.yul\":15085:15504   */\n      swap2\n      swap1\n      pop\n      jump\t// out\n        /* \"#utility.yul\":15510:15682   */\n    tag_399:\n        /* \"#utility.yul\":15650:15674   */\n      0x50726f6475637420646f6573206e6f7420657869737400000000000000000000\n        /* \"#utility.yul\":15646:15647   */\n      0x00\n        /* \"#utility.yul\":15638:15644   */\n      dup3\n        /* \"#utility.yul\":15634:15648   */\n      add\n        /* \"#utility.yul\":15627:15675   */\n      mstore\n        /* \"#utility.yul\":15510:15682   */\n      pop\n      jump\t// out\n        /* \"#utility.yul\":15688:16054   */\n    tag_400:\n        /* \"#utility.yul\":15830:15833   */\n      0x00\n        /* \"#utility.yul\":15851:15918   */\n      tag_603\n        /* \"#utility.yul\":15915:15917   */\n      0x16\n        /* \"#utility.yul\":15910:15913   */\n      dup4\n        /* \"#utility.yul\":15851:15918   */\n      tag_365\n      jump\t// in\n    tag_603:\n        /* \"#utility.yul\":15844:15918   */\n      swap2\n      pop\n        /* \"#utility.yul\":15927:16020   */\n      tag_604\n        /* \"#utility.yul\":16016:16019   */\n      dup3\n        /* \"#utility.yul\":15927:16020   */\n      tag_399\n      jump\t// in\n    tag_604:\n        /* \"#utility.yul\":16045:16047   */\n      0x20\n        /* \"#utility.yul\":16040:16043   */\n      dup3\n        /* \"#utility.yul\":16036:16048   */\n      add\n        /* \"#utility.yul\":16029:16048   */\n      swap1\n      pop\n        /* \"#utility.yul\":15688:16054   */\n      swap2\n      swap1\n      pop\n      jump\t// out\n        /* \"#utility.yul\":16060:16479   */\n    tag_182:\n        /* \"#utility.yul\":16226:16230   */\n      0x00\n        /* \"#utility.yul\":16264:16266   */\n      0x20\n        /* \"#utility.yul\":16253:16262   */\n      dup3\n        /* \"#utility.yul\":16249:16267   */\n      add\n        /* \"#utility.yul\":16241:16267   */\n      swap1\n      pop\n        /* \"#utility.yul\":16313:16322   */\n      dup2\n        /* \"#utility.yul\":16307:16311   */\n      dup2\n        /* \"#utility.yul\":16303:16323   */\n      sub\n        /* \"#utility.yul\":16299:16300   */\n      0x00\n        /* \"#utility.yul\":16288:16297   */\n      dup4\n        /* \"#utility.yul\":16284:16301   */\n      add\n        /* \"#utility.yul\":16277:16324   */\n      mstore\n        /* \"#utility.yul\":16341:16472   */\n      tag_606\n        /* \"#utility.yul\":16467:16471   */\n      dup2\n        /* \"#utility.yul\":16341:16472   */\n      tag_400\n      jump\t// in\n    tag_606:\n        /* \"#utility.yul\":16333:16472   */\n      swap1\n      pop\n        /* \"#utility.yul\":16060:16479   */\n      swap2\n      swap1\n      pop\n      jump\t// out\n        /* \"#utility.yul\":16485:16927   */\n    tag_185:\n        /* \"#utility.yul\":16634:16638   */\n      0x00\n        /* \"#utility.yul\":16672:16674   */\n      0x60\n        /* \"#utility.yul\":16661:16670   */\n      dup3\n        /* \"#utility.yul\":16657:16675   */\n      add\n        /* \"#utility.yul\":16649:16675   */\n      swap1\n      pop\n        /* \"#utility.yul\":16685:16756   */\n      tag_608\n        /* \"#utility.yul\":16753:16754   */\n      0x00\n        /* \"#utility.yul\":16742:16751   */\n      dup4\n        /* \"#utility.yul\":16738:16755   */\n      add\n        /* \"#utility.yul\":16729:16735   */\n      dup7\n        /* \"#utility.yul\":16685:16756   */\n      tag_374\n      jump\t// in\n    tag_608:\n        /* \"#utility.yul\":16766:16838   */\n      tag_609\n        /* \"#utility.yul\":16834:16836   */\n      0x20\n        /* \"#utility.yul\":16823:16832   */\n      dup4\n        /* \"#utility.yul\":16819:16837   */\n      add\n        /* \"#utility.yul\":16810:16816   */\n      dup6\n        /* \"#utility.yul\":16766:16838   */\n      tag_374\n      jump\t// in\n    tag_609:\n        /* \"#utility.yul\":16848:16920   */\n      tag_610\n        /* \"#utility.yul\":16916:16918   */\n      0x40\n        /* \"#utility.yul\":16905:16914   */\n      dup4\n        /* \"#utility.yul\":16901:16919   */\n      add\n        /* \"#utility.yul\":16892:16898   */\n      dup5\n        /* \"#utility.yul\":16848:16920   */\n      tag_377\n      jump\t// in\n    tag_610:\n        /* \"#utility.yul\":16485:16927   */\n      swap5\n      swap4\n      pop\n      pop\n      pop\n      pop\n      jump\t// out\n        /* \"#utility.yul\":16933:17070   */\n    tag_401:\n        /* \"#utility.yul\":16987:16992   */\n      0x00\n        /* \"#utility.yul\":17018:17024   */\n      dup2\n        /* \"#utility.yul\":17012:17025   */\n      mload\n        /* \"#utility.yul\":17003:17025   */\n      swap1\n      pop\n        /* \"#utility.yul\":17034:17064   */\n      tag_612\n        /* \"#utility.yul\":17058:17063   */\n      dup2\n        /* \"#utility.yul\":17034:17064   */\n      tag_378\n      jump\t// in\n    tag_612:\n        /* \"#utility.yul\":16933:17070   */\n      swap3\n      swap2\n      pop\n      pop\n      jump\t// out\n        /* \"#utility.yul\":17076:17421   */\n    tag_189:\n        /* \"#utility.yul\":17143:17149   */\n      0x00\n        /* \"#utility.yul\":17192:17194   */\n      0x20\n        /* \"#utility.yul\":17180:17189   */\n      dup3\n        /* \"#utility.yul\":17171:17178   */\n      dup5\n        /* \"#utility.yul\":17167:17190   */\n      sub\n        /* \"#utility.yul\":17163:17195   */\n      slt\n        /* \"#utility.yul\":17160:17279   */\n      iszero\n      tag_614\n      jumpi\n        /* \"#utility.yul\":17198:17277   */\n      tag_615\n      tag_357\n      jump\t// in\n    tag_615:\n        /* \"#utility.yul\":17160:17279   */\n    tag_614:\n        /* \"#utility.yul\":17318:17319   */\n      0x00\n        /* \"#utility.yul\":17343:17404   */\n      tag_616\n        /* \"#utility.yul\":17396:17403   */\n      dup5\n        /* \"#utility.yul\":17387:17393   */\n      dup3\n        /* \"#utility.yul\":17376:17385   */\n      dup6\n        /* \"#utility.yul\":17372:17394   */\n      add\n        /* \"#utility.yul\":17343:17404   */\n      tag_401\n      jump\t// in\n    tag_616:\n        /* \"#utility.yul\":17333:17404   */\n      swap2\n      pop\n        /* \"#utility.yul\":17289:17414   */\n      pop\n        /* \"#utility.yul\":17076:17421   */\n      swap3\n      swap2\n      pop\n      pop\n      jump\t// out\n        /* \"#utility.yul\":17427:17759   */\n    tag_194:\n        /* \"#utility.yul\":17548:17552   */\n      0x00\n        /* \"#utility.yul\":17586:17588   */\n      0x40\n        /* \"#utility.yul\":17575:17584   */\n      dup3\n        /* \"#utility.yul\":17571:17589   */\n      add\n        /* \"#utility.yul\":17563:17589   */\n      swap1\n      pop\n        /* \"#utility.yul\":17599:17670   */\n      tag_618\n        /* \"#utility.yul\":17667:17668   */\n      0x00\n        /* \"#utility.yul\":17656:17665   */\n      dup4\n        /* \"#utility.yul\":17652:17669   */\n      add\n        /* \"#utility.yul\":17643:17649   */\n      dup6\n        /* \"#utility.yul\":17599:17670   */\n      tag_377\n      jump\t// in\n    tag_618:\n        /* \"#utility.yul\":17680:17752   */\n      tag_619\n        /* \"#utility.yul\":17748:17750   */\n      0x20\n        /* \"#utility.yul\":17737:17746   */\n      dup4\n        /* \"#utility.yul\":17733:17751   */\n      add\n        /* \"#utility.yul\":17724:17730   */\n      dup5\n        /* \"#utility.yul\":17680:17752   */\n      tag_377\n      jump\t// in\n    tag_619:\n        /* \"#utility.yul\":17427:17759   */\n      swap4\n      swap3\n      pop\n      pop\n      pop\n      jump\t// out\n        /* \"#utility.yul\":17765:17906   */\n    tag_402:\n        /* \"#utility.yul\":17814:17818   */\n      0x00\n        /* \"#utility.yul\":17837:17840   */\n      dup2\n        /* \"#utility.yul\":17829:17840   */\n      swap1\n      pop\n        /* \"#utility.yul\":17860:17863   */\n      dup2\n        /* \"#utility.yul\":17857:17858   */\n      0x00\n        /* \"#utility.yul\":17850:17864   */\n      mstore\n        /* \"#utility.yul\":17894:17898   */\n      0x20\n        /* \"#utility.yul\":17891:17892   */\n      0x00\n        /* \"#utility.yul\":17881:17899   */\n      keccak256\n        /* \"#utility.yul\":17873:17899   */\n      swap1\n      pop\n        /* \"#utility.yul\":17765:17906   */\n      swap2\n      swap1\n      pop\n      jump\t// out\n        /* \"#utility.yul\":17912:18005   */\n    tag_403:\n        /* \"#utility.yul\":17949:17955   */\n      0x00\n        /* \"#utility.yul\":17996:17998   */\n      0x20\n        /* \"#utility.yul\":17991:17993   */\n      0x1f\n        /* \"#utility.yul\":17984:17989   */\n      dup4\n        /* \"#utility.yul\":17980:17994   */\n      add\n        /* \"#utility.yul\":17976:17999   */\n      div\n        /* \"#utility.yul\":17966:17999   */\n      swap1\n      pop\n        /* \"#utility.yul\":17912:18005   */\n      swap2\n      swap1\n      pop\n      jump\t// out\n        /* \"#utility.yul\":18011:18118   */\n    tag_404:\n        /* \"#utility.yul\":18055:18063   */\n      0x00\n        /* \"#utility.yul\":18105:18110   */\n      dup3\n        /* \"#utility.yul\":18099:18103   */\n      dup3\n        /* \"#utility.yul\":18095:18111   */\n      shl\n        /* \"#utility.yul\":18074:18111   */\n      swap1\n      pop\n        /* \"#utility.yul\":18011:18118   */\n      swap3\n      swap2\n      pop\n      pop\n      jump\t// out\n        /* \"#utility.yul\":18124:18517   */\n    tag_405:\n        /* \"#utility.yul\":18193:18199   */\n      0x00\n        /* \"#utility.yul\":18243:18244   */\n      0x08\n        /* \"#utility.yul\":18231:18241   */\n      dup4\n        /* \"#utility.yul\":18227:18245   */\n      mul\n        /* \"#utility.yul\":18266:18363   */\n      tag_624\n        /* \"#utility.yul\":18296:18362   */\n      0xffffffffffffffffffffffffffffffffffffffffffffffffffffffffffffffff\n        /* \"#utility.yul\":18285:18294   */\n      dup3\n        /* \"#utility.yul\":18266:18363   */\n      tag_404\n      jump\t// in\n    tag_624:\n        /* \"#utility.yul\":18384:18423   */\n      tag_625\n        /* \"#utility.yul\":18414:18422   */\n      dup7\n        /* \"#utility.yul\":18403:18412   */\n      dup4\n        /* \"#utility.yul\":18384:18423   */\n      tag_404\n      jump\t// in\n    tag_625:\n        /* \"#utility.yul\":18372:18423   */\n      swap6\n      pop\n        /* \"#utility.yul\":18456:18460   */\n      dup1\n        /* \"#utility.yul\":18452:18461   */\n      not\n        /* \"#utility.yul\":18445:18450   */\n      dup5\n        /* \"#utility.yul\":18441:18462   */\n      and\n        /* \"#utility.yul\":18432:18462   */\n      swap4\n      pop\n        /* \"#utility.yul\":18505:18509   */\n      dup1\n        /* \"#utility.yul\":18495:18503   */\n      dup7\n        /* \"#utility.yul\":18491:18510   */\n      and\n        /* \"#utility.yul\":18484:18489   */\n      dup5\n        /* \"#utility.yul\":18481:18511   */\n      or\n        /* \"#utility.yul\":18471:18511   */\n      swap3\n      pop\n        /* \"#utility.yul\":18200:18517   */\n      pop\n      pop\n        /* \"#utility.yul\":18124:18517   */\n      swap4\n      swap3\n      pop\n      pop\n      pop\n      jump\t// out\n        /* \"#utility.yul\":18523:18665   */\n    tag_406:\n        /* \"#utility.yul\":18573:18582   */\n      0x00\n        /* \"#utility.yul\":18606:18659   */\n      tag_627\n        /* \"#utility.yul\":18624:18658   */\n      tag_628\n        /* \"#utility.yul\":18633:18657   */\n      tag_629\n        /* \"#utility.yul\":18651:18656   */\n      dup5\n        /* \"#utility.yul\":18633:18657   */\n      tag_369\n      jump\t// in\n    tag_629:\n        /* \"#utility.yul\":18624:18658   */\n      tag_391\n      jump\t// in\n    tag_628:\n        /* \"#utility.yul\":18606:18659   */\n      tag_369\n      jump\t// in\n    tag_627:\n        /* \"#utility.yul\":18593:18659   */\n      swap1\n      pop\n        /* \"#utility.yul\":18523:18665   */\n      swap2\n      swap1\n      pop\n      jump\t// out\n        /* \"#utility.yul\":18671:18746   */\n    tag_407:\n        /* \"#utility.yul\":18714:18717   */\n      0x00\n        /* \"#utility.yul\":18735:18740   */\n      dup2\n        /* \"#utility.yul\":18728:18740   */\n      swap1\n      pop\n        /* \"#utility.yul\":18671:18746   */\n      swap2\n      swap1\n      pop\n      jump\t// out\n        /* \"#utility.yul\":18752:19021   */\n    tag_408:\n        /* \"#utility.yul\":18862:18901   */\n      tag_632\n        /* \"#utility.yul\":18893:18900   */\n      dup4\n        /* \"#utility.yul\":18862:18901   */\n      tag_406\n      jump\t// in\n    tag_632:\n        /* \"#utility.yul\":18923:19014   */\n      tag_633\n        /* \"#utility.yul\":18972:19013   */\n      tag_634\n        /* \"#utility.yul\":18996:19012   */\n      dup3\n        /* \"#utility.yul\":18972:19013   */\n      tag_407\n      jump\t// in\n    tag_634:\n        /* \"#utility.yul\":18964:18970   */\n      dup5\n        /* \"#utility.yul\":18957:18961   */\n      dup5\n        /* \"#utility.yul\":18951:18962   */\n      sload\n        /* \"#utility.yul\":18923:19014   */\n      tag_405\n      jump\t// in\n    tag_633:\n        /* \"#utility.yul\":18917:18921   */\n      dup3\n        /* \"#utility.yul\":18910:19015   */\n      sstore\n        /* \"#utility.yul\":18828:19021   */\n      pop\n        /* \"#utility.yul\":18752:19021   */\n      pop\n      pop\n      pop\n      jump\t// out\n        /* \"#utility.yul\":19027:19100   */\n    tag_409:\n        /* \"#utility.yul\":19072:19075   */\n      0x00\n        /* \"#utility.yul\":19027:19100   */\n      swap1\n      jump\t// out\n        /* \"#utility.yul\":19106:19295   */\n    tag_410:\n        /* \"#utility.yul\":19183:19215   */\n      tag_637\n      tag_409\n      jump\t// in\n    tag_637:\n        /* \"#utility.yul\":19224:19289   */\n      tag_638\n        /* \"#utility.yul\":19282:19288   */\n      dup2\n        /* \"#utility.yul\":19274:19280   */\n      dup5\n        /* \"#utility.yul\":19268:19272   */\n      dup5\n        /* \"#utility.yul\":19224:19289   */\n      tag_408\n      jump\t// in\n    tag_638:\n        /* \"#utility.yul\":19159:19295   */\n      pop\n        /* \"#utility.yul\":19106:19295   */\n      pop\n      pop\n      jump\t// out\n        /* \"#utility.yul\":19301:19487   */\n    tag_411:\n        /* \"#utility.yul\":19361:19481   */\n    tag_640:\n        /* \"#utility.yul\":19378:19381   */\n      dup2\n        /* \"#utility.yul\":19371:19376   */\n      dup2\n        /* \"#utility.yul\":19368:19382   */\n      lt\n        /* \"#utility.yul\":19361:19481   */\n      iszero\n      tag_642\n      jumpi\n        /* \"#utility.yul\":19432:19471   */\n      tag_643\n        /* \"#utility.yul\":19469:19470   */\n      0x00\n        /* \"#utility.yul\":19462:19467   */\n      dup3\n        /* \"#utility.yul\":19432:19471   */\n      tag_410\n      jump\t// in\n    tag_643:\n        /* \"#utility.yul\":19405:19406   */\n      0x01\n        /* \"#utility.yul\":19398:19403   */\n      dup2\n        /* \"#utility.yul\":19394:19407   */\n      add\n        /* \"#utility.yul\":19385:19407   */\n      swap1\n      pop\n        /* \"#utility.yul\":19361:19481   */\n      jump(tag_640)\n    tag_642:\n        /* \"#utility.yul\":19301:19487   */\n      pop\n      pop\n      jump\t// out\n        /* \"#utility.yul\":19493:20036   */\n    tag_412:\n        /* \"#utility.yul\":19594:19596   */\n      0x1f\n        /* \"#utility.yul\":19589:19592   */\n      dup3\n        /* \"#utility.yul\":19586:19597   */\n      gt\n        /* \"#utility.yul\":19583:20029   */\n      iszero\n      tag_645\n      jumpi\n        /* \"#utility.yul\":19628:19666   */\n      tag_646\n        /* \"#utility.yul\":19660:19665   */\n      dup2\n        /* \"#utility.yul\":19628:19666   */\n      tag_402\n      jump\t// in\n    tag_646:\n        /* \"#utility.yul\":19712:19741   */\n      tag_647\n        /* \"#utility.yul\":19730:19740   */\n      dup5\n        /* \"#utility.yul\":19712:19741   */\n      tag_403\n      jump\t// in\n    tag_647:\n        /* \"#utility.yul\":19702:19710   */\n      dup2\n        /* \"#utility.yul\":19698:19742   */\n      add\n        /* \"#utility.yul\":19895:19897   */\n      0x20\n        /* \"#utility.yul\":19883:19893   */\n      dup6\n        /* \"#utility.yul\":19880:19898   */\n      lt\n        /* \"#utility.yul\":19877:19926   */\n      iszero\n      tag_648\n      jumpi\n        /* \"#utility.yul\":19916:19924   */\n      dup2\n        /* \"#utility.yul\":19901:19924   */\n      swap1\n      pop\n        /* \"#utility.yul\":19877:19926   */\n    tag_648:\n        /* \"#utility.yul\":19939:20019   */\n      tag_649\n        /* \"#utility.yul\":19995:20017   */\n      tag_650\n        /* \"#utility.yul\":20013:20016   */\n      dup6\n        /* \"#utility.yul\":19995:20017   */\n      tag_403\n      jump\t// in\n    tag_650:\n        /* \"#utility.yul\":19985:19993   */\n      dup4\n        /* \"#utility.yul\":19981:20018   */\n      add\n        /* \"#utility.yul\":19968:19979   */\n      dup3\n        /* \"#utility.yul\":19939:20019   */\n      tag_411\n      jump\t// in\n    tag_649:\n        /* \"#utility.yul\":19598:20029   */\n      pop\n      pop\n        /* \"#utility.yul\":19583:20029   */\n    tag_645:\n        /* \"#utility.yul\":19493:20036   */\n      pop\n      pop\n      pop\n      jump\t// out\n        /* \"#utility.yul\":20042:20159   */\n    tag_413:\n        /* \"#utility.yul\":20096:20104   */\n      0x00\n        /* \"#utility.yul\":20146:20151   */\n      dup3\n        /* \"#utility.yul\":20140:20144   */\n      dup3\n        /* \"#utility.yul\":20136:20152   */\n      shr\n        /* \"#utility.yul\":20115:20152   */\n      swap1\n      pop\n        /* \"#utility.yul\":20042:20159   */\n      swap3\n      swap2\n      pop\n      pop\n      jump\t// out\n        /* \"#utility.yul\":20165:20334   */\n    tag_414:\n        /* \"#utility.yul\":20209:20215   */\n      0x00\n        /* \"#utility.yul\":20242:20293   */\n      tag_653\n        /* \"#utility.yul\":20290:20291   */\n      0x00\n        /* \"#utility.yul\":20286:20292   */\n      not\n        /* \"#utility.yul\":20278:20283   */\n      dup5\n        /* \"#utility.yul\":20275:20276   */\n      0x08\n        /* \"#utility.yul\":20271:20284   */\n      mul\n        /* \"#utility.yul\":20242:20293   */\n      tag_413\n      jump\t// in\n    tag_653:\n        /* \"#utility.yul\":20238:20294   */\n      not\n        /* \"#utility.yul\":20323:20327   */\n      dup1\n        /* \"#utility.yul\":20317:20321   */\n      dup4\n        /* \"#utility.yul\":20313:20328   */\n      and\n        /* \"#utility.yul\":20303:20328   */\n      swap2\n      pop\n        /* \"#utility.yul\":20216:20334   */\n      pop\n        /* \"#utility.yul\":20165:20334   */\n      swap3\n      swap2\n      pop\n      pop\n      jump\t// out\n        /* \"#utility.yul\":20339:20634   */\n    tag_415:\n        /* \"#utility.yul\":20415:20419   */\n      0x00\n        /* \"#utility.yul\":20561:20590   */\n      tag_655\n        /* \"#utility.yul\":20586:20589   */\n      dup4\n        /* \"#utility.yul\":20580:20584   */\n      dup4\n        /* \"#utility.yul\":20561:20590   */\n      tag_414\n      jump\t// in\n    tag_655:\n        /* \"#utility.yul\":20553:20590   */\n      swap2\n      pop\n        /* \"#utility.yul\":20623:20626   */\n      dup3\n        /* \"#utility.yul\":20620:20621   */\n      0x02\n        /* \"#utility.yul\":20616:20627   */\n      mul\n        /* \"#utility.yul\":20610:20614   */\n      dup3\n        /* \"#utility.yul\":20607:20628   */\n      or\n        /* \"#utility.yul\":20599:20628   */\n      swap1\n      pop\n        /* \"#utility.yul\":20339:20634   */\n      swap3\n      swap2\n      pop\n      pop\n      jump\t// out\n        /* \"#utility.yul\":20639:22034   */\n    tag_211:\n        /* \"#utility.yul\":20756:20793   */\n      tag_657\n        /* \"#utility.yul\":20789:20792   */\n      dup3\n        /* \"#utility.yul\":20756:20793   */\n      tag_364\n      jump\t// in\n    tag_657:\n        /* \"#utility.yul\":20858:20876   */\n      0xffffffffffffffff\n        /* \"#utility.yul\":20850:20856   */\n      dup2\n        /* \"#utility.yul\":20847:20877   */\n      gt\n        /* \"#utility.yul\":20844:20900   */\n      iszero\n      tag_658\n      jumpi\n        /* \"#utility.yul\":20880:20898   */\n      tag_659\n      tag_302\n      jump\t// in\n    tag_659:\n        /* \"#utility.yul\":20844:20900   */\n    tag_658:\n        /* \"#utility.yul\":20924:20962   */\n      tag_660\n        /* \"#utility.yul\":20956:20960   */\n      dup3\n        /* \"#utility.yul\":20950:20961   */\n      sload\n        /* \"#utility.yul\":20924:20962   */\n      tag_125\n      jump\t// in\n    tag_660:\n        /* \"#utility.yul\":21009:21076   */\n      tag_661\n        /* \"#utility.yul\":21069:21075   */\n      dup3\n        /* \"#utility.yul\":21061:21067   */\n      dup3\n        /* \"#utility.yul\":21055:21059   */\n      dup6\n        /* \"#utility.yul\":21009:21076   */\n      tag_412\n      jump\t// in\n    tag_661:\n        /* \"#utility.yul\":21103:21104   */\n      0x00\n        /* \"#utility.yul\":21127:21131   */\n      0x20\n        /* \"#utility.yul\":21114:21131   */\n      swap1\n      pop\n        /* \"#utility.yul\":21159:21161   */\n      0x1f\n        /* \"#utility.yul\":21151:21157   */\n      dup4\n        /* \"#utility.yul\":21148:21162   */\n      gt\n        /* \"#utility.yul\":21176:21177   */\n      0x01\n        /* \"#utility.yul\":21171:21789   */\n      dup2\n      eq\n      tag_663\n      jumpi\n        /* \"#utility.yul\":21833:21834   */\n      0x00\n        /* \"#utility.yul\":21850:21856   */\n      dup5\n        /* \"#utility.yul\":21847:21924   */\n      iszero\n      tag_664\n      jumpi\n        /* \"#utility.yul\":21899:21908   */\n      dup3\n        /* \"#utility.yul\":21894:21897   */\n      dup8\n        /* \"#utility.yul\":21890:21909   */\n      add\n        /* \"#utility.yul\":21884:21910   */\n      mload\n        /* \"#utility.yul\":21875:21910   */\n      swap1\n      pop\n        /* \"#utility.yul\":21847:21924   */\n    tag_664:\n        /* \"#utility.yul\":21950:22017   */\n      tag_665\n        /* \"#utility.yul\":22010:22016   */\n      dup6\n        /* \"#utility.yul\":22003:22008   */\n      dup3\n        /* \"#utility.yul\":21950:22017   */\n      tag_415\n      jump\t// in\n    tag_665:\n        /* \"#utility.yul\":21944:21948   */\n      dup7\n        /* \"#utility.yul\":21937:22018   */\n      sstore\n        /* \"#utility.yul\":21806:22028   */\n      pop\n        /* \"#utility.yul\":21141:22028   */\n      jump(tag_662)\n        /* \"#utility.yul\":21171:21789   */\n    tag_663:\n        /* \"#utility.yul\":21223:21227   */\n      0x1f\n        /* \"#utility.yul\":21219:21228   */\n      not\n        /* \"#utility.yul\":21211:21217   */\n      dup5\n        /* \"#utility.yul\":21207:21229   */\n      and\n        /* \"#utility.yul\":21257:21294   */\n      tag_666\n        /* \"#utility.yul\":21289:21293   */\n      dup7\n        /* \"#utility.yul\":21257:21294   */\n      tag_402\n      jump\t// in\n    tag_666:\n        /* \"#utility.yul\":21316:21317   */\n      0x00\n        /* \"#utility.yul\":21330:21538   */\n    tag_667:\n        /* \"#utility.yul\":21344:21351   */\n      dup3\n        /* \"#utility.yul\":21341:21342   */\n      dup2\n        /* \"#utility.yul\":21338:21352   */\n      lt\n        /* \"#utility.yul\":21330:21538   */\n      iszero\n      tag_669\n      jumpi\n        /* \"#utility.yul\":21423:21432   */\n      dup5\n        /* \"#utility.yul\":21418:21421   */\n      dup10\n        /* \"#utility.yul\":21414:21433   */\n      add\n        /* \"#utility.yul\":21408:21434   */\n      mload\n        /* \"#utility.yul\":21400:21406   */\n      dup3\n        /* \"#utility.yul\":21393:21435   */\n      sstore\n        /* \"#utility.yul\":21474:21475   */\n      0x01\n        /* \"#utility.yul\":21466:21472   */\n      dup3\n        /* \"#utility.yul\":21462:21476   */\n      add\n        /* \"#utility.yul\":21452:21476   */\n      swap2\n      pop\n        /* \"#utility.yul\":21521:21523   */\n      0x20\n        /* \"#utility.yul\":21510:21519   */\n      dup6\n        /* \"#utility.yul\":21506:21524   */\n      add\n        /* \"#utility.yul\":21493:21524   */\n      swap5\n      pop\n        /* \"#utility.yul\":21367:21371   */\n      0x20\n        /* \"#utility.yul\":21364:21365   */\n      dup2\n        /* \"#utility.yul\":21360:21372   */\n      add\n        /* \"#utility.yul\":21355:21372   */\n      swap1\n      pop\n        /* \"#utility.yul\":21330:21538   */\n      jump(tag_667)\n    tag_669:\n        /* \"#utility.yul\":21566:21572   */\n      dup7\n        /* \"#utility.yul\":21557:21564   */\n      dup4\n        /* \"#utility.yul\":21554:21573   */\n      lt\n        /* \"#utility.yul\":21551:21730   */\n      iszero\n      tag_670\n      jumpi\n        /* \"#utility.yul\":21624:21633   */\n      dup5\n        /* \"#utility.yul\":21619:21622   */\n      dup10\n        /* \"#utility.yul\":21615:21634   */\n      add\n        /* \"#utility.yul\":21609:21635   */\n      mload\n        /* \"#utility.yul\":21667:21715   */\n      tag_671\n        /* \"#utility.yul\":21709:21713   */\n      0x1f\n        /* \"#utility.yul\":21701:21707   */\n      dup10\n        /* \"#utility.yul\":21697:21714   */\n      and\n        /* \"#utility.yul\":21686:21695   */\n      dup3\n        /* \"#utility.yul\":21667:21715   */\n      tag_414\n      jump\t// in\n    tag_671:\n        /* \"#utility.yul\":21659:21665   */\n      dup4\n        /* \"#utility.yul\":21652:21716   */\n      sstore\n        /* \"#utility.yul\":21574:21730   */\n      pop\n        /* \"#utility.yul\":21551:21730   */\n    tag_670:\n        /* \"#utility.yul\":21776:21777   */\n      0x01\n        /* \"#utility.yul\":21772:21773   */\n      0x02\n        /* \"#utility.yul\":21764:21770   */\n      dup9\n        /* \"#utility.yul\":21760:21774   */\n      mul\n        /* \"#utility.yul\":21756:21778   */\n      add\n        /* \"#utility.yul\":21750:21754   */\n      dup9\n        /* \"#utility.yul\":21743:21779   */\n      sstore\n        /* \"#utility.yul\":21178:21789   */\n      pop\n      pop\n      pop\n        /* \"#utility.yul\":21141:22028   */\n    tag_662:\n      pop\n        /* \"#utility.yul\":20731:22034   */\n      pop\n      pop\n      pop\n        /* \"#utility.yul\":20639:22034   */\n      pop\n      pop\n      jump\t// out\n        /* \"#utility.yul\":22040:22188   */\n    tag_416:\n        /* \"#utility.yul\":22142:22153   */\n      0x00\n        /* \"#utility.yul\":22179:22182   */\n      dup2\n        /* \"#utility.yul\":22164:22182   */\n      swap1\n      pop\n        /* \"#utility.yul\":22040:22188   */\n      swap3\n      swap2\n      pop\n      pop\n      jump\t// out\n        /* \"#utility.yul\":22194:22584   */\n    tag_417:\n        /* \"#utility.yul\":22300:22303   */\n      0x00\n        /* \"#utility.yul\":22328:22367   */\n      tag_674\n        /* \"#utility.yul\":22361:22366   */\n      dup3\n        /* \"#utility.yul\":22328:22367   */\n      tag_364\n      jump\t// in\n    tag_674:\n        /* \"#utility.yul\":22383:22472   */\n      tag_675\n        /* \"#utility.yul\":22465:22471   */\n      dup2\n        /* \"#utility.yul\":22460:22463   */\n      dup6\n        /* \"#utility.yul\":22383:22472   */\n      tag_416\n      jump\t// in\n    tag_675:\n        /* \"#utility.yul\":22376:22472   */\n      swap4\n      pop\n        /* \"#utility.yul\":22481:22546   */\n      tag_676\n        /* \"#utility.yul\":22539:22545   */\n      dup2\n        /* \"#utility.yul\":22534:22537   */\n      dup6\n        /* \"#utility.yul\":22527:22531   */\n      0x20\n        /* \"#utility.yul\":22520:22525   */\n      dup7\n        /* \"#utility.yul\":22516:22532   */\n      add\n        /* \"#utility.yul\":22481:22546   */\n      tag_366\n      jump\t// in\n    tag_676:\n        /* \"#utility.yul\":22571:22577   */\n      dup1\n        /* \"#utility.yul\":22566:22569   */\n      dup5\n        /* \"#utility.yul\":22562:22578   */\n      add\n        /* \"#utility.yul\":22555:22578   */\n      swap2\n      pop\n        /* \"#utility.yul\":22304:22584   */\n      pop\n        /* \"#utility.yul\":22194:22584   */\n      swap3\n      swap2\n      pop\n      pop\n      jump\t// out\n        /* \"#utility.yul\":22590:23025   */\n    tag_227:\n        /* \"#utility.yul\":22770:22773   */\n      0x00\n        /* \"#utility.yul\":22792:22887   */\n      tag_678\n        /* \"#utility.yul\":22883:22886   */\n      dup3\n        /* \"#utility.yul\":22874:22880   */\n      dup6\n        /* \"#utility.yul\":22792:22887   */\n      tag_417\n      jump\t// in\n    tag_678:\n        /* \"#utility.yul\":22785:22887   */\n      swap2\n      pop\n        /* \"#utility.yul\":22904:22999   */\n      tag_679\n        /* \"#utility.yul\":22995:22998   */\n      dup3\n        /* \"#utility.yul\":22986:22992   */\n      dup5\n        /* \"#utility.yul\":22904:22999   */\n      tag_417\n      jump\t// in\n    tag_679:\n        /* \"#utility.yul\":22897:22999   */\n      swap2\n      pop\n        /* \"#utility.yul\":23016:23019   */\n      dup2\n        /* \"#utility.yul\":23009:23019   */\n      swap1\n      pop\n        /* \"#utility.yul\":22590:23025   */\n      swap4\n      swap3\n      pop\n      pop\n      pop\n      jump\t// out\n        /* \"#utility.yul\":23031:23256   */\n    tag_418:\n        /* \"#utility.yul\":23171:23205   */\n      0x4f776e61626c653a206e6577206f776e657220697320746865207a65726f2061\n        /* \"#utility.yul\":23167:23168   */\n      0x00\n        /* \"#utility.yul\":23159:23165   */\n      dup3\n        /* \"#utility.yul\":23155:23169   */\n      add\n        /* \"#utility.yul\":23148:23206   */\n      mstore\n        /* \"#utility.yul\":23240:23248   */\n      0x6464726573730000000000000000000000000000000000000000000000000000\n        /* \"#utility.yul\":23235:23237   */\n      0x20\n        /* \"#utility.yul\":23227:23233   */\n      dup3\n        /* \"#utility.yul\":23223:23238   */\n      add\n        /* \"#utility.yul\":23216:23249   */\n      mstore\n        /* \"#utility.yul\":23031:23256   */\n      pop\n      jump\t// out\n        /* \"#utility.yul\":23262:23628   */\n    tag_419:\n        /* \"#utility.yul\":23404:23407   */\n      0x00\n        /* \"#utility.yul\":23425:23492   */\n      tag_682\n        /* \"#utility.yul\":23489:23491   */\n      0x26\n        /* \"#utility.yul\":23484:23487   */\n      dup4\n        /* \"#utility.yul\":23425:23492   */\n      tag_365\n      jump\t// in\n    tag_682:\n        /* \"#utility.yul\":23418:23492   */\n      swap2\n      pop\n        /* \"#utility.yul\":23501:23594   */\n      tag_683\n        /* \"#utility.yul\":23590:23593   */\n      dup3\n        /* \"#utility.yul\":23501:23594   */\n      tag_418\n      jump\t// in\n    tag_683:\n        /* \"#utility.yul\":23619:23621   */\n      0x40\n        /* \"#utility.yul\":23614:23617   */\n      dup3\n        /* \"#utility.yul\":23610:23622   */\n      add\n        /* \"#utility.yul\":23603:23622   */\n      swap1\n      pop\n        /* \"#utility.yul\":23262:23628   */\n      swap2\n      swap1\n      pop\n      jump\t// out\n        /* \"#utility.yul\":23634:24053   */\n    tag_236:\n        /* \"#utility.yul\":23800:23804   */\n      0x00\n        /* \"#utility.yul\":23838:23840   */\n      0x20\n        /* \"#utility.yul\":23827:23836   */\n      dup3\n        /* \"#utility.yul\":23823:23841   */\n      add\n        /* \"#utility.yul\":23815:23841   */\n      swap1\n      pop\n        /* \"#utility.yul\":23887:23896   */\n      dup2\n        /* \"#utility.yul\":23881:23885   */\n      dup2\n        /* \"#utility.yul\":23877:23897   */\n      sub\n        /* \"#utility.yul\":23873:23874   */\n      0x00\n        /* \"#utility.yul\":23862:23871   */\n      dup4\n        /* \"#utility.yul\":23858:23875   */\n      add\n        /* \"#utility.yul\":23851:23898   */\n      mstore\n        /* \"#utility.yul\":23915:24046   */\n      tag_685\n        /* \"#utility.yul\":24041:24045   */\n      dup2\n        /* \"#utility.yul\":23915:24046   */\n      tag_419\n      jump\t// in\n    tag_685:\n        /* \"#utility.yul\":23907:24046   */\n      swap1\n      pop\n        /* \"#utility.yul\":23634:24053   */\n      swap2\n      swap1\n      pop\n      jump\t// out\n        /* \"#utility.yul\":24059:24241   */\n    tag_420:\n        /* \"#utility.yul\":24199:24233   */\n      0x4f776e61626c653a2063616c6c6572206973206e6f7420746865206f776e6572\n        /* \"#utility.yul\":24195:24196   */\n      0x00\n        /* \"#utility.yul\":24187:24193   */\n      dup3\n        /* \"#utility.yul\":24183:24197   */\n      add\n        /* \"#utility.yul\":24176:24234   */\n      mstore\n        /* \"#utility.yul\":24059:24241   */\n      pop\n      jump\t// out\n        /* \"#utility.yul\":24247:24613   */\n    tag_421:\n        /* \"#utility.yul\":24389:24392   */\n      0x00\n        /* \"#utility.yul\":24410:24477   */\n      tag_688\n        /* \"#utility.yul\":24474:24476   */\n      0x20\n        /* \"#utility.yul\":24469:24472   */\n      dup4\n        /* \"#utility.yul\":24410:24477   */\n      tag_365\n      jump\t// in\n    tag_688:\n        /* \"#utility.yul\":24403:24477   */\n      swap2\n      pop\n        /* \"#utility.yul\":24486:24579   */\n      tag_689\n        /* \"#utility.yul\":24575:24578   */\n      dup3\n        /* \"#utility.yul\":24486:24579   */\n      tag_420\n      jump\t// in\n    tag_689:\n        /* \"#utility.yul\":24604:24606   */\n      0x20\n        /* \"#utility.yul\":24599:24602   */\n      dup3\n        /* \"#utility.yul\":24595:24607   */\n      add\n        /* \"#utility.yul\":24588:24607   */\n      swap1\n      pop\n        /* \"#utility.yul\":24247:24613   */\n      swap2\n      swap1\n      pop\n      jump\t// out\n        /* \"#utility.yul\":24619:25038   */\n    tag_263:\n        /* \"#utility.yul\":24785:24789   */\n      0x00\n        /* \"#utility.yul\":24823:24825   */\n      0x20\n        /* \"#utility.yul\":24812:24821   */\n      dup3\n        /* \"#utility.yul\":24808:24826   */\n      add\n        /* \"#utility.yul\":24800:24826   */\n      swap1\n      pop\n        /* \"#utility.yul\":24872:24881   */\n      dup2\n        /* \"#utility.yul\":24866:24870   */\n      dup2\n        /* \"#utility.yul\":24862:24882   */\n      sub\n        /* \"#utility.yul\":24858:24859   */\n      0x00\n        /* \"#utility.yul\":24847:24856   */\n      dup4\n        /* \"#utility.yul\":24843:24860   */\n      add\n        /* \"#utility.yul\":24836:24883   */\n      mstore\n        /* \"#utility.yul\":24900:25031   */\n      tag_691\n        /* \"#utility.yul\":25026:25030   */\n      dup2\n        /* \"#utility.yul\":24900:25031   */\n      tag_421\n      jump\t// in\n    tag_691:\n        /* \"#utility.yul\":24892:25031   */\n      swap1\n      pop\n        /* \"#utility.yul\":24619:25038   */\n      swap2\n      swap1\n      pop\n      jump\t// out\n        /* \"#utility.yul\":25044:25142   */\n    tag_422:\n        /* \"#utility.yul\":25095:25101   */\n      0x00\n        /* \"#utility.yul\":25129:25134   */\n      dup2\n        /* \"#utility.yul\":25123:25135   */\n      mload\n        /* \"#utility.yul\":25113:25135   */\n      swap1\n      pop\n        /* \"#utility.yul\":25044:25142   */\n      swap2\n      swap1\n      pop\n      jump\t// out\n        /* \"#utility.yul\":25148:25316   */\n    tag_423:\n        /* \"#utility.yul\":25231:25242   */\n      0x00\n        /* \"#utility.yul\":25265:25271   */\n      dup3\n        /* \"#utility.yul\":25260:25263   */\n      dup3\n        /* \"#utility.yul\":25253:25272   */\n      mstore\n        /* \"#utility.yul\":25305:25309   */\n      0x20\n        /* \"#utility.yul\":25300:25303   */\n      dup3\n        /* \"#utility.yul\":25296:25310   */\n      add\n        /* \"#utility.yul\":25281:25310   */\n      swap1\n      pop\n        /* \"#utility.yul\":25148:25316   */\n      swap3\n      swap2\n      pop\n      pop\n      jump\t// out\n        /* \"#utility.yul\":25322:25695   */\n    tag_424:\n        /* \"#utility.yul\":25408:25411   */\n      0x00\n        /* \"#utility.yul\":25436:25474   */\n      tag_695\n        /* \"#utility.yul\":25468:25473   */\n      dup3\n        /* \"#utility.yul\":25436:25474   */\n      tag_422\n      jump\t// in\n    tag_695:\n        /* \"#utility.yul\":25490:25560   */\n      tag_696\n        /* \"#utility.yul\":25553:25559   */\n      dup2\n        /* \"#utility.yul\":25548:25551   */\n      dup6\n        /* \"#utility.yul\":25490:25560   */\n      tag_423\n      jump\t// in\n    tag_696:\n        /* \"#utility.yul\":25483:25560   */\n      swap4\n      pop\n        /* \"#utility.yul\":25569:25634   */\n      tag_697\n        /* \"#utility.yul\":25627:25633   */\n      dup2\n        /* \"#utility.yul\":25622:25625   */\n      dup6\n        /* \"#utility.yul\":25615:25619   */\n      0x20\n        /* \"#utility.yul\":25608:25613   */\n      dup7\n        /* \"#utility.yul\":25604:25620   */\n      add\n        /* \"#utility.yul\":25569:25634   */\n      tag_366\n      jump\t// in\n    tag_697:\n        /* \"#utility.yul\":25659:25688   */\n      tag_698\n        /* \"#utility.yul\":25681:25687   */\n      dup2\n        /* \"#utility.yul\":25659:25688   */\n      tag_367\n      jump\t// in\n    tag_698:\n        /* \"#utility.yul\":25654:25657   */\n      dup5\n        /* \"#utility.yul\":25650:25689   */\n      add\n        /* \"#utility.yul\":25643:25689   */\n      swap2\n      pop\n        /* \"#utility.yul\":25412:25695   */\n      pop\n        /* \"#utility.yul\":25322:25695   */\n      swap3\n      swap2\n      pop\n      pop\n      jump\t// out\n        /* \"#utility.yul\":25701:26341   */\n    tag_280:\n        /* \"#utility.yul\":25896:25900   */\n      0x00\n        /* \"#utility.yul\":25934:25937   */\n      0x80\n        /* \"#utility.yul\":25923:25932   */\n      dup3\n        /* \"#utility.yul\":25919:25938   */\n      add\n        /* \"#utility.yul\":25911:25938   */\n      swap1\n      pop\n        /* \"#utility.yul\":25948:26019   */\n      tag_700\n        /* \"#utility.yul\":26016:26017   */\n      0x00\n        /* \"#utility.yul\":26005:26014   */\n      dup4\n        /* \"#utility.yul\":26001:26018   */\n      add\n        /* \"#utility.yul\":25992:25998   */\n      dup8\n        /* \"#utility.yul\":25948:26019   */\n      tag_374\n      jump\t// in\n    tag_700:\n        /* \"#utility.yul\":26029:26101   */\n      tag_701\n        /* \"#utility.yul\":26097:26099   */\n      0x20\n        /* \"#utility.yul\":26086:26095   */\n      dup4\n        /* \"#utility.yul\":26082:26100   */\n      add\n        /* \"#utility.yul\":26073:26079   */\n      dup7\n        /* \"#utility.yul\":26029:26101   */\n      tag_374\n      jump\t// in\n    tag_701:\n        /* \"#utility.yul\":26111:26183   */\n      tag_702\n        /* \"#utility.yul\":26179:26181   */\n      0x40\n        /* \"#utility.yul\":26168:26177   */\n      dup4\n        /* \"#utility.yul\":26164:26182   */\n      add\n        /* \"#utility.yul\":26155:26161   */\n      dup6\n        /* \"#utility.yul\":26111:26183   */\n      tag_377\n      jump\t// in\n    tag_702:\n        /* \"#utility.yul\":26230:26239   */\n      dup2\n        /* \"#utility.yul\":26224:26228   */\n      dup2\n        /* \"#utility.yul\":26220:26240   */\n      sub\n        /* \"#utility.yul\":26215:26217   */\n      0x60\n        /* \"#utility.yul\":26204:26213   */\n      dup4\n        /* \"#utility.yul\":26200:26218   */\n      add\n        /* \"#utility.yul\":26193:26241   */\n      mstore\n        /* \"#utility.yul\":26258:26334   */\n      tag_703\n        /* \"#utility.yul\":26329:26333   */\n      dup2\n        /* \"#utility.yul\":26320:26326   */\n      dup5\n        /* \"#utility.yul\":26258:26334   */\n      tag_424\n      jump\t// in\n    tag_703:\n        /* \"#utility.yul\":26250:26334   */\n      swap1\n      pop\n        /* \"#utility.yul\":25701:26341   */\n      swap6\n      swap5\n      pop\n      pop\n      pop\n      pop\n      pop\n      jump\t// out\n        /* \"#utility.yul\":26347:26488   */\n    tag_425:\n        /* \"#utility.yul\":26403:26408   */\n      0x00\n        /* \"#utility.yul\":26434:26440   */\n      dup2\n        /* \"#utility.yul\":26428:26441   */\n      mload\n        /* \"#utility.yul\":26419:26441   */\n      swap1\n      pop\n        /* \"#utility.yul\":26450:26482   */\n      tag_705\n        /* \"#utility.yul\":26476:26481   */\n      dup2\n        /* \"#utility.yul\":26450:26482   */\n      tag_360\n      jump\t// in\n    tag_705:\n        /* \"#utility.yul\":26347:26488   */\n      swap3\n      swap2\n      pop\n      pop\n      jump\t// out\n        /* \"#utility.yul\":26494:26843   */\n    tag_283:\n        /* \"#utility.yul\":26563:26569   */\n      0x00\n        /* \"#utility.yul\":26612:26614   */\n      0x20\n        /* \"#utility.yul\":26600:26609   */\n      dup3\n        /* \"#utility.yul\":26591:26598   */\n      dup5\n        /* \"#utility.yul\":26587:26610   */\n      sub\n        /* \"#utility.yul\":26583:26615   */\n      slt\n        /* \"#utility.yul\":26580:26699   */\n      iszero\n      tag_707\n      jumpi\n        /* \"#utility.yul\":26618:26697   */\n      tag_708\n      tag_357\n      jump\t// in\n    tag_708:\n        /* \"#utility.yul\":26580:26699   */\n    tag_707:\n        /* \"#utility.yul\":26738:26739   */\n      0x00\n        /* \"#utility.yul\":26763:26826   */\n      tag_709\n        /* \"#utility.yul\":26818:26825   */\n      dup5\n        /* \"#utility.yul\":26809:26815   */\n      dup3\n        /* \"#utility.yul\":26798:26807   */\n      dup6\n        /* \"#utility.yul\":26794:26816   */\n      add\n        /* \"#utility.yul\":26763:26826   */\n      tag_425\n      jump\t// in\n    tag_709:\n        /* \"#utility.yul\":26753:26826   */\n      swap2\n      pop\n        /* \"#utility.yul\":26709:26836   */\n      pop\n        /* \"#utility.yul\":26494:26843   */\n      swap3\n      swap2\n      pop\n      pop\n      jump\t// out\n        /* \"#utility.yul\":26849:27029   */\n    tag_308:\n        /* \"#utility.yul\":26897:26974   */\n      0x4e487b7100000000000000000000000000000000000000000000000000000000\n        /* \"#utility.yul\":26894:26895   */\n      0x00\n        /* \"#utility.yul\":26887:26975   */\n      mstore\n        /* \"#utility.yul\":26994:26998   */\n      0x12\n        /* \"#utility.yul\":26991:26992   */\n      0x04\n        /* \"#utility.yul\":26984:26999   */\n      mstore\n        /* \"#utility.yul\":27018:27022   */\n      0x24\n        /* \"#utility.yul\":27015:27016   */\n      0x00\n        /* \"#utility.yul\":27008:27023   */\n      revert\n        /* \"#utility.yul\":27035:27367   */\n    tag_329:\n        /* \"#utility.yul\":27156:27160   */\n      0x00\n        /* \"#utility.yul\":27194:27196   */\n      0x40\n        /* \"#utility.yul\":27183:27192   */\n      dup3\n        /* \"#utility.yul\":27179:27197   */\n      add\n        /* \"#utility.yul\":27171:27197   */\n      swap1\n      pop\n        /* \"#utility.yul\":27207:27278   */\n      tag_712\n        /* \"#utility.yul\":27275:27276   */\n      0x00\n        /* \"#utility.yul\":27264:27273   */\n      dup4\n        /* \"#utility.yul\":27260:27277   */\n      add\n        /* \"#utility.yul\":27251:27257   */\n      dup6\n        /* \"#utility.yul\":27207:27278   */\n      tag_374\n      jump\t// in\n    tag_712:\n        /* \"#utility.yul\":27288:27360   */\n      tag_713\n        /* \"#utility.yul\":27356:27358   */\n      0x20\n        /* \"#utility.yul\":27345:27354   */\n      dup4\n        /* \"#utility.yul\":27341:27359   */\n      add\n        /* \"#utility.yul\":27332:27338   */\n      dup5\n        /* \"#utility.yul\":27288:27360   */\n      tag_377\n      jump\t// in\n    tag_713:\n        /* \"#utility.yul\":27035:27367   */\n      swap4\n      swap3\n      pop\n      pop\n      pop\n      jump\t// out\n\n    auxdata: 0xa26469706673582212204ad4404d4ebcf34e5a6bd6a5c460000674b3c49a52ea9b38f43bc15a5f189f7464736f6c63430008160033\n}\n",
				"bytecode": {
					"linkReferences": {},
					"object": "608060405234801562000010575f80fd5b506040516200311a3803806200311a83398181016040528101906200003691906200025d565b6040518060400160405280600b81526020017f50726f6475637442696c6c0000000000000000000000000000000000000000008152506040518060400160405280600381526020017f50424c0000000000000000000000000000000000000000000000000000000000815250815f9081620000b29190620004f1565b508060019081620000c49190620004f1565b505050620000e7620000db6200012e60201b60201c565b6200013560201b60201c565b8060085f6101000a81548173ffffffffffffffffffffffffffffffffffffffff021916908373ffffffffffffffffffffffffffffffffffffffff16021790555050620005d5565b5f33905090565b5f60065f9054906101000a900473ffffffffffffffffffffffffffffffffffffffff1690508160065f6101000a81548173ffffffffffffffffffffffffffffffffffffffff021916908373ffffffffffffffffffffffffffffffffffffffff1602179055508173ffffffffffffffffffffffffffffffffffffffff168173ffffffffffffffffffffffffffffffffffffffff167f8be0079c531659141344cd1fd0a4f28419497f9722a3daafe3b4186f6b6457e060405160405180910390a35050565b5f80fd5b5f73ffffffffffffffffffffffffffffffffffffffff82169050919050565b5f6200022782620001fc565b9050919050565b62000239816200021b565b811462000244575f80fd5b50565b5f8151905062000257816200022e565b92915050565b5f60208284031215620002755762000274620001f8565b5b5f620002848482850162000247565b91505092915050565b5f81519050919050565b7f4e487b71000000000000000000000000000000000000000000000000000000005f52604160045260245ffd5b7f4e487b71000000000000000000000000000000000000000000000000000000005f52602260045260245ffd5b5f60028204905060018216806200030957607f821691505b6020821081036200031f576200031e620002c4565b5b50919050565b5f819050815f5260205f209050919050565b5f6020601f8301049050919050565b5f82821b905092915050565b5f60088302620003837fffffffffffffffffffffffffffffffffffffffffffffffffffffffffffffffff8262000346565b6200038f868362000346565b95508019841693508086168417925050509392505050565b5f819050919050565b5f819050919050565b5f620003d9620003d3620003cd84620003a7565b620003b0565b620003a7565b9050919050565b5f819050919050565b620003f483620003b9565b6200040c6200040382620003e0565b84845462000352565b825550505050565b5f90565b6200042262000414565b6200042f818484620003e9565b505050565b5b8181101562000456576200044a5f8262000418565b60018101905062000435565b5050565b601f821115620004a5576200046f8162000325565b6200047a8462000337565b810160208510156200048a578190505b620004a2620004998562000337565b83018262000434565b50505b505050565b5f82821c905092915050565b5f620004c75f1984600802620004aa565b1980831691505092915050565b5f620004e18383620004b6565b9150826002028217905092915050565b620004fc826200028d565b67ffffffffffffffff81111562000518576200051762000297565b5b620005248254620002f1565b620005318282856200045a565b5f60209050601f83116001811462000567575f841562000552578287015190505b6200055e8582620004d4565b865550620005cd565b601f198416620005778662000325565b5f5b82811015620005a05784890151825560018201915060208501945060208101905062000579565b86831015620005c05784890151620005bc601f891682620004b6565b8355505b6001600288020188555050505b505050505050565b612b3780620005e35f395ff3fe608060405234801561000f575f80fd5b5060043610610140575f3560e01c80638642269e116100b6578063b88d4fde1161007a578063b88d4fde14610386578063c87b56dd146103a2578063cf2c0334146103d2578063e985e9c514610402578063f2fde38b14610432578063fc0c546a1461044e57610140565b80638642269e146102e25780638da5cb5b1461031257806395d89b4114610330578063a22cb4651461034e578063b15247d91461036a57610140565b806342842e0e1161010857806342842e0e146101fa5780635ba2530b146102165780636352211e1461024757806370a0823114610277578063715018a6146102a75780637acc0b20146102b157610140565b806301ffc9a71461014457806306fdde0314610174578063081812fc14610192578063095ea7b3146101c257806323b872dd146101de575b5f80fd5b61015e60048036038101906101599190611d6a565b61046c565b60405161016b9190611daf565b60405180910390f35b61017c61054d565b6040516101899190611e52565b60405180910390f35b6101ac60048036038101906101a79190611ea5565b6105dc565b6040516101b99190611f0f565b60405180910390f35b6101dc60048036038101906101d79190611f52565b6105f7565b005b6101f860048036038101906101f39190611f90565b61060d565b005b610214600480360381019061020f9190611f90565b61070c565b005b610230600480360381019061022b9190611ea5565b61072b565b60405161023e929190611fef565b60405180910390f35b610261600480360381019061025c9190611ea5565b610829565b60405161026e9190611f0f565b60405180910390f35b610291600480360381019061028c919061201d565b61083a565b60405161029e9190612048565b60405180910390f35b6102af6108f0565b005b6102cb60048036038101906102c69190611ea5565b610903565b6040516102d9929190611fef565b60405180910390f35b6102fc60048036038101906102f79190611ea5565b6109a9565b6040516103099190612048565b60405180910390f35b61031a610b81565b6040516103279190611f0f565b60405180910390f35b610338610ba9565b6040516103459190611e52565b60405180910390f35b6103686004803603810190610363919061208b565b610c39565b005b610384600480360381019061037f91906121f5565b610c4f565b005b6103a0600480360381019061039b91906122ed565b610cba565b005b6103bc60048036038101906103b79190611ea5565b610cd7565b6040516103c99190611e52565b60405180910390f35b6103ec60048036038101906103e79190611f52565b610d3d565b6040516103f99190612048565b60405180910390f35b61041c6004803603810190610417919061236d565b610d68565b6040516104299190611daf565b60405180910390f35b61044c6004803603810190610447919061201d565b610df6565b005b610456610e78565b6040516104639190612406565b60405180910390f35b5f7f80ac58cd000000000000000000000000000000000000000000000000000000007bffffffffffffffffffffffffffffffffffffffffffffffffffffffff1916827bffffffffffffffffffffffffffffffffffffffffffffffffffffffff1916148061053657507f5b5e139f000000000000000000000000000000000000000000000000000000007bffffffffffffffffffffffffffffffffffffffffffffffffffffffff1916827bffffffffffffffffffffffffffffffffffffffffffffffffffffffff1916145b80610546575061054582610e9d565b5b9050919050565b60605f805461055b9061244c565b80601f01602080910402602001604051908101604052809291908181526020018280546105879061244c565b80156105d25780601f106105a9576101008083540402835291602001916105d2565b820191905f5260205f20905b8154815290600101906020018083116105b557829003601f168201915b5050505050905090565b5f6105e682610f06565b506105f082610f8c565b9050919050565b6106098282610604610fc5565b610fcc565b5050565b5f73ffffffffffffffffffffffffffffffffffffffff168273ffffffffffffffffffffffffffffffffffffffff160361067d575f6040517f64a0ae920000000000000000000000000000000000000000000000000000000081526004016106749190611f0f565b60405180910390fd5b5f610690838361068b610fc5565b610fde565b90508373ffffffffffffffffffffffffffffffffffffffff168173ffffffffffffffffffffffffffffffffffffffff1614610706578382826040517f64283d7b0000000000000000000000000000000000000000000000000000000081526004016106fd9392919061247c565b60405180910390fd5b50505050565b61072683838360405180602001604052805f815250610cba565b505050565b60605f61073860076111e9565b8310610779576040517f08c379a0000000000000000000000000000000000000000000000000000000008152600401610770906124fb565b60405180910390fd5b5f60095f8581526020019081526020015f209050805f0181600101548180546107a19061244c565b80601f01602080910402602001604051908101604052809291908181526020018280546107cd9061244c565b80156108185780601f106107ef57610100808354040283529160200191610818565b820191905f5260205f20905b8154815290600101906020018083116107fb57829003601f168201915b505050505091509250925050915091565b5f61083382610f06565b9050919050565b5f8073ffffffffffffffffffffffffffffffffffffffff168273ffffffffffffffffffffffffffffffffffffffff16036108ab575f6040517f89c62b640000000000000000000000000000000000000000000000000000000081526004016108a29190611f0f565b60405180910390fd5b60035f8373ffffffffffffffffffffffffffffffffffffffff1673ffffffffffffffffffffffffffffffffffffffff1681526020019081526020015f20549050919050565b6108f86111f5565b6109015f611273565b565b6009602052805f5260405f205f91509050805f0180546109229061244c565b80601f016020809104026020016040519081016040528092919081815260200182805461094e9061244c565b80156109995780601f1061097057610100808354040283529160200191610999565b820191905f5260205f20905b81548152906001019060200180831161097c57829003601f168201915b5050505050908060010154905082565b5f8060095f8481526020019081526020015f2090505f815f0180546109cd9061244c565b905011610a0f576040517f08c379a0000000000000000000000000000000000000000000000000000000008152600401610a0690612563565b60405180910390fd5b60085f9054906101000a900473ffffffffffffffffffffffffffffffffffffffff1673ffffffffffffffffffffffffffffffffffffffff166323b872dd33610a55610b81565b84600101546040518463ffffffff1660e01b8152600401610a7893929190612581565b6020604051808303815f875af1158015610a94573d5f803e3d5ffd5b505050506040513d601f19601f82011682018060405250810190610ab891906125ca565b50610ac33384611336565b600a5f3373ffffffffffffffffffffffffffffffffffffffff1673ffffffffffffffffffffffffffffffffffffffff1681526020019081526020015f2083908060018154018082558091505060019003905f5260205f20015f90919091909150553373ffffffffffffffffffffffffffffffffffffffff167f228a5d93a19503d5154326b1b21603e2cdd97bda22fc58196235b4490659fc01848360010154604051610b709291906125f5565b60405180910390a282915050919050565b5f60065f9054906101000a900473ffffffffffffffffffffffffffffffffffffffff16905090565b606060018054610bb89061244c565b80601f0160208091040260200160405190810160405280929190818152602001828054610be49061244c565b8015610c2f5780601f10610c0657610100808354040283529160200191610c2f565b820191905f5260205f20905b815481529060010190602001808311610c1257829003601f168201915b5050505050905090565b610c4b610c44610fc5565b8383611429565b5050565b610c576111f5565b5f610c6260076111e9565b905060405180604001604052808481526020018381525060095f8381526020019081526020015f205f820151815f019081610c9d91906127b0565b5060208201518160010155905050610cb56007611592565b505050565b610cc584848461060d565b610cd1848484846115a6565b50505050565b6060610ce282610f06565b505f610cec611758565b90505f815111610d0a5760405180602001604052805f815250610d35565b80610d148461176e565b604051602001610d259291906128b9565b6040516020818303038152906040525b915050919050565b600a602052815f5260405f208181548110610d56575f80fd5b905f5260205f20015f91509150505481565b5f60055f8473ffffffffffffffffffffffffffffffffffffffff1673ffffffffffffffffffffffffffffffffffffffff1681526020019081526020015f205f8373ffffffffffffffffffffffffffffffffffffffff1673ffffffffffffffffffffffffffffffffffffffff1681526020019081526020015f205f9054906101000a900460ff16905092915050565b610dfe6111f5565b5f73ffffffffffffffffffffffffffffffffffffffff168173ffffffffffffffffffffffffffffffffffffffff1603610e6c576040517f08c379a0000000000000000000000000000000000000000000000000000000008152600401610e639061294c565b60405180910390fd5b610e7581611273565b50565b60085f9054906101000a900473ffffffffffffffffffffffffffffffffffffffff1681565b5f7f01ffc9a7000000000000000000000000000000000000000000000000000000007bffffffffffffffffffffffffffffffffffffffffffffffffffffffff1916827bffffffffffffffffffffffffffffffffffffffffffffffffffffffff1916149050919050565b5f80610f1183611838565b90505f73ffffffffffffffffffffffffffffffffffffffff168173ffffffffffffffffffffffffffffffffffffffff1603610f8357826040517f7e273289000000000000000000000000000000000000000000000000000000008152600401610f7a9190612048565b60405180910390fd5b80915050919050565b5f60045f8381526020019081526020015f205f9054906101000a900473ffffffffffffffffffffffffffffffffffffffff169050919050565b5f33905090565b610fd98383836001611871565b505050565b5f80610fe984611838565b90505f73ffffffffffffffffffffffffffffffffffffffff168373ffffffffffffffffffffffffffffffffffffffff161461102a57611029818486611a30565b5b5f73ffffffffffffffffffffffffffffffffffffffff168173ffffffffffffffffffffffffffffffffffffffff16146110b5576110695f855f80611871565b600160035f8373ffffffffffffffffffffffffffffffffffffffff1673ffffffffffffffffffffffffffffffffffffffff1681526020019081526020015f205f82825403925050819055505b5f73ffffffffffffffffffffffffffffffffffffffff168573ffffffffffffffffffffffffffffffffffffffff161461113457600160035f8773ffffffffffffffffffffffffffffffffffffffff1673ffffffffffffffffffffffffffffffffffffffff1681526020019081526020015f205f82825401925050819055505b8460025f8681526020019081526020015f205f6101000a81548173ffffffffffffffffffffffffffffffffffffffff021916908373ffffffffffffffffffffffffffffffffffffffff160217905550838573ffffffffffffffffffffffffffffffffffffffff168273ffffffffffffffffffffffffffffffffffffffff167fddf252ad1be2c89b69c2b068fc378daa952ba7f163c4a11628f55a4df523b3ef60405160405180910390a4809150509392505050565b5f815f01549050919050565b6111fd610fc5565b73ffffffffffffffffffffffffffffffffffffffff1661121b610b81565b73ffffffffffffffffffffffffffffffffffffffff1614611271576040517f08c379a0000000000000000000000000000000000000000000000000000000008152600401611268906129b4565b60405180910390fd5b565b5f60065f9054906101000a900473ffffffffffffffffffffffffffffffffffffffff1690508160065f6101000a81548173ffffffffffffffffffffffffffffffffffffffff021916908373ffffffffffffffffffffffffffffffffffffffff1602179055508173ffffffffffffffffffffffffffffffffffffffff168173ffffffffffffffffffffffffffffffffffffffff167f8be0079c531659141344cd1fd0a4f28419497f9722a3daafe3b4186f6b6457e060405160405180910390a35050565b5f73ffffffffffffffffffffffffffffffffffffffff168273ffffffffffffffffffffffffffffffffffffffff16036113a6575f6040517f64a0ae9200000000000000000000000000000000000000000000000000000000815260040161139d9190611f0f565b60405180910390fd5b5f6113b283835f610fde565b90505f73ffffffffffffffffffffffffffffffffffffffff168173ffffffffffffffffffffffffffffffffffffffff1614611424575f6040517f73c6ac6e00000000000000000000000000000000000000000000000000000000815260040161141b9190611f0f565b60405180910390fd5b505050565b5f73ffffffffffffffffffffffffffffffffffffffff168273ffffffffffffffffffffffffffffffffffffffff160361149957816040517f5b08ba180000000000000000000000000000000000000000000000000000000081526004016114909190611f0f565b60405180910390fd5b8060055f8573ffffffffffffffffffffffffffffffffffffffff1673ffffffffffffffffffffffffffffffffffffffff1681526020019081526020015f205f8473ffffffffffffffffffffffffffffffffffffffff1673ffffffffffffffffffffffffffffffffffffffff1681526020019081526020015f205f6101000a81548160ff0219169083151502179055508173ffffffffffffffffffffffffffffffffffffffff168373ffffffffffffffffffffffffffffffffffffffff167f17307eab39ab6107e8899845ad3d59bd9653f200f220920489ca2b5937696c31836040516115859190611daf565b60405180910390a3505050565b6001815f015f828254019250508190555050565b5f8373ffffffffffffffffffffffffffffffffffffffff163b1115611752578273ffffffffffffffffffffffffffffffffffffffff1663150b7a026115e9610fc5565b8685856040518563ffffffff1660e01b815260040161160b9493929190612a24565b6020604051808303815f875af192505050801561164657506040513d601f19601f820116820180604052508101906116439190612a82565b60015b6116c7573d805f8114611674576040519150601f19603f3d011682016040523d82523d5f602084013e611679565b606091505b505f8151036116bf57836040517f64a0ae920000000000000000000000000000000000000000000000000000000081526004016116b69190611f0f565b60405180910390fd5b805181602001fd5b63150b7a0260e01b7bffffffffffffffffffffffffffffffffffffffffffffffffffffffff1916817bffffffffffffffffffffffffffffffffffffffffffffffffffffffff19161461175057836040517f64a0ae920000000000000000000000000000000000000000000000000000000081526004016117479190611f0f565b60405180910390fd5b505b50505050565b606060405180602001604052805f815250905090565b60605f600161177c84611af3565b0190505f8167ffffffffffffffff81111561179a576117996120d1565b5b6040519080825280601f01601f1916602001820160405280156117cc5781602001600182028036833780820191505090505b5090505f82602001820190505b60011561182d578080600190039150507f3031323334353637383961626364656600000000000000000000000000000000600a86061a8153600a858161182257611821612aad565b5b0494505f85036117d9575b819350505050919050565b5f60025f8381526020019081526020015f205f9054906101000a900473ffffffffffffffffffffffffffffffffffffffff169050919050565b80806118a957505f73ffffffffffffffffffffffffffffffffffffffff168273ffffffffffffffffffffffffffffffffffffffff1614155b156119db575f6118b884610f06565b90505f73ffffffffffffffffffffffffffffffffffffffff168373ffffffffffffffffffffffffffffffffffffffff161415801561192257508273ffffffffffffffffffffffffffffffffffffffff168173ffffffffffffffffffffffffffffffffffffffff1614155b801561193557506119338184610d68565b155b1561197757826040517fa9fbf51f00000000000000000000000000000000000000000000000000000000815260040161196e9190611f0f565b60405180910390fd5b81156119d957838573ffffffffffffffffffffffffffffffffffffffff168273ffffffffffffffffffffffffffffffffffffffff167f8c5be1e5ebec7d5bd14f71427d1e84f3dd0314c0f7b2291e5b200ac8c7c3b92560405160405180910390a45b505b8360045f8581526020019081526020015f205f6101000a81548173ffffffffffffffffffffffffffffffffffffffff021916908373ffffffffffffffffffffffffffffffffffffffff16021790555050505050565b611a3b838383611c44565b611aee575f73ffffffffffffffffffffffffffffffffffffffff168373ffffffffffffffffffffffffffffffffffffffff1603611aaf57806040517f7e273289000000000000000000000000000000000000000000000000000000008152600401611aa69190612048565b60405180910390fd5b81816040517f177e802f000000000000000000000000000000000000000000000000000000008152600401611ae5929190612ada565b60405180910390fd5b505050565b5f805f90507a184f03e93ff9f4daa797ed6e38ed64bf6a1f0100000000000000008310611b4f577a184f03e93ff9f4daa797ed6e38ed64bf6a1f0100000000000000008381611b4557611b44612aad565b5b0492506040810190505b6d04ee2d6d415b85acef81000000008310611b8c576d04ee2d6d415b85acef81000000008381611b8257611b81612aad565b5b0492506020810190505b662386f26fc100008310611bbb57662386f26fc100008381611bb157611bb0612aad565b5b0492506010810190505b6305f5e1008310611be4576305f5e1008381611bda57611bd9612aad565b5b0492506008810190505b6127108310611c09576127108381611bff57611bfe612aad565b5b0492506004810190505b60648310611c2c5760648381611c2257611c21612aad565b5b0492506002810190505b600a8310611c3b576001810190505b80915050919050565b5f8073ffffffffffffffffffffffffffffffffffffffff168373ffffffffffffffffffffffffffffffffffffffff1614158015611cfb57508273ffffffffffffffffffffffffffffffffffffffff168473ffffffffffffffffffffffffffffffffffffffff161480611cbc5750611cbb8484610d68565b5b80611cfa57508273ffffffffffffffffffffffffffffffffffffffff16611ce283610f8c565b73ffffffffffffffffffffffffffffffffffffffff16145b5b90509392505050565b5f604051905090565b5f80fd5b5f80fd5b5f7fffffffff0000000000000000000000000000000000000000000000000000000082169050919050565b611d4981611d15565b8114611d53575f80fd5b50565b5f81359050611d6481611d40565b92915050565b5f60208284031215611d7f57611d7e611d0d565b5b5f611d8c84828501611d56565b91505092915050565b5f8115159050919050565b611da981611d95565b82525050565b5f602082019050611dc25f830184611da0565b92915050565b5f81519050919050565b5f82825260208201905092915050565b5f5b83811015611dff578082015181840152602081019050611de4565b5f8484015250505050565b5f601f19601f8301169050919050565b5f611e2482611dc8565b611e2e8185611dd2565b9350611e3e818560208601611de2565b611e4781611e0a565b840191505092915050565b5f6020820190508181035f830152611e6a8184611e1a565b905092915050565b5f819050919050565b611e8481611e72565b8114611e8e575f80fd5b50565b5f81359050611e9f81611e7b565b92915050565b5f60208284031215611eba57611eb9611d0d565b5b5f611ec784828501611e91565b91505092915050565b5f73ffffffffffffffffffffffffffffffffffffffff82169050919050565b5f611ef982611ed0565b9050919050565b611f0981611eef565b82525050565b5f602082019050611f225f830184611f00565b92915050565b611f3181611eef565b8114611f3b575f80fd5b50565b5f81359050611f4c81611f28565b92915050565b5f8060408385031215611f6857611f67611d0d565b5b5f611f7585828601611f3e565b9250506020611f8685828601611e91565b9150509250929050565b5f805f60608486031215611fa757611fa6611d0d565b5b5f611fb486828701611f3e565b9350506020611fc586828701611f3e565b9250506040611fd686828701611e91565b9150509250925092565b611fe981611e72565b82525050565b5f6040820190508181035f8301526120078185611e1a565b90506120166020830184611fe0565b9392505050565b5f6020828403121561203257612031611d0d565b5b5f61203f84828501611f3e565b91505092915050565b5f60208201905061205b5f830184611fe0565b92915050565b61206a81611d95565b8114612074575f80fd5b50565b5f8135905061208581612061565b92915050565b5f80604083850312156120a1576120a0611d0d565b5b5f6120ae85828601611f3e565b92505060206120bf85828601612077565b9150509250929050565b5f80fd5b5f80fd5b7f4e487b71000000000000000000000000000000000000000000000000000000005f52604160045260245ffd5b61210782611e0a565b810181811067ffffffffffffffff82111715612126576121256120d1565b5b80604052505050565b5f612138611d04565b905061214482826120fe565b919050565b5f67ffffffffffffffff821115612163576121626120d1565b5b61216c82611e0a565b9050602081019050919050565b828183375f83830152505050565b5f61219961219484612149565b61212f565b9050828152602081018484840111156121b5576121b46120cd565b5b6121c0848285612179565b509392505050565b5f82601f8301126121dc576121db6120c9565b5b81356121ec848260208601612187565b91505092915050565b5f806040838503121561220b5761220a611d0d565b5b5f83013567ffffffffffffffff81111561222857612227611d11565b5b612234858286016121c8565b925050602061224585828601611e91565b9150509250929050565b5f67ffffffffffffffff821115612269576122686120d1565b5b61227282611e0a565b9050602081019050919050565b5f61229161228c8461224f565b61212f565b9050828152602081018484840111156122ad576122ac6120cd565b5b6122b8848285612179565b509392505050565b5f82601f8301126122d4576122d36120c9565b5b81356122e484826020860161227f565b91505092915050565b5f805f806080858703121561230557612304611d0d565b5b5f61231287828801611f3e565b945050602061232387828801611f3e565b935050604061233487828801611e91565b925050606085013567ffffffffffffffff81111561235557612354611d11565b5b612361878288016122c0565b91505092959194509250565b5f806040838503121561238357612382611d0d565b5b5f61239085828601611f3e565b92505060206123a185828601611f3e565b9150509250929050565b5f819050919050565b5f6123ce6123c96123c484611ed0565b6123ab565b611ed0565b9050919050565b5f6123df826123b4565b9050919050565b5f6123f0826123d5565b9050919050565b612400816123e6565b82525050565b5f6020820190506124195f8301846123f7565b92915050565b7f4e487b71000000000000000000000000000000000000000000000000000000005f52602260045260245ffd5b5f600282049050600182168061246357607f821691505b6020821081036124765761247561241f565b5b50919050565b5f60608201905061248f5f830186611f00565b61249c6020830185611fe0565b6124a96040830184611f00565b949350505050565b7f42696c6c20646f6573206e6f74206578697374000000000000000000000000005f82015250565b5f6124e5601383611dd2565b91506124f0826124b1565b602082019050919050565b5f6020820190508181035f830152612512816124d9565b9050919050565b7f50726f6475637420646f6573206e6f74206578697374000000000000000000005f82015250565b5f61254d601683611dd2565b915061255882612519565b602082019050919050565b5f6020820190508181035f83015261257a81612541565b9050919050565b5f6060820190506125945f830186611f00565b6125a16020830185611f00565b6125ae6040830184611fe0565b949350505050565b5f815190506125c481612061565b92915050565b5f602082840312156125df576125de611d0d565b5b5f6125ec848285016125b6565b91505092915050565b5f6040820190506126085f830185611fe0565b6126156020830184611fe0565b9392505050565b5f819050815f5260205f209050919050565b5f6020601f8301049050919050565b5f82821b905092915050565b5f600883026126787fffffffffffffffffffffffffffffffffffffffffffffffffffffffffffffffff8261263d565b612682868361263d565b95508019841693508086168417925050509392505050565b5f6126b46126af6126aa84611e72565b6123ab565b611e72565b9050919050565b5f819050919050565b6126cd8361269a565b6126e16126d9826126bb565b848454612649565b825550505050565b5f90565b6126f56126e9565b6127008184846126c4565b505050565b5b81811015612723576127185f826126ed565b600181019050612706565b5050565b601f821115612768576127398161261c565b6127428461262e565b81016020851015612751578190505b61276561275d8561262e565b830182612705565b50505b505050565b5f82821c905092915050565b5f6127885f198460080261276d565b1980831691505092915050565b5f6127a08383612779565b9150826002028217905092915050565b6127b982611dc8565b67ffffffffffffffff8111156127d2576127d16120d1565b5b6127dc825461244c565b6127e7828285612727565b5f60209050601f831160018114612818575f8415612806578287015190505b6128108582612795565b865550612877565b601f1984166128268661261c565b5f5b8281101561284d57848901518255600182019150602085019450602081019050612828565b8683101561286a5784890151612866601f891682612779565b8355505b6001600288020188555050505b505050505050565b5f81905092915050565b5f61289382611dc8565b61289d818561287f565b93506128ad818560208601611de2565b80840191505092915050565b5f6128c48285612889565b91506128d08284612889565b91508190509392505050565b7f4f776e61626c653a206e6577206f776e657220697320746865207a65726f20615f8201527f6464726573730000000000000000000000000000000000000000000000000000602082015250565b5f612936602683611dd2565b9150612941826128dc565b604082019050919050565b5f6020820190508181035f8301526129638161292a565b9050919050565b7f4f776e61626c653a2063616c6c6572206973206e6f7420746865206f776e65725f82015250565b5f61299e602083611dd2565b91506129a98261296a565b602082019050919050565b5f6020820190508181035f8301526129cb81612992565b9050919050565b5f81519050919050565b5f82825260208201905092915050565b5f6129f6826129d2565b612a0081856129dc565b9350612a10818560208601611de2565b612a1981611e0a565b840191505092915050565b5f608082019050612a375f830187611f00565b612a446020830186611f00565b612a516040830185611fe0565b8181036060830152612a6381846129ec565b905095945050505050565b5f81519050612a7c81611d40565b92915050565b5f60208284031215612a9757612a96611d0d565b5b5f612aa484828501612a6e565b91505092915050565b7f4e487b71000000000000000000000000000000000000000000000000000000005f52601260045260245ffd5b5f604082019050612aed5f830185611f00565b612afa6020830184611fe0565b939250505056fea26469706673582212204ad4404d4ebcf34e5a6bd6a5c460000674b3c49a52ea9b38f43bc15a5f189f7464736f6c63430008160033",
					"opcodes": "PUSH1 0x80 PUSH1 0x40 MSTORE CALLVALUE DUP1 ISZERO PUSH3 0x10 JUMPI PUSH0 DUP1 REVERT JUMPDEST POP PUSH1 0x40 MLOAD PUSH3 0x311A CODESIZE SUB DUP1 PUSH3 0x311A DUP4 CODECOPY DUP2 DUP2 ADD PUSH1 0x40 MSTORE DUP2 ADD SWAP1 PUSH3 0x36 SWAP2 SWAP1 PUSH3 0x25D JUMP JUMPDEST PUSH1 0x40 MLOAD DUP1 PUSH1 0x40 ADD PUSH1 0x40 MSTORE DUP1 PUSH1 0xB DUP2 MSTORE PUSH1 0x20 ADD PUSH32 0x50726F6475637442696C6C000000000000000000000000000000000000000000 DUP2 MSTORE POP PUSH1 0x40 MLOAD DUP1 PUSH1 0x40 ADD PUSH1 0x40 MSTORE DUP1 PUSH1 0x3 DUP2 MSTORE PUSH1 0x20 ADD PUSH32 0x50424C0000000000000000000000000000000000000000000000000000000000 DUP2 MSTORE POP DUP2 PUSH0 SWAP1 DUP2 PUSH3 0xB2 SWAP2 SWAP1 PUSH3 0x4F1 JUMP JUMPDEST POP DUP1 PUSH1 0x1 SWAP1 DUP2 PUSH3 0xC4 SWAP2 SWAP1 PUSH3 0x4F1 JUMP JUMPDEST POP POP POP PUSH3 0xE7 PUSH3 0xDB PUSH3 0x12E PUSH1 0x20 SHL PUSH1 0x20 SHR JUMP JUMPDEST PUSH3 0x135 PUSH1 0x20 SHL PUSH1 0x20 SHR JUMP JUMPDEST DUP1 PUSH1 0x8 PUSH0 PUSH2 0x100 EXP DUP2 SLOAD DUP2 PUSH20 0xFFFFFFFFFFFFFFFFFFFFFFFFFFFFFFFFFFFFFFFF MUL NOT AND SWAP1 DUP4 PUSH20 0xFFFFFFFFFFFFFFFFFFFFFFFFFFFFFFFFFFFFFFFF AND MUL OR SWAP1 SSTORE POP POP PUSH3 0x5D5 JUMP JUMPDEST PUSH0 CALLER SWAP1 POP SWAP1 JUMP JUMPDEST PUSH0 PUSH1 0x6 PUSH0 SWAP1 SLOAD SWAP1 PUSH2 0x100 EXP SWAP1 DIV PUSH20 0xFFFFFFFFFFFFFFFFFFFFFFFFFFFFFFFFFFFFFFFF AND SWAP1 POP DUP2 PUSH1 0x6 PUSH0 PUSH2 0x100 EXP DUP2 SLOAD DUP2 PUSH20 0xFFFFFFFFFFFFFFFFFFFFFFFFFFFFFFFFFFFFFFFF MUL NOT AND SWAP1 DUP4 PUSH20 0xFFFFFFFFFFFFFFFFFFFFFFFFFFFFFFFFFFFFFFFF AND MUL OR SWAP1 SSTORE POP DUP2 PUSH20 0xFFFFFFFFFFFFFFFFFFFFFFFFFFFFFFFFFFFFFFFF AND DUP2 PUSH20 0xFFFFFFFFFFFFFFFFFFFFFFFFFFFFFFFFFFFFFFFF AND PUSH32 0x8BE0079C531659141344CD1FD0A4F28419497F9722A3DAAFE3B4186F6B6457E0 PUSH1 0x40 MLOAD PUSH1 0x40 MLOAD DUP1 SWAP2 SUB SWAP1 LOG3 POP POP JUMP JUMPDEST PUSH0 DUP1 REVERT JUMPDEST PUSH0 PUSH20 0xFFFFFFFFFFFFFFFFFFFFFFFFFFFFFFFFFFFFFFFF DUP3 AND SWAP1 POP SWAP2 SWAP1 POP JUMP JUMPDEST PUSH0 PUSH3 0x227 DUP3 PUSH3 0x1FC JUMP JUMPDEST SWAP1 POP SWAP2 SWAP1 POP JUMP JUMPDEST PUSH3 0x239 DUP2 PUSH3 0x21B JUMP JUMPDEST DUP2 EQ PUSH3 0x244 JUMPI PUSH0 DUP1 REVERT JUMPDEST POP JUMP JUMPDEST PUSH0 DUP2 MLOAD SWAP1 POP PUSH3 0x257 DUP2 PUSH3 0x22E JUMP JUMPDEST SWAP3 SWAP2 POP POP JUMP JUMPDEST PUSH0 PUSH1 0x20 DUP3 DUP5 SUB SLT ISZERO PUSH3 0x275 JUMPI PUSH3 0x274 PUSH3 0x1F8 JUMP JUMPDEST JUMPDEST PUSH0 PUSH3 0x284 DUP5 DUP3 DUP6 ADD PUSH3 0x247 JUMP JUMPDEST SWAP2 POP POP SWAP3 SWAP2 POP POP JUMP JUMPDEST PUSH0 DUP2 MLOAD SWAP1 POP SWAP2 SWAP1 POP JUMP JUMPDEST PUSH32 0x4E487B7100000000000000000000000000000000000000000000000000000000 PUSH0 MSTORE PUSH1 0x41 PUSH1 0x4 MSTORE PUSH1 0x24 PUSH0 REVERT JUMPDEST PUSH32 0x4E487B7100000000000000000000000000000000000000000000000000000000 PUSH0 MSTORE PUSH1 0x22 PUSH1 0x4 MSTORE PUSH1 0x24 PUSH0 REVERT JUMPDEST PUSH0 PUSH1 0x2 DUP3 DIV SWAP1 POP PUSH1 0x1 DUP3 AND DUP1 PUSH3 0x309 JUMPI PUSH1 0x7F DUP3 AND SWAP2 POP JUMPDEST PUSH1 0x20 DUP3 LT DUP2 SUB PUSH3 0x31F JUMPI PUSH3 0x31E PUSH3 0x2C4 JUMP JUMPDEST JUMPDEST POP SWAP2 SWAP1 POP JUMP JUMPDEST PUSH0 DUP2 SWAP1 POP DUP2 PUSH0 MSTORE PUSH1 0x20 PUSH0 KECCAK256 SWAP1 POP SWAP2 SWAP1 POP JUMP JUMPDEST PUSH0 PUSH1 0x20 PUSH1 0x1F DUP4 ADD DIV SWAP1 POP SWAP2 SWAP1 POP JUMP JUMPDEST PUSH0 DUP3 DUP3 SHL SWAP1 POP SWAP3 SWAP2 POP POP JUMP JUMPDEST PUSH0 PUSH1 0x8 DUP4 MUL PUSH3 0x383 PUSH32 0xFFFFFFFFFFFFFFFFFFFFFFFFFFFFFFFFFFFFFFFFFFFFFFFFFFFFFFFFFFFFFFFF DUP3 PUSH3 0x346 JUMP JUMPDEST PUSH3 0x38F DUP7 DUP4 PUSH3 0x346 JUMP JUMPDEST SWAP6 POP DUP1 NOT DUP5 AND SWAP4 POP DUP1 DUP7 AND DUP5 OR SWAP3 POP POP POP SWAP4 SWAP3 POP POP POP JUMP JUMPDEST PUSH0 DUP2 SWAP1 POP SWAP2 SWAP1 POP JUMP JUMPDEST PUSH0 DUP2 SWAP1 POP SWAP2 SWAP1 POP JUMP JUMPDEST PUSH0 PUSH3 0x3D9 PUSH3 0x3D3 PUSH3 0x3CD DUP5 PUSH3 0x3A7 JUMP JUMPDEST PUSH3 0x3B0 JUMP JUMPDEST PUSH3 0x3A7 JUMP JUMPDEST SWAP1 POP SWAP2 SWAP1 POP JUMP JUMPDEST PUSH0 DUP2 SWAP1 POP SWAP2 SWAP1 POP JUMP JUMPDEST PUSH3 0x3F4 DUP4 PUSH3 0x3B9 JUMP JUMPDEST PUSH3 0x40C PUSH3 0x403 DUP3 PUSH3 0x3E0 JUMP JUMPDEST DUP5 DUP5 SLOAD PUSH3 0x352 JUMP JUMPDEST DUP3 SSTORE POP POP POP POP JUMP JUMPDEST PUSH0 SWAP1 JUMP JUMPDEST PUSH3 0x422 PUSH3 0x414 JUMP JUMPDEST PUSH3 0x42F DUP2 DUP5 DUP5 PUSH3 0x3E9 JUMP JUMPDEST POP POP POP JUMP JUMPDEST JUMPDEST DUP2 DUP2 LT ISZERO PUSH3 0x456 JUMPI PUSH3 0x44A PUSH0 DUP3 PUSH3 0x418 JUMP JUMPDEST PUSH1 0x1 DUP2 ADD SWAP1 POP PUSH3 0x435 JUMP JUMPDEST POP POP JUMP JUMPDEST PUSH1 0x1F DUP3 GT ISZERO PUSH3 0x4A5 JUMPI PUSH3 0x46F DUP2 PUSH3 0x325 JUMP JUMPDEST PUSH3 0x47A DUP5 PUSH3 0x337 JUMP JUMPDEST DUP2 ADD PUSH1 0x20 DUP6 LT ISZERO PUSH3 0x48A JUMPI DUP2 SWAP1 POP JUMPDEST PUSH3 0x4A2 PUSH3 0x499 DUP6 PUSH3 0x337 JUMP JUMPDEST DUP4 ADD DUP3 PUSH3 0x434 JUMP JUMPDEST POP POP JUMPDEST POP POP POP JUMP JUMPDEST PUSH0 DUP3 DUP3 SHR SWAP1 POP SWAP3 SWAP2 POP POP JUMP JUMPDEST PUSH0 PUSH3 0x4C7 PUSH0 NOT DUP5 PUSH1 0x8 MUL PUSH3 0x4AA JUMP JUMPDEST NOT DUP1 DUP4 AND SWAP2 POP POP SWAP3 SWAP2 POP POP JUMP JUMPDEST PUSH0 PUSH3 0x4E1 DUP4 DUP4 PUSH3 0x4B6 JUMP JUMPDEST SWAP2 POP DUP3 PUSH1 0x2 MUL DUP3 OR SWAP1 POP SWAP3 SWAP2 POP POP JUMP JUMPDEST PUSH3 0x4FC DUP3 PUSH3 0x28D JUMP JUMPDEST PUSH8 0xFFFFFFFFFFFFFFFF DUP2 GT ISZERO PUSH3 0x518 JUMPI PUSH3 0x517 PUSH3 0x297 JUMP JUMPDEST JUMPDEST PUSH3 0x524 DUP3 SLOAD PUSH3 0x2F1 JUMP JUMPDEST PUSH3 0x531 DUP3 DUP3 DUP6 PUSH3 0x45A JUMP JUMPDEST PUSH0 PUSH1 0x20 SWAP1 POP PUSH1 0x1F DUP4 GT PUSH1 0x1 DUP2 EQ PUSH3 0x567 JUMPI PUSH0 DUP5 ISZERO PUSH3 0x552 JUMPI DUP3 DUP8 ADD MLOAD SWAP1 POP JUMPDEST PUSH3 0x55E DUP6 DUP3 PUSH3 0x4D4 JUMP JUMPDEST DUP7 SSTORE POP PUSH3 0x5CD JUMP JUMPDEST PUSH1 0x1F NOT DUP5 AND PUSH3 0x577 DUP7 PUSH3 0x325 JUMP JUMPDEST PUSH0 JUMPDEST DUP3 DUP2 LT ISZERO PUSH3 0x5A0 JUMPI DUP5 DUP10 ADD MLOAD DUP3 SSTORE PUSH1 0x1 DUP3 ADD SWAP2 POP PUSH1 0x20 DUP6 ADD SWAP5 POP PUSH1 0x20 DUP2 ADD SWAP1 POP PUSH3 0x579 JUMP JUMPDEST DUP7 DUP4 LT ISZERO PUSH3 0x5C0 JUMPI DUP5 DUP10 ADD MLOAD PUSH3 0x5BC PUSH1 0x1F DUP10 AND DUP3 PUSH3 0x4B6 JUMP JUMPDEST DUP4 SSTORE POP JUMPDEST PUSH1 0x1 PUSH1 0x2 DUP9 MUL ADD DUP9 SSTORE POP POP POP JUMPDEST POP POP POP POP POP POP JUMP JUMPDEST PUSH2 0x2B37 DUP1 PUSH3 0x5E3 PUSH0 CODECOPY PUSH0 RETURN INVALID PUSH1 0x80 PUSH1 0x40 MSTORE CALLVALUE DUP1 ISZERO PUSH2 0xF JUMPI PUSH0 DUP1 REVERT JUMPDEST POP PUSH1 0x4 CALLDATASIZE LT PUSH2 0x140 JUMPI PUSH0 CALLDATALOAD PUSH1 0xE0 SHR DUP1 PUSH4 0x8642269E GT PUSH2 0xB6 JUMPI DUP1 PUSH4 0xB88D4FDE GT PUSH2 0x7A JUMPI DUP1 PUSH4 0xB88D4FDE EQ PUSH2 0x386 JUMPI DUP1 PUSH4 0xC87B56DD EQ PUSH2 0x3A2 JUMPI DUP1 PUSH4 0xCF2C0334 EQ PUSH2 0x3D2 JUMPI DUP1 PUSH4 0xE985E9C5 EQ PUSH2 0x402 JUMPI DUP1 PUSH4 0xF2FDE38B EQ PUSH2 0x432 JUMPI DUP1 PUSH4 0xFC0C546A EQ PUSH2 0x44E JUMPI PUSH2 0x140 JUMP JUMPDEST DUP1 PUSH4 0x8642269E EQ PUSH2 0x2E2 JUMPI DUP1 PUSH4 0x8DA5CB5B EQ PUSH2 0x312 JUMPI DUP1 PUSH4 0x95D89B41 EQ PUSH2 0x330 JUMPI DUP1 PUSH4 0xA22CB465 EQ PUSH2 0x34E JUMPI DUP1 PUSH4 0xB15247D9 EQ PUSH2 0x36A JUMPI PUSH2 0x140 JUMP JUMPDEST DUP1 PUSH4 0x42842E0E GT PUSH2 0x108 JUMPI DUP1 PUSH4 0x42842E0E EQ PUSH2 0x1FA JUMPI DUP1 PUSH4 0x5BA2530B EQ PUSH2 0x216 JUMPI DUP1 PUSH4 0x6352211E EQ PUSH2 0x247 JUMPI DUP1 PUSH4 0x70A08231 EQ PUSH2 0x277 JUMPI DUP1 PUSH4 0x715018A6 EQ PUSH2 0x2A7 JUMPI DUP1 PUSH4 0x7ACC0B20 EQ PUSH2 0x2B1 JUMPI PUSH2 0x140 JUMP JUMPDEST DUP1 PUSH4 0x1FFC9A7 EQ PUSH2 0x144 JUMPI DUP1 PUSH4 0x6FDDE03 EQ PUSH2 0x174 JUMPI DUP1 PUSH4 0x81812FC EQ PUSH2 0x192 JUMPI DUP1 PUSH4 0x95EA7B3 EQ PUSH2 0x1C2 JUMPI DUP1 PUSH4 0x23B872DD EQ PUSH2 0x1DE JUMPI JUMPDEST PUSH0 DUP1 REVERT JUMPDEST PUSH2 0x15E PUSH1 0x4 DUP1 CALLDATASIZE SUB DUP2 ADD SWAP1 PUSH2 0x159 SWAP2 SWAP1 PUSH2 0x1D6A JUMP JUMPDEST PUSH2 0x46C JUMP JUMPDEST PUSH1 0x40 MLOAD PUSH2 0x16B SWAP2 SWAP1 PUSH2 0x1DAF JUMP JUMPDEST PUSH1 0x40 MLOAD DUP1 SWAP2 SUB SWAP1 RETURN JUMPDEST PUSH2 0x17C PUSH2 0x54D JUMP JUMPDEST PUSH1 0x40 MLOAD PUSH2 0x189 SWAP2 SWAP1 PUSH2 0x1E52 JUMP JUMPDEST PUSH1 0x40 MLOAD DUP1 SWAP2 SUB SWAP1 RETURN JUMPDEST PUSH2 0x1AC PUSH1 0x4 DUP1 CALLDATASIZE SUB DUP2 ADD SWAP1 PUSH2 0x1A7 SWAP2 SWAP1 PUSH2 0x1EA5 JUMP JUMPDEST PUSH2 0x5DC JUMP JUMPDEST PUSH1 0x40 MLOAD PUSH2 0x1B9 SWAP2 SWAP1 PUSH2 0x1F0F JUMP JUMPDEST PUSH1 0x40 MLOAD DUP1 SWAP2 SUB SWAP1 RETURN JUMPDEST PUSH2 0x1DC PUSH1 0x4 DUP1 CALLDATASIZE SUB DUP2 ADD SWAP1 PUSH2 0x1D7 SWAP2 SWAP1 PUSH2 0x1F52 JUMP JUMPDEST PUSH2 0x5F7 JUMP JUMPDEST STOP JUMPDEST PUSH2 0x1F8 PUSH1 0x4 DUP1 CALLDATASIZE SUB DUP2 ADD SWAP1 PUSH2 0x1F3 SWAP2 SWAP1 PUSH2 0x1F90 JUMP JUMPDEST PUSH2 0x60D JUMP JUMPDEST STOP JUMPDEST PUSH2 0x214 PUSH1 0x4 DUP1 CALLDATASIZE SUB DUP2 ADD SWAP1 PUSH2 0x20F SWAP2 SWAP1 PUSH2 0x1F90 JUMP JUMPDEST PUSH2 0x70C JUMP JUMPDEST STOP JUMPDEST PUSH2 0x230 PUSH1 0x4 DUP1 CALLDATASIZE SUB DUP2 ADD SWAP1 PUSH2 0x22B SWAP2 SWAP1 PUSH2 0x1EA5 JUMP JUMPDEST PUSH2 0x72B JUMP JUMPDEST PUSH1 0x40 MLOAD PUSH2 0x23E SWAP3 SWAP2 SWAP1 PUSH2 0x1FEF JUMP JUMPDEST PUSH1 0x40 MLOAD DUP1 SWAP2 SUB SWAP1 RETURN JUMPDEST PUSH2 0x261 PUSH1 0x4 DUP1 CALLDATASIZE SUB DUP2 ADD SWAP1 PUSH2 0x25C SWAP2 SWAP1 PUSH2 0x1EA5 JUMP JUMPDEST PUSH2 0x829 JUMP JUMPDEST PUSH1 0x40 MLOAD PUSH2 0x26E SWAP2 SWAP1 PUSH2 0x1F0F JUMP JUMPDEST PUSH1 0x40 MLOAD DUP1 SWAP2 SUB SWAP1 RETURN JUMPDEST PUSH2 0x291 PUSH1 0x4 DUP1 CALLDATASIZE SUB DUP2 ADD SWAP1 PUSH2 0x28C SWAP2 SWAP1 PUSH2 0x201D JUMP JUMPDEST PUSH2 0x83A JUMP JUMPDEST PUSH1 0x40 MLOAD PUSH2 0x29E SWAP2 SWAP1 PUSH2 0x2048 JUMP JUMPDEST PUSH1 0x40 MLOAD DUP1 SWAP2 SUB SWAP1 RETURN JUMPDEST PUSH2 0x2AF PUSH2 0x8F0 JUMP JUMPDEST STOP JUMPDEST PUSH2 0x2CB PUSH1 0x4 DUP1 CALLDATASIZE SUB DUP2 ADD SWAP1 PUSH2 0x2C6 SWAP2 SWAP1 PUSH2 0x1EA5 JUMP JUMPDEST PUSH2 0x903 JUMP JUMPDEST PUSH1 0x40 MLOAD PUSH2 0x2D9 SWAP3 SWAP2 SWAP1 PUSH2 0x1FEF JUMP JUMPDEST PUSH1 0x40 MLOAD DUP1 SWAP2 SUB SWAP1 RETURN JUMPDEST PUSH2 0x2FC PUSH1 0x4 DUP1 CALLDATASIZE SUB DUP2 ADD SWAP1 PUSH2 0x2F7 SWAP2 SWAP1 PUSH2 0x1EA5 JUMP JUMPDEST PUSH2 0x9A9 JUMP JUMPDEST PUSH1 0x40 MLOAD PUSH2 0x309 SWAP2 SWAP1 PUSH2 0x2048 JUMP JUMPDEST PUSH1 0x40 MLOAD DUP1 SWAP2 SUB SWAP1 RETURN JUMPDEST PUSH2 0x31A PUSH2 0xB81 JUMP JUMPDEST PUSH1 0x40 MLOAD PUSH2 0x327 SWAP2 SWAP1 PUSH2 0x1F0F JUMP JUMPDEST PUSH1 0x40 MLOAD DUP1 SWAP2 SUB SWAP1 RETURN JUMPDEST PUSH2 0x338 PUSH2 0xBA9 JUMP JUMPDEST PUSH1 0x40 MLOAD PUSH2 0x345 SWAP2 SWAP1 PUSH2 0x1E52 JUMP JUMPDEST PUSH1 0x40 MLOAD DUP1 SWAP2 SUB SWAP1 RETURN JUMPDEST PUSH2 0x368 PUSH1 0x4 DUP1 CALLDATASIZE SUB DUP2 ADD SWAP1 PUSH2 0x363 SWAP2 SWAP1 PUSH2 0x208B JUMP JUMPDEST PUSH2 0xC39 JUMP JUMPDEST STOP JUMPDEST PUSH2 0x384 PUSH1 0x4 DUP1 CALLDATASIZE SUB DUP2 ADD SWAP1 PUSH2 0x37F SWAP2 SWAP1 PUSH2 0x21F5 JUMP JUMPDEST PUSH2 0xC4F JUMP JUMPDEST STOP JUMPDEST PUSH2 0x3A0 PUSH1 0x4 DUP1 CALLDATASIZE SUB DUP2 ADD SWAP1 PUSH2 0x39B SWAP2 SWAP1 PUSH2 0x22ED JUMP JUMPDEST PUSH2 0xCBA JUMP JUMPDEST STOP JUMPDEST PUSH2 0x3BC PUSH1 0x4 DUP1 CALLDATASIZE SUB DUP2 ADD SWAP1 PUSH2 0x3B7 SWAP2 SWAP1 PUSH2 0x1EA5 JUMP JUMPDEST PUSH2 0xCD7 JUMP JUMPDEST PUSH1 0x40 MLOAD PUSH2 0x3C9 SWAP2 SWAP1 PUSH2 0x1E52 JUMP JUMPDEST PUSH1 0x40 MLOAD DUP1 SWAP2 SUB SWAP1 RETURN JUMPDEST PUSH2 0x3EC PUSH1 0x4 DUP1 CALLDATASIZE SUB DUP2 ADD SWAP1 PUSH2 0x3E7 SWAP2 SWAP1 PUSH2 0x1F52 JUMP JUMPDEST PUSH2 0xD3D JUMP JUMPDEST PUSH1 0x40 MLOAD PUSH2 0x3F9 SWAP2 SWAP1 PUSH2 0x2048 JUMP JUMPDEST PUSH1 0x40 MLOAD DUP1 SWAP2 SUB SWAP1 RETURN JUMPDEST PUSH2 0x41C PUSH1 0x4 DUP1 CALLDATASIZE SUB DUP2 ADD SWAP1 PUSH2 0x417 SWAP2 SWAP1 PUSH2 0x236D JUMP JUMPDEST PUSH2 0xD68 JUMP JUMPDEST PUSH1 0x40 MLOAD PUSH2 0x429 SWAP2 SWAP1 PUSH2 0x1DAF JUMP JUMPDEST PUSH1 0x40 MLOAD DUP1 SWAP2 SUB SWAP1 RETURN JUMPDEST PUSH2 0x44C PUSH1 0x4 DUP1 CALLDATASIZE SUB DUP2 ADD SWAP1 PUSH2 0x447 SWAP2 SWAP1 PUSH2 0x201D JUMP JUMPDEST PUSH2 0xDF6 JUMP JUMPDEST STOP JUMPDEST PUSH2 0x456 PUSH2 0xE78 JUMP JUMPDEST PUSH1 0x40 MLOAD PUSH2 0x463 SWAP2 SWAP1 PUSH2 0x2406 JUMP JUMPDEST PUSH1 0x40 MLOAD DUP1 SWAP2 SUB SWAP1 RETURN JUMPDEST PUSH0 PUSH32 0x80AC58CD00000000000000000000000000000000000000000000000000000000 PUSH28 0xFFFFFFFFFFFFFFFFFFFFFFFFFFFFFFFFFFFFFFFFFFFFFFFFFFFFFFFF NOT AND DUP3 PUSH28 0xFFFFFFFFFFFFFFFFFFFFFFFFFFFFFFFFFFFFFFFFFFFFFFFFFFFFFFFF NOT AND EQ DUP1 PUSH2 0x536 JUMPI POP PUSH32 0x5B5E139F00000000000000000000000000000000000000000000000000000000 PUSH28 0xFFFFFFFFFFFFFFFFFFFFFFFFFFFFFFFFFFFFFFFFFFFFFFFFFFFFFFFF NOT AND DUP3 PUSH28 0xFFFFFFFFFFFFFFFFFFFFFFFFFFFFFFFFFFFFFFFFFFFFFFFFFFFFFFFF NOT AND EQ JUMPDEST DUP1 PUSH2 0x546 JUMPI POP PUSH2 0x545 DUP3 PUSH2 0xE9D JUMP JUMPDEST JUMPDEST SWAP1 POP SWAP2 SWAP1 POP JUMP JUMPDEST PUSH1 0x60 PUSH0 DUP1 SLOAD PUSH2 0x55B SWAP1 PUSH2 0x244C JUMP JUMPDEST DUP1 PUSH1 0x1F ADD PUSH1 0x20 DUP1 SWAP2 DIV MUL PUSH1 0x20 ADD PUSH1 0x40 MLOAD SWAP1 DUP2 ADD PUSH1 0x40 MSTORE DUP1 SWAP3 SWAP2 SWAP1 DUP2 DUP2 MSTORE PUSH1 0x20 ADD DUP3 DUP1 SLOAD PUSH2 0x587 SWAP1 PUSH2 0x244C JUMP JUMPDEST DUP1 ISZERO PUSH2 0x5D2 JUMPI DUP1 PUSH1 0x1F LT PUSH2 0x5A9 JUMPI PUSH2 0x100 DUP1 DUP4 SLOAD DIV MUL DUP4 MSTORE SWAP2 PUSH1 0x20 ADD SWAP2 PUSH2 0x5D2 JUMP JUMPDEST DUP3 ADD SWAP2 SWAP1 PUSH0 MSTORE PUSH1 0x20 PUSH0 KECCAK256 SWAP1 JUMPDEST DUP2 SLOAD DUP2 MSTORE SWAP1 PUSH1 0x1 ADD SWAP1 PUSH1 0x20 ADD DUP1 DUP4 GT PUSH2 0x5B5 JUMPI DUP3 SWAP1 SUB PUSH1 0x1F AND DUP3 ADD SWAP2 JUMPDEST POP POP POP POP POP SWAP1 POP SWAP1 JUMP JUMPDEST PUSH0 PUSH2 0x5E6 DUP3 PUSH2 0xF06 JUMP JUMPDEST POP PUSH2 0x5F0 DUP3 PUSH2 0xF8C JUMP JUMPDEST SWAP1 POP SWAP2 SWAP1 POP JUMP JUMPDEST PUSH2 0x609 DUP3 DUP3 PUSH2 0x604 PUSH2 0xFC5 JUMP JUMPDEST PUSH2 0xFCC JUMP JUMPDEST POP POP JUMP JUMPDEST PUSH0 PUSH20 0xFFFFFFFFFFFFFFFFFFFFFFFFFFFFFFFFFFFFFFFF AND DUP3 PUSH20 0xFFFFFFFFFFFFFFFFFFFFFFFFFFFFFFFFFFFFFFFF AND SUB PUSH2 0x67D JUMPI PUSH0 PUSH1 0x40 MLOAD PUSH32 0x64A0AE9200000000000000000000000000000000000000000000000000000000 DUP2 MSTORE PUSH1 0x4 ADD PUSH2 0x674 SWAP2 SWAP1 PUSH2 0x1F0F JUMP JUMPDEST PUSH1 0x40 MLOAD DUP1 SWAP2 SUB SWAP1 REVERT JUMPDEST PUSH0 PUSH2 0x690 DUP4 DUP4 PUSH2 0x68B PUSH2 0xFC5 JUMP JUMPDEST PUSH2 0xFDE JUMP JUMPDEST SWAP1 POP DUP4 PUSH20 0xFFFFFFFFFFFFFFFFFFFFFFFFFFFFFFFFFFFFFFFF AND DUP2 PUSH20 0xFFFFFFFFFFFFFFFFFFFFFFFFFFFFFFFFFFFFFFFF AND EQ PUSH2 0x706 JUMPI DUP4 DUP3 DUP3 PUSH1 0x40 MLOAD PUSH32 0x64283D7B00000000000000000000000000000000000000000000000000000000 DUP2 MSTORE PUSH1 0x4 ADD PUSH2 0x6FD SWAP4 SWAP3 SWAP2 SWAP1 PUSH2 0x247C JUMP JUMPDEST PUSH1 0x40 MLOAD DUP1 SWAP2 SUB SWAP1 REVERT JUMPDEST POP POP POP POP JUMP JUMPDEST PUSH2 0x726 DUP4 DUP4 DUP4 PUSH1 0x40 MLOAD DUP1 PUSH1 0x20 ADD PUSH1 0x40 MSTORE DUP1 PUSH0 DUP2 MSTORE POP PUSH2 0xCBA JUMP JUMPDEST POP POP POP JUMP JUMPDEST PUSH1 0x60 PUSH0 PUSH2 0x738 PUSH1 0x7 PUSH2 0x11E9 JUMP JUMPDEST DUP4 LT PUSH2 0x779 JUMPI PUSH1 0x40 MLOAD PUSH32 0x8C379A000000000000000000000000000000000000000000000000000000000 DUP2 MSTORE PUSH1 0x4 ADD PUSH2 0x770 SWAP1 PUSH2 0x24FB JUMP JUMPDEST PUSH1 0x40 MLOAD DUP1 SWAP2 SUB SWAP1 REVERT JUMPDEST PUSH0 PUSH1 0x9 PUSH0 DUP6 DUP2 MSTORE PUSH1 0x20 ADD SWAP1 DUP2 MSTORE PUSH1 0x20 ADD PUSH0 KECCAK256 SWAP1 POP DUP1 PUSH0 ADD DUP2 PUSH1 0x1 ADD SLOAD DUP2 DUP1 SLOAD PUSH2 0x7A1 SWAP1 PUSH2 0x244C JUMP JUMPDEST DUP1 PUSH1 0x1F ADD PUSH1 0x20 DUP1 SWAP2 DIV MUL PUSH1 0x20 ADD PUSH1 0x40 MLOAD SWAP1 DUP2 ADD PUSH1 0x40 MSTORE DUP1 SWAP3 SWAP2 SWAP1 DUP2 DUP2 MSTORE PUSH1 0x20 ADD DUP3 DUP1 SLOAD PUSH2 0x7CD SWAP1 PUSH2 0x244C JUMP JUMPDEST DUP1 ISZERO PUSH2 0x818 JUMPI DUP1 PUSH1 0x1F LT PUSH2 0x7EF JUMPI PUSH2 0x100 DUP1 DUP4 SLOAD DIV MUL DUP4 MSTORE SWAP2 PUSH1 0x20 ADD SWAP2 PUSH2 0x818 JUMP JUMPDEST DUP3 ADD SWAP2 SWAP1 PUSH0 MSTORE PUSH1 0x20 PUSH0 KECCAK256 SWAP1 JUMPDEST DUP2 SLOAD DUP2 MSTORE SWAP1 PUSH1 0x1 ADD SWAP1 PUSH1 0x20 ADD DUP1 DUP4 GT PUSH2 0x7FB JUMPI DUP3 SWAP1 SUB PUSH1 0x1F AND DUP3 ADD SWAP2 JUMPDEST POP POP POP POP POP SWAP2 POP SWAP3 POP SWAP3 POP POP SWAP2 POP SWAP2 JUMP JUMPDEST PUSH0 PUSH2 0x833 DUP3 PUSH2 0xF06 JUMP JUMPDEST SWAP1 POP SWAP2 SWAP1 POP JUMP JUMPDEST PUSH0 DUP1 PUSH20 0xFFFFFFFFFFFFFFFFFFFFFFFFFFFFFFFFFFFFFFFF AND DUP3 PUSH20 0xFFFFFFFFFFFFFFFFFFFFFFFFFFFFFFFFFFFFFFFF AND SUB PUSH2 0x8AB JUMPI PUSH0 PUSH1 0x40 MLOAD PUSH32 0x89C62B6400000000000000000000000000000000000000000000000000000000 DUP2 MSTORE PUSH1 0x4 ADD PUSH2 0x8A2 SWAP2 SWAP1 PUSH2 0x1F0F JUMP JUMPDEST PUSH1 0x40 MLOAD DUP1 SWAP2 SUB SWAP1 REVERT JUMPDEST PUSH1 0x3 PUSH0 DUP4 PUSH20 0xFFFFFFFFFFFFFFFFFFFFFFFFFFFFFFFFFFFFFFFF AND PUSH20 0xFFFFFFFFFFFFFFFFFFFFFFFFFFFFFFFFFFFFFFFF AND DUP2 MSTORE PUSH1 0x20 ADD SWAP1 DUP2 MSTORE PUSH1 0x20 ADD PUSH0 KECCAK256 SLOAD SWAP1 POP SWAP2 SWAP1 POP JUMP JUMPDEST PUSH2 0x8F8 PUSH2 0x11F5 JUMP JUMPDEST PUSH2 0x901 PUSH0 PUSH2 0x1273 JUMP JUMPDEST JUMP JUMPDEST PUSH1 0x9 PUSH1 0x20 MSTORE DUP1 PUSH0 MSTORE PUSH1 0x40 PUSH0 KECCAK256 PUSH0 SWAP2 POP SWAP1 POP DUP1 PUSH0 ADD DUP1 SLOAD PUSH2 0x922 SWAP1 PUSH2 0x244C JUMP JUMPDEST DUP1 PUSH1 0x1F ADD PUSH1 0x20 DUP1 SWAP2 DIV MUL PUSH1 0x20 ADD PUSH1 0x40 MLOAD SWAP1 DUP2 ADD PUSH1 0x40 MSTORE DUP1 SWAP3 SWAP2 SWAP1 DUP2 DUP2 MSTORE PUSH1 0x20 ADD DUP3 DUP1 SLOAD PUSH2 0x94E SWAP1 PUSH2 0x244C JUMP JUMPDEST DUP1 ISZERO PUSH2 0x999 JUMPI DUP1 PUSH1 0x1F LT PUSH2 0x970 JUMPI PUSH2 0x100 DUP1 DUP4 SLOAD DIV MUL DUP4 MSTORE SWAP2 PUSH1 0x20 ADD SWAP2 PUSH2 0x999 JUMP JUMPDEST DUP3 ADD SWAP2 SWAP1 PUSH0 MSTORE PUSH1 0x20 PUSH0 KECCAK256 SWAP1 JUMPDEST DUP2 SLOAD DUP2 MSTORE SWAP1 PUSH1 0x1 ADD SWAP1 PUSH1 0x20 ADD DUP1 DUP4 GT PUSH2 0x97C JUMPI DUP3 SWAP1 SUB PUSH1 0x1F AND DUP3 ADD SWAP2 JUMPDEST POP POP POP POP POP SWAP1 DUP1 PUSH1 0x1 ADD SLOAD SWAP1 POP DUP3 JUMP JUMPDEST PUSH0 DUP1 PUSH1 0x9 PUSH0 DUP5 DUP2 MSTORE PUSH1 0x20 ADD SWAP1 DUP2 MSTORE PUSH1 0x20 ADD PUSH0 KECCAK256 SWAP1 POP PUSH0 DUP2 PUSH0 ADD DUP1 SLOAD PUSH2 0x9CD SWAP1 PUSH2 0x244C JUMP JUMPDEST SWAP1 POP GT PUSH2 0xA0F JUMPI PUSH1 0x40 MLOAD PUSH32 0x8C379A000000000000000000000000000000000000000000000000000000000 DUP2 MSTORE PUSH1 0x4 ADD PUSH2 0xA06 SWAP1 PUSH2 0x2563 JUMP JUMPDEST PUSH1 0x40 MLOAD DUP1 SWAP2 SUB SWAP1 REVERT JUMPDEST PUSH1 0x8 PUSH0 SWAP1 SLOAD SWAP1 PUSH2 0x100 EXP SWAP1 DIV PUSH20 0xFFFFFFFFFFFFFFFFFFFFFFFFFFFFFFFFFFFFFFFF AND PUSH20 0xFFFFFFFFFFFFFFFFFFFFFFFFFFFFFFFFFFFFFFFF AND PUSH4 0x23B872DD CALLER PUSH2 0xA55 PUSH2 0xB81 JUMP JUMPDEST DUP5 PUSH1 0x1 ADD SLOAD PUSH1 0x40 MLOAD DUP5 PUSH4 0xFFFFFFFF AND PUSH1 0xE0 SHL DUP2 MSTORE PUSH1 0x4 ADD PUSH2 0xA78 SWAP4 SWAP3 SWAP2 SWAP1 PUSH2 0x2581 JUMP JUMPDEST PUSH1 0x20 PUSH1 0x40 MLOAD DUP1 DUP4 SUB DUP2 PUSH0 DUP8 GAS CALL ISZERO DUP1 ISZERO PUSH2 0xA94 JUMPI RETURNDATASIZE PUSH0 DUP1 RETURNDATACOPY RETURNDATASIZE PUSH0 REVERT JUMPDEST POP POP POP POP PUSH1 0x40 MLOAD RETURNDATASIZE PUSH1 0x1F NOT PUSH1 0x1F DUP3 ADD AND DUP3 ADD DUP1 PUSH1 0x40 MSTORE POP DUP2 ADD SWAP1 PUSH2 0xAB8 SWAP2 SWAP1 PUSH2 0x25CA JUMP JUMPDEST POP PUSH2 0xAC3 CALLER DUP5 PUSH2 0x1336 JUMP JUMPDEST PUSH1 0xA PUSH0 CALLER PUSH20 0xFFFFFFFFFFFFFFFFFFFFFFFFFFFFFFFFFFFFFFFF AND PUSH20 0xFFFFFFFFFFFFFFFFFFFFFFFFFFFFFFFFFFFFFFFF AND DUP2 MSTORE PUSH1 0x20 ADD SWAP1 DUP2 MSTORE PUSH1 0x20 ADD PUSH0 KECCAK256 DUP4 SWAP1 DUP1 PUSH1 0x1 DUP2 SLOAD ADD DUP1 DUP3 SSTORE DUP1 SWAP2 POP POP PUSH1 0x1 SWAP1 SUB SWAP1 PUSH0 MSTORE PUSH1 0x20 PUSH0 KECCAK256 ADD PUSH0 SWAP1 SWAP2 SWAP1 SWAP2 SWAP1 SWAP2 POP SSTORE CALLER PUSH20 0xFFFFFFFFFFFFFFFFFFFFFFFFFFFFFFFFFFFFFFFF AND PUSH32 0x228A5D93A19503D5154326B1B21603E2CDD97BDA22FC58196235B4490659FC01 DUP5 DUP4 PUSH1 0x1 ADD SLOAD PUSH1 0x40 MLOAD PUSH2 0xB70 SWAP3 SWAP2 SWAP1 PUSH2 0x25F5 JUMP JUMPDEST PUSH1 0x40 MLOAD DUP1 SWAP2 SUB SWAP1 LOG2 DUP3 SWAP2 POP POP SWAP2 SWAP1 POP JUMP JUMPDEST PUSH0 PUSH1 0x6 PUSH0 SWAP1 SLOAD SWAP1 PUSH2 0x100 EXP SWAP1 DIV PUSH20 0xFFFFFFFFFFFFFFFFFFFFFFFFFFFFFFFFFFFFFFFF AND SWAP1 POP SWAP1 JUMP JUMPDEST PUSH1 0x60 PUSH1 0x1 DUP1 SLOAD PUSH2 0xBB8 SWAP1 PUSH2 0x244C JUMP JUMPDEST DUP1 PUSH1 0x1F ADD PUSH1 0x20 DUP1 SWAP2 DIV MUL PUSH1 0x20 ADD PUSH1 0x40 MLOAD SWAP1 DUP2 ADD PUSH1 0x40 MSTORE DUP1 SWAP3 SWAP2 SWAP1 DUP2 DUP2 MSTORE PUSH1 0x20 ADD DUP3 DUP1 SLOAD PUSH2 0xBE4 SWAP1 PUSH2 0x244C JUMP JUMPDEST DUP1 ISZERO PUSH2 0xC2F JUMPI DUP1 PUSH1 0x1F LT PUSH2 0xC06 JUMPI PUSH2 0x100 DUP1 DUP4 SLOAD DIV MUL DUP4 MSTORE SWAP2 PUSH1 0x20 ADD SWAP2 PUSH2 0xC2F JUMP JUMPDEST DUP3 ADD SWAP2 SWAP1 PUSH0 MSTORE PUSH1 0x20 PUSH0 KECCAK256 SWAP1 JUMPDEST DUP2 SLOAD DUP2 MSTORE SWAP1 PUSH1 0x1 ADD SWAP1 PUSH1 0x20 ADD DUP1 DUP4 GT PUSH2 0xC12 JUMPI DUP3 SWAP1 SUB PUSH1 0x1F AND DUP3 ADD SWAP2 JUMPDEST POP POP POP POP POP SWAP1 POP SWAP1 JUMP JUMPDEST PUSH2 0xC4B PUSH2 0xC44 PUSH2 0xFC5 JUMP JUMPDEST DUP4 DUP4 PUSH2 0x1429 JUMP JUMPDEST POP POP JUMP JUMPDEST PUSH2 0xC57 PUSH2 0x11F5 JUMP JUMPDEST PUSH0 PUSH2 0xC62 PUSH1 0x7 PUSH2 0x11E9 JUMP JUMPDEST SWAP1 POP PUSH1 0x40 MLOAD DUP1 PUSH1 0x40 ADD PUSH1 0x40 MSTORE DUP1 DUP5 DUP2 MSTORE PUSH1 0x20 ADD DUP4 DUP2 MSTORE POP PUSH1 0x9 PUSH0 DUP4 DUP2 MSTORE PUSH1 0x20 ADD SWAP1 DUP2 MSTORE PUSH1 0x20 ADD PUSH0 KECCAK256 PUSH0 DUP3 ADD MLOAD DUP2 PUSH0 ADD SWAP1 DUP2 PUSH2 0xC9D SWAP2 SWAP1 PUSH2 0x27B0 JUMP JUMPDEST POP PUSH1 0x20 DUP3 ADD MLOAD DUP2 PUSH1 0x1 ADD SSTORE SWAP1 POP POP PUSH2 0xCB5 PUSH1 0x7 PUSH2 0x1592 JUMP JUMPDEST POP POP POP JUMP JUMPDEST PUSH2 0xCC5 DUP5 DUP5 DUP5 PUSH2 0x60D JUMP JUMPDEST PUSH2 0xCD1 DUP5 DUP5 DUP5 DUP5 PUSH2 0x15A6 JUMP JUMPDEST POP POP POP POP JUMP JUMPDEST PUSH1 0x60 PUSH2 0xCE2 DUP3 PUSH2 0xF06 JUMP JUMPDEST POP PUSH0 PUSH2 0xCEC PUSH2 0x1758 JUMP JUMPDEST SWAP1 POP PUSH0 DUP2 MLOAD GT PUSH2 0xD0A JUMPI PUSH1 0x40 MLOAD DUP1 PUSH1 0x20 ADD PUSH1 0x40 MSTORE DUP1 PUSH0 DUP2 MSTORE POP PUSH2 0xD35 JUMP JUMPDEST DUP1 PUSH2 0xD14 DUP5 PUSH2 0x176E JUMP JUMPDEST PUSH1 0x40 MLOAD PUSH1 0x20 ADD PUSH2 0xD25 SWAP3 SWAP2 SWAP1 PUSH2 0x28B9 JUMP JUMPDEST PUSH1 0x40 MLOAD PUSH1 0x20 DUP2 DUP4 SUB SUB DUP2 MSTORE SWAP1 PUSH1 0x40 MSTORE JUMPDEST SWAP2 POP POP SWAP2 SWAP1 POP JUMP JUMPDEST PUSH1 0xA PUSH1 0x20 MSTORE DUP2 PUSH0 MSTORE PUSH1 0x40 PUSH0 KECCAK256 DUP2 DUP2 SLOAD DUP2 LT PUSH2 0xD56 JUMPI PUSH0 DUP1 REVERT JUMPDEST SWAP1 PUSH0 MSTORE PUSH1 0x20 PUSH0 KECCAK256 ADD PUSH0 SWAP2 POP SWAP2 POP POP SLOAD DUP2 JUMP JUMPDEST PUSH0 PUSH1 0x5 PUSH0 DUP5 PUSH20 0xFFFFFFFFFFFFFFFFFFFFFFFFFFFFFFFFFFFFFFFF AND PUSH20 0xFFFFFFFFFFFFFFFFFFFFFFFFFFFFFFFFFFFFFFFF AND DUP2 MSTORE PUSH1 0x20 ADD SWAP1 DUP2 MSTORE PUSH1 0x20 ADD PUSH0 KECCAK256 PUSH0 DUP4 PUSH20 0xFFFFFFFFFFFFFFFFFFFFFFFFFFFFFFFFFFFFFFFF AND PUSH20 0xFFFFFFFFFFFFFFFFFFFFFFFFFFFFFFFFFFFFFFFF AND DUP2 MSTORE PUSH1 0x20 ADD SWAP1 DUP2 MSTORE PUSH1 0x20 ADD PUSH0 KECCAK256 PUSH0 SWAP1 SLOAD SWAP1 PUSH2 0x100 EXP SWAP1 DIV PUSH1 0xFF AND SWAP1 POP SWAP3 SWAP2 POP POP JUMP JUMPDEST PUSH2 0xDFE PUSH2 0x11F5 JUMP JUMPDEST PUSH0 PUSH20 0xFFFFFFFFFFFFFFFFFFFFFFFFFFFFFFFFFFFFFFFF AND DUP2 PUSH20 0xFFFFFFFFFFFFFFFFFFFFFFFFFFFFFFFFFFFFFFFF AND SUB PUSH2 0xE6C JUMPI PUSH1 0x40 MLOAD PUSH32 0x8C379A000000000000000000000000000000000000000000000000000000000 DUP2 MSTORE PUSH1 0x4 ADD PUSH2 0xE63 SWAP1 PUSH2 0x294C JUMP JUMPDEST PUSH1 0x40 MLOAD DUP1 SWAP2 SUB SWAP1 REVERT JUMPDEST PUSH2 0xE75 DUP2 PUSH2 0x1273 JUMP JUMPDEST POP JUMP JUMPDEST PUSH1 0x8 PUSH0 SWAP1 SLOAD SWAP1 PUSH2 0x100 EXP SWAP1 DIV PUSH20 0xFFFFFFFFFFFFFFFFFFFFFFFFFFFFFFFFFFFFFFFF AND DUP2 JUMP JUMPDEST PUSH0 PUSH32 0x1FFC9A700000000000000000000000000000000000000000000000000000000 PUSH28 0xFFFFFFFFFFFFFFFFFFFFFFFFFFFFFFFFFFFFFFFFFFFFFFFFFFFFFFFF NOT AND DUP3 PUSH28 0xFFFFFFFFFFFFFFFFFFFFFFFFFFFFFFFFFFFFFFFFFFFFFFFFFFFFFFFF NOT AND EQ SWAP1 POP SWAP2 SWAP1 POP JUMP JUMPDEST PUSH0 DUP1 PUSH2 0xF11 DUP4 PUSH2 0x1838 JUMP JUMPDEST SWAP1 POP PUSH0 PUSH20 0xFFFFFFFFFFFFFFFFFFFFFFFFFFFFFFFFFFFFFFFF AND DUP2 PUSH20 0xFFFFFFFFFFFFFFFFFFFFFFFFFFFFFFFFFFFFFFFF AND SUB PUSH2 0xF83 JUMPI DUP3 PUSH1 0x40 MLOAD PUSH32 0x7E27328900000000000000000000000000000000000000000000000000000000 DUP2 MSTORE PUSH1 0x4 ADD PUSH2 0xF7A SWAP2 SWAP1 PUSH2 0x2048 JUMP JUMPDEST PUSH1 0x40 MLOAD DUP1 SWAP2 SUB SWAP1 REVERT JUMPDEST DUP1 SWAP2 POP POP SWAP2 SWAP1 POP JUMP JUMPDEST PUSH0 PUSH1 0x4 PUSH0 DUP4 DUP2 MSTORE PUSH1 0x20 ADD SWAP1 DUP2 MSTORE PUSH1 0x20 ADD PUSH0 KECCAK256 PUSH0 SWAP1 SLOAD SWAP1 PUSH2 0x100 EXP SWAP1 DIV PUSH20 0xFFFFFFFFFFFFFFFFFFFFFFFFFFFFFFFFFFFFFFFF AND SWAP1 POP SWAP2 SWAP1 POP JUMP JUMPDEST PUSH0 CALLER SWAP1 POP SWAP1 JUMP JUMPDEST PUSH2 0xFD9 DUP4 DUP4 DUP4 PUSH1 0x1 PUSH2 0x1871 JUMP JUMPDEST POP POP POP JUMP JUMPDEST PUSH0 DUP1 PUSH2 0xFE9 DUP5 PUSH2 0x1838 JUMP JUMPDEST SWAP1 POP PUSH0 PUSH20 0xFFFFFFFFFFFFFFFFFFFFFFFFFFFFFFFFFFFFFFFF AND DUP4 PUSH20 0xFFFFFFFFFFFFFFFFFFFFFFFFFFFFFFFFFFFFFFFF AND EQ PUSH2 0x102A JUMPI PUSH2 0x1029 DUP2 DUP5 DUP7 PUSH2 0x1A30 JUMP JUMPDEST JUMPDEST PUSH0 PUSH20 0xFFFFFFFFFFFFFFFFFFFFFFFFFFFFFFFFFFFFFFFF AND DUP2 PUSH20 0xFFFFFFFFFFFFFFFFFFFFFFFFFFFFFFFFFFFFFFFF AND EQ PUSH2 0x10B5 JUMPI PUSH2 0x1069 PUSH0 DUP6 PUSH0 DUP1 PUSH2 0x1871 JUMP JUMPDEST PUSH1 0x1 PUSH1 0x3 PUSH0 DUP4 PUSH20 0xFFFFFFFFFFFFFFFFFFFFFFFFFFFFFFFFFFFFFFFF AND PUSH20 0xFFFFFFFFFFFFFFFFFFFFFFFFFFFFFFFFFFFFFFFF AND DUP2 MSTORE PUSH1 0x20 ADD SWAP1 DUP2 MSTORE PUSH1 0x20 ADD PUSH0 KECCAK256 PUSH0 DUP3 DUP3 SLOAD SUB SWAP3 POP POP DUP2 SWAP1 SSTORE POP JUMPDEST PUSH0 PUSH20 0xFFFFFFFFFFFFFFFFFFFFFFFFFFFFFFFFFFFFFFFF AND DUP6 PUSH20 0xFFFFFFFFFFFFFFFFFFFFFFFFFFFFFFFFFFFFFFFF AND EQ PUSH2 0x1134 JUMPI PUSH1 0x1 PUSH1 0x3 PUSH0 DUP8 PUSH20 0xFFFFFFFFFFFFFFFFFFFFFFFFFFFFFFFFFFFFFFFF AND PUSH20 0xFFFFFFFFFFFFFFFFFFFFFFFFFFFFFFFFFFFFFFFF AND DUP2 MSTORE PUSH1 0x20 ADD SWAP1 DUP2 MSTORE PUSH1 0x20 ADD PUSH0 KECCAK256 PUSH0 DUP3 DUP3 SLOAD ADD SWAP3 POP POP DUP2 SWAP1 SSTORE POP JUMPDEST DUP5 PUSH1 0x2 PUSH0 DUP7 DUP2 MSTORE PUSH1 0x20 ADD SWAP1 DUP2 MSTORE PUSH1 0x20 ADD PUSH0 KECCAK256 PUSH0 PUSH2 0x100 EXP DUP2 SLOAD DUP2 PUSH20 0xFFFFFFFFFFFFFFFFFFFFFFFFFFFFFFFFFFFFFFFF MUL NOT AND SWAP1 DUP4 PUSH20 0xFFFFFFFFFFFFFFFFFFFFFFFFFFFFFFFFFFFFFFFF AND MUL OR SWAP1 SSTORE POP DUP4 DUP6 PUSH20 0xFFFFFFFFFFFFFFFFFFFFFFFFFFFFFFFFFFFFFFFF AND DUP3 PUSH20 0xFFFFFFFFFFFFFFFFFFFFFFFFFFFFFFFFFFFFFFFF AND PUSH32 0xDDF252AD1BE2C89B69C2B068FC378DAA952BA7F163C4A11628F55A4DF523B3EF PUSH1 0x40 MLOAD PUSH1 0x40 MLOAD DUP1 SWAP2 SUB SWAP1 LOG4 DUP1 SWAP2 POP POP SWAP4 SWAP3 POP POP POP JUMP JUMPDEST PUSH0 DUP2 PUSH0 ADD SLOAD SWAP1 POP SWAP2 SWAP1 POP JUMP JUMPDEST PUSH2 0x11FD PUSH2 0xFC5 JUMP JUMPDEST PUSH20 0xFFFFFFFFFFFFFFFFFFFFFFFFFFFFFFFFFFFFFFFF AND PUSH2 0x121B PUSH2 0xB81 JUMP JUMPDEST PUSH20 0xFFFFFFFFFFFFFFFFFFFFFFFFFFFFFFFFFFFFFFFF AND EQ PUSH2 0x1271 JUMPI PUSH1 0x40 MLOAD PUSH32 0x8C379A000000000000000000000000000000000000000000000000000000000 DUP2 MSTORE PUSH1 0x4 ADD PUSH2 0x1268 SWAP1 PUSH2 0x29B4 JUMP JUMPDEST PUSH1 0x40 MLOAD DUP1 SWAP2 SUB SWAP1 REVERT JUMPDEST JUMP JUMPDEST PUSH0 PUSH1 0x6 PUSH0 SWAP1 SLOAD SWAP1 PUSH2 0x100 EXP SWAP1 DIV PUSH20 0xFFFFFFFFFFFFFFFFFFFFFFFFFFFFFFFFFFFFFFFF AND SWAP1 POP DUP2 PUSH1 0x6 PUSH0 PUSH2 0x100 EXP DUP2 SLOAD DUP2 PUSH20 0xFFFFFFFFFFFFFFFFFFFFFFFFFFFFFFFFFFFFFFFF MUL NOT AND SWAP1 DUP4 PUSH20 0xFFFFFFFFFFFFFFFFFFFFFFFFFFFFFFFFFFFFFFFF AND MUL OR SWAP1 SSTORE POP DUP2 PUSH20 0xFFFFFFFFFFFFFFFFFFFFFFFFFFFFFFFFFFFFFFFF AND DUP2 PUSH20 0xFFFFFFFFFFFFFFFFFFFFFFFFFFFFFFFFFFFFFFFF AND PUSH32 0x8BE0079C531659141344CD1FD0A4F28419497F9722A3DAAFE3B4186F6B6457E0 PUSH1 0x40 MLOAD PUSH1 0x40 MLOAD DUP1 SWAP2 SUB SWAP1 LOG3 POP POP JUMP JUMPDEST PUSH0 PUSH20 0xFFFFFFFFFFFFFFFFFFFFFFFFFFFFFFFFFFFFFFFF AND DUP3 PUSH20 0xFFFFFFFFFFFFFFFFFFFFFFFFFFFFFFFFFFFFFFFF AND SUB PUSH2 0x13A6 JUMPI PUSH0 PUSH1 0x40 MLOAD PUSH32 0x64A0AE9200000000000000000000000000000000000000000000000000000000 DUP2 MSTORE PUSH1 0x4 ADD PUSH2 0x139D SWAP2 SWAP1 PUSH2 0x1F0F JUMP JUMPDEST PUSH1 0x40 MLOAD DUP1 SWAP2 SUB SWAP1 REVERT JUMPDEST PUSH0 PUSH2 0x13B2 DUP4 DUP4 PUSH0 PUSH2 0xFDE JUMP JUMPDEST SWAP1 POP PUSH0 PUSH20 0xFFFFFFFFFFFFFFFFFFFFFFFFFFFFFFFFFFFFFFFF AND DUP2 PUSH20 0xFFFFFFFFFFFFFFFFFFFFFFFFFFFFFFFFFFFFFFFF AND EQ PUSH2 0x1424 JUMPI PUSH0 PUSH1 0x40 MLOAD PUSH32 0x73C6AC6E00000000000000000000000000000000000000000000000000000000 DUP2 MSTORE PUSH1 0x4 ADD PUSH2 0x141B SWAP2 SWAP1 PUSH2 0x1F0F JUMP JUMPDEST PUSH1 0x40 MLOAD DUP1 SWAP2 SUB SWAP1 REVERT JUMPDEST POP POP POP JUMP JUMPDEST PUSH0 PUSH20 0xFFFFFFFFFFFFFFFFFFFFFFFFFFFFFFFFFFFFFFFF AND DUP3 PUSH20 0xFFFFFFFFFFFFFFFFFFFFFFFFFFFFFFFFFFFFFFFF AND SUB PUSH2 0x1499 JUMPI DUP2 PUSH1 0x40 MLOAD PUSH32 0x5B08BA1800000000000000000000000000000000000000000000000000000000 DUP2 MSTORE PUSH1 0x4 ADD PUSH2 0x1490 SWAP2 SWAP1 PUSH2 0x1F0F JUMP JUMPDEST PUSH1 0x40 MLOAD DUP1 SWAP2 SUB SWAP1 REVERT JUMPDEST DUP1 PUSH1 0x5 PUSH0 DUP6 PUSH20 0xFFFFFFFFFFFFFFFFFFFFFFFFFFFFFFFFFFFFFFFF AND PUSH20 0xFFFFFFFFFFFFFFFFFFFFFFFFFFFFFFFFFFFFFFFF AND DUP2 MSTORE PUSH1 0x20 ADD SWAP1 DUP2 MSTORE PUSH1 0x20 ADD PUSH0 KECCAK256 PUSH0 DUP5 PUSH20 0xFFFFFFFFFFFFFFFFFFFFFFFFFFFFFFFFFFFFFFFF AND PUSH20 0xFFFFFFFFFFFFFFFFFFFFFFFFFFFFFFFFFFFFFFFF AND DUP2 MSTORE PUSH1 0x20 ADD SWAP1 DUP2 MSTORE PUSH1 0x20 ADD PUSH0 KECCAK256 PUSH0 PUSH2 0x100 EXP DUP2 SLOAD DUP2 PUSH1 0xFF MUL NOT AND SWAP1 DUP4 ISZERO ISZERO MUL OR SWAP1 SSTORE POP DUP2 PUSH20 0xFFFFFFFFFFFFFFFFFFFFFFFFFFFFFFFFFFFFFFFF AND DUP4 PUSH20 0xFFFFFFFFFFFFFFFFFFFFFFFFFFFFFFFFFFFFFFFF AND PUSH32 0x17307EAB39AB6107E8899845AD3D59BD9653F200F220920489CA2B5937696C31 DUP4 PUSH1 0x40 MLOAD PUSH2 0x1585 SWAP2 SWAP1 PUSH2 0x1DAF JUMP JUMPDEST PUSH1 0x40 MLOAD DUP1 SWAP2 SUB SWAP1 LOG3 POP POP POP JUMP JUMPDEST PUSH1 0x1 DUP2 PUSH0 ADD PUSH0 DUP3 DUP3 SLOAD ADD SWAP3 POP POP DUP2 SWAP1 SSTORE POP POP JUMP JUMPDEST PUSH0 DUP4 PUSH20 0xFFFFFFFFFFFFFFFFFFFFFFFFFFFFFFFFFFFFFFFF AND EXTCODESIZE GT ISZERO PUSH2 0x1752 JUMPI DUP3 PUSH20 0xFFFFFFFFFFFFFFFFFFFFFFFFFFFFFFFFFFFFFFFF AND PUSH4 0x150B7A02 PUSH2 0x15E9 PUSH2 0xFC5 JUMP JUMPDEST DUP7 DUP6 DUP6 PUSH1 0x40 MLOAD DUP6 PUSH4 0xFFFFFFFF AND PUSH1 0xE0 SHL DUP2 MSTORE PUSH1 0x4 ADD PUSH2 0x160B SWAP5 SWAP4 SWAP3 SWAP2 SWAP1 PUSH2 0x2A24 JUMP JUMPDEST PUSH1 0x20 PUSH1 0x40 MLOAD DUP1 DUP4 SUB DUP2 PUSH0 DUP8 GAS CALL SWAP3 POP POP POP DUP1 ISZERO PUSH2 0x1646 JUMPI POP PUSH1 0x40 MLOAD RETURNDATASIZE PUSH1 0x1F NOT PUSH1 0x1F DUP3 ADD AND DUP3 ADD DUP1 PUSH1 0x40 MSTORE POP DUP2 ADD SWAP1 PUSH2 0x1643 SWAP2 SWAP1 PUSH2 0x2A82 JUMP JUMPDEST PUSH1 0x1 JUMPDEST PUSH2 0x16C7 JUMPI RETURNDATASIZE DUP1 PUSH0 DUP2 EQ PUSH2 0x1674 JUMPI PUSH1 0x40 MLOAD SWAP2 POP PUSH1 0x1F NOT PUSH1 0x3F RETURNDATASIZE ADD AND DUP3 ADD PUSH1 0x40 MSTORE RETURNDATASIZE DUP3 MSTORE RETURNDATASIZE PUSH0 PUSH1 0x20 DUP5 ADD RETURNDATACOPY PUSH2 0x1679 JUMP JUMPDEST PUSH1 0x60 SWAP2 POP JUMPDEST POP PUSH0 DUP2 MLOAD SUB PUSH2 0x16BF JUMPI DUP4 PUSH1 0x40 MLOAD PUSH32 0x64A0AE9200000000000000000000000000000000000000000000000000000000 DUP2 MSTORE PUSH1 0x4 ADD PUSH2 0x16B6 SWAP2 SWAP1 PUSH2 0x1F0F JUMP JUMPDEST PUSH1 0x40 MLOAD DUP1 SWAP2 SUB SWAP1 REVERT JUMPDEST DUP1 MLOAD DUP2 PUSH1 0x20 ADD REVERT JUMPDEST PUSH4 0x150B7A02 PUSH1 0xE0 SHL PUSH28 0xFFFFFFFFFFFFFFFFFFFFFFFFFFFFFFFFFFFFFFFFFFFFFFFFFFFFFFFF NOT AND DUP2 PUSH28 0xFFFFFFFFFFFFFFFFFFFFFFFFFFFFFFFFFFFFFFFFFFFFFFFFFFFFFFFF NOT AND EQ PUSH2 0x1750 JUMPI DUP4 PUSH1 0x40 MLOAD PUSH32 0x64A0AE9200000000000000000000000000000000000000000000000000000000 DUP2 MSTORE PUSH1 0x4 ADD PUSH2 0x1747 SWAP2 SWAP1 PUSH2 0x1F0F JUMP JUMPDEST PUSH1 0x40 MLOAD DUP1 SWAP2 SUB SWAP1 REVERT JUMPDEST POP JUMPDEST POP POP POP POP JUMP JUMPDEST PUSH1 0x60 PUSH1 0x40 MLOAD DUP1 PUSH1 0x20 ADD PUSH1 0x40 MSTORE DUP1 PUSH0 DUP2 MSTORE POP SWAP1 POP SWAP1 JUMP JUMPDEST PUSH1 0x60 PUSH0 PUSH1 0x1 PUSH2 0x177C DUP5 PUSH2 0x1AF3 JUMP JUMPDEST ADD SWAP1 POP PUSH0 DUP2 PUSH8 0xFFFFFFFFFFFFFFFF DUP2 GT ISZERO PUSH2 0x179A JUMPI PUSH2 0x1799 PUSH2 0x20D1 JUMP JUMPDEST JUMPDEST PUSH1 0x40 MLOAD SWAP1 DUP1 DUP3 MSTORE DUP1 PUSH1 0x1F ADD PUSH1 0x1F NOT AND PUSH1 0x20 ADD DUP3 ADD PUSH1 0x40 MSTORE DUP1 ISZERO PUSH2 0x17CC JUMPI DUP2 PUSH1 0x20 ADD PUSH1 0x1 DUP3 MUL DUP1 CALLDATASIZE DUP4 CALLDATACOPY DUP1 DUP3 ADD SWAP2 POP POP SWAP1 POP JUMPDEST POP SWAP1 POP PUSH0 DUP3 PUSH1 0x20 ADD DUP3 ADD SWAP1 POP JUMPDEST PUSH1 0x1 ISZERO PUSH2 0x182D JUMPI DUP1 DUP1 PUSH1 0x1 SWAP1 SUB SWAP2 POP POP PUSH32 0x3031323334353637383961626364656600000000000000000000000000000000 PUSH1 0xA DUP7 MOD BYTE DUP2 MSTORE8 PUSH1 0xA DUP6 DUP2 PUSH2 0x1822 JUMPI PUSH2 0x1821 PUSH2 0x2AAD JUMP JUMPDEST JUMPDEST DIV SWAP5 POP PUSH0 DUP6 SUB PUSH2 0x17D9 JUMPI JUMPDEST DUP2 SWAP4 POP POP POP POP SWAP2 SWAP1 POP JUMP JUMPDEST PUSH0 PUSH1 0x2 PUSH0 DUP4 DUP2 MSTORE PUSH1 0x20 ADD SWAP1 DUP2 MSTORE PUSH1 0x20 ADD PUSH0 KECCAK256 PUSH0 SWAP1 SLOAD SWAP1 PUSH2 0x100 EXP SWAP1 DIV PUSH20 0xFFFFFFFFFFFFFFFFFFFFFFFFFFFFFFFFFFFFFFFF AND SWAP1 POP SWAP2 SWAP1 POP JUMP JUMPDEST DUP1 DUP1 PUSH2 0x18A9 JUMPI POP PUSH0 PUSH20 0xFFFFFFFFFFFFFFFFFFFFFFFFFFFFFFFFFFFFFFFF AND DUP3 PUSH20 0xFFFFFFFFFFFFFFFFFFFFFFFFFFFFFFFFFFFFFFFF AND EQ ISZERO JUMPDEST ISZERO PUSH2 0x19DB JUMPI PUSH0 PUSH2 0x18B8 DUP5 PUSH2 0xF06 JUMP JUMPDEST SWAP1 POP PUSH0 PUSH20 0xFFFFFFFFFFFFFFFFFFFFFFFFFFFFFFFFFFFFFFFF AND DUP4 PUSH20 0xFFFFFFFFFFFFFFFFFFFFFFFFFFFFFFFFFFFFFFFF AND EQ ISZERO DUP1 ISZERO PUSH2 0x1922 JUMPI POP DUP3 PUSH20 0xFFFFFFFFFFFFFFFFFFFFFFFFFFFFFFFFFFFFFFFF AND DUP2 PUSH20 0xFFFFFFFFFFFFFFFFFFFFFFFFFFFFFFFFFFFFFFFF AND EQ ISZERO JUMPDEST DUP1 ISZERO PUSH2 0x1935 JUMPI POP PUSH2 0x1933 DUP2 DUP5 PUSH2 0xD68 JUMP JUMPDEST ISZERO JUMPDEST ISZERO PUSH2 0x1977 JUMPI DUP3 PUSH1 0x40 MLOAD PUSH32 0xA9FBF51F00000000000000000000000000000000000000000000000000000000 DUP2 MSTORE PUSH1 0x4 ADD PUSH2 0x196E SWAP2 SWAP1 PUSH2 0x1F0F JUMP JUMPDEST PUSH1 0x40 MLOAD DUP1 SWAP2 SUB SWAP1 REVERT JUMPDEST DUP2 ISZERO PUSH2 0x19D9 JUMPI DUP4 DUP6 PUSH20 0xFFFFFFFFFFFFFFFFFFFFFFFFFFFFFFFFFFFFFFFF AND DUP3 PUSH20 0xFFFFFFFFFFFFFFFFFFFFFFFFFFFFFFFFFFFFFFFF AND PUSH32 0x8C5BE1E5EBEC7D5BD14F71427D1E84F3DD0314C0F7B2291E5B200AC8C7C3B925 PUSH1 0x40 MLOAD PUSH1 0x40 MLOAD DUP1 SWAP2 SUB SWAP1 LOG4 JUMPDEST POP JUMPDEST DUP4 PUSH1 0x4 PUSH0 DUP6 DUP2 MSTORE PUSH1 0x20 ADD SWAP1 DUP2 MSTORE PUSH1 0x20 ADD PUSH0 KECCAK256 PUSH0 PUSH2 0x100 EXP DUP2 SLOAD DUP2 PUSH20 0xFFFFFFFFFFFFFFFFFFFFFFFFFFFFFFFFFFFFFFFF MUL NOT AND SWAP1 DUP4 PUSH20 0xFFFFFFFFFFFFFFFFFFFFFFFFFFFFFFFFFFFFFFFF AND MUL OR SWAP1 SSTORE POP POP POP POP POP JUMP JUMPDEST PUSH2 0x1A3B DUP4 DUP4 DUP4 PUSH2 0x1C44 JUMP JUMPDEST PUSH2 0x1AEE JUMPI PUSH0 PUSH20 0xFFFFFFFFFFFFFFFFFFFFFFFFFFFFFFFFFFFFFFFF AND DUP4 PUSH20 0xFFFFFFFFFFFFFFFFFFFFFFFFFFFFFFFFFFFFFFFF AND SUB PUSH2 0x1AAF JUMPI DUP1 PUSH1 0x40 MLOAD PUSH32 0x7E27328900000000000000000000000000000000000000000000000000000000 DUP2 MSTORE PUSH1 0x4 ADD PUSH2 0x1AA6 SWAP2 SWAP1 PUSH2 0x2048 JUMP JUMPDEST PUSH1 0x40 MLOAD DUP1 SWAP2 SUB SWAP1 REVERT JUMPDEST DUP2 DUP2 PUSH1 0x40 MLOAD PUSH32 0x177E802F00000000000000000000000000000000000000000000000000000000 DUP2 MSTORE PUSH1 0x4 ADD PUSH2 0x1AE5 SWAP3 SWAP2 SWAP1 PUSH2 0x2ADA JUMP JUMPDEST PUSH1 0x40 MLOAD DUP1 SWAP2 SUB SWAP1 REVERT JUMPDEST POP POP POP JUMP JUMPDEST PUSH0 DUP1 PUSH0 SWAP1 POP PUSH27 0x184F03E93FF9F4DAA797ED6E38ED64BF6A1F010000000000000000 DUP4 LT PUSH2 0x1B4F JUMPI PUSH27 0x184F03E93FF9F4DAA797ED6E38ED64BF6A1F010000000000000000 DUP4 DUP2 PUSH2 0x1B45 JUMPI PUSH2 0x1B44 PUSH2 0x2AAD JUMP JUMPDEST JUMPDEST DIV SWAP3 POP PUSH1 0x40 DUP2 ADD SWAP1 POP JUMPDEST PUSH14 0x4EE2D6D415B85ACEF8100000000 DUP4 LT PUSH2 0x1B8C JUMPI PUSH14 0x4EE2D6D415B85ACEF8100000000 DUP4 DUP2 PUSH2 0x1B82 JUMPI PUSH2 0x1B81 PUSH2 0x2AAD JUMP JUMPDEST JUMPDEST DIV SWAP3 POP PUSH1 0x20 DUP2 ADD SWAP1 POP JUMPDEST PUSH7 0x2386F26FC10000 DUP4 LT PUSH2 0x1BBB JUMPI PUSH7 0x2386F26FC10000 DUP4 DUP2 PUSH2 0x1BB1 JUMPI PUSH2 0x1BB0 PUSH2 0x2AAD JUMP JUMPDEST JUMPDEST DIV SWAP3 POP PUSH1 0x10 DUP2 ADD SWAP1 POP JUMPDEST PUSH4 0x5F5E100 DUP4 LT PUSH2 0x1BE4 JUMPI PUSH4 0x5F5E100 DUP4 DUP2 PUSH2 0x1BDA JUMPI PUSH2 0x1BD9 PUSH2 0x2AAD JUMP JUMPDEST JUMPDEST DIV SWAP3 POP PUSH1 0x8 DUP2 ADD SWAP1 POP JUMPDEST PUSH2 0x2710 DUP4 LT PUSH2 0x1C09 JUMPI PUSH2 0x2710 DUP4 DUP2 PUSH2 0x1BFF JUMPI PUSH2 0x1BFE PUSH2 0x2AAD JUMP JUMPDEST JUMPDEST DIV SWAP3 POP PUSH1 0x4 DUP2 ADD SWAP1 POP JUMPDEST PUSH1 0x64 DUP4 LT PUSH2 0x1C2C JUMPI PUSH1 0x64 DUP4 DUP2 PUSH2 0x1C22 JUMPI PUSH2 0x1C21 PUSH2 0x2AAD JUMP JUMPDEST JUMPDEST DIV SWAP3 POP PUSH1 0x2 DUP2 ADD SWAP1 POP JUMPDEST PUSH1 0xA DUP4 LT PUSH2 0x1C3B JUMPI PUSH1 0x1 DUP2 ADD SWAP1 POP JUMPDEST DUP1 SWAP2 POP POP SWAP2 SWAP1 POP JUMP JUMPDEST PUSH0 DUP1 PUSH20 0xFFFFFFFFFFFFFFFFFFFFFFFFFFFFFFFFFFFFFFFF AND DUP4 PUSH20 0xFFFFFFFFFFFFFFFFFFFFFFFFFFFFFFFFFFFFFFFF AND EQ ISZERO DUP1 ISZERO PUSH2 0x1CFB JUMPI POP DUP3 PUSH20 0xFFFFFFFFFFFFFFFFFFFFFFFFFFFFFFFFFFFFFFFF AND DUP5 PUSH20 0xFFFFFFFFFFFFFFFFFFFFFFFFFFFFFFFFFFFFFFFF AND EQ DUP1 PUSH2 0x1CBC JUMPI POP PUSH2 0x1CBB DUP5 DUP5 PUSH2 0xD68 JUMP JUMPDEST JUMPDEST DUP1 PUSH2 0x1CFA JUMPI POP DUP3 PUSH20 0xFFFFFFFFFFFFFFFFFFFFFFFFFFFFFFFFFFFFFFFF AND PUSH2 0x1CE2 DUP4 PUSH2 0xF8C JUMP JUMPDEST PUSH20 0xFFFFFFFFFFFFFFFFFFFFFFFFFFFFFFFFFFFFFFFF AND EQ JUMPDEST JUMPDEST SWAP1 POP SWAP4 SWAP3 POP POP POP JUMP JUMPDEST PUSH0 PUSH1 0x40 MLOAD SWAP1 POP SWAP1 JUMP JUMPDEST PUSH0 DUP1 REVERT JUMPDEST PUSH0 DUP1 REVERT JUMPDEST PUSH0 PUSH32 0xFFFFFFFF00000000000000000000000000000000000000000000000000000000 DUP3 AND SWAP1 POP SWAP2 SWAP1 POP JUMP JUMPDEST PUSH2 0x1D49 DUP2 PUSH2 0x1D15 JUMP JUMPDEST DUP2 EQ PUSH2 0x1D53 JUMPI PUSH0 DUP1 REVERT JUMPDEST POP JUMP JUMPDEST PUSH0 DUP2 CALLDATALOAD SWAP1 POP PUSH2 0x1D64 DUP2 PUSH2 0x1D40 JUMP JUMPDEST SWAP3 SWAP2 POP POP JUMP JUMPDEST PUSH0 PUSH1 0x20 DUP3 DUP5 SUB SLT ISZERO PUSH2 0x1D7F JUMPI PUSH2 0x1D7E PUSH2 0x1D0D JUMP JUMPDEST JUMPDEST PUSH0 PUSH2 0x1D8C DUP5 DUP3 DUP6 ADD PUSH2 0x1D56 JUMP JUMPDEST SWAP2 POP POP SWAP3 SWAP2 POP POP JUMP JUMPDEST PUSH0 DUP2 ISZERO ISZERO SWAP1 POP SWAP2 SWAP1 POP JUMP JUMPDEST PUSH2 0x1DA9 DUP2 PUSH2 0x1D95 JUMP JUMPDEST DUP3 MSTORE POP POP JUMP JUMPDEST PUSH0 PUSH1 0x20 DUP3 ADD SWAP1 POP PUSH2 0x1DC2 PUSH0 DUP4 ADD DUP5 PUSH2 0x1DA0 JUMP JUMPDEST SWAP3 SWAP2 POP POP JUMP JUMPDEST PUSH0 DUP2 MLOAD SWAP1 POP SWAP2 SWAP1 POP JUMP JUMPDEST PUSH0 DUP3 DUP3 MSTORE PUSH1 0x20 DUP3 ADD SWAP1 POP SWAP3 SWAP2 POP POP JUMP JUMPDEST PUSH0 JUMPDEST DUP4 DUP2 LT ISZERO PUSH2 0x1DFF JUMPI DUP1 DUP3 ADD MLOAD DUP2 DUP5 ADD MSTORE PUSH1 0x20 DUP2 ADD SWAP1 POP PUSH2 0x1DE4 JUMP JUMPDEST PUSH0 DUP5 DUP5 ADD MSTORE POP POP POP POP JUMP JUMPDEST PUSH0 PUSH1 0x1F NOT PUSH1 0x1F DUP4 ADD AND SWAP1 POP SWAP2 SWAP1 POP JUMP JUMPDEST PUSH0 PUSH2 0x1E24 DUP3 PUSH2 0x1DC8 JUMP JUMPDEST PUSH2 0x1E2E DUP2 DUP6 PUSH2 0x1DD2 JUMP JUMPDEST SWAP4 POP PUSH2 0x1E3E DUP2 DUP6 PUSH1 0x20 DUP7 ADD PUSH2 0x1DE2 JUMP JUMPDEST PUSH2 0x1E47 DUP2 PUSH2 0x1E0A JUMP JUMPDEST DUP5 ADD SWAP2 POP POP SWAP3 SWAP2 POP POP JUMP JUMPDEST PUSH0 PUSH1 0x20 DUP3 ADD SWAP1 POP DUP2 DUP2 SUB PUSH0 DUP4 ADD MSTORE PUSH2 0x1E6A DUP2 DUP5 PUSH2 0x1E1A JUMP JUMPDEST SWAP1 POP SWAP3 SWAP2 POP POP JUMP JUMPDEST PUSH0 DUP2 SWAP1 POP SWAP2 SWAP1 POP JUMP JUMPDEST PUSH2 0x1E84 DUP2 PUSH2 0x1E72 JUMP JUMPDEST DUP2 EQ PUSH2 0x1E8E JUMPI PUSH0 DUP1 REVERT JUMPDEST POP JUMP JUMPDEST PUSH0 DUP2 CALLDATALOAD SWAP1 POP PUSH2 0x1E9F DUP2 PUSH2 0x1E7B JUMP JUMPDEST SWAP3 SWAP2 POP POP JUMP JUMPDEST PUSH0 PUSH1 0x20 DUP3 DUP5 SUB SLT ISZERO PUSH2 0x1EBA JUMPI PUSH2 0x1EB9 PUSH2 0x1D0D JUMP JUMPDEST JUMPDEST PUSH0 PUSH2 0x1EC7 DUP5 DUP3 DUP6 ADD PUSH2 0x1E91 JUMP JUMPDEST SWAP2 POP POP SWAP3 SWAP2 POP POP JUMP JUMPDEST PUSH0 PUSH20 0xFFFFFFFFFFFFFFFFFFFFFFFFFFFFFFFFFFFFFFFF DUP3 AND SWAP1 POP SWAP2 SWAP1 POP JUMP JUMPDEST PUSH0 PUSH2 0x1EF9 DUP3 PUSH2 0x1ED0 JUMP JUMPDEST SWAP1 POP SWAP2 SWAP1 POP JUMP JUMPDEST PUSH2 0x1F09 DUP2 PUSH2 0x1EEF JUMP JUMPDEST DUP3 MSTORE POP POP JUMP JUMPDEST PUSH0 PUSH1 0x20 DUP3 ADD SWAP1 POP PUSH2 0x1F22 PUSH0 DUP4 ADD DUP5 PUSH2 0x1F00 JUMP JUMPDEST SWAP3 SWAP2 POP POP JUMP JUMPDEST PUSH2 0x1F31 DUP2 PUSH2 0x1EEF JUMP JUMPDEST DUP2 EQ PUSH2 0x1F3B JUMPI PUSH0 DUP1 REVERT JUMPDEST POP JUMP JUMPDEST PUSH0 DUP2 CALLDATALOAD SWAP1 POP PUSH2 0x1F4C DUP2 PUSH2 0x1F28 JUMP JUMPDEST SWAP3 SWAP2 POP POP JUMP JUMPDEST PUSH0 DUP1 PUSH1 0x40 DUP4 DUP6 SUB SLT ISZERO PUSH2 0x1F68 JUMPI PUSH2 0x1F67 PUSH2 0x1D0D JUMP JUMPDEST JUMPDEST PUSH0 PUSH2 0x1F75 DUP6 DUP3 DUP7 ADD PUSH2 0x1F3E JUMP JUMPDEST SWAP3 POP POP PUSH1 0x20 PUSH2 0x1F86 DUP6 DUP3 DUP7 ADD PUSH2 0x1E91 JUMP JUMPDEST SWAP2 POP POP SWAP3 POP SWAP3 SWAP1 POP JUMP JUMPDEST PUSH0 DUP1 PUSH0 PUSH1 0x60 DUP5 DUP7 SUB SLT ISZERO PUSH2 0x1FA7 JUMPI PUSH2 0x1FA6 PUSH2 0x1D0D JUMP JUMPDEST JUMPDEST PUSH0 PUSH2 0x1FB4 DUP7 DUP3 DUP8 ADD PUSH2 0x1F3E JUMP JUMPDEST SWAP4 POP POP PUSH1 0x20 PUSH2 0x1FC5 DUP7 DUP3 DUP8 ADD PUSH2 0x1F3E JUMP JUMPDEST SWAP3 POP POP PUSH1 0x40 PUSH2 0x1FD6 DUP7 DUP3 DUP8 ADD PUSH2 0x1E91 JUMP JUMPDEST SWAP2 POP POP SWAP3 POP SWAP3 POP SWAP3 JUMP JUMPDEST PUSH2 0x1FE9 DUP2 PUSH2 0x1E72 JUMP JUMPDEST DUP3 MSTORE POP POP JUMP JUMPDEST PUSH0 PUSH1 0x40 DUP3 ADD SWAP1 POP DUP2 DUP2 SUB PUSH0 DUP4 ADD MSTORE PUSH2 0x2007 DUP2 DUP6 PUSH2 0x1E1A JUMP JUMPDEST SWAP1 POP PUSH2 0x2016 PUSH1 0x20 DUP4 ADD DUP5 PUSH2 0x1FE0 JUMP JUMPDEST SWAP4 SWAP3 POP POP POP JUMP JUMPDEST PUSH0 PUSH1 0x20 DUP3 DUP5 SUB SLT ISZERO PUSH2 0x2032 JUMPI PUSH2 0x2031 PUSH2 0x1D0D JUMP JUMPDEST JUMPDEST PUSH0 PUSH2 0x203F DUP5 DUP3 DUP6 ADD PUSH2 0x1F3E JUMP JUMPDEST SWAP2 POP POP SWAP3 SWAP2 POP POP JUMP JUMPDEST PUSH0 PUSH1 0x20 DUP3 ADD SWAP1 POP PUSH2 0x205B PUSH0 DUP4 ADD DUP5 PUSH2 0x1FE0 JUMP JUMPDEST SWAP3 SWAP2 POP POP JUMP JUMPDEST PUSH2 0x206A DUP2 PUSH2 0x1D95 JUMP JUMPDEST DUP2 EQ PUSH2 0x2074 JUMPI PUSH0 DUP1 REVERT JUMPDEST POP JUMP JUMPDEST PUSH0 DUP2 CALLDATALOAD SWAP1 POP PUSH2 0x2085 DUP2 PUSH2 0x2061 JUMP JUMPDEST SWAP3 SWAP2 POP POP JUMP JUMPDEST PUSH0 DUP1 PUSH1 0x40 DUP4 DUP6 SUB SLT ISZERO PUSH2 0x20A1 JUMPI PUSH2 0x20A0 PUSH2 0x1D0D JUMP JUMPDEST JUMPDEST PUSH0 PUSH2 0x20AE DUP6 DUP3 DUP7 ADD PUSH2 0x1F3E JUMP JUMPDEST SWAP3 POP POP PUSH1 0x20 PUSH2 0x20BF DUP6 DUP3 DUP7 ADD PUSH2 0x2077 JUMP JUMPDEST SWAP2 POP POP SWAP3 POP SWAP3 SWAP1 POP JUMP JUMPDEST PUSH0 DUP1 REVERT JUMPDEST PUSH0 DUP1 REVERT JUMPDEST PUSH32 0x4E487B7100000000000000000000000000000000000000000000000000000000 PUSH0 MSTORE PUSH1 0x41 PUSH1 0x4 MSTORE PUSH1 0x24 PUSH0 REVERT JUMPDEST PUSH2 0x2107 DUP3 PUSH2 0x1E0A JUMP JUMPDEST DUP2 ADD DUP2 DUP2 LT PUSH8 0xFFFFFFFFFFFFFFFF DUP3 GT OR ISZERO PUSH2 0x2126 JUMPI PUSH2 0x2125 PUSH2 0x20D1 JUMP JUMPDEST JUMPDEST DUP1 PUSH1 0x40 MSTORE POP POP POP JUMP JUMPDEST PUSH0 PUSH2 0x2138 PUSH2 0x1D04 JUMP JUMPDEST SWAP1 POP PUSH2 0x2144 DUP3 DUP3 PUSH2 0x20FE JUMP JUMPDEST SWAP2 SWAP1 POP JUMP JUMPDEST PUSH0 PUSH8 0xFFFFFFFFFFFFFFFF DUP3 GT ISZERO PUSH2 0x2163 JUMPI PUSH2 0x2162 PUSH2 0x20D1 JUMP JUMPDEST JUMPDEST PUSH2 0x216C DUP3 PUSH2 0x1E0A JUMP JUMPDEST SWAP1 POP PUSH1 0x20 DUP2 ADD SWAP1 POP SWAP2 SWAP1 POP JUMP JUMPDEST DUP3 DUP2 DUP4 CALLDATACOPY PUSH0 DUP4 DUP4 ADD MSTORE POP POP POP JUMP JUMPDEST PUSH0 PUSH2 0x2199 PUSH2 0x2194 DUP5 PUSH2 0x2149 JUMP JUMPDEST PUSH2 0x212F JUMP JUMPDEST SWAP1 POP DUP3 DUP2 MSTORE PUSH1 0x20 DUP2 ADD DUP5 DUP5 DUP5 ADD GT ISZERO PUSH2 0x21B5 JUMPI PUSH2 0x21B4 PUSH2 0x20CD JUMP JUMPDEST JUMPDEST PUSH2 0x21C0 DUP5 DUP3 DUP6 PUSH2 0x2179 JUMP JUMPDEST POP SWAP4 SWAP3 POP POP POP JUMP JUMPDEST PUSH0 DUP3 PUSH1 0x1F DUP4 ADD SLT PUSH2 0x21DC JUMPI PUSH2 0x21DB PUSH2 0x20C9 JUMP JUMPDEST JUMPDEST DUP2 CALLDATALOAD PUSH2 0x21EC DUP5 DUP3 PUSH1 0x20 DUP7 ADD PUSH2 0x2187 JUMP JUMPDEST SWAP2 POP POP SWAP3 SWAP2 POP POP JUMP JUMPDEST PUSH0 DUP1 PUSH1 0x40 DUP4 DUP6 SUB SLT ISZERO PUSH2 0x220B JUMPI PUSH2 0x220A PUSH2 0x1D0D JUMP JUMPDEST JUMPDEST PUSH0 DUP4 ADD CALLDATALOAD PUSH8 0xFFFFFFFFFFFFFFFF DUP2 GT ISZERO PUSH2 0x2228 JUMPI PUSH2 0x2227 PUSH2 0x1D11 JUMP JUMPDEST JUMPDEST PUSH2 0x2234 DUP6 DUP3 DUP7 ADD PUSH2 0x21C8 JUMP JUMPDEST SWAP3 POP POP PUSH1 0x20 PUSH2 0x2245 DUP6 DUP3 DUP7 ADD PUSH2 0x1E91 JUMP JUMPDEST SWAP2 POP POP SWAP3 POP SWAP3 SWAP1 POP JUMP JUMPDEST PUSH0 PUSH8 0xFFFFFFFFFFFFFFFF DUP3 GT ISZERO PUSH2 0x2269 JUMPI PUSH2 0x2268 PUSH2 0x20D1 JUMP JUMPDEST JUMPDEST PUSH2 0x2272 DUP3 PUSH2 0x1E0A JUMP JUMPDEST SWAP1 POP PUSH1 0x20 DUP2 ADD SWAP1 POP SWAP2 SWAP1 POP JUMP JUMPDEST PUSH0 PUSH2 0x2291 PUSH2 0x228C DUP5 PUSH2 0x224F JUMP JUMPDEST PUSH2 0x212F JUMP JUMPDEST SWAP1 POP DUP3 DUP2 MSTORE PUSH1 0x20 DUP2 ADD DUP5 DUP5 DUP5 ADD GT ISZERO PUSH2 0x22AD JUMPI PUSH2 0x22AC PUSH2 0x20CD JUMP JUMPDEST JUMPDEST PUSH2 0x22B8 DUP5 DUP3 DUP6 PUSH2 0x2179 JUMP JUMPDEST POP SWAP4 SWAP3 POP POP POP JUMP JUMPDEST PUSH0 DUP3 PUSH1 0x1F DUP4 ADD SLT PUSH2 0x22D4 JUMPI PUSH2 0x22D3 PUSH2 0x20C9 JUMP JUMPDEST JUMPDEST DUP2 CALLDATALOAD PUSH2 0x22E4 DUP5 DUP3 PUSH1 0x20 DUP7 ADD PUSH2 0x227F JUMP JUMPDEST SWAP2 POP POP SWAP3 SWAP2 POP POP JUMP JUMPDEST PUSH0 DUP1 PUSH0 DUP1 PUSH1 0x80 DUP6 DUP8 SUB SLT ISZERO PUSH2 0x2305 JUMPI PUSH2 0x2304 PUSH2 0x1D0D JUMP JUMPDEST JUMPDEST PUSH0 PUSH2 0x2312 DUP8 DUP3 DUP9 ADD PUSH2 0x1F3E JUMP JUMPDEST SWAP5 POP POP PUSH1 0x20 PUSH2 0x2323 DUP8 DUP3 DUP9 ADD PUSH2 0x1F3E JUMP JUMPDEST SWAP4 POP POP PUSH1 0x40 PUSH2 0x2334 DUP8 DUP3 DUP9 ADD PUSH2 0x1E91 JUMP JUMPDEST SWAP3 POP POP PUSH1 0x60 DUP6 ADD CALLDATALOAD PUSH8 0xFFFFFFFFFFFFFFFF DUP2 GT ISZERO PUSH2 0x2355 JUMPI PUSH2 0x2354 PUSH2 0x1D11 JUMP JUMPDEST JUMPDEST PUSH2 0x2361 DUP8 DUP3 DUP9 ADD PUSH2 0x22C0 JUMP JUMPDEST SWAP2 POP POP SWAP3 SWAP6 SWAP2 SWAP5 POP SWAP3 POP JUMP JUMPDEST PUSH0 DUP1 PUSH1 0x40 DUP4 DUP6 SUB SLT ISZERO PUSH2 0x2383 JUMPI PUSH2 0x2382 PUSH2 0x1D0D JUMP JUMPDEST JUMPDEST PUSH0 PUSH2 0x2390 DUP6 DUP3 DUP7 ADD PUSH2 0x1F3E JUMP JUMPDEST SWAP3 POP POP PUSH1 0x20 PUSH2 0x23A1 DUP6 DUP3 DUP7 ADD PUSH2 0x1F3E JUMP JUMPDEST SWAP2 POP POP SWAP3 POP SWAP3 SWAP1 POP JUMP JUMPDEST PUSH0 DUP2 SWAP1 POP SWAP2 SWAP1 POP JUMP JUMPDEST PUSH0 PUSH2 0x23CE PUSH2 0x23C9 PUSH2 0x23C4 DUP5 PUSH2 0x1ED0 JUMP JUMPDEST PUSH2 0x23AB JUMP JUMPDEST PUSH2 0x1ED0 JUMP JUMPDEST SWAP1 POP SWAP2 SWAP1 POP JUMP JUMPDEST PUSH0 PUSH2 0x23DF DUP3 PUSH2 0x23B4 JUMP JUMPDEST SWAP1 POP SWAP2 SWAP1 POP JUMP JUMPDEST PUSH0 PUSH2 0x23F0 DUP3 PUSH2 0x23D5 JUMP JUMPDEST SWAP1 POP SWAP2 SWAP1 POP JUMP JUMPDEST PUSH2 0x2400 DUP2 PUSH2 0x23E6 JUMP JUMPDEST DUP3 MSTORE POP POP JUMP JUMPDEST PUSH0 PUSH1 0x20 DUP3 ADD SWAP1 POP PUSH2 0x2419 PUSH0 DUP4 ADD DUP5 PUSH2 0x23F7 JUMP JUMPDEST SWAP3 SWAP2 POP POP JUMP JUMPDEST PUSH32 0x4E487B7100000000000000000000000000000000000000000000000000000000 PUSH0 MSTORE PUSH1 0x22 PUSH1 0x4 MSTORE PUSH1 0x24 PUSH0 REVERT JUMPDEST PUSH0 PUSH1 0x2 DUP3 DIV SWAP1 POP PUSH1 0x1 DUP3 AND DUP1 PUSH2 0x2463 JUMPI PUSH1 0x7F DUP3 AND SWAP2 POP JUMPDEST PUSH1 0x20 DUP3 LT DUP2 SUB PUSH2 0x2476 JUMPI PUSH2 0x2475 PUSH2 0x241F JUMP JUMPDEST JUMPDEST POP SWAP2 SWAP1 POP JUMP JUMPDEST PUSH0 PUSH1 0x60 DUP3 ADD SWAP1 POP PUSH2 0x248F PUSH0 DUP4 ADD DUP7 PUSH2 0x1F00 JUMP JUMPDEST PUSH2 0x249C PUSH1 0x20 DUP4 ADD DUP6 PUSH2 0x1FE0 JUMP JUMPDEST PUSH2 0x24A9 PUSH1 0x40 DUP4 ADD DUP5 PUSH2 0x1F00 JUMP JUMPDEST SWAP5 SWAP4 POP POP POP POP JUMP JUMPDEST PUSH32 0x42696C6C20646F6573206E6F7420657869737400000000000000000000000000 PUSH0 DUP3 ADD MSTORE POP JUMP JUMPDEST PUSH0 PUSH2 0x24E5 PUSH1 0x13 DUP4 PUSH2 0x1DD2 JUMP JUMPDEST SWAP2 POP PUSH2 0x24F0 DUP3 PUSH2 0x24B1 JUMP JUMPDEST PUSH1 0x20 DUP3 ADD SWAP1 POP SWAP2 SWAP1 POP JUMP JUMPDEST PUSH0 PUSH1 0x20 DUP3 ADD SWAP1 POP DUP2 DUP2 SUB PUSH0 DUP4 ADD MSTORE PUSH2 0x2512 DUP2 PUSH2 0x24D9 JUMP JUMPDEST SWAP1 POP SWAP2 SWAP1 POP JUMP JUMPDEST PUSH32 0x50726F6475637420646F6573206E6F7420657869737400000000000000000000 PUSH0 DUP3 ADD MSTORE POP JUMP JUMPDEST PUSH0 PUSH2 0x254D PUSH1 0x16 DUP4 PUSH2 0x1DD2 JUMP JUMPDEST SWAP2 POP PUSH2 0x2558 DUP3 PUSH2 0x2519 JUMP JUMPDEST PUSH1 0x20 DUP3 ADD SWAP1 POP SWAP2 SWAP1 POP JUMP JUMPDEST PUSH0 PUSH1 0x20 DUP3 ADD SWAP1 POP DUP2 DUP2 SUB PUSH0 DUP4 ADD MSTORE PUSH2 0x257A DUP2 PUSH2 0x2541 JUMP JUMPDEST SWAP1 POP SWAP2 SWAP1 POP JUMP JUMPDEST PUSH0 PUSH1 0x60 DUP3 ADD SWAP1 POP PUSH2 0x2594 PUSH0 DUP4 ADD DUP7 PUSH2 0x1F00 JUMP JUMPDEST PUSH2 0x25A1 PUSH1 0x20 DUP4 ADD DUP6 PUSH2 0x1F00 JUMP JUMPDEST PUSH2 0x25AE PUSH1 0x40 DUP4 ADD DUP5 PUSH2 0x1FE0 JUMP JUMPDEST SWAP5 SWAP4 POP POP POP POP JUMP JUMPDEST PUSH0 DUP2 MLOAD SWAP1 POP PUSH2 0x25C4 DUP2 PUSH2 0x2061 JUMP JUMPDEST SWAP3 SWAP2 POP POP JUMP JUMPDEST PUSH0 PUSH1 0x20 DUP3 DUP5 SUB SLT ISZERO PUSH2 0x25DF JUMPI PUSH2 0x25DE PUSH2 0x1D0D JUMP JUMPDEST JUMPDEST PUSH0 PUSH2 0x25EC DUP5 DUP3 DUP6 ADD PUSH2 0x25B6 JUMP JUMPDEST SWAP2 POP POP SWAP3 SWAP2 POP POP JUMP JUMPDEST PUSH0 PUSH1 0x40 DUP3 ADD SWAP1 POP PUSH2 0x2608 PUSH0 DUP4 ADD DUP6 PUSH2 0x1FE0 JUMP JUMPDEST PUSH2 0x2615 PUSH1 0x20 DUP4 ADD DUP5 PUSH2 0x1FE0 JUMP JUMPDEST SWAP4 SWAP3 POP POP POP JUMP JUMPDEST PUSH0 DUP2 SWAP1 POP DUP2 PUSH0 MSTORE PUSH1 0x20 PUSH0 KECCAK256 SWAP1 POP SWAP2 SWAP1 POP JUMP JUMPDEST PUSH0 PUSH1 0x20 PUSH1 0x1F DUP4 ADD DIV SWAP1 POP SWAP2 SWAP1 POP JUMP JUMPDEST PUSH0 DUP3 DUP3 SHL SWAP1 POP SWAP3 SWAP2 POP POP JUMP JUMPDEST PUSH0 PUSH1 0x8 DUP4 MUL PUSH2 0x2678 PUSH32 0xFFFFFFFFFFFFFFFFFFFFFFFFFFFFFFFFFFFFFFFFFFFFFFFFFFFFFFFFFFFFFFFF DUP3 PUSH2 0x263D JUMP JUMPDEST PUSH2 0x2682 DUP7 DUP4 PUSH2 0x263D JUMP JUMPDEST SWAP6 POP DUP1 NOT DUP5 AND SWAP4 POP DUP1 DUP7 AND DUP5 OR SWAP3 POP POP POP SWAP4 SWAP3 POP POP POP JUMP JUMPDEST PUSH0 PUSH2 0x26B4 PUSH2 0x26AF PUSH2 0x26AA DUP5 PUSH2 0x1E72 JUMP JUMPDEST PUSH2 0x23AB JUMP JUMPDEST PUSH2 0x1E72 JUMP JUMPDEST SWAP1 POP SWAP2 SWAP1 POP JUMP JUMPDEST PUSH0 DUP2 SWAP1 POP SWAP2 SWAP1 POP JUMP JUMPDEST PUSH2 0x26CD DUP4 PUSH2 0x269A JUMP JUMPDEST PUSH2 0x26E1 PUSH2 0x26D9 DUP3 PUSH2 0x26BB JUMP JUMPDEST DUP5 DUP5 SLOAD PUSH2 0x2649 JUMP JUMPDEST DUP3 SSTORE POP POP POP POP JUMP JUMPDEST PUSH0 SWAP1 JUMP JUMPDEST PUSH2 0x26F5 PUSH2 0x26E9 JUMP JUMPDEST PUSH2 0x2700 DUP2 DUP5 DUP5 PUSH2 0x26C4 JUMP JUMPDEST POP POP POP JUMP JUMPDEST JUMPDEST DUP2 DUP2 LT ISZERO PUSH2 0x2723 JUMPI PUSH2 0x2718 PUSH0 DUP3 PUSH2 0x26ED JUMP JUMPDEST PUSH1 0x1 DUP2 ADD SWAP1 POP PUSH2 0x2706 JUMP JUMPDEST POP POP JUMP JUMPDEST PUSH1 0x1F DUP3 GT ISZERO PUSH2 0x2768 JUMPI PUSH2 0x2739 DUP2 PUSH2 0x261C JUMP JUMPDEST PUSH2 0x2742 DUP5 PUSH2 0x262E JUMP JUMPDEST DUP2 ADD PUSH1 0x20 DUP6 LT ISZERO PUSH2 0x2751 JUMPI DUP2 SWAP1 POP JUMPDEST PUSH2 0x2765 PUSH2 0x275D DUP6 PUSH2 0x262E JUMP JUMPDEST DUP4 ADD DUP3 PUSH2 0x2705 JUMP JUMPDEST POP POP JUMPDEST POP POP POP JUMP JUMPDEST PUSH0 DUP3 DUP3 SHR SWAP1 POP SWAP3 SWAP2 POP POP JUMP JUMPDEST PUSH0 PUSH2 0x2788 PUSH0 NOT DUP5 PUSH1 0x8 MUL PUSH2 0x276D JUMP JUMPDEST NOT DUP1 DUP4 AND SWAP2 POP POP SWAP3 SWAP2 POP POP JUMP JUMPDEST PUSH0 PUSH2 0x27A0 DUP4 DUP4 PUSH2 0x2779 JUMP JUMPDEST SWAP2 POP DUP3 PUSH1 0x2 MUL DUP3 OR SWAP1 POP SWAP3 SWAP2 POP POP JUMP JUMPDEST PUSH2 0x27B9 DUP3 PUSH2 0x1DC8 JUMP JUMPDEST PUSH8 0xFFFFFFFFFFFFFFFF DUP2 GT ISZERO PUSH2 0x27D2 JUMPI PUSH2 0x27D1 PUSH2 0x20D1 JUMP JUMPDEST JUMPDEST PUSH2 0x27DC DUP3 SLOAD PUSH2 0x244C JUMP JUMPDEST PUSH2 0x27E7 DUP3 DUP3 DUP6 PUSH2 0x2727 JUMP JUMPDEST PUSH0 PUSH1 0x20 SWAP1 POP PUSH1 0x1F DUP4 GT PUSH1 0x1 DUP2 EQ PUSH2 0x2818 JUMPI PUSH0 DUP5 ISZERO PUSH2 0x2806 JUMPI DUP3 DUP8 ADD MLOAD SWAP1 POP JUMPDEST PUSH2 0x2810 DUP6 DUP3 PUSH2 0x2795 JUMP JUMPDEST DUP7 SSTORE POP PUSH2 0x2877 JUMP JUMPDEST PUSH1 0x1F NOT DUP5 AND PUSH2 0x2826 DUP7 PUSH2 0x261C JUMP JUMPDEST PUSH0 JUMPDEST DUP3 DUP2 LT ISZERO PUSH2 0x284D JUMPI DUP5 DUP10 ADD MLOAD DUP3 SSTORE PUSH1 0x1 DUP3 ADD SWAP2 POP PUSH1 0x20 DUP6 ADD SWAP5 POP PUSH1 0x20 DUP2 ADD SWAP1 POP PUSH2 0x2828 JUMP JUMPDEST DUP7 DUP4 LT ISZERO PUSH2 0x286A JUMPI DUP5 DUP10 ADD MLOAD PUSH2 0x2866 PUSH1 0x1F DUP10 AND DUP3 PUSH2 0x2779 JUMP JUMPDEST DUP4 SSTORE POP JUMPDEST PUSH1 0x1 PUSH1 0x2 DUP9 MUL ADD DUP9 SSTORE POP POP POP JUMPDEST POP POP POP POP POP POP JUMP JUMPDEST PUSH0 DUP2 SWAP1 POP SWAP3 SWAP2 POP POP JUMP JUMPDEST PUSH0 PUSH2 0x2893 DUP3 PUSH2 0x1DC8 JUMP JUMPDEST PUSH2 0x289D DUP2 DUP6 PUSH2 0x287F JUMP JUMPDEST SWAP4 POP PUSH2 0x28AD DUP2 DUP6 PUSH1 0x20 DUP7 ADD PUSH2 0x1DE2 JUMP JUMPDEST DUP1 DUP5 ADD SWAP2 POP POP SWAP3 SWAP2 POP POP JUMP JUMPDEST PUSH0 PUSH2 0x28C4 DUP3 DUP6 PUSH2 0x2889 JUMP JUMPDEST SWAP2 POP PUSH2 0x28D0 DUP3 DUP5 PUSH2 0x2889 JUMP JUMPDEST SWAP2 POP DUP2 SWAP1 POP SWAP4 SWAP3 POP POP POP JUMP JUMPDEST PUSH32 0x4F776E61626C653A206E6577206F776E657220697320746865207A65726F2061 PUSH0 DUP3 ADD MSTORE PUSH32 0x6464726573730000000000000000000000000000000000000000000000000000 PUSH1 0x20 DUP3 ADD MSTORE POP JUMP JUMPDEST PUSH0 PUSH2 0x2936 PUSH1 0x26 DUP4 PUSH2 0x1DD2 JUMP JUMPDEST SWAP2 POP PUSH2 0x2941 DUP3 PUSH2 0x28DC JUMP JUMPDEST PUSH1 0x40 DUP3 ADD SWAP1 POP SWAP2 SWAP1 POP JUMP JUMPDEST PUSH0 PUSH1 0x20 DUP3 ADD SWAP1 POP DUP2 DUP2 SUB PUSH0 DUP4 ADD MSTORE PUSH2 0x2963 DUP2 PUSH2 0x292A JUMP JUMPDEST SWAP1 POP SWAP2 SWAP1 POP JUMP JUMPDEST PUSH32 0x4F776E61626C653A2063616C6C6572206973206E6F7420746865206F776E6572 PUSH0 DUP3 ADD MSTORE POP JUMP JUMPDEST PUSH0 PUSH2 0x299E PUSH1 0x20 DUP4 PUSH2 0x1DD2 JUMP JUMPDEST SWAP2 POP PUSH2 0x29A9 DUP3 PUSH2 0x296A JUMP JUMPDEST PUSH1 0x20 DUP3 ADD SWAP1 POP SWAP2 SWAP1 POP JUMP JUMPDEST PUSH0 PUSH1 0x20 DUP3 ADD SWAP1 POP DUP2 DUP2 SUB PUSH0 DUP4 ADD MSTORE PUSH2 0x29CB DUP2 PUSH2 0x2992 JUMP JUMPDEST SWAP1 POP SWAP2 SWAP1 POP JUMP JUMPDEST PUSH0 DUP2 MLOAD SWAP1 POP SWAP2 SWAP1 POP JUMP JUMPDEST PUSH0 DUP3 DUP3 MSTORE PUSH1 0x20 DUP3 ADD SWAP1 POP SWAP3 SWAP2 POP POP JUMP JUMPDEST PUSH0 PUSH2 0x29F6 DUP3 PUSH2 0x29D2 JUMP JUMPDEST PUSH2 0x2A00 DUP2 DUP6 PUSH2 0x29DC JUMP JUMPDEST SWAP4 POP PUSH2 0x2A10 DUP2 DUP6 PUSH1 0x20 DUP7 ADD PUSH2 0x1DE2 JUMP JUMPDEST PUSH2 0x2A19 DUP2 PUSH2 0x1E0A JUMP JUMPDEST DUP5 ADD SWAP2 POP POP SWAP3 SWAP2 POP POP JUMP JUMPDEST PUSH0 PUSH1 0x80 DUP3 ADD SWAP1 POP PUSH2 0x2A37 PUSH0 DUP4 ADD DUP8 PUSH2 0x1F00 JUMP JUMPDEST PUSH2 0x2A44 PUSH1 0x20 DUP4 ADD DUP7 PUSH2 0x1F00 JUMP JUMPDEST PUSH2 0x2A51 PUSH1 0x40 DUP4 ADD DUP6 PUSH2 0x1FE0 JUMP JUMPDEST DUP2 DUP2 SUB PUSH1 0x60 DUP4 ADD MSTORE PUSH2 0x2A63 DUP2 DUP5 PUSH2 0x29EC JUMP JUMPDEST SWAP1 POP SWAP6 SWAP5 POP POP POP POP POP JUMP JUMPDEST PUSH0 DUP2 MLOAD SWAP1 POP PUSH2 0x2A7C DUP2 PUSH2 0x1D40 JUMP JUMPDEST SWAP3 SWAP2 POP POP JUMP JUMPDEST PUSH0 PUSH1 0x20 DUP3 DUP5 SUB SLT ISZERO PUSH2 0x2A97 JUMPI PUSH2 0x2A96 PUSH2 0x1D0D JUMP JUMPDEST JUMPDEST PUSH0 PUSH2 0x2AA4 DUP5 DUP3 DUP6 ADD PUSH2 0x2A6E JUMP JUMPDEST SWAP2 POP POP SWAP3 SWAP2 POP POP JUMP JUMPDEST PUSH32 0x4E487B7100000000000000000000000000000000000000000000000000000000 PUSH0 MSTORE PUSH1 0x12 PUSH1 0x4 MSTORE PUSH1 0x24 PUSH0 REVERT JUMPDEST PUSH0 PUSH1 0x40 DUP3 ADD SWAP1 POP PUSH2 0x2AED PUSH0 DUP4 ADD DUP6 PUSH2 0x1F00 JUMP JUMPDEST PUSH2 0x2AFA PUSH1 0x20 DUP4 ADD DUP5 PUSH2 0x1FE0 JUMP JUMPDEST SWAP4 SWAP3 POP POP POP JUMP INVALID LOG2 PUSH5 0x6970667358 0x22 SLT KECCAK256 0x4A 0xD4 BLOCKHASH 0x4D 0x4E 0xBC RETURN 0x4E GAS PUSH12 0xD6A5C460000674B3C49A52EA SWAP12 CODESIZE DELEGATECALL EXTCODESIZE 0xC1 GAS PUSH0 XOR SWAP16 PUSH21 0x64736F6C6343000816003300000000000000000000 "
				},
				"gasEstimates": {
					"creation": {
						"codeDepositCost": "2212600",
						"executionCost": "infinite",
						"totalCost": "infinite"
					},
					"external": {
						"addProduct(string,uint256)": "infinite",
						"approve(address,uint256)": "infinite",
						"balanceOf(address)": "infinite",
						"buyProduct(uint256)": "infinite",
						"getApproved(uint256)": "infinite",
						"getBillDetails(uint256)": "infinite",
						"isApprovedForAll(address,address)": "infinite",
						"name()": "infinite",
						"owner()": "2560",
						"ownerOf(uint256)": "infinite",
						"products(uint256)": "infinite",
						"renounceOwnership()": "30501",
						"safeTransferFrom(address,address,uint256)": "infinite",
						"safeTransferFrom(address,address,uint256,bytes)": "infinite",
						"setApprovalForAll(address,bool)": "infinite",
						"supportsInterface(bytes4)": "787",
						"symbol()": "infinite",
						"token()": "infinite",
						"tokenURI(uint256)": "infinite",
						"transferFrom(address,address,uint256)": "infinite",
						"transferOwnership(address)": "30841",
						"userPurchases(address,uint256)": "infinite"
					}
				},
				"methodIdentifiers": {
					"addProduct(string,uint256)": "b15247d9",
					"approve(address,uint256)": "095ea7b3",
					"balanceOf(address)": "70a08231",
					"buyProduct(uint256)": "8642269e",
					"getApproved(uint256)": "081812fc",
					"getBillDetails(uint256)": "5ba2530b",
					"isApprovedForAll(address,address)": "e985e9c5",
					"name()": "06fdde03",
					"owner()": "8da5cb5b",
					"ownerOf(uint256)": "6352211e",
					"products(uint256)": "7acc0b20",
					"renounceOwnership()": "715018a6",
					"safeTransferFrom(address,address,uint256)": "42842e0e",
					"safeTransferFrom(address,address,uint256,bytes)": "b88d4fde",
					"setApprovalForAll(address,bool)": "a22cb465",
					"supportsInterface(bytes4)": "01ffc9a7",
					"symbol()": "95d89b41",
					"token()": "fc0c546a",
					"tokenURI(uint256)": "c87b56dd",
					"transferFrom(address,address,uint256)": "23b872dd",
					"transferOwnership(address)": "f2fde38b",
					"userPurchases(address,uint256)": "cf2c0334"
				}
			},
			"storageLayout": {
				"storage": [
					{
						"astId": 360,
						"contract": "contracts/Simplify/ssss.sol:ProductStore",
						"label": "_name",
						"offset": 0,
						"slot": "0",
						"type": "t_string_storage"
					},
					{
						"astId": 362,
						"contract": "contracts/Simplify/ssss.sol:ProductStore",
						"label": "_symbol",
						"offset": 0,
						"slot": "1",
						"type": "t_string_storage"
					},
					{
						"astId": 366,
						"contract": "contracts/Simplify/ssss.sol:ProductStore",
						"label": "_owners",
						"offset": 0,
						"slot": "2",
						"type": "t_mapping(t_uint256,t_address)"
					},
					{
						"astId": 370,
						"contract": "contracts/Simplify/ssss.sol:ProductStore",
						"label": "_balances",
						"offset": 0,
						"slot": "3",
						"type": "t_mapping(t_address,t_uint256)"
					},
					{
						"astId": 374,
						"contract": "contracts/Simplify/ssss.sol:ProductStore",
						"label": "_tokenApprovals",
						"offset": 0,
						"slot": "4",
						"type": "t_mapping(t_uint256,t_address)"
					},
					{
						"astId": 380,
						"contract": "contracts/Simplify/ssss.sol:ProductStore",
						"label": "_operatorApprovals",
						"offset": 0,
						"slot": "5",
						"type": "t_mapping(t_address,t_mapping(t_address,t_bool))"
					},
					{
						"astId": 7,
						"contract": "contracts/Simplify/ssss.sol:ProductStore",
						"label": "_owner",
						"offset": 0,
						"slot": "6",
						"type": "t_address"
					},
					{
						"astId": 3095,
						"contract": "contracts/Simplify/ssss.sol:ProductStore",
						"label": "_productIdCounter",
						"offset": 0,
						"slot": "7",
						"type": "t_struct(Counter)1559_storage"
					},
					{
						"astId": 3098,
						"contract": "contracts/Simplify/ssss.sol:ProductStore",
						"label": "token",
						"offset": 0,
						"slot": "8",
						"type": "t_contract(IERC20)327"
					},
					{
						"astId": 3116,
						"contract": "contracts/Simplify/ssss.sol:ProductStore",
						"label": "products",
						"offset": 0,
						"slot": "9",
						"type": "t_mapping(t_uint256,t_struct(Product)3111_storage)"
					},
					{
						"astId": 3121,
						"contract": "contracts/Simplify/ssss.sol:ProductStore",
						"label": "userPurchases",
						"offset": 0,
						"slot": "10",
						"type": "t_mapping(t_address,t_array(t_uint256)dyn_storage)"
					}
				],
				"types": {
					"t_address": {
						"encoding": "inplace",
						"label": "address",
						"numberOfBytes": "20"
					},
					"t_array(t_uint256)dyn_storage": {
						"base": "t_uint256",
						"encoding": "dynamic_array",
						"label": "uint256[]",
						"numberOfBytes": "32"
					},
					"t_bool": {
						"encoding": "inplace",
						"label": "bool",
						"numberOfBytes": "1"
					},
					"t_contract(IERC20)327": {
						"encoding": "inplace",
						"label": "contract IERC20",
						"numberOfBytes": "20"
					},
					"t_mapping(t_address,t_array(t_uint256)dyn_storage)": {
						"encoding": "mapping",
						"key": "t_address",
						"label": "mapping(address => uint256[])",
						"numberOfBytes": "32",
						"value": "t_array(t_uint256)dyn_storage"
					},
					"t_mapping(t_address,t_bool)": {
						"encoding": "mapping",
						"key": "t_address",
						"label": "mapping(address => bool)",
						"numberOfBytes": "32",
						"value": "t_bool"
					},
					"t_mapping(t_address,t_mapping(t_address,t_bool))": {
						"encoding": "mapping",
						"key": "t_address",
						"label": "mapping(address => mapping(address => bool))",
						"numberOfBytes": "32",
						"value": "t_mapping(t_address,t_bool)"
					},
					"t_mapping(t_address,t_uint256)": {
						"encoding": "mapping",
						"key": "t_address",
						"label": "mapping(address => uint256)",
						"numberOfBytes": "32",
						"value": "t_uint256"
					},
					"t_mapping(t_uint256,t_address)": {
						"encoding": "mapping",
						"key": "t_uint256",
						"label": "mapping(uint256 => address)",
						"numberOfBytes": "32",
						"value": "t_address"
					},
					"t_mapping(t_uint256,t_struct(Product)3111_storage)": {
						"encoding": "mapping",
						"key": "t_uint256",
						"label": "mapping(uint256 => struct ProductStore.Product)",
						"numberOfBytes": "32",
						"value": "t_struct(Product)3111_storage"
					},
					"t_string_storage": {
						"encoding": "bytes",
						"label": "string",
						"numberOfBytes": "32"
					},
					"t_struct(Counter)1559_storage": {
						"encoding": "inplace",
						"label": "struct Counters.Counter",
						"members": [
							{
								"astId": 1558,
								"contract": "contracts/Simplify/ssss.sol:ProductStore",
								"label": "_value",
								"offset": 0,
								"slot": "0",
								"type": "t_uint256"
							}
						],
						"numberOfBytes": "32"
					},
					"t_struct(Product)3111_storage": {
						"encoding": "inplace",
						"label": "struct ProductStore.Product",
						"members": [
							{
								"astId": 3108,
								"contract": "contracts/Simplify/ssss.sol:ProductStore",
								"label": "name",
								"offset": 0,
								"slot": "0",
								"type": "t_string_storage"
							},
							{
								"astId": 3110,
								"contract": "contracts/Simplify/ssss.sol:ProductStore",
								"label": "price",
								"offset": 0,
								"slot": "1",
								"type": "t_uint256"
							}
						],
						"numberOfBytes": "64"
					},
					"t_uint256": {
						"encoding": "inplace",
						"label": "uint256",
						"numberOfBytes": "32"
					}
				}
			},
			"userdoc": {
				"kind": "user",
				"methods": {},
				"version": 1
			}
		}
	}
}